:020000040800F2
:1000000068630020AD020008953F0008090400085D
:10001000913F00081B04000805690008000000006B
:100020000000000000000000000000006B49000814
:10003000CD05000800000000973F00086D4900084A
:10004000C7020008C7020008C7020008C70200086C
:10005000C7020008C7020008C7020008C70200085C
:10006000C7020008C7020008C7020008C70200084C
:10007000C7020008C7020008C7020008C70200083C
:10008000C7020008C7020008C7020008C70200082C
:10009000C7020008C7020008C7020008C70200081C
:1000A000C7020008C7020008C7020008C70200080C
:1000B000F14B0008C7020008C7020008C702000889
:1000C000C7020008C7020008C70200081D47000851
:1000D000C70200088D660008C70200089D66000878
:1000E000C7020008C702000800000000C70200089D
:1000F000C7020008C7020008C7020008C7020008BC
:10010000C7020008C7020008C7020008C7020008AB
:10011000C7020008C7020008C7020008C70200089B
:10012000C7020008C7020008C7020008C70200088B
:10013000C7020008C7020008C7020008C70200087B
:1001400000000000000000000000000000000000AF
:10015000C7020008C7020008C7020008C70200085B
:10016000C7020008C7020008C7020008C70200084B
:10017000C7020008C7020008C7020008000000000C
:10018000C7020008C7020008C7020008C70200082B
:10019000C7020008C7020008C7020008C70200081B
:1001A000C7020008C7020008C7020008C70200080B
:1001B000C7020008C7020008C7020008C7020008FB
:1001C000C7020008C7020008C7020008C7020008EB
:1001D000C7020008C7020008C7020008C7020008DB
:1001E000C7020008C7020008C7020008C7020008CB
:1001F000C7020008C7020008C7020008C7020008BB
:10020000C7020008C7020008C7020008C7020008AA
:10021000C7020008C7020008C7020008C70200089A
:10022000C7020008C7020008C7020008000000005B
:10023000C7020008C702000800000000C70200084B
:10024000C7020008C7020008C7020008C70200086A
:10025000C7020008C7020008C7020008C70200085A
:10026000C7020008C7020008C7020008C70200084A
:10027000C7020008C7020008C7020008000000000B
:10028000C7020008C7020008C702000800000000FB
:1002900000000000C7020008DFF80CD000F0A2F850
:1002A00000480047597700086863002006488047E7
:1002B00006480047FEE7FEE7FEE7FEE7FEE7FEE74B
:1002C000FEE7FEE7FEE7FEE7494B0008990200085B
:1002D0002DE9F05F0546002092469B46884606467B
:1002E000814640241BE0284641464746224600F00E
:1002F00069F853465A46C01A914110D31146184620
:10030000224600F050F82D1A67EB01084F462246AE
:100310000120002100F047F817EB00094E41201E94
:10032000A4F10104DFDC484631462A464346BDE8D5
:10033000F09F40EA01039B0703D009E008C9121FA0
:1003400008C0042AFAD203E011F8013B00F8013B8F
:10035000521EF9D27047D2B201E000F8012B491EBB
:10036000FBD270470022F6E710B513460A46044652
:100370001946FFF7F0FF204610BD30B504460020B7
:10038000034600E05B1C934203D2E05CCD5C401B63
:10039000F8D030BD034611F8012B00F8012B002ADC
:1003A000F9D118467047202A04DB203A00FA02F1FE
:1003B000002070479140C2F1200320FA03F3194353
:1003C00090407047202A04DB203A21FA02F00021F5
:1003D000704721FA02F3D040C2F120029140084355
:1003E00019467047064C074D06E0E06840F00103EF
:1003F00094E8070098471034AC42F6D3FFF750FF5B
:10040000E0860008008700081EF0040F0CBFEFF321
:100410000880EFF3098003F097BB00BFFEE7000000
:1004200010B500BF4848006800F4003000B139E062
:1004300000BF00BF00BFBFF34F8F00BF00BF00BFB2
:1004400000BF00BF00BFBFF36F8F00BF00BF00BF82
:1004500000203E49086000BF00BF00BFBFF34F8FC0
:1004600000BF00BF00BF00BF00BF00BFBFF36F8F62
:1004700000BF00BF00BF3448006840F4003032497C
:10048000086000BF00BF00BFBFF34F8F00BF00BFB9
:1004900000BF00BF00BF00BFBFF36F8F00BF00BF32
:1004A00000BF00BF00BF284B1B6803F4803303B1BB
:1004B00048E00023244C7034236000BF00BF00BF1D
:1004C000BFF34F8F00BF00BF00BF231F1868C0F3EA
:1004D0004E3100BFC0F3C90200BF43F6E07303EA28
:1004E00041134FF0404404EA82742343174C103404
:1004F000236000BF00BF131EA2F10102EDD10B1E4D
:10050000A1F10101E6D100BF00BF00BFBFF34F8FD3
:1005100000BF00BF00BF0C4B1B6843F480330A4C84
:10052000236000BF00BF00BFBFF34F8F00BF00BFFD
:1005300000BF00BF00BF00BFBFF36F8F00BF00BF91
:1005400000BF00BF10BD000014ED00E050EF00E060
:1005500010B504460CB9124810BD012C01D1002081
:10056000FAE7022C01D10F48F6E7032C01D1002055
:10057000F2E7042C01D10020EEE7052C01D1002088
:10058000EAE7062C01D10020E6E7072C01D1002084
:10059000E2E74FF48E7104A000F076F90020DBE76B
:1005A000CC420020F84A00202E2E5C2E2E5C557383
:1005B00065725C6273705C7372635C6273705F75AA
:1005C0006172745F6669666F2E6300007047000099
:1005D00008B500244448021D016844A006F094F9BF
:1005E0004148028B4069010D4AA006F08DF907F0E1
:1005F000BDF86421002007F009F873E006F086FCDE
:10060000002006F0F5FB10B1022006F066FF6946F7
:10061000002007F085F8002864D09DF800003528F8
:1006200037D008DC31280FD0322816D033281DD01F
:10063000342853D123E0582840D05A2833D0782882
:100640003BD07A284AD12DE04FF4805200213BA0C4
:1006500006F05AF907F08EF943E04FF4805200217A
:1006600042A006F051F907F009FB3AE04BA006F072
:100670004BF952A006F048F907F05CF931E05BA0B5
:1006800006F042F962A006F03FF9552007F07EFA25
:1006900027E015484069010D69A006F035F907F01B
:1006A000D9F91EE000BF0CB1641E02E06EA006F096
:1006B0002BF9A00207F028FA13E000BF0A484069AE
:1006C0000121C1EB9020A04201D9641C02E06AA084
:1006D00006F01AF9A00207F017FA02E007F046F850
:1006E00000BF00BF8AE70000B0320020BCECB2E2DD
:1006F000B5BDB4AED0D0466C6173682C204944209F
:100700003D20253038582C20D0CDBAC53A2025734D
:10071000200D0A0020202020C8DDC1BF203A20255E
:10072000644DD7D6BDDA2C20C9C8C7F8B4F3D0A120
:10073000203A202564D7D6BDDA0D0A000D0AA1BEE5
:1007400031202D20B6C1B4AED0D0466C6173682C78
:1007500020B5D8D6B73A307825582CB3A4B6C83AC5
:100760002564D7D6BDDAA1BF0D0A00000D0AA1BECF
:1007700032202D20D0B4B4AED0D0466C6173682C3A
:1007800020B5D8D6B73A307825582CB3A4B6C83A95
:100790002564D7D6BDDAA1BF0D0A00000D0AA1BE9F
:1007A00033202D20B2C1B3FDD5FBB8F6B4AED0D006
:1007B000466C617368A1BF0D0A000000D5FBB8F656
:1007C000466C617368B2C1B3FDCDEAB1CFB4F3B882
:1007D000C5D0E8D2AA3230C3EBD7F3D3D2A3ACC78B
:1007E000EBC4CDD0C4B5C8B4FD0000000D0AA1BE55
:1007F00034202D20D0B4D5FBB8F6B4AED0D0466CA2
:100800006173682C20C8AB30783535A1BF0D0A0064
:10081000D5FBB8F6466C617368D0B4C8EBCDEAB1CD
:10082000CFB4F3B8C5D0E8D2AA3230C3EBD7F3D3F4
:10083000D2A3ACC7EBC4CDD0C4B5C8B4FD00000092
:100840000D0AA1BE35202D20B6C1D5FBB8F6B4AE39
:10085000D0D0466C6173682C2025644DD7D6BDDAA4
:10086000A1BF0D0A00000000D2D1BEADCAC7D7EEAD
:10087000C7B00D0A00000000D2D1BEADCAC7D7EE86
:10088000BAF30D0A0000000001B9704700BFFEE78F
:1008900070B50446B3F5804F13D1D1E9000540EAA5
:1008A00005108D6840EA05208D6928438D8940EA4E
:1008B000054054F82250064E3540284344F82200A3
:1008C00003E06FF0704044F82200002070BD00008B
:1008D0000000F0CF30B50246086852F8200020F042
:1008E00001000C6842F824008868082801D14023E0
:1008F00000E00023486818438C682043CC682043FC
:100900000C6920434C6920438C692043CC69204307
:100910000C6A20434C6A20438C6A2043CC6A2043F3
:100920000C6B20434C6B20438C6B20430C6852F8BB
:1009300024400D4D2C4020430C6842F82400086BE5
:10094000B0F5801F07D1086828B1106820F4801026
:100950000C6B20431060086818B110684C6B204382
:100960001060002030BD00008004C0FF30B5034699
:10097000D1E9000540EA05108D6840EA05208D891F
:1009800040EA0545088A401E45EA0055087D801E5C
:1009900045EA00608D692843551C53F8255005F041
:1009A00040452843551C43F82500186800F4801082
:1009B000B0F5801F0BD1586820F47004088A401EDF
:1009C00044EA0054586820F4700020435860002026
:1009D00030BD02460868B0B9D1E901031843CB68BD
:1009E00018430B6918434B6918438B691843CB694B
:1009F00018430B6A18434B6A184313686FF30E03CE
:100A00001843106019E0D1E9070318434B6A1843F3
:100A1000136823F4F84318431060D1E90103184325
:100A2000CB6818430B6918434B6918438B6918430B
:100A300053686FF30E03184350600020704702465E
:100A4000506943F6FE73984340EA4100506100202C
:100A5000704710B50346D1E9000420438C68641E3A
:100A600040EA4410CC6840EA44201C6920431861E5
:100A7000002010BD30B50346FAB90868401E4C6826
:100A8000641E40EA04148868401E44EA0024C868D2
:100A9000401E44EA0034088A401E44EA0044888A22
:100AA000401E44EA0054087E401E44EA00609C68F0
:100AB00004F070442043986022E0C868401E04039C
:100AC000888A401E44EA00509C680E4D2C4020430A
:100AD00098600868401E4C68641E40EA04148868E8
:100AE000401E44EA0024088A401E44EA0044087E6E
:100AF000401E44EA0060DC6804F070442043D86083
:100B0000002030BDFF0F0FFF70B504460CB9012067
:100B100070BD94F83500022803D080206065012064
:100B2000F6E7DC492068884249D0DA491831206864
:100B3000884244D0D7493031206888423FD0D549D7
:100B40004831206888423AD0D249603120688842D2
:100B500035D0D04978312068884230D0CD499031A5
:100B6000206888422BD0CB49A8312068884226D003
:100B7000C9492068884222D0C74918312068884274
:100B80001DD0C54930312068884218D0C24948314B
:100B90002068884213D0C0496031206888420ED056
:100BA000BD4978312068884209D0BB49903120681E
:100BB000884204D0B849A8312068884201D1012078
:100BC00000E00020F0B3042084F83500B14920682B
:100BD00088424BD0AF4918312068884246D0AD4991
:100BE00030312068884241D0AA4948312068884283
:100BF0003CD0A84960312068884237D0A549783177
:100C00002068884232D0A3499031206888422DD094
:100C1000A049A8312068884228D09F49206888428E
:100C200024D09D491831206888421FD09A4930311C
:100C3000206888421AD0984948312068884215D0E7
:100C4000954900E020E06031206888420ED092494A
:100C500078312068884209D08F49903120688842D5
:100C600004D08D49A8312068884206D120680068E8
:100C700020F001002168086009E12068006820F088
:100C800001002168086002E12068006820F00E0081
:100C9000216808607F492068884249D07D49183121
:100CA0002068884244D07B493031206888423FD058
:100CB00078494831206888423AD0764960312068C6
:100CC000884235D0734978312068884230D07149E4
:100CD0009031206888422BD06E49A8312068884224
:100CE00026D06D492068884222D06B49183120688F
:100CF00088421DD0684930312068884218D0664942
:100D000048312068884213D06349603120688842A6
:100D10000ED0614978312068884209D05E4990310F
:100D20002068884204D05C49A8312068884206D1F6
:100D30002068006820F001002168086005E0206854
:100D4000006820F00100216808605249206888424C
:100D500070D050491831206888426BD04D493031ED
:100D60002068884266D04B4948312068884261D06B
:100D700048496031206888425CD046497831206813
:100D8000884257D0434990312068884252D0414927
:100D9000A831206888424DD03F492068884249D018
:100DA0003D4918312068884244D03B4930312068A1
:100DB00088423FD038494831206888423AD0364985
:100DC00060312068884235D03349783120688842C4
:100DD00030D031499031206888422BD02E49A8313B
:100DE0002068884226D02D492068884222D02B498D
:100DF0001431206888421DD0284928312068884253
:100E000018D026493C312068884213D023495031FC
:100E1000206888420ED0214964312068884209D078
:100E20001E4978312068884204D01C498C312068E2
:100E3000884201D1012000E00020D8B1206E006876
:100E400020F48070216E0860A56D94F85C0000F0BD
:100E50001F01012088406860D4E919104860E06EE5
:100E600040B1E06E006820F48070E16E0860D4E963
:100E70001C10486000BF002084F8340000BF01202F
:100E800084F83500206D10B12046216D8847002080
:100E90003EE60000100002401004024008540258D0
:100EA00070B5044600F01EF906462546681C10B1D0
:100EB00004480078054400BF00F014F9801BA842E4
:100EC000FAD370BD440000200348006840F00100E0
:100ED000014908607047000020040058F8B5024638
:100EE0000023734DDEE001279F400E6806EA0704E9
:100EF000002C71D04E68022E02D04E68122E13D1F3
:100F0000DF0802F1200656F827005E07F70E0F26CD
:100F1000BE40B0435F07FF0E0E69BE403043DF089E
:100F200002F1200646F8270010685F000326BE4045
:100F3000B0430E7906F003065F00BE4030431060F8
:100F40004E68012E08D04E68022E05D04E68112E34
:100F500002D04E68122E13D190685F000326BE4067
:100F6000B0435F00CE68BE403043906050680126B9
:100F70009E40B0430E79C6F300169E403043506049
:100F8000D0685F000326BE40B0435F008E68BE405D
:100F90003043D0604E6806F08056B6F1805F1BD1BA
:100FA00000BF444E366846F00206424F3E603E4661
:100FB000366806F00206009600BF00BF3E4E9F084E
:100FC00056F827009E07370F0F26BE40B0433B4E12
:100FD000B24202D100262EE063E0394EB24201D186
:100FE000012628E0374EB24201D1022623E0364ED8
:100FF000B24201D103261EE0344EB24201D1042692
:1010000019E0334EB24201D1052614E0314EB2420E
:1010100001D106260FE0304EB24201D107260AE088
:101020002E4EB24201D1082605E02D4EB24201D12A
:10103000092600E00A269F073F0FBE4030431E4EA0
:101040009F0846F827002868A0434E6806F48036BB
:10105000B6F5803F00D1204328606868A0434E6801
:1010600006F40036B6F5003F00D1204368604FF02B
:10107000B0463068A0434E6806F48016B6F5801F6F
:1010800000D120434FF0B04630607068A0434E68F6
:1010900006F40016B6F5001F00D120434FF0B0460D
:1010A00070605B1C0E68DE40002E7FF41CAFF8BD44
:1010B00080000058F4440258080400580000025808
:1010C0000004025800080258000C02580010025890
:1010D0000014025800180258001C02580020025840
:1010E0000024025801480068704700003C000020BE
:1010F00003480068034909780844014908607047BB
:101100003C0000204400002010B5032000F00EF940
:1011100001F0C6FA10490968C1F303210F4A515C76
:1011200001F01F01C8400E4908600B48006800F03C
:101130000F001146085C00F01F0109480068C84014
:10114000084908600F2000F00FF808B1012010BD19
:1011500000F09AF80020FAE718440258D0860008F8
:10116000480000204C00002070B50446114800786B
:1011700008B9012070BD0F4800784FF47A71B1FBB7
:10118000F0F00D490968B1FBF0F5284602F04FFB7D
:1011900008B10120EEE7102C07D200222146501E94
:1011A00000F087F80548046001E00120E2E7002034
:1011B000E0E700004400002048000020400000203C
:1011C0004178154A11600178F9B1121D416811602A
:1011D000017B0907C27A41EA0261827A41EAC2418F
:1011E000427B41EA8241827B41EA4241C27B41EA41
:1011F0000241427A41EA0221027A41EA420102783E
:101200001143054A0832116005E00021024A121D0F
:101210001160121D1160704798ED00E000BF00BF23
:1012200000BFBFF35F8F00BF00BF00BF054800686D
:1012300020F48030034908600020024970310860C2
:101240007047000024ED00E040F001010D4A1160FC
:101250000C497039096841F480310A4A703A1160CA
:1012600000BF00BF00BFBFF34F8F00BF00BF00BF74
:1012700000BF00BF00BFBFF36F8F00BF00BF00BF44
:101280007047000094ED00E07047014608460028D2
:101290000DDB00BF00BF00F01F0301229A4043098D
:1012A0009B0003F1E023C3F8002100BF00BF00BF93
:1012B00070472DE9F05F80460D46164605F034FB79
:1012C000074639462A46334601F00700C0F1070AAF
:1012D000BAF1040F02D94FF0040A01E0C0F1070A85
:1012E000D14600F1040ABAF1070F02D24FF0000A0A
:1012F00001E0A0F1030AD4464FF0010A0AFA09FA04
:10130000AAF1010A0AEA020A0AFA0CFA4FF0010BE2
:101310000BFA0CFBABF1010B0BEA030B4AEA0B04D3
:101320002146404605F008FBBDE8F09F00BF00F0F5
:101330000702064B19684FF6FF031940044B0B4395
:1013400043EA0221014B196000BF70470CED00E039
:101350000000FA0510B501F0A3F907490968C1F3C7
:101360000321064A515C01F01F01C840044908608E
:101370000846006810BD000018440258D0860008D6
:101380004800002010B501F04FF905490968C1F384
:101390000211044A515C01F01F01C84010BD000059
:1013A00020440258D086000870B50146844D2D684F
:1013B00005F00303824D2D68C5F30530804D2D1DCA
:1013C0002D68C5F300147E4D14352D68C5F3CC058A
:1013D00015FB04F501EE105AB8EE411AF0EE410A81
:1013E00000286FD023B1012B4ED0022B6BD16BE0C4
:1013F000734D283D2D68C5F340153DB3704D283D14
:101400002D68C5F3C1066F4D25FA06F201EE102ACC
:10141000F8EE411A01EE100AB8EE411A81EE812A67
:101420009FED691AC0EE811A654D10352D68C5F320
:10143000080501EE105AB8EE411A31EE811AF7EEA6
:10144000001A31EE211A22EE010A1CE001EE100A08
:10145000B8EE411ADFED5D1A81EE812A9FED5A1A2E
:10146000C0EE811A564D10352D68C5F3080501EE02
:10147000105AB8EE411A31EE811AF7EE001A31EE29
:10148000211A22EE010A5BE001EE100AB8EE411AC1
:10149000DFED4F1A81EE812A9FED4B1AC0EE811AC3
:1014A000474D10352D68C5F3080501EE105AB8EE0A
:1014B000411A31EE811AF7EE001A31EE211A22EEAE
:1014C000010A3DE077E01DE001EE100AB8EE411A96
:1014D0009FED402AC2EE011A9FED3B1A80EE812A51
:1014E000374D10352D68C5F3080501EE105AB8EEDA
:1014F000411A32EE011AB7EE002A31EE021A21EE3D
:10150000810A1DE001EE100AB8EE411ADFED301A33
:1015100081EE812A9FED2C1AC0EE811A284D1035DC
:101520002D68C5F3080501EE105AB8EE411A31EEE8
:10153000811AF7EE001A31EE211A22EE010A00BFDD
:1015400000BF1F4D10352D68C5F3462501EE105A1A
:10155000B8EE411AF7EE001A31EE211AC0EE011A68
:10156000BCEEE11A81ED001A154D10352D68C5F35A
:10157000064501EE105AB8EE411AF7EE001A31EEA8
:10158000211AC0EE011ABCEEE11A81ED011A0C4DD0
:1015900010352D68C5F3066501EE105AB8EE411AF4
:1015A000F7EE001A31EE211AC0EE011ABCEEE11A74
:1015B00081ED021A03E000250D604D608D6070BD65
:1015C000284402580090D003000000460024744CC8
:1015D0000024744A20BCBE4B70B50146844D2D6872
:1015E00005F00303824D2D68C5F30550804D2D1D78
:1015F0002D68C5F300247E4D1C352D68C5F3CC0540
:1016000015FB04F501EE105AB8EE411AF0EE410A4E
:1016100000286FD023B1012B4ED0022B6BD16BE091
:10162000734D283D2D68C5F340153DB3704D283DE1
:101630002D68C5F3C1066F4D25FA06F201EE102A9A
:10164000F8EE411A01EE100AB8EE411A81EE812A35
:101650009FED691AC0EE811A654D18352D68C5F3E6
:10166000080501EE105AB8EE411A31EE811AF7EE74
:10167000001A31EE211A22EE010A1CE001EE100AD6
:10168000B8EE411ADFED5D1A81EE812A9FED5A1AFC
:10169000C0EE811A564D18352D68C5F3080501EEC8
:1016A000105AB8EE411A31EE811AF7EE001A31EEF7
:1016B000211A22EE010A5BE001EE100AB8EE411A8F
:1016C000DFED4F1A81EE812A9FED4B1AC0EE811A91
:1016D000474D18352D68C5F3080501EE105AB8EED0
:1016E000411A31EE811AF7EE001A31EE211A22EE7C
:1016F000010A3DE077E01DE001EE100AB8EE411A64
:101700009FED402AC2EE011A9FED3B1A80EE812A1E
:10171000374D18352D68C5F3080501EE105AB8EE9F
:10172000411A32EE011AB7EE002A31EE021A21EE0A
:10173000810A1DE001EE100AB8EE411ADFED301A01
:1017400081EE812A9FED2C1AC0EE811A284D1835A2
:101750002D68C5F3080501EE105AB8EE411A31EEB6
:10176000811AF7EE001A31EE211A22EE010A00BFAB
:1017700000BF1F4D18352D68C5F3462501EE105AE0
:10178000B8EE411AF7EE001A31EE211AC0EE011A36
:10179000BCEEE11A81ED001A154D18352D68C5F320
:1017A000064501EE105AB8EE411AF7EE001A31EE76
:1017B000211AC0EE011ABCEEE11A81ED011A0C4D9E
:1017C00018352D68C5F3066501EE105AB8EE411ABA
:1017D000F7EE001A31EE211AC0EE011ABCEEE11A42
:1017E00081ED021A03E000250D604D608D6070BD33
:1017F000284402580090D003000000460024744C96
:101800000024744A20BCBE4B2DE9F041044600255B
:10181000A846206800F00060B0F1006F30D1606E23
:1018200048B1B0F5801F0DD0B0F5001F10D0B0F555
:10183000401F15D113E0F948006840F40030F74923
:1018400008600FE00221201D02F0E4FC054609E0DB
:10185000022104F1240002F08FFD054602E001E0C0
:10186000012500BF00BF55B9EC482430006820F4C2
:101870004010616E0843E9492431086000E0A84641
:10188000208800F48070B0F5807F2DD1606D052830
:101890001AD2DFE800F0030A10171800DF480068CA
:1018A00040F40030DD49086010E00021201D02F006
:1018B000B1FC05460AE0002104F1240002F05CFDC1
:1018C000054603E002E001E0012500BF00BF55B975
:1018D000D2482430006820F00700616D0843CF49EA
:1018E0002431086000E0A846208800F40070B0F5BC
:1018F000007F33D1A06D802817D003DC40B1402891
:101900001CD10CE0C02817D0B0F5807F16D114E0B0
:10191000C248006840F40030C049086010E000216F
:10192000201D02F077FC05460AE0002104F12400A6
:1019300002F022FD054603E002E001E0012500BFC0
:1019400000BF55B9B5482430006820F4E070A16D9F
:101950000843B2492431086000E0A846208800F41A
:101960008060B0F5806F38D1D4F8A400B0F5800F56
:1019700019D004DC50B1B0F5001F1DD10DE0B0F559
:10198000C00F17D0B0F5000F16D114E0A3480068BF
:1019900040F40030A149086010E00021201D02F051
:1019A00039FC05460AE0002104F1240002F0E4FCC1
:1019B000054603E002E001E0012500BF00BF5DB97C
:1019C00096482C30006820F46000D4F8A410084336
:1019D00092492C31086000E0A846208800F400609D
:1019E000B0F5006F38D1D4F8A800B0F1007F19D05D
:1019F00004DC50B1B0F1807F1DD10DE0B0F1407F2B
:101A000017D0B0F1806F16D114E08448006840F41C
:101A100000308249086010E00021201D02F0FAFB2E
:101A200005460AE0002104F1240002F0A5FC054669
:101A300003E002E001E0012500BF00BF5DB9774887
:101A40002C30006820F0E060D4F8A81008437349F7
:101A50002C31086000E0A846206800F00070B0F16A
:101A6000007F27D1A06CA0B1102804D0202809D075
:101A700030280FD10CE06948006840F40030674915
:101A8000086009E00221201D02F0C4FB054603E0C6
:101A900002E001E0012500BF00BF55B95F482030DA
:101AA000006820F03000A16C08435C4920310860D8
:101AB00000E0A846208800F48050B0F5805F36D161
:101AC000E06DB0F5005F19D004DC50B1B0F5805F77
:101AD0001DD10DE0B0F5405F17D0B0F5804F16D1A5
:101AE00014E04E48006840F400304C49086010E0B3
:101AF0000021201D02F08EFB05460AE0002104F1C2
:101B0000240002F039FC054603E002E001E0012573
:101B100000BF00BF55B941482430006820F4E040C0
:101B2000E16D08433D492431086000E0A846208863
:101B300000F40050B0F5005F34D1206EB0F5403FA6
:101B40001DD007DC68B1B0F5803F0BD0B0F5003F89
:101B500018D10DE0B0F5802F12D0B0F5A02F11D123
:101B60000FE011E00121201D02F054FB05460BE0BF
:101B7000012104F1240002F0FFFB054604E003E02C
:101B800002E001E0012500BF00BF55B92348243021
:101B9000006820F4E020216E0843204924310860C9
:101BA00000E0A846208800F48040B0F5804F38D18E
:101BB000D4F8AC00B0F1405F1DD007DC68B1B0F1E3
:101BC000805F0BD0B0F1005F18D10DE0B0F1804F15
:101BD00012D0B0F1A04F11D10FE011E00121201D72
:101BE00002F018FB05460BE0012104F1240002F08D
:101BF000C3FB054604E003E002E001E0012500BF6D
:101C000000BF6DB905482C30006820F0E040D4F8E2
:101C1000AC10084301492C31086002E02C44025802
:101C2000A846208800F40040B0F5004F26D1E06EB1
:101C300098B1B0F1805F03D0B0F1005F0ED106E043
:101C4000F948006840F40030F749086008E00121D5
:101C5000201D02F0DFFA054602E001E0012500BF89
:101C600000BF55B9F0482430006820F04050E16EC4
:101C70000843ED492431086000E0A846206800F0E0
:101C80008070B0F1807F27D1606CA0B1012804D0B2
:101C9000022809D003280FD10CE0E348006840F483
:101CA0000030E149086009E00221201D02F0B2FA8B
:101CB000054603E002E001E0012500BF00BF55B981
:101CC000D9482030006820F00300616C0843D649F1
:101CD0002031086000E0A846206800F48000B0F5DC
:101CE000800F7DD1D148006840F48070CF490860F2
:101CF000FFF7F8F9064606E0FFF7F4F9801B6428C1
:101D000001D9032505E0C948006800F48070002867
:101D1000F2D000BF85BBC4484430006800F4407076
:101D2000B4F8B01001F44071884213D0BE4844307A
:101D3000006820F44077BC484430006840F48030AC
:101D4000B949443108600846006820F480300860D2
:101D500008460760D4F8B000B0F5807F15D1FFF7D2
:101D6000C1F9064609E0FFF7BDF9801B41F2883151
:101D7000884202D9032507E038E0AB4844300068C8
:101D8000C0F340000028EED000BF55BB00BFB4F840
:101D9000B00000F44070B0F5407F0ED1A2481C386E
:101DA000006820F47C51A24AD4F8B000104041EA07
:101DB00010109D491C39086007E09B481C380068DA
:101DC00020F47C5098491C390860974844300068DA
:101DD000B4F8B010C1F30B0108439349443101E05A
:101DE00005E001E0086002E0A84600E0A84620788F
:101DF00000F0010068B3A06F182819D005DC48B1C5
:101E0000082808D0102816D10BE0202811D0282847
:101E100011D10FE011E00121201D02F0FBF9054670
:101E20000BE0012104F1240002F0A6FA054604E0CB
:101E300003E002E001E0012500BF00BF55B97A4888
:101E40002830006820F03800A16F08437649283117
:101E5000086000E0A846207800F00200022828D19F
:101E6000606F062815D2DFE800F003040A11121390
:101E700011E00121201D02F0CDF905460BE0012102
:101E800004F1240002F078FA054604E003E002E0E1
:101E900001E0012500BF00BF55B963482830006844
:101EA00020F00700616F08435F492831086000E0B7
:101EB000A846207800F0040004282AD1D4F8900025
:101EC000062815D2DFE800F003040A11121311E00E
:101ED0000121201D02F09EF905460BE0012104F1CD
:101EE000240002F049FA054604E003E002E001E0C4
:101EF000012500BF00BF5DB94B482C30006820F0C1
:101F00000700D4F89010084347492C31086000E0DE
:101F1000A846207800F02000202836D1D4F88C0084
:101F2000B0F1405F1DD007DC68B1B0F1805F0BD02D
:101F3000B0F1005F18D10DE0B0F1804F12D0B0F1D8
:101F4000A04F11D10FE011E00021201D02F062F935
:101F500005460BE0022104F1240002F00DFA0546CB
:101F600004E003E002E001E0012500BF00BF5DB92D
:101F70002D482830006820F0E040D4F88C10084349
:101F800029492831086000E0A846207800F0400088
:101F9000402836D1D4F89800B0F5406F1DD007DC4A
:101FA00068B1B0F5806F0BD0B0F5006F18D10DE0BF
:101FB000B0F5805F12D0B0F5A05F11D10FE011E055
:101FC0000021201D02F026F905460BE0022104F154
:101FD000240002F0D1F9054604E003E002E001E04C
:101FE000012500BF00BF5DB90F482C30006820F408
:101FF000E050D4F8981008430B492C31086000E0F9
:10200000A846207800F0800080283AD1D4F89C00BF
:10201000B0F5C04F23D00DDC98B1B0F5005F11D002
:10202000B0F5804F1ED113E02C44025800480258EE
:10203000FFFCFF0FB0F5004F12D0B0F5204F11D1CB
:102040000FE011E00021201D02F0E4F805460BE04E
:10205000022104F1240002F08FF9054604E003E0B8
:1020600002E001E0012500BF00BF4DB9AD480068A6
:1020700020F46040D4F89C100843AA49086000E0AE
:10208000A846207800F00800082817D1D4F880006E
:10209000B0F5805F07D1022104F1240002F06CF951
:1020A00008B14FF001089F48001F006820F440501D
:1020B000D4F8801008439B49091F0860207800F07D
:1020C0001000102815D1D4F89400B0F5807F07D106
:1020D000022104F1240002F04FF908B14FF0010889
:1020E0009048006820F44070D4F8941008438D495B
:1020F0000860206800F40020B0F5002F26D1D4F845
:10210000A00030B1B0F5803F09D0B0F5003F0ED14E
:102110000CE00021201D02F07DF8054609E00221B7
:1021200004F1240002F028F9054602E001E001254F
:1021300000BF00BF4DB97B48006820F44030D4F8A0
:10214000A01008437749086000E0A846206800F422
:102150008020B0F5802F2DD1D4F88400B0F5801FF9
:1021600006D0B0F5001F0CD0B0F5401F11D10FE024
:102170006C482C38006840F400306A492C390860FB
:1021800009E0012104F1240002F0F6F8054602E01E
:1021900001E0012500BF00BF5DB96248001F006873
:1021A00020F44010D4F8841008435E49091F0860E9
:1021B00000E0A846206800F48030B0F5803F24D1CC
:1021C000E06C18B1B0F5803F0FD108E055482C38CD
:1021D000006840F4003053492C39086007E00221C0
:1021E000201D02F017F8054601E0012500BF00BFE1
:1021F00055B94C480C38006820F48030E16C084335
:1022000048490C39086000E0A846206800F00050FA
:10221000B0F1005F07D1022104F1240002F0ACF814
:1022200008B14FF00108206800F40030B0F5003F1D
:1022300027D1E06FA0B1B0F5807F06D0B0F5007F68
:102240000CD0B0F5407F0CD109E036482C3800683E
:1022500040F4003033492C39086004E003E002E028
:1022600001E0012500BF00BF55B92E48001F0068DE
:1022700020F44070E16F08432A49091F086000E01C
:10228000A846206800F48010B0F5801F09D12548C9
:102290000838006820F00040216F084321490839C0
:1022A0000860206800F40010B0F5001F09D11D4837
:1022B0000838006820F08070A16E08431949083979
:1022C0000860206800F08040B0F1804F11D100BF5D
:1022D00014484838006820F4004012494839086022
:1022E00008460068D4F8B81008430E494839086019
:1022F00000BF206800F00040B0F1004F09D109484C
:102300000C38006820F04050216D084305490C3915
:102310000860B8F1000F02D10020BDE8F081012073
:10232000FBE70000584402582DE9F04104460D46F1
:1023300014B90120BDE8F081B648006800F00F0034
:10234000A8420ED2B348006820F00F002843B149DC
:1023500008600846006800F00F00A84201D0012084
:10236000E8E7207800F0040004280ED1AA4920698B
:10237000096801F07001884207D9A748006820F079
:10238000700021690843A4490860207800F0080023
:10239000082811D1A049091D6069096801F0700180
:1023A000884209D99C48001D006820F070006169CE
:1023B00008439949091D0860207800F01000102892
:1023C00011D19549091DA069096801F4E0618842AD
:1023D00009D99148001D006820F4E060A169084314
:1023E0008D49091D0860207800F02000202811D1B7
:1023F00089490831E069096801F07001884209D90A
:1024000085480830006820F07000E169084382497F
:1024100008310860207800F0020002280ED17E49C1
:10242000E068096801F00F01884207D97A4800681E
:1024300020F00F00E168084377490860207800F039
:102440000100002850D07448006820F47060A16832
:102450000843714908606068022807D16E4818383F
:102460000068C0F34040F8B9012063E760680328C2
:1024700007D1694818380068C0F34060A0B901204E
:1024800058E76068012807D1634818380068C0F32E
:10249000002048B901204DE75F4818380068C0F3B4
:1024A000800008B9012045E75B480838006820F043
:1024B000070061680843584908390860FEF712FEB2
:1024C000064608E0FEF70EFE801B41F28831884286
:1024D00001D903202EE750480838006800F0380082
:1024E0006168B0EBC10FEDD1207800F00200022846
:1024F0000ED14949E068096801F00F01884207D20E
:102500004548006820F00F00E16808434249086030
:102510004048006800F00F00A8420ED93D4800680E
:1025200020F00F0028433B4908600846006800F08F
:102530000F00A84201D00120FCE6207800F0040042
:1025400004280ED134492069096801F070018842DD
:1025500007D23148006820F07000216908432E49F5
:102560000860207800F00800082811D12A49091DC8
:102570006069096801F07001884209D22648001D8F
:10258000006820F07000616908432349091D086054
:10259000207800F01000102811D11F49091DA069F2
:1025A000096801F4E061884209D21B48001D0068F7
:1025B00020F4E060A16908431749091D08602078EC
:1025C00000F02000202811D113490831E069096882
:1025D00001F07001884209D20F480830006820F0ED
:1025E0007000E16908430C490831086000F058F8B0
:1025F00009490968C1F30321084A515C01F01F0130
:10260000C8400749086007480068FEF7ADFD074667
:1026100038468FE60020005218440258D086000841
:10262000480000204000002010B5FEF793FE074947
:10263000096801F00F01064A515C01F01F01C84012
:10264000044908600846006810BD0000184402589C
:10265000D08600084C00002010B5FFF7E5FF0549C3
:102660000968C1F30211044A515C01F01F01C8401E
:1026700010BD00001C440258D086000810B5FFF7BA
:10268000D3FF05490968C1F30221044A515C01F0F6
:102690001F01C84010BD00001C440258D08600082D
:1026A000F0B5824E366806F0380636B1082E15D0E1
:1026B000102E15D0182E7DD114E07C4E103E3668B9
:1026C000C6F3401646B1794E103E3668C6F3C107D0
:1026D000774E26FA07F000E07548E5E07548E3E03C
:1026E0007548E1E0714E1836366806F003046F4E07
:1026F00018363668C6F305116C4E1C36366806F07F
:1027000001056A4E24363668C6F3CC0616FB05F67C
:1027100001EE106AB8EE410A002971D024B1012CF3
:1027200050D0022C6DD16DE0604E103E3668C6F37D
:1027300040163EB35D4E103E3668C6F3C1075C4E90
:1027400026FA07F301EE103AF8EE411A01EE101ADC
:10275000B8EE411A81EE812A9FED581AC0EE011A97
:10276000524E20363668C6F3080601EE106AB8EEFF
:10277000411A31EE811AF7EE001A31EE211A62EE9B
:10278000010A1EE001EE101AB8EE411ADFED4C1AF4
:1027900081EE812A9FED491AC0EE011A434E203680
:1027A0003668C6F3080601EE106AB8EE411A31EE3B
:1027B000811A00E076E0F7EE001A31EE211A62EE9F
:1027C000010A5BE001EE101AB8EE411A9FED3D2AB6
:1027D000C2EE011A9FED391A80EE012A334E2036DF
:1027E0003668C6F3080601EE106AB8EE411A32EEFA
:1027F000011AB7EE002A31EE021A61EE810A3DE0BD
:102800004EE01DE001EE101AB8EE411ADFED2E1A6F
:1028100081EE812A9FED291AC0EE011A234E20363F
:102820003668C6F3080601EE106AB8EE411A31EEBA
:10283000811AF7EE001A31EE211A62EE010A1DE04C
:1028400001EE101AB8EE411A9FED1E2AC2EE011ACF
:102850009FED1A1A80EE012A144E20363668C6F310
:10286000080601EE106AB8EE411A32EE011AB7EE10
:10287000002A31EE021A61EE810A00BF00BF0B4E42
:1028800020363668C6F34626721C01EE102AB8EED2
:10289000411AC0EE811ABCEEE11A11EE100A00E0F6
:1028A000002001E0034800BF00BFF0BD1044025803
:1028B0000090D00300093D0040787D0100000046F3
:1028C0000024744C0024744A20BCBE4B2DE9F04710
:1028D000044614B90120BDE8F087207800F001001B
:1028E000002872D0FA48006800F03808F84818301C
:1028F000D0F80090B8F1100F06D0B8F1180F0FD132
:1029000009F0030002280BD1F14810380068C0F329
:10291000404000286ED0606800286BD10120DAE7C3
:1029200000BF6068B0F5803F08D1E9481038006802
:1029300040F48030E649103908602EE0606868B9DC
:10294000E3481038006820F48030E149103908600D
:102950000846006820F4802008601EE06068B0F53A
:10296000A02F0DD1DA481038006840F48020D849F3
:10297000103908600846006840F4803008600CE0B8
:10298000D3481038006820F48030D14910390860ED
:102990000846006820F48020086000BF6068A8B185
:1029A000FEF7A0FB054608E0FEF79CFB401B41F24A
:1029B0008831884201D903208DE7C5481038006866
:1029C000C0F340400028EFD014E014E0FEF78AFB8B
:1029D000054608E0FEF786FB401B41F2883188423D
:1029E00001D9032077E7BA4810380068C0F34040A7
:1029F0000028EFD100BF207800F0020002286BD140
:102A0000B348006800F03808B1481830D0F800909A
:102A1000B8F1000F05D0B8F1180F18D109F0030074
:102A2000A8B9AB4810380068C0F3800018B1E0685E
:102A300008B901204FE7A6480C38006820F0FE4096
:102A4000217C40EA0160A2490C39086043E0E0685B
:102A500038B39F481038006820F01900E168084337
:102A60009B4910390860FEF73DFB054606E0FEF77E
:102A700039FB401B022801D903202CE79448103869
:102A80000068C0F380000028F1D091480C3800683D
:102A900020F0FE40217C40EA01608D490C3908603D
:102AA00019E08B481038006820F00100884910397F
:102AB0000860FEF717FB054606E0FEF713FB401B18
:102AC000022801D9032006E7814810380068C0F3C6
:102AD00080000028F1D100BF207800F010001028FD
:102AE0006FD17B48006800F0380879481830D0F87A
:102AF0000090B8F1080F06D0B8F1180F1CD109F0FA
:102B00000300012818D1724810380068C0F3002073
:102B100020B1E069802801D00120DCE600BF6C48CC
:102B2000001F006820F07C5094F8201040EA0160FB
:102B30006749091F086043E0E06938B3644810380A
:102B4000006840F08000624910390860FEF7CAFA58
:102B5000054606E0FEF7C6FA401B022801D903200D
:102B6000B9E65B4810380068C0F300200028F1D0B7
:102B700000BF5748001F006820F07C5094F82010D8
:102B800040EA01605249091F086019E050481038B6
:102B9000006820F080004E4910390860FEF7A2FA64
:102BA000054606E0FEF79EFA401B022801D90320E5
:102BB00091E6474810380068C0F300200028F1D1A2
:102BC00000BF207800F00800082836D16069D0B135
:102BD0003F486430006840F001003D4964310860BE
:102BE000FEF780FA054606E0FEF77CFA401B022855
:102BF00001D903206FE6364864300068C0F3400016
:102C00000028F1D019E032486430006820F001005B
:102C10002F4964310860FEF765FA054606E0FEF7C5
:102C200061FA401B022801D9032054E62848643089
:102C30000068C0F340000028F1D1207800F02000A7
:102C4000202836D1A069D0B121481038006840F45E
:102C500080501F4910390860FEF744FA054606E027
:102C6000FEF740FA401B022801D9032033E618483A
:102C700010380068C0F340300028F1D019E0144843
:102C80001038006820F48050114910390860FEF7B0
:102C900029FA054606E0FEF725FA401B022801D96D
:102CA000032018E60A4810380068C0F340300028B6
:102CB000F1D1207800F00400042877D1054800689D
:102CC00040F4807003490860FEF70CFA05460AE0FC
:102CD0001044025800480258FEF704FA401B6428CA
:102CE00001D90320F7E5AB48006800F480700028A4
:102CF000F2D000BFA068012806D1A748006840F0C4
:102D00000100A549086027E0A06858B9A2480068FA
:102D100020F00100A04908600846006820F0040087
:102D2000086019E0A06805280BD19B48006840F0B6
:102D30000400994908600846006840F001000860F6
:102D40000AE09548006820F00100934908600846B1
:102D5000006820F00400086000BFA06898B1FEF78A
:102D6000C1F9054608E0FEF7BDF9401B41F2883184
:102D7000884201D90320AEE587480068C0F34000CF
:102D80000028F0D012E0FEF7ADF9054608E0FEF7A6
:102D9000A9F9401B41F28831884201D903209AE504
:102DA0007D480068C0F340000028F0D1606A002828
:102DB0007ED079486038006800F03800182878D054
:102DC000606A022876D174487038006820F08070FC
:102DD000714970390860FEF785F9054606E0FEF78F
:102DE00081F9401B022801D9032074E56A48703834
:102DF0000068C0F340600028F1D100BFD4E90A1098
:102E000041EA001064494839096840F2F3329143BD
:102E10000843614948390860208E401EC0F308000D
:102E2000616B491E4FF47E4202EA41210843218F23
:102E3000491ED20102EA014108433C21095D491EB5
:102E4000120202EA0161084353494039086000BF99
:102E5000081F006820F00100091F08604E483C3838
:102E600000684FF6F8718843A16C40EAC1004A49F6
:102E70003C39086048484438006820F00C00216C58
:102E800008434549443908600846006820F00200BC
:102E9000616C08434049443908600846006840F4C2
:102EA000803008600846006840F40030086002E0A6
:102EB0006EE040E024E00846006840F480200860AE
:102EC0000846006840F00100086033487038006828
:102ED00040F08070304970390860FEF703F905460C
:102EE00006E0FEF7FFF8401B022801D90320F2E4B8
:102EF000294870380068C0F340600028F1D047E0EE
:102F000025487038006820F08070234970390860C7
:102F1000FEF7E8F8054606E0FEF7E4F8401B022855
:102F200001D90320D7E41C4870380068C0F3406022
:102F30000028F1D12CE01848483807681648403876
:102F40000668606A012821D007F00301A06A814267
:102F50001CD1C7F30511E06A884217D1C6F30801F6
:102F6000206B401E814211D1606B401EC6F346218A
:102F700088420BD1A06B401EC6F30641884205D1A2
:102F8000E06B401EC6F30661884201D00120A2E436
:102F90000020A0E4004802587044025870B504466E
:102FA0000D460CB9012070BD94F82C0028B9002002
:102FB00084F82D00204600F019F8022084F82C0037
:102FC000211D2068FDF705FD2946D4E90002FDF723
:102FD00051FD0548006840F00040034908600120A9
:102FE00084F82C000020DEE700400052704770B5E6
:102FF00004460D4694F82C00022800D170BD94F8C8
:103000002C0001280AD1022084F82C0029462068CF
:10301000FDF715FD012084F82C0001E00120EDE70B
:103020000020EBE72DE9F04104460E46174694F8E0
:103030002C50022D02D10220BDE8F081012D01D0DB
:10304000052D12D1022084F82C003A463146206822
:10305000FDF7FFFC3068022803D1052084F82C001E
:1030600005E0012084F82C0001E00120E4E70020C5
:10307000E2E710B504460CB9012010BD022084F827
:1030800081002068006820F0010021680860204667
:1030900000F094FA0020C4F8840084F8810000BF96
:1030A00084F8800000BF00BFE7E700000221014A6A
:1030B00011607047380000202DE9F0470446206871
:1030C00007692068D0F8148007EA08052068D0F85E
:1030D00008904FF0000A94F8816005F0400070B944
:1030E00005F0200058B905F00400042807D1204657
:1030F000616F88472046216F88474FF0010A05F02D
:10310000400050B905F0010038B105F0040020B9C5
:103110002046216F88474FF0010A05F0200058B97A
:1031200005F00200022807D105F0040020B920466E
:10313000616F88474FF0010ABAF1000F01D0BDE876
:10314000F08705F00800082872D12068806940F0F7
:103150000800216888612068806940F010002168BB
:1031600088612068806940F4006021688861206877
:10317000006920F008002168086109F4404048B166
:10318000042E02D0A06FC06920B1032E3DD0E06FA5
:10319000C069C8BB2068806800F4404038BB22E0AA
:1031A000E0680F2807D92068006B616E0860606EC8
:1031B000001D606612E0E068072807D92068008ECD
:1031C000616E0880606E801C606607E0206890F881
:1031D0003000616E0870606E401C6066B4F86A0072
:1031E000401EA4F86A00B4F86A000028D8D120462E
:1031F00001F09CFA012084F88100D4F8840018B111
:103200002046FFF753FF9AE7FFE7052E03D120463C
:1032100000F0CEFA0AE0042E03D1204600F038FA7E
:1032200004E0032E02D1204600F0C0FA87E7FFE752
:1032300008F40060B0F5006F0AD107F00800082814
:1032400006D12068806940F400602168886176E7D3
:1032500005F4587000287DD005F0400058B1D4F82E
:10326000840040F00400C4F884002068806940F0C5
:1032700040002168886105F4007058B1D4F88400DA
:1032800040F00100C4F884002068806940F40070B8
:103290002168886105F4807058B1D4F8840040F04A
:1032A0000800C4F884002068806940F480702168B8
:1032B000886105F0200058B1D4F8840040F0800007
:1032C000C4F884002068806940F02000216888618B
:1032D000D4F88400A8B32068006820F001002168B9
:1032E00008602068006940F26B31884321680861FA
:1032F00009F44040B0F5404F25D12068806820F4A3
:10330000404021688860E06F60B11348E16F086554
:10331000E06FFDF7F9FB28B1D4F8840040F04000DD
:10332000C4F88400A06F60B10B48A16F0865A06F5E
:10333000FDF7EAFB28B1D4F8840040F04000C4F85F
:10334000840006E006E0012084F881002046FFF7B3
:10335000ADFEF4E600BFF2E62948000870B5044669
:1033600000250CB9012070BD606A00B900BFA06AD9
:10337000B0F5800F00D100BF8D49206888420CD085
:103380008C492068884208D08B492068884204D044
:10339000E0680F2801D90120E5E7204601F052FA44
:1033A000064683492068884209D0824920688842BD
:1033B00005D081492068884201D0082E0DD87C496B
:1033C0002068884207D07B492068884203D07A4928
:1033D0002068884203D1102E01D90120C3E7A06ADA
:1033E000B0F5800F1DD17249206888420DD0714917
:1033F0002068884209D070492068884205D0206B37
:10340000B0F5702F01D90120ADE7206B10B9A0896C
:10341000050400E0256BE068B0EB154F01D90120F1
:10342000A1E794F8810028B9002084F880002046A4
:1034300000F0C6F8022084F881002068006820F0BF
:10344000010021680860A069B0F1806F0BD160684D
:10345000B0F5800F07D1A06B28B92068006840F450
:10346000805021680860A16AE06908432843E16B45
:103470000843E168084321688860616A606B08431B
:10348000A16B0843A16908432169084361690843A6
:10349000216A084361680843E16C0843A168084356
:1034A000A16C0843A16D08432168C860A06AB0F50B
:1034B000800F4DD1206C012806D12068006840F4AF
:1034C00000402168086005E02068006820F40040A2
:1034D00021680860606C012806D12068006840F40B
:1034E00080402168086005E02068006820F4804082
:1034F000216808602E49206888420AD02D4920683A
:10350000884206D02C492068884202D0B5F5702F39
:103510000ED027492068884207D026492068884273
:1035200003D025492068884209D1B5F5F81F06D196
:103530002068006840F400502168086005E02068B9
:10354000006820F40050216808602168E06A08647F
:10355000606888B9A06A38B92068806820F4C050D3
:1035600040F40060216888602068806820F4C060B2
:1035700040F48060216888602068006D20F00100C0
:1035800021680865606800F48000B0F5800F07D1FD
:103590002068C06820F00040616D08432168C86061
:1035A0000020C4F88400012084F881000020DAE6BD
:1035B0000030014000380040003C004070470000EF
:1035C00010B586B0044600BF2F48006840F00200E6
:1035D0002D4908600846006800F00200009000BF16
:1035E00000BF00BF0846006840F0020008600846BF
:1035F000006800F00200009000BF00BF00BF084656
:10360000006840F0020008600846006800F0020010
:10361000009000BF00BF00BF1B481030006840F49E
:1036200080501949103108600846006800F4805045
:10363000009000BF00BF08200190022002900020EF
:103640000390022004900520059001A90F48FDF782
:1036500045FC102001900520059001A90B48FDF7BD
:103660003DFC202001900520059001A90748FDF7A9
:1036700035FC002201212320FDF71BFE2320FDF74E
:1036800004FE06B010BD0000E044025800040258D9
:1036900070470000F0B50446002700BF94F8800092
:1036A000012801D10220F0BD012084F8800000BF74
:1036B00094F881506668012D0ED0B6F5800F03D1C5
:1036C000A06808B9042D07D0022700BF002084F8A5
:1036D000800000BF3846E6E709B102B13BB90127D7
:1036E00000BF002084F8800000BF3846DBE794F874
:1036F0008100042802D0052084F8810000205C3479
:10370000A0622160A380E380A260A381E3815C3C8E
:10371000E0680F2804D91F4860671F4820670BE046
:10372000E068072804D91D4820671D48606703E04A
:103730001C4820671C486067206840686FF30F00D2
:103740001843D4F800C0CCF804002068006840F0AA
:103750000100D4F800C0CCF800002068006940F2F5
:103760006F7C40EA0C00D4F800C0CCF81000606810
:10377000B0F5800F07D12068006840F40070D4F8DD
:1037800000C0CCF8000000BF002084F8800000BF1B
:10379000384688E7114900088B4800085F48000850
:1037A000E5480008B74800083D4900087047000098
:1037B0000121014A116070473800002070B50446AD
:1037C0000E4615460CB9012070BD94F8450028B985
:1037D000002084F84400204600F028F804F1080195
:1037E0002068FDF777F83146A2682068FDF7BEF83B
:1037F0002946E36AD4E90102FDF74AF8A168206886
:1038000050F8210040F00100A268216841F8220030
:103810000548006840F0004003490860012084F832
:1038200045000020D0E7000000400052704770B50E
:1038300004462546681EB0F1807F01D301200FE0C9
:10384000681E4FF0E02148610F214FF0FF3003F078
:1038500073F800204FF0E021886107200861002004
:1038600070BD10B504460CB9012010BD94F83D00A0
:1038700028B9002084F83C00204600F00CF8022013
:1038800084F83D00211D206801F00CFA012084F825
:103890003D000020E9E770470146022081F83D0025
:1038A00008688068094B00EA0302062A08D0B2F5CE
:1038B000803F05D00868006840F001000B68186080
:1038C000012081F83D000020704700000700010042
:1038D00010B504460CB9012010BDA06900B100E08C
:1038E00000BFD4F8800028B9002084F87C0020466E
:1038F00000F02AF82420C4F880002068006820F036
:10390000010021680860204601F0E8FA012800D192
:10391000E2E7A06A10B1204601F02AFA2068406868
:1039200020F49040216848602068806820F02A00D8
:10393000216888602068006840F001002168086004
:10394000204601F091FAC7E77047000000B59BB030
:103950004C2108A8FCF706FD1C2101A8FCF702FD7C
:1039600018480890184809900520019002200290FC
:1039700003900120049002200590069000200790FB
:103980000A9000210B910C9120210D9100210E91A4
:103990000F9110914FF480511191002112911391C8
:1039A000149115911691179101AA01A908A8FFF782
:1039B00005FF20B14FF4927104A0FCF765FF1BB026
:1039C00000BD000000400052044100522E2E5C2E2B
:1039D0002E5C557365725C6273705C7372635C62BB
:1039E00073705F666D635F696F2E630000B587B0AB
:1039F00000BF3E48006840F008003C4908600846A7
:103A0000006800F00800019000BF00BF00BF08463A
:103A1000006840F0100008600846006800F01000E0
:103A2000019000BF00BF00BF0846006840F04000A2
:103A300008600846006800F04000019000BF00BF29
:103A400000BF0846006840F0800008600846006833
:103A500000F08000019000BF00BF00BF0846006872
:103A600040F4807008600846006800F4807001909F
:103A700000BF00BF00BF1D480C38006840F48050F4
:103A80001A490C3908600846006800F4805001901B
:103A900000BF00BF02200390012004900320059086
:103AA0000C2006904CF2B370029002A91048FDF76A
:103AB00015FA4FF68070029002A90E48FDF70EFA33
:103AC0000320029002A90C48FDF708FA4FF47F404A
:103AD000029002A90948FDF701FA40F2CF60029076
:103AE00002A90748FDF7FAF907B000BDE044025803
:103AF000000C02580010025800180258001C02580E
:103B000000200258014604480068084008B101201E
:103B100070470020FCE700002000002029B9084A77
:103B200012688243064B1A6004E0054A1268024399
:103B3000034B1A60024A1268024B1A607047000079
:103B4000200000200010006010B53249096801F023
:103B5000004149B12F49096841F000412D4A1160E7
:103B60008169891C816110BD2A49083909682A4A7E
:103B700011622849091F097882F824102549C91EB5
:103B80000978916223490C310968D1622149891E63
:103B9000098811861F49096851631E49091D096872
:103BA00091631C4910310968D1631CA200210BE00C
:103BB000535C254CA36200BF234BDB6903F0400339
:103BC000002BF9D04B1CD9B22929F1D300211F4A6F
:103BD000116000BF1D4909680029FBD00E4A016829
:103BE00011604168516081689160C168D16001696C
:103BF00011614169516181699161C169D16100219E
:103C0000124A116000BF114909680029FBD000BFAA
:103C1000A9E700002CED00E0245300200D0A456EBA
:103C200074657220486172644661756C745F4861A6
:103C30006E646C65722C2053797374656D204861D5
:103C40006C742E0D0A00000000100140500000208E
:103C500000B5B5B00120019000201F9001A8FDF72C
:103C6000D3FD00BF6548006840F00100634908606B
:103C70000846006800F00100009000BF00BF00BFD0
:103C80000846006840F0010008600846006800F03F
:103C90000100009000BF00BF00BF5848103000680E
:103CA00040F010005549103108600846006800F0E7
:103CB0001000009000BF00BF4FF400703090022051
:103CC000319001203290032033900720349030A9A6
:103CD0004B48FDF703F94FF4806030900720349093
:103CE00030A94748FDF7FAF8012200212520FDF709
:103CF000E0FA2520FDF7C9FA0C2300224FF4E13148
:103D0000404803F035FC3F48006A40F040003D4920
:103D100008620846806940F008008861084600682B
:103D200040F02000086000BF3448006840F0020006
:103D3000324908600846006800F00200009000BFA9
:103D400000BF00BF0846006840F002000860084657
:103D5000006800F00200009000BF00BF00BF2748CD
:103D60000830006840F48020244908310860084683
:103D7000006800F48020009000BF00BF4FF4806016
:103D800030900220319001203290032033900720A0
:103D9000349030A91C48FDF7A1F84FF40060309032
:103DA0000720349030A91848FDF798F80322002125
:103DB0002720FDF77EFA2720FDF767FA0C23002263
:103DC0004FF41651114803F0D3FB1048203000681F
:103DD00040F040000D49203108600C481830006860
:103DE00040F008000949183108600848006840F0B0
:103DF00020000649086035B000BD0000E0440258CC
:103E00000000025800100140000402580048004021
:103E10002DE9F0410446082C17DA0026FF2700257B
:103E200008E0284600F030F810B1701CC6B22F46EA
:103E3000681CC5B2082DF4DB012E04D1A74202D1C3
:103E40000120BDE8F0810020FBE7082C0BD1002009
:103E500000F01AF828B1012000F016F808B101208E
:103E6000EFE70020EDE7092C0BD1012000F00CF862
:103E700028B1022000F008F808B10120E1E7002095
:103E8000DFE70020DDE7000001460B4850F8310075
:103E90000069094B03EBC1039B88184008B9002255
:103EA00000E00122044800EBC1008079904201D17A
:103EB000012070470020FCE7608600081FB5FDF771
:103EC000ADF901208DF800004FF010500190122044
:103ED0008DF8080003208DF80B0001208DF80F00ED
:103EE0008DF80E0000208DF80D008DF801000120E6
:103EF0008DF80A0000208DF809008DF80C00684646
:103F0000FDF75EF901208DF800004FF0C0400190F0
:103F10000F208DF8080003208DF80B0001208DF88C
:103F20000F0000208DF80E008DF80D0001208DF897
:103F3000010000208DF80A008DF809008DF80C00B2
:103F40006846FDF73DF901208DF800004FF0605004
:103F500001900F208DF8080003208DF80B00002041
:103F60008DF80F008DF80E008DF80D0002208DF8F1
:103F7000010001208DF80A0000208DF809008DF85D
:103F80000C006846FDF71CF90420FDF75DF91FBD24
:103F900000BFFEE7704770472DE9F04123A002F013
:103FA000B3FC32480468001D0568001D06683048EF
:103FB00000683049B0FBF1F739462FA002F0A4FCAD
:103FC00023462A46314638A002F09EFC3BA002F070
:103FD0009BFC16A002F098FC39A142A002F094FCD0
:103FE00045A146A002F090FC49A14CA002F08CFC37
:103FF0004FA002F089FC5AA002F086FC5AA002F001
:1040000083FC5FA002F080FC62A002F07DFC68A04F
:1040100002F07AFC6DA002F077FC74A002F074FC50
:1040200002A002F071FCBDE8F08100002A2A2A2AD1
:104030002A2A2A2A2A2A2A2A2A2A2A2A2A2A2A2AE0
:104040002A2A2A2A2A2A2A2A2A2A2A2A2A2A2A2AD0
:104050002A2A2A2A2A2A2A2A2A2A2A2A2A2A2A2AC0
:104060002A2A2A2A2A2A2A2A2A0A0D0000E8F11FC7
:104070004800002040420F000D0A435055203A20CE
:1040800053544D333248373433584948362C204244
:1040900047413234302C20D6F7C6B53A2025644D3E
:1040A000487A0D0A00000000554944203D20253083
:1040B0003858202530385820253038580A0D00004F
:1040C00056372D53504920466C617368B5C4B6C14C
:1040D000D0B4C0FDB3CCA3A8D6D0B6CFB7BDCABDAF
:1040E000A3A900002A20C0FDB3CCC3FBB3C6202087
:1040F000203A2025730D0A00312E30002A20C0FD01
:10410000B3CCB0E6B1BE2020203A2025730D0A00C2
:10411000323032302D30332D313400002A20B7A216
:10412000B2BCC8D5C6DA2020203A2025730D0A007B
:104130002A2048414CBFE2B0E6B1BE20203A2056CA
:10414000312E372E30202853544D3332483778786B
:104150002048414C20447269766572290D0A00009E
:104160002A200D0A000000002A2051512020202082
:104170003A2031323935373434363330200D0A00A5
:104180002A20CDFACDFA20203A2061726D666C7932
:104190000D0A00002A20456D61696C203A20617289
:1041A0006D666C794071712E636F6D200D0A000091
:1041B0002A20CEA2D0C5B9ABD6DABAC53A206172F0
:1041C0006D666C795F636F6D200D0A002A20CCD478
:1041D000B1A6B5EA3A2061726D666C792E74616F92
:1041E00062616F2E636F6D0D0A0000002A20436F1D
:1041F00070797269676874207777772E61726D665F
:104200006C792E636F6D20B0B2B8BBC0B3B5E7D781
:10421000D30D0A002DE9F04104460E46002755480B
:10422000006800F00300032802D10120BDE8F081FE
:1042300050482838006820F080604E4928390860CE
:10424000FCF750FF054606E0FCF74CFF401B022838
:1042500001D90320EAE7474828380068C0F3C06066
:104260000028F1D100BF4348006820F47C30216869
:1042700040EA01303F490860A088401EC0F30800B2
:10428000A168491E4FF47E4202EA41210843A189F8
:10429000491ED20102EA01410843217C491E120253
:1042A00002EA0161084333491031086000BF314818
:1042B000001D006820F0C000616908432D49091DF8
:1042C00008600846006820F02000A16908432949D9
:1042D000091D08600846006820F0100008602548A5
:1042E000143000684FF6F8718843E16940EAC10074
:1042F0002049143108601F48001D006840F010007C
:104300001C49091D08602EB90846006840F40020C9
:10431000086012E0012E08D11648001D006840F424
:1043200080101449091D086007E01248001D00684C
:1043300040F400100F49091D08600E482838006835
:1043400040F080600B4928390860FCF7CBFE054639
:1043500006E0FCF7C7FE401B022801D9032065E7F1
:10436000044828380068C0F3C0600028F1D03846FF
:104370005CE70000284402582DE9F04104460E464F
:1043800000275548006800F00300032802D10120EF
:10439000BDE8F08150482838006820F080504E4930
:1043A00028390860FCF79EFE054606E0FCF79AFEF9
:1043B000401B022801D90320EAE747482838006853
:1043C000C0F340700028F1D100BF4348006820F0DE
:1043D0007C70218840EA01503F490860A088401E57
:1043E000C0F30800A168491E4FF47E4202EA412151
:1043F0000843A189491ED20102EA01410843217CF8
:10440000491E120202EA016108433349183108606B
:1044100000BF3148001D006820F440606169084316
:104420002D49091D08600846006820F40070A16944
:1044300008432949091D08600846006820F4807077
:10444000086025481C3000684FF6F8718843E16920
:1044500040EAC10020491C3108601F48001D006867
:1044600040F480701C49091D08602EB90846006898
:1044700040F48000086012E0012E08D11648001DAB
:10448000006840F400001449091D086007E0124864
:10449000001D006840F080700F49091D08600E483B
:1044A0002838006840F080500B4928390860FCF734
:1044B00019FE054606E0FCF715FE401B022801D94F
:1044C000032065E7044828380068C0F340700028DE
:1044D000F1D038465CE700002844025800B587B0A8
:1044E00000BF0D48006840F002000B490860084614
:1044F000006800F00200019000BF00BF012003909F
:1045000000200490032005900420029002A9034893
:10451000FCF7E4FC07B000BDE04402580004025878
:1045200070470000042001490860704718040258D1
:104530004FF48020014908607047000018040258B9
:1045400000B587B000BF4948006840F008004749FF
:1045500008600846006800F00800019000BF00BF36
:1045600000BF0846006840F0100008600846006878
:1045700000F01000019000BF00BF00BF08460068B7
:1045800040F0200008600846006800F0200001901C
:1045900000BF00BF00BF0846006840F04000086050
:1045A0000846006800F04000019000BF00BF00BF57
:1045B0000846006840F0800008600846006800F087
:1045C0008000019000BF00BF00BF0846006840F4B3
:1045D000807008600846006800F48070019000BF99
:1045E00000BF00BF21480C38006840F480501F49CC
:1045F0000C3908600846006800F48050019000BF44
:1046000000BF0220039001200490032005900C209D
:1046100006904CF20370029002A91548FCF75EFC6C
:104620004FF68370029002A91248FCF757FC4FF630
:104630003F00029002A91048FCF750FC48F23310EA
:10464000029002A90D48FCF749FC4FF62C7002902D
:1046500002A90B48FCF742FC40F2FF60029002A95D
:104660000848FCF73BFC07B000BD0000E0440258DE
:10467000000C02580010025800140258001802588A
:10468000001C02580020025838B505460C46002090
:10469000009001202060102060600120A0600020B8
:1046A000E0604FF6FF7221462846FEF7BBFC012072
:1046B000FCF7F6FB02202060102060600120A06063
:1046C0000020E0604FF6FF7221462846FEF7AAFC64
:1046D00003202060102060600820A0600020E060BF
:1046E0004FF6FF7221462846FEF79CFC4FF40C70F3
:1046F000009004202060102060600120A0600098DD
:10470000E0604FF6FF7221462846FEF78BFC40F230
:1047100007612846FEF76BFC38BD000010B5024863
:10472000FEF7CAFC10BD0000381100200268516974
:104730000268926942F0080203689A61026892690D
:1047400042F0100203689A610268126822F00102C6
:1047500003681A600268126940F26F339A43036873
:104760001A610268926822F4404203689A6090F8E5
:104770008120042A0ED001F020025AB1D0F8842002
:1047800042F08002C0F884200268926942F0200260
:1047900003689A6190F88120032A21D001F0400239
:1047A0005AB1D0F8842042F00402C0F88420026894
:1047B000926942F0400203689A61826AB2F5800F02
:1047C0000ED101F080025AB1D0F8842042F00202EA
:1047D000C0F884200268926942F0800203689A61FE
:1047E00001F400725AB1D0F8842042F00102C0F8FE
:1047F00084200268926942F4007203689A6101F4AD
:1048000080725AB1D0F8842042F00802C0F88420A7
:104810000268926942F4807203689A610022A0F8EB
:104820006220A0F86A20704770B50546AC6B002086
:104830006234208120800120E077623C2046FEF730
:1048400035FC70BD10B501460124C86B04EB501354
:10485000C868421CD01DC20802FB03F010BD0168ED
:10486000098E426E1180416E891C4166B0F86A1053
:10487000491EA0F86A10B0F86A1029B901680969E0
:1048800021F001010268116170470168096B426EF5
:104890001160416E091D4166B0F86A10491EA0F80A
:1048A0006A10B0F86A1029B90168096921F001019C
:1048B000026811617047016891F83010426E117002
:1048C000416E491C4166B0F86A10491EA0F86A1092
:1048D000B0F86A1029B90168096921F0010102687C
:1048E00011617047C16D098802681184C16D891C0E
:1048F000C165B0F86210491EA0F86210B0F86210ED
:1049000029B90168096921F0020102681161704743
:10491000C16D096802681162C16D091DC165B0F8F9
:104920006210491EA0F86210B0F8621029B901683F
:10493000096921F00201026811617047C16D0978AF
:10494000026882F82010C16D491CC165B0F8621080
:10495000491EA0F86210B0F8621029B9016809690F
:1049600021F00201026811617047704710B5FCF731
:10497000BFFB0448007800B910BD00F005F800BF87
:10498000FAE700001C00002010B51B48006840B189
:1049900019480068401E1849086010B901201749DD
:1049A0000870002408E004EB4401154A02EB810082
:1049B00002F012FE601CC4B2042CF4DB1148006843
:1049C000401C10490860084600686FF000418842AA
:1049D00002D100200B49086002F0B6FD0A480078B9
:1049E000401CC0B2084908700A2803DB0020087088
:1049F00002F0A6FD10BD00001000002014000020F1
:104A000008110020180000201D00002010B59CB0E7
:104A1000202114A8FBF7A6FC4C2101A8FBF7A2FC5F
:104A200000244048006820F004003E49086000BFB0
:104A3000002000903C48006820F001003A490860DE
:104A40000846006800F00100009036480C3000680D
:104A500040F4404033490C3108600846006800F4D7
:104A60004040009000BF00BF00BF2E480C300068DF
:104A700000F40050B0F5005FF7D101200190000470
:104A8000029000200490089002200A9002210B91CD
:104A900005210C91A0210D9102210E91109104216C
:104AA0000F91002112910821119101A8FDF70EFF2D
:104AB00004461CB192211DA0FBF7E6FE3F20149096
:104AC0000320159000201690082017904020189081
:104AD000199000011A9040201B90042114A8FDF7A2
:104AE00023FC04461CB1AD2110A0FBF7CDFE1548F8
:104AF000006840F080001349086000BF1148F4309E
:104B0000006840F002000F49F43108600846006870
:104B100000F00200009000BF00BFFCF7D5F91CB008
:104B200010BD00000C4802582C0400582E2E5C2E9C
:104B30002E5C557365725C6273705C6273702E6379
:104B400000000000004402582448006840F470004F
:104B5000224908602248006840F0010020490860AE
:104B600000201F49103108601D4800681D49084099
:104B70001B49086000201A4918310860091D0860A7
:104B8000091D0860164928310860091D0860091DC3
:104B90000860091D0860091D0860091D0860091DDD
:104BA0000860091D08600E48006820F480200C4948
:104BB000086000200A49603108600B4800686FF304
:104BC0000F00B0F1005F02D20120084908604FF0E9
:104BD00000600249803908607047000088ED00E0FD
:104BE000004402587FEDF6EA0010005C0881005195
:104BF00070B5002500264FF08044206900F00205C2
:104C0000E06800F002065DB156B14FF6FD7020611C
:104C1000E0684FF6FD710840E0601E48006880477C
:104C2000206900F00405E06800F004065DB156B1AB
:104C30004FF6FB702061E0684FF6FB710840E060C2
:104C4000154800688047206900F00805E06800F01A
:104C500008065DB156B14FF6F7702061E0684FF677
:104C6000F7710840E0600D4800688047206900F057
:104C70001005E06800F010065DB156B14FF6EF7018
:104C80002061E0684FF6EF710840E060044800687A
:104C9000804770BD000000200400002008000020B4
:104CA0000C00002010B50268294B98420ED0B0F1DC
:104CB000804F0BD0274B984208D0274B984205D005
:104CC000264B984202D0264B984203D122F0700224
:104CD0004B681A431E4B984217D0B0F1804F14D046
:104CE0001C4B984211D01C4B98420ED01B4B984243
:104CF0000BD01B4B984208D01A4B984205D01A4B48
:104D0000984202D0194B984203D122F44072CB68EA
:104D10001A4322F080034C6943EA040202608B6864
:104D2000C3620B6883620A4B98420BD00C4B9842CB
:104D300008D00C4B984205D00B4B984202D00B4B3D
:104D4000984201D10B6903630123436110BD000048
:104D5000000001400004004000080040000C00403A
:104D6000000401400040014000440140004801406F
:104D700090F8281001F0010139B10168496821F467
:104D80000031C26A11430268516090F8281001F0A6
:104D90000201022907D10168496821F48031026BC0
:104DA00011430268516090F8281001F004010429B1
:104DB00007D10168496821F48021426B11430268E0
:104DC000516090F8281001F00801082907D1016806
:104DD000496821F40041826B11430268516090F8E8
:104DE000281001F01001102907D10168896821F409
:104DF0008051C26B11430268916090F8281001F055
:104E00002001202907D10168896821F40051026C32
:104E100011430268916090F8281001F04001402988
:104E200013D10168496821F48011426C1143026872
:104E30005160416CB1F5801F07D10168496821F4C8
:104E4000C001826C11430268516090F8281001F093
:104E50008001802907D10168496821F40021C26CD2
:104E6000114302685160704738B504460020C4F809
:104E70008800FCF737F905462068006800F0080054
:104E800008280CD16FF07E402B4600224FF4001111
:104E90000090204601F09AFB08B1032038BD20683D
:104EA000006800F0040004280CD16FF07E402B460F
:104EB00000224FF480010090204601F087FB08B1EA
:104EC0000320EBE72020C4F88000C4F8840000BF72
:104ED000002084F87C0000BF00BFDFE72DE9F04F21
:104EE00089B004464FF00009002007908346F94935
:104EF0002068884200D100E000BF2169A068084313
:104F000061690843E16940EA010A606E40EA0A0A01
:104F100020680068F049084040EA0A0021680860FB
:104F20002068406820F44050E168084321684860E8
:104F3000D4F818A0E7492068884202D0206A40EAE5
:104F40000A0A20688068E549084040EA0A002168AA
:104F500088602068C06A20F00F00616A08432168F9
:104F6000C86200BFDE492068884220D1DD48006861
:104F700000F03800182811D005DC48B1082809D005
:104F8000102811D108E020280AD028280CD109E0E7
:104F900001250BE0042509E0082507E0102505E0C0
:104FA000202503E0402501E0802500BFF8E0CE4940
:104FB0002068884219D1CB48006800F00700062815
:104FC00010D2DFE800F0030507090B0D00250BE008
:104FD000042509E0082507E0102505E0202503E069
:104FE000402501E0802500BFDAE0C0492068884202
:104FF00019D1BC48006800F00700062810D2DFE88D
:1050000000F0030507090B0D00250BE0042509E05E
:10501000082507E0102505E0202503E0402501E0F4
:10502000802500BFBCE0B2492068884219D1AD4854
:10503000006800F00700062810D2DFE800F0030542
:1050400007090B0D00250BE0042509E0082507E002
:10505000102505E0202503E0402501E0802500BF64
:105060009EE0A4492068884219D19E48006800F05B
:105070000700062810D2DFE800F0030507090B0D32
:1050800000250BE0042509E0082507E0102505E0D0
:10509000202503E0402501E0802500BF80E09649FF
:1050A0002068884220D18F48006800F03800182816
:1050B00011D005DC48B1082809D0102811D108E02A
:1050C00020280AD028280CD109E001250BE004256E
:1050D00009E0082507E0102505E0202503E040252C
:1050E00001E0802500BF5BE084492068884219D137
:1050F0007C48006800F00700062810D2DFE800F0C6
:10510000030507090B0D00250BE0042509E0082520
:1051100007E0102505E0202503E0402501E080257B
:1051200000BF3DE076492068884219D16D4800688B
:1051300000F00700062810D2DFE800F00305070999
:105140000B0D00250BE0042509E0082507E01025DC
:1051500005E0202503E0402501E0802500BF1FE099
:105160005C49206888421AD15E48001D006800F042
:105170000700062810D2DFE800F0030507090B0D31
:1051800002250BE0042509E0082507E0102505E0CD
:10519000202503E0402501E0802500BF00E08025B8
:1051A00000BF4C492068884271D1102D70D006DCB8
:1051B000022D09D0042D49D0082D6AD1A6E0202D5A
:1051C00068D0402DF9D1B3E1FCF7DCF8616A09B988
:1051D000012138E0616A012901D1022133E0616ACD
:1051E000022901D104212EE0616A032901D106219F
:1051F00029E0616A042901D1082124E0616A0529B6
:1052000001D10A211FE0616A062901D10C211AE0AF
:10521000616A072901D1102115E0616A082901D1CD
:10522000202110E0616A092901D140210BE0616A67
:105230000A2901D1802106E0616A0B2902D14FF4CD
:10524000807100E00121B0FBF1FBB6E104A8FCF79E
:10525000ABF80598616A09B9012154E0616A012936
:1052600001D102214FE0616A022901D104214AE003
:10527000616A032901D1062145E0616A042901D14F
:10528000082140E0616A052905D10A213BE0FDE3E0
:1052900080E08FE10BE1616A062901D10C2132E047
:1052A000616A072901D110212DE0616A082901D125
:1052B000202128E0616A092901D1402123E0616AA7
:1052C0000A2901D180211EE0616A0B291AD14FF40D
:1052D000807118E0000C0058F369FFCFFFF4FF1154
:1052E000001001405444025800440040004800406F
:1052F000004C004000500040001401400078004085
:10530000007C00400121B0FBF1FB56E101A8FCF755
:1053100063F90298616A09B9012138E0616A0129DB
:1053200001D1022133E0616A022901D104212EE07A
:10533000616A032901D1062129E0616A042901D1AA
:10534000082124E0616A052901D10A211FE0616A70
:10535000062901D10C211AE0616A072901D1102127
:1053600015E0616A082901D1202110E0616A09294C
:1053700001D140210BE0616A0A2901D1802106E0B8
:10538000616A0B2902D14FF4807100E00121B0FB6A
:10539000F1FB12E1FA480068C0F3401088B3F84806
:1053A0000068C0F3C101F748C840616A09B901212A
:1053B00039E0616A012901D1022134E0616A0229E0
:1053C00001D104212FE0616A032901D106212AE0DD
:1053D000616A042901D1082125E0616A052901D10A
:1053E0000A2120E0616A062901D10C211BE0616AD3
:1053F000072901D1102116E0616A082902D1202174
:1054000011E013E0616A092901D140210BE0616AD2
:105410000A2901D1802106E0616A0B2902D14FF4EB
:10542000807100E00121B0FBF1FB3FE0606A08B948
:10543000012038E0606A012801D1022033E0606A6F
:10544000022801D104202EE0606A032801D1062041
:1054500029E0606A042801D1082024E0606A052858
:1054600001D10A201FE0606A062801D10C201AE051
:10547000606A072801D1102015E0606A082801D170
:10548000202010E0606A092801D140200BE0606A0A
:105490000A2801D1802006E0606A0B2802D14FF46F
:1054A000807000E00120B749B1FBF0FB85E0606A45
:1054B00008B9012038E0606A012801D1022033E0F8
:1054C000606A022801D104202EE0606A032801D11D
:1054D000062029E0606A042801D1082024E0606ADF
:1054E000052801D10A201FE0606A062801D10C209E
:1054F0001AE0606A072801D1102015E0606A0828C8
:1055000001D1202010E0606A092801D140200BE081
:10551000606A0A2801D1802006E0606A0B2802D167
:105520004FF4807000E001209749B1FBF0FB44E0AC
:10553000606A08B9012038E0606A012801D10220C0
:1055400033E0606A022801D104202EE0606A03285B
:1055500001D1062029E0606A042801D1082024E056
:10556000606A052801D10A201FE0606A062801D17F
:105570000C201AE0606A072801D1102015E0606A4B
:10558000082801D1202010E0606A092801D14020BC
:105590000BE0606A0A2801D1802006E0606A0B28CF
:1055A00002D14FF4807000E001204FF40041B1FBC4
:1055B000F0FB02E00120079000BF00BFBBF1000F2D
:1055C00000F0F287606800EB4000584503D860683F
:1055D0000003584503D20120079000F0E5BF102DCD
:1055E00075D006DC022D09D0042D67D0082D6FD1AF
:1055F000CCE0202D6DD0402DF9D14DE2FBF7C2FE5D
:105600008046606A08B9012238E0606A012801D149
:10561000022233E0606A022801D104222EE0606A8F
:10562000032801D1062229E0606A042801D108225A
:1056300024E0606A052801D10A221FE0606A06287A
:1056400001D10C221AE0606A072801D1102215E06E
:10565000606A082801D1202210E0606A092801D17F
:1056600040220BE0606A0A2801D1802206E0606ACD
:105670000B2802D14FF4807200E0012294460023EF
:1056800040461946FAF724FE4FF4807300228C46F8
:10569000A0FB031E0CFB03E300FB02336068400821
:1056A0008C461CEB000643EB0201D4F804C06246B2
:1056B00000233046FAF70CFE81464EE204A8FBF7C1
:1056C00073FEDDF814E0606A20B901223BE0BFE020
:1056D00040E282E1606A012801D1022233E0606A7F
:1056E000022801D104222EE0606A032801D106229B
:1056F00029E0606A042801D1082224E0606A0528B4
:1057000001D10A221FE0606A062801D10C221AE0AA
:10571000606A072801D1102215E0606A082801D1CB
:10572000202210E0606A092801D140220BE0606A63
:105730000A2801D1802206E0606A0B2802D14FF4CA
:10574000807200E001229446002370461946FAF761
:10575000BFFD4FF4807C0022A0FB0C3E01FB0CE15E
:1057600000FB0211606840081E185141D4F804C0C3
:10577000624600233046FAF7ABFD8146EDE10000BA
:10578000004402580090D00300093D0001A8FBF737
:1057900023FFDDF808C0606A08B9012238E0606ABA
:1057A000012801D1022233E0606A022801D10422DB
:1057B0002EE0606A032801D1062229E0606A0428ED
:1057C00001D1082224E0606A052801D10A221FE0E5
:1057D000606A062801D10C221AE0606A072801D10C
:1057E000102215E0606A082801D1202210E0606ACA
:1057F000092801D140220BE0606A0A2801D18022E9
:1058000006E0606A0B2802D14FF4807200E00122AA
:105810009646002360461946FAF75AFD4FF4807306
:1058200000228C46A0FB031E0CFB03E300FB0233AB
:10583000606840088C461CEB000643EB0201D4F87C
:1058400004C0624600233046FAF742FD814684E1F7
:10585000F8480068C0F3401090B3F6480068C0F301
:10586000C101F54820FA01FE606A08B9012239E059
:10587000606A012801D1022234E0606A022801D165
:1058800004222FE0606A032801D106222AE0606A20
:10589000042801D1082225E0606A052801D10A22E6
:1058A00020E0606A062801D10C221BE0606A07280C
:1058B00001D1102216E0606A082802D1202211E0EE
:1058C00030E0606A092801D140220BE0606A0A28B2
:1058D00001D1802206E0606A0B2802D14FF4807269
:1058E00000E001229446002370461946FAF7F0FCC6
:1058F0004FF4807300228C46A0FB031E0CFB03E3D5
:1059000000FB0233606840088C461CEB000643EB4A
:105910000201D4F804C0624600233046FAF7D8FCEE
:10592000814659E0606A08B9012238E0606A0128BE
:1059300001D1022233E0606A022801D104222EE064
:10594000606A032801D1062229E0606A042801D197
:10595000082224E0606A052801D10A221FE0606A5B
:10596000062801D10C221AE0606A072801D1102212
:1059700015E0606A082801D1202210E0606A092839
:1059800001D140220BE0606A0A2801D1802206E0A2
:10599000606A0B2802D14FF4807200E00122944625
:1059A0000023A5481946FAF793FC4FF480730022B0
:1059B0008C46A0FB031E0CFB03E300FB0233606874
:1059C00040080E1843EB0201D4F804C062460023DD
:1059D0003046FAF77DFC8146BFE0606A08B90122D3
:1059E00038E0606A012801D1022233E0606A0228AF
:1059F00001D104222EE0606A032801D1062229E0A9
:105A0000606A042801D1082224E0606A052801D1D7
:105A10000A221FE0606A062801D10C221AE0606A9F
:105A2000072801D1102215E0606A082801D1202240
:105A300010E0606A092801D140220BE0606A0A2860
:105A400001D1802206E0606A0B2802D14FF48072F7
:105A500000E001229446002378481946FAF738FC02
:105A60004FF4807300228C46A0FB031E0CFB03E363
:105A700000FB0233606840088C461CEB000643EBD9
:105A80000201D4F804C06246002300E073E030460F
:105A9000FAF71EFC814660E0606A08B9012238E02E
:105AA000606A012801D1022233E0606A022801D134
:105AB00004222EE0606A032801D1062229E0606AF0
:105AC000042801D1082224E0606A052801D10A22B5
:105AD0001FE0606A062801D10C221AE0606A0728DC
