:020000040800F2
:10000000C0210020AD02000893360008E108000876
:100010008F360008F3080008794E00080000000041
:10002000000000000000000000000000813C00080B
:10003000990D00080000000095360008853C000876
:10004000C7020008C7020008C7020008C70200086C
:10005000C7020008C7020008C7020008C70200085C
:10006000C7020008C7020008C7020008C70200084C
:10007000C7020008C7020008C7020008C70200083C
:10008000C7020008C7020008C7020008C70200082C
:10009000C7020008C7020008C7020008C70200081C
:1000A000C7020008C7020008C7020008C70200080C
:1000B000DD3E0008C7020008C7020008C7020008AA
:1000C000C7020008C7020008C7020008C7020008EC
:1000D000C7020008CD4B0008C7020008C70200088D
:1000E000C7020008C702000800000000C70200089D
:1000F000C7020008C7020008C7020008C7020008BC
:10010000C7020008C7020008C7020008C7020008AB
:10011000C7020008C7020008C7020008C70200089B
:10012000C7020008C7020008C7020008C70200088B
:10013000C7020008C7020008C7020008C70200087B
:1001400000000000000000000000000000000000AF
:10015000C7020008C7020008C7020008DD4B0008FC
:10016000C7020008C7020008C7020008C70200084B
:10017000C7020008C7020008C7020008000000000C
:10018000C7020008C7020008C7020008C70200082B
:10019000C7020008C7020008C7020008C70200081B
:1001A000C7020008C7020008C7020008C70200080B
:1001B000C7020008C7020008C7020008C7020008FB
:1001C000C7020008C7020008C7020008C7020008EB
:1001D000C7020008C7020008C7020008C7020008DB
:1001E000C7020008C7020008C7020008C7020008CB
:1001F000C7020008C7020008C7020008C7020008BB
:10020000C7020008C7020008C7020008C7020008AA
:10021000C7020008C7020008C7020008C70200089A
:10022000C7020008C7020008C7020008000000005B
:10023000C7020008C702000800000000C70200084B
:10024000C7020008C7020008C7020008C70200086A
:10025000C7020008C7020008C7020008C70200085A
:10026000C7020008C7020008C7020008C70200084A
:10027000C7020008C7020008C7020008000000000B
:10028000C702000800000000C702000800000000CC
:1002900000000000C7020008DFF80CD000F0B0FA40
:1002A00000480047C5690008C02100200648804773
:1002B00006480047FEE7FEE7FEE7FEE7FEE7FEE74B
:1002C000FEE7FEE7FEE7FEE7493E00089902000868
:1002D0002DE9F05F0546002092469B46884606467B
:1002E000814640241BE0284641464746224600F00E
:1002F000BFF853465A46C01A914110D311461846CA
:10030000224600F047F82D1A67EB01084F462246B7
:100310000120002100F03EF817EB00094E41201E9D
:10032000A4F10104DFDC484631462A464346BDE8D5
:10033000F09F2DE9F0410024061B254671F10006CF
:1003400005DA01240027D0EB070067EB0101161E38
:1003500073F1000605DA0027D2EB0702012567EBEF
:100360000303FFF7B5FF86460E4617469C46AC4290
:1003700004D00025D0EB050E65EB010624B100206A
:10038000D2EB000760EB030C704631463A466346F9
:10039000BDE8F081202A04DB203A00FA02F10020B7
:1003A00070479140C2F1200320FA03F319439040B3
:1003B0007047202A06DBCB17203A41FA02F043EAC5
:1003C000E07306E041FA02F3D040C2F1200291400E
:1003D00008431946704700000649074A0868504319
:1003E00043F2390210440860400870470149086030
:1003F000704700003C0000206D4EC64140EA0103FA
:100400009B0703D009E008C9121F08C0042AFAD2CA
:1004100003E011F8013B00F8013B521EF9D270478E
:10042000D2B201E000F8012B491EFBD27047002236
:10043000F6E710B513460A4604461946FFF7F0FFE3
:10044000204610BD30B50B46014600202022012475
:1004500009E021FA02F59D4205D303FA02F5491B92
:1004600004FA02F52844151EA2F10102F1DC30BDA8
:10047000202A04DB203A21FA02F00021704721FAF9
:1004800002F3D040C2F12002914008431946704760
:100490002DE9FE4F804681EA0300C00F0C46009014
:1004A00021F0004123F00045B8EB0200A94105D23C
:1004B0004046214690461C460B46024623F000402B
:1004C000104347D0270DC7F30A00C3F30A51029027
:1004D000401A019040286BDAC3F3130040F4801BEC
:1004E0000098924620B10023D2EB030A63EB0B0B7A
:1004F00001985946C0F140025046FFF74BFF0646AF
:100500000D4650465946019AFFF753FF10EB08007D
:100510006141002487EA115284EAE7731A4340D00C
:10052000009A62B3019A012A4FEA075215DC001BB8
:1005300061EB02014FF0004202EA0752CDE90042AE
:10054000001C41F5801132462B4600F07AF903B0C9
:10055000BDE8F08F40462146F9E7001B61EB020140
:10056000001C41F5801300185B412018A2F500170C
:1005700047EB030140EAD570B6196D4111E06D08F3
:100580004FEA360645EAC0754FEA0752001B61EB99
:100590000201001C41F5801149084FEA30000019A2
:1005A000514132462B4603B0BDE8F04F00F03AB956
:1005B0000098012240000023D0EB020263EBE073BD
:1005C000009821464FEAE074B8EB000061EB0401AB
:1005D000E9E783F000435BE781F0004158E72DE94C
:1005E000FE4F81EA030404F0004421F0004100942E
:1005F0004FF0000B23F0004350EA01045ED052EAB2
:1006000003045BD0C3F30A54C1F30A552C44A4F28B
:10061000F3340194A0FB0254C1F3130141F480119F
:10062000C3F3130343F4801301FB024400FB034EA6
:10063000840A970A44EA815447EA8357A4FB07686F
:1006400002958D0A05FB07854FEA932C04FB0C5499
:100650002705029D4FEA065847EA1637B5EB08050D
:100660006EEB070C870E920E47EA811742EA83125F
:10067000A7FB0201B6EB0B0164EB00042B0D43EA70
:100680000C335E1844EB1C50DA465146E7FB02017E
:10069000C5F313044FEA0B3343EA14534FEA043211
:1006A000019C43EA0603A4F10C040294009CCDE9EA
:1006B00000B400F0C6F803B0BDE8F08F002001469A
:1006C000F9E72DE9F04D81EA030404F0004B21F035
:1006D000004514464FF0000A23F0004150EA05029D
:1006E00020D054EA01021DD0C5F30A570246C5F3D3
:1006F0001303C1F31300C1F30A5640F4801543F409
:100700008013A7EB0608101BD64608F2FD3873EBE2
:10071000050002D308F1010801E092185B41B8F12D
:10072000000F03DA00200146BDE8F08D00204FF4F1
:100730008011064684460EE0171B73EB050705D3B0
:10074000121B63EB050306434CEA010C49084FEA10
:10075000300092185B4150EA0107EDD152EA0300E4
:1007600012D082EA040083EA0501084305D0101B79
:10077000AB4106D20122002306E000224FF00043E5
:1007800002E06FF0010253101AEB06004CEB085127
:1007900010EB0A0041EB0B01BDE8F04D00F042B850
:1007A000C1F30A52C1F3130140F2FF3341F4801147
:1007B0009A4202DA00200146704740F233439A42DF
:1007C000A2F2334202DC5242FFF752BEFFF7E2BD13
:1007D00030B5041E71F1000404DB4FF000444042C8
:1007E00064EB0101141E73F1000405DB1C464FF09D
:1007F0000043524263EB0403994208BF904230BD6C
:10080000064C074D06E0E06840F0010394E807005D
:1008100098471034AC42F6D3FFF742FD4C6C000809
:100820006C6C000810B5141E73F1000408DA401C4B
:1008300041F1000192185B411A4301D120F00100FF
:1008400010BD2DE9F04D92469B4611B1B1FA81F2EF
:1008500002E0B0FA80F220329046FFF79BFD04469A
:100860000F4640EA0A0041EA0B0153465A46084344
:1008700013D0114653EA010019D0C8F14002504686
:10088000FFF7F6FD05460E46504659464246FFF72D
:1008900081FD084305D0012004E020463946BDE82B
:1008A000F08D0020054346EAE0762C4337430A9852
:1008B0006305E40AA0EB08000022FD0A44EA47545D
:1008C0000A3002D500200146E9E701051019694107
:1008D000DDE9084500196941BDE8F04DA2E70000D7
:1008E0001EF0040F0CBFEFF30880EFF3098002F055
:1008F000CDBC00BFFEE7000010B500BF484800684F
:1009000000F4003000B139E000BF00BF00BFBFF30A
:100910004F8F00BF00BF00BF00BF00BF00BFBFF3CD
:100920006F8F00BF00BF00BF00203E49086000BFBE
:1009300000BF00BFBFF34F8F00BF00BF00BF00BFAD
:1009400000BF00BFBFF36F8F00BF00BF00BF3448C0
:10095000006840F400303249086000BF00BF00BFAB
:10096000BFF34F8F00BF00BF00BF00BF00BF00BF7D
:10097000BFF36F8F00BF00BF00BF00BF00BF284B99
:100980001B6803F4803303B148E00023244C703427
:10099000236000BF00BF00BFBFF34F8F00BF00BF89
:1009A00000BF231F1868C0F34E3100BFC0F3C90257
:1009B00000BF43F6E07303EA41134FF0404404EAFA
:1009C00082742343174C1034236000BF00BF131EF2
:1009D000A2F10102EDD10B1EA1F10101E6D100BF90
:1009E00000BF00BFBFF34F8F00BF00BF00BF0C4B65
:1009F0001B6843F480330A4C236000BF00BF00BF74
:100A0000BFF34F8F00BF00BF00BF00BF00BF00BFDC
:100A1000BFF36F8F00BF00BF00BF00BF10BD00005D
:100A200014ED00E050EF00E010B504460CB9124898
:100A300010BD012C01D10020FAE7022C01D10020C9
:100A4000F6E7032C01D10020F2E7042C01D10020AD
:100A5000EEE7052C01D10948EAE7062C01D1002078
:100A6000E6E7072C01D10020E2E74FF48E7104A0E5
:100A700000F093F90020DBE724010020500900205A
:100A80002E2E5C2E2E5C557365725C6273705C73E7
:100A900072635C6273705F756172745F6669666FC2
:100AA0002E63000030B59DB02822234913A8FFF71C
:100AB000A5FC12AA0A2113A804F07CFE9DED120ADF
:100AC000B7EEC00A53EC102B1CA004F0D7F9002499
:100AD00005E0FFF781FC08A941F82400641C0A2CFA
:100AE000F7D307AA0A2108A804F01FFF1BA0079943
:100AF00004F0C4F900240DE0FFF76EFC0546C017B2
:100B000005EB5040C013A5EBC03000B202A921F89C
:100B10001400641C0A2CEFD301AA0A2102A804F0D5
:100B2000A5FEBDF9041015A004F0A8F91B4804F0B7
:100B3000A5F91DB030BD0000746A000861726D5FD8
:100B4000726D735F663332203A2070526573756C34
:100B500074203D2025660D0A0000000061726D5F63
:100B6000726D735F713331203A2070526573756C0A
:100B700074203D2025640D0A0000000061726D5F45
:100B8000726D735F713135203A2070526573756CE8
:100B900074203D2025640D0A00000000046C00084C
:100BA00030B59DB02822234913A8FFF727FC12AACD
:100BB0000A2113A805F03EF89DED120AB7EEC00A0F
:100BC00053EC102B1CA004F059F9002405E0FFF7AA
:100BD00003FC08A941F82400641C0A2CF7D307AAD7
:100BE0000A2108A805F043F91BA0079904F046F96B
:100BF00000240DE0FFF7F0FB0546C01705EB504061
:100C0000C013A5EBC03000B202A921F81400641C87
:100C10000A2CEFD301AA0A2102A805F0A5F8BDF914
:100C2000041015A004F02AF91B4804F027F91DB0A0
:100C300030BD00004C6A000861726D5F7374645FC0
:100C4000663332203A2070526573756C74203D20F3
:100C500025660D0A0000000061726D5F7374645FA9
:100C6000713331203A2070526573756C74203D20C9
:100C700025640D0A0000000061726D5F7374645F8B
:100C8000713135203A2070526573756C74203D20A7
:100C900025640D0A00000000046C000830B59DB00A
:100CA0002822234913A8FFF7A9FB12AA0A2113A897
:100CB00005F066F99DED120AB7EEC00A53EC102B51
:100CC0001CA004F0DBF8002405E0FFF785FB08A971
:100CD00041F82400641C0A2CF7D307AA0A2108A8AB
:100CE00005F071FA1BA0079904F0C8F800240DE084
:100CF000FFF772FB0546C01705EB5040C013A5EB8C
:100D0000C03000B202A921F81400641C0A2CEFD3F1
:100D100001AA0A2102A805F0CDF9BDF9041015A019
:100D200004F0ACF81B4804F0A9F81DB030BD000079
:100D30009C6A000861726D5F7661725F6633322073
:100D40003A2070526573756C74203D2025660D0A3B
:100D50000000000061726D5F7661725F7133312057
:100D60003A2070526573756C74203D2025640D0A1D
:100D70000000000061726D5F7661725F7131352035
:100D80003A2070526573756C74203D2025640D0AFD
:100D900000000000046C0008704701B9704700BFF4
:100DA000FEE7000070B504461D460023B5F5804FF0
:100DB00013D154F822300C480340D1E9000640EA30
:100DC00006108E6840EA06208E8940EA06408E6949
:100DD0003043034344F8223003E06FF0704044F89E
:100DE0002200002070BD00000000F0CF10B50246C8
:100DF0000023086852F820301B480340D1E9010461
:100E00002043CC6820430C6920434C6920438C6903
:100E10002043CC6920430C6A20434C6A20438C6AEF
:100E20002043CC6A20430C6B20438C6B20434C6BDB
:100E3000204303438868082801D143F04003086831
:100E400042F82030086BB0F5801F05D1086818B152
:100E500010680C6B20431060086818B110684C6B68
:100E600020431060002010BD8004C0FF30B5034651
:100E700014460022601C53F8202002F04042D1E9C1
:100E8000000540EA05108D6840EA05208D8940EA9A
:100E90000545088A401E45EA0055087D801E45EA42
:100EA00000608D6928430243601C43F820201868C5
:100EB00000F4801038B1586820F47002088A401E8F
:100EC00042EA00525A60002030BD0000034800682A
:100ED00040F00100014908607047000020040058FC
:100EE000F8B502460B460021002600240020824D62
:100EF00000BFFCE0012707FA01F61F6807EA0604B5
:100F0000B4427CD15F68022F02D05F68122F1AD1E1
:100F10004FEAD10C02F1200757F82C004F074FEA97
:100F2000D76C0F2707FA0CF7B8434FEA417C4FEA1A
:100F3000DC6C1F6907FA0CF738434FEAD10C02F159
:100F4000200747F82C0010684FEA410C032707FAE6
:100F50000CF7B8431F7907F003074FEA410C07FA73
:100F60000CF7384310605F68012F08D05F68022FCC
:100F700005D05F68112F02D05F68122F17D19068DB
:100F80004FEA410C032707FA0CF7B8434FEA410C2C
:100F9000DF6807FA0CF738439060506801278F40EC
:100FA000B8431F79C7F300178F4038435060D068AB
:100FB0004FEA410C032707FA0CF7B8434FEA410CFC
:100FC0009F6807FA0CF73843D0605F6807F08057D6
:100FD000B7F1805F95D100BF484F3F6847F00207E7
:100FE000DFF818C1CCF8007067463F6807F00207C9
:100FF000009700BF00BF424F4FEA910C00E075E040
:1010000057F82C008F074FEA177C0F2707FA0CF7C9
:10101000B8433C4FBA4201D100272DE03A4FBA42C3
:1010200001D1012728E0394FBA4201D1022723E03C
:10103000374FBA4201D103271EE0364FBA4201D1E1
:10104000042719E0344FBA4201D1052714E0334F89
:10105000BA4201D106270FE0314FBA4201D107272A
:101060000AE0304FBA4201D1082705E02E4FBA42BC
:1010700001D1092700E00A274FEA817C4FEA1C7C56
:1010800007FA0CF738431E4F4FEA910C47F82C0033
:101090002868A0435F6807F48037B7F5803F00D128
:1010A000204328606868A0435F6807F40037B7F5FD
:1010B000003F00D1204368604FF0B0473868A0433C
:1010C0005F6807F48017B7F5801F00D120434FF009
:1010D000B04738607868A0435F6807F40017B7F539
:1010E000001F00D120434FF0B0477860491C102901
:1010F000FFF400AFF8BD000080000058F44402582F
:101100000804005800000258000402580008025861
:10111000000C02580010025800140258001802581F
:10112000001C0258002002580024025801480068A0
:101130007047000024000020034800680349097834
:101140000844014908607047240000202C0000205A
:1011500010B5032000F0E6F80F2000F007F808B102
:10116000012010BD00F08CF80020FAE770B50446AD
:101170000E4800784FF47A71B1FBF0F00C49096821
:10118000B1FBF0F5284601F004FF08B1012070BD65
:10119000102C07D200222146501E00F086F8054888
:1011A000046001E00120F2E70020F0E72C000020BD
:1011B00030000020280000204178154A1160017895
:1011C000F9B1121D41681160017B0907C27A41EA39
:1011D0000261827A41EAC241427B41EA8241827BDA
:1011E00041EA4241C27B41EA0241427A41EA02219C
:1011F000027A41EA420102781143054A083211603D
:1012000005E00021024A121D1160121D1160704795
:1012100098ED00E000BF00BF00BFBFF35F8F00BFCD
:1012200000BF00BF0548006820F480300349086013
:1012300000200249703108607047000024ED00E092
:1012400040F001010D4A11600C497039096841F400
:1012500080310A4A703A116000BF00BF00BFBFF37F
:101260004F8F00BF00BF00BF00BF00BF00BFBFF374
:101270006F8F00BF00BF00BF7047000094ED00E01B
:1012800070470146084600280DDB00BF00BF00F094
:101290001F0301229A4043099B0003F1E023C3F896
:1012A000002100BF00BF00BF70472DE9F05F8046FE
:1012B0000D46164603F0F2FD074639462A463346E8
:1012C00001F00700C0F1070ABAF1040F02D94FF08C
:1012D000040A01E0C0F1070AD14600F1040ABAF19C
:1012E000070F02D24FF0000A01E0A0F1030AD44632
:1012F0004FF0010A0AFA09FAAAF1010A0AEA020AF7
:101300000AFA0CFA4FF0010B0BFA0CFBABF1010BD4
:101310000BEA030B4AEA0B042146404603F0C6FDE4
:10132000BDE8F09F00BF00F00702064B19684FF6BA
:10133000FF031940044B0B4343EA0221014B1960A0
:1013400000BF70470CED00E00000FA0510B501F099
:1013500067F90949096801F470614FF4807292FAE3
:10136000A2F2B2FA82F2D140044A515CC840044968
:1013700008600846006810BD18440258F46B000865
:101380003000002010B501F003F90749096801F0A9
:101390007001102292FAA2F2B2FA82F2D140034A0C
:1013A000515CC84010BD000020440258F46B000896
:1013B00070B5014600220120002300249FED811A10
:1013C000B0EE410A9FED7F1AF0EE410A7E4D2D6886
:1013D00005F003027C4D2D68C5F305307A4D2D1DB7
:1013E0002D6805F01003784D14352D68C5F3CC0534
:1013F00015FB03F501EE105AB8EE411AB0EE410AA2
:1014000022B1012A4DD0022A7DD169E06E4D283DDE
:101410002D68C5F340152DB36B4D283D2D68C5F3E0
:10142000C1066A4D25FA06F4B4FBF0F501EE105A38
:10143000F8EE411A9FED661A80EE012A624D1035D2
:101440002D68C5F3080501EE105AB8EE411A32EEC8
:10145000011AB7EE002A31EE021A21EE811AF0EEDF
:10146000410A1DE0594DB5FBF0F501EE105AF8EEBA
:10147000411A9FED571A80EE012A534D10352D6801
:10148000C5F3080501EE105AB8EE411A32EE011A02
:10149000B7EE002A31EE021A21EE811AF0EE410A6F
:1014A0005EE04C4DB5FBF0F501EE105AB8EE412A66
:1014B0009FED471AC0EE011A434D10352D68C5F354
:1014C000080501EE105AB8EE411A31EE811AF7EE16
:1014D000001A31EE211A22EE011AF0EE410A3FE025
:1014E0003D4DB5FBF0F501EE105AF8EE411A9FEDB7
:1014F000381A80EE012A344D10352D68C5F30805E1
:1015000001EE105A00E00CE0B8EE411A32EE011A7A
:10151000B7EE002A31EE021A21EE811AF0EE410AEE
:101520001EE02C4DB5FBF0F501EE105AB8EE412A45
:101530009FED271AC0EE011A234D10352D68C5F313
:10154000080501EE105AB8EE411A31EE811AF7EE95
:10155000001A31EE211A22EE011AF0EE410A00BF04
:1015600000BF194D10352D68C5F346256D1C01EEE1
:10157000105AB8EE411AC0EE811ABCEEE11A81EDA4
:10158000001A114D10352D68C5F306456D1C01EE8E
:10159000105AB8EE411AC0EE811ABCEEE11A81ED84
:1015A000011A094D10352D68C5F306656D1C01EE55
:1015B000105AB8EE411AC0EE811ABCEEE11A81ED64
:1015C000021A70BD00000000284402580090D003A9
:1015D0000000004600093D0040787D0170B50146DD
:1015E00000220120002300249FED811AB0EE410A61
:1015F0009FED7F1AF0EE410A7E4D2D6805F0030243
:101600007C4D2D68C5F305507A4D2D1D2D6805F4D0
:101610008073784D1C352D68C5F3CC0515FB03F59B
:1016200001EE105AB8EE411AB0EE410A22B1012A79
:101630004DD0022A7DD169E06E4D283D2D68C5F35D
:1016400040152DB36B4D283D2D68C5F3C1066A4D7D
:1016500025FA06F4B4FBF0F501EE105AF8EE411A43
:101660009FED661A80EE012A624D18352D68C5F38C
:10167000080501EE105AB8EE411A32EE011AB7EE23
:10168000002A31EE021A21EE811AF0EE410A1DE025
:10169000594DB5FBF0F501EE105AF8EE411A9FEDE9
:1016A000571A80EE012A534D18352D68C5F30805E9
:1016B00001EE105AB8EE411A32EE011AB7EE002AC6
:1016C00031EE021A21EE811AF0EE410A5EE04C4D35
:1016D000B5FBF0F501EE105AB8EE412A9FED471A1E
:1016E000C0EE011A434D18352D68C5F3080501EE0B
:1016F000105AB8EE411A31EE811AF7EE001A31EEA7
:10170000211A22EE011AF0EE410A3FE03D4DB5FBF1
:10171000F0F501EE105AF8EE411A9FED381A80EEFE
:10172000012A344D18352D68C5F3080501EE105A0D
:1017300000E00CE0B8EE411A32EE011AB7EE002AD2
:1017400031EE021A21EE811AF0EE410A1EE02C4D14
:10175000B5FBF0F501EE105AB8EE412A9FED271ABD
:10176000C0EE011A234D18352D68C5F3080501EEAA
:10177000105AB8EE411A31EE811AF7EE001A31EE26
:10178000211A22EE011AF0EE410A00BF00BF194DE6
:1017900018352D68C5F346256D1C01EE105AB8EEBC
:1017A000411AC0EE811ABCEEE11A81ED001A114D0A
:1017B00018352D68C5F306456D1C01EE105AB8EEBC
:1017C000411AC0EE811ABCEEE11A81ED011A094DF1
:1017D00018352D68C5F306656D1C01EE105AB8EE7C
:1017E000411AC0EE811ABCEEE11A81ED021A70BDF9
:1017F00000000000284402580090D003000000467A
:1018000000093D0040787D012DE9F04104460025A6
:101810000026206800F00060B0F1006F30D1606EEB
:1018200048B1B0F5801F0DD0B0F5001F10D0B0F555
:10183000401F15D113E0F948006840F40030F74923
:1018400008600FE00221201D02F0C8F8054609E0FB
:10185000022104F1240002F059F9054602E001E0FA
:10186000012500BF00BF55B9EC482430006820F4C2
:101870004010616E0843E9492431086000E02E43BE
:10188000208800F48070B0F5807F2DD1606D052830
:101890001AD2DFE800F0030A10171800DF480068CA
:1018A00040F40030DD49086010E00021201D02F006
:1018B00095F805460AE0002104F1240002F026F91B
:1018C000054603E002E001E0012500BF00BF55B975
:1018D000D2482430006820F00700616D0843CF49EA
:1018E0002431086000E02E43208800F40070B0F539
:1018F000007F33D1A06D802817D003DC40B1402891
:101900001CD10CE0C02817D0B0F5807F16D114E0B0
:10191000C248006840F40030C049086010E000216F
:10192000201D02F05BF805460AE0002104F12400C6
:1019300002F0ECF8054603E002E001E0012500BFFB
:1019400000BF55B9B5482430006820F4E070A16D9F
:101950000843B2492431086000E02E43208800F497
:101960008060B0F5806F38D1D4F8A400B0F5800F56
:1019700019D004DC50B1B0F5001F1DD10DE0B0F559
:10198000C00F17D0B0F5000F16D114E0A3480068BF
:1019900040F40030A149086010E00021201D02F051
:1019A0001DF805460AE0002104F1240002F0AEF81B
:1019B000054603E002E001E0012500BF00BF5DB97C
:1019C00096482C30006820F46000D4F8A410084336
:1019D00092492C31086000E02E43208800F400601A
:1019E000B0F5006F38D1D4F8A800B0F1007F19D05D
:1019F00004DC50B1B0F1807F1DD10DE0B0F1407F2B
:101A000017D0B0F1806F16D114E08448006840F41C
:101A100000308249086010E00021201D01F0DEFF47
:101A200005460AE0002104F1240002F06FF80546A3
:101A300003E002E001E0012500BF00BF5DB9774887
:101A40002C30006820F0E060D4F8A81008437349F7
:101A50002C31086000E02E43206800F00070B0F1E7
:101A6000007F27D1A06CA0B1102804D0202809D075
:101A700030280FD10CE06948006840F40030674915
:101A8000086009E00221201D01F0A8FF054603E0DF
:101A900002E001E0012500BF00BF55B95F482030DA
:101AA000006820F03000A16C08435C4920310860D8
:101AB00000E02E43208800F48050B0F5805F36D1DE
:101AC000E06DB0F5005F19D004DC50B1B0F5805F77
:101AD0001DD10DE0B0F5405F17D0B0F5804F16D1A5
:101AE00014E04E48006840F400304C49086010E0B3
:101AF0000021201D01F072FF05460AE0002104F1DB
:101B0000240002F003F8054603E002E001E00125AD
:101B100000BF00BF55B941482430006820F4E040C0
:101B2000E16D08433D492431086000E02E432088E0
:101B300000F40050B0F5005F34D1206EB0F5403FA6
:101B40001DD007DC68B1B0F5803F0BD0B0F5003F89
:101B500018D10DE0B0F5802F12D0B0F5A02F11D123
:101B60000FE011E00121201D01F038FF05460BE0D8
:101B7000012104F1240001F0C9FF054604E003E05F
:101B800002E001E0012500BF00BF55B92348243021
:101B9000006820F4E020216E0843204924310860C9
:101BA00000E02E43208800F48040B0F5804F38D10B
:101BB000D4F8AC00B0F1405F1DD007DC68B1B0F1E3
:101BC000805F0BD0B0F1005F18D10DE0B0F1804F15
:101BD00012D0B0F1A04F11D10FE011E00121201D72
:101BE00001F0FCFE05460BE0012104F1240001F0A8
:101BF0008DFF054604E003E002E001E0012500BF9F
:101C000000BF6DB905482C30006820F0E040D4F8E2
:101C1000AC10084301492C31086002E02C44025802
:101C20002E43208800F40040B0F5004F26D1E06E2E
:101C300098B1B0F1805F03D0B0F1005F0ED106E043
:101C4000FA48006840F40030F849086008E00121D3
:101C5000201D01F0C3FE054602E001E0012500BFA2
:101C600000BF55B9F1482430006820F04050E16EC3
:101C70000843EE492431086000E02E43206800F05C
:101C80008070B0F1807F27D1606CA0B1012804D0B2
:101C9000022809D003280FD10CE0E448006840F482
:101CA0000030E249086009E00221201D01F096FEA3
:101CB000054603E002E001E0012500BF00BF55B981
:101CC000DA482030006820F00300616C0843D749EF
:101CD0002031086000E02E43206800F48000B0F559
:101CE000800F7DD1D248006840F48070D0490860F0
:101CF000FFF71CFA074606E0FFF718FAC01B642836
:101D000001D9032505E0CA48006800F48070002866
:101D1000F2D000BF8DBBC5484430006800F440706D
:101D2000B4F8B01001F44071884214D0BF48443078
:101D3000006820F44078BD484430006840F48030AA
:101D4000BA49443108600846006820F480300860D1
:101D50000846C0F80080D4F8B000B0F5807F15D1F7
:101D6000FFF7E4F9074609E0FFF7E0F9C01B41F28D
:101D70008831884202D9032507E038E0AB48443077
:101D80000068C0F340000028EED000BF4DBB00BF8C
:101D9000B4F8B00000F44070B0F5407F0ED1A34815
:101DA0001C38006820F47C51A24AD4F8B0001040DE
:101DB00041EA10109D491C39086007E09B481C3817
:101DC000006820F47C5099491C39086097484430D9
:101DD0000068B4F8B010C1F30B010843934901E067
:101DE00006E002E04431086002E02E4300E02E43AA
:101DF000207800F0010068B3A06F182819D005DC26
:101E000048B1082808D0102816D10BE0202811D09E
:101E1000282811D10FE011E00121201D01F0DEFD85
:101E200005460BE0012104F1240001F06FFE054698
:101E300004E003E002E001E0012500BF00BF55B966
:101E40007A482830006820F03800A16F08437749AD
:101E50002831086000E02E43207800F002000228BC
:101E600028D1606F062815D2DFE800F003040A11BC
:101E7000121311E00121201D01F0B0FD05460BE019
:101E8000012104F1240001F041FE054604E003E0D5
:101E900002E001E0012500BF00BF55B963482830CA
:101EA000006820F00700616F08436049283108602E
:101EB00000E02E43207800F0040004282AD1D4F852
:101EC0009000062815D2DFE800F003040A1112136F
:101ED00011E00121201D01F081FD05460BE00121EB
:101EE00004F1240001F012FE054604E003E002E0E4
:101EF00001E0012500BF00BF5DB94C482C300068EF
:101F000020F00700D4F89010084348492C310860AD
:101F100000E02E43207800F02000202836D1D4F8AD
:101F20008C00B0F1405F1DD007DC68B1B0F1805F7C
:101F30000BD0B0F1005F18D10DE0B0F1804F12D09E
:101F4000B0F1A04F11D10FE011E00021201D01F0F0
:101F500045FD05460BE0022104F1240001F0D6FD09
:101F6000054604E003E002E001E0012500BF00BFF8
:101F70005DB92E482830006820F0E040D4F88C107D
:101F800008432A492831086000E02E43207800F0F9
:101F90004000402836D1D4F89800B0F5406F1DD0ED
:101FA00007DC68B1B0F5806F0BD0B0F5006F18D1C9
:101FB0000DE0B0F5805F12D0B0F5A05F11D10FE059
:101FC00011E00021201D01F009FD05460BE0022172
:101FD00004F1240001F09AFD054604E003E002E06C
:101FE00001E0012500BF00BF5DB910482C3000683A
:101FF00020F4E050D4F8981008430C492C310860C4
:1020000000E02E43207800F0800080283BD1D4F8F7
:102010009C00B0F5C04F24D00EDCA0B1B0F5005F3D
:1020200012D0B0F5804F1FD114E000002C440258AC
:1020300000480258FFFCFF0FB0F5004F12D0B0F57A
:10204000204F11D10FE011E00021201D01F0C6FC4E
:1020500005460BE0022104F1240001F057FD05467E
:1020600004E003E002E001E0012500BF00BF4DB93C
:10207000B248006820F46040D4F89C100843AF498F
:10208000086000E02E43207800F00800082816D1F0
:10209000D4F88000B0F5805F06D1022104F124005D
:1020A00001F034FD06430AE0A448001F006820F454
:1020B0004050D4F880100843A049091F08602078D8
:1020C00000F01000102814D1D4F89400B0F5807FEF
:1020D00006D1022104F1240001F018FD064308E0B6
:1020E0009648006820F44070D4F89410084393494F
:1020F0000860206800F40020B0F5002F26D1D4F845
:10210000A00030B1B0F5803F09D0B0F5003F0ED14E
:102110000CE00021201D01F061FC054609E00221D0
:1021200004F1240001F0F2FC054602E001E0012583
:1021300000BF00BF4DB98148006820F44030D4F89A
:10214000A01008437D49086000E02E43206800F499
:102150008020B0F5802F2DD1D4F88400B0F5801FF9
:1021600006D0B0F5001F0CD0B0F5401F11D10FE024
:1021700072482C38006840F4003070492C390860EF
:1021800009E0012104F1240001F0C0FC054602E051
:1021900001E0012500BF00BF5DB96848001F00686D
:1021A00020F44010D4F8841008436449091F0860E3
:1021B00000E02E43206800F48030B0F5803F24D149
:1021C000E06C18B1B0F5803F0FD108E05B482C38C7
:1021D000006840F4003059492C39086007E00221BA
:1021E000201D01F0FBFB054601E0012500BF00BFFB
:1021F00055B952480C38006820F48030E16C08432F
:102200004E490C39086000E02E43206800F0005071
:10221000B0F1005F05D1022104F1240001F076FC49
:102220000643206800F40030B0F5003F27D1E06F8E
:10223000A0B1B0F5807F06D0B0F5007F0CD0B0F52E
:10224000407F0CD109E03D482C38006840F4003054
:102250003A492C39086004E003E002E001E001257E
:1022600000BF00BF55B93548001F006820F440701A
:10227000E16F08433149091F086000E02E432068E0
:1022800000F48010B0F5801F09D12C480838006890
:1022900020F00040216F0843284908390860206871
:1022A00000F08050B0F1805F0AD1244848380068BF
:1022B00020F48040D4F8B41008432049483908601D
:1022C000206800F40010B0F5001F09D11B48083841
:1022D000006820F08070A16E084318490839086032
:1022E000206800F08040B0F1804F11D100BF13484A
:1022F0004838006820F40040104948390860084612
:102300000068D4F8B81008430C494839086000BF89
:10231000206800F00040B0F1004F09D107480C38A8
:10232000006820F04050216D084304490C390860D2
:1023300016B90020BDE8F0810120FBE7584402589F
:1023400070B504460D4600268D48006800F0070071
:10235000A8420ED28A48006820F007002843884926
:1023600008600846006800F00700A84201D001207C
:1023700070BD207800F00200022807D18148006873
:1023800020F00F00E16808437E490860207800F0E3
:102390000100002851D07B48006820F47060A168DB
:1023A0000843784908606068022807D175481838E2
:1023B0000068C0F34040F8B90120D9E760680328FD
:1023C00007D1704818380068C0F34060A0B90120F8
:1023D000CEE76068012807D16A4818380068C0F362
:1023E000002048B90120C3E7664818380068C0F3E8
:1023F000800008B90120BBE762480838006820F077
:102400000700616808435F4908390860FEF78EFEDF
:1024100006466068022811D108E0FEF787FE801B9F
:1024200041F28831884201D90320A1E75548083894
:10243000006800F038001028EFD13AE06068032807
:1024400011D108E0FEF772FE801B41F2883188420C
:1024500001D903208CE74B480838006800F03800A9
:102460001828EFD125E06068012811D108E0FEF7B7
:102470005DFE801B41F28831884201D9032077E755
:1024800040480838006800F038000828EFD110E014
:1024900008E0FEF74BFE801B41F28831884201D9EB
:1024A000032065E737480838006800F03800002846
:1024B000EFD13348006800F00700A8420ED9304839
:1024C000006820F0070028432D490860084600688E
:1024D00000F00700A84201D0012049E7207800F071
:1024E0000400042807D12748006820F07000216903
:1024F000084324490860207800F00800082809D122
:102500002048001D006820F07000616908431D49E3
:10251000091D0860207800F01000102809D1194822
:10252000001D006820F4E060A16908431549091DF9
:102530000860207800F02000202809D111480830D8
:10254000006820F07000E16908430E490831086016
:1025500000F066F80B49096801F470614FF480726D
:1025600092FAA2F2B2FA82F2D140074A515CC84014
:10257000064908600F20FEF7F9FD0020F8E600008C
:102580000020005218440258F46B0008300000206C
:1025900010B5FEF7DBFE0949096801F00F010122C1
:1025A00092FAA2F2B2FA82F2D140054A515CC840D6
:1025B000044908600846006810BD0000184402582D
:1025C000F46B00083400002010B5FFF7E1FF074965
:1025D000096801F07001102292FAA2F2B2FA82F2B6
:1025E000D140034A515CC84010BD00001C44025851
:1025F000F46B000810B5FFF7CBFF0749096801F439
:10260000E0614FF4807292FAA2F2B2FA82F2D14003
:10261000024A515CC84010BD1C440258F46B0008CB
:1026200070B5012500EE905A0022012100230024FC
:10263000DFED861AB0EE610ADFED841AB0EE611AA2
:102640000020834D2D6805F0380535B1082D15D0D3
:10265000102D15D0182D7CD114E07D4D103D2D6826
:10266000C5F3401545B17A4D103D2D68C5F3C1063F
:10267000784D25FA06F000E07648E5E07648E3E09C
:102680007648E1E0724D18352D6805F00302704D73
:1026900018352D68C5F305116D4D1C352D6805F0F5
:1026A00001036B4D24352D68C5F3CC0515FB03F5EF
:1026B00001EE905AF8EE611AB0EE610A22B1012AD9
:1026C0004FD0022A7DD16BE0614D103D2D68C5F3DE
:1026D00040152DB35E4D103D2D68C5F3C1065D4D0F
:1026E00025FA06F4B4FBF1F501EE905AB8EE612A32
:1026F000DFED5B1AC0EE212A554D20352D68C5F35C
:10270000080501EE905AF8EE611A72EEA11AF7EE82
:10271000002A71EEA21A62EE211AB0EE611A1FE0D1
:102720004C4DB5FBF1F501EE905AB8EE612ADFEDA4
:102730004C1AC0EE212A464D20352D68C5F30805F8
:1027400001EE905AF8EE611A72EEA11AF7EE002A25
:1027500000E077E071EEA21A62EE211AB0EE611A83
:102760005EE03D4DB5FBF1F501EE905AB8EE612A01
:10277000DFED3B1AC0EE212A354D20352D68C5F31B
:10278000080501EE905AF8EE611A72EEA11AF7EE02
:10279000002A71EEA21A62EE211AB0EE611A3FE031
:1027A0002E4DB5FBF1F501EE905AB8EE612ADFED42
:1027B0002C1AC0EE212A264D20352D68C5F30805B8
:1027C00000E00EE001EE905AF8EE611A72EEA11AE6
:1027D000F7EE002A71EEA21A62EE211AB0EE611A2B
:1027E0001EE01D4DB5FBF1F501EE905AF8EE612AA1
:1027F000DFED1B1A80EE212A154D20352D68C5F31B
:10280000080501EE905AF8EE611A72EE211AB7EE41
:10281000002A71EE821A62EEA11AB0EE611A00BFB0
:1028200000BF0B4D20352D68C5F346256D1C00EE0D
:10283000905AF8EE601A81EE212AFCEEC21A11EECF
:10284000900A01E0044800BF00BF70BD0000000016
:10285000104402580090D00300093D0040787D01EB
:102860000000004670B504460025207800F0010005
:10287000002872D0F948006800F0380010280CD009
:10288000F648006800F03800182812D1F3481830D4
:10289000006800F0030002280BD1F04810380068EF
:1028A000C0F3404000286DD0606800286AD1012044
:1028B00070BD00BF6068B0F5803F08D1E7481038B0
:1028C000006840F48030E549103908602EE0606807
:1028D00068B9E2481038006820F48030DF491039C8
:1028E00008600846006820F4802008601EE06068E8
:1028F000B0F5A02F0DD1D9481038006840F48020E1
:10290000D649103908600846006840F480300860F5
:102910000CE0D2481038006820F48030CF491039DC
:1029200008600846006820F48020086000BF6068E6
:10293000A0B1FEF7FBFB054608E0FEF7F7FB401BE6
:1029400041F28831884201D90320B1E7C3481038E9
:102950000068C0F340400028EFD013E0FEF7E6FB2C
:10296000054608E0FEF7E2FB401B41F28831884251
:1029700001D903209CE7B94810380068C0F34040F3
:102980000028EFD1207800F00200022847D1B34898
:10299000006800F0380058B1B048006800F0380016
:1029A00018283ED1AD481830006800F00300B8BBCD
:1029B000AA4810380068C0F3800018B1E06808B970
:1029C000012075E7A5481038006820F01900E1687B
:1029D0000843A24910390860FEF7A8FB054606E047
:1029E000FEF7A4FB401B022801D9032060E79B48A7
:1029F00010380068C0F380000028F1D097480C38E8
:102A0000006820F47C304FF47C3292FAA2F2B2FAE1
:102A100082F221699140084390490C3908604AE0EC
:102A2000FFE7E06868B38D481038006820F01900AF
:102A3000E1680843894910390860FEF777FB0546CD
:102A400006E0FEF773FB401B022801D903202FE7A5
:102A5000824810380068C0F380000028F1D07F4819
:102A60000C38006820F47C304FF47C3292FAA2F2E9
:102A7000B2FA82F221699140084378490C39086022
:102A800019E076481038006820F0010073491039C9
:102A90000860FEF74BFB054606E0FEF747FB401BD0
:102AA000022801D9032003E76C4810380068C0F3FE
:102AB00080000028F1D1207800F01000102877D194
:102AC0006648006800F0380008280CD063480068A9
:102AD00000F03800182823D160481830006800F052
:102AE000030001281CD15D4810380068C0F30020A5
:102AF00020B1E069802801D00120D9E657480C3880
:102B0000006820F0F8404FF0F84292FAA2F2B2FAD0
:102B100082F2216A9140084350490C39086047E02D
:102B2000E06958B34D481038006840F080004B49C8
:102B300010390860FEF7FAFA054606E0FEF7F6FAE5
:102B4000401B022801D90320B2E64448103800682F
:102B5000C0F300200028F1D040480C38006820F075
:102B6000F8404FF0F84292FAA2F2B2FA82F2216AE9
:102B70009140084339490C39086019E0374810384A
:102B8000006820F08000354910390860FEF7CEFA61
:102B9000054606E0FEF7CAFA401B022801D90320C9
:102BA00086E62E4810380068C0F300200028F1D1D6
:102BB000207800F00800082836D16069D0B1274895
:102BC0006430006840F00100244964310860FEF779
:102BD000ADFA054606E0FEF7A9FA401B022801D926
:102BE000032065E61D4864300068C0F340000028FB
:102BF000F1D019E019486430006820F0010017494D
:102C000064310860FEF792FA054606E0FEF78EFA98
:102C1000401B022801D903204AE6104864300068AE
:102C2000C0F340000028F1D1207800F020002028D7
:102C300034D1A069D8B109481038006840F48050F8
:102C4000064910390860FEF771FA054608E0FEF7FC
:102C50006DFA401B022803D9032029E610440258CC
:102C6000AF480068C0F340300028F0D016E0AC4810
:102C7000006820F48050AA490860FEF757FA05461C
:102C800006E0FEF753FA401B022801D903200FE6A5
:102C9000A3480068C0F340300028F2D1207800F04B
:102CA000040004287DD19F48006840F480709D494D
:102CB0000860FEF73BFA054606E0FEF737FA401BD0
:102CC000642801D90320F3E59648006800F4807079
:102CD0000028F2D000BFA068012808D190487030C9
:102CE000006840F001008E49703108602DE0A06856
:102CF00068B98B487030006820F001008849703155
:102D000008600846006820F0040008601DE0A06824
:102D100005280DD182487030006840F004008049D9
:102D2000703108600846006840F0010008600CE05F
:102D30007B487030006820F00100794970310860EC
:102D40000846006820F00400086000BFA068A0B139
:102D5000FEF7ECF9054608E0FEF7E8F9401B41F202
:102D60008831884201D90320A2E56D48703000689F
:102D7000C0F340000028EFD013E0FEF7D7F9054676
:102D800008E0FEF7D3F9401B41F28831884201D9AF
:102D900003208DE5624870300068C0F340000028D1
:102DA000EFD1606A00287CD05D481030006800F0E8
:102DB0003800182876D0606A022874D15848006814
:102DC00020F0807056490860FEF7B0F9054606E02D
:102DD000FEF7ACF9401B022801D9032068E55048F2
:102DE0000068C0F340600028F2D100BFD4E90A10A7
:102DF00041EA00104A492831096840F2F332914310
:102E00000843474928310860208E401EC0F308005F
:102E1000616B491E4FF47E4202EA41210843218F33
:102E2000491ED20102EA014108433C21095D491EC5
:102E3000120202EA0161084339493031086000BFDB
:102E4000081D00684FF6F87188434FF6F87292FA41
:102E5000A2F2B2FA82F2A16C9140084330493431B7
:102E600008602F482C30006820F00C00216C0843CB
:102E70002B492C3108600846006820F00200616C84
:102E8000084327492C3108600846006840F4803028
:102E900008600846006840F4003008600846006892
:102EA00002E03BE038E01FE040F480200860084684
:102EB000006840F0010008601948006840F0807028
:102EC00017490860FEF732F9054606E0FEF72EF9CD
:102ED000401B022801D90320EAE411480068C0F32E
:102EE00040600028F2D019E00D48006820F08070A2
:102EF0000B490860FEF71AF9054606E0FEF716F9D9
:102F0000401B022801D90320D2E405480068C0F321
:102F100040600028F2D101E00120C9E40020C7E4AC
:102F2000004402580048025870B504460E46154643
:102F30000CB9012070BD94F8450028B9002084F830
:102F40004400204600F024F804F108012068FDF751
:102F50004DFF3146A2682068FDF788FF2946E36AE5
:102F6000D4E90102FDF71EFFA168206850F8210096
:102F700040F00100A268216841F82200034800687F
:102F800040F00040014908600020D3E700400052B3
:102F9000704770B504462546681EB0F1807F01D3A6
:102FA00001200FE0681E4FF0E02148610F214FF033
:102FB000FF3001F07BFF00204FF0E0218861072007
:102FC0000861002070BD10B504460CB9012010BD89
:102FD00094F83D0028B9002084F83C00204600F019
:102FE0000CF8022084F83D00211D206800F0D0FF7D
:102FF000012084F83D000020E9E7704701460220E7
:1030000081F83D000868008840F001000A681080DF
:10301000012081F83D000020704710B504460CB92E
:10302000012010BDA06900B100E000BF94F8790054
:1030300028B9002084F87800204600F02AF82420DF
:1030400084F879002068006820F001002168086099
:10305000204601F0B3F8012800D1E2E7606B10B11F
:10306000204600F0FBFF2068406820F49040216873
:1030700048602068806820F02A0021688860206805
:10308000006840F0010021680860204601F05BF80C
:10309000C7E7704700B59BB04C2108A8FDF7C7F9FA
:1030A0001C2101A8FDF7C3F917480890174809909B
:1030B000052001900220029003900120049002203C
:1030C00005900690002007900A9000210B910C912A
:1030D00020210D9100210E910F9110914FF48051FC
:1030E000119100211291139114911591169101AA39
:1030F00001A908A8FFF718FF20B14FF4917104A0AF
:10310000FDF74BFE1BB000BD0040005204410052D1
:103110002E2E5C2E2E5C557365725C6273705C7330
:1031200072635C6273705F666D635F696F2E6300CC
:1031300000B587B000BF3E48006840F008003C4939
:1031400008600846006800F00800019000BF00BF5A
:1031500000BF0846006840F010000860084600689C
:1031600000F01000019000BF00BF00BF08460068DB
:1031700040F0400008600846006800F04000019000
:1031800000BF00BF00BF0846006840F08000086034
:103190000846006800F08000019000BF00BF00BF3B
:1031A0000846006840F4807008600846006800F433
:1031B0008070019000BF00BF00BF1D480C38006840
:1031C00040F480501A490C3908600846006800F441
:1031D0008050019000BF00BF0220039001200490A6
:1031E000032005900C2006904CF2B370029002A9C7
:1031F0001048FDF775FE4FF68070029002A90E4848
:10320000FDF76EFE0320029002A90C48FDF768FE50
:103210004FF47F40029002A90948FDF761FE40F299
:10322000CF60029002A90748FDF75AFE07B000BD23
:10323000E0440258000C02580010025800180258CE
:10324000001C02580020025801460448006808404B
:1032500008B1012070470020FCE70000200000209A
:1032600029B9084A12688243064B1A6004E0054AED
:1032700012680243034B1A60024A1268024B1A603A
:1032800070470000200000200010006010B5324997
:10329000096801F0004149B12F49096841F0004136
:1032A0002D4A11608169891C816110BD2A49083944
:1032B00009682A4A11622849091F097882F82410EE
:1032C0002549C91E0978916223490C310968D162E8
:1032D0002149891E098811861F49096851631E49C1
:1032E000091D096891631C4910310968D1631CA24A
:1032F00000210BE0535C254C238500BF234BDB6989
:1033000003F04003002BF9D04B1CD9B22929F1D38B
:1033100000211F4A116000BF1D4909680029FBD028
:103320000E4A016811604168516081689160C1680E
:10333000D160016911614169516181699161C1691E
:10334000D1610021124A116000BF114909680029AA
:10335000FBD000BFA9E700002CED00E07C110020AD
:103360000D0A456E74657220486172644661756C21
:10337000745F48616E646C65722C20537973746558
:103380006D2048616C742E0D0A0000000010014091
:103390003800002000B5B5B00120019000201F903A
:1033A00001A8FEF731FA00BF6448006840F0010050
:1033B000624908600846006800F00100009000BF04
:1033C00000BF00BF0846006840F0010008600846E2
:1033D000006800F00100009000BF00BF00BF574828
:1033E0001030006840F01000544910310860084661
:1033F000006800F01000009000BF00BF4FF40070A4
:103400003090022031900120329003203390072029
:10341000349030A94A48FDF763FD4FF48060309046
:103420000720349030A94648FDF75AFD01220021BB
:103430002520FDF73AFF2520FDF723FF0C2300226E
:103440004FF4E1313F4803F005FA3E48006A40F08E
:1034500040003C4908620846008B40F008000883A1
:103460000846006840F02000086000BF334800684C
:1034700040F04000314908600846006800F0400014
:10348000009000BF00BF00BF0846006840F0040085
:1034900008600846006800F00400009000BF00BF0C
:1034A00000BF26481030006840F02000234910314A
:1034B00008600846006800F02000009000BF00BFD0
:1034C0004FF4804030900220319001203290032050
:1034D00033900720349030A91B48FDF701FD802070
:1034E00030900720349030A91848FDF7F9FC0622E7
:1034F00000214720FDF7D9FE4720FDF7C2FE0C232F
:1035000000224FF4E131124803F0A4F910482030B2
:10351000006840F040000E49203108600C48183027
:10352000008840F008000A491831088008480068FF
:1035300040F020000649086035B000BDE044025864
:1035400000000258001001400018025800080258FC
:10355000001401402DE9F0410446082C17DA00263A
:10356000FF27002508E0284600F030F810B1701C55
:10357000C6B22F46681CC5B2082DF4DB012E04D15B
:10358000A74202D10120BDE8F0810020FBE7082C12
:103590000BD1002000F01AF828B1012000F016F835
:1035A00008B10120EFE70020EDE7092C0BD1012045
:1035B00000F00CF828B1022000F008F808B1012052
:1035C000E1E70020DFE70020DDE7000001460B48CF
:1035D00050F831000069094B03EBC1039B88184088
:1035E00008B9002200E00122044800EBC100807904
:1035F000904201D1012070470020FCE7F46A0008E6
:103600001FB5FDF707FE01208DF800004FF01050A8
:10361000019012208DF8080003208DF80B00012086
:103620008DF80F008DF80E0000208DF80D008DF83C
:1036300001008DF80A008DF809008DF80C0068462D
:10364000FDF7BAFD01208DF800004FF0C040019059
:103650000F208DF8080003208DF80B0001208DF855
:103660000F0000208DF80E008DF80D0001208DF860
:10367000010000208DF80A008DF809008DF80C007B
:103680006846FDF799FD0420FDF7DAFD1FBD00BF78
:10369000FEE770477047000010B508A001F0EEFB90
:1036A00009A001F0EBFB16A001F0E8FB1CA001F063
:1036B000E5FB23A001F0E2FB10BD0000B2D9D7F773
:1036C000CCE1CABE3A0D0A00312E20C6F4B6AFD204
:1036D000BBB8F6D7D4B6AFD6D8D7B0C8EDBCFEB617
:1036E000A8CAB1C6F7A3ACC3BF3130306D73B7AD54
:1036F000D7AAD2BBB4CE4C4544320D0A000000001C
:10370000322E20B0B4CFC2B0B4BCFC4B312C20441C
:103710005350C7F3B1EAD6BEC6ABB2EE0D0A0000F5
:10372000332E20B0B4CFC2B0B4BCFC4B322C2044FA
:103730005350C7F3BEF9B7BDB8F90D0A0000000039
:10374000342E20B0B4CFC2B0B4BCFC4B332C2044D8
:103750005350C7F3B7BDB2EE0D0A00002DE9F0419A
:1037600023A001F08BFB32480468001D0568001D92
:103770000668304800683049B0FBF1F739462FA0A1
:1037800001F07CFB23462A46314638A001F076FB47
:103790003BA001F073FB16A001F070FB39A143A020
:1037A00001F06CFB46A147A001F068FB4AA14DA0C7
:1037B00001F064FB50A001F061FB5BA001F05EFB37
:1037C0005BA001F05BFB60A001F058FB63A001F07F
:1037D00055FB69A001F052FB6EA001F04FFB75A0F4
:1037E00001F04CFB02A001F049FBBDE8F0810000B4
:1037F0002A2A2A2A2A2A2A2A2A2A2A2A2A2A2A2A29
:103800002A2A2A2A2A2A2A2A2A2A2A2A2A2A2A2A18
:103810002A2A2A2A2A2A2A2A2A2A2A2A2A2A2A2A08
:103820002A2A2A2A2A2A2A2A2A2A2A2A2A0A0D005F
:1038300000E8F11F3000002040420F000D0A435005
:1038400055203A2053544D33324837343358494881
:10385000362C204247413234302C20D6F7C6B53AB8
:103860002025644D487A0D0A000000005549442087
:103870003D202530385820253038582025303858FC
:103880000A0D000056372DCDB3BCC6D4CBCBE3A375
:10389000A8B1EAD7BCC6ABB2EEA3ACBEF9B7BDB80F
:1038A000F9BACDB7BDB2EEA3A90000002A20C0FD31
:1038B000B3CCC3FBB3C62020203A2025730D0A00E9
:1038C000312E30002A20C0FDB3CCB0E6B1BE20209E
:1038D000203A2025730D0A00323031392D31312D37
:1038E000303200002A20B7A2B2BCC8D5C6DA2020E8
:1038F000203A2025730D0A002A2048414CBFE2B02F
:10390000E6B1BE20203A2056312E332E30202853E7
:10391000544D3332483778782048414C20447269FE
:10392000766572290D0A00002A200D0A00000000A9
:103930002A205151202020203A2031323935373485
:1039400034363330200D0A002A20CDFACDFA20205B
:103950003A2061726D666C790D0A00002A20456D6F
:1039600061696C203A2061726D666C794071712ECC
:10397000636F6D200D0A00002A20CEA2D0C5B9AB1E
:10398000D6DABAC53A2061726D666C795F636F6D85
:10399000200D0A002A20CCD4B1A6B5EA3A206172E3
:1039A0006D666C792E74616F62616F2E636F6D0D41
:1039B0000A0000002A20436F7079726967687420DA
:1039C0007777772E61726D666C792E636F6D20B09C
:1039D000B2B8BBC0B3B5E7D7D30D0A002DE9F041AB
:1039E00004460E4600274848006800F003000328FC
:1039F00002D10120BDE8F08143482838006820F05A
:103A00008060414928390860FDF790FB054606E0D3
:103A1000FDF78CFB401B022801D90320EAE73A4856
:103A200028380068C0F3C0600028F1D100BF3648D4
:103A3000006820F47C30216840EA01303249086097
:103A4000A088401EC0F30800A168491E4FF47E42C2
:103A500002EA41210843A189491ED20102EA01413B
:103A60000843217C491E120202EA016108432649EB
:103A70001031086000BF2448001D006820F0C0001D
:103A8000616908432049091D08600846006820F064
:103A90002000A16908431C49091D08602EB9084689
:103AA000006840F40020086012E0012E08D116489A
:103AB000001D006840F480101349091D086007E0EC
:103AC0001148001D006840F400100F49091D0860EE
:103AD0000D482838006840F080600B49283908609C
:103AE000FDF724FB054606E0FDF720FB401B0228FE
:103AF00001D903207EE7044828380068C0F3C0607D
:103B00000028F1D0384675E7284402582DE9F041E5
:103B100004460E4600274848006800F003000328CA
:103B200002D10120BDE8F08143482838006820F028
:103B30008050414928390860FDF7F8FA054606E04B
:103B4000FDF7F4FA401B022801D90320EAE73A48BE
:103B500028380068C0F340700028F1D100BF364813
:103B6000006820F07C70218840EA015032490860EA
:103B7000A088401EC0F30800A168491E4FF47E4291
:103B800002EA41210843A189491ED20102EA01410A
:103B90000843217C491E120202EA016108432649BA
:103BA0001831086000BF2448001D006820F4406000
:103BB000616908432049091D08600846006820F42F
:103BC0000070A16908431C49091D08602EB9084608
:103BD000006840F48000086012E0012E08D1164809
:103BE000001D006840F400001349091D086007E04B
:103BF0001148001D006840F080700F49091D0860E1
:103C00000D482838006840F080500B49283908607A
:103C1000FDF78CFA054606E0FDF788FA401B0228FE
:103C200001D903207EE7044828380068C0F34070BB
:103C30000028F1D0384675E72844025800B587B00F
:103C400000BF0D48006840F002000B4908600846BC
:103C5000006800F00200019000BF00BF0120039047
:103C600000200490032005900420029002A903483C
:103C7000FDF736F907B000BDE044025800040258D1
:103C80007047000010B5FDF757FA0448007800B9F6
:103C900010BD00F005F800BFFAE700001C0000208E
:103CA00010B51B48006840B119480068401E18490B
:103CB000086010B9012017490870002408E004EBDF
:103CC0004401154A02EB810002F0F8FD601CC4B209
:103CD000042CF4DB11480068401C104908600846B9
:103CE00000686FF00041884202D100200B49086053
:103CF00002F09CFD0A480078401CC0B208490870D8
:103D00000A2803DB0020087002F08CFD10BD0000C3
:103D10001000002014000020F400002018000020F3
:103D20001D00002010B59CB0202114A8FCF77FFBDB
:103D30004C2101A8FCF77BFB00243B48006820F0E5
:103D400004003949086000BF0020009036480C305C
:103D5000006840F4404034490C310860084600686F
:103D600000F44040009000BF00BF00BF2E480C3060
:103D7000006800F40050B0F5005FF7D10120019019
:103D80000004029000200490089002200A90022172
:103D90000B9105210C91A0210D9102210E91109102
:103DA00004210F91002112910821119100211391FA
:103DB00001A8FEF757FD04461CB18F211BA0FCF79C
:103DC000ECFF3F201490032015900020169008204F
:103DD000179040201890199000011A9040201B90D5
:103DE000042114A8FEF7ACFA04461CB1AA210FA0C6
:103DF000FCF7D3FF1348006840F0800011490860C9
:103E000000BF1048F430006840F002000D49F43162
:103E100008600846006800F00200009000BF00BF84
:103E2000FDF754F81CB010BD0C4802582E2E5C2E25
:103E30002E5C557365725C6273705C6273702E6386
:103E400000000000004402582048006840F4700060
:103E50001E4908601E48006840F001001C490860C7
:103E600000201B49103108601948006819490840B2
:103E7000174908600020164918310860091D0860BC
:103E8000091D0860124928310860091D0860091DD4
:103E90000860091D0860091D0860091D0860091DEA
:103EA0000860091D08600A48006820F4802008495D
:103EB000086000200649603108600120064908605A
:103EC000C0060249803908607047000088ED00E0B4
:103ED000004402587FEDF6EA0881005170B50025D4
:103EE00000264FF08044206900F00205E06800F0F1
:103EF00002065DB156B14FF6FD702061E0684FF6E5
:103F0000FD710840E0601E4800688047206900F0AD
:103F10000405E06800F004065DB156B14FF6FB7091
:103F20002061E0684FF6FB710840E06015480068CA
:103F30008047206900F00805E06800F008065DB1E0
:103F400056B14FF6F7702061E0684FF6F771084000
:103F5000E0600D4800688047206900F01005E068C7
:103F600000F010065DB156B14FF6EF702061E068C9
:103F70004FF6EF710840E06004480068804770BD6C
:103F80000000002004000020080000200C00002099
:103F900010B500220288294B98420ED0B0F1804F14
:103FA0000BD0274B984208D0264B984205D0264B81
:103FB000984202D0254B984203D122F070024B6800
:103FC0001A431E4B984217D0B0F1804F14D01C4BAF
:103FD000984211D01B4B98420ED01B4B98420BD0ED
:103FE0001A4B984208D01A4B984205D0194B984268
:103FF00002D0194B984203D122F44072CB681A4385
:1040000022F080034C6943EA040202808B68C36299
:104010000B880385094B98420BD00C4B984208D073
:104020000B4B984205D00B4B984202D00A4B98425A
:1040300001D10B8A03860123436110BD00000140BA
:104040000004004000080040000C00400004014053
:1040500000400140004401400048014090F8341005
:1040600001F0010139B10168496821F40031826B26
:1040700011430268516090F8341001F0020139B127
:104080000168496821F48031C26B114302685160B4
:1040900090F8341001F0040139B10168496821F445
:1040A0008021026C11430268516090F8341001F0D5
:1040B000080139B10168496821F40041426C11439B
:1040C0000268516090F8341001F0100139B10168B4
:1040D000896821F48051826C11430268916090F8E4
:1040E000341001F0200139B10168896821F40051D0
:1040F000C26C11430268916090F8341001F04001E5
:1041000099B10168496821F48011026D1143026878
:104110005160016DB1F5801F07D10168496821F434
:10412000C001426D11430268516090F8341001F0F3
:10413000800139B10168496821F40021826D114381
:1041400002685160704738B5044600250020E067DA
:10415000FCF7ECFF05462068006800F0080008281E
:104160000CD16FF07E402B4600224FF400110090DE
:10417000204600F0F5FC08B1032038BD2068006837
:1041800000F0040004280CD16FF07E402B46002282
:104190004FF480010090204600F0E2FC08B10320BB
:1041A000EBE7202084F8790084F87A0000BF002033
:1041B00084F8780000BF00BFDFE700002DE9F04F72
:1041C00089B0044600254FF08008A946AA46002081
:1041D0000890FA492068884201D1012000E00020BF
:1041E00000B100E000BFA06AB0F1005F00D100BFE5
:1041F0002169A068084361690843E16940EA010553
:10420000A06A054320680068ED49084028432168FA
:1042100008602068406820F44050E1680843216845
:104220004860A569E5492068884201D1012000E085
:10423000002008B9206A0543A06AB0F1005F03D1ED
:10424000D4E90B010843054320688068DD49084034
:104250002843216888602068C06A20F00F00616AE6
:1042600008432168C86200BFD7492068884224D12A
:10427000D648006800F03800182814D005DC48B192
:1042800008280AD0102817D10AE020280ED02828A4
:1042900012D10EE04FF001080EE04FF004080BE0E1
:1042A0004FF0400808E04FF0080805E04FF0100814
:1042B00002E04FF0200800BF17E1C549206888429E
:1042C0001DD1C248006800F00700062816D2DFE8BA
:1042D00000F00306090C0F124FF000080EE04FF03B
:1042E00004080BE04FF0400808E04FF0080805E034
:1042F0004FF0100802E04FF0200800BFF5E0B5498C
:10430000206888421DD1B148006800F007000628E7
:1043100016D2DFE800F00306090C0F124FF0000878
:104320000EE04FF004080BE04FF0400808E04FF0BB
:10433000080805E04FF0100802E04FF0200800BF29
:10434000D3E0A549206888421DD1A048006800F04C
:104350000700062816D2DFE800F00306090C0F124A
:104360004FF000080EE04FF004080BE04FF040085B
:1043700008E04FF0080805E04FF0100802E04FF0A9
:10438000200800BFB1E09549206888421DD18F48C0
:10439000006800F00700062816D2DFE800F00306E8
:1043A000090C0F124FF000080EE04FF004080BE06C
:1043B0004FF0400808E04FF0080805E04FF0100803
:1043C00002E04FF0200800BF8FE085492068884256
:1043D00024D17E48006800F03800182814D005DC8D
:1043E00048B108280AD0102817D10AE020280ED09A
:1043F000282812D10EE04FF001080EE04FF004081B
:104400000BE04FF0400808E04FF0080805E04FF0DF
:10441000100802E04FF0200800BF66E071492068F4
:1044200088421DD16948006800F00700062816D2AE
:10443000DFE800F00306090C0F124FF000080EE051
:104440004FF004080BE04FF0400808E04FF0080878
:1044500005E04FF0100802E04FF0200800BF44E0F4
:104460006149206888421DD15848006800F0070063
:10447000062816D2DFE800F00306090C0F124FF0F1
:1044800000080EE04FF004080BE04FF0400808E091
:104490004FF0080805E04FF0100802E04FF0200848
:1044A00000BF22E04549206888421ED14748001DD0
:1044B000006800F00700062816D2DFE800F00306C7
:1044C000090C0F124FF002080EE04FF004080BE049
:1044D0004FF0400808E04FF0080805E04FF01008E2
:1044E00002E04FF0200800BF00BF00BF3349206842
:1044F000884201D1012000E0002000285DD0002585
:10450000B8F1100F33D009DCB8F1020F10D0B8F1B8
:10451000040F11D0B8F1080F2ED117E0B8F1200F19
:1045200027D0B8F1400F0CD0B8F1800F24D124E08F
:10453000FCF728FF054623E005A8FCF739FF069D98
:104540001EE002A8FDF74AF8039D19E01F48543801
:104550000068C0F3401040B11C4854380068C0F3F4
:10456000C101224820FA01F500E0204D08E0204D6D
:1045700006E04FF4004503E000BF0120089000BFB3
:1045800000BF002D0AD0606800EB4000A84203D8AD
:1045900060680003A84202D201200890D4E2B8F17A
:1045A000100F7CD026DCB8F1020F2DD0B8F1040F2B
:1045B00052D0B8F1080F73D19EE03FE1000C0058D3
:1045C000F369FFCFFFF4FF1100100140544402587B
:1045D0000044004000480040004C004000500040B3
:1045E0000014014000780040007C00400090D0039F
:1045F00000093D00B8F1200F7DD0B8F1400F54D034
:10460000B8F1800FD7D109E1FCF7BCFE00270646C0
:10461000FB49606A31F810C062463B463046394675
:10462000FBF756FE4FF4807600220346A3FB0607F5
:1046300001FB067103FB0213616849080646711805
:104640005A41CDE9001266683246002308460199B6
:10465000FBF73EFE0546E4E005A8FCF7A9FEDDF801
:1046600018C0E749606A31F810B05A460023604626
:104670001946FBF72DFE4FF4807C0022A0FB0C3B7B
:1046800001FB0CB100FB0210616849085E1840EBA9
:104690000201D4F804C062460023304601E079E00C
:1046A000BBE0FBF715FE0546BBE002A8FCF796FF52
:1046B000DDF80CC0D249606A31F810B05A460023C8
:1046C00060461946FBF704FE4FF4807C0022A0FBF5
:1046D0000C3B01FB0CB100FB0210616849085E183D
:1046E00040EB0201D4F804C0624600233046FBF7D9
:1046F000EFFD054695E06EE0C2480068C0F340104B
:1047000038B3C0480068C0F3C101BF4820FA01FCBB
:10471000BB49606A31F810B05A460023604619461A
:10472000FBF7D6FD4FF4807C0022A0FB0C3B01FB85
:104730000CB100FB0210616849085E1840EB0201F1
:10474000D4F804C0624600233046FBF7C1FD05469D
:104750001FE0AB49606A31F810C062460023AA48E6
:104760001946FBF7B5FD4FF4807C0022A0FB0C3B03
:1047700001FB0CB100FB0210616849085E1840EBB8
:104780000201D4F804C0624600233046FBF7A0FDC6
:10479000054646E09A49606A31F810C06246002337
:1047A0009A481946FBF794FD4FF4807C0022A0FB49
:1047B0000C3B01FB0CB100FB0210616849085E185C
:1047C00040EB0201D4F804C0624600233046FBF7F8
:1047D0007FFD054625E08A49606A31F810C06246CF
:1047E00000234FF400401946FBF772FD4FF4807C24
:1047F0000022A0FB0C3B01FB0CB100FB0210616826
:1048000049085E1840EB0201D4F804C06246002358
:104810003046FBF75DFD054603E000BF0120089030
:1048200000BF00BFB5F5407F05D3B5F5801F02D2AC
:104830002068C56088E10120089085E1E069B0F555
:10484000004F7CD1B8F1100F7AD00CDCB8F1000F1A
:1048500013D0B8F1010F21D0B8F1040F2FD0B8F167
:10486000080F6ED151E0B8F1200F6BD0B8F1400FB6
:1048700038D0B8F1800F64D197E0FDF7A5FE604A0B
:10488000616A32F81110B0FBF1F04000616800EB92
:104890005100B0FBF1F01FFA80FA89E0FDF7AAFEA3
:1048A000574A616A32F81110B0FBF1F040006168BC
:1048B00000EB5100B0FBF1F01FFA80FA78E005A898
:1048C000FCF776FD06994E4A606A32F81000B1FB9B
:1048D000F0F04000616800EB5100B0FBF1F01FFA0E
:1048E00080FA65E002A8FCF779FE0399444A606A01
:1048F00032F81000B1FBF0F04000616800EB5100AD
:10490000B0FBF1F01FFA80FA52E03E480068C0F3B5
:104910004010C0B13B480068C0F3C1013A48C840EC
:10492000374A616A32F81110B0FBF1F0400061685B
:1049300000EB5100B0FBF1F01FFA80FA12E044E006
:1049400011E031E01FE02E49606A31F810002E4975
:10495000B1FBF0F04000616800EB5100B0FBF1F0FA
:104960001FFA80FA24E02649606A31F810002749CE
:10497000B1FBF0F04000616800EB5100B0FBF1F0DA
:104980001FFA80FA14E01E49606A31F810004FF4F3
:104990000041B1FBF0F04000616800EB5100B0FB5A
:1049A000F1F01FFA80FA03E000BF0120089000BF79
:1049B00000BF4FF6F0700AEA0009CAF3420049EA64
:1049C00000092068C0F80C90BEE0B8F1100F7CD050
:1049D0000CDCB8F1000F1BD0B8F1010F29D0B8F1F1
:1049E000040F37D0B8F1080F70D159E0B8F1200F9B
:1049F0006DD0B8F1400F40D0B8F1800F66D19FE084
:104A0000946B0008004402580090D00300093D0058
:104A1000FDF7DAFD4E4A616A32F81110B0FBF1F091
:104A2000616800EB5100B0FBF1F080B22168C86012
:104A300089E0FDF7DFFD464A616A32F81110B0FBEC
:104A4000F1F0616800EB5100B0FBF1F080B2216839
:104A5000C86078E005A8FCF7ABFC06993C4A606AA0
:104A600032F81000B1FBF0F0616800EB5100B0FBD0
:104A7000F1F080B22168C86065E002A8FCF7AEFDE5
:104A80000399334A606A32F81000B1FBF0F06168B4
:104A900000EB5100B0FBF1F080B22168C86052E039
:104AA0002C480068C0F34010C0B12A480068C0F329
:104AB000C1012948C840264A616A32F81110B0FB8A
:104AC000F1F0616800EB510002E017E037E025E00B
:104AD000B0FBF1F080B22168C8600EE01C49606A4A
:104AE00031F810001C49B1FBF0F0616800EB510097
:104AF000B0FBF1F080B22168C86024E01449606A1C
:104B000031F810001549B1FBF0F0616800EB51007D
:104B1000B0FBF1F080B22168C86014E00C49606A13
:104B200031F810004FF40041B1FBF0F0616800EB88
:104B30005100B0FBF1F080B22168C86003E000BF13
:104B40000120089000BF00BF089809B0BDE8F08FB1
:104B5000946B0008004402580090D00300093D0007
:104B60002DE9F04104460D4617469846069E21E081
:104B7000701CF8B12EB1FCF7D9FAA0EB0800B042D6
:104B800018D92068006820F4D07021680860206877
:104B9000806820F0010021688860202084F8790076
:104BA00084F87A0000BF002084F8780000BF03205A
:104BB000BDE8F0812068C0692840A84201D10120E9
:104BC00000E00020B842D3D00020F1E710B5024841
:104BD00000F00CF810BD00002401002010B50248C0
:104BE00000F004F810BD0000500900202DE9F0414C
:104BF00004462068C569206806682068D0F80880E7
:104C000005F02000D8B12068808CC7B2E18AA06886
:104C10004754E08A401C80B2E082E189884201DB8F
:104C20000020E082608BE189884202DA608B401CC0
:104C30006083606A10B13846616A884700BF05F03A
:104C4000800028B306F0800010B3A08A60B9206805
:104C5000006820F08000216808602068006840F04B
:104C600040002168086013E0012084F82800618A70
:104C70006068405C21680885608A401C80B2608260
:104C8000A189884201DB00206082A08A401EA082A8
:104C900005F0400018B306F0400000B3A08A68B9E0
:104CA0002068006820F0400021680860206A08B190
:104CB000206A8047002084F8280010E0618A60683C
:104CC000405C21680885608A401C80B26082A189AE
:104CD000884201DB00206082A08A401EA0822068FA
:104CE000006A40F00100216808622068006A40F014
:104CF0000200216808622068006A40F00400216810
:104D000008622068006A40F0080021680862206894
:104D1000006A40F01000216808622068006A40F0D4
:104D20004000216808622068006A40F480702168B1
:104D300008622068006A40F40070216808622068F8
:104D4000006A40F40030216808622068006A40F47C
:104D50008010216808622068006A40F02000216805
:104D60000862BDE8F081F8B504460F4616460025F6
:104D700039E01EE0012000F0BFF8A08A009000207A
:104D800000F0BAF8A089BDF80010884200DD11E0FB
:104D9000A089BDF8001088420AD12068006800F0A0
:104DA000800028B92068006840F080002168086011
:104DB00000BFDFE700BF785D228A61688854012068
:104DC00000F09AF8208A401C80B22082A189884293
:104DD00001DB00202082A08A401CA082002000F07D
:104DE0008BF8681C85B2B542C3DB2068006840F0D0
:104DF000800021680860F8BD174818490860184805
:104E00004860184888604FF480608881C88100201D
:104E100008824882C882088348838882C861086201
:104E2000486281F82800104810490860104848601E
:104E3000104888604FF480608881C8810020088213
:104E40004882C882088348838882C86108624862B1
:104E500081F8280070470000001001402401002064
:104E6000500100205005002000140140500900208E
:104E70007C0900207C0D002000BFFEE70FB4054B2D
:104E800010B503A9044A029800F0FCF810BC5DF8C4
:104E900014FB0000B36900084000002002480068CD
:104EA000C0F30220704700000CED00E010B50028B0
:104EB00004DB0A07130E054A135406E00A07140E12
:104EC000034A00F00F031B1FD45410BD00E400E0A0
:104ED00018ED00E002E008C8121F08C1002AFAD14C
:104EE00070477047002001E001C1121F002AFBD16A
:104EF000704780F31088704780F310887047000077
:104F00002DE9FF5F82B00021DDE90430020DDDF8FC
:104F100040B0034318D044F61050A2F2FF3242438F
:104F20001514119801281FD0A5EB0B00401C5FEA57
:104F3000000A4FF000064E4FDFF83891B046504659
:104F400015D5CAF1000413E0119801244AA30128E1
:104F500001D16FEA0B010298119AC0E90031C0E952
:104F6000024206B0BDE8F09FCBF10000DFE7044647
:104F70000021404A491842EB0450CDE9001012E0EC
:104F8000E00707D032463B4640464946FBF727FB41
:104F90008046894632463B4610461946FBF71FFBC2
:104FA00006460F466410002CEAD1DDE90401DDE974
:104FB0000023BAF1000F06DAFBF711FB42464B461D
:104FC000FBF70DFB05E0FBF77CFB42464B46FBF78E
:104FD00078FB04460E460022284BFBF7F9FB03D86A
:104FE0004FF0FF30014607E00022254B20463146B6
:104FF000FBF74EFAFBF7D4FB102409E0002C0ADB88
:105000000A220023FBF764F9039B30321A55641E11
:1050100050EA0102F2D1641C039AC4F11103144452
:10502000119A012A03D0012208430DD10AE0084356
:1050300004D000204FF0110B119072E7A3EB0B0589
:105040006D1E0DE05B4504DD4FF0000205F101052A
:1050500004E003DA4FF00002A5F10105002AECD0CC
:1050600002981199C0E90231C0E9004579E70000D2
:10507000000014400000F03F300000000000F0434A
:105080000000E03F2DE9FF4F95B09B46894606465C
:1050900000250FE2252877D100242746F84A012170
:1050A000059400E0044316F8013F203B01FA03F0A9
:1050B0001042F7D130782A2811D06FF02F033078C2
:1050C000A0F13002092A16D8059A44F0020402EB36
:1050D000820203EB42021044761C0590EFE759F878
:1050E000042B0592002A03DA504244F40054059040
:1050F00044F00204761C30782E2816D116F8010FE1
:1051000044F004042A280DD06FF02F023078A0F16B
:105110003003092B09D807EB870302EB4303C718B9
:10512000761CF3E759F8047B761C30786C280FD096
:1051300006DC4C2817D068280DD06A2814D104E06A
:10514000742810D07A280FD10DE044F400140AE03E
:1051500044F4801401E044F440147278824202D195
:1051600004F58014761C761C307866280BD013DC8E
:10517000582877D009DC002875D04528F6D0462875
:10518000F4D047281AD19DE118E0632835D064286F
:1051900079D0652812D195E1702873D008DC672892
:1051A000F1D069286FD06E280DD06F2806D1B5E0F8
:1051B00073282CD0752875D0782874D05A46179942
:1051C00090476D1C75E1C4F30250022809D00328F2
:1051D0000DD0D9F8001004280DD00D6009F1040994
:1051E00067E1D9F80010EA17C1E90052F6E7D9F8EB
:1051F00000100D80F2E70D70F0E719F8041B8DF830
:10520000001000208DF80100EA46012003E059F863
:1052100004AB4FF0FF3061074FF0000102D40DE006
:1052200008F101018846B9420FDA8045F8DB1AF827
:1052300008100029F4D108E008F1010188468142F4
:10524000FADB1AF808100029F6D105985B46A0EBA6
:10525000080721463846179A00F094FA284400EBD4
:10526000080507E04DE029E10DE01AF8010B5A4668
:1052700017999047B8F10108F7D25B4621463846A6
:10528000179A13E142E00A220092C4F302524FF04F
:10529000000A022A08D059F804CB032A4FEAEC711D
:1052A0000AD00DE029E02AE009F1070121F0070208
:1052B000F2E802C1914609E00FFA8CFC4FEAEC716A
:1052C000042A03D14FFA8CFC4FEAEC71002907DA6B
:1052D0000A460021DCF1000C61EB02012D2202E004
:1052E000220504D52B228DF80420012203E0E207D9
:1052F00001D02022F7E7904659E00A2102E010226F
:105300000DE010214FF0000A00910BE010224FF049
:10531000000A44F004040827009203E008224FF03A
:10532000000A0092C4F30252022A05D059F804CBB5
:105330000021032A08D009E009F1070121F0070242
:10534000F2E802C1914605E01FFA8CFC042A01D163
:105350000CF0FF0C4FF00008220728D5702806D06B
:10536000009B83F0100353EA0A0305D00EE04022AD
:105370008DF80420012208E05CEA010206D0302208
:105380008DF804208DF8050002229046009B83F0E2
:10539000080353EA0A030AD15CEA010201D1620759
:1053A00005D530228DF804204FF001087F1E5828C3
:1053B00004D034A003900EA802900DE036A0F9E7C7
:1053C00053466046009AFAF783FF84460398825C4E
:1053D0000298401E029002705CEA0100F0D102982F
:1053E00006A9081A00F1200A600702D524F48034C7
:1053F00000E00127574502DDA7EB0A0000E000208E
:1054000000EB0A01009005984144401A0590E00322
:1054100006D45B462146179A059800F0B3F9054477
:10542000002706E001A85A46C05D179990476D1CF9
:105430007F1C4745F6DBE0030CD55B462146179AF7
:10544000059800F09FF9054404E030205A4617996A
:1054500090476D1C0099481E00900029F5DC08E07B
:10546000029802995A460078491C02911799904770
:105470006D1CBAF10001AAF1010AF1DC65E100003E
:10548000092801003031323334353637383961621A
:1054900063646566000000003031323334353637DE
:1054A00038394142434445460000000000F058F9B5
:1054B0000544761C307800287FF4ECAD19B02846FE
:1054C000BDE8F08F620700D4062709F1070222F039
:1054D000070CFCE80223E14603F000485FEA080CF1
:1054E00002D00FF2702C0DE05FEA045C02D50FF2DF
:1054F000682C07E05FEAC47C02D00FF2602C01E068
:10550000AFF2700C4FF0FF3823F00043CDF850C0DD
:1055100065280CD006DC452809D046281DD0472830
:105520003DD13DE0662818D067287ED138E00021C3
:10553000112F01DB112000E0781CCDE9000106A944
:105540000EA8FFF7DDFCDDE90F010E9A03910021A3
:10555000009207F1010A04914DE04FF000400097DE
:10556000CDE9011006A90EA8FFF7CAFCDDE90F027C
:1055700003920E9B11990022DDF80CA00093049277
:1055800011B9791C00EB010AB7EB0A0004D4C0F191
:10559000FF3007F1010A0490AAEB0700019044E0F4
:1055A000012F00DA01270021112F01DD112000E079
:1055B0003846CDE9000106A90EA8FFF7A1FCDDE9F8
:1055C0000F010E9A0391002104910092BA4621071F
:1055D0000CD40399514500DA8A46BAF1010F05DD72
:1055E000009AAAF10101515C302908D0B84202DAD0
:1055F00010F1040F06DA0121CDE9011015E0AAF13E
:105600000101E9E7002805DC049901440491AAEBB3
:10561000000102E0411C514500DD8A460499401A10
:10562000401C01904FF000400290200704D40198E4
:10563000504501DBCDF8048000208DF84F00029822
:105640000DF14F07B0F1004F25D02B200E9002989E
:105650004FF0020800280CDA404202902D200E90F4
:1056600007E00A210298FAF7EDFE3031029007F8C0
:10567000011DB8F10001A8F10108F2DC0298002830
:10568000EFD1791E0E980870307800F0200040F0BD
:10569000450007F8020D12A8C01B00F10708149876
:1056A000007800B1012000EB0A01019801EBE071E4
:1056B00005984144401A401E0590E00306D45B461D
:1056C0002146179A059800F05DF805441498007873
:1056D00018B15A46179990476D1CE00324D55B46D4
:1056E0002146179A059800F04DF805441CE00498EF
:1056F000002807DBDDE90301884203DD0098405CF8
:10570000179901E0179930205A469047049805F1FF
:105710000105401C04900198401E019004D12E20E8
:105720005A46179990476D1CBAF10001AAF1010A77
:10573000DDDC05E017F8010B5A46179990476D1C00
:10574000B8F10001A8F10108F4DC5B462146179A84
:105750000598ABE62D0000002B00000020000000A3
:105760002DE9F041044600251E461746880404D45E
:1057700005E039462020B0476D1C641EF9D5284647
:10578000BDE8F0812DE9F041044600251E46904613
:10579000C80301D5302700E02027880404D505E0A0
:1057A00041463846B0476D1C641EF9D52846BDE811
:1057B000F081000010B513469FED2B1AF0EE410A60
:1057C0008A0828E0B0EC011AB0EE410AB0EE601A87
:1057D00000EE001AF0EE410AB0EC011AB0EE410AF8
:1057E000B0EE601A00EE001AF0EE410AB0EC011AB9
:1057F000B0EE410AB0EE601A00EE001AF0EE410A77
:10580000B0EC011AB0EE410AB0EE601A00EE001AD8
:10581000F0EE410A521E002AD4D101F003020AE040
:10582000B0EC011AB0EE410AB0EE601A00EE001AB8
:10583000F0EE410A521E002AF2D101EE901AF8EE63
:10584000611A80EEA11AB5EEC01AF1EE10FA04DB6F
:10585000F1EEC11AC3ED001A04E0DFED031AC3ED47
:10586000001A00BF10BD0000000000002DE9F74F36
:1058700082B005460E4600210F4688464FEA96093B
:105880002FE000BF28682D1D00BF04464046234678
:105890003A46944682461946C1FBC1CA6246504602
:1058A0004FF0000CCDE900784CEA02074AEA0C08F8
:1058B00000BF28682D1D00BF0446404623463A46D7
:1058C000944682461946C1FBC1CA624650464FF013
:1058D000000CCDE900784CEA02074AEA0C08A9F16D
:1058E0000109B9F1000FCCD106F0030908E035F940
:1058F00002BB1BFB0BF1CF1948EBE178A9F10109C1
:10590000B9F1000FF3D13246002338464146FAF789
:1059100010FDC00B40EA414000F30F0A50460499C5
:1059200000F054F805B0BDE8F08F2DE9F74F82B0D4
:1059300004468A4600210D460E464FEA9A0B19E0AE
:1059400054F8049B89FB09104D19464154F8049BF7
:1059500089FB09104D19464154F8049B89FB091035
:105960004D19464154F8049B89FB09104D194641D5
:10597000ABF1010BBBF1000FE2D10AF0030B07E022
:1059800054F8049B89FB09104D194641ABF1010BFA
:10599000BBF1000FF4D15246002328463146FAF7F6
:1059A00097FCC00F40EA41074FEAD178B8EBE77F98
:1059B00004D06FF0004181EAE87000E038460190C1
:1059C000049900F097F805B0BDE8F08F2DE9F84193
:1059D00006460F463346002B75DDB3FA83F0A0F17F
:1059E0001101084601EBD0784FEA6808A1EB48089E
:1059F000B8F1000F03D103FA01F003B203E0481E2F
:105A000003FA00F003B25D101C4600EE903AF8EE87
:105A1000E00A9FED351A60EE810AB0EE600A8DED66
:105A2000000ADDF800C03148A0EB6C0CCDF800C0D6
:105A3000DDED000AB0EE600ADFED2D0A60EE200A0F
:105A4000FDEEE00A10EE900A02B212FB02F0C01363
:105A500000B26843C01300B2C0F540505043C013B9
:105A6000800002B212FB02F0C01300B26843C01300
:105A700000B2C0F540505043C013800002B212FB88
:105A800002F0C01300B26843C01300B2C0F540502A
:105A90005043C013800002B2234604FB02F0C0133F
:105AA000400002B2084601EBD0784FEA6808A1EB4B
:105AB0004808B8F1000F07D101EBD0784FEA680829
:105AC00042FA08F207E00AE0481E00EBD0784FEAFD
:105AD000680842FA08F23A800020BDE8F881002008
