:020000040800F2
:10000000C0210020AD02000867220008F941000865
:1000100065220008350800084D3000080000000087
:100020000000000000000000000000007B24000829
:100030007D08000800000000692200087D240008F7
:10004000C7020008C7020008C7020008C70200086C
:10005000C7020008C7020008C7020008C70200085C
:10006000C7020008C7020008C7020008C70200084C
:10007000C7020008C7020008C7020008C70200083C
:10008000C7020008C7020008C7020008C70200082C
:10009000C7020008C7020008C7020008C70200081C
:1000A000C7020008C7020008C7020008C70200080C
:1000B0009B250008C7020008C7020008C702000805
:1000C000C7020008C7020008C7020008C7020008EC
:1000D000C70200080F2F0008C7020008C702000867
:1000E000C7020008C702000800000000C70200089D
:1000F000C7020008C7020008C7020008C7020008BC
:10010000C7020008C7020008C7020008C7020008AB
:10011000C7020008C7020008C7020008C70200089B
:10012000C7020008C7020008C7020008C70200088B
:10013000C7020008C7020008C7020008C70200087B
:1001400000000000000000000000000000000000AF
:10015000C7020008C7020008C70200081B2F0008DA
:10016000C7020008C7020008C7020008C70200084B
:10017000C7020008C7020008C7020008000000000C
:10018000C7020008C7020008C7020008C70200082B
:10019000C7020008C7020008C7020008C70200081B
:1001A000C7020008C7020008C7020008C70200080B
:1001B000C7020008C7020008C7020008C7020008FB
:1001C000C7020008C7020008C7020008C7020008EB
:1001D000C7020008C7020008C7020008C7020008DB
:1001E000C7020008C7020008C7020008C7020008CB
:1001F000C7020008C7020008C7020008C7020008BB
:10020000C7020008C7020008C7020008C7020008AA
:10021000C7020008C7020008C7020008C70200089A
:10022000C7020008C7020008C7020008000000005B
:10023000C7020008C702000800000000C70200084B
:10024000C7020008C7020008C7020008C70200086A
:10025000C7020008C7020008C7020008C70200085A
:10026000C7020008C7020008C7020008C70200084A
:10027000C7020008C7020008C7020008000000000B
:10028000C702000800000000C702000800000000CC
:1002900000000000C7020008DFF80CD000F048FAA8
:1002A00000480047A93E0008C021002006488047BA
:1002B00006480047FEE7FEE7FEE7FEE7FEE7FEE74B
:1002C000FEE7FEE7FEE7FEE72F250008990200089B
:1002D0002DE9F05F0546002092469B46884606467B
:1002E000814640241BE0284641464746224600F00E
:1002F00057F853465A46C01A914110D31146184632
:10030000224600F03EF82D1A67EB01084F462246C0
:100310000120002100F035F817EB00094E41201EA6
:10032000A4F10104DFDC484631462A464346BDE8D5
:10033000F09FD2B201E000F8012B491EFBD27047BA
:100340000022F6E710B513460A4604461946FFF7A1
:10035000F0FF204610BD30B50B460146002020229C
:10036000012409E021FA02F59D4205D303FA02F5C2
:10037000491B04FA02F52844151EA2F10102F1DC22
:1003800030BD202A04DB203A00FA02F10020704739
:100390009140C2F1200320FA03F3194390407047C3
:1003A000202A04DB203A21FA02F00021704721FACA
:1003B00002F3D040C2F12002914008431946704731
:1003C0002DE9FE4F804681EA0300C00F0C460090E5
:1003D00021F0004123F00045B8EB0200A94105D20D
:1003E0004046214690461C460B46024623F00040FC
:1003F000104347D0270DC7F30A00C3F30A510290F8
:10040000401A019040286BDAC3F3130040F4801BBC
:100410000098924620B10023D2EB030A63EB0B0B4A
:1004200001985946C0F140025046FFF7AAFF064620
:100430000D4650465946019A00F08CF910EB080021
:100440006141002487EA115284EAE7731A4340D0DD
:10045000009A62B3019A012A4FEA075215DC001B89
:1004600061EB02014FF0004202EA0752CDE900427F
:10047000001C41F5801132462B4600F08CF903B088
:10048000BDE8F08F40462146F9E7001B61EB020111
:10049000001C41F5801300185B412018A2F50017DD
:1004A00047EB030140EAD570B6196D4111E06D08C4
:1004B0004FEA360645EAC0754FEA0752001B61EB6A
:1004C0000201001C41F5801149084FEA3000001973
:1004D000514132462B4603B0BDE8F04F00F04CB915
:1004E0000098012240000023D0EB020263EBE0738E
:1004F000009821464FEAE074B8EB000061EB04017C
:10050000E9E783F000435BE781F0004158E72DE91C
:10051000FE4F81EA030404F0004421F000410094FE
:100520004FF0000B23F0004350EA01045ED052EA82
:1005300003045BD0C3F30A54C1F30A552C44A4F25C
:10054000F3340194A0FB0254C1F3130141F4801170
:10055000C3F3130343F4801301FB024400FB034E77
:10056000840A970A44EA815447EA8357A4FB076840
:1005700002958D0A05FB07854FEA932C04FB0C546A
:100580002705029D4FEA065847EA1637B5EB0805DE
:100590006EEB070C870E920E47EA811742EA831230
:1005A000A7FB0201B6EB0B0164EB00042B0D43EA41
:1005B0000C335E1844EB1C50DA465146E7FB02014F
:1005C000C5F313044FEA0B3343EA14534FEA0432E2
:1005D000019C43EA0603A4F10C040294009CCDE9BB
:1005E00000B400F0D8F803B0BDE8F08F0020014659
:1005F000F9E72DE9F04D81EA030404F0004B21F006
:10060000004514464FF0000A23F0004150EA05026D
:1006100020D054EA01021DD0C5F30A570246C5F3A3
:100620001303C1F31300C1F30A5640F4801543F4D9
:100630008013A7EB0608101BD64608F2FD3873EBB3
:10064000050002D308F1010801E092185B41B8F1FE
:10065000000F03DA00200146BDE8F08D00204FF4C2
:100660008011064684460EE0171B73EB050705D381
:10067000121B63EB050306434CEA010C49084FEAE1
:10068000300092185B4150EA0107EDD152EA0300B5
:1006900012D082EA040083EA0501084305D0101B4A
:1006A000AB4106D20122002306E000224FF00043B6
:1006B00002E06FF0010253101AEB06004CEB0851F8
:1006C00010EB0A0041EB0B01BDE8F04D00F054B80F
:1006D000C1F30A52C1F3130140F2FF3341F4801118
:1006E0009A4202DA00200146704740F233439A42B0
:1006F000A2F2334202DC5242FFF752BEFFF741BE84
:1007000030B5041E71F1000404DB4FF00044404298
:1007100064EB0101141E73F1000405DB1C464FF06D
:100720000043524263EB0403994208BF904230BD3C
:10073000064C074D06E0E06840F0010394E807002E
:1007400098471034AC42F6D3FFF7AAFDA462000824
:10075000C4620008202A06DBCB17203A41FA02F0D7
:1007600043EAE07306E041FA02F3D040C2F120020E
:10077000914008431946704710B5141E73F10004E8
:1007800008DA401C41F1000192185B411A4301D183
:1007900020F0010010BD2DE9F04D92469B4611B1AD
:1007A000B1FA81F202E0B0FA80F220329046FFF70F
:1007B000E8FD04460F4640EA0A0041EA0B015346B1
:1007C0005A46084313D0114653EA010019D0C8F124
:1007D00040025046FFF7E4FD05460E465046594696
:1007E0004246FFF7CEFD084305D0012004E0204635
:1007F0003946BDE8F08D0020054346EAE0762C43FB
:1008000037430A986305E40AA0EB08000022FD0ABA
:1008100044EA47540A3002D500200146E9E70105C1
:1008200010196941DDE9084500196941BDE8F04D3D
:10083000A2E70000FEE70000082804D240B207A1AA
:1008400051F82000704780B546F28020C0F60000C5
:100850004FF48E7100F014F8002080BD6810002065
:100860000000000000000000000000000000000088
:1008700094100020000000000000000070470000FD
:1008800009B100BFFEE77047B3F5804F03461AD1A8
:1008900080B5002053F822C0CCF6F0700CEA000CB2
:1008A000D1E9000E40EA0C00D1F808C040EA0E1071
:1008B000D1F80CE040EA0C20896940EA0E4001437F
:1008C000BDE8804001E06FF07041002043F8221045
:1008D00070472DE9F043D1E9002C40F28045D1E981
:1008E000023ED1E90489D1E9066750F82240CFF6EB
:1008F000C0752C4044EA0C051D4345EA0E0545EA47
:10090000080545EA09052E4337430E6A37434E6A08
:1009100037438E6A3743CE6A37430E6B37438E6B4D
:1009200037434E6B3743082B08BF47F0400740F86A
:1009300022700A6BB2F5801F05D10A684AB10268BD
:1009400042F4801202600A681AB1496B02681143CE
:1009500001600020BDE8F083F0B500EB82035A6827
:1009600040F2000C02F0404E0D684C6945EA0E055D
:100970004E6804F1FE078C6845EA06160A69CFF650
:10098000F07CCD6846EA04260CEB025246EA0546A6
:100990008D6932432A4342EA07625A600268D202F2
:1009A00007D54268096922F470020CEB015111432A
:1009B00041600020F0BD40F22040C5F60000016813
:1009C00041F00101016070472DE9F04F82B000F164
:1009D000264242F2004702F1FF72C5F602074FEAD3
:1009E000B2230A26B84208BF092644F2F44A40F26C
:1009F000040C092B38BF4FEAB226002300964FF0B3
:100A0000010B0027C5F6020AC5F6000C002400BF42
:100A10000BFA04FE0D6815EA0E0F00F09480D1F871
:100A2000048048F01005122D14D16FF0030202EA81
:100A30005405054407F01C02D5F820800F26964087
:100A400028EA06080E6906FA02F242EA08022A6259
:100A5000D1F80480032502689D4008F00306AA43EC
:100A60009E403243B8F1120F02606FEA050913D8B5
:100A70000BFA08F212F0061F0ED08268CD6802EA67
:100A800009029D402A4382604268C8F3001522EAA9
:100A90000E02A5402A434260C2688D6802EA09023C
:100AA0009D402A435FEAC805C2604CD5DAF80020B1
:100AB00040F2084642F00202CAF80020C5F60006DD
:100AC000DAF80020B14602F00202019224F003029B
:100AD000019D07F00C0552F806800F26AE4028EA6B
:100AE0000608009E06FA05F545EA080542F8095091
:100AF0004FF0B049DCF87C804D6848EA0E06EA0306
:100B000058BF28EA0E06CCF87C60AA03DCF8808087
:100B100048EA0E0658BF28EA0E06CCF88060D9F8DD
:100B20000080EA0248EA0E0658BF28EA0E06C9F815
:100B30000060DCF80020AD0242EA0E0658BF22EA4F
:100B40000E06CCF8006001340437102C03F10203C8
:100B50007FF45EAF02B0BDE8F08F41F2BC10C2F28C
:100B600000000068704740F20C00C2F2000041F241
:100B7000BC110078C2F200010A6810440860704796
:100B800080B5032000F0BBF80F2000F007F808B193
:100B9000012080BD00F078F8002080BDB0B540F2A3
:100BA0000C01C2F2000109784FF47A720446B2FBDC
:100BB000F1F140F20402C2F200021268B2FBF1F15C
:100BC000084601F0ECF90F2C4FF001050CD858B98C
:100BD0004FF0FF3000222146002500F065F840F27A
:100BE0001000C2F2000004602846B0BD02784EF644
:100BF000985C4378CEF2000C002ACCF8003020D06C
:100C000080B54368CCF80430037BC17A90F80AE0E1
:100C100042EA0372437B42EA0161827B41EACE41B0
:100C200090F80FE041EA8341437A41EA4241007A79
:100C300041EA0E4141EA032141EA4000BDE880401B
:100C400002E00020CCF80400CCF8080070474EF613
:100C50002450BFF35F8FCEF20000016821F4803191
:100C600001600021016770474EF6245140F00100F9
:100C7000CEF200010867086840F480300860BFF3D6
:100C80004F8FBFF36F8F7047704700280BDB00F06A
:100C90001F01012202FA01F14EF200124009CEF2C8
:100CA000000242F82010704710B54EF60C5CCEF2F0
:100CB000000CDCF80030C3F3022E8EF00704042C85
:100CC00028BF0424BEF103034FF0FF3E38BF0023CA
:100CD0000EFA04F4A14399400EFA03F39A4300F08C
:100CE0000F03043B1143634409010C3300F16042DC
:100CF000B0F1FF3FC8BF02F56443197010BD4EF656
:100D00000C51CEF200010A684FF6FF031A4060F35F
:100D10000A2242F0806040F0FD700860704780B5A4
:100D200000F06CFE44F21841C5F60201096844F671
:100D30002432C1F30321C0F60002515CC84040F2E6
:100D40000401C2F20001086080BD80B500F00AFE17
:100D500044F22041C5F60201096844F62432C1F389
:100D60000211C0F60002515CC84080BD80B544F25B
:100D7000004EC5F6020EDEF82830DEF8282003F01B
:100D80000303C2F3053CDEF82C20DEF83C1002F031
:100D90001002C1F3CC01022B02FB01F100EE101A8C
:100DA000B8EE400A0ED093B9DEF8001049F2000305
:100DB0008906C0F2D0330ED5DEF80010C1F3C101B0
:100DC000CB4008E047F64003C0F27D1303E040F655
:100DD0000013C0F23D03B3FBFCF19FED223A01EE9C
:100DE000101AB8EE411ADEF838106FF35F2102EEE8
:100DF000101AB8EE422ADEF83810C1F3462100EE90
:100E0000032AB7EE000A013132EE000A20EE010A91
:100E100001EE101AB8EE411A80EE011ABCEEC11AAA
:100E200080ED001ADEF83810C1F30641013101EE01
:100E3000101AB8EE411A80EE011ABCEEC11A80ED0C
:100E4000011ADEF83810C1F30661013101EE101A03
:100E5000B8EE411A80EE010ABCEEC00A80ED020A2B
:100E600080BD00BF0000003980B544F2004EC5F6D9
:100E7000020EDEF82830DEF8282003F00303C2F368
:100E8000055CDEF82C20DEF8441002F48072C1F319
:100E9000CC01022B02FB01F100EE101AB8EE400A61
:100EA0000ED093B9DEF8001049F200038906C0F2B3
:100EB000D0330ED5DEF80010C1F3C101CB4008E0FD
:100EC00047F64003C0F27D1303E040F60013C0F282
:100ED0003D03B3FBFCF19FED223A01EE101AB8EE90
:100EE000411ADEF840106FF35F2102EE101AB8EEDF
:100EF000422ADEF84010C1F3462100EE032AB7EE85
:100F0000000A013132EE000A20EE010A01EE101A49
:100F1000B8EE411A80EE011ABCEEC11A80ED001A3B
:100F2000DEF84010C1F30641013101EE101AB8EEAF
:100F3000411A80EE011ABCEEC11A80ED011ADEF8EA
:100F40004010C1F30661013101EE101AB8EE411AEA
:100F500080EE010ABCEEC00A80ED020A80BD00BF2F
:100F6000000000392DE9F0410446C07844F21048F1
:100F70000007C5F6020825D5606E4FEA30510329F7
:100F80000AD8DFE801F0020B1018D8F81C1041F461
:100F90000031C8F81C100EE0012514E0201D0221CC
:100FA00001F064F904E004F12400022101F0D2F917
:100FB000054640B9606ED8F8401021F4401108434E
:100FC000C8F8400000256078C00701D12E4629E00E
:100FD000606D04280DD82E46DFE800F0030D1218CE
:100FE0001800D8F81C002E4640F40030C8F81C0049
:100FF0000CE001260BE0201D002101F037F904E090
:1010000004F12400002101F0A5F906460EB1354394
:1010100008E0D8F84000002620F00700616D084382
:10102000C8F840006078800729D5A06D4FEAB0105D
:1010300004280BD8DFE800F0030C11171700D8F8CC
:101040001C0040F40030C8F81C000CE001260BE046
:10105000201D002101F00AF904E004F12400002120
:1010600001F078F906460EB1354308E0D8F84000A3
:10107000002620F4E070A16D0843C8F840006078B5
:1010800040072BD5D4F8A4004FEA705004280BD8A1
:10109000DFE800F0030C11171700D8F81C0040F42B
:1010A0000030C8F81C000CE001260BE0201D0021D8
:1010B00001F0DCF804E004F12400002101F04AF919
:1010C00006460EB1354309E0D8F84800002620F462
:1010D0006000D4F8A4100843C8F8480060780007FE
:1010E0002BD5D4F8A8004FEA306004280BD8DFE8ED
:1010F00000F0030C11171700D8F81C0040F4003062
:10110000C8F81C000CE001260BE0201D002101F0B6
:10111000ADF804E004F12400002101F01BF90646BB
:101120000EB1354309E0D8F84800002620F0E06011
:10113000D4F8A8100843C8F84800E078800722D502
:10114000A06C4FEA301003280AD8DFE800F0100244
:101150000B10D8F81C0040F40030C8F81C0006E062
:10116000012605E0201D022101F080F806460EB19F
:10117000354308E0D8F83C00002620F03000A16C90
:101180000843C8F83C006078C00629D5E06D4FEAF6
:10119000303004280BD8DFE800F0030C11171700DB
:1011A000D8F81C0040F40030C8F81C000CE0012600
:1011B0000BE0201D002101F059F804E004F12400A7
:1011C000002101F0C7F806460EB1354308E0D8F813
:1011D0004000002620F4E040E16D0843C8F84000DC
:1011E0006078800622D5206E4FEA3040052809D865
:1011F000DFE800F010030A101010201D012101F09B
:1012000035F806E0012606E004F12400012101F092
:10121000A1F806460EB1354308E0D8F84000002694
:1012200020F4E020216E0843C8F8400060784006B2
:1012300024D5D4F8AC004FEA3070052809D8DFE88F
:1012400000F010030A101010201D012101F00EF80B
:1012500006E0012606E004F12400012101F07AF8FD
:1012600006460EB1354309E0D8F84800002620F0C4
:10127000E040D4F8AC100843C8F848006078000695
:1012800020D5E06E88B1B0F1005F09D0B0F1805F89
:1012900016D1D8F81C0040F40030C8F81C0004E057
:1012A000201D012100F0E2FF064656B9D8F84000A3
:1012B000002620F04050E16E0843C8F8400001E0ED
:1012C00001263543E078C00720D0606C03280AD897
:1012D000DFE800F010020B10D8F81C0040F40030DA
:1012E000C8F81C0006E0012605E0201D022100F0E0
:1012F000BDFF06460EB1354308E0D8F83C00002695
:1013000020F00300616C0843C8F83C00A078400658
:1013100015D5D8F8F00340F48070C8F8F003FFF753
:101320001CFC0746D8F8F003C00506D4FFF715FCEF
:10133000C01B6428F6D9032600E096B13543207817
:10134000C00753D0A06F4FEAF00005283AD8DFE875
:1013500000F041033B414141201D012100F086FF87
:1013600037E0D8F86010D4F8B000414011F4407F65
:1013700011D0D8F86010D8F8602021F4407142F400
:101380008032C8F86020D8F8602022F48032C8F893
:101390006020C8F86010B0F5807F40F0EE81FFF764
:1013A000DCFB064641F28837D8F86000800700F180
:1013B000E281FFF7D2FB801BB842F5D945F0030567
:1013C0000326BCE7012606E004F12400012100F019
:1013D000C1FF06460EB1354308E0D8F844000026A8
:1013E00020F03800A16F0843C8F844002078800737
:1013F00020D5606F052809D8DFE800F010030A1037
:101400001010201D012100F031FF06E0012606E04A
:1014100004F12400012100F09DFF06460EB1354382
:1014200008E0D8F84400002620F00700616F084368
:10143000C8F844002078400722D5D4F89000052849
:1014400009D8DFE800F010030A101010201D012158
:1014500000F00CFF06E0012606E004F12400012163
:1014600000F078FF06460EB1354309E0D8F8480091
:10147000002620F00700D4F890100843C8F8480070
:101480002078800624D5D4F88C004FEA30700528E7
:1014900009D8DFE800F010030A101010201D002109
:1014A00000F0E4FE06E0012606E004F1240002213B
:1014B00000F050FF06460EB1354309E0D8F844006D
:1014C000002620F0E040D4F88C100843C8F844000F
:1014D0002078400624D5D4F898004FEAB02005289B
:1014E00009D8DFE800F010030A101010201D0021B9
:1014F00000F0BCFE06E0012606E004F12400022113
:1015000000F028FF06460EB1354309E0D8F8480040
:10151000002620F4E050D4F898100843C8F848009A
:101520002078000624D5D4F89C004FEA70300528B6
:1015300009D8DFE800F010030A101010201D002168
:1015400000F094FE06E0012606E004F124000221EA
:1015500000F000FF06460EB1354309E0D8F8480018
:10156000002620F46040D4F89C100843C8F84800D6
:101570002068010713D5D4F88010B1F5805F07D13A
:1015800004F12400022100F0E5FE0543206806E096
:10159000D8F8442022F440521143C8F84410C10640
:1015A00013D5D4F89410B1F5807F07D104F124004D
:1015B000022100F0CFFE0543206806E0D8F848205D
:1015C00022F440721143C8F84810000321D5D4F822
:1015D000A000B0F5003F0ED0B0F5803F05D0B0B907
:1015E000201D002100F042FE04E004F1240002214D
:1015F00000F0B0FE06465EB9D8F84800002620F498
:101600004030D4F8A0100843C8F8480001E0012693
:101610003543A078400725D5D4F88400B0F5401FA5
:1016200012D0B0F5001F09D0B0F5801F18D1D8F83E
:101630001C0040F40030C8F81C0005E004F1240050
:10164000012100F087FE06465EB9D8F84400002666
:1016500020F44010D4F884100843C8F8440001E096
:1016600001263543A078C0071DD0E06CB0F5803F5F
:1016700007D0B0B9D8F81C0040F40030C8F81C00FE
:1016800004E0201D022100F0F1FD064656B9D8F80D
:101690003C00002620F48030E16C0843C8F83C0090
:1016A00001E0012635432068810006D504F12400BD
:1016B000022100F04FFE0543206881031CD5E16F35
:1016C0006FF0010202EB3122022A0AD34FEA3122E3
:1016D0003AB1012A0ED1D8F81C2042F40032C8F8E1
:1016E0001C2046B9D8F8442022F440721143C8F8AF
:1016F000441001E001263543C10207D5D8F8401057
:1017000021F00041226F1143C8F84010C10008D5F4
:10171000D8F8001021F48041D4F8B4201143C8F85F
:101720000010810207D5D8F8401021F08071A26E18
:101730001143C8F8401041000CD5D8F8001021F42E
:101740000041C8F80010D4F8B810D8F800201143B0
:10175000C8F80010B0F1FF3F07DCD8F83C0020F0DB
:101760004050216D0843C8F83C00002D18BF0125EA
:101770002846BDE8F081D4F8B00000F44071D8F8F4
:101780000020B1F5407F22F47C5106D14FF6CF7294
:10179000C0F2FF0202EA10121143C8F800106FF302
:1017A0001F30D8F8601000260843C8F86000C6E56E
:1017B0002DE9F04381B042F20008C5F20028D8F8C4
:1017C00000200D4602F007028A4204460CD2D8F8E7
:1017D000000020F007002843C8F80000D8F80000F7
:1017E00000F00700A84265D1206844F20047810755
:1017F000C5F6020705D5B96921F00F01E26811436A
:10180000B961C00748D1D8F8000000F00700A8422D
:101810000CD9D8F8000020F007002843C8F80000D1
:10182000D8F8000000F00700A84243D12068410723
:1018300005D5B96921F0700122691143B961010729
:1018400005D5F96921F0700162691143F961C1069A
:1018500005D5F96921F4E061A2691143F9618006B7
:1018600005D5386A20F07000E1690843386200F05D
:10187000C5F8B96944F62432C1F30321C0F6000269
:10188000515CC84040F20401C2F2000108600F2020
:10189000FFF784F900200EE0B86920F47061D4E904
:1018A000010211430328B96108D0022851D13968D7
:1018B000890306D4012001B0BDE8F08339688901AD
:1018C000F8D5396921F0070108433861FFF745F978
:1018D00061680646032941F2883911D002291DD0DA
:1018E000012929D1386900F0380008283FF48BAF6E
:1018F000FFF733F9801B48454FF00300F2D9DAE7D0
:10190000386900F0380018283FF47DAFFFF725F95B
:10191000801B48454FF00300F2D9CCE7386900F04E
:10192000380010283FF46FAFFFF717F9801B4845C8
:101930004FF00300F2D9BEE7386910F0380F3FF4DA
:1019400062AFFFF70AF9801B48454FF00300F3D957
:10195000B1E70128396802D1C905ABD5B1E749071C
:10196000A8D5AEE780B5FFF7DAF944F21841C5F61D
:101970000201096844F6243201F00F01C0F60002AA
:10198000515CC84040F20801C2F20001086080BD0D
:1019900080B5FFF7C4F944F21841C5F602010A68A0
:1019A00044F6243302F00F02C0F600039A5CD040E4
:1019B00040F20802C2F2000210604968C1F302114D
:1019C000595CC84080BD80B5FFF7A9F944F21841C1
:1019D000C5F602010A6844F6243302F00F02C0F68D
:1019E00000039A5CD04040F20802C2F2000210608C
:1019F0004968C1F30221595CC84080BD44F20041EE
:101A0000C5F602010869C0F3C20240F60010032ABD
:101A1000C0F23D000FD0022A31D0002A5DD1086803
:101A2000800649F20000C0F2D03056D50968C1F3F3
:101A3000C101C840704780B5D1F828E08A6AC2F376
:101A4000051CCA6A4B6B02F00102C3F3CC035A4374
:101A50000EF0030300EE102A022BB8EE400ABDE898
:101A6000804011D0A3B90868800649F20000C0F296
:101A7000D0300DD50A68C2F3C102D04008E047F665
:101A80004000C0F27D10704747F64000C0F27D1064
:101A9000B0FBFCF09FED113A01EE100AB8EE411ACE
:101AA000086B6FF35F2002EE100AB8EE422A086B53
:101AB000C0F3462000EE032AB7EE000A013032EEF2
:101AC000000A20EE010A01EE100AB8EE411A80EE7B
:101AD000010ABCEEC00A10EE100A7047000000397F
:101AE000F0B581B00446007844F20046C007C5F660
:101AF000020652D0306900F03800102806D1306854
:101B000080034AD56068002847D128E1306900F099
:101B10003800182804D1B06A00F003000228EED083
:101B2000606868B1B0F5803F06D0B0F5A02F30688E
:101B30001DD140F480203060306840F480301CE0DB
:101B4000306820F480303060306820F480203060CD
:101B5000FFF703F8054641F2883700BF306880037D
:101B60001BD5FEF7FAFF401BB842F7D90BE120F472
:101B700080303060306820F480203060FEF7EDFF68
:101B8000054641F2883700BF3068800305D4FEF770
:101B9000E4FF401BB842F7D9F5E02078800750D524
:101BA000306910F0380F1CD0306900F03800182868
:101BB00004BFB06A5FEA807013D0E0680028316823
:101BC0002FD021F0190108433060FEF7C6FF05460B
:101BD000306840071DD4FEF7C0FF401B0228F7D92C
:101BE000D1E030684007E06802D5002800F0B780F7
:101BF000316821F0190108433060FEF7AEFF054659
:101C00003068400705D4FEF7A8FF401B0228F7D92B
:101C1000B9E0706820F47C30216940EA01307060DE
:101C20000FE021F001003060FEF797FF054600BF8E
:101C30003068400705D5FEF790FF401B0228F7D912
:101C4000A1E02078C00631D5306900F038000828BE
:101C500006D13068C00522D5E06980281FD07EE01B
:101C6000306900F03800182804D1B06A00F0030091
:101C70000128EED0E0690028306800F0B98040F01B
:101C800080003060FEF769FF054600BF3068C00580
:101C900005D4FEF762FF401B0228F7D973E0706895
:101CA00020F0F840216A40EA8160706020780007E7
:101CB00023D560690028706F0FD040F00100706775
:101CC000FEF74BFF054600BF706F800715D4FEF787
:101CD00044FF401B0228F7D955E020F0010070674F
:101CE000FEF73BFF054600BF706F800705D5FEF786
:101CF00034FF401B0228F7D945E02078800622D522
:101D0000A069002830680ED040F480503060FEF7A3
:101D100024FF05463068800415D4FEF71EFF401BE3
:101D20000228F7D92FE020F480503060FEF715FF2D
:101D3000054600BF3068800405D5FEF70EFF401B46
:101D40000228F7D91FE0207840070AD4656A002DE1
:101D500000F0D780306900F03800182826D1012023
:101D600012E0D6F8000440F48070C6F80004FEF7D4
:101D7000F4FE0546D6F80004C00507D4FEF7EDFED4
:101D8000401B6428F6D9032001B0F0BDA0680028EC
:101D900040D0012806D00528306F40F0B48040F0D4
:101DA00004003067306F40F00100B2E0306820F08E
:101DB00080703060FEF7D1FE022D05460CD100BFC9
:101DC0003068800140D5FEF7C8FE401B02284FF066
:101DD0000300F5D9D8E700BF3068800140F1918059
:101DE000FEF7BBFE401B03284FF00300F4D3CBE704
:101DF00020F080003060FEF7B0FE05463068C00578
:101E00007FF554AFFEF7A9FE401B02284FF00300F8
:101E1000F4D9B9E7306F20F001003067306F20F05F
:101E200004003067FEF799FE054641F2883700BF8F
:101E3000306F80077FF58AAFFEF78FFE401BB842F8
:101E40004FF00300F4D99FE7B06A40F2F3318843C2
:101E5000A16A226B0843511E626B4FF47E4303EB71
:101E60004222E36A6FF35F2192B240EA0310B0624C
:101E70005018A16B4FF4FE0202EB014101F4FE0188
:101E80000844E16B4FF0FE4202EB016101F0FE41BC
:101E9000084430634FF6F871706B8843A16C40EAD8
:101EA000C1007063F06A20F00C00216C0843F062FE
:101EB000F06A20F00200616C0843F062F06A40F4BE
:101EC0008030F062F06A40F40030F062F06A40F472
:101ED0008020F062F06A40F00100F062306840F06B
:101EE00080703060FEF739FE044600BF3068800124
:101EF00007D4FEF732FE001B02284FF00300F5D98D
:101F000042E7002040E720F001003067306F20F00A
:101F100004003067FEF721FE054641F2883700BF16
:101F2000306F80073FF512AFFEF717FE401BB84237
:101F30004FF00300F4D927E770B370B5044690F86A
:101F4000450015460E4628B9002084F84400204676
:101F500000F024F8206804F10801FEF7BAFC2068BC
:101F60003146A268FEF7F8FCD4E90102E36A29468B
:101F7000FEF78AFC2068A16850F8212042F0010297
:101F800040F8212044F20000C5F20020016841F031
:101F900000410160002070BD012070477047411E64
:101FA0000020B0EB116F01D0012070474EF21002FB
:101FB000CEF2000251604EF62351CEF20001F02322
:101FC0000B700721906011607047B0B110B50446E6
:101FD00090F83D0028B9002084F83C00204600F02D
:101FE0000EF8022084F83D00211D206800F020FB3F
:101FF000012084F83D00002010BD0120704770478B
:10200000022280F83D20014600680123028842F048
:1020100001020280002081F83D30704710B5B0B158
:10202000044690F8790028B9002084F8780020460A
:1020300000F026F8242084F879002068016821F057
:1020400001010160204600F011FC012801D10120AE
:1020500010BD606B10B1204600F072FB2068416833
:1020600021F490414160816821F02A01816001687A
:1020700041F0010101602046BDE8104000F0C3BB03
:10208000704740F26001C2F200010968084018BFC1
:1020900001207047002906D040F26001C2F2000121
:1020A0000968084306E040F26001C2F200010968D5
:1020B00021EA000040F26001C2F2000108600868F5
:1020C00041F20001C6F20001086070474EF624524A
:1020D000CEF200029168B1F1FF3F55DD10B540F23C
:1020E000180C1168C2F2000CCCF8201041F21C034D
:1020F0001179C4F201030FF2A00E8CF8241051796B
:10210000CCF828105169CCF82C10D188ACF83010DC
:102110009168CCF83410D168CCF83810916900225D
:10212000CCF83C101EF80210998100BF19684906CE
:10213000FCD50132292AF5D140F25C02C2F200023C
:102140000021116011680029FCD090E80A40C468A1
:10215000CCF80010CCF80430CCF808E0CCF80C40F7
:102160000169CCF810104169CCF814108169CCF8E1
:102170001810C069CCF81C0000201060BDE81040A9
:1021800010680028FCD07047916841F000419160D0
:1021900081690231816170470D0A456E7465722054
:1021A000486172644661756C745F48616E646C6509
:1021B000722C2053797374656D2048616C742E0DF8
:1021C0000A000000072826D8B0B544F65C3C00227F
:1021D000FF21C0F6000C00230CEBC20E5CF832406D
:1021E000BEF8045024692C409EF8065018BF012404
:1021F000651B08BF1146B5FA85F56D090132082A3D
:102200002B44E9D183F0010248401043C0B2B0FA38
:1022100080F04009B0BD092811D008281FD141F62F
:102220001040C5F60200D0F80004C00517D440F6EF
:102230001000C5F60200006880040ED50FE040F6DD
:102240001000C5F602000068800408D441F6104072
:10225000C5F602000068C00601D4012070470020C6
:1022600070470000FEE7704770470000F0B581B08E
:1022700044F20047C5F60207BA6A02F00302032AD5
:1022800001D1012063E00546386820F080600C46EB
:102290003860FEF762FC06463868000105D5FEF797
:1022A0005CFC801B0228F7D94EE0B86A4FF47E43ED
:1022B000696820F47C30AA68013903EB42222B685C
:1022C0006FF35F2192B240EA03301144EA684FF4A1
:1022D000FE03B86203EB024202F4FE028818296989
:1022E0004FF0FE4202EB016101F0FE410844B86389
:1022F000002CF86A20F0C000696940EA0100F86229
:10230000F86A20F02000A96940EA0100F86205D0CF
:10231000012CF86A06D140F4801005E0F86A40F418
:10232000002001E040F40010F862386840F080605E
:102330003860FEF712FC04463868000106D4FEF748
:102340000CFC001B0328F7D3032000E0002001B0A1
:10235000F0BD0000F0B581B044F20047C5F60207B9
:10236000BA6A02F00302032A01D1012063E00546A4
:10237000386820F080500C463860FEF7EEFB0646C9
:102380003868800005D5FEF7E8FB801B0228F7D9E6
:102390004EE0B86A4FF47E43696820F07C70AA680A
:1023A000013903EB42222B686FF35F2192B240EABE
:1023B00003501144EA684FF4FE03B86203EB024293
:1023C00002F4FE02881829694FF0FE4202EB016117
:1023D00001F0FE4108443864002CF86A20F44060A3
:1023E000696940EA0100F862F86A20F40070A9699E
:1023F00040EA0100F86205D0012CF86A06D140F4E9
:10240000000005E0F86A40F4800001E040F08070D0
:10241000F862386840F080503860FEF79EFB044652
:102420003868800006D4FEF798FB001B0328F7D31A
:10243000032000E0002001B0F0BD80B586B044F27A
:10244000E040C5F60200016841F00201016001A907
:10245000006800F002000190019801200290002025
:102460000390032004900420019040F20040C5F640
:102470000200FEF7A9FA06B080BD704780B5FEF7EE
:1024800072FB41F2C000C2F20000007818B1BDE852
:10249000804000F001B880BD41F2B810C2F20000E7
:1024A000016849B101680139016005D141F2B410F8
:1024B000C2F200000121017041F284110020C2F239
:1024C00000014FF0010C00BF0B185A6852B15A6856
:1024D000013A5A6006D183F801C00A5C012A01D191
:1024E0009A685A600C303028EED141F26400C2F292
:1024F000000001686FF00042013101600168914203
:1025000001D10021016080B501F01EFC40F25800AD
:10251000C2F2000001780131CAB201700A2ABDE896
:10252000804038BF70470021017001F00BBC4EF6AF
:10253000085CCEF2000CDCF880104EF67F5041F4BF
:102540007001CCF8801044F20041C5F602010A681F
:10255000CEF6F62042F001020A6000220A610B6802
:10256000184008608A61CA610A628A62CA620A63A4
:102570004A638A63CA630A644A64086820F4802054
:10258000086048F208100A66C5F2001001210160D7
:102590004FF00060CCF80000704710B50C24C4F276
:1025A000000460682168084080070BD54FF6FD7075
:1025B000606021680840206041F2C400C2F200005F
:1025C0000068804760682168084040070BD54FF6D7
:1025D000FB70606021680840206041F2C800C2F2D0
:1025E00000000068804760682168084000070BD53C
:1025F0004FF6F770606021680840206041F2CC001F
:10260000C2F2000000688047606821680840C00688
:102610000DD54FF6EF70606021680840206041F2F0
:10262000D000C2F200000068BDE81040004710BDB5
:10263000F0B540F6FF320388C4F2000240F2000E0B
:102640009042C4F2010E0FDCB0F1804F1AD040F27C
:102650000042C4F20002904214D040F60002C4F2DC
:10266000000290420ED044E040F60042C4F2000264
:10267000904207D040F20042C4F20102904201D0E1
:10268000704536D123F070024B6813430EF580423B
:10269000821AB2FA82F24FEA521C0EF588420EF507
:1026A0009044821A041BB2FA82F2B4FA84F45209FA
:1026B000640923F44073CD682B4323F080034E69F3
:1026C0000D6833438F68002C0380C762058508BFFF
:1026D000002A05D170451CBF0EF58062904204D1DE
:1026E0000969018601214161F0BDBCF1000FF9D0FB
:1026F000F6E70EF58042821AB2FA82F24FEA521CD5
:102700000EF588420EF59044821A041B44F200052F
:10271000B2FA82F2B4FA84F4C4F201055209A84272
:102720004FEA5414C5D044F60005C4F20105A8428E
:10273000BFD044F20045C4F20105A842B9D0BCE7BD
:10274000416BCA0708D00268D0F838C0536823F438
:10275000003343EA0C0353608A0708D50268D0F8B7
:102760003CC0536823F4803343EA0C0353604A07A8
:1027700008D50268D0F840C0536823F4802343EAA8
:102780000C0353600A0708D50268D0F844C05368A8
:1027900023F4004343EA0C035360CA0608D50268D9
:1027A000D0F848C0936823F4805343EA0C03936045
:1027B0008A0608D50268D0F84CC0936823F4005309
:1027C00043EA0C0393604A0612D50268D0F850C061
:1027D0005368BCF5801F23F4801343EA0C03536055
:1027E00006D1536823F4C00C436D43EA0C035360D5
:1027F000090658BF70470168806D4A6822F40022BC
:10280000104348607047B0B582B000210446C167EC
:10281000FEF7A3F9216805460A6812070BD56FF089
:102820007E404FF400110090002220462B4600F01D
:1028300031FB70B92168086840070CD56FF07E4005
:102840004FF480010090002220462B4600F022FB2E
:1028500008B1032007E0202084F8790084F87A008A
:10286000002084F8780002B0B0BD00002DE9F043EC
:1028700087B081460068D9E90237D9F8281046F6B2
:10288000F314D9E904650B43D9F81CC0334302683B
:10289000CCF6FF742B43224043EA0C031A43026038
:1028A00040F600434268C5F6000322F440523A4322
:1028B00042609842D9F818701CBFD9F820201743FD
:1028C000B1F1005F04D1D9E90B12394341EA0207A3
:1028D0004FF2FF428168C1F2FF121140394381601B
:1028E00047F2FF77C16AC4F2000721F00F02D9F85E
:1028F000241044F200480A43C5F60208C262B842F6
:102900004FF0800725DD40F6FF72C4F201029042CD
:102910003FDD984200F0718041F20042C4F20102B2
:10292000904200F0778041F20002C4F2010290422E
:1029300040F0AB80D8F85420C2F3C207052F00F254
:102940009980DFE817F0720099009B009D009F00BE
:10295000A10044F6FF32C4F20002904233DC44F29C
:102960000042C4F20002904200F0618044F600028E
:10297000C4F20002904240F08880D8F8542002F05F
:102980000707052F00F27680DFE807F07276787A85
:102990007C7E47F60002C4F20002904200F05280B2
:1029A00047F60042C4F20002904240F06E80D8F830
:1029B000542002F00707052F00F25C80DFE807F0E3
:1029C000585C5E60626444F60042C4F200029042C9
:1029D00000F0438045F20002C4F20002904240F051
:1029E0005480D8F8542002F00707052F00F24280E7
:1029F000DFE807F03E424446484AD8F8582002F043
:102A00000707052F36D8DFE807F00337393B3D3F8E
:102A100002273AE0D8F85420C2F3C207052F29D87C
:102A2000DFE807F0032A2C2E303201272DE0D8F8FA
:102A3000542002F00707052F1CD8DFE807F0191D06
:102A40001F212325D8F8542002F00707052F11D89D
:102A5000DFE807F00E121416181AD8F8542002F006
:102A60000707052F06D8DFE807F00307090B0D0F4E
:102A700000270AE0802708E0042706E0402704E05A
:102A8000082702E0102700E02027984218D0BCF564
:102A9000004F32D101250F2F4FF000004EDC082FE0
:102AA00000F26E81DFE817F00900C6006C016C01CE
:102AB000D1006C016C016C01DE00FEF769FFBBE028
:102AC00040F600160F2FC0F23D064FF0010529DC3D
:102AD000022F5FD0042F60D0082F40F07681D8F805
:102AE0000000800649F20000C0F2D0305FD5D8F86F
:102AF0000010C1F3C101C84059E00F2F4FF001058C
:102B000032DC082F00F26181DFE817F00900BB001A
:102B10005F015F01C8005F015F015F01E100FEF737
:102B200037FFB0E0102F3ED0202F3ED0402F40F096
:102B30004C8101A8FEF798F9029832E0102F00F0BE
:102B4000D580202F00F0DF80402F40F0198101A8B0
:102B5000FEF78AF944F63431D9F82400C0F60001B2
:102B600031F810000299CBE0102F00F0DB80202F0D
:102B700000F0E380402F40F0288101A8FEF774F9AF
:102B800044F63431D9F82400C0F6000131F81000C1
:102B900002998FE0FEF7D9F803E004A8FEF7E6F803
:102BA000059820B910E1304601E04FF40040D9F813
:102BB0000420012502EB42018842C0F00681110386
:102BC000884200F202810F2F4FF001051CDC022F1A
:102BD00000F0FF80042F00F01481082F40F04F8197
:102BE000D8F80000800649F20000C0F2D03000F1B1
:102BF0002D8144F63433D9F82410C0F6000333F89D
:102C00001110B0FBF1F030E1102F00F0EF80202F19
:102C100000F00981402F40F0328101A8FEF724F92D
:102C200044F63431D9F82400C0F6000131F8100020
:102C30000299F2E0FEF7C7FE44F63432D9F82410C8
:102C4000C0F6000232F8111090E004A8FEF78EF8EA
:102C500044F63431D9F82400C0F6000131F81000F0
:102C600005994DE0D8F8000080066FD444F6343062
:102C7000C0F6000030F8110049F20001C0F2D03176
:102C80003EE0FEF7A0FE44F63432D9F82410C0F638
:102C9000000232F81110B0FBF1F00DE004A8FEF7CD
:102CA00065F844F63431D9F82400C0F6000131F853
:102CB00010000599B1FBF0F0D9F8041000EB5100B9
:102CC000B0FBF1F0D9F8001080B2C8607CE0D8F811
:102CD000002092065ED444F63432C0F6000232F888
:102CE000111049F20002C0F2D03263E044F63430F1
:102CF000C0F6000030F8110040F60011C0F23D01AE
:102D0000B1FBF0F034E044F63430C0F6000030F8A7
:102D100011004FF40041B1FBF0F0D9F8041042006B
:102D2000480829E044F63432C0F6000232F81110A7
:102D300040F60012C0F23D023CE044F63432C0F6E8
:102D4000000232F811104FF4004233E044F63432FE
:102D5000D8F80000C0F60002C0F3C10032F811102C
:102D600049F20002C0F2D03222FA00F0B0FBF1F0DA
:102D7000D9F8041040004A081044B0FBF1F00025D7
:102D80004FF6F071C0F3420208401044D9F8001029
:102D9000C8601AE044F63433D8F80020C0F60003C7
:102DA000C2F3C10233F8111049F20003C0F2D0336C
:102DB00023FA02F2B2FBF1F1D9F8042001EB52013F
:102DC000B1FBF2F189B2C1600025284607B0BDE829
:102DD000F083FDF7BAFF44F63432D9F82410C0F678
:102DE000000232F81110B0FBF1F018E044F6343173
:102DF000D9F82400C0F6000131F81000B6FBF0F05D
:102E00001DE004A8FDF7B2FF44F63431D9F82400E0
:102E1000C0F6000131F810000599B1FBF0F0010E89
:102E2000D9F8042022E044F63431D9F82400C0F661
:102E3000000131F810004FF40041B1FBF0F0000246
:102E400000EB5200B0FBF2F0002518E0D8F80010BB
:102E500044F63437C1F3C101D9F82430C0F6000775
:102E600037F81330C840B0FBF3F0010E000210EB4E
:102E7000520041F1000100230025FDF729FA4FF629
:102E8000FF42A0F54071C0F20F0291427FF67EAF83
:102E900001259AE72DE9F04381B004460068C7692F
:102EA0000D463940491BB1FA81F14F09974218D1BB
:102EB000DDF82080994608F1010600BF4EB1B8F157
:102EC000000F10D0FDF749FEA0EB09004045206837
:102ED00009D8C1692940491B18BF012197EA010F90
:102EE000ECD1002010E0016821F4D071016081680C
:102EF00021F001018160202084F8790084F87A00B3
:102F0000002084F87800032001B0BDE8F08341F28E
:102F10006800C2F2000000F006B841F29400C2F26C
:102F20000000AFF3008070B504460068C56906680C
:102F3000A906816816D5808CA168E28A8854E18A46
:102F40000131E1828AB2E1898A4224BF0022E28211
:102F5000628B8A4202D2618B01316183616A09B15D
:102F6000C0B2884706EA050001061FD5A18AA1B1B3
:102F7000012184F82810D4E90012638AD25C0A8502
:102F8000618A0131618289B2A289914224BF002104
:102F90006182A18A0139A18208E021680A6822F0D1
:102FA00080020A600A6842F040020A6040061FD5AB
:102FB000A08A88B1D4E90001628A895C0185608AAF
:102FC0000130608280B2A189884224BF00206082E3
:102FD000A08A0138A0820BE02168206A0A680028D4
:102FE00022F040020A6000D08047002084F82800C8
:102FF0002068016A41F001010162016A41F00201A9
:103000000162016A41F004010162016A41F00801B4
:103010000162016A41F010010162016A41F0400160
:103020000162016A41F480710162016A41F4007138
:103030000162016A41F400310162016A41F48011C8
:103040000162016A41F02001016270BDFEE70000EB
:103050009FED201AB5EE002A00EE012A9FED1E1A00
:10306000BDEEC20AB5EEC02AF1EE10FA10EE100A5B
:10307000B8BF013800EE100A0020B8EEC00A32EEE8
:10308000400A9FED162A20EE010ABCEEC01A11EE8E
:10309000101A30EE021AB0EB512F18BF002102EEC9
:1030A000101A44F69C3000FE010AC0F60000B8EE8B
:1030B000422A00EB810090ED011A30EE420AB7EE91
:1030C000002A32EE402A20EE010A90ED001A02EEAC
:1030D000010A704783F9223E00000044000000C44A
:1030E00000F500510AB2002AB8BFA0F5C04108B2ED
:1030F0004FF4FC4202EA412145F2A0328009C0F6B9
:10310000000202EB400332F91000C1F500425043C7
:10311000B3F902200023C7F6FF73184012FB010029
:103120006FF0010101EAD03000B2704710B500F134
:1031300000514FF600620029B8BF00F12041C7F6E8
:10314000FF7245F2A47C4FEA915E02EA4121C0F68B
:10315000000C5CF82E30C1F10042A3FB02040CEB22
:103160008E00DB17406803FB024251FB0020400049
:1031700010BD00009FED1F1A20EE010A9FED1F2ACF
:10318000BDEEC01AB5EEC00AF1EE10FA11EE100A4B
:10319000B8BF013801EE100A0020B8EEC11A30EEB7
:1031A000410A9FED151A20EE010ABCEEC01A11EE7D
:1031B000101A30EE021AB0EB512F18BF002102EEA8
:1031C000101A44F69C3000FE010AC0F60000B8EE6A
:1031D000422A00EB810090ED011A30EE420AB7EE70
:1031E000002A32EE402A20EE010A90ED001A02EE8B
:1031F000010A704783F9223E00000044000000C429
:103200004FF4FC42810902EA402045F2A032C0F6A8
:10321000000202EB410332F91110C0F500425143A4
:10322000B3F902200023C7F6FF73194012FB001008
:103230006FF0010101EAD03000B2704710B54FF6CF
:103240000062C7F6FF7245F2A47C810D02EA402EAF
:10325000C0F6000C5CF82130CEF10042A3FB020462
:103260000CEB8100D917406801FB02415EFB0010A6
:10327000400010BD012862DBB0B5B0FA80F34FF614
:10328000F77CC7F6FF7C1A466CF35F029FED2E1A9F
:1032900002EB030C00FA0CFE0FFA8EF24EF34E0313
:1032A00000EE102A45F6DF10C5F63770B8EEC00AFA
:1032B0004FF4405420EE010A9FED241A10EE102A1C
:1032C000A0EB620000EE100A20EE010ABDEEC00A7B
:1032D00010EE100A020400B2D213424312FB23F292
:1032E000A4EBE23250430022CFF6FC7202EAC000A7
:1032F0000514C013684310FB23F0A4EBE0306843CF
:1033000002EAC0000214C013504310FB23F0A4EBE8
:10331000E03050436FF00302C00002EA204010FB8F
:103320000EF080006FF0010202EA20400CEBDC722C
:10333000521040FA02F20020BDE8B04001E0FF2048
:10334000002240B20A80704700000038000080462A
:1033500001286DDB10B5B0FA80F262F0010303EBD7
:10336000020C00FA0CFE00EE10EA45F6DF129FEDAB
:10337000331AB8EEC00AC5F637724FEA6E0420EE73
:10338000010A9FED2F1A10EE103AA2EB630200EE35
:10339000102A20EE010ABDEEC00A10EE102A82FBB0
:1033A0000230400040EAD37080FB0403C00F40EAC3
:1033B0004300C0F1405080FB0202400F40EAC200CF
:1033C00020F0030080FB00235B0043EAD27282FB03
:1033D0000423D20F42EA4302C2F1405282FB0002B0
:1033E000400F40EAC20020F0030080FB00235B0096
:1033F00043EAD27282FB0423D20F42EA4302C2F1B3
:10340000405282FB0002400F40EAC20020F003005D
:1034100080FB0E02800F40EA82000CEBDC7220F091
:103420000100521040FA02F20020BDE8104001E015
:10343000FF20002240B20A60704700BF0000003049
:103440000000804E032801D90020704741F284110A
:1034500000EB4000C2F2000101EB800111F8010F06
:1034600001284FF0000004BF08700120704741F2AE
:103470007411C2F20001887ACA7A904201D1002008
:103480007047421C085CD3B2092B88BF00228A72A5
:1034900070477047F0B59DB04EF61455CEF200055A
:1034A000FDF7D5FB0120ADF808004FF01050039058
:1034B00012208DF810000020032700268DF81370CD
:1034C000C0F20110ADF8116002AC05902046FDF786
:1034D0008DFB40F20110ADF808004FF0C0400390A2
:1034E0000F208DF810004FF080708DF81370ADF83C
:1034F000116005902046FDF779FB0420FDF7B4FB31
:103500002868800311D4BFF34F8FBFF36F8FC5F8C6
:103510003C62BFF34F8FBFF36F8F286840F40030D9
:103520002860BFF34F8FBFF36F8F2868C00327D485
:103530000020286743F6E07CBFF34F8FE96EC1F3AC
:103540004E30C1F3C901CB438C0700BF0CEA4016D3
:103550002246194642EA06070131C5F84C7202F1CB
:103560004042F7D10028A0F10100EFD1BFF34F8F07
:10357000286840F480302860BFF34F8FBFF36F8F0F
:1035800044F60C04C5F60204FDF7FAFA15A820214A
:10359000FCF7D6FE02A84C21FCF7D2FE206820F0F2
:1035A0000400206000200190E06840F44040E060AA
:1035B000E06800F440400190019800BFE06880049A
:1035C000FCD5012002904FF48030039000240220AB
:1035D000059405210994CDE90B000D91A021CDE9B9
:1035E0000E10119004201090082502A81394129533
:1035F0001494FEF775FA3F201590032016A931C1E7
:1036000040204FF48061CDE91900CDE91B1015A8C9
:103610000421FEF7CDF844F20040C5F6020001682F
:1036200041F080010160D0F8F41041F00201C0F8CF
:10363000F410D0F8F40000F0020001900198FDF7BA
:10364000BAF900F019F900F0A1F900F0D6F900F08C
:1036500005F800F083F91DB0F0BD00002DE9F04140
:103660009AB044F2E040C5F602000168022641F03B
:10367000080101604FF001080168032701F008010B
:10368000079140F600450799C5F60205016807ACA9
:1036900041F010010160016801F0100107910799E4
:1036A000016841F040010160016801F040010791AB
:1036B0000799016841F080010160016801F0800113
:1036C00007910799016841F480710160016801F474
:1036D00080710791079950F80C1C41F4805140F813
:1036E0000C1C214650F80C0C00F4805007900798F1
:1036F0000C200896CDF824800A970B904CF2B370FA
:1037000007902846FDF760F94FF68070079005F5A1
:1037100080602146FDF758F905F54060079721467E
:10372000FDF752F94FF47F40079005F58050214690
:10373000FDF74AF940F2CF60079005F5A050214609
:10374000FDF742F944F200010020C5F20021CDE965
:103750001800CDE91600079101F582710891052145
:10376000CDE900162021CDE90268CDE90466069076
:10377000CDE909000B90CDE90C10CDE90E004FF416
:103780008050109004F128001421FCF7D9FD6946FF
:1037900020460A46FEF7D0FB20B10AA04FF49171F3
:1037A000FDF76EF840F26000C2F2000040F61471BE
:1037B000016041F200010068C6F2000108601AB021
:1037C000BDE8F0812E2E2F2E2E2F557365722F629D
:1037D00073702F7372632F6273705F666D635F69BE
:1037E0006F2E630010B592B002AC04F11C002421CE
:1037F000FCF7A6FD44F2E840C5F6020001684FF070
:10380000804241F0010101604DF683610068C4F21D
:103810001B3100F001000190019840F20400C2F257
:1038200000000068A0FB01014FF0FF3000EBD14128
:1038300089B2CDE90221059000200490CDE906006F
:10384000802008902046FEF7C0FB38B146F2612088
:10385000C0F600004FF40C71FDF712F81C20002197
:103860000222FDF721FA1C20FDF70FFA02A8FEF74D
:10387000C7FB12B010BD000070B586B041F27410E5
:103880000021C2F2000041816422017341F2D400A0
:103890000223C2F20000002685191036AA60A02E6D
:1038A0002B712973F8D1642106220187A0F83B20EF
:1038B00044F65C36A0F848100025A0F84B20C0F66E
:1038C0000006A0F8581001ACA0F85B20A0F8681022
:1038D000A0F86B2044F2E040C5F60200016841F018
:1038E00002010160016801F0020101910199016882
:1038F00041F004010160016801F0040101910199A6
:10390000016841F040010160016801F0400101914E
:103910000199016841F080010160016801F08001B6
:1039200001910199016841F480710160006800F41F
:103930008070019001980320CDE90255049000BFEA
:1039400006EBC50080882146019056F83500FDF74A
:103950003BF80135082DF3D106B070BD80B54FF4AA
:1039600080700121FEF796FB4FF400700121FEF7F5
:1039700091FB4FF480600121FEF78CFB4FF4006057
:103980000121BDE88040FEF785BB000041F28411B3
:103990000020C2F2000100228B1858609860587015
:1039A00088540C32302AF7D140F20400C2F20000F1
:1039B00044F6D3510068C1F26201A0FB01014FF04F
:1039C000FF3000EB91110020B0EB116F0DD14EF2E2
:1039D0001002CEF2000251604EF62351CEF20001E9
:1039E000F0230B7090600720106041F2C000C2F21B
:1039F000000001210170FFF7F5BE2DE9F04FB5B0D1
:103A000041F2680141F2000440F66400C2F2000194
:103A1000C4F20104C2F200000C6040F2640248608B
:103A2000C2F200024FF004230020C1E90223088201
:103A300040F66442488240F26447C88204F58069D7
:103A40000883C2F200024883C2F20007888201267E
:103A500081F82800C1E90700486241F29401C2F2EE
:103A60000001C1F80090C1E90127CB6008824882BB
:103A7000C88208834883888281F82800C1E907004A
:103A80004862012101911F9001A8FDF76BFA44F2F1
:103A9000E045C5F6020528684FF0020B40F0010032
:103AA000286000272868C5F6020700F00100309062
:103AB0004FF0030830984FF0070A286840F00100E3
:103AC0002860286800F0010030903098286940F0A4
:103AD00010002861286900F01000309030984FF4F1
:103AE000007030903846CDE931B630AECDF8CC809C
:103AF0003146CDF8D0A0FCF767FF4FF480603090DE
:103B000038463146CDF8D0A0FCF75EFF25200021D5
:103B10000122FDF7C9F82520FDF7B7F84FF4E13190
:103B200000220C23204600F010F9206A32A940F050
:103B300040002062208B40F008002083206840F085
:103B400020002060286840F040002860286800F0CD
:103B5000400000900098286840F004002860286821
:103B600000F0040000900098286940F020002861CF
:103B7000286900F02000009000984FF48040CDE9C3
:103B8000300B012081E8010507F5C0503146FCF7F4
:103B90001BFF8020309007F500603146CDF8D0A0A3
:103BA000FCF712FF472000210622FDF77DF8472091
:103BB000FDF76BF84FF4E13100220C23484600F08A
:103BC000C4F8D4F8200440F04000C4F82004B4F84D
:103BD000180440F00800A4F81804D4F8000440F0D9
:103BE0002000C4F80004FEF728FC35B0BDE8F08FD3
:103BF0002DE9F04741F2D40641F2741A00244FF047
:103C000005094FF001080027C2F20006C2F2000ABF
:103C100000251BE0C87A002874D00A7B0132D3B299
:103C20000A7383426ED39AF80B0005EB450201320A
:103C30000C730AF800209AF80B000130C2B2092A6E
:103C400088BF00208AF80B005CE000BFE8B2FEF7F6
:103C5000B9FAF1190A7928B1042A09D881F804902F
:103C600050E000BF062A08D381F8049048E000BF66
:103C7000092A06D8501C087144E06AB3501E087126
:103C80003EE0887A88B99AF80B0005EB45020132CC
:103C900081F80A800AF800209AF80B000130C2B2BD
:103CA000092A88BF00208AF80B00088950B3CA8807
:103CB0008242AFD2013293B2CA80834222D19AF8B3
:103CC0000B0005EB450103310AF800109AF80B00D0
:103CD0000130C1B20929B3E7887A012810D19AF8D6
:103CE0000B0005EB450202328C720AF800209AF8AC
:103CF0000B000130C2B2092A88BF00208AF80B00ED
:103D0000CC800C731037A02F05F101059ED1BDE8C2
:103D1000F08710B50138C1B203290CD840B244F67F
:103D20004C31C0F6000151F820402046FEF7A9F9B9
:103D300010B1002101E010BD01212046BDE8104076
:103D4000FEF7A8B9FFF754BF704710B5A0B0CDE992
:103D5000000100206C46CDE9020004921C2106906F
:103D600004F11C000593FCF7EBFA2046FEF756F928
:103D700038B146F28020C0F6000040F22731FCF74F
:103D80007FFD20B010BD000004280ED380B546F2A0
:103D9000412046F26121C0F60000C0F600010DA2EC
:103DA00000F034FABDE88040FEE741F2841300EBF6
:103DB0004000C2F2000303EB80024FF0010C8CF3D1
:103DC0001088516091600021517003F820C081F388
:103DD000108870476273705F5374617274417574B8
:103DE0006F54696D657200002DE9F04182B0144690
:103DF0008846FCF721FD002845D00646C06900B181
:103E00008047002C3AD000200121002281F3108845
:103E1000B38AADF8063080F3108812E0BDF8065082
:103E20009D4207D133681D682D0603D41D6845F0F7
:103E300080051D6081F31088B38AADF8063080F3E9
:103E40001088BDF80650B3899D42E7D218F80230B9
:103E500001327568378AEB5581F31088338A013354
:103E600033829BB2B789BB4228BF3082B38AA24259
:103E700003F10103B38280F31088C7D13068016871
:103E800041F08001016002B0BDE8F08110B582B060
:103E900004468DF807000DF1070100200122FFF70D
:103EA000A3FF204602B010BD82B0FFF7F3FA46F23E
:103EB0005B04C0F60004204600F0A8F94EF60000AE
:103EC000C1F6F17005684DF683614668C4F21B3196
:103ED000876840F20400C2F200000068A0FB010104
:103EE00046F22C00890CC0F6000000F08FF946F273
:103EF0009B00C0F60000394632462B4600F086F99A
:103F000095A000F083F9204600F080F946F21400F5
:103F100046F21321C0F60000C0F6000100F076F969
:103F200045F6FC70C0F600008CA100F06FF945F674
:103F3000E47046F20821C0F60000C0F6000100F06F
:103F400065F946F20310C0F6000000F0D9FD84A028
:103F500000F0D6FD46F2B200C0F6000000F0D0FD41
:103F600080A000F0CDFD46F2C900C0F6000000F0D0
:103F7000C7FD46F2E300C0F6000000F0C1FD46F2C6
:103F8000BC10C0F6000000F0BBFD46F2DC10C0F62D
:103F9000000000F0B5FD204600F038F976A000F0F2
:103FA000AFFD46F27510C0F6000000F0A9FD76A046
:103FB00000F0A6FD7DA000F0A3FD84A000F0A0FD10
:103FC00000206421FFF7E0FE45F6DF7546F2341667
:103FD00045F6CB7745F6A87B45F6D0799FED848AE8
:103FE0009FED849AC0F60005C0F60006C0F60007F3
:103FF000EA46C0F6000B9FED56ABC0F6000900BFC5
:10400000FFF747FA0020FFF71DFA10B10220FFF773
:1040100080FEFFF72CFA01283DD0072878D004282D
:10402000EED1002400EE104AB8EE400A20EE080A55
:1040300020EE090AFFF79EF8B7EEC00A284653ECB7
:10404000102B00F0E3F80134B4F5807FEAD330465A
:1040500000F056FD002400BFE00100B2FFF7D0F8E9
:104060000146384600F0D2F80134A0B2B0F5807FA6
:10407000F2D3304600F044FD002400BF2046FFF795
:10408000DDF80146384600F0C1F804F50004B4F14B
:10409000004FF3D138E0002400EE104AB8EE400A99
:1040A00020EE080A20EE090AFEF7D2FFB7EEC00A9A
:1040B000284653EC102B00F0A9F80134B4F5807FAA
:1040C000EAD3304600F01CFD002400BFE00100B23E
:1040D000FFF706F80146384600F098F80134A0B220
:1040E000B0F5807FF2D3304600F00AFD4FF00008B3
:1040F0004046FFF71BF80146384600F087F808F500
:104100000008B8F1004FF3D1304600F0F9FC77E732
:104110004FF47A700DF10601FFF7ACF8BDF9061007
:1041200045F6BC70C0F6000000F070F84FF47A70ED
:104130005146FFF70DF90099584600F067F853EC27
:104140001A2B484600F062F85AE700BF00BF00BFD4
:10415000000000406E9F3F400A0D0000312E3000ED
:104160002A200D002A20E697BAE697BA20203A20A6
:1041700061726D666C790D00E6938DE4BD9CE68FEF
:1041800090E7A4BA3A0D0000322E20E68C89E4B8FC
:104190008BE68C89E994AE4B312C20445350E6B128
:1041A00082436F73696E650D00000000332E20E6B8
:1041B0008C89E4B88BE68C89E994AE4B322C204490
:1041C0005350E6B18253696E650D0000342E20E62F
:1041D0008C89E4B88BE68C89E994AE4B332C20446F
:1041E0005350E6B182E5B9B3E696B9E6A0B90D0041
:1041F000DB0F49400000003C1EF0040F0CBFEFF342
:104200000880EFF30980FDF761BF00000FB4054B94
:1042100010B503A9044A029800F0DAF810BC5DF862
:1042200014FB00008D3E00080000002002E008C8DA
:10423000121F08C1002AFAD170477047002001E020
:1042400001C1121F002AFBD1704700002DE9FF5F5A
:1042500082B00021DDE90430020DDDF840B00343F7
:1042600018D044F61050A2F2FF32424315141198B0
:1042700001281FD0A5EB0B00401C5FEA000A4FF09D
:1042800000064E4FDFF83891B046504615D5CAF1BA
:10429000000413E0119801244AA3012801D16FEA18
:1042A0000B010298119AC0E90031C0E9024206B040
:1042B000BDE8F09FCBF10000DFE704460021404A53
:1042C000491842EB0450CDE9001012E0E00707D096
:1042D00032463B4640464946FCF719F98046894636
:1042E00032463B4610461946FCF711F906460F4682
:1042F0006410002CEAD1DDE90401DDE90023BAF104
:10430000000F06DAFCF703F942464B46FCF7FFF8CC
:1043100005E0FCF76EF942464B46FCF76AF90446A5
:104320000E460022284BFCF7EBF903D84FF0FF3084
:10433000014607E00022254B20463146FCF740F8B5
:10434000FCF7C6F9102409E0002C0ADB0A2200233E
:10435000FBF7BEFF039B30321A55641E50EA010280
:10436000F2D1641C039AC4F111031444119A012A76
:1043700003D0012208430DD10AE0084304D00020F5
:104380004FF0110B119072E7A3EB0B056D1E0DE0C2
:104390005B4504DD4FF0000205F1010504E003DA9E
:1043A0004FF00002A5F10105002AECD00298119906
:1043B000C0E90231C0E9004579E70000000014407F
:1043C0000000F03F300000000000F0430000E03F3C
:1043D0002DE9FF4F95B09B468946064600250FE222
:1043E000252877D100242746F84A0121059400E0CA
:1043F000044316F8013F203B01FA03F01042F7D1C5
:1044000030782A2811D06FF02F033078A0F13002D5
:10441000092A16D8059A44F0020402EB820203EB43
:1044200042021044761C0590EFE759F8042B0592E0
:10443000002A03DA504244F40054059044F0020488
:10444000761C30782E2816D116F8010F44F004049B
:104450002A280DD06FF02F023078A0F13003092BFD
:1044600009D807EB870302EB4303C718761CF3E771
:1044700059F8047B761C30786C280FD006DC4C2869
:1044800017D068280DD06A2814D104E0742810D001
:104490007A280FD10DE044F400140AE044F48014AB
:1044A00001E044F440147278824202D104F5801491
:1044B000761C761C307866280BD013DC582877D011
:1044C00009DC002875D04528F6D04628F4D04728C6
:1044D0001AD19DE118E0632835D0642879D0652889
:1044E00012D195E1702873D008DC6728F1D06928D3
:1044F0006FD06E280DD06F2806D1B5E073282CD070
:10450000752875D0782874D05A46179990476D1C35
:1045100075E1C4F30250022809D003280DD0D9F860
:10452000001004280DD00D6009F1040967E1D9F8E5
:104530000010EA17C1E90052F6E7D9F800100D8023
:10454000F2E70D70F0E719F8041B8DF80010002059
:104550008DF80100EA46012003E059F804AB4FF062
:10456000FF3061074FF0000102D40DE008F10101B6
:104570008846B9420FDA8045F8DB1AF8081000299E
:10458000F4D108E008F1010188468142FADB1AF80B
:1045900008100029F6D105985B46A0EB08072146D4
:1045A0003846179A00F094FA284400EB080507E013
:1045B0004DE029E10DE01AF8010B5A461799904792
:1045C000B8F10108F7D25B4621463846179A13E145
:1045D00042E00A220092C4F302524FF0000A022A7B
:1045E00008D059F804CB032A4FEAEC710AD00DE049
:1045F00029E02AE009F1070121F00702F2E802C1EF
:10460000914609E00FFA8CFC4FEAEC71042A03D1C1
:104610004FFA8CFC4FEAEC71002907DA0A460021B8
:10462000DCF1000C61EB02012D2202E0220504D531
:104630002B228DF80420012203E0E20701D0202282
:10464000F7E7904659E00A2102E010220DE0102120
:104650004FF0000A00910BE010224FF0000A44F0E6
:1046600004040827009203E008224FF0000A009299
:10467000C4F30252022A05D059F804CB0021032AC0
:1046800008D009E009F1070121F00702F2E802C1B0
:10469000914605E01FFA8CFC042A01D10CF0FF0CB6
:1046A0004FF00008220728D5702806D0009B83F021
:1046B000100353EA0A0305D00EE040228DF80420CF
:1046C000012208E05CEA010206D030228DF80420C5
:1046D0008DF8050002229046009B83F0080353EA00
:1046E0000A030AD15CEA010201D1620705D5302232
:1046F0008DF804204FF001087F1E582804D034A004
:1047000003900EA802900DE036A0F9E753466046EC
:10471000009AFBF7DDFD84460398825C0298401EF8
:10472000029002705CEA0100F0D1029806A9081A12
:1047300000F1200A600702D524F4803400E001274C
:10474000574502DDA7EB0A0000E0002000EB0A015C
:10475000009005984144401A0590E00306D45B465A
:104760002146179A059800F0B3F90544002706E0A2
:1047700001A85A46C05D179990476D1C7F1C47459C
:10478000F6DBE0030CD55B462146179A059800F04E
:104790009FF9054404E030205A46179990476D1C54
:1047A0000099481E00900029F5DC08E00298029963
:1047B0005A460078491C0291179990476D1CBAF12E
:1047C0000001AAF1010AF1DC65E1000009280100FD
:1047D0003031323334353637383961626364656677
:1047E0000000000030313233343536373839414239
:1047F000434445460000000000F058F90544761C8B
:10480000307800287FF4ECAD19B02846BDE8F08F71
:10481000620700D4062709F1070222F0070CFCE822
:104820000223E14603F000485FEA080C02D00FF2D1
:10483000702C0DE05FEA045C02D50FF2682C07E0F3
:104840005FEAC47C02D00FF2602C01E0AFF2700C82
:104850004FF0FF3823F00043CDF850C065280CD04E
:1048600006DC452809D046281DD047283DD13DE02B
:10487000662818D067287ED138E00021112F01DB8F
:10488000112000E0781CCDE9000106A90EA8FFF771
:10489000DDFCDDE90F010E9A03910021009207F182
:1048A000010A04914DE04FF000400097CDE901105E
:1048B00006A90EA8FFF7CAFCDDE90F0203920E9BC2
:1048C00011990022DDF80CA00093049211B9791C13
:1048D00000EB010AB7EB0A0004D4C0F1FF3007F186
:1048E000010A0490AAEB0700019044E0012F00DACE
:1048F00001270021112F01DD112000E03846CDE90C
:10490000000106A90EA8FFF7A1FCDDE90F010E9A30
:104910000391002104910092BA4621070CD4039917
:10492000514500DA8A46BAF1010F05DD009AAAF175
:104930000101515C302908D0B84202DA10F1040FAD
:1049400006DA0121CDE9011015E0AAF10101E9E73C
:10495000002805DC049901440491AAEB000102E05F
:10496000411C514500DD8A460499401A401C0190C3
:104970004FF000400290200704D40198504501DB1D
:10498000CDF8048000208DF84F0002980DF14F07FC
:10499000B0F1004F25D02B200E9002984FF0020866
:1049A00000280CDA404202902D200E9007E00A21E8
:1049B0000298FBF7D0FC3031029007F8011DB8F1E6
:1049C0000001A8F10108F2DC02980028EFD1791E5D
:1049D0000E980870307800F0200040F0450007F88D
:1049E000020D12A8C01B00F107081498007800B14E
:1049F000012000EB0A01019801EBE07105984144A8
:104A0000401A401E0590E00306D45B462146179AE3
:104A1000059800F05DF805441498007818B15A46DE
:104A2000179990476D1CE00324D55B462146179AE1
:104A3000059800F04DF805441CE00498002807DBB9
:104A4000DDE90301884203DD0098405C179901E02D
:104A5000179930205A469047049805F10105401CEB
:104A600004900198401E019004D12E205A461799B7
:104A700090476D1CBAF10001AAF1010ADDDC05E0E6
:104A800017F8010B5A46179990476D1CB8F10001B1
:104A9000A8F10108F4DC5B462146179A0598ABE6BD
:104AA0002D0000002B000000200000002DE9F04147
:104AB000044600251E461746880404D405E03946FE
:104AC0002020B0476D1C641EF9D52846BDE8F08152
:104AD0002DE9F041044600251E469046C80301D545
:104AE000302700E02027880404D505E041463846F9
:104AF000B0476D1C641EF9D52846BDE8F081000062
:104B000010B5044601E0FFF7C1F914F8010B0449A0
:104B10000028F8D1BDE810400A20FFF7B7B900001F
:104B20000000002000000000010203040102030451
:104B300006070809010002000400060008000A0038
:104B40000C00100020004000800000010001000067
:104B500000020000000400000008000000200258CD
:104B6000000100000008025800200000001C02584C
:104B70001000000000180258040000000004025851
:104B80000100000000180258080000000018025838
:104B90008000000000200258000800000000000013
:104BA000920E493CB10AC93C2BC3163D2EFB483D31
:104BB000752B7B3D04A9963D80B6AF3D36BDC83D03
:104BC0002FBCE13D73B2FA3D87CF093E8340163ECC
:104BD000B5AB223EA2102F3ECF6E3B3EC2C5473E34
:104BE0000115543E135C603E7F9A6C3ECCCF783EFC
:104BF000C07D823E938E883E229A8E3E32A0943EA5
:104C000086A09A3EE59AA03E128FA63ED47CAC3E8A
:104C1000EF63B23E2A44B83E491DBE3E15EFC33E87
:104C200053B9C93ECA7BCF3E4136D53E80E8DA3E15
:104C30004F92E03E7533E63EBBCBEB3EEA5AF13E87
:104C4000CBE0F63E275DFC3EE4E7003F3D9C033FA2
:104C5000824B063F9BF5083F6B9A0B3FDA390E3FBC
:104C6000CDD3103F2A68133FD9F6153FC07F183FB8
:104C7000C6021B3FD17F1D3FCBF61F3F9967223FE6
:104C800025D2243F5636273F1594293F4AEB2B3F28
:104C9000DE3B2E3FBB85303FC9C8323FF304353F72
:104CA000233A373F4268393F3B8F3B3FF9AE3D3FA8
:104CB00067C73F3F70D8413F01E2433F03E4453FB0
:104CC00065DE473F12D1493FF8BB4B3F029F4D3F46
:104CD000207A4F3F3D4D513F4918533F31DB543F00
:104CE000E595563F5348583F6AF2593F1A945B3F47
:104CF000532D5D3F05BE5E3F2146603F97C5613F36
:104D00005A3C633F59AA643F880F663FD86B673FA0
:104D10003CBF683FA7096A3F0C4B6B3F5E836C3F0B
:104D200093B26D3F9ED86E3F73F56F3F0809713F98
:104D30005213723F4714733FDD0B743F0BFA743FFD
:104D4000C6DE753F07BA763FC58B773FF853783F8D
:104D50009812793F9DC7793F02737A3FBE147B3F1B
:104D6000CDAC7B3F283B7C3FC9BF7C3FAC3A7D3F0D
:104D7000CCAB7D3F23137E3FB0707E3F6DC47E3F42
:104D8000580E7F3F6D4E7F3FAB847F3F0FB17F3F1B
:104D900097D37F3F43EC7F3F11FB7F3F0000803F75
:104DA00011FB7F3F43EC7F3F97D37F3F0FB17F3FA6
:104DB000AB847F3F6D4E7F3F580E7F3F6DC47E3F7B
:104DC000B0707E3F23137E3FCCAB7D3FAC3A7D3F3E
:104DD000C9BF7C3F283B7C3FCDAC7B3FBE147B3FB3
:104DE00002737A3F9DC7793F9812793FF853783F15
:104DF000C58B773F07BA763FC6DE753F0BFA743F27
:104E0000DD0B743F4714733F5213723F0809713F23
:104E100073F56F3F9ED86E3F93B26D3F5E836C3FDC
:104E20000C4B6B3FA7096A3F3CBF683FD86B673F9D
:104E3000880F663F59AA643F5A3C633F97C5613F5C
:104E40002146603F05BE5E3F532D5D3F1A945B3F98
:104E50006AF2593F5348583FE595563F31DB543F7E
:104E60004918533F3D4D513F207A4F3F029F4D3FE0
:104E7000F8BB4B3F12D1493F65DE473F03E4453F56
:104E800001E2433F70D8413F67C73F3FF9AE3D3F26
:104E90003B8F3B3F4268393F233A373FF304353F6E
:104EA000C9C8323FBB85303FDE3B2E3F4AEB2B3F2C
:104EB0001594293F5636273F25D2243F9967223F34
:104EC000CBF61F3FD17F1D3FC6021B3FC07F183F5F
:104ED000D9F6153F2A68133FCDD3103FDA390E3F7C
:104EE0006B9A0B3F9BF5083F824B063F3D9C033F6F
:104EF000E4E7003F275DFC3ECBE0F63EEA5AF13E98
:104F0000BBCBEB3E7533E63E4F92E03E80E8DA3EA7
:104F10004136D53ECA7BCF3E53B9C93E15EFC33E9D
:104F2000491DBE3E2A44B83EEF63B23ED47CAC3E3F
:104F3000128FA63EE59AA03E86A09A3E32A0943EED
:104F4000229A8E3E938E883EC07D823ECCCF783EA4
:104F50007F9A6C3E135C603E0115543EC2C5473ECD
:104F6000CF6E3B3EA2102F3EB5AB223E8340163E95
:104F700087CF093E73B2FA3D2FBCE13D36BDC83D37
:104F800080B6AF3D04A9963D752B7B3D2EFB483D79
:104F90002BC3163DB10AC93C920E493C00000000EB
:104FA000920E49BCB10AC9BC2BC316BD2EFB48BD2D
:104FB000752B7BBD04A996BD80B6AFBD36BDC8BDFF
:104FC0002FBCE1BD73B2FABD87CF09BE834016BEC8
:104FD000B5AB22BEA2102FBECF6E3BBEC2C547BE30
:104FE000011554BE135C60BE7F9A6CBECCCF78BEF8
:104FF000C07D82BE938E88BE229A8EBE32A094BEA1
:1050000086A09ABEE59AA0BE128FA6BED47CACBE86
:10501000EF63B2BE2A44B8BE491DBEBE15EFC3BE83
:1050200053B9C9BECA7BCFBE4136D5BE80E8DABE11
:105030004F92E0BE7533E6BEBBCBEBBEEA5AF1BE83
:10504000CBE0F6BE275DFCBEE4E700BF3D9C03BF9E
:10505000824B06BF9BF508BF6B9A0BBFDA390EBFB8
:10506000CDD310BF2A6813BFD9F615BFC07F18BFB4
:10507000C6021BBFD17F1DBFCBF61FBF996722BFE2
:1050800025D224BF563627BF159429BF4AEB2BBF24
:10509000DE3B2EBFBB8530BFC9C832BFF30435BF6E
:1050A000233A37BF426839BF3B8F3BBFF9AE3DBFA4
:1050B00067C73FBF70D841BF01E243BF03E445BFAC
:1050C00065DE47BF12D149BFF8BB4BBF029F4DBF42
:1050D000207A4FBF3D4D51BF491853BF31DB54BFFC
:1050E000E59556BF534858BF6AF259BF1A945BBF43
:1050F000532D5DBF05BE5EBF214660BF97C561BF32
:105100005A3C63BF59AA64BF880F66BFD86B67BF9C
:105110003CBF68BFA7096ABF0C4B6BBF5E836CBF07
:1051200093B26DBF9ED86EBF73F56FBF080971BF94
:10513000521372BF471473BFDD0B74BF0BFA74BFF9
:10514000C6DE75BF07BA76BFC58B77BFF85378BF89
:10515000981279BF9DC779BF02737ABFBE147BBF17
:10516000CDAC7BBF283B7CBFC9BF7CBFAC3A7DBF09
:10517000CCAB7DBF23137EBFB0707EBF6DC47EBF3E
:10518000580E7FBF6D4E7FBFAB847FBF0FB17FBF17
:1051900097D37FBF43EC7FBF11FB7FBF000080BF71
:1051A00011FB7FBF43EC7FBF97D37FBF0FB17FBFA2
:1051B000AB847FBF6D4E7FBF580E7FBF6DC47EBF77
:1051C000B0707EBF23137EBFCCAB7DBFAC3A7DBF3A
:1051D000C9BF7CBF283B7CBFCDAC7BBFBE147BBFAF
:1051E00002737ABF9DC779BF981279BFF85378BF11
:1051F000C58B77BF07BA76BFC6DE75BF0BFA74BF23
:10520000DD0B74BF471473BF521372BF080971BF1F
:1052100073F56FBF9ED86EBF93B26DBF5E836CBFD8
:105220000C4B6BBFA7096ABF3CBF68BFD86B67BF99
:10523000880F66BF59AA64BF5A3C63BF97C561BF58
:10524000214660BF05BE5EBF532D5DBF1A945BBF94
:105250006AF259BF534858BFE59556BF31DB54BF7A
:10526000491853BF3D4D51BF207A4FBF029F4DBFDC
:10527000F8BB4BBF12D149BF65DE47BF03E445BF52
:1052800001E243BF70D841BF67C73FBFF9AE3DBF22
:105290003B8F3BBF426839BF233A37BFF30435BF6A
:1052A000C9C832BFBB8530BFDE3B2EBF4AEB2BBF28
:1052B000159429BF563627BF25D224BF996722BF30
:1052C000CBF61FBFD17F1DBFC6021BBFC07F18BF5B
:1052D000D9F615BF2A6813BFCDD310BFDA390EBF78
:1052E0006B9A0BBF9BF508BF824B06BF3D9C03BF6B
:1052F000E4E700BF275DFCBECBE0F6BEEA5AF1BE94
:10530000BBCBEBBE7533E6BE4F92E0BE80E8DABEA3
:105310004136D5BECA7BCFBE53B9C9BE15EFC3BE99
:10532000491DBEBE2A44B8BEEF63B2BED47CACBE3B
:10533000128FA6BEE59AA0BE86A09ABE32A094BEE9
:10534000229A8EBE938E88BEC07D82BECCCF78BEA0
:105350007F9A6CBE135C60BE011554BEC2C547BEC9
:10536000CF6E3BBEA2102FBEB5AB22BE834016BE91
:1053700087CF09BE73B2FABD2FBCE1BD36BDC8BD33
:1053800080B6AFBD04A996BD752B7BBD2EFB48BD75
:105390002BC316BDB10AC9BC920E49BC00000080E7
:1053A000000092012403B6044806D9076B09FB0AE2
:1053B0008C0C1C0EAB0F3A11C8125514E2156E1767
:1053C000F918831A0C1C931D1A1F9F202422A7234F
:1053D0002825A8262728A4291F2B992C112E872F92
:1053E000FC306E32DF334E35BA3625388D39F33A1C
:1053F000573CB83D173F7440CE4126437B44CD45D2
:105400001D476A48B449FB4A404C814DC04EFB4F92
:10541000345169529B53CA54F6551E574358645928
:10542000825A9D5BB45CC85DD75EE45FEC60F1615D
:10543000F262EF63E964DE65D066BD67A7688C69D8
:105440006E6A4B6B246CF96CCA6D976E5F6F23703C
:10545000E3709E7155720873B67360740575A67516
:105460004276D9766C77FB7785780A798A79067ADD
:105470007D7AEF7A5D7BC67B2A7C897CE47C3A7DF1
:105480008A7DD67D1E7E607E9D7ED67E0A7F387F99
:10549000627F877FA77FC27FD97FEA7FF67FFE7F0B
:1054A000FF7FFE7FF67FEA7FD97FC27FA77F877F5E
:1054B000627F387F0A7FD67E9D7E607E1E7ED67D8F
:1054C0008A7D3A7DE47C897C2A7CC67B5D7BEF7A91
:1054D0007D7A067A8A790A798578FB776C77D9762E
:1054E0004276A67505756074B673087355729E7121
:1054F000E37023705F6F976ECA6DF96C246C4B6B11
:105500006E6A8C69A768BD67D066DE65E964EF6383
:10551000F262F161EC60E45FD75EC85DB45C9D5BF4
:10552000825A645943581E57F655CA549B536952C0
:105530003451FB4FC04E814D404CFB4AB4496A4840
:105540001D47CD457B442643CE417440173FB83DAF
:10555000573CF33A8D392538BA364E35DF336E3243
:10556000FC30872F112E992C1F2BA4292728A82621
:105570002825A72324229F201A1F931D0C1C831A61
:10558000F9186E17E2155514C8123A11AB0F1C0E1C
:105590008C0CFB0A6B09D9074806B6042403920158
:1055A00000006EFEDCFC4AFBB8F927F895F605F51D
:1055B00074F3E4F155F0C6EE38EDABEB1EEA92E879
:1055C00007E77DE5F4E36DE2E6E061DFDCDD59DC71
:1055D000D8DA58D9D9D75CD6E1D467D3EFD179D00E
:1055E00004CF92CD21CCB2CA46C9DBC773C60DC564
:1055F000A9C348C2E9C08CBF32BEDABC85BB33BA8E
:10560000E3B896B74CB605B5C0B37FB240B105B0AC
:10561000CCAE97AD65AC36AB0AAAE2A8BDA79CA6F6
:105620007EA563A44CA338A229A11CA0149F0F9EA1
:105630000E9D119C179B229A309943985997749606
:105640009295B594DC93079336926991A190DD8F82
:105650001D8F628EAB8DF88C4A8CA08BFB8A5A8A88
:10566000BE892789948805887B87F6867686FA85A1
:1056700083851185A3843A84D68377831C83C6826D
:1056800076822A82E281A08163812A81F680C880A5
:105690009E80798059803E80278016800A80028013
:1056A000008002800A80168027803E8059807980A1
:1056B0009E80C880F6802A816381A081E2812A824F
:1056C0007682C6821C837783D6833A84A38411852D
:1056D0008385FA857686F6867B8705889488278970
:1056E000BE895A8AFB8AA08B4A8CF88CAB8D628E5D
:1056F0001D8FDD8FA190699136920793DC93B5944D
:1057000092957496599743983099229A179B119CB9
:105710000E9D0F9E149F1CA029A138A24CA363A428
:105720007EA59CA6BDA7E2A80AAA36AB65AC97AD3C
:10573000CCAE05B040B17FB2C0B305B54CB696B79C
:10574000E3B833BA85BBDABC32BE8CBFE9C048C20D
:10575000A9C30DC573C6DBC746C9B2CA21CC92CD59
:1057600004CF79D0EFD167D3E1D45CD6D9D758D95B
:10577000D8DA59DCDCDD61DFE6E06DE2F4E37DE5FB
:1057800007E792E81EEAABEB38EDC6EE55F0E4F120
:1057900074F305F595F627F8B8F94AFBDCFC6EFEC4
:1057A0000000000000000000201D9201BF2A240319
:1057B0005D19B6047CD947069E5BD90749906A09F2
:1057C0000568FB0A5ED38B0CE4C21B0E2B27AB0FC4
:1057D000CFF039116F10C812B17655144514E21587
:1057E000DED96D173CB8F81826A0821A6A820B1C05
:1057F000E54F931D7BF9191F1C709F20C5A4232220
:105800007F88A6235E0C28258621A82628B926286D
:1058100085C4A329EB341F2BBAFB982C620A112EE6
:105820006252872F4DC5FB30C7546E3287F2DE338C
:1058300057904D351420BA36B093243832DD8C3968
:10584000B7EEF23A70BA563CA632B83DB849173FA7
:105850001DF27340651ECE4135C1254350CD7A44BB
:105860008F35CD45E7EC1C4765E669483315B449EB
:10587000986CFB4AF4DF3F4CC462814DA5E8BF4EF3
:105880004D65FB4F94CC33516E126952F02A9B53F5
:105890004B0ACA54D2A4F555FAEE1D5754DD4258AE
:1058A000986464599A79825A54119D5BE020B45CE3
:1058B0007C9DC75D8A7CD75E8DB3E35F3038EC603A
:1058C0003F00F161AC01F2629032EF632689E86437
:1058D000D3FBDD652081CF66BD0FBD67819EA668C5
:1058E0006C248C69A4986D6A79F24A6B6029246CE7
:1058F000FC34F96C140DCA6D9DA9966EB2025F6FEF
:105900009A102370C6CBE270D22C9E71852C5572F2
:10591000D0C30773D1EBB573D19D5F7445D30475C4
:10592000CF85A5753DAF41768949D976DB4E6C7739
:1059300089B9FA77148484782DA90979B1238A79F1
:10594000ADEE057A5B057D7A2363EF7A9E035D7B7E
:1059500090E2C57BEEFB297CDE4B897CB2CEE37CFA
:10596000EC80397D405F8A7D8F66D67DEA931D7E0F
:1059700093E45F7EFC559D7EC6E5D57EC491097F8C
:10598000F657387F8F36627FF32B877FB436A77F39
:105990009655C27F8E87D87FC0CBE97F8221F67F64
:1059A0005A88FD7FFFFFFF7F5A88FD7F8221F67FA7
:1059B000C0CBE97F8E87D87F9655C27FB436A77F4C
:1059C000F32B877F8F36627FF657387FC491097F2C
:1059D000C6E5D57EFC559D7E93E45F7EEA931D7EF1
:1059E0008F66D67D405F8A7DEC80397DB2CEE37CC8
:1059F000DE4B897CEEFB297C90E2C57B9E035D7BC0
:105A00002363EF7A5B057D7AADEE057AB1238A795F
:105A10002DA909791484847889B9FA77DB4E6C77DB
:105A20008949D9763DAF4176CF85A57545D30475B3
:105A3000D19D5F74D1EBB573D0C30773852C5572BC
:105A4000D22C9E71C6CBE2709A102370B2025F6FA7
:105A50009DA9966E140DCA6DFC34F96C6029246CF6
:105A600079F24A6BA4986D6A6C248C69819EA66851
:105A7000BD0FBD672081CF66D3FBDD652689E86455
:105A80009032EF63AC01F2623F00F1613038EC60BC
:105A90008DB3E35F8A7CD75E7C9DC75DE020B45CFC
:105AA00054119D5B9A79825A9864645954DD425826
:105AB000FAEE1D57D2A4F5554B0ACA54F02A9B534F
:105AC0006E12695294CC33514D65FB4FA5E8BF4E21
:105AD000C462814DF4DF3F4C986CFB4A3315B449E6
