:020000040800F2
:10000000A0660020FD740008EF2F0008B9740008F6
:10001000F12F0008F32F0008F52F00080000000062
:10002000000000000000000000000000F72F0008A2
:10003000F92F000800000000FB2F000851550008B0
:1000400045750008497500084D7500085175000890
:1000500055750008597500085D7500086175000840
:1000600065750008697500086D75000871750008F0
:1000700075750008797500087D75000881750008A0
:1000800085750008897500088D7500089175000850
:1000900095750008997500089D750008A175000800
:1000A000A5750008A9750008AD750008B1750008B0
:1000B00019560008B5750008B9750008BD75000827
:1000C000C1750008C5750008C9750008CD75000820
:1000D000D1750008F55C0008D5750008FF5C0008C4
:1000E000D9750008DD75000800000000E175000802
:1000F000E5750008E9750008ED750008F175000860
:10010000F5750008F9750008FD750008017600080E
:1001100005760008097600080D76000811760008BB
:1001200015760008197600081D760008217600086B
:1001300025760008297600082D760008317600081B
:1001400000000000000000000000000000000000AF
:1001500035760008397600083D76000841760008BB
:1001600045760008497600084D760008517600086B
:1001700055760008597600085D76000800000000FA
:100180006176000865760008697600086D760008DB
:100190007176000875760008797600087D7600088B
:1001A0008176000885760008897600088D7600083B
:1001B0009176000895760008997600089D760008EB
:1001C000A1760008A5760008A9760008AD7600089B
:1001D000B1760008B5760008B9760008BD7600084B
:1001E000C1760008C5760008C9760008CD760008FB
:1001F000D1760008D5760008D9760008DD760008AB
:10020000E1760008E5760008E9760008ED7600085A
:10021000F1760008F5760008F9760008FD7600080A
:100220000177000805770008097700080000000042
:100230000D7700081177000800000000157700080E
:10024000197700081D770008217700082577000836
:10025000297700082D7700083177000835770008E6
:10026000397700083D770008417700084577000896
:10027000497700084D77000851770008000000001A
:1002800055770008597700085D77000800000000E6
:1002900000000000617700082DE9F041040000260D
:1002A00000252068000130D5606E002809D0B0F527
:1002B000801F0DD0B0F5001F10D0B0F5401F14D036
:1002C00014E0DFF8E009016851F4003101600EE04C
:1002D0000221201D00F01EFF060008E0022114F19B
:1002E000240000F09EFF060001E000E0012630003F
:1002F000C0B2002808D1DFF8B0190A6832F4401201
:10030000606E02430A6000E035002068C0052ED50B
:10031000606D002806D0022811D00AD3042816D018
:1003200014D315E0DFF87C09016851F40031016055
:100330000FE00021201D00F0EDFE060009E0002185
:1003400014F1240000F06DFF060002E001E000E07F
:1003500001263000C0B2002808D1DFF84C190A6825
:10036000D208D200606D02430A6000E035002068C8
:10037000800531D5A06D002809D040280ED08028F6
:1003800012D0C02817D0B0F5807F15D015E0DFF867
:100390001409016851F4003101600FE00021201DB3
:1003A00000F0B8FE060009E0002114F1240000F07E
:1003B00038FF060002E001E000E001263000C0B294
:1003C000002808D1DFF8E0180A6832F4E072A06D66
:1003D00002430A6000E035002068400536D5D4F8B5
:1003E000A40000280CD0B0F5001F10D0B0F5800F8D
:1003F00013D0B0F5C00F17D0B0F5000F15D015E031
:10040000DFF8A008016851F4003101600FE000211D
:10041000201D00F07FFE060009E0002114F12400F9
:1004200000F0FFFE060002E001E000E001263000DF
:10043000C0B2002809D1DFF874180A6832F46002EB
:10044000D4F8A40002430A6000E0350020680005EB
:1004500036D5D4F8A80000280CD0B0F1807F10D099
:10046000B0F1007F13D0B0F1407F17D0B0F1806FB2
:1004700015D015E0DFF82C08016851F40031016057
:100480000FE00021201D00F045FE060009E00021DC
:1004900014F1240000F0C5FE060002E001E000E0D7
:1004A00001263000C0B2002809D1DFF800180A6820
:1004B00032F0E062D4F8A80002430A6000E03500A0
:1004C0002068800127D5A06C002814D0102804D003
:1004D000202809D030280DD00EE0DFF8C8070168C9
:1004E00051F40031016008E00221201D00F012FEED
:1004F000060002E001E000E001263000C0B2002862
:1005000008D1DFF8AC170A6832F03002A06C024361
:100510000A6000E035002068C00434D5E06D002892
:100520000CD0B0F5805F10D0B0F5005F13D0B0F5FF
:10053000405F17D0B0F5804F15D015E0DFF86407A5
:10054000016851F4003101600FE00021201D00F02E
:10055000E1FD060009E0002114F1240000F061FE35
:10056000060002E001E000E001263000C0B20028F1
:1005700008D1DFF834170A6832F4E042E06D024334
:100580000A6000E035002068800432D5206E002823
:100590000FD0B0F5803F0DD0B0F5003F10D0B0F5D2
:1005A000403F14D0B0F5802F12D0B0F5A02F10D05E
:1005B00010E010E00121201D00F0ACFD06000AE073
:1005C000012114F1240000F02CFE060003E002E0FB
:1005D00001E000E001263000C0B2002808D1DFF8B9
:1005E000C8160A6832F4E022206E02430A6000E076
:1005F00035002068400434D5D4F8AC0000280FD072
:10060000B0F1805F0DD0B0F1005F10D0B0F1405F6D
:1006100014D0B0F1804F12D0B0F1A04F10D010E044
:1006200010E00121201D00F075FD06000AE0012107
:1006300014F1240000F0F5FD060003E002E001E003
:1006400000E001263000C0B2002809D1DFF85C16B6
:100650000A6832F0E042D4F8AC0002430A6000E0DD
:1006600035002068000426D5E06E002813D0B0F1D4
:10067000805F03D0B0F1005F07D00DE0DFF8240603
:10068000016851F40031016007E00121201D00F0F4
:1006900041FD060001E000E001263000C0B2002864
:1006A00008D1DFF804160A6832F04052E06E0243C7
:1006B0000A6000E035002068C00126D5606C002883
:1006C00013D002280AD002D303280DD00EE0DFF8A1
:1006D000D405016851F40031016008E00221201DB9
:1006E00000F018FD060002E001E000E00126300005
:1006F000C0B2002808D1DFF8B8150A689208920045
:10070000606C02430A6000E03500206840026DD54D
:10071000DFF8A085D8F8000050F48070C8F8000019
:1007200000F018FE0700D8F80000C00505D400F05E
:1007300011FEC01B6528F6D303263000C0B2002886
:1007400053D1DFF87475386810F44070D4F8B010E5
:1007500011F4407188420BD0386830F44070396829
:1007600051F480313960396831F480313960386052
:10077000D4F8B000B0F5807F0ED100F0EBFD8046DC
:100780003868800708D400F0E5FDB0EB080041F2BE
:1007900089318842F4D303263000C0B2002822D128
:1007A000D4F8B00010F44070B0F5407F0DD1DFF800
:1007B0002C05016831F47C51D4F8B020DFF82035E5
:1007C00013EA12131943016005E0DFF81005016810
:1007D00031F47C5101603868D4F8B0100905090D76
:1007E0000843386002E0350000E035002078C0079B
:1007F0002DD5A06F00280AD0082809D010280DD0C8
:10080000182812D0202811D0282810D010E010E08D
:100810000121201D00F07EFC06000AE0012114F1F8
:10082000240000F0FEFC060003E002E001E000E02E
:1008300001263000C0B2002808D1DFF8A8140A68E9
:1008400032F03802A06F02430A6000E035002078E1
:1008500080072BD5606F002808D002280DD006D362
:10086000042812D010D3052810D010E010E0012188
:10087000201D00F04FFC06000AE0012114F12400C5
:1008800000F0CFFC060003E002E001E000E00126FA
:100890003000C0B2002808D1DFF848140A68D20836
:1008A000D200606F02430A6000E035002078400704
:1008B0002DD5D4F89000002808D002280DD006D3FA
:1008C000042812D010D3052810D010E010E0012128
:1008D000201D00F01FFC06000AE0012114F1240095
:1008E00000F09FFC060003E002E001E000E00126CA
:1008F0003000C0B2002809D1DFF8B0130A68D2086E
:10090000D200D4F8900002430A6000E0350020785D
:10091000800634D5D4F88C0000280FD0B0F1805F69
:100920000DD0B0F1005F10D0B0F1405F14D0B0F145
:10093000804F12D0B0F1A04F10D010E010E0002195
:10094000201D00F0E7FB06000AE0022114F124005C
:1009500000F067FC060003E002E001E000E0012691
:100960003000C0B2002809D1DFF878130A6832F0ED
:10097000E042D4F88C0002430A6000E035002078A1
:10098000400634D5D4F8980000280FD0B0F5806F19
:100990000DD0B0F5006F10D0B0F5406F14D0B0F5A9
:1009A000805F12D0B0F5A05F10D010E010E0002101
:1009B000201D00F0AFFB06000AE0022114F1240024
:1009C00000F02FFC060003E002E001E000E0012659
:1009D0003000C0B2002809D1DFF8D0120A6832F422
:1009E000E052D4F8980002430A6000E03500207815
:1009F000000634D5D4F89C0000280FD0B0F5005F75
:100A00000DD0B0F5804F10D0B0F5C04F14D0B0F578
:100A1000004F12D0B0F5204F10D010E010E00021B0
:100A2000201D00F077FB06000AE0022114F12400EB
:100A300000F0F7FB060003E002E001E000E0012621
:100A40003000C0B2002809D1DFF860120A6832F421
:100A50006042D4F89C0002430A6000E03500207830
:100A6000000715D5D4F88000B0F5805F07D10221CA
:100A700014F1240000F0D5FB002800D00125DFF898
:100A800064120A6832F44052D4F8800002430A60CB
:100A90002078C00615D5D4F89400B0F5807F07D132
:100AA000022114F1240000F0BCFB002800D0012535
:100AB000DFF8F8110A6832F44072D4F89400024367
:100AC0000A602068000328D5D4F8A000002806D0CA
:100AD000B0F5803F09D0B0F5003F0DD00DE000210A
:100AE000201D00F017FB060008E0022114F124008D
:100AF00000F097FB060001E000E001263000C0B2E4
:100B0000002809D1DFF8A4110A6832F44032D4F881
:100B1000A00002430A6000E035002068400329D5A8
:100B2000D4F88400B0F5801F06D0B0F5001F09D0BE
:100B3000B0F5401F0DD00DE05A48016851F4003166
:100B4000016008E0012114F1240000F06AFB0600B6
:100B500001E000E001263000C0B2002809D1DFF832
:100B600084110A6832F44012D4F8840002430A6007
:100B700000E035002068C00320D5E06C002803D0D9
:100B8000B0F5803F06D00BE04648016851F40031D3
:100B9000016006E00221201D00F0BCFA060000E022
:100BA00001263000C0B2002807D141490A6832F45A
:100BB0008032E06C02430A6000E03500206880006B
:100BC00007D5022114F1240000F02BFB002800D0EF
:100BD00001252068800324D5E06F002811D0B0F5EE
:100BE000807F06D0B0F5007F09D0B0F5407F07D0F8
:100BF00008E02C48016851F40031016003E002E094
:100C000001E000E001263000C0B2002808D1DFF882
:100C1000D4100A6832F44072E06F02430A6000E0C8
:100C200035002068C00206D51F490A6822F000423C
:100C3000206F02430A602068C00008D5DFF89C10CE
:100C40000A6832F48042D4F8B40002430A60206893
:100C5000800206D514490A6832F08072A06E024301
:100C60000A60206840000AD5DFF87010086830F488
:100C7000004008600A68D4F8B80002430A6020689F
:100C8000002806D50A490A6832F04052206D024316
:100C90000A60EDB2002D01D1002000E00120BDE886
:100CA000F08100002C440258504402585844025825
:100CB0004C440258004802587044025880B500F075
:100CC0008AFDDFF86C16DFF86C261268C2F3021298
:100CD000895C11F01F01C84002BD00001044025899
:100CE000CFFFFF005444025810B4DFF81C140B6807
:100CF00013F003030968C1F30531DFF8102412680B
:100D0000C2F30014DFF830261268C2F3CC02544359
:100D100000EE104AB8EE400A002900F0DE80002BF9
:100D200003D0022B68D049D384E0DFF81026136883
:100D30009B0625D5DFF8D8331268C2F3C102D34031
:100D400000EE903AF8EE600A01EE101AB8EE411A81
:100D5000C0EE810ADFF8E8150968C905C90D01EE82
:100D6000101AB8EE411ADFED611A80EE210A31EE59
:100D7000000AB7EE001A30EE010A20EE800A1CE0ED
:100D800000EE901AF8EE600A9FED591AC1EE200AA3
:100D9000DFF8AC150968C905C90D01EE101AB8EEE7
:100DA000411ADFED521A80EE210A31EE000AB7EE49
:100DB000001A30EE010A20EE800A58E000EE901A88
:100DC000F8EE600A9FEDCC1AC1EE200ADFF870152C
:100DD0000968C905C90D01EE101AB8EE411ADFED18
:100DE000431A80EE210A31EE000AB7EE001A30EE07
:100DF000010A20EE800A3AE000EE901AF8EE600A4E
:100E00009FEDBE1AC1EE200ADFF834150968C90546
:100E1000C90D01EE101AB8EE411ADFED341A80EE5A
:100E2000210A31EE000AB7EE001A30EE010A20EE78
:100E3000800A1CE000EE901AF8EE600A9FEDAE1AF0
:100E4000C1EE200ADFF8F8140968C905C90D01EEE2
:100E5000101AB8EE411ADFED251A80EE210A31EEA4
:100E6000000AB7EE001A30EE010A20EE800ADFF821
:100E7000D0140A68C2F3462200EE902AF8EE600A07
:100E8000B7EE001A70EE810AC0EE200AFCEEE00A0E
:100E9000C0ED000A0A68C2F3064200EE902AF8EE9E
:100EA000600AB7EE001A70EE810AC0EE200AFCEE6E
:100EB000E00AC0ED010A0968C1F3066100EE901A6C
:100EC000F8EE600AB7EE001A70EE810A80EE200A92
:100ED000BCEEC00A80ED020A05E00021016000219D
:100EE00041600021816010BC704700000000004696
:100EF0000024744C10B4DFF810120B6813F00303D5
:100F00000968C1F30551DFF804221268C2F3002416
:100F1000DFF830241268C2F3CC02544300EE104ACA
:100F2000B8EE400A002900F0DE80002B03D0022B2F
:100F300068D049D384E0DFF8042413689B0625D5E4
:100F4000DFF8CC311268C2F3C102D34000EE903A10
:100F5000F8EE600A01EE101AB8EE411AC0EE810AEE
:100F6000DFF8E4130968C905C90D01EE101AB8EEDF
:100F7000411ADFED631A80EE210A31EE000AB7EE66
:100F8000001A30EE010A20EE800A1CE000EE901AF2
:100F9000F8EE600A9FED5B1AC1EE200ADFF8A81395
:100FA0000968C905C90D01EE101AB8EE411ADFED46
:100FB000541A80EE210A31EE000AB7EE001A30EE24
:100FC000010A20EE800A58E000EE901AF8EE600A5E
:100FD0009FED491AC1EE200ADFF86C130968C905B4
:100FE000C90D01EE101AB8EE411ADFED451A80EE78
:100FF000210A31EE000AB7EE001A30EE010A20EEA7
:10100000800A3AE000EE901AF8EE600A9FED3B1A73
:10101000C1EE200ADFF830130968C905C90D01EED9
:10102000101AB8EE411ADFED361A80EE210A31EEC1
:10103000000AB7EE001A30EE010A20EE800A1CE02A
:1010400000EE901AF8EE600A9FED2B1AC1EE200A0E
:10105000DFF8F4120968C905C90D01EE101AB8EEDF
:10106000411ADFED271A80EE210A31EE000AB7EEB1
:10107000001A30EE010A20EE800ADFF8CC120A686E
:10108000C2F3462200EE902AF8EE600AB7EE001A8C
:1010900070EE810AC0EE200AFCEEE00AC0ED000A04
:1010A0000A68C2F3064200EE902AF8EE600AB7EE34
:1010B000001A70EE810AC0EE200AFCEEE00AC0EDD4
:1010C000010A0968C1F3066100EE901AF8EE600AA1
:1010D000B7EE001A70EE810A80EE200ABCEEC00A5C
:1010E00080ED020A05E0002101600021416000213D
:1010F000816010BC704700000024744A20BCBE4BC5
:10110000000000460024744C284402582C44025825
:101110000090D0032DE9F84305000C000026DFF80D
:101120002C82D8F8000010F00300032801D1012020
:1011300075E0824F386830F08060386000F00AF95E
:1011400081463868000107D500F004F9B0EB0900CA
:101150000328F6D3032062E0D8F8000030F47C3096
:10116000296850EA0130C8F800006868401EC005D0
:10117000C00DA968491E490211F47E410843E9687F
:10118000491E090411F4FE0108432969491E090694
:1011900011F0FE4108436A4908606D490A6832F05F
:1011A000C002686902430A600A6832F02002A86936
:1011B00002430A60086830F0100008605E48026868
:1011C0006FF3CF02EB6952EAC3020260086850F085
:1011D00010000860002C04D1086850F4002008605A
:1011E0000AE0012C04D1086850F48010086003E084
:1011F000086850F400100860386850F0806038606B
:1012000000F0A8F804003868000106D400F0A2F845
:10121000001B0328F7D3032001E03000C0B2BDE873
:10122000F2832DE9F84305000C000026DFF81C814D
:10123000D8F8000010F00300032801D1012075E068
:101240003E4F386830F08050386000F083F88146B7
:101250003868800007D500F07DF8B0EB090003285E
:10126000F6D3032062E0D8F8000030F07C702968E3
:1012700050EA0150C8F800006868401EC005C00D63
:10128000A968491E490211F47E410843E968491ED4
:10129000090411F4FE0108432969491E090611F0E9
:1012A000FE4108432849086029490A6832F440622F
:1012B000686902430A600A6832F40072A86902434E
:1012C0000A60086830F4807008601E4802686FF396
:1012D000CF02EB6952EAC3020260086850F48070E2
:1012E0000860002C04D1086850F4800008600AE00F
:1012F000012C04D1086850F40000086003E008687D
:1013000050F080700860386850F08050386000F00D
:1013100021F804003868800006D400F01BF8001B98
:101320000328F7D3032001E03000C0B2BDE8F28308
:10133000EC740008204402583C440258004402580F
:101340003844025844440258404402582844025841
:101350002C44025801480068704700BF9056002096
:101360002DE9F04104000E00002C01D101203AE1EA
:10137000DFF8DC54286810F00F00B0420BD2286868
:101380000009000130432860286810F00F00B042C7
:1013900001D0012027E1207840070DD5DFF8CC14DB
:1013A000086810F070002269904205D20A6832F095
:1013B0007002206902430A60207800070DD5DFF82B
:1013C000B014086810F070006269904205D20A6893
:1013D00032F07002606902430A602078C0060DD5C1
:1013E000DFF88C14086810F4E060A269904205D21E
:1013F0000A6832F4E062A06902430A60207880063D
:101400000DD5DFF87014086810F07000E2699042A2
:1014100005D20A6832F07002E06902430A6020785F
:1014200080070DD5DFF84414086810F00F00E2685B
:10143000904205D20A6812091201E06802430A606C
:101440002078C00748D5DFF824140A6832F47062A7
:10145000A06802430A606068022806D1DFF8F4033E
:10146000006880031CD40120BDE06068032806D119
:10147000DFF8E0030068800112D40120B3E0606867
:10148000012806D1DFF8CC030068C00508D401208C
:10149000A9E0DFF8C0030068400701D40120A2E002
:1014A000DFF8B4733968C908C9006068014339605E
:1014B000FFF750FF8046386810F038006168B0EBE5
:1014C000C10F09D0FFF746FFB0EB080041F28931A8
:1014D0008842F0D3032086E0207880070DD5DFF81E
:1014E0008C13E0680A6812F00F02904205D20A6875
:1014F00012091201E06802430A60286810F00F0028
:1015000086420BD228680009000130432860286811
:1015100010F00F00B04201D0012064E020784007B5
:101520000DD5DFF8481320690A6812F07002904266
:1015300005D20A6832F07002206902430A602078FE
:1015400000070DD5DFF8281360690A6812F07002F1
:10155000904205D20A6832F07002606902430A6064
:101560002078C0060DD5DFF80813A0690A6812F4C8
:10157000E062904205D20A6832F4E062A069024358
:101580000A60207880060DD5DFF8E812E0690A6865
:1015900012F07002904205D20A6832F07002E069DF
:1015A00002430A6000F022F8DFF8DC22DFF8BC1208
:1015B0000B68C3F30323D35C13F01F03D8400968FF
:1015C00011F00F01515C11F01F010200CA40DFF859
:1015D00094120A60DFF888120860DFF88C02006855
:1015E00000F082FCC0B2BDE8F0810000DFF86802C4
:1015F000006810F03800002806D0082813D0102802
:1016000014D0182815D0E4E0DFF8481208688006E6
:1016100006D5DFF848020968C1F3C101C84001E0FE
:10162000DFF83802D6E0DFF86402D3E0DFF86002CA
:10163000D0E0DFF84402026812F003020068C0F351
:101640000510DFF838120B6813F00103DFF83412CD
:101650000968C1F3CC014B4300EE103AB8EE400AE2
:10166000002800F0B480002A03D0022A66D048D3B4
:1016700081E0DFF8E0110A68920625D5DFF8DC2169
:101680000968C1F3C101CA4000EE902AF8EE600A71
:1016900001EE100AB8EE411AC0EE810ADFF8E0014F
:1016A0000068C005C00D01EE100AB8EE411ADFED6A
:1016B000641A80EE210A31EE000AB7EE001A30EE0D
:1016C000010A60EE800A1BE000EE900AF8EE600A64
:1016D0009FED5C1AC1EE200A69480068C005C00D84
:1016E00001EE100AB8EE411ADFED551A80EE210A1C
:1016F00031EE000AB7EE001A30EE010A60EE800A01
:1017000055E000EE900AF8EE600A9FED4F1AC1EE28
:10171000200A5B480068C005C00D01EE100AB8EE53
:10172000411ADFED471A80EE210A31EE000AB7EECA
:10173000001A30EE010A60EE800A38E000EE900AEE
:10174000F8EE600A9FED411AC1EE200A4C4800688D
:10175000C005C00D01EE100AB8EE411ADFED381ACF
:1017600080EE210A31EE000AB7EE001A30EE010ACF
:1017700060EE800A1BE000EE900AF8EE600A9FED32
:10178000321AC1EE200A3E480068C005C00D01EEC5
:10179000100AB8EE411ADFED2A1A80EE210A31EE66
:1017A000000AB7EE001A30EE010A60EE800A3448F3
:1017B0000068C0F34620401C00EE100AB8EE400A54
:1017C00080EE800ABCEEC00A10EE100A00E0002095
:1017D00000E02E48704780B5FFF708FF2A49234AEA
:1017E0001368C3F30323CB5C13F01F03D8401D4BD6
:1017F000126812F00F02895C11F01F010200CA404A
:101800001A6017490860186802BD80B5FFF7E3FF4A
:101810001D49174A1268C2F30212895C11F01F01B8
:10182000C84002BD80B5FFF7D6FF1749104A1268BD
:10183000C2F30222895C11F01F01C84002BD000002
:10184000000000460024744C0024744A20BCBE4BA7
:101850000020005200440258104402580090D00367
:101860000400002008000020000000201844025856
:101870001C44025820440258284402582C44025860
:101880003044025834440258EC74000800093D000A
:1018900040787D0170B50400002C01D1012009E3DE
:1018A0002078C00770D5DFF81006006810F0380007
:1018B000DFF808160968102805D018280DD111F096
:1018C0000301022909D1DFF8F805006880035BD520
:1018D0006068002858D10120ECE26068B0F5803FD4
:1018E00006D1DFF8DC05016851F48031016026E0A3
:1018F000606800280AD1DFF8C805016831F480313A
:101900000160016831F48021016018E06068B0F581
:10191000A02F0AD1DFF8A805016851F480210160E9
:10192000016851F48031016009E0DFF89405016835
:1019300031F480310160016831F480210160606818
:10194000002810D0FFF706FD0500DFF874050068D9
:10195000800319D4FFF7FEFC401B41F28931884215
:10196000F3D30320A6E2FFF7F5FC0500DFF85005EE
:101970000068800308D5FFF7EDFC401B41F2893178
:101980008842F3D3032095E2207880073DD5DFF825
:101990002805006810F03800DFF8201509680028D5
:1019A00004D0182851D111F0030F4ED1DFF81005E3
:1019B0000068400704D5E068002801D1012079E2E1
:1019C00000F0E8FA41F20401884215D2206940286B
:1019D00008D1DFF8F004016831F47C3151F40031B2
:1019E000016012E0DFF8DC04016831F47C31226927
:1019F00051EA0231016008E0DFF8C804016831F003
:101A0000FE41226951EA026101602078C00640F17E
:101A10009280DFF8A404006810F03800DFF89C140E
:101A20000968082807D0182840F09E8011F00301AB
:101A3000012940F09980DFF888040068C00555D579
:101A4000E069802852D0012034E2E06800283AD0D2
:101A5000DFF86C64316831F01901E06801433160EE
:101A6000FFF778FC05003068400706D4FFF772FCEA
:101A7000401B0328F7D303201CE200F08BFA41F24D
:101A80000401884215D22069402808D1DFF83404C7
:101A9000016831F47C3151F40031016012E0DFF86B
:101AA0002404016831F47C31226951EA0231016079
:101AB00008E0DFF81004016831F0FE41226951EAC4
:101AC00002610160A1E7DFF8F86330684008400078
:101AD0003060FFF73FFC05003068400795D5FFF701
:101AE00039FC401B0328F7D30320E3E100F052FA4E
:101AF00041F20401884215D2206A202808D1DFF87B
:101B0000C403016831F0F84151F08041016012E0F6
:101B1000DFF8B003016831F0F841226A51EA8261CE
:101B2000016008E0DFF8A003016831F07C51226A0F
:101B300051EA026101602078000773D560690028CE
:101B40005ED0DFF88863306850F001003060FFF746
:101B500001FC05003068800764D4FFF7FBFB401BE5
:101B60000328F7D30320A5E1E069002836D0DFF889
:101B70005063306850F080003060FFF7EBFB0500E9
:101B80003068C00506D4FFF7E5FB401B0328F7D3F8
:101B900003208FE100F0FEF941F20401884214D2E3
:101BA000206A202808D1DFF81C03016831F0F841D1
:101BB00051F08041016010E0C248016831F0F84105
:101BC000226A51EA8261016007E0BF48016831F092
:101BD0007C51226A51EA02610160ACE7B84E30687C
:101BE00030F080003060FFF7B5FB05003068C005BD
:101BF000A1D5FFF7AFFB401B0328F7D3032059E122
:101C0000B24E3068400840003060FFF7A3FB05008B
:101C10003068800706D5FFF79DFB401B0328F7D3EC
:101C2000032047E12078800626D5A069002811D03E
:101C3000A34E306850F480503060FFF78BFB0500F6
:101C40003068800418D4FFF785FB401B0328F7D3C6
:101C500003202FE19A4E306830F480503060FFF757
:101C600079FB05003068800406D5FFF773FB401B45
:101C70000328F7D303201DE12078400760D5944E58
:101C8000306850F480703060FFF764FB0500306806
:101C9000C00506D4FFF75EFB401B6528F7D3032081
:101CA00008E1A068012805D18A48016851F00101C6
:101CB000016022E0A068002809D18648016849082F
:101CC00049000160016831F00401016015E0A0687D
:101CD000052809D17F48016851F0040101600168BD
:101CE00051F00101016008E07A48016849084900A3
:101CF0000160016831F004010160A06800280FD084
:101D0000FFF728FB050073480068800718D4FFF729
:101D100021FB401B41F289318842F4D30320C9E002
:101D2000FFF718FB05006B480068800708D5FFF730
:101D300011FB401B41F289318842F4D30320B9E002
:101D4000606A002800F0B5805B48006810F0380039
:101D5000182800F08380606A02286DD1584D2868E9
:101D600030F080702860FFF7F5FA060028688001DF
:101D700006D5FFF7EFFA801B0328F7D3032099E07D
:101D80004E490A6854480240A06A0243E06A52EA97
:101D900000120A60206B401EC005C00D616B491E19
:101DA000490211F47E410843A16B491E090411F454
:101DB000FE010843E16B491E090611F0FE4108438C
:101DC00046490860464908684008400008604548A0
:101DD00002686FF3CF02A36C52EAC30202600A6882
:101DE00032F00C02206C02430A600A6832F00202F0
:101DF000606C02430A60086850F48030086008682C
:101E000050F400300860086850F4802008600868CA
:101E100050F001000860286850F080702860FFF7DB
:101E200099FA04002868800143D4FFF793FA001B55
:101E30000328F7D303203DE0214D286830F080705F
:101E40002860FFF787FA04002868800131D5FFF782
:101E500081FA001B0328F7D303202BE01748006802
:101E60001E490968626A012A21D010F00302A36AA0
:101E70009A421CD1C0F30510E26A904217D1C805FE
:101E8000C00D226B521E904211D1C1F34620626BED
:101E9000521E90420BD1C1F30640A26B521E9042DB
:101EA00005D1C1F30660E16B491E884201D00120D3
:101EB00000E0002070BD00BF1044025828440258C2
:101EC00000440258044402580C4402587444025816
:101ED00000480258704402580CFCFFFF304402587E
:101EE0002C4402583444025810B5040011490878B3
:101EF000002801D101201BE04FF47A700978B0FB73
:101F0000F1F00D490968B1FBF0F000F0F9F8002894
:101F100001D001200CE0102C09D2002221005FF03A
:101F2000FF3000F0D8F805480460002000E00120F0
:101F300010BD00BF8C000020040000200000002025
:101F400080B5032000F0C3F8FFF750FBDFF85C100A
:101F5000DFF85C201368C3F30323CB5C13F01F038B
:101F6000D840126812F00F02895C11F01F010200C4
:101F7000CA40DFF840100A60DFF83C1008600F200C
:101F8000FFF7B2FF002801D0012002E000F01AF8AC
:101F9000002002BDDFF824000068000C70470848EC
:101FA000016851F00101016070470000EC74000805
:101FB0001844025808000020040000200010005CB3
:101FC00020040058704730B4002513E050F8042B6B
:101FD000D30744BFA9F101039A18091F042942F845
:101FE000045BFAD213468C0744BF15809B1CC907BB
:101FF00048BF1D7050F8041B0029E7D130BC704762
:1020000010F00700634B1A684FF6FF010A4062495F
:1020100051EA00210A431A6070475E480068C0F325
:1020200002207047010009B2002908D4012210F0F3
:102030001F018A40594900B2400941F820207047E9
:10204000020012B2002A04D40901554A00B2115408
:1020500007E00901534A00B210F00F00104400F8E5
:10206000041C704710B410F00700D0F10703052BD3
:1020700001D3042301E0D0F10703041D072C01D292
:10208000002000E0C01E012414FA03F35B1E194077
:10209000814014FA00F0401E1040084310BC704705
:1020A00080B5411EB1F1807F01D301200EE0401EBA
:1020B0003D4908600F215FF0FF30FFF7C1FF0020AE
:1020C0003A49086007203A490860002002BD80B5FF
:1020D000FFF796FF01BD70B504000D001600FFF775
:1020E0009CFF32002900FFF7BDFF0100200000B275
:1020F000FFF7A6FF70BD80B500B2FFF793FF01BDEB
:1021000080B5FFF7CDFF02BDBFF35F8F294801689F
:1021100031F480310160002027490860704750F099
:102120000100254908602348016851F480310160AD
:10213000BFF34F8FBFF36F8F704741781F4A116015
:10214000017800291ED041681D4A1160017BC27AC6
:10215000120652EA0172817A52EAC142417B52EA86
:102160008142817B52EA4142C17B52EA0142417A7B
:1021700052EA0122017A52EA4102007802431148F0
:10218000026005E000200E49086000200D4908604B
:10219000704700000CED00E00000FA0500E100E0EF
:1021A00000E400E018ED00E014E000E018E000E0DA
:1021B00010E000E024ED00E094ED00E098ED00E098
:1021C0009CED00E0A0ED00E02DE9F0439FB000BFE2
:1021D00065A6269CDFF8E88A8DF83B400291002432
:1021E0000B944FF0FF37044691461D460AE019F85C
:1021F000011B0298A0470028029000F0A1800B98D4
:10220000401C0B9099F8000050B12528EFD1002117
:102210000022059106920791089209910A9203E023
:102220000B98A5E041F0010119F8010F2028F9D021
:1022300023280CD02B2804D02D2805D0302809D0F5
:1022400080E041F00201EFE741F00401ECE741F0EA
:102250000801E9E741F01001E6E70D920AE00D9868
:10226000404505DA00EB800002EB4002303A0D9267
:1022700009F1010999F80020A2F130000A28EED3F3
:1022800099F800002E2818BF0C9726D119F8010FD5
:102290002A2808D12868286009F1010950F8042B80
:1022A00028600C9219E02D280CBF09F101090020CB
:1022B00000220C920BE040B90C9A424505DA02EB81
:1022C000820203EB4203303B0C9309F1010999F8B8
:1022D0000030A3F130020A2AEDD3ADF838103046B1
:1022E00099F8001000F08AFE08B119F8010B8DF87A
:1022F0003A009DF83A00682805D199F8000068284E
:102300000CD1622106E06C2804BF99F800006C280B
:1023100004D171218DF83A1009F1010910A8049037
:102320002A4619F8013B6946204600F061F838B9A1
:1023300010AA6946204600F091F900287FF562AFA7
:10234000384615E02A2888D12A682A6052F8040BFA
:102350002A6000280D9003D540420D9041F0040101
:1023600009F101098CE70000686A6C747A4C00007E
:102370001FB0BDE8F083622820D0682811D06A28F9
:1023800003D06C2827D0712825D10868C01D20F003
:1023900007000860D0E9002308300860194610469D
:1023A0007047002A0A680A60106803D0121D0A608C
:1023B00000B217E0121D0A6080B217E0002A0A6816
:1023C0000A60106803D0121D0A6040B20AE0121DB4
:1023D0000A60C0B20AE0002A0A680A60106803D0E6
:1023E000121D0A60C1177047121D0A600021704754
:1023F00070B51C460D46B4F125002E69114600F05B
:102400001B811C386AD0001F022867D9133843D0BB
:10241000093863D0801E16D0401E1ED0401E0228F0
:102420005CD9001F19D0401F00F08380401E33D0BC
:10243000401E00F0CD80C01E00F0DC80801E2BD03E
:10244000C01E29D0FEE06869421C6A610A680A6001
:1024500052F8043B0A603354FEE095F83A0001223A
:10246000FFF789FFC5E900010023994204DA686992
:10247000411C69612D220DE0288F810704D5686910
:10248000411C69612B2205E0C00722D56869411C07
:102490006961202232541CE095F83A000022FFF7CF
:1024A0006AFFC5E9000195F83800010711D5D5E9A3
:1024B00000230020834208BF82420AD044F020005B
:1024C000782806D1686930213154401C421C6A6169
:1024D0003454214668693044E86087E00868C01DCC
:1024E00020F007000860D0E9002308300860C5E943
:1024F0000023D5E90001C80F04D06869411C696157
:102500002D220DE0288F810704D56869411C69617F
:102510002B2205E0C00704D56869411C69612022AF
:10252000325468693044E8602146284600F0C8F912
:1025300092E005F13A02507820B14FF0FF340FF6E7
:10254000502062E01078622808D0682824D06A28D9
:1025500012D06C282ED071280ED02BE00A680A60A9
:1025600052F8040B0A6020B94FF0FF340FF6382000
:102570004BE0E96A01706FE00A680A6052F8040BE8
:102580000A6020B94FF0FF340FF61C203DE0EA6AE4
:10259000D317C0E900235FE00A680A6052F8040B11
:1025A0000A6020B94FF0FF340FF6FC102DE0E96A05
:1025B000018051E00A680A6052F8040B0A6020B9F1
:1025C0004FF0FF340FF6E0101FE0E96A016043E0CE
:1025D0000A680A6052F8040B0A60002120F0000229
:1025E00021F0FF33C5E90023EE607821284600F092
:1025F000BBF831E00868086050F8044B0860EC60F4
:102600003CB94FF0FF340FF6B81000F003FD201A6C
:1026100070BD2E6B002E04D5204600F01BFD044635
:1026200008E032460021204600F030FD002814BFAB
:10263000041B3446AC610FE06869411C69612522C6
:10264000325409E06969481C6861252272542100EE
:1026500002D0431C6B613454002070BD2DE9FC4155
:102660000F46064690467A6B7869396ABC6A121A38
:10267000B869521A796A121AF869521A121A97F836
:102680003800141B41070FD42020002C8DF80000C7
:102690000ADD254601236A463946304600F060FCD3
:1026A00000285DD16D1EF5D17B6942463946304622
:1026B00000F056FC002853D130208DF800003D6A10
:1026C000002D09DD01236A463946304600F048FCFA
:1026D000002845D16D1EF5D1BB69FA6839463046F0
:1026E00000F03EFC00283BD130208DF800007D6AD0
:1026F000002D08DD01236A463946304600F030FCE3
:1027000070BB6D1EF6D1F868B969FB69421839468D
:10271000304600F025FC18BB30208DF80000BD6A63
:10272000002D08DD01236A463946304600F018FCCA
:10273000B0B96D1EF6D197F8380041070DD52020AD
:10274000002C8DF8000008DD01236A46394630462A
:1027500000F006FC20B9641EF6D10020BDE8F68129
:102760004FF0FF30BDE8F6812DE9FC4707468C4667
:102770003E69BCF16F0F08BF082405D04CF0200063
:10278000782814BF0A2410243C25D7E90023BCF183
:10279000640F18BFBCF1690F9046994606D100211D
:1027A0008B4203DAD8F1000869EB49094FF0000ABF
:1027B000D14508BFD0451FD1386BE8B9082C4BD1A3
:1027C00097F83800010747D530203B2586F83B00B5
:1027D00042E000280ED597F8380000F014001028C9
:1027E00008D17B6B7969386A5B1A1B1A9A1A002A1E
:1027F000C8BF3A62BDE8F3878DF800C0404649463D
:102800002246E31700F06EFC3032D0B26D1E3A283B
:10281000019504DB9DF80000A0F151018A18725562
:10282000404649462246E31700F05CFC8946804654
:10283000D14508BFD04503D0F86871198842DDD36F
:10284000082C09D197F83800010705D5705D3028AC
:1028500002D06D1E30207055C5F13C02BA6171196D
:10286000F960386B8242B4DA821A3A624FF6EF703E
:10287000398F01403987BDE8F3872DE9D0430646FB
:102880000F4614464FF00008DFF8389412E0E007D6
:1028900007D542464B463046394600F03BFD0646DA
:1028A0000F464046494642464B4600F033FD641011
:1028B00080468946002CEAD130463946BDE8D083AF
:1028C0002DE9F34F054641F020048DB0D5E900898C
:1028D000612C02AE09D0286B002848BF062003D423
:1028E00008BF672C01D101202863D5E900235800D7
:1028F0004015401C0ED119030CD00320A8619DF88F
:10290000381061391A2902D20FF2D06111E00FF2AA
:10291000D0610EE059004915491C0FD118030DD1A3
:102920000320A8619DF8381061391A2914D30FF2D9
:10293000B861E868032200F0F7FCD3E1194621F002
:102940000043B3F5801F10460DD20027BB4208BFDD
:10295000BA42019703D111E00FF28861E9E701AAB9
:1029600000F036FD0AE0DFF8607307EB1352DFF882
:102970005C3301921940DFF858331943C5E900016F
:10298000612C0ED1E86830210170821CEA609DF84C
:10299000381061290CBF7821582141706869801C6A
:1029A0006861D5E900AB2BF0004300202AF000025B
:1029B000834204BF8242002300F05B81612C40F01F
:1029C000AA80286B002847BF21210091401C00905D
:1029D000009F7F1C404649460022002300F030FD46
:1029E000D94601998DF8082038BF89F00049091FA0
:1029F000002FD04601910DF1090040F34981B34900
:102A0000DFF8D0B20C91064640464946002200232A
:102A100000F02EFD80F03B814800400D00F11C02CB
:102A200011D0002A0FDD40F2FF70824205DB09F071
:102A3000004040EA0B01002013E00C98014041EAFD
:102A4000025140460DE029F00043002028F000022A
:102A5000834208BF82420FBF40461C22404600F01E
:102A60001FFD8046894600F09DFDFF1F002F044694
:102A700009DD00F09EFD02460B464046494600F047
:102A80009FFD80468946F01D072104E004F00F02F7
:102A900000F8012D2411002C01DD491EF6D5491E38
:102AA0005CBF002200F8012DF9D5ECE000201946AA
:102AB00002AA0A4400E05B1E12F80149491E844242
:102AC000F9D00F2804D10DF10900425C521C425488
:102AD000002904D50198001D02AE5B1C0190591E0F
:102AE00012D49DF838007218A0F13A07147804F156
:102AF00030085FFA88F43A2CA8BFB844491E02F89F
:102B00000189F3D58DF83800286B002840F1B0809A
:102B1000591E2963ACE0404649460022002300F0DC
:102B20008FFC019938BF89F0004947F29750414323
:102B3000694A91FBF2F20192D2F1070204DD4046AC
:102B40004946FFF79AFE0AE0524200206349FFF728
:102B500094FE02460B464046494600F03AFD804648
:102B6000662C286BDFF878B106BF019F0A3706276D
:102B70003F18142FC8BF142730208DF8080089464D
:102B80000DF1090000E03046002F34DD06464046D6
:102B9000494600F027FD01460A4606F108030420D5
:102BA0000A26B2FBF6F606EB860EA2EB4E02303298
:102BB00003F8012C0A22B6FBF2F202EB820EA6EB1E
:102BC0004E063036401E03F8026DE9D1083F002F53
:102BD00003F10806D7DD084600F00BFD02460B4660
:102BE0004046494600F0ECFC00225B4600F092FBB8
:102BF00080468946CBE70DF10901401A0DF109061F
:102C000004E00199491E401E0191761C317830295B
:102C1000F7D0662C02D10199491C03E0652C0CBF4A
:102C2000012100212B6BCB189842B8BF431E002B0B
:102C30001ED4834204DAF05C3528A8BF392000DABC
:102C400030201946721E02EB010800E05B1E18F8E6
:102C50000199491E8145F9D0392802D1705C401C88
:102C60007054002904D50198401C16465B1C019045
:102C7000019800B200901BB29DF8381032462846E9
:102C800000F034F82EE0C61D002F3FF7BDAE3046F1
:102C90000DF10901401A009903468842C8BF0B464E
:102CA000002B0DF109063FF52FAF8342BFF6FEAEB4
:102CB0000DF10900C15C07297FF7F8AE0F20F6E699
:102CC000CBCCCC0C0000244002FCFFFFFFFF0F80A8
:102CD0000000E03F0000F07FA08601000000F03F10
:102CE00084D797410FB0BDE8F08F00002DE9F84779
:102CF00083B006468A461746984600F081FCB8F134
:102D0000000F406A356B90F8009002DC4FF001082C
:102D1000B6A74AF02000BDF93040662808BF641C01
:102D200015D0672840F0848014F1040FC0F286802B
:102D3000AC4280F2838096F83800641C010702D40C
:102D4000A845B8BF454620B22D1A48BF00250FFA46
:102D500084FAF068B169BAF1000F25DC4A1C30230F
:102D60004354002D03DC96F83800010703D5F068C2
:102D700000F80290521C15EB0A0FB8BF6C4220B24B
:102D8000441941424445B8BFA046B26171620FFA8E
:102D900088F5F561F068B3692A463946184400F0B1
:102DA000C3FA641BB462C4E022B29045084417DA47
:102DB0004246394600F0B8FAB0694044B061AAEB27
:102DC0000801002D716203DC96F838100A0705D55A
:102DD000F16801F80090F069401CF061B562A8E06C
:102DE000394600F0A1FAB069002D5044A8EB040860
:102DF00003DC96F838100A0703D5F16801F8009053
:102E0000401CB0610FFA88F08542F368B069B8BF22
:102E1000A8460FFA88F207EB0A01184400F084FA7A
:102E2000B1690FFA88F00144B161281A706280E03C
:102E3000BAF1610F14D14FF0700A16E0A84504DA18
:102E400096F838100A0758BF45466D1E48BF002542
:102E5000BAF1670F14BF4FF0450A4FF0650A04E05E
:102E6000BAF1410F08BF4FF0500AB169F368481C2E
:102E7000B061002D17F8012B5A5403DC96F8381076
:102E80000A071BD5F168431CB36101F80090002DBF
:102E900014DDA8F101080FFA88F039468542F76879
:102EA000B8BFA8460FFA88F2F81800F03DFAB069EA
:102EB0000FFA88F108446D1AB0617562F068B16963
:102EC0000844002C80F800A003D42B224270811CFF
:102ED00003E02D2141706442811C00206A460AE013
:102EE00023460A2493FBF4F404EB8405A3EB450387
:102EF00002F8013B401C24B2002CF1DC012806DC66
:102F00004AF02002652A04BF302201F8012B48B99B
:102F1000302001F8010B07E0401E1DF8003030336F
:102F200001F8013B0028F7DCF268B0691044091A87
:102F3000F16196F8380000F0140010280DD1726984
:102F4000B169706A8A18F1698218B06A8A188218A1
:102F5000706B8242BCBF821A326204B0BDE8F08757
:102F6000F8B505460E4617461C46002074B117F802
:102F7000011BB068A847B06030B1F06A401CF06235
:102F80000020641EF3D1F2BD4FF0FF30F2BD00000F
:102F90007072696E74665F733A20256E206469737F
:102FA000616C6C6F776564007072696E74663A204C
:102FB00062616420256E20617267756D656E7400B4
:102FC0007072696E74665F733A2062616420257363
:102FD00020617267756D656E740000006E616E0031
:102FE0004E414E00696E6600494E46003000704703
:102FF000FEE7FEE7FEE77047704770470278C9B208
:103000008A421AB11CBF10F8012FF9E718BF00203F
:103010007047000080B500B906A005490B681BB1D8
:1030200022220021984701E000F0EEFA222002BDA2
:1030300094560020636F6E73747261696E742068B9
:10304000616E646C65723A20626164206D657373B1
:103050006167650000F10103810704D010F8011BCE
:10306000820781B1FAD10268A2F10131914311F0D6
:10307000803104BF50F8042FF6E709BAB1FA81F1A4
:1030800000EBD100401CC01A70470000C9B2830792
:1030900006D0521E22D310F8013B9942F7D11FE00F
:1030A000083A13D302F1040241EA012141EA014145
:1030B00050F8043B121F21BF4B40A3F1013C2CEA06
:1030C000030C1CF0803FF3D0C9B2001F083210F887
:1030D000013B521E28BF91EA030FF8D818BF012008
:1030E000401E7047BBBBE1B1B2F5803F80F07E80EF
:1030F000022A1ED98C46B1FBF2F102FB11C31B045C
:1031000043EA1043B3FBF2FC02FB1C3380B240EAFB
:103110000343B3FBF2F002FB103240EA0C40002301
:103120007047022A05D98446B0FBF2F002FB10C2B8
:1031300070474AB105D100F0010249085FEA30004A
:10314000704700220023704700F062BA0B000200B3
:10315000002100207047904271EB030CF6D3B3F5C9
:10316000803F2FD2F0B5B3FA83F7B1FA81F4A7F11B
:103170000F0E3D1B5340CEF1200602FA0EF2F34132
:103180005340B5F10F0746D80F3C2C444140C4F1E1
:103190002006A040F1414140B1FBF3F603FB1611BC
:1031A000A2FB0645001BA94102D2761E8018594198
:1031B00080EA010221FA0EF362FA0EF200215A406F
:1031C0003046F0BD30B4B1FBF3FC03FB1C11A2FB95
:1031D0000C45001BA94103D2ACF1010C80185941E8
:1031E00030BC02460B46604600217047B2F1807F3A
:1031F00065D3F0B5B2FA82F7B1FA81F4C7F10F06E0
:103200003D1B22FA06F307F1110EF24120355A4018
:10321000B5F10F07B8D94140C4F12006A040F141F3
:103220004140B1FBF3FC03FB1C11A2FB0C45001B4E
:10323000A94103D2BCF1010C801859410F2F12D3C0
:103240000F3FC90341EA5041B1FBF3F603FB1611EE
:10325000A2FB0645D4EBC030A94102D2761E8018ED
:10326000594146EACC3C07B34140C7F12006B8407B
:10327000F1414140B1FBF3F603FB1611A2FB0645F9
:10328000001BA94102D2761E8018594180EA010232
:1032900021FA0EF3C7F1200462FA0EF20CFA07F0DD
:1032A0005A402CFA04F13043F0BD80EA010221FAC1
:1032B0000EF3002162FA0EF260465A40F0BD8C46D1
:1032C000B1FBF2F102FB11C31B0243EA1063B3FB33
:1032D000F2FC02FB1C331B024CEA002043EA1063A1
:1032E000B3FBF2FC02FB1C331B024CEA002043EA56
:1032F0001063B3FBF2FC02FB1C331B024CEA002000
:1033000043EA1063B3FBF2FC02FB1C324CEA0020E0
:103310000023704741EC100B43EC112B20EE010B06
:1033200051EC100B7047000062B38B0708D0521E9F
:1033300011F8013B00F8013B00F024808B07F6D127
:10334000830740F0208000BF103A07D330B4B1E8C3
:103350003810103AA0E83810F9D230BC530724BF17
:10336000B1E80810A0E8081044BF51F8043B40F849
:10337000043BD20724BF31F8022B20F8022B44BFB4
:103380000B7803707047121F17D35B0009D151F8F7
:10339000043B20F8023B1B0C121F20F8023BF6D224
:1033A0000BE051F8043B00F8013B1B0A20F8023BFC
:1033B0001B0C121F00F8013BF3D238BF121D521E26
:1033C00024BF11F8013B00F8013BF8D8704700001A
:1033D00010B5144600F002F8226010BDC1F30A5384
:1033E00043B14A0012F5001F28D2A3F2FE32A1EB2E
:1033F0000251704750EA410C20D001F0004C31EAF4
:103400000C01B1FA81F204BFB0FA80F3D2180B3A82
:10341000B2F120032CBF00FA03F1914041EA0C0104
:103420003EBFC2F1200C20FA0CF3194390405242E7
:1034300040F2FD33D21A01EB03517047002270476E
:103440004FF4001C1CEB410F94BF1CEB430F09E031
:1034500041EA030C50EA4C0C52EA0C0C03D299429C
:1034600008BF9042704714BF8B42824270470000F1
:103470004FF4001C1CEB410F94BF1CEB430F09E001
:1034800041EA030C50EA4C0C52EA0C0C03D28B427A
:1034900008BF8242704714BF9942904270470000B3
:1034A00041EC100B104600B500F004F851EC100B85
:1034B00000BD0000020030EE101B40F2FF7C37D44C
:1034C0001CEA115313D063456BD09B18634504D29B
:1034D00001EB025120EE101B704701F0004141EA60
:1034E0000C51002041EC100BAFF30080704710EE40
:1034F000100B50EA410054D0B2F57F7F08D202EBA6
:103500005C010905002041EC110B20EE010B704716
:103510004FF0FE41002341EC113B20EE010BB2F5D0
:103520007E7230EE101B4FEA410342EB5353CDE75E
:1035300052421CEA115316D0634532D09A4204D24B
:10354000A1EB025120EE101B70475B1ED21AA1EBBB
:10355000035120EE101B372A0CD3002001F000414C
:1035600041EC100BC0E710EE100B50EA410018D0F0
:10357000372AF2D2C2EB5C021105002041EC110B9C
:10358000F1EE100A20F01F0121F4F851E1EE101ABB
:1035900020EE010BF1EE101AE1EE100A11F0080F07
:1035A000A2D1704741EC100BBDEEC00B10EE100A1B
:1035B000704700EE100AB8EEC00B51EC100B7047CC
:1035C00041EC100B43EC112B30EE410B51EC100B86
:1035D000704741EC100B43EC112B80EE010B51ECCA
:1035E000100B704741EC100BBCEEC00B10EE100A34
:1035F000704700EE100AB8EE400B51EC100B70470C
:10360000004870470C000020012000F003B80000C3
:103610007047000080B5AFF30080024A1100182007
:10362000ABBEFBE72600020010B50400002C01D160
:10363000012037E0A0690028FFD1D4F880000028DD
:1036400005D1002084F87C00200000F0EBFB242052
:10365000C4F88000206800684008400021680860C5
:10366000200000F020F8012801D101201AE0A06A12
:10367000002802D0200000F0AFFA2068406830F443
:103680009040216848602068806830F02A002168F6
:1036900088602068006850F0010021680860200000
:1036A00000F007FB10BD70B586B004000025DFF800
:1036B0002C1720688842FFD0A26820690243606905
:1036C0000243E0690243606E024320680368DFF84A
:1036D000100703401A43206802602068426832F4F1
:1036E0004052E068024320684260A2692068884234
:1036F00001D0206A024320688368DFF8E8060340AF
:103700001A43206882602068C26A12091201606A46
:1037100002432068C2622068DFF8CC2690421FD1A5
:10372000DFF8C806006810F0380000280AD0082822
:103730000AD010280AD018280AD020280AD0282811
:103740000AD00BE0012024E1042022E1082020E13E
:1037500010201EE120201CE140201AE1802018E109
:103760002068DFF88C2690421DD1DFF880060068C3
:1037700010F00700002808D002280AD007D3042838
:103780000BD008D305280AD00BE0002001E104206B
:10379000FFE00820FDE01020FBE02020F9E04020C1
:1037A000F7E08020F5E02068DFF8482690421DD140
:1037B000DFF83806006810F00700002808D002285B
:1037C0000AD007D304280BD008D305280AD00BE071
:1037D0000020DEE00420DCE00820DAE01020D8E061
:1037E0002020D6E04020D4E08020D2E02068DFF81E
:1037F000082690421DD1DFF8F405006810F007009C
:10380000002808D002280AD007D304280BD008D3F8
:1038100005280AD00BE00020BBE00420B9E0082016
:10382000B7E01020B5E02020B3E04020B1E08020D8
:10383000AFE02068DFF8C42590421DD1DFF8AC0569
:10384000006810F00700002808D002280AD007D32B
:1038500004280BD008D305280AD00BE0002098E0FC
:10386000042096E0082094E0102092E0202090E0D0
:1038700040208EE080208CE02068DFF88425904294
:103880001FD1DFF86805006810F0380000280AD062
:1038900008280AD010280AD018280AD020280AD0D0
:1038A00028280AD00BE0012073E0042071E00820F2
:1038B0006FE010206DE020206BE0402069E0802068
:1038C00067E02068DFF83C2590421DD1DFF81C0539
:1038D000006810F00700002808D002280AD007D39B
:1038E00004280BD008D305280AD00BE0002050E0B4
:1038F00004204EE008204CE010204AE0202048E060
:10390000402046E0802044E02068DFF8FC2490421C
:103910001DD1DFF8D804006810F00700002808D097
:1039200002280AD007D304280BD008D305280AD0D0
:103930000BE000202DE004202BE0082029E01020DF
:1039400027E0202025E0402023E0802021E020689F
:1039500088421DD1DFF8B404006810F00700002889
:1039600008D002280AD007D304280BD008D3052892
:103970000AD00BE002200CE004200AE0082008E056
:10398000102006E0202004E0402002E0802000E03B
:10399000802022688A4263D1C0B202280AD004285B
:1039A0000BD008280ED0102811D020281ED0402877
:1039B0001FD021E0FDF782F920E003A8FDF794F97C
:1039C00004981BE06846FDF795FA019816E0DFF8C9
:1039D00040140868800606D5DFF838040968C1F38A
:1039E000C101C84001E0DFF82C0407E0DFF828043B
:1039F00004E04FF4004001E000200125002800F021
:103A0000DC80DFF81834616A33F81110B0FBF1F292
:103A1000666803214E43B24205D366684FF4805175
:103A20004E43964201D20125C7E0616A33F8111076
:103A3000B0FBF1F24FF48073606840080021E3FBB3
:103A4000020162680023FFF74DFBB0F54071DFF81B
:103A5000D023914202D22168C860AEE00125ACE0DB
:103A6000E169B1F5004F57D1C0B200280CD0012850
:103A70000DD004280ED0082811D0102814D02028EA
:103A800021D0402822D024E0FDF7BFFE23E0FDF73F
:103A9000C9FE20E003A8FDF727F904981BE068465B
:103AA000FDF728FA019816E0DFF86413086880062D
:103AB00006D5DFF860030968C1F3C101C84001E021
:103AC000DFF8500307E0DFF8500304E04FF4004054
:103AD00001E00020012500286FD0DFF84013626A62
:103AE00031F81210B0FBF1F06168490811EB4001A8
:103AF0006068B1FBF0F080B24FF6F071B0F11002E7
:103B00008A4207D20140C0F34200014389B22068D3
:103B1000C16052E0012550E0C0B200280CD001285D
:103B20000DD004280ED0082811D0102814D0202839
:103B300021D0402822D024E0FDF767FE23E0FDF7E6
:103B400071FE20E003A8FDF7CFF804981BE068465B
:103B5000FDF7D0F9019816E0DFF8B4120868800686
:103B600006D5DFF8B0020968C1F3C101C84001E021
:103B7000DFF8A00207E0DFF8A00204E04FF4004005
:103B800001E000200125002817D0DFF89012626ABA
:103B900031F81210B0FBF1F0616810EB5100616870
:103BA000B0FBF1F080B2B0F110014FF6F07291422B
:103BB00002D22168C86000E001250120A4F86A0053
:103BC0000120A4F868000020E0660020206728009B
:103BD000C0B206B070BD000090F82810C90707D524
:103BE00001684A6832F40032C16A0A4301684A60D7
:103BF00090F82810890707D501684A6832F48032A6
:103C0000016B0A4301684A6090F82810490707D5FC
:103C100001684A6832F48022416B0A4301684A60B5
:103C200090F82810090707D501684A6832F4004265
:103C3000816B0A4301684A6090F82810C90607D5CD
:103C400001688A6832F48052C16B0A4301688A6055
:103C500090F82810890607D501688A6832F4005266
:103C6000016C0A4301688A6090F82810490613D550
:103C700001684A6832F48012416C0A4301684A6064
:103C8000416CB1F5801F07D101684A6832F4C00267
:103C9000816C0A4301684A6090F82810090607D52C
:103CA00001684A6832F40022C16C0A43006842602D
:103CB000704738B504000020C4F88800FDF74AFBBF
:103CC00005002068006800070DD57FF07E40009059
:103CD0002B0000225FF40011200000F021F80028E2
:103CE00001D003201BE02068006840070DD57FF05D
:103CF0007E4000902B0000225FF48001200000F045
:103D00000FF8002801D0032009E02020C4F880002B
:103D10002020C4F88400002084F87C00002032BDFC
:103D20002DE9F04105000E0090461F00069C286812
:103D3000C0693040B04201D1012000E0002041467E
:103D4000C9B2884246D114F1010FF0D0FDF702FB51
:103D5000C01B844201D3002C16D12868006830F4BF
:103D6000D070296808602868806840084000296889
:103D700088602020C5F880002020C5F8840000203D
:103D800085F87C00032026E0286800684007CED52F
:103D90002868C0690005CAD54FF400602968086228
:103DA0002868006830F4D070296808602868806846
:103DB00040084000296888602020C5F88000202045
:103DC000C5F884002020C5F88800002085F87C0014
:103DD000032000E00020BDE8F0810000000C005846
:103DE000F369FFCFFFF4FF11001001405444025863
:103DF0000044004000480040004C0040005000409B
:103E00000014014000780040007C004058440258F3
:103E1000004402580090D00300093D00DC73000804
:103E200000FD0F007047000038B50400FDF792FA5E
:103E30000500002C01D101204DE0206A402894F8B3
:103E40004100002807D1200000F048FB41F28831F2
:103E5000200000F0F1F92068006830F47060A1687B
:103E6000491E50EA012021680860A06C00902B00D8
:103E700000222021200000F0E1F90100C9B2002950
:103E800028D121680A68DFF8E8120A40616852EA1E
:103E90000162E1680A43E1690A43216A0A43216831
:103EA0000A6021684A68DFF8CC120A40216952EAA8
:103EB000014261690A43A1690A4321684A60216895
:103EC000096851F00101226811600021616401213B
:103ED00084F84110C0B232BD10B50400002C01D1ED
:103EE00001200EE02068006840084000216808605A
:103EF000200000F082FB00206064002084F8410074
:103F0000002010BD2DE9FC4105000F001600FDF753
:103F100021FA0400B8690028F8690028386A0028E6
:103F200095F84000012801D102203DE0012085F8EC
:103F3000400095F8410001282FD10020686402203C
:103F400085F841000096230000222021280000F07F
:103F500075F980464046C0B2002820D100223900C1
:103F6000280000F093F9786A002812D10096230007
:103F700001220221280000F061F980464046C0B2CB
:103F800000280CD102202968C860012085F8410072
:103F900005E0012085F8410001E05FF00208002003
:103FA00085F840004046C0B2BDE8F6812DE9F843EF
:103FB00005000C0016000027FDF7CCF980462868A4
:103FC00010F1200995F84000012801D1022059E0A4
:103FD000012085F8400095F8410001284CD10020CF
:103FE0006864002C42D0122085F8410028680069DE
:103FF000401CE86228680069401CA8626C6228685E
:10400000406930F040602968486109E0686A0078DA
:1040100089F80000686A401C6862E86A401EE8622D
:10402000E86A00280BD000964346012204212800AC
:1040300000F004F907003800C0B20028E6D03800CC
:10404000C0B200280ED1009643460122022128006A
:1040500000F0F4F807003800C0B2002802D10220B6
:104060002968C860012085F8410006E0686C50F0BE
:1040700008006864012700E00227002085F840005E
:104080003800C0B2BDE8F2832DE9F84305000C000A
:1040900016000027FDF75EF98046286880692968C8
:1040A00011F1200995F84010012901D102205DE0AD
:1040B000012185F8401095F84110012950D10021C7
:1040C0006964002C46D0222185F8411029680969CD
:1040D000491CA96329680969491C69632C6329681B
:1040E000496931F0406151F080612A685161296865
:1040F000886109E099F80000296B0870286B401C62
:104100002863A86B401EA863A86B00280BD00096FC
:10411000434601220621280000F090F807003800ED
:10412000C0B20028E6D03800C0B200280ED10096F8
:10413000434601220221280000F080F807003800E1
:10414000C0B2002802D102202968C860012085F889
:10415000410006E0686C50F008006864012700E048
:104160000227002085F840003800C0B2BDE8F28385
:104170002FFFFF00FEF8E0FF2DE9FC4104000D00D9
:1041800016001F00FDF7E6F88046A8690028E869D8
:104190000028286A002894F84000012801D1022054
:1041A00048E0012084F8400094F8410001283CD107
:1041B00000206064422084F84100009743460022BA
:1041C0002021200000F03AF80100C9B200292DD1C9
:1041D000306821688862706821684862B068216828
:1041E000C8622068016831F440013069014351F42C
:1041F000800120680160F068A8625FF00062290019
:10420000200000F043F800974346012208212000D7
:1042100000F014F80100C9B2002907D10821226872
:10422000D160012184F8411000E00220002184F8CF
:104230004010C0B2BDE8F681816470472DE9F041BD
:1042400005000E0090461F00069C286880683042DA
:1042500001D0012000E000204146C9B2884212D0BE
:1042600014F1010FF1D0FDF775F8C01B844201D3A2
:10427000002CEAD1042085F84100686C50F0010060
:104280006864012000E00020BDE8F08110B44B6AB2
:10429000002B06D0B2F1406F03D08B6A5B1E04681E
:1042A00023618B69002B79D00B6A002B3ED08B6881
:1042B0000468E361CB69002B20D0CC6A0B6B1C43F4
:1042C0004B6B1C434B6A1C434B6954EA83440B6998
:1042D0001C430B6A1C43CB681C43CB691C438B6992
:1042E0001C430B681C43144303685C61B2F1406FCC
:1042F00000F0C680496800688161C1E0CC6A0B6B40
:104300001C434B6B1C434B6A1C434B6954EA83446C
:104310000B691C430B6A1C43CB691C438B691C4310
:1043200009680C43224300684261A9E0CB69002B75
:104330001ED0CC6A0B6B1C434B6B1C434B6A1C435B
:104340004B6954EA83440B6A1C43CB681C43CB691A
:104350001C438B691C430B681C43144303685C615A
:10436000B2F1406F00F08C8049680068816187E09D
:10437000CC6A0B6B1C434B6B1C434B6A1C434B6955
:1043800054EA83440B6A1C43CB691C438B691C436E
:1043900009680C4322430068426171E00B6A002BFC
:1043A00039D08B680468E361CB69002B1DD0CC6ADF
:1043B0000B6B1C434B6B1C434B6A1C434B6954EA0D
:1043C00083440B691C430B6A1C43CB681C43CB69B9
:1043D0001C438B691C43144303685C61B2F1406F5A
:1043E0004ED04968006881614AE0CC6A0B6B1C437F
:1043F0004B6B1C434B6A1C434B6954EA83440B6967
:104400001C430B6A1C43CB691C4389690C43224340
:104410000068426134E0CB69002B1BD0CC6A0B6B87
:104420001C434B6B1C434B6A1C434B6954EA83444B
:104430000B6A1C43CB681C43CB691C438B691C4330
:10444000144303685C61B2F1406F19D04968006899
:10445000816115E04B6A002B12D0CC6A0B6B1C43B8
:104460004B6B1C434B6A1C434B6954EA83440B6AF5
:104470001C43CB691C4389690C4322430068426199
:1044800010BC704710B5DFF8AC44DFF8AC04206016
:104490002000FFF721FD002804D05A21DFF89C04FA
:1044A00000F008FB012060602020A0601020E06088
:1044B000192020614FF4807060610020A06100200D
:1044C000E061002020622000FFF7AEFC002804D04D
:1044D0007F21DFF8680400F0EDFA10BD10B586B05A
:1044E000DFF85C04016851F480410160006810F459
:1044F000804005900598DFF84C04016851F4804134
:104500000160016831F480410160DFF83C0401681A
:1045100051F040010160016811F0400105910599D9
:10452000016851F020010160016811F0200105913E
:104530000599016851F020010160016811F0200126
:1045400005910599016851F020010160016811F0A1
:10455000200105910599016851F020010160016871
:1045600011F0200105910599016851F020010160C9
:10457000006810F02000059005984020009002206F
:10458000019001200290032003900A2004906946C4
:10459000DFF8B80300F040FB4FF48060009000208B
:1045A000029009200490DFF8A8436946200000F03B
:1045B00033FB4FF4807000900A200490694620007D
:1045C00000F02AFB4FF4007000900A200490694626
:1045D000200000F021FB8020009009200490694613
:1045E000200000F019FB402000900920049069464B
:1045F000200000F011FB06B010BD10B54021DFF81F
:104600004C0300F016FCDFF848434FF480612000B3
:1046100000F00FFC4FF48071200000F00AFC4FF412
:104620000071200000F005FC8021200000F001FC5A
:104630004021200000F0FDFBDFF80803016851F481
:1046400080410160016831F480410160DFF8F002CF
:10465000016831F48041016010BD38B58EB00400AE
:104660006846382100F0C2FCDFF8C852280000F08C
:10467000B2F84FF4807006904FF440500390002041
:10468000089000200B9000200C9000200D9021201D
:1046900000904FF480600790019400200990002062
:1046A000059042F2107269462800FFF72BFC0028A3
:1046B00003D0FB21A14800F0FDF9280000F0B6F876
:1046C0000FB030BDF8B58EB004000D00160068467E
:1046D000382100F08BFC974F380000F07CF84FF445
:1046E000807006904FF44050039000200890002006
:1046F0000B9000200C905FF080500D9034200090C3
:10470000002005904FF4806007905FF040700990A2
:10471000B6B20A96019542F210752A006946380031
:10472000FFF7F0FB002804D040F24B11834800F063
:10473000C1F92A0021003800FFF738FC002804D016
:104740004FF4A9717D4800F0B5F9380000F06EF81B
:1047500001200FB0F0BD70B58EB005000E00140042
:104760006846382100F042FC4FF4807006904FF408
:10477000405003900020089000200B9000200C90E7
:1047800000200D90EC200090062005904FF4406032
:1047900007905FF0407009900A940196654C42F2D0
:1047A0001076320069462000FFF7ACFB002804D0E9
:1047B00040F27D11614800F07DF9320029002000AF
:1047C000FFF762FC002804D040F283115B4800F040
:1047D00071F90EB070BD80B58EB06846382100F01A
:1047E00005FC4FF4807006904FF440500390002079
:1047F000089000200B9000200C9000200D900620C7
:10480000009000200790002009900020059042F2BF
:10481000107269464748FFF775FB002804D040F244
:10482000A311464800F046F90FB000BD80B594B022
:1048300006A8382100F0DAFB6846182100F0D6FB04
:104840004FF480700C904FF44050099000200E906F
:104850000020119000201290002013900520069057
:1048600000200D905FF080700F9000200B900120D1
:10487000019000200090002004900120039010205F
:1048800002905FF48000059042F210736A4606A918
:104890002848FFF771FC002804D040F2CD112748CA
:1048A00000F008F915B000BD30B58FB001A838216F
:1048B00000F09CFB4FF4807007904FF44050049040
:1048C0000020099000200C9000200D9000200E90F8
:1048D0009F200190002008905FF080700A900020D7
:1048E000069003200B90134C42F210752A0001A988
:1048F0002000FFF707FB002804D040F215210F48E5
:1049000000F0D8F82A0069462000FFF7BDFB002818
:1049100004D040F21A21094800F0CCF89DF80010AC
:104920009DF80100000250EA01409DF80210084382
:104930000FB030BD9055002000500052406B000871
:10494000D44402587C440258E044025800180258EB
:104950000014025880B500F0B1F800F0FFF8FDF740
:10496000EFFA00F00FF800F045FB00F0BAFB00F0A2
:1049700027FD00F0E3FE01F0FDF901F0E7FAFFF793
:1049800081FD01BD80B59CB001A8202100F02EFB67
:1049900009A84C2100F02AFB0020022001F038FB7E
:1049A000002000908E4801684908490001600068B5
:1049B00010F0010000908B48016851F44041016003
:1049C000016811F440410091009901688904FCD507
:1049D000012009905FF480300A9000200C900020A4
:1049E0001090022012900220139005201490A02015
:1049F0001590022016900220189004201790002095
:104A00001A900820199000201B9009A8FCF742FF7B
:104A1000C0B2002803D09121734800F04BF83F202A
:104A20000190032002900020039008200490402071
:104A30000590402006904FF4806007904020089039
:104A4000032101A8FCF78CFCC0B2002803D0AC21E4
:104A5000654800F02FF86548016851F08001016059
:104A60006348016851F002010160006810F0020023
:104A700000900098FDF793FA5E48016851F00051EC
:104A80000160016811F0005100910099016851F036
:104A900080410160016811F0804100910099016836
:104AA00051F000410160006810F000400090009853
:104AB0001DB000BD002900D17047FEE7F8B5FDF735
:104AC00023FB01208DF800005FF0105001901220B0
:104AD0008DF8080003208DF80B0000208DF80F00E2
:104AE00000208DF80E0000208DF80D0000208DF8BC
:104AF000010001208DF80A0000208DF80900002037
:104B00008DF80C006846FDF718FB01208DF80000B9
:104B10005FF0C04001900F208DF8080003208DF851
:104B20000B0001208DF80F0000208DF80E000020F2
:104B30008DF80D0001208DF8010000208DF80A008D
:104B400000208DF8090000208DF80C006846FDF764
:104B5000F4FA0420FDF7E3FA05B000BD30B42649AD
:104B60000868800312D4BFF34F8FBFF36F8F00200C
:104B7000224A1060BFF34F8FBFF36F8F086850F465
:104B800000300860BFF34F8FBFF36F8F0868C0031A
:104B900024D400201A4A1060BFF34F8F19480268CE
:104BA000C2F34E33C2F3C90443F6E07010EA431077
:104BB00050EA8470144D28602000441E0028F3D170
:104BC0001800431E0028EDD1BFF34F8F086850F442
:104BD00080300860BFF34F8FBFF36F8F30BC7047DA
:104BE0002C04005818480258AC6C000800440258C5
:104BF000F4440258DC44025814ED00E050EF00E0A9
:104C000084ED00E080ED00E060EF00E080B500F0B2
:104C10009BFB01BD70477047F8B402000025DFF828
:104C2000944336E05FF00A0C05E0DFF88C339A42DB
:104C3000F8D15FF0090C15F00303DBB29B001CFAFE
:104C400003FC5CEA07072B009B0846F823702368E7
:104C500083434E68F60300D50343236063688343B0
:104C60004E68B60300D5034363605FF0B046336817
:104C700083434F68FF0200D503433360DFF83C6392
:104C8000336883434F68BF0201D518430300336084
:104C90006D1C0868E840002800F0C98001260868FB
:104CA00016FA05F318400028F2D04B68012B08D003
:104CB0004B68022B05D04B68112B02D04B68122B8E
:104CC0001CD197685FF0030C2B00DBB25B001CFA71
:104CD00003FC37EA0C07D1F80CC02B00DBB25B00F9
:104CE0001CFA03FC5CEA070797605368AE40B343C5
:104CF0004E68C6F30016AE4033435360D7680326B0
:104D00002B00DBB25B0016FA03F39F43D1F808C017
:104D10002B00DBB25B001CFA03FC5CEA0707D760E0
:104D20004B68022B02D04B68122B1DD12B00DB08E5
:104D300002EB83031F6A5FF00F0C15F00703DBB271
:104D40009B001CFA03FC37EA0C07D1F810C015F0E1
:104D50000703DBB29B001CFA03FC5CEA07072B008D
:104D6000DB0802EB83031F6217682B00DBB25B00DA
:104D70009E40B7430E7916F003062B00DBB25B00B2
:104D80009E40374317604B68DB007FF581AF8C4B4B
:104D90001E6856F002061E601B6813F002030093A3
:104DA000009B884E2B009B0856F823705FF00F0C79
:104DB00015F00303DBB29B001CFA03FC37EA0C0777
:104DC000814B9A4202D15FF0000C34E77F4B9A424C
:104DD00002D15FF0010C2EE77D4B9A4202D15FF0C9
:104DE000020C28E77B4B9A4202D15FF0030C22E7CA
:104DF000794B9A4202D15FF0040C1CE7774B9A4240
:104E000002D15FF0050C16E7754B9A4202D15FF0B4
:104E1000060C10E7734B9A4202D15FF0070C0AE7C9
:104E2000714B9A427FF401AF5FF0080C03E7F1BCCD
:104E300070472DE9F041020000245E4D68E05FF00C
:104E40000A0804E05C4B9A42F9D15FF0090814F0BB
:104E50000303DBB29B0018FA03F8C64523D12B6885
:104E600083432B606B6883436B605FF0B043D3F880
:104E700000E03EEA000EC3F800E0504BD3F800E03B
:104E80003EEA0000186014F00300C0B2800016FA79
:104E900000F023009B085CF8233033EA0000230075
:104EA0009B084CF8230003231068A4465FFA8CFC8F
:104EB0005FEA4C0C13FA0CFC5CEA00001060200066
:104EC000C00802EB800C2000C00802EB8000D0F884
:104ED00020E014F00700C0B2800086403EEA0606DB
:104EE000CCF82060D0682600F6B2760013FA06F6F9
:104EF000B043D0605068A74030EA07075760966813
:104F00002000C0B24000834036EA03039360641C73
:104F10000800E04000284BD0012717FA04F00840B1
:104F20000028F4D0DFF89CC023009B085CF823E045
:104F30000F2614F00303DBB29B0016FA03F313EA07
:104F40000E0E214B9A4202D15FF000087FE71F4B03
:104F50009A4202D15FF0010879E71D4B9A4202D1D3
:104F60005FF0020873E71B4B9A4202D15FF003081F
:104F70006DE7194B9A4202D15FF0040867E7174BBF
:104F80009A4202D15FF0050861E7154B9A4202D1BF
:104F90005FF006085BE7134B9A4202D15FF0070807
:104FA00055E7114B9A427FF44DAF5FF008084EE78A
:104FB000BDE8F08180000058002402580400005829
:104FC000F444025808040058000002580004025833
:104FD00000080258000C0258001002580014025831
:104FE00000180258001C025800200258002201F04C
:104FF0003BB800000648016851F080710160002054
:10500000044908600448016851F0010101607047DB
:10501000FCED00E0041000E0001000E0DFF81823D1
:105020000100C9B252F8311009690300DBB202EB8A
:10503000C3039B88194201D1002100E00121C0B2C5
:1050400002EBC0008079C9B2814201D1012000E0A9
:1050500000207047F8B504002000C0B208281BDA11
:105060000026FF27002508E02800C0B2FFF7D6FF82
:10507000002801D0761C2F006D1C2800C0B2082823
:10508000F2DBF6B2012E05D1FFB2E4B2A74201D1A4
:10509000012025E0002023E02000C0B208280DD127
:1050A0000020FFF7BBFF002806D00120FFF7B6FF66
:1050B000002801D0012013E0002011E0E4B2092C07
:1050C0000DD10120FFF7AAFF002806D00220FFF72C
:1050D000A5FF002801D0012002E0002000E0002010
:1050E000F2BD80B500F051F800F001F801BD10B537
:1050F00086B0DFF84802016851F0020101600168E2
:1051000011F0020100910099016851F00401016061
:10511000016811F0040100910099016851F040010B
:105120000160016811F0400100910099016851F09F
:1051300080010160016811F080010091009901680F
:1051400051F480710160006810F480700090009844
:1051500000200290002003900320049000240EE021
:1051600075482100C9B200EBC1018988019101A9EC
:105170002200D2B250F83200FFF74EFD641C20002E
:10518000C0B20828ECDB06B010BD80B56C48002129
:1051900081720021C1720021017300201FE0694962
:1051A00064220300DBB21B010B441A8102220300BC
:1051B000DBB21B010B441A7100220300DBB21B019E
:1051C0000B449A7200220300DBB21B010B44DA721B
:1051D00000220300DBB21B0119440A73401C0100CA
:1051E000C9B20A29DBDB06226421032000F01CF887
:1051F00006226421042000F017F80622642105200D
:1052000000F012F806226421062000F00DF801BD1E
:105210004B49CA7A8854C87A401CC872C87A0A288E
:1052200001DB0020C872704710B4464B0400E4B2A2
:1052300024011C4421810100C9B209011944CA7228
:105240000021C0B200011844017310BC704738B58A
:1052500004003C482100C9B2090100EB010520000F
:10526000C0B2FFF7F7FE002846D02879052802DAF9
:10527000052028715EE028790A2803DA2879401C85
:10528000287157E0A87A00280AD10120A8722100CD
:10529000C9B203204143491C0800C0B2FFF7B8FF60
:1052A0002889002846D0E888298988420FD2E888D2
:1052B000401CE880E888298988423BD1E4B2032079
:1052C0004443E41C2000C0B2FFF7A2FF32E0E87ABA
:1052D00000282FD0287B401C2873287BE97A88423D
:1052E00028D300202873E4B203204443641C200028
:1052F000C0B2FFF78DFF1DE02879062802DB0520EC
:10530000287113E02879002803D02879401E2871DD
:105310000CE0A87A012809D10020A872E4B2032089
:105320004443A41C2000C0B2FFF772FF0020E880B5
:105330000020287331BD0000FC6C0008E0440258D6
:1053400064560020A054002010B5002404E0200082
:10535000C0B2FFF77CFF641C2000C0B20A28F6DB55
:1053600010BD0000020012B2002A05D40901DFF8C6
:10537000602300B2115408E00901DFF8582300B29D
:1053800010F00F00104400F8041C704780B5411E57
:10539000B1F1807F01D3012011E0401EDFF8381306
:1053A00008600F215FF0FF30FFF7DCFF0020DFF81F
:1053B0002C1308600720DFF828130860002002BDC6
:1053C00010B500201BE00C21DFF818230300DBB22E
:1053D0004B43134400245C600300DBB24B43134493
:1053E00000249C600300DBB24B43134400245C7038
:1053F00000230400E4B201FB04F15354401C0100FB
:10540000C9B20429DFDBDFF8E00200684FF47A71EB
:10541000B0FBF1F0FFF7BAFF0120DFF8D0120870FF
:1054200000F0A0F810BD10B5DFF8C412086800281D
:1054300008D00868401E0860002803D10120DFF86A
:10544000B412087000240AE0DFF898122200D2B2E9
:105450000C20424301EB020000F020F8641C200005
:10546000C0B20428F0DBDFF890020168491C01603B
:1054700001687FF00042914201D100210160FFF7F5
:10548000C9FBDFF878020178491C017001780A290C
:1054900003DB00210170FFF7B9FB10BD4168002953
:1054A0000BD04168491E4160002906D1012141709D
:1054B0000178012901D181684160704710B502006F
:1054C000D2B2042A06DBDFF844228E498E4800F06F
:1054D000E5FDFEE7012282F310880C22814B0400D7
:1054E000E4B254431C4461600400E4B254431C44DD
:1054F000A1600100C9B25143194400244C7001213C
:10550000C0B250431954002080F3108810BD010030
:10551000C9B2042901DB002010E00C21714A03000C
:10552000DBB24B4313445B78012B06D1C0B2484336
:10553000104400214170012000E00020704701204C
:1055400080F310886C480068002181F31088704750
:1055500080B500F0B7FD65480078002801D0FFF75E
:1055600062FF01BD80B594B001A84C21FFF73EFD5C
:105570005FF0804066490A6852F001020A600968DB
:1055800011F0010100910099624988420BD06249F3
:10559000884208D06149884205D06149884202D0DA
:1055A0006049884203D150490A68520802E04E49D6
:1055B0000A6852084FF6FF71514BB2FBF3F28A189A
:1055C000B0F1804F02D0584B984202D15FF0FF31CA
:1055D000FFE7019092B20292049100200590002012
:1055E0000390002006908020079001A800F076FD2F
:1055F000002804D04FF40C714248FFF75BFA0222F6
:1056000000211C20FCF767FD1C20FCF774FD01A89D
:1056100000F0A1FD15B000BD10B5002000205FF026
:105620008044216911F00201E06810F0020089B2A3
:1056300000290BD080B2002808D04FF6FD70206101
:10564000E1680840E060394800688047216911F04E
:105650000401E06810F0040089B200290BD080B288
:10566000002808D04FF6FB702061E1680840E06038
:105670002F4800688047216911F00801E06810F0A8
:10568000080089B200290BD080B2002808D04FF65C
:10569000F7702061E1680840E060264800688047B4
:1056A000216911F01001E06810F0100089B20029A2
:1056B0000BD080B2002808D04FF6EF702061E1686F
:1056C0000840E0601C480068804710BD00000000F2
:1056D00000E400E018ED00E014E000E018E000E075
:1056E00010E000E0DC550020040000209956002066
:1056F00088560020985600208C5600209A5600208C
:1057000040420F00546C000818720008187400081A
:10571000E8440258000001400004014000400140FC
:105720000044014000480140000C00407856002031
:105730007C560020805600208456002080B500F062
:1057400090F800F0FFF800F064F801BD80B50100AA
:10575000C9B2002902D1DFF8B00530E00100C9B2BA
:10576000012901D100202AE00100C9B2022902D199
:10577000DFF8980523E00100C9B2032901D1002018
:105780001DE00100C9B2042901D1002017E0010089
:10579000C9B2052901D1002011E00100C9B20629D2
:1057A00001D100200BE0C0B2072801D1002006E0A3
:1057B0004FF48E71DFF85805FFF77CF9002002BD29
:1057C00070B50D001600C0B2FFF7C0FF0400002C3A
:1057D0000AD0E069002801D0E0698047320092B227
:1057E0002900200000F063F970BD02B5012269466E
:1057F000C0B2FFF7E5FF01BD10B50C00C0B2FFF766
:10580000A5FF002801D1002002E0210000F096F958
:1058100010BD80B586B0DFF80405016851F00201C3
:105820000160006810F002000090009801200290D2
:1058300000200390032004900420019001A9DFF8C8
:10584000E004FFF7E9F907B000BD0420DFF8D41445
:10585000086070475FF48020DFF8C8140860704764
:105860007047DFF8A404DFF8AC140160DFF8B81467
:105870004160DFF8B81481604FF480618181C1819B
:1058800000220282002242820022C282002202837F
:1058900000224283002282820022C2610022026230
:1058A00000224262002280F82820DFF86004DFF83E
:1058B00068240260DFF878244260DFF87824826090
:1058C0008181C18100210182002141820021C182A8
:1058D000002101830021418300218182DFF85814D7
:1058E000C161DFF858140162DFF8541441620021ED
:1058F00080F828107047F0B5A3B006000F00140020
:105900001D0068468C21FFF771FB0096019700206F
:10591000029000200390049400200690059500203A
:1059200007900020089000200A906846FDF77CFE52
:10593000002805D040F22631DFF8D403FFF7BAF88B
:1059400023B0F0BD78B5B5B00120069000202490BA
:1059500006A8FAF7A1FCDFF8C443206850F0010064
:105960002060206810F0010005900598206850F034
:1059700001002060206810F0010005900598DFF814
:10598000C403016851F010010160006810F01000BC
:10599000059005984FF400700090022001900120BE
:1059A00002900320039007200490DFF89C6369466F
:1059B0003000FFF731F94FF480650095072004901F
:1059C00069463000FFF728F9002204212520FCF762
:1059D00082FB2520FCF78FFBCE4E0C2300225FF4C8
:1059E000E1313000FFF787FFDFF86003016851F015
:1059F00040010160DFF85803016851F008010160BF
:105A0000306850F020003060206850F002002060C4
:105A1000206810F0020005900598206850F0020000
:105A20002060206810F0020005900598C9480168C0
:105A300051F480210160006810F4802005900598E1
:105A4000009502200190012002900320039007207E
:105A50000490B34C69462000FFF7DEF84FF4006075
:105A600000900720049069462000FFF7D5F8032234
:105A700004212720FCF72FFB2720FCF73CFBA64C3A
:105A80000C2300224FF416512000FFF734FFB248D8
:105A9000016851F040010160B048016851F008010F
:105AA0000160206850F02000206036B070BDF8B46E
:105AB000002335E0BDF800408589AC4209D1046877
:105AC0002468240605D40468246854F0800405681A
:105AD0002C60012585F31088848AADF800400024ED
