:020000040800F2
:10000000B01500209D010008DB17000871070008EB
:10001000D9170008830700088D230008000000009E
:10002000000000000000000000000000A91B000804
:100030007D0B000800000000DD170008AD1B000864
:10004000B7010008B7010008B7010008B7010008B0
:10005000B7010008B7010008B7010008B7010008A0
:10006000B7010008B7010008B7010008B701000890
:10007000B7010008B7010008B7010008B701000880
:10008000B7010008B7010008B7010008B701000870
:10009000B7010008B7010008B7010008B701000860
:1000A000B7010008B7010008B7010008B701000850
:1000B000411D0008B7010008B7010008B70100089A
:1000C000B7010008B7010008B7010008B701000830
:1000D000B7010008B9210008B7010008B7010008FE
:1000E000B7010008B7010008B7010008B701000810
:1000F000B7010008B7010008B7010008B701000800
:10010000B7010008B7010008B7010008B7010008EF
:10011000B7010008B7010008B7010008B7010008DF
:10012000B7010008B7010008B7010008B7010008CF
:10013000B7010008B7010008B7010008B7010008BF
:10014000B7010008B7010008B7010008B7010008AF
:10015000B7010008B7010008B7010008C521000871
:10016000B7010008B7010008B7010008B70100088F
:10017000B7010008B7010008B7010008000000003F
:10018000B7010008B7010008DFF80CD000F0DEFA74
:1001900000480047E7370008B015002006488047B0
:1001A00006480047FEE7FEE7FEE7FEE7FEE7FEE75C
:1001B000FEE7FEE7FEE7FEE7ED1C00088901000808
:1001C0002DE9F05F0546002092469B46884606468C
:1001D000814640241BE0284641464746224600F01F
:1001E0002FFA53465A46C01A914110D31146184669
:1001F000224600F016F82D1A67EB01084F462246FA
:100200000120002100F00DF817EB00094E41201EDF
:10021000A4F10104DFDC484631462A464346BDE8E6
:10022000F09F202A04DB203A00FA02F100207047F8
:100230009140C2F1200320FA03F319439040704724
:10024000202A06DBCB17203A41FA02F043EAE0739A
:1002500006E041FA02F3D040C2F120029140084387
:100260001946704740EA01039B0703D009E008C91B
:10027000121F08C0042AFAD203E011F8013B00F86B
:10028000013B521EF9D27047D2B201E000F8012BB7
:10029000491EFBD270470022F6E710B513460A4606
:1002A00004461946FFF7F0FF204610BD2DE9FE4F2A
:1002B000804681EA0300C00F0C46009021F0004107
:1002C00023F00045B8EB0200A94105D24046214683
:1002D00090461C460B46024623F00040104347D090
:1002E000270DC7F30A00C3F30A510290401A019088
:1002F00040286BDAC3F3130040F4801B0098924649
:1003000020B10023D2EB030A63EB0B0B0198594693
:10031000C0F140025046FFF784FF06460D465046A6
:100320005946019AFFF78CFF10EB08006141002449
:1003300087EA115284EAE7731A4340D0009A62B305
:10034000019A012A4FEA075215DC001B61EB0201FA
:100350004FF0004202EA0752CDE90042001C41F58D
:10036000801132462B4600F08AF903B0BDE8F08FC9
:1003700040462146F9E7001B61EB0201001C41F5F4
:10038000801300185B412018A2F5001747EB03010A
:1003900040EAD570B6196D4111E06D084FEA360696
:1003A00045EAC0754FEA0752001B61EB0201001CD1
:1003B00041F5801149084FEA300000195141324699
:1003C0002B4603B0BDE8F04F00F04AB90098012277
:1003D00040000023D0EB020263EBE073009821465B
:1003E0004FEAE074B8EB000061EB0401E9E783F049
:1003F00000435BE781F0004158E72DE9FE4F81EAB9
:10040000030404F0004421F0004100944FF0000B7D
:1004100023F0004350EA01045ED052EA03045BD0AB
:10042000C3F30A54C1F30A552C44A4F2F3340194E3
:10043000A0FB0254C1F3130141F48011C3F3130371
:1004400043F4801301FB024400FB034E840A970A25
:1004500044EA815447EA8357A4FB076802958D0A52
:1004600005FB07854FEA932C04FB0C542705029DDE
:100470004FEA065847EA1637B5EB08056EEB070C4E
:10048000870E920E47EA811742EA8312A7FB020108
:10049000B6EB0B0164EB00042B0D43EA0C335E1842
:1004A00044EB1C50DA465146E7FB0201C5F3130446
:1004B0004FEA0B3343EA14534FEA0432019C43EAF8
:1004C0000603A4F10C040294009CCDE900B400F0F2
:1004D000D6F803B0BDE8F08F00200146F9E72DE91A
:1004E000F04D81EA030404F0004B21F0004514466E
:1004F0004FF0000A23F0004150EA050220D054EAF0
:1005000001021DD0C5F30A570246C5F31303C1F318
:100510001300C1F30A5640F4801543F48013A7EB8F
:100520000608101BD64608F2FD3873EB050002D30F
:1005300008F1010801E092185B41B8F1000F03DAFD
:1005400000200146BDE8F08D00204FF480110646E2
:1005500084460EE0171B73EB050705D3121B63EBF4
:10056000050306434CEA010C49084FEA3000921893
:100570005B4150EA0107EDD152EA030012D082EA52
:10058000040083EA0501084305D0101BAB4106D2E5
:100590000122002306E000224FF0004302E06FF04A
:1005A000010253101AEB06004CEB085110EB0A0045
:1005B00041EB0B01BDE8F04D00F052B800F00042F5
:1005C00030F000400AD0C10D01F56071C0F3160093
:1005D00042EA0151C208400711437047002001461A
:1005E0007047000030B5041E71F1000404DB4FF0C9
:1005F0000044404264EB0101141E73F1000405DB6A
:100600001C464FF00043524263EB0403994208BF7B
:10061000904230BD30B50B46014600202022012417
:1006200009E021FA02F59D4205D303FA02F5491BC0
:1006300004FA02F52844151EA2F10102F1DC30BDD6
:10064000202A04DB203A21FA02F00021704721FA27
:1006500002F3D040C2F1200291400843194670478E
:1006600010B5141E73F1000408DA401C41F10001BA
:1006700092185B411A4301D120F0010010BD2DE911
:10068000F04D92469B4611B1B1FA81F202E0B0FA08
:1006900080F220329046FFF7C4FD04460F4640EA40
:1006A0000A0041EA0B0153465A46084313D011464B
:1006B00053EA010019D0C8F140025046FFF7C0FFCD
:1006C00005460E46504659464246FFF7AAFD0843E6
:1006D00005D0012004E020463946BDE8F08D002019
:1006E000054346EAE0762C4337430A986305E40A5B
:1006F000A0EB08000022FD0A44EA47540A3002D564
:1007000000200146E9E7010510196941DDE90845C6
:1007100000196941BDE8F04DA2E7C1F30A52C1F3E7
:10072000130140F2FF3341F480119A4202DA0020B3
:100730000146704740F233439A42A2F2334202DC50
:100740005242FFF77DBFFFF76CBD0000064C074D1E
:1007500006E0E06840F0010394E807009847103491
:10076000AC42F6D3FFF714FD883A0008A83A000817
:100770001EF0040F0CBFEFF30880EFF3098000F0C8
:10078000B9BEFEE700280BD001280BD002280BD001
:1007900003280BD004280BD005280BD0002070476D
:1007A00005487047002070470020704700207047C0
:1007B00000207047014870470010014000140140BC
:1007C00010B500280FD001280FD002280FD0032821
:1007D0000FD004280FD005280FD0E72108A000F083
:1007E000CEF9002010BD0F4810BD002010BD002024
:1007F00010BD002010BD002010BD0B4810BD000032
:100800002E2E5C2E2E5C557365725C6273705C7369
:1008100072635C6273705F756172745F6669666F44
:100820002E63000014010020400900202DE9F04152
:10083000CEB028223A4944A8FFF714FD28223849AF
:1008400028313AA8FFF70EFD28223549503126A855
:10085000FFF708FD2822324978311CA8FFF702FD76
:1008600014222F49A0310DA8FFF7FCFC14222C49BB
:10087000B43108A8FFF7F6FC052330AA3AA944A82A
:1008800002F0B9FA00240DF1C008012707EB44007B
:1008900058F82000FFF792FE05460E4658F834003F
:1008A000FFF78CFE41EC100BCDE9005653EC102BFA
:1008B00021461CA001F06CFD641CE4B2052CE5D3BC
:1008C000052312AA1CA926A802F08DFB002412AD54
:1008D00007EB440055F8342055F82030214616A087
:1008E00001F056FD641CE4B2052CF1D3052303AAE4
:1008F00008A90DA802F0F0FA002403AD07EB4400AC
:1009000035F9242035F9103021460BA001F040FDC7
:10091000641CE4B2052CF1D34EB0BDE8F0810000B8
:1009200098380008704473745B25645D203D202571
:10093000662025666A0D0A0070447374315B256475
:100940005D203D2025642025646A0D0A000000001A
:100950002DE9F041C8B028223C493EA8FFF782FCAF
:1009600014223A49283139A8FFF77CFC282237495C
:100970003C3125A8FFF776FC142120A8FFF78BFC5B
:100980001422324964311BA8FFF76CFC14222F4952
:1009900078310CA8FFF766FC14222C498C3107A88B
:1009A000FFF760FC05232FAA39A93EA802F023FA1D
:1009B00000240DF1BC08012707EB440058F8200083
:1009C000FFF7FCFD05460E4658F83400FFF7F6FD2C
:1009D00041EC100BCDE9005653EC102B21461CA026
:1009E00001F0D6FC641CE4B2052CE5D3052311AA62
:1009F0001BA925A802F0F7FA002411AD07EB44006B
:100A000055F8342055F82030214618A001F0C0FCDC
:100A1000641CE4B2052CF1D3052302AA07A90CA893
:100A200002F05AFA002402AD07EB440035F9242005
:100A300035F91030214614A001F0AAFC641CE4B280
:100A4000052CF1D348B0BDE8F08100006039000802
:100A500070436D706C784473745B25645D203D2039
:100A600025662025666A0D0A0000000070436D703F
:100A70006C78447374315B25645D203D20256420CF
:100A800025646A0D0A00000070436D706C78447331
:100A900074325B25645D203D2025642025646A0D49
:100AA0000A00000030B5B3B02822254929A8FFF775
:100AB000D9FB28222249283115A8FFF7D3FB14229D
:100AC0001F49503106A8FFF7CDFB05221FA929A811
:100AD00002F0E7F800241FAD55F82400FFF76EFD83
:100AE00041EC100B214653EC102B16A001F050FCEA
:100AF000641CE4B2052CEFD305220BA915A802F063
:100B000038F900240BAD214655F8242011A001F03E
:100B10003FFC641CE4B2052CF5D3052201A906A80C
:100B200002F0FDF8002401AD214635F914200EA095
:100B300001F02EFC641CE4B2052CF5D333B030BDBB
:100B400034380008704473745B25645D203D2025B3
:100B5000660D0A0070447374315B25645D203D208E
:100B600025640D0A0000000070447374325B256434
:100B70005D203D2025640D0A00000000704700291B
:100B800000D0FEE77047000001490120086070476F
:100B9000000427422DE9F84F0022DFF89091DFF89A
:100BA0008C8109F108094FF0010E4FF00F0C09F18B
:100BB000040A0EFA02F60B683340B34271D14C6856
:100BC000022C01D0122C11D1D40800EB84073D6A0D
:100BD0005407E40E0CFA04FB25EA0B05D1F810B01B
:100BE0000BFA04FB4BEA050BC7F820B0076854006A
:100BF0000325A540AF4391F804B00BF0030B0BFAAB
:100C000004FB4BEA070BC0F800B04F68012F05D07A
:100C1000022F03D0112F01D0122F11D18768AF43BB
:100C2000D1F80CB00BFA04FB4BEA070BC0F808B084
:100C30004768B7430E79C6F3001696403E434660B8
:100C4000C668AE438D68A5403543C5604C68E40076
:100C500065D5374C256845F480452560246804F443
:100C600080440094334C22F003052544D5F80878DD
:100C70009407260F0CFA06F4A7432F4CA04201D18B
:100C8000002424E02D4CA04201D101241FE02C4C73
:100C9000A04201D102241AE02A4CA04202D103242E
:100CA00015E03CE0284CA04201D104240FE0274C81
:100CB000A04201D105240AE0254CA04201D106241E
:100CC00005E0244CA04201D1072400E00824B440F0
:100CD0003C43C5F80848D8F800409C434D68ED03F4
:100CE00000D51C43C8F80040104D2D1D2C689C43B6
:100CF0004E68B60300D51C432C60D9F800409C43D5
:100D00004D68ED0200D51C43C9F80040DAF80040F8
:100D10009C434D68AD0200D51C43CAF80040521CEC
:100D2000102AFFF446AFBDE8F88F0000003C0140F8
:100D300044380240003001400000024000040240FC
:100D400000080240000C0240001002400014024063
:100D500000180240001C0240002A01D08161704747
:100D600009048161704700000148806870470000F5
:100D70001C0000200248816802781144816070479D
:100D80001C00002010B50B48016841F4007101609F
:100D9000016841F480610160016841F48071016083
:100DA000032000F059F80F2000F006F800F026F8B4
:100DB000002010BD003C024070B504460D4D4FF4BC
:100DC0007A712878B1FBF0F00B490968B1FBF0F0BB
:100DD00000F01AFB08B1012070BD102C07D20022D0
:100DE0002146501E00F018F86C60002070BD0120F4
:100DF00070BD00001C000020280000207047002863
:100E000009DB00F01F02012191404009800000F140
:100E1000E020C0F800117047F0B40D460D4B1B6880
:100E2000C3F30223C3F10704042C00D90424191DC1
:100E3000072901D2002300E0DB1E012606FA04F197
:100E4000491E294099409E40761E16403143F0BC11
:100E500001F0AEBA0CED00E000F00701054A1068A1
:100E60004FF6FF03184040EA012003490843106091
:100E7000704700000CED00E00000FA052DE9F04796
:100E800004460D46002C13D0DFF82491D9F8000059
:100E9000EFB200F00F00A8420CD289F80070D9F828
:100EA000000000F00F00A84204D00120BDE8F08748
:100EB0000120FBE720683F4E810712D5400703D58C
:100EC000306840F4E05030602078000703D5306887
:100ED00040F4604030603068A16820F0F0000843C2
:100EE00030602078C00731D0324960680839012865
:100EF00008D002280BD0032809D0096889070BD431
:100F00000120D3E70968890306D40120CEE70968E8
:100F1000890101D40120C9E7316821F003010143AF
:100F20003160FFF721FF804641F2883A07E0FFF782
:100F30001BFFA0EB0800504501D90320B6E730683D
:100F4000616800F00C00B0EB810FF0D1D9F800001F
:100F500000F00F00A84209D989F80070D9F8000004
:100F600000F00F00A84201D001209FE72078400741
:100F700005D53068E16820F4E050084330602078FF
:100F8000000706D53068216920F4604040EAC100BE
:100F9000306000F03BF83168074AC1F30311515C3F
:100FA000C840064908600F20FFF706FF00207DE7D4
:100FB000003C024008380240703A00082800002037
:100FC00001480068704700002800002000B5FFF7C6
:100FD000F7FF04490968044AC1F38221515CC84003
:100FE00000BD000008380240803A000800B5FFF755
:100FF000E7FF04490968044AC1F34231515CC84023
:1010000000BD000008380240803A000810B51748BB
:10101000006810F00C01164816D0164B042912D0A7
:10102000082911D1114C241F216801F03F022168C9
:1010300049020AD52068C0F38810A0FB03010023F1
:10104000FFF7BEF809E0184610BD21680023C1F380
:101050008811A1FB0001FFF7B3F82168C1F301413A
:10106000491C4900B0FBF1F010BD000008380240F7
:101070000024F40040787D012DE9F84F0446002C4F
:1010800010D02078DC4DC00757D0DB48083001680D
:10109000C1F3810101290DD00068C0F3810002284D
:1010A00003D00EE00120BDE8F88FD348001D006892
:1010B000400206D5286880033FD5606870BB0120D8
:1010C000F1E76068B0F5803F10D0B0F5A02F12D0E6
:1010D000286820F480302860286820F48020286068
:1010E0006068E0B1FFF740FE064614E0286840F46F
:1010F00080302860F4E7286840F480202860286861
:1011000040F480302860EBE7FFF72EFE801B642858
:1011100001D90320C7E728688003F5D50DE0FFF764
:1011200023FE064606E0FFF71FFE801B642801D958
:101130000320B8E728688003F5D42078AF4F8007F4
:101140004FF0000849D5AC480830016811F00C0F89
:1011500009D00068C0F38100022814D1A648001D00
:10116000006840020FD42868800704D5E068012891
:1011700001D0012097E72868216920F0F80040EAB3
:10118000C100286029E0E068B8B101203860FFF7AD
:10119000EBFD064606E0FFF7E7FD801B022801D9BC
:1011A000032080E728688007F5D52868216920F0AA
:1011B000F80040EAC10028600FE0C7F80080FFF7A0
:1011C000D3FD064606E0FFF7CFFD801B022801D9BC
:1011D000032068E728688007F5D42078000729D520
:1011E000DFF814928648616909F1740989B1012117
:1011F0000160FFF7B9FD064606E0FFF7B5FD801B6D
:10120000022801D903204EE7D9F800008007F4D561
:1012100010E0C0F80080FFF7A7FD064606E0FFF7E4
:10122000A3FD801B022801D903203CE7D9F8000068
:101230008007F4D42078400772D50026DFF8B8A1E3
:101240000AF1400ADAF80000C0000BD4DAF8000016
:1012500040F08050CAF80000DAF8000000F080503A
:1012600000900126DFF89CB1DBF80000C00515D422
:10127000DBF8000040F48070CBF80000FFF774FD4D
:10128000814607E0FFF770FDA0EB0900022801D9B5
:10129000032008E7DBF80000C005F3D5DFF858B1FC
:1012A000A0680BF1700B012813D0052818D0DBF8CB
:1012B000000020F00100CBF80000DBF8000020F077
:1012C0000400CBF80000A06830B3FFF74DFD814665
:1012D0001DE0DBF8000040F00100CBF80000F2E771
:1012E000DBF8000040F00400CBF80000DBF8000061
:1012F00040F00100CBF80000E5E7FFF735FDA0EB7B
:10130000090141F28830814201D90320CBE6DBF8A4
:1013100000008007F1D512E0FFF726FD81460AE0C4
:1013200015E0FFF721FDA0EB090141F28830814271
:1013300001D90320B7E6DBF800008007F1D4012EC5
:1013400005D1DAF8000020F08050CAF80000A0694A
:10135000C0B3294908310968C1F38101022949D084
:10136000022805D0C7F86080FFF7FEFC04463CE089
:10137000C7F86080FFF7F8FC064606E0FFF7F4FCCC
:10138000801B022801D903208DE628688001F5D44E
:10139000D4E907010843616AA26A4FF0FF3389016B
:1013A00003EB520241EA0241084394F82C1040EA50
:1013B00001611148001D016001203866FFF7D4FC6F
:1013C000044607E014E0FFF7CFFC001B022801D918
:1013D000032068E628688001F5D509E0FFF7C4FC22
:1013E000001B022801D903205DE628688001F5D49E
:1013F000002058E6012056E600380240000047422F
:10140000800E47420070004010B5401EB0F1807F52
:1014100001D3012010BD4FF0E02460610F2160175F
:1014200000F0C6FF0020A06107202061002010BD51
:1014300010B50446002C03D094F83D0010B107E02D
:10144000012010BD002084F83C00204600F00CF87C
:10145000022084F83D00211D206800F0BDFC012021
:1014600084F83D00002010BD7047022180F83D1037
:1014700001688A6802F00702062A03D00A6842F06F
:1014800001020A60012180F83D100020704770B50C
:101490000446002C04D094F83900002510B106E071
:1014A000012070BD84F83850204600F022F8242036
:1014B00084F839002068C16821F40051C1602046D9
:1014C00000F0F0FC2068016921F49041016120687E
:1014D000416921F02A0141612068C16841F400514D
:1014E000C160E563202084F8390084F83A000020C8
:1014F00070BD704730B529490A68002A07DA0A68C2
:1015000042F000420A608169891C816130BD234A32
:10151000083A1268224C2262204A121F127884F87C
:1015200024201E4AD21E1278A2621C4A0C32126873
:10153000E2621A4A921E128822860968616317497C
:10154000091D0968A163154910310968E16315A5F2
:1015500000211F4A6B5C536013685B06FCD5491C75
:10156000C9B22929F6D31B4900230B600A68002A57
:10157000FCD002682260426862608268A260C26831
:10158000E26002692261426962618269A261C069A6
:10159000E0610B6008680028FCD030BD2CED00E055
:1015A0006C1100200D0A456E7465722048617264EA
:1015B0004661756C745F48616E646C65722C205373
:1015C000797374656D2048616C742E0D0A000000FB
:1015D000001001402C0000202DE9F04786B04F4C50
:1015E000206840F001002060206800F001000090B9
:1015F000206840F001002060206800F001000090A9
:10160000464E1436306840F010003060306800F00C
:101610001000009060150190022702974FF001081A
:10162000CDF80C804FF00309CDF8109007250595F3
:10163000DFF8ECA001A95046FFF7ACFA20150190A5
:10164000059501A95046FFF7A5FA012200212520A2
:10165000FFF7E2FB2520FFF7D2FB324D4FF4E13AD2
:101660000C2300225146284602F016F8286820F084
:1016700040002860286820F020002860E86840F0DA
:101680002000E860206840F040002060206800F002
:1016900040000090206840F004002060206800F0C6
:1016A00004000090306840F020003060306800F0A6
:1016B00020000090780301900297CDF80C80CDF8BF
:1016C00010900824059401A91748FFF763FA8020B9
:1016D0000190059401A91548FFF75CFA0622002144
:1016E0004720FFF799FB4720FFF789FB0C230022D7
:1016F00051460F4801F0D0FF286820F040002860D4
:10170000286820F02000286009480C30016841F06A
:101710002001016006B0BDE8F087000030380240CB
:101720000000024000100140001802400008024082
:10173000001401402DE9F0410746082F18D24FF060
:1017400000054FF0FF062C46204600F02FF810B1A0
:101750006D1CEDB22646641CE4B2082CF4D3012DB6
:1017600004D1BE4202D10120BDE8F0810020FBE798
:101770000BD1002000F01AF828B1012000F016F873
:1017800008B10120F0E70020EEE7092F01D000208A
:10179000EAE7012000F00AF828B1022000F006F87C
:1017A00008B10120E0E70020DEE70000094951F818
:1017B0003020126901EBC0018888024201D100206B
:1017C00000E001208979814201D101207047002089
:1017D00070470000003A0008FEE7704770470000BD
:1017E00010B508A000F0D4FD09A000F0D1FD16A0AE
:1017F00000F0CEFD21A000F0CBFDBDE810402CA0F4
:1018000000F0C6BDB2D9D7F7CCE1CABE3A0D0A0086
:10181000312E20C6F4B6AFD2BBB8F6D7D4B6AFD609
:10182000D8D7B0C8EDBCFEB6A8CAB1C6F7A3ACC342
:10183000BF3130306D73B7ADD7AAD2BBB4CE4C45F3
:1018400044320D0A00000000322E20B0B4CFC2B0E6
:10185000B4BCFC4B31A3ACB4AEBFDAB4F2BAAFCA7D
:10186000FD4453505F4D616753717561726564B596
:10187000C4CAE4B3F6CAFDBEDD0D0A00332E20B0A3
:10188000B4CFC2B0B4BCFC4B32A3ACB4AEBFDAB47C
:10189000F2BAAFCAFD4453505F436D706C784D751A
:1018A0006C74B5C4CAE4B3F6CAFDBEDD0D0A00000F
:1018B000342E20B0B4CFC2B0B4BCFC4B33A3ACB414
:1018C000AEBFDAB4F2BAAFCAFD4453505F436D7095
:1018D0006C784D756C745265616CB5C4CAE4B3F62E
:1018E000CAFDBEDD0D0A000070B523A000F050FD5A
:1018F00031480468001D0568001D06682F483049FE
:101900000068B0FBF1F12FA000F042FD23462A460B
:10191000314638A000F03CFD3BA000F039FD16A098
:1019200000F036FD39A145A000F032FD48A149A0E4
:1019300000F02EFD4CA14FA000F02AFD52A000F0B7
:1019400027FD5DA000F024FD5DA000F021FD62A058
:1019500000F01EFD65A000F01BFD6BA000F018FD5F
:1019600070A000F015FD77A000F012FDBDE87040FA
:1019700001A000F00DBD00002A2A2A2A2A2A2A2ABC
:101980002A2A2A2A2A2A2A2A2A2A2A2A2A2A2A2AB7
:101990002A2A2A2A2A2A2A2A2A2A2A2A2A2A2A2AA7
:1019A0002A2A2A2A2A2A2A2A2A2A2A2A2A2A2A2A97
:1019B0002A2A2A2A2A0A0D00107AFF1F280000204E
:1019C00040420F000D0A435055203A2053544D33E6
:1019D0003246343037494754362C204C514650312A
:1019E00037362C20D6F7C6B53A2025644D487A0DF7
:1019F0000A000000554944203D2025303858202554
:101A000030385820253038580A0D000056352D44FE
:101A10005350B8B4CAFDD4CBCBE328C4A3C6BDB7DA
:101A2000BDA3ACB8B4CAFDB3CBB8B4CAFDBACDB887
:101A3000B4CAFDB3CBCAB5CAFD2900002A20C0FD37
:101A4000B3CCC3FBB3C62020203A2025730D0A0077
:101A5000312E30002A20C0FDB3CCB0E6B1BE20202C
:101A6000203A2025730D0A00323032302D30332DCC
:101A7000323100002A20B7A2B2BCC8D5C6DA202075
:101A8000203A2025730D0A002A2048414CBFE2B0BD
:101A9000E6B1BE20203A2056322E342E3020285374
:101AA000544D3332463430372048414C204472691B
:101AB000766572290D0A00002A200D0A0000000038
:101AC0002A205151202020203A2031323935373414
:101AD00034363330200D0A002A20CDFACDFA2020EA
:101AE0003A2061726D666C790D0A00002A20456DFE
:101AF00061696C203A2061726D666C794071712E5B
:101B0000636F6D200D0A00002A20CEA2D0C5B9ABAC
:101B1000D6DABAC53A2061726D666C795F636F6D13
:101B2000200D0A002A20CCD4B1A6B5EA3A20617271
:101B30006D666C792E74616F62616F2E636F6D0DCF
:101B40000A0000002A20436F707972696768742068
:101B50007777772E61726D666C792E636F6D20B02A
:101B6000B2B8BBC0B3B5E7D7D30D0A0000B587B094
:101B700000210B48026842F002020260006800F097
:101B8000020001900120039004910320059004209D
:101B9000029002A90348FEF7FDFF07B000BD000058
:101BA00030380240000402407047000010B5FFF7D3
:101BB000E1F804484078002803D0BDE8104000F068
:101BC00003B810BD0000002070B5174E70680028E3
:101BD00005D07068401E706001D101203070002473
:101BE000124D04EB440005EB800001F07FFD641C06
:101BF000E4B2042CF5D3B068401CB060B0686FF05C
:101C000000410024884200D1B46001F039FDB07871
:101C1000401CC0B2B0700A2804D3B470BDE8704054
:101C200001F02CBD70BD000000000020E400002089
:101C300030B593B000252548016841F0805101601E
:101C4000006800F0805001902148016841F4804113
:101C50000160006800F480400190012002900004BF
:101C60000390022408948001099019200A904FF4EF
:101C7000A8700B900C9404200D9002A8FFF7FCF9BB
:101C800018B1712113A0FEF77AFF0F200E900F9468
:101C900010954FF4A05011904FF4805012900521F0
:101CA0000EA8FFF7EBF818B184210AA0FEF767FF32
:101CB0000648001D016841F480410160006800F49D
:101CC00080400190FEF760FF13B030BD4038024005
:101CD000007000402E2E5C2E2E5C557365725C6287
:101CE00073705C6273702E6300000000104801681E
:101CF00041F4700101600F48016841F00101016089
:101D00000C4A00210832116002680B4B1A40026035
:101D1000031D0A4A1A60026822F480220260054804
:101D20000C30016002495806803908607047000095
:101D300088ED00E000380240FFFFF6FE103000247E
:101D400070B54FF08044206900F00200E16801F0B6
:101D50000201204D002808D039B14FF6FD702061F6
:101D6000E1680140E160E8688047206900F0040014
:101D7000E16801F0040140B139B14FF6FB70206118
:101D8000E1680140E16028698047206900F00800AF
:101D9000E16801F0080140B139B14FF6F7702061F8
:101DA000E1680140E16068698047206900F0100047
:101DB000E16801F0100100280BD0002909D04FF68E
:101DC000EF702061E1680140E160A869BDE8704002
:101DD000004770BD000000202DE9F0410268264D4B
:101DE000264E274FDFF89CC0274B4FF08048A84273
:101DF00009D0404507D0B04205D0B84203D0604575
:101E000001D0984203D122F070044A682243A842CC
:101E10001BD0404519D0B04217D0B84215D060450C
:101E200013D0984211D0194CA0420ED0184CA042A9
:101E30000BD0184CA04208D0174CA04205D0174C2C
:101E4000A04202D0164CA04203D122F44074CA68CA
:101E500022434C6922F08002224302608A68C262F7
:101E60000A688262A84201D0984201D109690163DF
:101E700001214161BDE8F081000001400004004003
:101E800000080040000C00400004014000400140F8
:101E9000004401400048014000180040001C004080
:101EA000002000402DE9F041044620680169E26805
:101EB00021F4405111430161A1682069E2690143A5
:101EC0006069104301432068C26849F20C639A4379
:101ED0000A43C26020684169A26921F4407111433C
:101EE0004161E069B24AB34964253226B0F5004F3A
:101EF00059D02068884201D090427DD1FFF776F812
:101F000000EBC00101EB001061688900B0FBF1F744
:101F1000FFF76CF800EBC00101EB0010616889006D
:101F2000B0FBF1F0B0FBF5F06FF01801484307EBA0
:101F3000800006EB0010B0FBF5F000F0F007FFF7B3
:101F400055F800EBC00101EB001061688900B0FB9F
:101F5000F1F0B0FBF5F007EB0017FFF747F800EBE7
:101F6000C00101EB001061688900B0FBF1F8FFF7D8
:101F70003DF800EBC00101EB001061688900B0FB87
:101F8000F1F0B0FBF5F06FF01801484308EB80006A
:101F900006EB0010B0FBF5F0216800F00F003844AC
:101FA0008860BDE8F0812068884201D0904256D117
:101FB000FFF71CF800EBC00101EB0010616849005D
:101FC000B0FBF1F0B0FBF5F00701FFF70FF800EB05
:101FD000C00101EB001061684900B0FBF1F8FFF7A8
:101FE00005F800EBC00101EB001061684900B0FB8F
:101FF000F1F0B0FBF5F000E086E06FF01801484327
:1020000008EB800006EBC000B0FBF5F000F0F80034
:1020100007EB4007FEF7EAFF00EBC00101EB001001
:1020200061684900B0FBF1F8FEF7E0FF00EBC0018A
:1020300001EB001061684900B0FBF1F0B0FBF5F076
:102040006FF01801484308EB800006EBC000B0FBBE
:10205000F5F0216800F0070038448860A1E7FEF73A
:10206000B5FF00EBC00101EB001061684900B0FB57
:10207000F1F0B0FBF5F00701FEF7A8FF00EBC0019F
:1020800001EB001061684900B0FBF1F8FEF79EFF1C
:1020900000EBC00101EB001061684900B0FBF1F0FA
:1020A000B0FBF5F06FF01801484308EB800006EB39
:1020B000C000B0FBF5F000F0F80007EB4007FEF7BA
:1020C00085FF00EBC00101EB001061684900B0FB27
:1020D000F1F8FEF77BFF00EBC00101EB0010616837
:1020E0004900B0FBF1F0B0FBF5F06FF01801484388
:1020F00008EB800006EBC000B0FBF5F0216800F0B3
:102100000700384488604CE7FEF760FF00EBC00131
:1021100001EB001061688900B0FBF1F7FEF756FF94
:1021200000EBC00101EB001061688900B0FBF1F029
:10213000B0FBF5F06FF01801484307EB800006EBA9
:102140000010B0FBF5F000F0F007FEF73FFF00EBEA
:10215000C00101EB001061688900B0FBF1F0B0FB39
:10216000F5F007EB0017FEF731FF00EBC00101EBC4
:10217000001061688900B0FBF1F8FEF727FF00EB63
:10218000C00101EB001061688900B0FBF1F0B0FB09
:10219000F5F06FF01801484308EB800006EB0010E3
:1021A000B0FBF5F0216800F00F0038448860F8E6D5
:1021B0000014014000100140014800F009B800007F
:1021C00014010020014800F003B80000400900207D
:1021D0002DE9F041044620680568C6684169A906F2
:1021E0004FF0000715D54068C0B2E28AA168885454
:1021F000E18A491C8AB2E282E1898A4200D3E782FD
:10220000628B8A4202D2618B491C6183616A01B18F
:102210008847280616D5300614D5A08A50B3012069
:1022200084F82800618A6068405C21684860608AA0
:10223000401C80B26082A189884200D36782A08A54
:10224000401EA082680613D5700611D5A08AE0B1A1
:10225000618A6068405C21684860608A401C80B286
:102260006082A189884200D36782A08A401EA08232
:10227000BDE8F0812068C16821F08001C16020685C
:10228000C16841F04001C160DCE72068C16821F00D
:102290004001C160206A00B1804784F82870E7E7F8
:1022A00078B5002317E0CC5C068A4568AC5501245C
:1022B00084F31088048A641CA4B204828589AC4229
:1022C00001D300240482848A641C8482002484F361
:1022D00010885B1C9BB293420CD319E0BDF80050F0
:1022E000AC4207D10468E5682D0603D4E56845F0E3
:1022F0008005E560012484F31088848A009400241A
:1023000084F310888489BDF80050AC42E6D9CAE74E
:102310000068C16841F08001C16078BD1949184862
:10232000086001F12C00486000F5806088604FF47F
:1023300080628A81CA81002008824882C88208831C
:1023400048838882C8610862486281F8280001F6E3
:102350002C010D4B0B6001F12C034B6001F22C435F
:102360008B608A81CA8108824882C8820883488338
:102370008882C8610862486281F8280070470000BE
:10238000001001401401002000140140FEE700008D
:102390000FB4054B10B503A9044A029800F0EAF8FF
:1023A00010BC5DF814FB0000D73700083000002097
:1023B0000907090E002804DB00F1E02080F8001472
:1023C000704700F00F0000F1E02080F8141D704706
:1023D00002E008C8121F08C1002AFAD170477047EE
:1023E000002001E001C1121F002AFBD1704700004C
:1023F0002DE9FF5F82B00021DDE90430020DDDF838
:1024000040B0034318D044F61050A2F2FF324243CA
:102410001514119801281FD0A5EB0B00401C5FEA92
:10242000000A4FF000064E4FDFF83891B046504694
:1024300015D5CAF1000413E0119801244AA301281C
:1024400001D16FEA0B010298119AC0E90031C0E98D
:10245000024206B0BDE8F09FCBF10000DFE7044682
:102460000021404A491842EB0450CDE9001012E027
:10247000E00707D032463B4640464946FDF7BDFFE0
:102480008046894632463B4610461946FDF7B5FF61
:1024900006460F466410002CEAD1DDE90401DDE9AF
:1024A0000023BAF1000F06DAFDF7A7FF42464B46BC
:1024B000FDF7A3FF05E0FEF712F842464B46FEF794
:1024C0000EF804460E460022284BFEF78BF803D880
:1024D0004FF0FF30014607E00022254B20463146F1
:1024E000FDF7E4FEFEF719F9102409E0002C0ADBE1
:1024F0000A220023FDF764FE039B30321A55641E46
:1025000050EA0102F2D1641C039AC4F1110314448D
:10251000119A012A03D0012208430DD10AE0084391
:1025200004D000204FF0110B119072E7A3EB0B05C4
:102530006D1E0DE05B4504DD4FF0000205F1010565
:1025400004E003DA4FF00002A5F10105002AECD007
:1025500002981199C0E90231C0E9004579E700000D
:10256000000014400000F03F300000000000F04385
:102570000000E03F2DE9FF4F95B09B468946064697
:1025800000250FE2252877D100242746F84A0121AB
:10259000059400E0044316F8013F203B01FA03F0E4
:1025A0001042F7D130782A2811D06FF02F033078FD
:1025B000A0F13002092A16D8059A44F0020402EB71
:1025C000820203EB42021044761C0590EFE759F8B3
:1025D000042B0592002A03DA504244F4005405907B
:1025E00044F00204761C30782E2816D116F8010F1C
:1025F00044F004042A280DD06FF02F023078A0F1A7
:102600003003092B09D807EB870302EB4303C718F4
:10261000761CF3E759F8047B761C30786C280FD0D1
:1026200006DC4C2817D068280DD06A2814D104E0A5
:10263000742810D07A280FD10DE044F400140AE079
:1026400044F4801401E044F440147278824202D1D0
:1026500004F58014761C761C307866280BD013DCC9
:10266000582877D009DC002875D04528F6D04628B0
:10267000F4D047281AD19DE118E0632835D06428AA
:1026800079D0652812D195E1702873D008DC6728CD
:10269000F1D069286FD06E280DD06F2806D1B5E033
:1026A00073282CD0752875D0782874D05A4617997D
:1026B00090476D1C75E1C4F30250022809D003282D
:1026C0000DD0D9F8001004280DD00D6009F10409CF
:1026D00067E1D9F80010EA17C1E90052F6E7D9F826
:1026E00000100D80F2E70D70F0E719F8041B8DF86B
:1026F000001000208DF80100EA46012003E059F89F
:1027000004AB4FF0FF3061074FF0000102D40DE041
:1027100008F101018846B9420FDA8045F8DB1AF862
:1027200008100029F4D108E008F10101884681422F
:10273000FADB1AF808100029F6D105985B46A0EBE1
:10274000080721463846179A00F094FA284400EB0F
:10275000080507E04DE029E10DE01AF8010B5A46A3
:1027600017999047B8F10108F7D25B4621463846E1
:10277000179A13E142E00A220092C4F302524FF08A
:10278000000A022A08D059F804CB032A4FEAEC7158
:102790000AD00DE029E02AE009F1070121F0070243
:1027A000F2E802C1914609E00FFA8CFC4FEAEC71A5
:1027B000042A03D14FFA8CFC4FEAEC71002907DAA6
:1027C0000A460021DCF1000C61EB02012D2202E03F
:1027D000220504D52B228DF80420012203E0E20714
:1027E00001D02022F7E7904659E00A2102E01022AA
:1027F0000DE010214FF0000A00910BE010224FF085
:10280000000A44F004040827009203E008224FF075
:10281000000A0092C4F30252022A05D059F804CBF0
:102820000021032A08D009E009F1070121F007027D
:10283000F2E802C1914605E01FFA8CFC042A01D19E
:102840000CF0FF0C4FF00008220728D5702806D0A6
:10285000009B83F0100353EA0A0305D00EE04022E8
:102860008DF80420012208E05CEA010206D0302243
:102870008DF804208DF8050002229046009B83F01D
:10288000080353EA0A030AD15CEA010201D1620794
:1028900005D530228DF804204FF001087F1E5828FE
:1028A00004D034A003900EA802900DE036A0F9E702
:1028B00053466046009AFDF783FC84460398825C89
:1028C0000298401E029002705CEA0100F0D102986A
:1028D00006A9081A00F1200A600702D524F4803402
:1028E00000E00127574502DDA7EB0A0000E00020C9
:1028F00000EB0A01009005984144401A0590E0035E
:1029000006D45B462146179A059800F0B3F90544B2
:10291000002706E001A85A46C05D179990476D1C34
:102920007F1C4745F6DBE0030CD55B462146179A32
:10293000059800F09FF9054404E030205A461799A5
:1029400090476D1C0099481E00900029F5DC08E0B6
:10295000029802995A460078491C029117999047AB
:102960006D1CBAF10001AAF1010AF1DC65E1000079
:102970000928010030313233343536373839616255
:102980006364656600000000303132333435363719
:1029900038394142434445460000000000F058F9F0
:1029A0000544761C307800287FF4ECAD19B0284639
:1029B000BDE8F08F620700D4062709F1070222F074
:1029C000070CFCE80223E14603F000485FEA080C2C
:1029D00002D00FF2702C0DE05FEA045C02D50FF21A
:1029E000682C07E05FEAC47C02D00FF2602C01E0A3
:1029F000AFF2700C4FF0FF3823F00043CDF850C019
:102A000065280CD006DC452809D046281DD047286B
:102A10003DD13DE0662818D067287ED138E00021FE
:102A2000112F01DB112000E0781CCDE9000106A97F
:102A30000EA8FFF7DDFCDDE90F010E9A03910021DE
:102A4000009207F1010A04914DE04FF00040009719
:102A5000CDE9011006A90EA8FFF7CAFCDDE90F02B7
:102A600003920E9B11990022DDF80CA000930492B2
:102A700011B9791C00EB010AB7EB0A0004D4C0F1CC
:102A8000FF3007F1010A0490AAEB0700019044E02F
:102A9000012F00DA01270021112F01DD112000E0B4
:102AA0003846CDE9000106A90EA8FFF7A1FCDDE933
:102AB0000F010E9A0391002104910092BA4621075A
:102AC0000CD40399514500DA8A46BAF1010F05DDAD
:102AD000009AAAF10101515C302908D0B84202DA0B
:102AE00010F1040F06DA0121CDE9011015E0AAF179
:102AF0000101E9E7002805DC049901440491AAEBEF
:102B0000000102E0411C514500DD8A460499401A4B
:102B1000401C01904FF000400290200704D401981F
:102B2000504501DBCDF8048000208DF84F0002985D
:102B30000DF14F07B0F1004F25D02B200E900298D9
:102B40004FF0020800280CDA404202902D200E902F
:102B500007E00A210298FDF75DFD3031029007F889
:102B6000011DB8F10001A8F10108F2DC029800286B
:102B7000EFD1791E0E980870307800F0200040F0F8
:102B8000450007F8020D12A8C01B00F107081498B1
:102B9000007800B1012000EB0A01019801EBE0711F
:102BA00005984144401A401E0590E00306D45B4658
:102BB0002146179A059800F05DF8054414980078AE
:102BC00018B15A46179990476D1CE00324D55B460F
:102BD0002146179A059800F04DF805441CE004982A
:102BE000002807DBDDE90301884203DD0098405C33
:102BF000179901E0179930205A469047049805F13B
:102C00000105401C04900198401E019004D12E2023
:102C10005A46179990476D1CBAF10001AAF1010AB2
:102C2000DDDC05E017F8010B5A46179990476D1C3B
:102C3000B8F10001A8F10108F4DC5B462146179ABF
:102C40000598ABE62D0000002B00000020000000DE
:102C50002DE9F041044600251E461746880404D499
:102C600005E039462020B0476D1C641EF9D5284682
:102C7000BDE8F0812DE9F041044600251E4690464E
:102C8000C80301D5302700E02027880404D505E0DB
:102C900041463846B0476D1C641EF9D52846BDE84C
:102CA000F081930828E0F0EC010AB0EC010A60EE34
:102CB000A00A40EE000AE1EC010AF0EC010AB0ECD7
:102CC000010A60EEA00A40EE000AE1EC010AF0EC15
:102CD000010AB0EC010A60EEA00A40EE000AE1EC45
:102CE000010AF0EC010AB0EC010A60EEA00A40EE25
:102CF000000AE1EC010A5B1E002BD4D102F00302B2
:102D00000AE0F0EC010AB0EC010A60EEA00A40EE25
:102D1000000AE1EC010A521E002AF2D1704710B5F8
:102D2000930816E0046824FB04F464140C804468DF
:102D300024FB04F464144C80846824FB04F46414BD
:102D40008C80C468103024FB04F46414CC800831F7
:102D50005B1E002BE6D102F0030207E050F8043BB3
:102D600023FB03F35B1421F8023B521E002AF5D12A
:102D700010BD70B593082AE00468456884FB0464BC
:102D8000641085FB05656D102C440C608468C56873
:102D900084FB0464641085FB05656D102C444C6055
:102DA0000469456984FB0464641085FB05656D1046
:102DB0002C448C608469C569203084FB04646410F1
:102DC00085FB05656D102C44CC6010315B1E002B1B
:102DD000D2D102F003020BE003684468083083FBA1
:102DE00003535B1084FB04546410234408C1521E37
:102DF000002AF1D170BD10B59C0850E0F0EC010A3A
:102E0000B0EC011AB1EC010AF1EC011A20EE802AB3
:102E100001EE612AA2EC012A60EEA10A41EE000A4D
:102E2000E2EC010AB0EC010AF0EC010AB1EC011A83
:102E3000F1EC011A20EE012A00EEE12AA2EC012AAF
:102E400020EE210A00EE810AA2EC010AF0EC010A50
:102E5000B0EC011AB1EC010AF1EC011A20EE802A63
:102E600001EE612AA2EC012A60EEA10A41EE000AFD
:102E7000E2EC010AB0EC010AF0EC010AB1EC011A33
:102E8000F1EC011A20EE012A00EEE12AA2EC012A5F
:102E900020EE210A00EE810AA2EC010A641E002C39
:102EA000ACD103F0030314E0B0EC010AF0EC010A2A
:102EB000B1EC011AF1EC011A20EE012A00EEE12A30
:102EC000A2EC012A20EE210A00EE810AA2EC010AFE
:102ED0005B1E002BE8D110BD2DE9F0439C085FE09C
:102EE000058846880F88B1F802C015FB07F84FEA3D
:102EF000684816FB0CF9A8EB6948A2F8008015FB9E
:102F00000CF56D1416FB07F605EB664555808588B4
:102F1000C6888F88B1F806C015FB07F84FEA6848E5
:102F200016FB0CF9A8EB6948A2F8048015FB0CF518
:102F30006D1416FB07F605EB6645D58005894689B5
:102F40000F89B1F80AC015FB07F84FEA684816FB6D
:102F50000CF9A8EB6948A2F8088015FB0CF56D1474
:102F600016FB07F605EB664555818589C689103045
:102F70008F890E3131F802CB15FB07F84FEA68480C
:102F800016FB0CF9A8EB6948A2F80C8015FB0CF5B0
:102F90006D1416FB07F605EB6645D5811032641EED
:102FA000002C9DD103F0030319E004884588001D1F
:102FB0000E884F88091D14FB06FC4FEA6C4C15FB6C
:102FC00007F8ACEB684CA2F800C014FB07F46414DB
:102FD00015FB06F504EB65445480121D5B1E002BA7
:102FE000E3D1BDE8F0832DE9F0479C0873E0056864
:102FF00046680F68D1F804C085FB079886FB0CA9CA
:103000004FEA68084FEA6909B8EB0908C2F800807E
:1030100085FB0CC586FB07764FEA65054FEA660619
:10302000AD1955608568C6688F68D1F80CC085FBFE
:10303000079886FB0CA94FEA68084FEA6909B8EBC4
:103040000908C2F8088085FB0CC586FB07764FEAA5
:1030500065054FEA6606AD19D560056946690F69D1
:10306000D1F814C085FB079886FB0CA94FEA6808C5
:103070004FEA6909B8EB0908C2F8108085FB0CC556
:1030800086FB07764FEA65054FEA6606AD1955617E
:103090008569C66900F120008F6901F11C0151F8B2
:1030A00004CB85FB079886FB0CA94FEA68084FEA1A
:1030B0006909B8EB0908C2F8188085FB0CC586FBC6
:1030C00007764FEA65054FEA6606AD19D56102F14C
:1030D0002002A4F10104002C89D103F003031FE0B6
:1030E0000468456808300E684F68083184FB068C18
:1030F00085FB07984FEA6C0C4FEA6808BCEB080C9C
:10310000C2F800C084FB077485FB06654FEA6404BF
:103110004FEA65056419546002F10802A3F1010346
:10312000002BDDD1BDE8F087042801D300207047D3
:1031300000EB4001054800EB81004178012901D0F6
:10314000002070470021417001207047E4000020FA
:1031500070B505462A4800EB05142846FEF7EAFA42
:10316000052205EB45030026A8B32179052901D2E4
:10317000227170BD0A2902D2491C217170BDA07A4A
:1031800005EB45056D1C20B90120A072E8B200F0E6
:1031900067FA21890029F1D0E08888420BD2401CCF
:1031A00080B2E08021898842E8D1BDE87040DB1C14
:1031B000D8B200F055BAE07A0028DFD0207B401C5E
:1031C000C0B22073E17A8842D8D32673E8B2BDE852
:1031D000704000F045BA2079052801D922710BE032
:1031E00010B1401E207107E0A07A012804D1A67218
:1031F0009B1CD8B200F034FAE680267370BD000044
:1032000034000020074A917AD07A814201D100200F
:103210007047505C491CC9B291720A29F8D3002149
:1032200091727047D4000020704710B5FDF7AAFDD9
:10323000FEF7FEFC00F0B2F800F084F900F0B4F9FB
:1032400000F030F9BDE81040AFF30080F0B587B072
:1032500000212648026842F480720260026802F48B
:1032600080720192026842F002020260026802F07B
:1032700002020192026842F040020260006800F01F
:1032800040000190012003900491022105910290D9
:10329000174E02A93046FDF77DFC8021029102A95C
:1032A0001448FDF777FCB4150294134F02A9384671
:1032B000FDF770FCE501029502A93846FDF76AFCAE
:1032C000012229463846FDF747FD002201213046FC
:1032D000FDF742FD012221463846FDF73DFD4FF442
:1032E000E131052000F06BFA07B0F0BD3038024044
:1032F00000200240000402400018024000B591B0D6
:10330000402101A8FCF7C7FF4FF080420020184978
:103310000B6843F001030B60096801F001010091A3
:10332000144909684908144BB1FBF3F1491E8BB2EB
:10333000411E019202930491059003900690802013
:10334000079001A8FEF774F820B140F21F210BA0EE
:10335000FDF715FC022200211C20FDF75DFD1C205D
:10336000FDF74DFD01A8FEF780F811B000BD00008B
:10337000403802402800002040420F002E2E5C2ED4
:103380002E5C557365725C6273705C7372635C6211
:1033900073705F74696D65722E63000010B500F084
:1033A00053F8BDE8104000F001B8000030B587B018
:1033B00000212348026842F004020260026802F021
:1033C00004020192026842F020020260026802F0E8
:1033D00020020192026842F080020260026802F05C
:1033E00080020192026842F040020260026802F02C
:1033F00040020192026842F080020260026802F01C
:1034000080020192026842F480720260006800F457
:103410008070019003910491032005900024094DD0
:1034200005EBC4008088029055F8340002A9FDF72E
:10343000B1FB641CE4B2082CF2D307B030BD00002D
:1034400030380240003A000830B515480022827238
:10345000C272027300216424A0F1A003022503EBD1
:103460000110048105718272C2720273491CC9B2D3
:103470000A29F4D306226421032000F003F906226E
:103480006421042000F0FEF806226421052000F0EB
:10349000F9F80622BDE830406421104600F0F2B889
:1034A000D400002010B586B000222248016841F007
:1034B00004010160016801F004010091016841F01C
:1034C00020010160016801F020010091016841F4D0
:1034D00080710160006800F480700090012000F0AD
:1034E00077F8022000F074F8032000F071F804204F
:1034F00000F06EF801200290039202200490400236
:10350000019001A90C48FDF745FB802001900B4C70
:1035100001A92046FDF73EFBA115019101A9204616
:10352000FDF738FB0420019001A90548FDF732FBA7
:1035300006B010BD303802400020024000140240A6
:103540000008024030B40020134C002300EB40027E
:1035500004EB82014B608B604B7004F82230401CFE
:10356000C0B20428F2D30D484FF47A710068B0FB62
:10357000F1F0401EB0F1807F08D24FF0E0214861A9
:10358000074AF02010708B6107200861054901206F
:10359000487030BCFFF7B2BEE400002028000020D5
:1035A00023ED00E00000002010B5FEF7B7FEFEF7A7
:1035B00013F8BDE81040FEF7D9BA10B50024204634
:1035C000FFF7C6FD641CE4B20A2CF8D310BD00005E
:1035D000401EC0B200280AD00B4901280CD0022896
:1035E0000DD0032802D1094904200860704708491A
:1035F0004FF48060886170478020086070474FF406
:1036000080700860704700001814024018080240DB
:103610000020024001280CD00E4902280FD00328B8
:1036200012D0042804D10C48016881F00401016023
:1036300070470A48416981F48061416170470868B8
:1036400080F0800008607047086880F4807008602F
:103650007047000014140240140802400020024089
:103660000549CA7A8854C87A401CC0B2C8720A2870
:1036700001D30020C8727047D4000020FFF79DBF1F
:1036800070470000034B03EB00100181C272002160
:10369000017370473400002000B591B00190029191
:1036A000002003900490059207900693089001A8CB
:1036B000FDF7EDFE002804D040F2BA2102A0FDF78C
:1036C0005EFA11B000BD00002E2E5C2E2E5C5573EC
:1036D00065725C6273705C7372635C6273705F7559
:1036E0006172745F6669666F2E630000416800292D
:1036F0000AD04168491E416006D10121417001781C
:10370000012901D1816841607047000010B504288B
:1037100005D30C4A0CA114A0FEF73AFEFEE70122E5
:1037200082F31088184B00EB400203EB82004160EB
:10373000816000214170012003F8220081F310888C
:1037400010BD00004F3A00082E2E5C2E2E5C5573E3
:1037500065725C6273705C7372635C6273705F74D9
:10376000696D65722E6300004572726F723A206651
:10377000696C652025732C2066756E6374696F6EA5
:1037800020257328290D0A00E400002070B50D469D
:103790001646FDF715F80446002C09D0E06900B183
:1037A0008047324629462046BDE87040FEF778BD86
:1037B00070BD13B5012201A9FFF7E8FF1CBD10B5CC
:1037C000FCF7E0FF002805D00C23BDE810400022E4
:1037D000FFF762BF10BD10B50446E1B20020FFF74D
:1037E000E8FF204610BDFFF720FDFEF77DF8FDF74E
:1037F000F7FF64210020FFF789FFFFF715FD002088
:10380000FFF792FC10B10220FFF704FFFFF7FAFC6C
:103810000028F2D0012806D0042807D00728ECD1D0
:10382000FDF796F8E9E7FDF73DF9E6E7FCF7FEFF5F
:10383000E3E70000CDCC8C3FCDCC8C3F66660640E4
:103840006666064066664640666646403333834099
:10385000333383403333A3403333A340000000109D
:1038600000000010000000200000002000000030D8
:103870000000003000000040000000400000005048
:103880000000005088131027983A204EA861881332
:103890001027983A204EA861CDCC8C3F9A99993F39
:1038A00066660640CDCC0C4066664640CDCC4C40AA
:1038B00033338340666686403333A3406666A64052
:1038C0009A99993F9A99993FCDCC0C40CDCC0C4018
:1038D000CDCC4C40CDCC4C4066668640666686407A
:1038E0006666A6406666A640000000100000001054
:1038F0000000002000000020000000300000003028
:103900000000004000000040000000500000005097
:103910000000001000000010000000200000002047
:1039200000000030000000300000004000000040B7
:10393000000000500000005088131027983A204ED5
:10394000A86188131027983A204EA8617017F82AAA
:10395000983A204EA86188131027983A204EA86103
:10396000CDCC8C3F9A99993F66660640CDCC0C40F1
:1039700066664640CDCC4C40333383406666864015
:103980003333A3406666A6409A99993F9A99993F26
:10399000CDCC0C40CDCC0C40CDCC4C400000001028
:1039A0000000001000000020000000200000003097
:1039B0000000003000000040000000400000005007
:1039C0000000005000000010000000100000002067
:1039D0000000002000000030B036803E204E204E17
:1039E00030751879E02EC832B036A861983A68422E
:1039F000204E204E30750000000000000000000046
:103A000000200240000100000008024000200000E9
:103A10000020024000080000001C024004000000DA
:103A2000001C0240080000000014024000080000D2
:103A30000018024080000000001C024000800000CE
:103A40006273705F537461727454696D6572006261
:103A500073705F53746172744175746F54696D65EE
:103A600072006273705F53746F7054696D65720099
:103A7000000000000000000001020304060708091E
:103A80000000000001020304A83A00080000002022
:103A900034000000D0230008DC3A00083400002085
:103AA0007C150000E023000800000000000000007A
:103AB0000000000000000000000000000000000006
:103AC00000000000010000001000000000000000E5
:0C3AD0000024F4000000000000000000D2
:040000050800018965
:00000001FF
