:020000040800F2
:10000000B81500209D0100082B1200083D2F0008A4
:10001000291200086D070008D5180008000000002C
:100020000000000000000000000000007112000845
:10003000AD070008000000002D1200087312000830
:10004000B7010008B7010008B7010008B7010008B0
:10005000B7010008B7010008B7010008B7010008A0
:10006000B7010008B7010008B7010008B701000890
:10007000B7010008B7010008B7010008B701000880
:10008000B7010008B7010008B7010008B701000870
:10009000B7010008B7010008B7010008B701000860
:1000A000B7010008B7010008B7010008B701000850
:1000B0007F130008B7010008B7010008B701000866
:1000C000B7010008B7010008B7010008B701000830
:1000D000B7010008F1170008B7010008B7010008D0
:1000E000B7010008B7010008B7010008B701000810
:1000F000B7010008B7010008B7010008B701000800
:10010000B7010008B7010008B7010008B7010008EF
:10011000B7010008B7010008B7010008B7010008DF
:10012000B7010008B7010008B7010008B7010008CF
:10013000B7010008B7010008B7010008B7010008BF
:10014000B7010008B7010008B7010008B7010008AF
:10015000B7010008B7010008B7010008FD17000843
:10016000B7010008B7010008B7010008B70100088F
:10017000B7010008B7010008B7010008000000003F
:10018000B7010008B7010008DFF80CD000F0DCFA76
:100190000048004709280008B81500200648804795
:1001A00006480047FEE7FEE7FEE7FEE7FEE7FEE75C
:1001B000FEE7FEE7FEE7FEE72713000889010008D7
:1001C0002DE9F05F0546002092469B46884606468C
:1001D000814640241BE0284641464746224600F01F
:1001E00004FA53465A46C01A914110D31146184694
:1001F000224600F0EBF92D1A67EB01084F46224624
:100200000120002100F0E2F917EB00094E41201E09
:10021000A4F10104DFDC484631462A464346BDE8E6
:10022000F09F40EA01039B0703D009E008C9121FB1
:1002300008C0042AFAD203E011F8013B00F8013BA0
:10024000521EF9D27047D2B201E000F8012B491ECC
:10025000FBD270470022F6E710B513460A46044663
:100260001946FFF7F0FF204610BD2DE9FE4F8046EE
:1002700081EA0300C00F0C46009021F0004123F0FA
:100280000045B8EB0200A94105D240462146904600
:100290001C460B46024623F00040104347D0270D72
:1002A000C7F30A00C3F30A510290401A0190402894
:1002B0006BDAC3F3130040F4801B0098924620B120
:1002C0000023D2EB030A63EB0B0B01985946C0F1F4
:1002D0004002504600F07AF906460D46504659460F
:1002E000019A00F092F910EB08006141002487EABE
:1002F000115284EAE7731A4340D0009A62B3019A1C
:10030000012A4FEA075215DC001B61EB02014FF096
:10031000004202EA0752CDE90042001C41F580117B
:1003200032462B4600F092F903B0BDE8F08F40460C
:100330002146F9E7001B61EB0201001C41F5801327
:1003400000185B412018A2F5001747EB030140EAB3
:10035000D570B6196D4111E06D084FEA360645EAD1
:10036000C0754FEA0752001B61EB0201001C41F50A
:10037000801149084FEA30000019514132462B469E
:1003800003B0BDE8F04F00F052B9009801224000E0
:100390000023D0EB020263EBE073009821464FEAA2
:1003A000E074B8EB000061EB0401E9E783F000437F
:1003B0005BE781F0004158E72DE9FE4F81EA030435
:1003C00004F0004421F0004100944FF0000B23F0B2
:1003D000004350EA01045ED052EA03045BD0C3F349
:1003E0000A54C1F30A552C44A4F2F3340194A0FB3F
:1003F0000254C1F3130141F48011C3F3130343F416
:10040000801301FB024400FB034E840A970A44EA6E
:10041000815447EA8357A4FB076802958D0A05FBC0
:1004200007854FEA932C04FB0C542705029D4FEAE5
:10043000065847EA1637B5EB08056EEB070C870E32
:10044000920E47EA811742EA8312A7FB0201B6EB3C
:100450000B0164EB00042B0D43EA0C335E1844EBF4
:100460001C50DA465146E7FB0201C5F313044FEA7C
:100470000B3343EA14534FEA0432019C43EA060368
:10048000A4F10C040294009CCDE900B400F0DEF865
:1004900003B0BDE8F08F00200146F9E72DE9F04DEB
:1004A00081EA030404F0004B21F0004514464FF0AC
:1004B000000A23F0004150EA050220D054EA01026C
:1004C0001DD0C5F30A570246C5F31303C1F3130049
:1004D000C1F30A5640F4801543F48013A7EB0608D5
:1004E000101BD64608F2FD3873EB050002D308F165
:1004F000010801E092185B41B8F1000F03DA002017
:100500000146BDE8F08D00204FF480110646844678
:100510000EE0171B73EB050705D3121B63EB0503F6
:1005200006434CEA010C49084FEA300092185B413F
:1005300050EA0107EDD152EA030012D082EA04002A
:1005400083EA0501084305D0101BAB4106D2012206
:10055000002306E000224FF0004302E06FF00102AA
:1005600053101AEB06004CEB085110EB0A0041EB5C
:100570000B01BDE8F04D00F05AB800F0004230F039
:1005800000400AD0C10D01F56071C0F3160042EAC7
:100590000151C208400711437047002001467047CF
:1005A00030B50B46014600202022012409E021FA43
:1005B00002F59D4205D303FA02F5491B04FA02F540
:1005C0002844151EA2F10102F1DC30BD202A04DB13
:1005D000203A00FA02F1002070479140C2F1200356
:1005E00020FA03F3194390407047202A04DB203A95
:1005F00021FA02F00021704721FA02F3D040C2F143
:1006000020029140084319467047202A06DBCB1789
:10061000203A41FA02F043EAE07306E041FA02F3BD
:10062000D040C2F12002914008431946704710B5EE
:10063000141E73F1000408DA401C41F10001921805
:100640005B411A4301D120F0010010BD2DE9F04DAE
:1006500092469B4611B1B1FA81F202E0B0FA80F203
:1006600020329046FFF7B2FF04460F4640EA0A00E8
:1006700041EA0B0153465A46084313D0114653EA48
:10068000010019D0C8F140025046FFF7AEFF054601
:100690000E46504659464246FFF798FF084305D09C
:1006A000012004E020463946BDE8F08D00200543D6
:1006B00046EAE0762C4337430A986305E40AA0EB48
:1006C00008000022FD0A44EA47540A3002D50020FF
:1006D0000146E9E7010510196941DDE908450019FE
:1006E0006941BDE8F04DA2E7C1F30A52C1F313011D
:1006F00040F2FF3341F480119A4202DA00200146B1
:10070000704740F233439A42A2F2334202DC524233
:10071000FFF76BBFFFF75ABF30B5041E71F100043D
:1007200004DB4FF00044404264EB0101141E73F1FE
:10073000000405DB1C464FF00043524263EB040308
:10074000994208BF904230BD064C074D06E0E06874
:1007500040F0010394E8070098471034AC42F6D308
:10076000FFF716FD543E0008743E0008FEE7000047
:10077000062804D240B207A151F82000704780B586
:1007800043F62E60E721C0F6000000F011F80020CB
:1007900080BD00BF5C1000200000000000000000D1
:1007A00000000000000000008810002070470000DA
:1007B00009B100BFFEE7704740F200400121C4F2DA
:1007C00027200160704700002DE9F04F82B041F60C
:1007D000004343F6004B08224FF0010A00264FF079
:1007E000000CC4F20203C4F2010B984200F13E4334
:1007F00008BF072203F1FF734FEAB327072F4FF01B
:10080000000738BF4FEAB322009200BF0A680AFA15
:100810000CF812EA080F00F09A80D1F804E04EF0CC
:100820001002122A12D106F01C020F2303FA02F45E
:100830006FF0030303EA5C0505442B6AA3430C69CC
:1008400004FA02F21A432A62D1F804E0032304688E
:100850000EF00302BEF1120F03FA07F302FA07F2D9
:1008600024EA03046FEA030942EA0402026014D88E
:100870000AFA0EF212F0061F0FD08268CB6802EA65
:100880000902BB401A438260CEF30012436802FAA9
:100890000CF223EA08031A434260C2688B6802EA3A
:1008A0000902BB401A43C2605FEACE024FD5002264
:1008B00006F00C050F24019243F64402AC40C4F24A
:1008C00002021346126842F480421A601A6802F467
:1008D000804201922CF00302019B5A444FF60843D8
:1008E000CFF6FF739E46D358A343009C04FA05F548
:1008F0002B4342F80E30DBF800204D6842EA080333
:10090000EC0358BF22EA0803CBF80030AC03DBF855
:10091000042042EA080358BF22EA0803CBF8043057
:10092000EC02DBF8082042EA080358BF22EA080379
:1009300043F60C42CBF80830AD02C4F20102144673
:10094000126842EA080358BF22EA080323600CF148
:10095000010C02370436BCF1100F04BF02B0BDE831
:10096000F08F53E7002A08BF09048161704741F204
:10097000B010C2F200000068704740F2080041F277
:10098000B011C2F20000C2F2000100780A681044FF
:100990000860704780B543F60040C4F20200016869
:1009A00041F400710160016841F4806101600168F7
:1009B00041F480710160032000F06BF80F2000F01B
:1009C00004F800F028F8002080BDB0B5044640F2DD
:1009D00008004FF47A71C2F200000078B1FBF0F029
:1009E00040F20401C2F200010968B1FBF0F000F02E
:1009F000D9FA01250F2C0CD858B94FF0FF302146F9
:100A00000022002500F017F840F20C00C2F20000AE
:100A100004602846B0BD704700280BDB00F01F01C2
:100A20000122400902FA01F14EF20012CEF2000258
:100A300042F82010704710B500F00F034EF60C5E20
:100A400000F1604CB0F1FF3FA3F10403CEF2000EC1
:100A5000734403F10C04C8BF0CF56444DEF80000D5
:100A60004FF0FF3CC0F30220C31E80F0070038BFE8
:100A70000023042828BF04200CFA00F021EA00001B
:100A80000CFA03F1984022EA0101084300012070AA
:100A900010BD4EF60C514FF6FF03CEF200010A686E
:100AA0001A4060F30A2242F0806040F0FD70086056
:100AB000704700002DE9F041002800F09E8043F6C9
:100AC000000804460D46C4F20208D8F8000400F0FD
:100AD0000F00884208D288F80054D8F8000400F0CB
:100AE0000F00A84240F089802068810717D5410790
:100AF00042BFD8F8081041F4E051C8F808100107C7
:100B000042BFD8F8081041F46041C8F80810D8F87E
:100B10000810A26821F0F0011143C8F80810C007BE
:100B200030D06068811E022904D2D8F800108901F3
:100B30000BD462E0012804D1D8F80010890304D452
:100B40005BE0D8F80010890757D5D8F8081021F0D5
:100B500003010843C8F80800FFF709FF064641F201
:100B6000883707E0FFF703FF801BB84284BF0320EC
:100B7000BDE8F081D8F80800616800F00C00B0EB27
:100B8000810FEFD1D8F8000400F00F00A84207D978
:100B900088F80054D8F8000400F00F00A8422CD1C7
:100BA0002068410707D5D8F80810E26821F4E05121
:100BB0001143C8F80810000708D5D8F808002169C3
:100BC00020F4604040EAC100C8F8080000F03EF898
:100BD000D8F8081043F68A12C0F60002C1F30311D8
:100BE000515CC84040F20401C2F2000108600F20CD
:100BF000FFF7EBFE0020BDE8F0810120BDE8F081A9
:100C000040F2040043F6080143F69A12C2F20000D3
:100C1000C4F20201C0F6000200680968C1F3822133
:100C2000515CC840704740F2040043F6080143F6A7
:100C30009A12C2F20000C4F20201C0F6000200687B
:100C40000968C1F34231515CC840704710B543F6A2
:100C50000404C4F20204606800F00C0008280AD002
:100C6000042819BF42F20040C0F2F40047F64000E9
:100C7000C0F27D1010BD226820680023400202F0FF
:100C80003F0247F64000C0F27D105CBF42F20040D8
:100C9000C0F2F4002168C1F38811A0FB0101FFF745
:100CA0008FFA21680222C1F3014102EB4101B0FB3E
:100CB000F1F010BD2DE9F04182B0002800F0148160
:100CC0000446007843F60006C4F20206C0072FD09F
:100CD000B06800F00C00042823D0B06800F00C00CD
:100CE000082802D1706840021BD46768B7F5803FBE
:100CF00007D03068B7F5A02F40F01A8140F480206B
:100D00003060306840F480303060FFF730FE0546D8
:100D1000306880030CD4FFF72AFE401B6428F7D903
:100D2000A8E03068800303D56068002800F0DC800C
:100D3000207880072ED5B06810F00C0F07D0B0686F
:100D400000F00C00082809D17068400206D4306811
:100D5000800718D5E068012815D0C5E0E1680020BB
:100D6000C4F24720002900F0878001210160FFF7CD
:100D7000FEFD05463068800705D4FFF7F8FD401BEF
:100D80000228F7D976E03068216920F0F80040EABF
:100D9000C10030602078000725D5606988B1002047
:100DA0000121C4F24720C0F8801EFFF7E0FD054690
:100DB000706F800717D4FFF7DAFD401B0228F7D9C0
:100DC00058E000200021C4F24720C0F8801EFFF741
:100DD000CEFD0546706F800705D5FFF7C8FD401BA7
:100DE0000228F7D946E02078400775D5306C4FF0DF
:100DF0000008C0000CD4CDF804804FF00108306C1E
:100E000040F080503064306C00F0805001900198C8
:100E100047F20007C4F200073868C0050FD43868ED
:100E200040F480703860FFF7A2FD05463868C005C1
:100E300005D4FFF79CFD401B0228F7D91AE0A768EC
:100E4000012F05D0306F052F27D140F00400306707
:100E5000306F40F001003067FFF789FD054641F231
:100E6000883700BF306F80072FD4FFF780FD401B0D
:100E7000B842F7D9032038E000210160FFF777FD81
:100E8000054600BF306880077FF584AFFFF76FFD30
:100E9000411B03200229F5D927E020F0010030672B
:100EA000306F20F004003067FFF761FD0546002F2A
:100EB000D5D141F28837306F800706D5FFF757FD4F
:100EC000411B0320B942F6D90FE0B8F1000F1EBF55
:100ED000306C20F080503064A769002F60D0B0687B
:100EE00000F00C00082803D1012002B0BDE8F08119
:100EF00040F200080020C4F24728C8F86000FFF75D
:100F000036FD0546022F09D13068800128D5FFF74C
:100F10002EFD411B03200229F6D9E6E73068800147
:100F20003ED5FFF724FD411B03200329F6D3DCE760
:100F300020F480303060306820F480203060FFF78B
:100F400016FD0546002F7FF4E3AE306880037FF581
:100F5000EFAEFFF70CFD411B03206429F5D9C4E770
:100F600004F11C078FCF0843D90340EA82104FF6E3
:100F7000FF72914340EA0760A1F580310843706039
:100F80000120C8F86000FFF7F2FC044630688001D9
:100F900006D4FFF7ECFC011B03200229F6D9A4E7D5
:100FA0000020A2E7411E0020B0EB116F1CBF012002
:100FB00070474EF21002F023CEF2000251604EF65E
:100FC0002351CEF200010B70072190601160704731
:100FD000B0B110B5044690F83D0028B9002084F85F
:100FE0003C00204600F00EF80220211D84F83D0050
:100FF000206800F00FFA012084F83D00002010BDA9
:10100000012070477047022180F83D1001688A680E
:1010100002F00702062A1EBF0A6842F001020A60B7
:10102000012180F83D100020704750B310B50446F0
:1010300090F8390028B9002084F83800204600F0E4
:1010400022F8242084F839002068C16821F4005176
:10105000C160204600F06DFA2068016921F49041DA
:101060000161416921F02A014161C16841F40051E7
:10107000C16000202021E06384F8391084F83A1020
:1010800010BD0120704770474EF62452CEF2000288
:101090009168B1F1FF3F57DD80B540F2100C116847
:1010A00041F200030FF2B00EC2F2000CC4F20103D1
:1010B000CCF8201011798CF824105179CCF8281034
:1010C0005169CCF82C10D188ACF830109168CCF86C
:1010D0003410D168CCF8381091690022CCF83C105B
:1010E0001EF80210596000BF19684906FCD501328C
:1010F000292AF5D140F254020021C2F20002116007
:10110000BDE8804011680029FCD00168CCF80010CF
:101110004168CCF804108168CCF80810C168CCF89C
:101120000C100169CCF810104169CCF814108169D9
:10113000CCF81810C069CCF81C000020106000BF6B
:1011400010680028FCD07047916841F00041916020
:1011500081690231816170470D0A456E74657220A4
:10116000486172644661756C745F48616E646C6559
:10117000722C2053797374656D2048616C742E0D48
:101180000A000000072829D8B0B543F6A41C0021A6
:10119000FF220023C0F6000C5CF831500CEBC10EAE
:1011A000BEF804402D692C409EF8065018BF01245B
:1011B000AC42A4EB050508BF0A460131B5FA85F536
:1011C00008294FEA55152B44E6D1504083F0010120
:1011D0000843C0B2B0FA80F04009B0BD092810D071
:1011E00008281ED142F21000C4F202000068C005B7
:1011F00017D440F61000C4F20200006880040ED537
:101200000FE040F61000C4F202000068800408D429
:1012100042F21000C4F202000068000501D401206F
:101220007047002070470000FEE77047704780B5A8
:1012300086B043F6300100200190C4F202010A6832
:1012400042F002020A60096801F00201019101996D
:101250000321CDE90301012001A90290042001909E
:1012600040F20040C4F20200FFF7AEFA06B080BDC3
:10127000704780B5FFF781FB41F2B400C2F2000075
:101280000078002814BFBDE8804080BDAFF3008027
:1012900041F2AC10C2F20000016849B101680139A5
:1012A000016005D141F2A8100121C2F200000170D5
:1012B00041F2781100204FF0010CC2F2000100BF92
:1012C0000B185A6852B15A68013A5A6006D183F82D
:1012D00001C00A5C012A04BF9A685A600C303028A9
:1012E000EED141F258006FF00042C2F200000168F6
:1012F000013101600168914204BF0021016080B5A5
:1013000001F0C7F940F25000C2F20000017801314B
:101310000170C9B20A29BDE8804038BF704700217A
:10132000017001F0B4B94EF608504FF0000CCEF247
:101330000000D0F8801041F47001C0F8801043F62E
:101340000001C4F202010A6842F001020A60C1F819
:1013500008C04FF6FF720B68CFF6F6621A400A60BB
:1013600043F21002C2F200424A600A6822F480226C
:101370000A60C1F80CC04FF000610160704710B501
:101380000C24C4F2000460682168084080070BD573
:101390004FF6FD70606021680840206041F2B8009F
:1013A000C2F200000068804760682168084040077A
:1013B0000BD54FF6FB70606021680840206041F259
:1013C000BC00C2F2000000688047606821680840E5
:1013D00000070BD54FF6F770606021680840206069
:1013E00041F2C000C2F200000068804760682168D6
:1013F0000840C00658BF10BD4FF6EF70606021680E
:101400000840206041F2C400C2F200000068BDE85C
:101410001040004740F6FF3C0268C4F2000C6045F3
:101420000DDCB0F1804F1BD040F20043C4F200034A
:10143000984215D040F60003C4F200030EE040F6D7
:101440000043C4F2000398420AD040F20043C4F2C1
:101450000103984204D00023C4F20103984203D14F
:101460004B6822F070021A4341F6FF73C4F2000386
:1014700098420DDC60451FDCB0F1804F3FD040F258
:101480000043C4F20003984239D040F6000321E043
:1014900043F6FF73C4F2010398421EDC42F20003DC
:1014A000C4F2000398422AD00023C4F201039842F8
:1014B00025D040F200431EE040F60043C4F2000392
:1014C00098421CD041F60003C4F20003984216D0A3
:1014D00041F60043C4F200030FE044F20003C4F2FB
:1014E000010398420BD044F60003C4F20103984272
:1014F00005D044F20043C4F20103984203D1CB6803
:1015000022F440721A434B6922F080021A4340F2DF
:1015100000430260C4F201038A68C2620A68826200
:1015200040F480629A4204BF09690163012141616C
:1015300070472DE9F04381B00446006849F20C651C
:101540000169E26821F4405111430161A168D4E9C5
:101550000423E769C6681143AE43B7F5004F41EA7B
:10156000030141EA070141EA0601C1604169A2693C
:1015700021F4407141EA0201416141F2004140F42D
:101580008060C4F2010145D1884240F08880FFF7B5
:101590004AFBD4F804808146FFF745FB65680646A0
:1015A000FFF741FB6168192778434900B0FBF1F070
:1015B00048F21F51C5F2EB11A0FB01235A09642325
:1015C00002FB130206FB07F36E00B3FBF6F3181AD7
:1015D0004FEA48031044322202EBC000A0FB010294
:1015E0004FF4F87000EA121009FB07F2B2FBF3F2B5
:1015F000A2FB01126FF00F0101EA520100EB01089A
:10160000FFF711FB616878434900B0FBF1F6FFF783
:101610000AFB86E0884240F08A80FFF704FBD4F89A
:1016200004808146FFF7FFFA65680646FFF7FBFA7C
:101630006168192778438900B0FBF1F048F21F5127
:10164000C5F2EB11A0FB01235A09642302FB13022C
:1016500006FB07F3AE00B3FBF6F3181A4FEA880354
:101660001044322202EB0010A0FB0102F02000EA3D
:10167000521009FB07F2B2FBF3F2A2FB01126FF06A
:101680000F0101EA520100EB0108FFF7CCFA616893
:1016900078438900B0FBF1F6FFF7C5FA88E0FFF761
:1016A000AFFAD4F804808146FFF7AAFA65680646C7
:1016B000FFF7A6FA6168192778434900B0FBF1F0FB
:1016C00048F21F51C5F2EB11A0FB01235A09642314
:1016D00002FB130206FB07F36E00B3FBF6F3181AC6
:1016E0004FEA48031044322202EBC000A0FB010283
:1016F0004FF4F87000EA121009FB07F2B2FBF3F2A4
:10170000A2FB01126FF00F0101EA520100EB010888
:10171000FFF776FA616878434900B0FBF1F6FFF70E
:101720006FFA6168784307220323490045E0FFF719
:1017300067FAD4F804808146FFF762FA65680646C6
:10174000FFF75EFA6168192778438900B0FBF1F072
:1017500048F21F51C5F2EB11A0FB01235A09642383
:1017600002FB130206FB07F3AE00B3FBF6F3181AF5
:101770004FEA88031044322202EB0010A0FB010262
:10178000F02000EA521009FB07F2B2FBF3F2A2FBD1
:1017900001126FF00F0101EA520100EB0108FFF79F
:1017A0002FFA616878438900B0FBF1F6FFF728FA59
:1017B000616878430F2204238900B0FBF1F0311AED
:1017C00048F21F57C5F2EB17A0FB07656E096425A9
:1017D00006FB1500084498403230A0FB070102EADE
:1017E0005110216840EA0800886001B0BDE8F0832C
:1017F00041F25C00C2F2000000F006B841F288003D
:10180000C2F20000AFF3008070B5044600680568BE
:10181000C6684169A90616D54068E18AA268505495
:10182000E18A4A1CE28292B2E1898A4224BF002204
:10183000E282628B8A423EBF618B01316183616AC1
:1018400009B1C0B2884706EA050001061FD5A18A82
:10185000A1B1012184F82810618AD4E90023595CE0
:101860005160618A0131618289B2A289914224BFAB
:1018700000216182A18A0139A18208E02168CA6839
:1018800022F08002CA60CA6842F04002CA60400684
:1018900058BF70BDA08A88B1608AD4E90012105C7C
:1018A0004860608A0130608280B2A189884224BF8A
:1018B00000206082A08A0138A08270BD2068C168C3
:1018C00021F04001C160206A00B18047002084F807
:1018D000280070BDFEE70000B0F800C043885268E1
:1018E0004968406803FB0CFC0023B3EB9C0F2BD032
:1018F0004FEA9C035B4200BF91ED000A90ED001A95
:10190000013331EE000A82ED000A91ED010A90EDFB
:10191000011A31EE000A82ED010A91ED020A90ED02
:10192000021A31EE000A82ED020A91ED030A90EDEF
:10193000031A01F1100100F1100031EE000A82EDEE
:10194000030A02F11002D7D11CF0030310D05B424E
:1019500091ED000A90ED001A013301F1040100F14C
:10196000040031EE000A82ED000A02F10402EFD118
:101970000020704710B5B0F800C04388526849682D
:10198000406803FB0CFC0023B3EB9C0F16D04FEA1E
:101990009C035B42D1F800E00468013394FA1EF422
:1019A0001460D1F804E0446801F1080100F1080076
:1019B00094FA1EF4546002F10802EBD11CF0030308
:1019C0000AD05B4231F902CB30F9024B013394FA71
:1019D0001CF422F8024BF5D1002010BD10B5B0F870
:1019E00000C0438852684968406803FB0CFC002330
:1019F000B3EB9C0F22D04FEA9C035B42D1F800E08E
:101A0000046801338EFA84F41460D1F804E0446869
:101A10008EFA84F45460D1F808E084688EFA84F475
:101A20009460D1F80CE0C46801F1100100F11000DD
:101A30008EFA84F4D46002F11002DFD11CF00303AB
:101A40000AD05B4251F804CB50F8044B01338CFAB6
:101A500084F442F8044BF5D1002010BD436042806D
:101A6000018070474360428001807047436042803C
:101A7000018070472DE9F04F8BB0B0F800B042887C
:101A800049684068BBF1000F0792069100902BD087
:101A90006FF00300069C00274FF07E595E4600EB76
:101AA0008B0800BFBBEB060008D0B9002046FEF74C
:101AB000D1FB0020013004348742FBD104F1040A39
:101AC000751EC4F800900FD0A8EB87015046FEF7B2
:101AD000C1FB0120544600BF013004348642FBD1D3
:101AE0000137002D2E46DDD1DDF81CE0BEF1000FE0
:101AF00000F0FA80042000999FED8B0A4FEA8E05D2
:101B0000ABF101047746CDF808B000EB8E000190F0
:101B1000CEF1000001EB8E080B1D894608900020D5
:101B2000584580F0F980069A00FB0EF14646B0EE6B
:101B3000403A02EB810209EB810191ED001A099113
:101B400021460A92B0EE414A07E000BF96ED004AF6
:101B500072190139B0EE423A1646B5EEC04AF1EEBE
:101B600010FA09DDB4EEC34AB0EE442AF1EE10FAE1
:101B7000D8BFB0EE432A08E0B1EE442AB4EEC23A30
:101B8000F1EE10FA01DBB0EE432A0029DED1B5EE0A
:101B9000402AF1EE10FA00F0BF80B0EEC13AB4EE88
:101BA000423AF1EE10FA1CBFC14311EB0B0104D015
:101BB000002100BF01318C42FCD1B5EE401AF1EE9C
:101BC00010FA00F0A980099A4FF07E51AEEB000C9C
:101BD000BCF1010F116008990A9A0DD001211A4633
:101BE00092ED002A01318F4282EE012AA2EC012AF5
:101BF000F6D108990A9A00BF92ED002A013182EECF
:101C0000012A82ED002A02F10402F5D1BBF1000F96
:101C1000CDF81480CDE903944FD00699ACF10108BA
:101C20004E464FF0000A00BF824505D101EB8E0100
:101C300006EB8C063AE000BF099A96ED001AB8F15F
:101C4000000F92ED002A21EE022A31EE422AA6EC84
:101C5000012A19D001224FF0000E00BF03EB0E093C
:101C600006EB0E0401320EF1040E99ED002A94EDFC
:101C7000003A974221EE022A33EE422A84ED002AEE
:101C8000ECD17644DDF81CE0089A0A9C94ED002A19
:101C900091ED003A013204F1040421EE022A33EE00
:101CA000422A81ED002A01F10401EFD106EB800602
:101CB0000AF1010ABBF1010BB6D1049CDDF80C90CE
:101CC0000199DDF81480DDF808B00130013F0B44C4
:101CD0008844A4F1010409F104097FF421AFB5EEB1
:101CE000401AF1EE10FA1CD10EFB0BF1002000227D
:101CF00059B1009B93ED000AB5EE400AF1EE10FADF
:101D000003D1013204338A42F4D38A4208BF6FF010
:101D100004000BB0BDE8F08FFB2040B20BB0BDE873
:101D2000F08F0020F9E700BF00000000B0F800C00D
:101D3000438852684968406803FB0CFC0023B3EBFE
:101D40009C0F2BD04FEA9C035B4200BF91ED000A31
:101D500090ED001A013331EE400A82ED000A91ED58
:101D6000010A90ED011A31EE400A82ED010A91ED6F
:101D7000020A90ED021A31EE400A82ED020A91ED5C
:101D8000030A90ED031A01F1100100F1100031EE89
:101D9000400A82ED030A02F11002D7D11CF00303BE
:101DA00010D05B4291ED000A90ED001A013301F171
:101DB000040100F1040031EE400A82ED000A02F154
:101DC0000402EFD10020704710B5B0F800C043887E
:101DD00052684968406803FB0CFC0023B3EB9C0F7E
:101DE00016D04FEA9C035B42D1F800E0046801334F
:101DF000D4FA1EF41460D1F804E0446801F108013B
:101E000000F10800D4FA1EF4546002F10802EBD18C
:101E10001CF003030AD05B4231F902CB30F9024BCC
:101E20000133D4FA1CF422F8024BF5D1002010BD86
:101E300010B5B0F800C0438852684968406803FB99
:101E40000CFC0023B3EB9C0F22D04FEA9C035B42B7
:101E5000D1F800E0046801338EFAA4F41460D1F8DC
:101E600004E044688EFAA4F45460D1F808E0846871
:101E70008EFAA4F49460D1F80CE0C46801F110016A
:101E800000F110008EFAA4F4D46002F11002DFD148
:101E90001CF003030AD05B4251F804CB50F8044B0A
:101EA00001338CFAA4F442F8044BF5D1002010BDA4
:101EB000032884BF0020704741F2781100EB4000F6
:101EC000C2F2000101EB8001002011F8012F012A6C
:101ED00004BF08700120704741F26811C2F200018E
:101EE0008A7AC87A824204BF00207047885C013237
:101EF000D3B2092B88BF00228A727047704770B531
:101F000092B0FEF747FD43F64004002502260195F6
:101F1000C4F20204206840F080502060206800F085
:101F2000805001900198019547F20000C4F2000032
:101F3000016841F480410160006800F48040019034
:101F4000019804200C904FF4A8700B960A90192069
:101F500009904FF48000CDE907604FF48030029083
:101F60000120019001A8FEF7A5FE4FF48050052145
:101F700011904FF4A05010900F20CDE90E650D90F8
:101F80000DA8FEF797FD0095606840F48040606002
:101F9000606800F4804000900098FEF70DFC00F0AF
:101FA000B9F800F095F900F0CAF900F033F900F043
:101FB00002F812B070BD70B586B043F63001002053
:101FC00040F2004501AE0190C4F20201C4F20205E4
:101FD0000A6805F5E05442F480720A600A6802F467
:101FE00080720192019A01900A6842F002020A602E
:101FF0000A6802F002020192019A01900A6842F016
:1020000040020A60096801F0400101910199022132
:10201000CDE9030101203146CDE901002046FEF75C
:10202000D3FB8020314601902846FEF7CDFB4FF4CC
:10203000807005F5A055314601902846FEF7C4FB97
:102040004FF40040314601902846FEF7BDFB28467C
:102050004FF400410122FEF785FC204601210022B9
:10206000FEF780FC28464FF480710122FEF77AFCCF
:1020700005204FF4E13100F0A9FB06B070BD10B5AA
:1020800092B002AC242104F11C00FEF7E3F843F601
:10209000400100200190C4F202010A6842F00102EE
:1020A0000A604FF08042096801F001010191019935
:1020B00006904FF0FF31059102928022CDE9070290
:1020C000049040F204004DF68362C2F20000C4F2B4
:1020D0001B320068A0FB020201EBD24080B20390E9
:1020E0002046FEF775FF38B143F60F6040F21F211E
:1020F000C0F60000FEF75CFB1C2000210222FEF768
:102100009AFC1C20FEF788FC02A8FEF77CFF12B0A8
:1021100010BD000070B586B041F2681000210222A7
:1021200064230026C2F200000173418141F2C8001D
:10213000C2F2000085191036A02E29732A71AB60F7
:10214000F8D106216422002543F6A41601ACA0F8BC
:102150006B10A0F86820A0F85B10A0F85820A0F839
:102160004B10A0F84820A0F83B10028743F630003F
:102170000195C0F60006C4F20200016841F00401B6
:102180000160016801F00401019101990195016864
:1021900041F020010160016801F0200101910199E5
:1021A0000195016841F080010160016801F0800142
:1021B000019101990195016841F0400101600168B8
:1021C00001F04001019101990195016841F0800100
:1021D0000160016801F08001019101990195016898
:1021E00041F480710160006800F4807001900198F2
:1021F00003200490CDE9025506EBC50021468088F6
:10220000019056F83500FEF7DFFA0135082DF3D1BD
:1022100006B070BD2DE9F04186B043F630000021D4
:1022200041F2184340F6000480264FF480774FF0C7
:10223000040801AD0191C4F20200C4F20203C4F229
:102240000204026842F004020260026802F0040222
:102250000192019A0191026842F020020260026834
:1022600002F020020192019A0191026842F4807208
:1022700002604FF48062006800F480700190019861
:1022800042F20000C4F2020082611E601F6002235D
:10229000C4F81880CDE903130121CDE901212946B5
:1022A000FEF792FA019604F5406629463046FEF79D
:1022B0008BFA304629460197FEF786FA20462946D2
:1022C000CDF80480FEF780FA06B0BDE8F08100008A
:1022D00041F2781100200022C2F200018B185860F0
:1022E0009860587088540C32302AF7D140F20400BC
:1022F00044F6D351C2F20000C1F262010068A0FBB3
:1023000001014FF0FF3000EB91110020B0EB116F95
:102310000DD14EF21002F023CEF2000251604EF6C3
:102320002351CEF200010B7090600720106041F243
:10233000B4000121C2F200000170FFF7A0BE2DE938
:10234000F04F87B041F25C0141F2880040F258033F
:1023500040F6580741F2000400254FF0042243F6EE
:1023600030064FF0070B0DF108094FF0020AC2F2D8
:102370000001C4F20104C2F20000C2F20003C2F282
:102380000007C4F202060D824D82CD820D834D837B
:102390008D8205824582C58205834583C1E9004758
:1023A000C1E9023240F6584381F82850C1E9075587
:1023B0004D6240F2584104F580680027C2F20003E4
:1023C000C2F20001C4F20207C0E90083C0E90212B0
:1023D000858280F82850C0E9075545620295494634
:1023E000306840F001003060306800F00100029079
:1023F00002980295306840F001003060306800F0CB
:102400000100029002980295706940F0100070611E
:10241000706900F0100002900298CDF818B0032007
:102420000590012004904FF4007002903846CDF8DA
:102430000CA0FEF7C9F94FF48060CDF818B04946FA
:1024400002903846FEF7C0F9252000210122FEF750
:10245000F2FA2520FEF7E0FA20464FF4E13100229F
:102460000C2300F017F92068494620F04000206056
:10247000206820F020002060E06840F02000E0604C
:102480000195306840F040003060306800F0400056
:10249000019001980195306840F004003060306888
:1024A00000F004000190019801950825706940F042
:1024B00020007061706900F02000019001980320F5
:1024C00005900120CDE903A04FF48040029007F56C
:1024D000C0500695FEF778F980200695494602908F
:1024E00007F50060FEF770F9472000210622FEF78D
:1024F000A2FA4720FEF790FA40464FF4E13100225D
:102500000C2300F0C7F8206820F04000206020680D
:1025100020F02000206041F20C40C4F2010001686C
:1025200041F020010160FEF782FE07B0BDE8F08FA8
:102530002DE9F04F81B041F2C80541F2681A4FF021
:10254000000B4FF005094FF0010800260027C2F2EA
:102550000005C2F2000A00BFF8B2AC19FEF712FE85
:10256000217928B1042909D884F804904CE000BFEF
:10257000062908D384F8049042E000BF092906D850
:10258000481C207140E031B3481E207138E0A07A29
:1025900088B907EB47019AF80B0084F80A800131EB
:1025A0000AF800109AF80B000130C1B2092988BF5F
:1025B00000208AF80B00208930B3E18881422BD2B9
:1025C0000131E18089B281421ED107EB47019AF8BF
:1025D0000B00033130E0A07A012811D107EB47014D
:1025E0009AF80B0084F80AB002310AF800109AF841
:1025F0000B000130C1B2092988BF00208AF80B0006
:1026000084F80CB0A4F806B010360137A02E04BF31
:1026100001B0BDE8F08F9FE7E07A0028F4D0217B7D
:1026200001312173C9B28142EED307EB47019AF819
:102630000B0084F80CB001310AF800109AF80B0076
:102640000130C1B2092988BF00208AF80B00DBE7FE
:10265000431E032B88BF704740F6140C4FF4806173
:10266000C4F2020C0CF5C050DFE803F00D02060BBB
:102670000CF54060802106E00CF540604FF480715D
:1026800001E0042160460268514001607047FFF795
:102690004FBF704780B590B04FF0000CCDE903C23A
:1026A0008DE803106846CDF81CC0CDE9053CFEF767
:1026B000BCFC38B143F62E6040F2BA21C0F60000EF
:1026C000FEF776F810B080BD04280ED380B543F62F
:1026D000EF5043F60F610FA2C0F60000C0F60001F4
:1026E00000F036FCBDE88040FEE741F2781300EBD5
:1026F00040004FF0010C8CF31088C2F2000303EB92
:102700008002516091600021517003F820C081F374
:10271000108870476273705F53746172744175748E
:102720006F54696D657200002DE9F04182B0144666
:102730008846FEF71DF8002845D00646C06900B15E
:102740008047002C3AD000200121002281F310881C
:10275000B38AADF8063080F3108812E0BDF8065059
:102760009D4207D13368DD682D065EBFDD6845F008
:102770008005DD6081F31088B38AADF8063080F300
:102780001088BDF80650B3899D42E7D218F8023090
:102790007568378A0132EB5581F31088338A01332B
:1027A00033829BB2B789BB4228BF3082B38AA24230
:1027B00003F10103B38280F31088C7D13068C16888
:1027C00041F08001C16002B0BDE8F081024641F2F3
:1027D0000000C4F2010022B1052A18BF704700F5BD
:1027E000806000220C23FFF755BF10B582B004466D
:1027F0008DF807000DF1070100200122FFF794FF7B
:10280000204602B010BD0000ADF5327DFFF777FB2A
:1028100043F6F124C0F60004204600F099FB47F689
:1028200010204DF68361C1F6FF70C4F21B310568BC
:102830004668876840F20400C2F200000068A0FB0E
:10284000010143F6C120890CC0F6000000F080FBB6
:1028500043F63130394632462B46C0F6000000F0D0
:1028600077FB0FF24C6000F073FB204600F070FB2A
:1028700043F6A92043F6B451C0F60000C0F60001AB
:1028800000F066FB43F691200FF22861C0F60000CD
:1028900000F05EFB43F6792043F6E451C0F60000F9
:1028A000C0F6000100F054FB43F69930C0F600007A
:1028B00000F0C8FF0FF2006000F0C4FF43F648309C
:1028C000C0F6000000F0BEFF43F6F140C0F6000085
:1028D00000F0B8FF43F65F30C0F6000000F0B2FF32
:1028E00043F67930C0F6000000F0ACFF43F6D1406B
:1028F000C0F6000000F0A6FF43F60550C0F6000049
:1029000000F0A0FF204600F023FB43F6C240C0F6D3
:10291000000000F097FF43F67B40C0F6000000F097
:1029200091FF0FF2985000F08DFF0FF2D05000F0A1
:1029300089FF43F67250C0F6000000F083FF43F6B3
:102940003150C0F6000000F07DFF00206421FFF749
:10295000BBFE43F6680043F6412443F61F290DF5FC
:102960008C7A0DF1F208C0F60000C0F60004C0F643
:102970000009D0E900B1249181682391C1682291B6
:10298000016921914169209181691F91C169006AA2
:102990001D9043F68C001E91C0F6000001681C914A
:1029A00041681B9181681A91C16819910169189158
:1029B0004169179181691691C169006A149043F6C3
:1029C000B0001591C0F600000168139141681291A2
:1029D00081681191C168008A0F9043F654101091DC
:1029E000C0F6000001680E9141680D9181680C915C
:1029F000C1680B9101690A91416909918169089146
:102A0000C169006A069043F678100791C0F600008D
:102A1000016805914168049181680391C168008A49
:102A200002910190FFF76AFA0020FFF741FA10B116
:102A30000220FFF70DFEFFF74FFA062800F3B880DB
:102A4000012800F07B810428ECD1209E219B229A52
:102A5000239924980DF5FC7C0DF59E7E38963793CE
:102A600036923591CDE933B01D9C1E9F1F9D3B943E
:102A70003A9739958CE84E00CDE97CB08494CDE945
:102A80008257179E189F199B1A9A1B991C98DDF85C
:102A900050C0159C169D2F9654962E972D932C92D0
:102AA0002B912A90CDF8C8C0319430958EE88F00D4
:102AB000CDE9564C0DF5827C43F64244559558AE0F
:102AC000109B119A129913980F9FC0F60004289337
:102AD000279226912590ADF8A4708CE80F0033A8BA
:102AE000ADF814717CAFB1904FF00310B090CDE908
:102AF000AE07CDE9AC06204600F0A4FEB0A8AEA912
:102B0000ACAAFEF7E9FE43F665240025C0F60004F2
:102B100056F8040BFDF731FD02460B4620462946C8
:102B200000F016FA0135092DF2D12AA84FF0031151
:102B3000AB904FA8AA91CDE9A81043F6CA30CDE9D1
:102B4000A61AC0F6000000F07DFEAAA8A8A9A6AAB1
:102B5000FEF744FF43F6F716002525ACC0F6000645
:102B60005AF825203046294600F0F2F90135092DA2
:102B7000F6D14FF0031041A9A594A490CDE9A2018C
:102B8000CDE9A00843F60640C0F6000000F05AFE6A
:102B9000A4A8A2A9A0AAFEF7EDFE002538F91520E9
:102BA0004846294600F0D4F90135092DF6D17AE1DD
:102BB000072800F04B8116287FF434AF209E219B1C
:102BC000229A239924980DF5FC7C389637933692F7
:102BD0003591CDE933B01D9C1E9F1F9D3B943A97C4
:102BE00039958CE84E00CDE97CB0849443F642449C
:102BF00083977CAF58AE82951798C0F600042F904B
:102C000018982E9019982D901A982C901B982B900C
:102C10001C982A90149832901598319016983090FC
:102C2000099854900A9853900B9852900C98519090
:102C30000D9850900E984F90069857900798569080
:102C400008985590109828901198279012982690DF
:102C5000139825900F98ADF8A4000298449003981B
:102C6000439004984290059841900198ADF8140162
:102C700033A8B1904FF00310B090CDE9AE07CDE985
:102C8000AC06204600F0DEFDB0A8AEA9ACAAFFF766
:102C90004DF843F665240025C0F6000456F8040BF1
:102CA000FDF76BFC02460B462046294600F050F922
:102CB0000135092DF2D12AA84FF00311AB904FA88E
:102CC000AA91CDE9A81043F6CA30CDE9A61AC0F6FC
:102CD000000000F0B7FDAAA8A8A9A6AAFFF7A8F8C7
:102CE00043F6F716002525ACC0F600065AF8252055
:102CF0003046294600F02CF90135092DF6D14FF068
:102D0000031041A9A594A490CDE9A201CDE9A008A2
:102D100043F60640C0F6000000F094FDA4A8A2A966
:102D2000A0AAFFF751F8002538F915204846294692
:102D300000F00EF90135092DF6D1B4E020985E4679
:102D4000CDF8CCB0389021983790229836902398BF
:102D50003590249834901D983B901E983A901F9877
:102D6000399017982F9018982E9019982D901A989E
:102D70002C901B982B901C982A90149832901598A0
:102D800031901698309010982890119827901298AA
:102D90002690139825900F98ADF8A40043F6424072
:102DA000C0F6000000F04EFD33AD7CA803210322E5
:102DB0002B46FEF753FE4FF0000B00BF55F8040BF7
:102DC000FDF7DBFB02460B462046594600F0C0F8F3
:102DD0000BF1010BBBF1090FF0D143F64240C0F6F5
:102DE000000000F02FFD2AAC58A80321032223463F
:102DF000FEF73CFE43F6E4170025C0F6000700BFCF
:102E000054F825203846294600F0A2F80135092D4E
:102E1000F6D143F64240C0F6000000F013FD25ACA9
:102E20004FA8032103222346FEF71CFEB34643F6B8
:102E30000C260025C0F6000634F915203046294638
:102E400000F086F80135092DF6D12CE043F6C401D7
:102E500058AC90222046C0F60001FDF7E2F94FF091
:102E600006107CAE509451464F90CDE946064FA8CF
:102E7000FEF700FE014643F63420C0F6000000F0E5
:102E800067F843F653240025C0F6000456F8040BF7
:102E9000FDF773FB02460B462046294600F058F822
:102EA0000135242DF2D143F64124C0F60004B9E5E2
:102EB0000A0D0000312E30002A200D00322E20E6AF
:102EC0008C89E4B88BE68C89E994AE4B31EFBC8CED
:102ED000E4B8B2E58FA3E68993E587BDE695B044F3
:102EE00053505F4D6174496E6974E79A84E8BE93EC
:102EF000E587BAE695B0E68DAE0D0000332E20E6EC
:102F00008C89E4B88BE68C89E994AE4B32EFBC8CAB
:102F1000E4B8B2E58FA3E68993E587BDE695B044B2
:102F200053505F4D6174416464E79A84E8BE93E551
:102F300087BAE695B0E68DAE0D0000001EF0040FD6
:102F40000CBFEFF30880EFF30980FEF79DB8000097
:102F50000FB4054B10B503A9044A029800F0DAF843
:102F600010BC5DF814FB0000EB27000800000020F7
:102F700002E008C8121F08C1002AFAD17047704742
:102F8000002001E001C1121F002AFBD170470000A0
:102F90002DE9FF5F82B00021DDE90430020DDDF88C
:102FA00040B0034318D044F61050A2F2FF3242431F
:102FB0001514119801281FD0A5EB0B00401C5FEAE7
:102FC000000A4FF000064E4FDFF83891B0465046E9
:102FD00015D5CAF1000413E0119801244AA3012871
:102FE00001D16FEA0B010298119AC0E90031C0E9E2
:102FF000024206B0BDE8F09FCBF10000DFE70446D7
:103000000021404A491842EB0450CDE9001012E07B
:10301000E00707D032463B4640464946FDF7CCF92B
:103020008046894632463B4610461946FDF7C4F9AC
:1030300006460F466410002CEAD1DDE90401DDE903
:103040000023BAF1000F06DAFDF7B6F942464B4607
:10305000FDF7B2F905E0FDF721FA42464B46FDF7D0
:103060001DFA04460E460022284BFDF755FB03D8F7
:103070004FF0FF30014607E00022254B2046314645
:10308000FDF7F3F8FDF730FB102409E0002C0ADB14
:103090000A220023FDF794F8039B30321A55641E70
:1030A00050EA0102F2D1641C039AC4F111031444E2
:1030B000119A012A03D0012208430DD10AE00843E6
:1030C00004D000204FF0110B119072E7A3EB0B0519
:1030D0006D1E0DE05B4504DD4FF0000205F10105BA
:1030E00004E003DA4FF00002A5F10105002AECD05C
:1030F00002981199C0E90231C0E9004579E7000062
:10310000000014400000F03F300000000000F043D9
:103110000000E03F2DE9FF4F95B09B4689460646EB
:1031200000250FE2252877D100242746F84A0121FF
:10313000059400E0044316F8013F203B01FA03F038
:103140001042F7D130782A2811D06FF02F03307851
:10315000A0F13002092A16D8059A44F0020402EBC5
:10316000820203EB42021044761C0590EFE759F807
:10317000042B0592002A03DA504244F400540590CF
:1031800044F00204761C30782E2816D116F8010F70
:1031900044F004042A280DD06FF02F023078A0F1FB
:1031A0003003092B09D807EB870302EB4303C71849
:1031B000761CF3E759F8047B761C30786C280FD026
:1031C00006DC4C2817D068280DD06A2814D104E0FA
:1031D000742810D07A280FD10DE044F400140AE0CE
:1031E00044F4801401E044F440147278824202D125
:1031F00004F58014761C761C307866280BD013DC1E
:10320000582877D009DC002875D04528F6D0462804
:10321000F4D047281AD19DE118E0632835D06428FE
:1032200079D0652812D195E1702873D008DC672821
:10323000F1D069286FD06E280DD06F2806D1B5E087
:1032400073282CD0752875D0782874D05A461799D1
:1032500090476D1C75E1C4F30250022809D0032881
:103260000DD0D9F8001004280DD00D6009F1040923
:1032700067E1D9F80010EA17C1E90052F6E7D9F87A
:1032800000100D80F2E70D70F0E719F8041B8DF8BF
:10329000001000208DF80100EA46012003E059F8F3
:1032A00004AB4FF0FF3061074FF0000102D40DE096
:1032B00008F101018846B9420FDA8045F8DB1AF8B7
:1032C00008100029F4D108E008F101018846814284
:1032D000FADB1AF808100029F6D105985B46A0EB36
:1032E000080721463846179A00F094FA284400EB64
:1032F000080507E04DE029E10DE01AF8010B5A46F8
:1033000017999047B8F10108F7D25B462146384635
:10331000179A13E142E00A220092C4F302524FF0DE
:10332000000A022A08D059F804CB032A4FEAEC71AC
:103330000AD00DE029E02AE009F1070121F0070297
:10334000F2E802C1914609E00FFA8CFC4FEAEC71F9
:10335000042A03D14FFA8CFC4FEAEC71002907DAFA
:103360000A460021DCF1000C61EB02012D2202E093
:10337000220504D52B228DF80420012203E0E20768
:1033800001D02022F7E7904659E00A2102E01022FE
:103390000DE010214FF0000A00910BE010224FF0D9
:1033A000000A44F004040827009203E008224FF0CA
:1033B000000A0092C4F30252022A05D059F804CB45
:1033C0000021032A08D009E009F1070121F00702D2
:1033D000F2E802C1914605E01FFA8CFC042A01D1F3
:1033E0000CF0FF0C4FF00008220728D5702806D0FB
:1033F000009B83F0100353EA0A0305D00EE040223D
:103400008DF80420012208E05CEA010206D0302297
:103410008DF804208DF8050002229046009B83F071
:10342000080353EA0A030AD15CEA010201D16207E8
:1034300005D530228DF804204FF001087F1E582852
:1034400004D034A003900EA802900DE036A0F9E756
:1034500053466046009AFCF7B3FE84460398825CAC
:103460000298401E029002705CEA0100F0D10298BE
:1034700006A9081A00F1200A600702D524F4803456
:1034800000E00127574502DDA7EB0A0000E000201D
:1034900000EB0A01009005984144401A0590E003B2
:1034A00006D45B462146179A059800F0B3F9054407
:1034B000002706E001A85A46C05D179990476D1C89
:1034C0007F1C4745F6DBE0030CD55B462146179A87
:1034D000059800F09FF9054404E030205A461799FA
:1034E00090476D1C0099481E00900029F5DC08E00B
:1034F000029802995A460078491C02911799904700
:103500006D1CBAF10001AAF1010AF1DC65E10000CD
:1035100009280100303132333435363738396162A9
:10352000636465660000000030313233343536376D
:1035300038394142434445460000000000F058F944
:103540000544761C307800287FF4ECAD19B028468D
:10355000BDE8F08F620700D4062709F1070222F0C8
:10356000070CFCE80223E14603F000485FEA080C80
:1035700002D00FF2702C0DE05FEA045C02D50FF26E
:10358000682C07E05FEAC47C02D00FF2602C01E0F7
:10359000AFF2700C4FF0FF3823F00043CDF850C06D
:1035A00065280CD006DC452809D046281DD04728C0
:1035B0003DD13DE0662818D067287ED138E0002153
:1035C000112F01DB112000E0781CCDE9000106A9D4
:1035D0000EA8FFF7DDFCDDE90F010E9A0391002133
:1035E000009207F1010A04914DE04FF0004000976E
:1035F000CDE9011006A90EA8FFF7CAFCDDE90F020C
:1036000003920E9B11990022DDF80CA00093049206
:1036100011B9791C00EB010AB7EB0A0004D4C0F120
:10362000FF3007F1010A0490AAEB0700019044E083
:10363000012F00DA01270021112F01DD112000E008
:103640003846CDE9000106A90EA8FFF7A1FCDDE987
:103650000F010E9A0391002104910092BA462107AE
:103660000CD40399514500DA8A46BAF1010F05DD01
:10367000009AAAF10101515C302908D0B84202DA5F
:1036800010F1040F06DA0121CDE9011015E0AAF1CD
:103690000101E9E7002805DC049901440491AAEB43
:1036A000000102E0411C514500DD8A460499401AA0
:1036B000401C01904FF000400290200704D4019874
:1036C000504501DBCDF8048000208DF84F000298B2
:1036D0000DF14F07B0F1004F25D02B200E9002982E
:1036E0004FF0020800280CDA404202902D200E9084
:1036F00007E00A210298FCF753FF3031029007F8E7
:10370000011DB8F10001A8F10108F2DC02980028BF
:10371000EFD1791E0E980870307800F0200040F04C
:10372000450007F8020D12A8C01B00F10708149805
:10373000007800B1012000EB0A01019801EBE07173
:1037400005984144401A401E0590E00306D45B46AC
:103750002146179A059800F05DF805441498007802
:1037600018B15A46179990476D1CE00324D55B4663
:103770002146179A059800F04DF805441CE004987E
:10378000002807DBDDE90301884203DD0098405C87
:10379000179901E0179930205A469047049805F18F
:1037A0000105401C04900198401E019004D12E2078
:1037B0005A46179990476D1CBAF10001AAF1010A07
:1037C000DDDC05E017F8010B5A46179990476D1C90
:1037D000B8F10001A8F10108F4DC5B462146179A14
:1037E0000598ABE62D0000002B0000002000000033
:1037F0002DE9F041044600251E461746880404D4EE
:1038000005E039462020B0476D1C641EF9D52846D6
:10381000BDE8F0812DE9F041044600251E469046A2
:10382000C80301D5302700E02027880404D505E02F
:1038300041463846B0476D1C641EF9D52846BDE8A0
:10384000F081000010B5044601E0FEF7CEFF14F849
:10385000010B04490028F8D1BDE810400A20FEF70A
:10386000C4BF000000000020CDCC8C3FCDCC8C3FED
:103870006666064066660640666646406666464080
:1038800033338340333383403333A340010000009C
:103890000100000002000000020000000300000020
:1038A0000300000004000000040000000500000008
:1038B00001000100020002000300030004000400F4
:1038C000050000000000803F000000000000000034
:1038D00000000000000000000000000000000000E8
:1038E0000000803F00000000000000000000803F5A
:1038F0000000000000000000000000000000004088
:1039000000000000000000000000000000000000B7
:103910000000000000000000000000400000000067
:103920000000803F000000000000000000000000D8
:103930000000000000004040000000000000000007
:103940000000000000000000000000000000000077
:1039500000008040020000000200000002000000A1
:10396000020000000200000002000000020000004F
:10397000020000000200000002000200020002003B
:103980001700020002000200020000000000000018
:1039900000000102030406070809000000000102FC
:1039A0000304000000200240000100000008024063
:1039B000002000000020024000080000001C02401F
:1039C00004000000001C0240080000000014024037
:1039D000000800000018024080000000001C0240A7
:1039E00000800000704461746141315B25645D209A
:1039F0003D2025640D0A0070446174614473743184
:103A00005B25645D203D2025640D0A0070446174CF
:103A10006141325B25645D203D2025640D0A007004
:103A200044617461447374325B25645D203D2025DC
:103A3000640D0A002D2D2D2D7374612025640D0A4F
:103A4000007044617461415B25645D203D20256602
:103A50000D0A007044617461425B25645D203D2065
:103A600025660D0A0070446174614473745B2564BB
:103A70005D203D2025660D0A002A20E58F91E5B8DE
:103A800083E697A5E69C9F2020203A2025730D0A07
:103A9000002A20E4BE8BE7A88BE78988E69CAC204F
:103AA00020203A2025730D0A002A20E4BE8BE7A8C7
:103AB0008BE5908DE7A7B02020203A2025730D0AD2
:103AC000000D0A435055203A2053544D33324634AA
:103AD0003037494754362C204C5146503137362C1C
:103AE00020E4B8BBE9A2913A2025644D487A0D0A3A
:103AF000002A2A2A2A2A2A2A2A2A2A2A2A2A2A2A50
:103B00002A2A2A2A2A2A2A2A2A2A2A2A2A2A2A2A15
:103B10002A2A2A2A2A2A2A2A2A2A2A2A2A2A2A2A05
:103B20002A2A2A2A2A2A2A2A2A2A2A2A2A2A0A0D32
:103B300000554944203D202530385820253038583C
:103B400020253038580A0D002A20515120202020ED
:103B50003A2031323935373434363330200D002AAB
:103B600020456D61696C203A2061726D666C794008
:103B700071712E636F6D200D002A20E5BEAEE4BF8B
:103B8000A1E585ACE4BC97E58FB73A2061726D661C
:103B90006C795F636F6D200D002A2048414CE5BAB7
:103BA00093E78988E69CAC20203A2056322E342EAA
:103BB00030202853544D3332463430372048414C5E
:103BC00020447269766572290D002A2A2A2AE5AEF8
:103BD0009AE782B9E695B05133312A2A2A2A2A2A4D
:103BE0002A2A2A2A2A2A2A2A2A2A2A2A2A2A2A2A35
:103BF0002A2A2A2A2A2A2A2A2A2A2A2A2A2A2A2A25
:103C00002A2A2A2A0D002A2A2A2AE5AE9AE782B908
:103C1000E695B05131352A2A2A2A2A2A2A2A2A2A1E
:103C20002A2A2A2A2A2A2A2A2A2A2A2A2A2A2A2AF4
:103C30002A2A2A2A2A2A2A2A2A2A2A2A2A2A2A2AE4
:103C40000D002A2A2A2AE6B5AEE782B9E695B02AFF
:103C50002A2A2A2A2A2A2A2A2A2A2A2A2A2A2A2AC4
:103C60002A2A2A2A2A2A2A2A2A2A2A2A2A2A2A2AB4
:103C70002A2A2A2A2A2A2A2A2A0D00312E20E590C9
:103C8000AFE58AA8E4B880E4B8AAE887AAE58AA8DC
:103C9000E9878DE8A385E8BDAFE4BBB6E5AE9AE65B
:103CA00097B6E599A8EFBC8CE6AF8F3130306D73D5
:103CB000E7BFBBE8BDACE4B880E6ACA14C454432FC
:103CC0000D00E6938DE4BD9CE68F90E7A4BA3A0D13
:103CD000002A20E6B798E5AE9DE5BA973A206172D2
:103CE0006D666C792E74616F62616F2E636F6D0DFE
:103CF000002A20E697BAE697BA20203A2061726D32
:103D0000666C790D002A20436F7079726967687458
:103D1000207777772E61726D666C792E636F6D20D8
:103D2000E5AE89E5AF8CE88EB1E794B5E5AD900DD1
:103D300000352E20E68C89E4B88BE69187E69D86D7
:103D40004F4BE994AEEFBC8CE4B8B2E58FA3E689A3
:103D500093E587BDE695B04453505F4D617453754C
:103D600062E79A84E8BE93E587BAE695B0E68DAE41
:103D70000D00342E20E68C89E4B88BE68C89E9941A
:103D8000AE4B33EFBC8CE4B8B2E58FA3E68993E584
:103D900087BDE695B04453505F4D6174496E7665BA
:103DA000727365E79A84E8BE93E587BAE695B0E654
:103DB0008DAE0D0056352D445350E79FA9E998B5B7
:103DC000E8BF90E7AE9728E58AA0E6B395EFBC8CF4
:103DD000E5878FE6B395E5928CE98086E79FA9E9B0
:103DE00098B52900323032302D30332D3231004534
:103DF00072726F723A2066696C652025732C20669A
:103E0000756E6374696F6E20257328290D0A002E64
:103E10002E2F2E2E2F557365722F6273702F737293
:103E2000632F6273705F74696D65722E63002E2E4E
:103E30002F2E2E2F557365722F6273702F7372633E
:103E40002F6273705F756172745F6669666F2E634F
:103E500000000000783E0008000000201000000074
:103E6000702F0008883E000810000020A8150000F0
:103E7000802F000800000000000000000024F40073
:083E8000010000001000000029
:040000050800018965
:00000001FF
