:020000040800F2
:1000000098250020AD020008834F0008B9030008BE
:100010007F4F0008CB030008897200080000000031
:100020000000000000000000000000000F59000860
:10003000B10C000800000000854F000811590008AD
:10004000C7020008C7020008C7020008C70200086C
:10005000C7020008C7020008C7020008C70200085C
:10006000C7020008C7020008C7020008C70200084C
:100070006D070008C7020008C7020008C702000891
:10008000C7020008C7020008C7020008C70200082C
:10009000C7020008C7020008C7020008C70200081C
:1000A000C7020008C7020008C7020008C70200080C
:1000B000A95B0008C7020008C7020008C7020008C1
:1000C000C7020008C7020008C7020008C7020008EC
:1000D000C7020008C96F0008C7020008D96F0008EE
:1000E000C7020008C702000800000000C70200089D
:1000F000C7020008C7020008C7020008C7020008BC
:10010000C7020008C7020008C7020008C7020008AB
:10011000C7020008C7020008C7020008C70200089B
:10012000C7020008C7020008C7020008C70200088B
:10013000C7020008C7020008C7020008C70200087B
:1001400000000000000000000000000000000000AF
:10015000C7020008C7020008C7020008C70200085B
:10016000C7020008C7020008C7020008C70200084B
:10017000C7020008C7020008C7020008000000000C
:10018000C7020008C7020008C7020008C70200082B
:10019000C7020008C7020008C7020008C70200081B
:1001A000C5490008C7020008C7020008C7020008C6
:1001B000C7020008C7020008C7020008C7020008FB
:1001C000C7020008C7020008C7020008C7020008EB
:1001D000C7020008C7020008C7020008C7020008DB
:1001E000C7020008C7020008C7020008C7020008CB
:1001F000C7020008C7020008C7020008C7020008BB
:10020000C7020008C7020008C7020008C7020008AA
:10021000C7020008C7020008C7020008C70200089A
:10022000C7020008C7020008D54900080000000006
:10023000C7020008C702000800000000C70200084B
:10024000C7020008C7020008C7020008C70200086A
:10025000C7020008C7020008C7020008C70200085A
:10026000C7020008C7020008C7020008C70200084A
:10027000C7020008C7020008C7020008000000000B
:10028000C702000800000000C702000800000000CC
:1002900000000000C7020008DFF80CD000F07AF878
:1002A00000480047758100089825002006488047CF
:1002B00006480047FEE7FEE7FEE7FEE7FEE7FEE74B
:1002C000FEE7FEE7FEE7FEE7155B0008990200087F
:1002D0002DE9F05F0546002092469B46884606467B
:1002E000814640241BE0284641464746224600F00E
:1002F00041F853465A46C01A914110D31146184648
:10030000224600F028F82D1A67EB01084F462246D6
:100310000120002100F01FF817EB00094E41201EBC
:10032000A4F10104DFDC484631462A464346BDE8D5
:10033000F09FD2B201E000F8012B491EFBD27047BA
:100340000022F6E710B513460A4604461946FFF7A1
:10035000F0FF204610BD202A04DB203A00FA02F10B
:10036000002070479140C2F1200320FA03F31943A3
:1003700090407047202A04DB203A21FA02F0002145
:10038000704721FA02F3D040C2F1200291400843A5
:1003900019467047064C074D06E0E06840F001033F
:1003A00094E8070098471034AC42F6D3FFF778FF83
:1003B00054830008748300081EF0040F0CBFEFF391
:1003C0000880EFF3098004F043B900BFFEE710B5E1
:1003D00005F0C4F805F074F810BD70B50446049D2E
:1003E000581A2E1B7043161B90FBF6F0084470BD84
:1003F00010B504460CB9124810BD012C01D10020E3
:10040000FAE7022C01D10F48F6E7032C01D10020B6
:10041000F2E7042C01D10020EEE7052C01D10020E9
:10042000EAE7062C01D10020E6E7072C01D10020E5
:10043000E2E74FF48E7104A000F03BFC0020DBE704
:10044000B0030020DC0B00202E2E5C2E2E5C55739A
:1004500065725C6273705C7372635C6273705F750B
:100460006172745F6669666F2E63000038B500BF05
:100470007A48006840F00100784908600846006842
:1004800000F00100009000BF00BF7548754908608A
:10049000002048608021734881608900C160490064
:1004A00001618900416181610021C1614FF44031E6
:1004B000016204214162032181624FF40001C162A3
:1004C0008910016368486749C863084601F07CFAEF
:1004D000002211460C2002F06EF80C2002F05BF8AE
:1004E0000020624908604FF48043614A4FF0105188
:1004F0005C4801F071FB5F4840685F49086000BFDD
:100500005A4800680028FBD05A4840685B49086098
:100510000846006858490968401A59490860084661
:1005200000685849B1FBF0F4554800684FF4C871B1
:10053000B0FBF1F52246294653A006F0A7FE0020A5
:100540004A4908604FF480435D4A4FF040514548A6
:1005500001F042FB474840684749086000BF4348F4
:1005600000680028FBD043484068444908600846BA
:10057000006841490968401A414908600846006816
:100580004049B1FBF0F43E4800684FF4C871B0FB3D
:10059000F1F5224629464BA006F078FE00203349AB
:1005A00008604FF480434FF040424FF010512D4807
:1005B00001F012FB2F4840682F49086000BF2B480C
:1005C00000680028FBD02B4840682C49086008468A
:1005D000006829490968401A2949086008460068E6
:1005E0002849B1FBF0F4264800684FF4C871B0FB0D
:1005F000F1F52246294641A006F048FE00201B499D
:1006000008604FF480434B4A4FF04041154801F0D9
:10061000E3FA184840681849086000BF13480068AA
:100620000028FBD013484068144908600846006859
:1006300011490968401A12490860084600681149C2
:10064000B1FBF0F40E4800684FF4C871B0FBF1F54F
:100650002246294638A006F019FE38BDD844025873
:100660002800024050010020A50C00080C000020CA
:1006700000000124001000E0000000200400002021
:100680000800002040787D01444D41312D2D2D4141
:100690005849205352414DC4DAB2BFBBA5B4AB3662
:1006A000344B42CAFDBEDDBAC4CAB1203D2020256C
:1006B0006475732025644D422F530D0A000000001D
:1006C00000000130444D41312D2D2D4432D3F253E1
:1006D00052414D31C4DAB2BFBBA5B4AB36344B4244
:1006E000CAFDBEDDBAC4CAB1203D202025647573A1
:1006F0002025644D422F530D0A000000444D413126
:100700002D2D2D415849205352414DB4ABCAE436EA
:10071000344B42CAFDBEDDB5BD534452414DBAC44F
:10072000CAB1203D2020256475732025644D422FD9
:10073000530D0A00000001C0444D41312D2D2D53B1
:100740004452414DC4DAB2BFBBA5B4AB36344B42C0
:10075000CAFDBEDDBAC4CAB1203D20202564757330
:100760002025644D422F530D0A00000010B50248A9
:1007700000F004FF10BD00005001002038B500BF9C
:100780006D48006840F010006B490860084600683A
:1007900000F01000009000BF00BF00206749086013
:1007A00008610864C8614863654848644FF01050A8
:1007B000C8606448C8630846006840F001000860EB
:1007C000614840686149086000BF5C48006800F00B
:1007D00001000028F9D15C4840685D49086008467E
:1007E00000685A490968401A5A4908600846006872
:1007F0005949B1FBF0F4574800684FF4C871B0FB99
:10080000F1F52246294655A006F040FD4FF0405034
:100810004A49C8605F48C8630846006840F0010064
:100820000860494840684949086000BF434800687B
:1008300000F001000028F9D14348406844490860AD
:100840000846006841490968401A4249086008465C
:1008500000684149B1FBF0F43E4800684FF4C871AC
:10086000B0FBF1F5224629464BA006F00FFD4FF0F4
:1008700010503249C8604FF04040C86308460068D5
:1008800040F001000860304840683049086000BF0F
:100890002A48006800F001000028F9D12A48406881
:1008A0002B4908600846006828490968401A294908
:1008B0000860084600682849B1FBF0F42548006844
:1008C0004FF4C871B0FBF1F52246294640A006F06E
:1008D000DDFC4FF040401949C8604C48C8630846E9
:1008E000006840F001000860174840681749086038
:1008F00000BF1248006800F001000028F9D112483A
:100900004068134908600846006810490968401AA1
:1009100010490860084600680F49B1FBF0F40D4823
:1009200000684FF4C871B0FBF1F52246294638A0A3
:1009300006F0ACFC38BD0000D44402580010005250
:100940000001400000000124001000E00000002031
:10095000040000200800002040787D01444D413211
:10096000442D2D2D415849205352414DC4DAB2BF78
:10097000BBA5B4AB36344B42CAFDBEDDBAC4CAB166
:10098000203D2020256475732025644D422F530D92
:100990000A00000000000130444D4132442D2D2D4D
:1009A0004432D3F25352414D31C4DAB2BFBBA5B485
:1009B000AB36344B42CAFDBEDDBAC4CAB1203D20BD
:1009C00020256475732025644D422F530D0A0000C5
:1009D000444D4132442D2D2D415849205352414D13
:1009E000B4ABCAE436344B42CAFDBEDDB5BD534498
:1009F00052414DBAC4CAB1203D20202564757320F0
:100A000025644D422F530D0A00000000000001C074
:100A1000444D4132442D2D2D534452414DC4DAB240
:100A2000BFBBA5B4AB36344B42CAFDBEDDBAC4CAA7
:100A3000B1203D2020256475732025644D422F533D
:100A40000D0A00000146087810381823B0FBF3F2B5
:100A50000848805CC865032A05D908686FF3090057
:100A6000001D886503E008686FF309008865886DDC
:100A700070470000DC82000810B500210268174BA7
:100A80009A4213D8154B8C3B9A420FD30378083BFC
:100A90001424B3FBF4F1124B03EB81030366104BF8
:100AA0008033436601238B40836616E00378103B56
:100AB0001824B3FBF4F10B4B9A4204D8094BA83B22
:100AC0009A4200D30831084B03EB81030366064BBF
:100AD0008033436601238B40836610BD94540258D3
:100AE00000580258B80402400008024010B50268DD
:100AF0000179E9B108291BD80E4B9A420CD80D4B4D
:100B00008C3B9A4208D34B1E0B4C04EB8303C36609
:100B1000094B4033036707E04B1E084C04EB83038B
:100B2000C366064B403303674B1E01249C40446759
:100B300010BD0000945402580059025800090240A8
:100B4000014600208A69D2B98A6A32B1012A0DD0E1
:100B5000022A03D0032A10D10EE000BFCA6A02F0B5
:100B60008072B2F1807F00D1012007E0CA6AB2F141
:100B7000C07F00D1012001E000E000BF36E08A69BB
:100B8000B2F5005F1BD18A6A32B1012A07D0022A6E
:100B900003D0032A11D10AE000BF01200EE0CA6A87
:100BA00002F08072B2F1807F00D1012006E0CA6AB3
:100BB000B2F1C07F00D1012000E000BF16E08A6AD8
:100BC00032B1012A05D0022A04D0032A0CD103E055
:100BD00000BF00BF012008E0CA6A02F08072B2F1D3
:100BE000807F00D1012000E000BF00BF70470000FF
:100BF000F0B5846DD0E919657560C56E15B1D0E9A1
:100C00001C657560244E0568B54205D3234E056802
:100C1000B54201D8012500E00025CDB190F85C6017
:100C20003F25B540A56005682D6825F48025066838
:100C3000356005686B608568402D04D10568AA6041
:100C40000568E96026E00568A9600568EA6021E0BA
:100C5000134E0568B5421DD3114E8C360568B5425A
:100C600018D80F4D2D1F2D6890F85C700126BE40DE
:100C700035430B4E361F356005686B608568402D27
:100C800004D10568AA600568E96003E00568A96009
:100C90000568EA60F0BD000010000240B8040240A0
:100CA000085402580121014A116070470C000020CD
:100CB000704701B9704700BFFEE7000070B50446F9
:100CC0001D460023B5F5804F13D154F822300C484F
:100CD0000340D1E9000640EA06108E6840EA06208B
:100CE0008E8940EA06408E693043034344F822303F
:100CF00003E06FF0704044F82200002070BD000057
:100D00000000F0CF10B502460023086852F82030EA
:100D10001B480340D1E901042043CC6820430C69FF
:100D200020434C6920438C692043CC6920430C6AE2
:100D300020434C6A20438C6A2043CC6A20430C6BCE
:100D400020438C6B20434C6B204303438868082866
:100D500001D143F04003086842F82030086BB0F539
:100D6000801F05D1086818B110680C6B2043106013
:100D7000086818B110684C6B20431060002010BD4B
:100D80008004C0FF30B5034614460022601C53F8AF
:100D9000202002F04042D1E9000540EA05108D68AC
:100DA00040EA05208D8940EA0545088A401E45EA4B
:100DB0000055087D801E45EA00608D692843024386
:100DC000601C43F82020186800F4801038B158687F
:100DD00020F47002088A401E42EA00525A60002045
:100DE00030BD30B50246002300240868012816D023
:100DF00013686FF30E03D1E901052843CD6828433A
:100E00000D6928434D6928438D692843CD692843DE
:100E10000D6A28434D6A28430343136019E01368A1
:100E200023F4F843D1E9070528434D6A28430343D7
:100E300054686FF30E04D1E901052843CD682843B7
:100E40000D6928434D6928438D6928430443136085
:100E50005460002030BD0246506940EA41005061B4
:100E60000020704718B5034600200090D1E9000427
:100E700020438C68641E40EA4410CC6840EA442059
:100E8000009000981861002018BD000070B503465E
:100E9000154600220024012D1FD09A6802F07042EE
:100EA0000868401E4E68761E40EA06168868401E96
:100EB00046EA0026C868401E46EA0036088A401EF8
:100EC00046EA0046888A401E46EA0056087E401ED2
:100ED00046EA006002439A6022E09A6811480240A4
:100EE000C868401E0603888A401E46EA0050024336
:100EF000DC6804F070440868401E4E68761E40EAC4
:100F000006168868401E46EA0026088A401E46EA01
:100F10000046087E401E46EA006004439A60DC609A
:100F2000002070BDFF0F0FFF2DE9F04106460D4672
:100F3000174607F0CDF8702007F09EF807F0FAF892
:100F4000F0B207F099F807F0F5F807F0C1F8712052
:100F500007F092F807F0EEF8002406E007F06AF8D0
:100F6000285507F02FF8601CC4B2781EA042F5DCAB
:100F700007F060F8285507F047F807F0C3F8BDE818
:100F8000F081000070B58AB06A48407808B90AB0AC
:100F900070BD684880780A2800DAF8E700206549C3
:100FA000887004F043FFB8B963480078012812D173
:100FB00062480078401CC0B26049087002280ADD0F
:100FC000002008705C4908705D4802885D4801880F
:100FD000032004F04DFFDAE7002058490870212271
:100FE00001A9FFF7A1FF9DF8060000F00700514995
:100FF000C8700846C078052801DD0520C8700020AB
:101000004C49C87000244BE004EB44014900491DE1
:1010100001AA515C08110F2800DB43E04549C9785B
:10102000491C444AD17004EB44014900091D01AA3E
:10103000525C04EB44014900C91C01AB595C01F04E
:101040000F0142EA01213B4A121D22F8141004EB61
:1010500044014900891D01AA525C04EB4401490086
:10106000491D595C01F00F0142EA0121314A0E325B
:1010700022F8141004EB44014900C91C01AA515C78
:101080008A112C491D310A5504EB44014900491DC0
:1010900001AA515C0A11274918310A55601CC4B2D3
:1010A000052CB1DB00BF2348007855280DD121481D
:1010B000C5898688B5F5F07F01DB40F2DF15B6F50E
:1010C000887F21DB40F20F161EE01A4800780A28BC
:1010D0000DD118488588C689B5F5487F01DB40F2F7
:1010E0001F35B6F5F07F0FDB40F2DF160CE011483C
:1010F0008588C689B5F5487F01DB40F21F35B6F516
:10110000F07F01DB40F2DF160B48007838B9012090
:10111000094908703246294604F0AAFE04E0324626
:101120002946022004F0A4FE0648058004480680F3
:1011300000BF2CE708140020380000203E000020EB
:101140003C0000203A00002002488078401C014901
:1011500088707047081400202DE9F04105460E46BE
:10116000174606F0B5FF1749887806F085FF06F0A8
:10117000E1FF281206F080FF06F0DCFFE8B206F07F
:101180007BFF06F0D7FF06F0A3FF0E498978491CC4
:10119000C8B206F071FF06F0CDFF002406E006F0AD
:1011A00049FF305506F00EFF601CC4B2781EA04205
:1011B000F5DC06F03FFF305506F026FF06F0A2FFF3
:1011C000BDE8F0812A14002030B58DB06848007861
:1011D00008B90DB030BD66484078142800DAF8E749
:1011E000002063494870012201A940F22170FFF7F5
:1011F000B3FF9DF8040000F0010070B95D4800786D
:10120000012809D100205B4908705B4802885B48CF
:101210000188032004F02CFEDBE721220DF10501FB
:1012200040F22270FFF798FF9DF804005049C87003
:101230009DF8050008719DF807009DF8061000EB69
:1012400001204B49C8809DF809009DF8081000EB6B
:101250000120474908819DF80A0088729DF80C001A
:101260009DF80B1000EB0120414988819DF80E008C
:101270009DF80D1000EB01203D49C8819DF80F003D
:1012800008749DF811009DF8101000EB01203849FA
:1012900048829DF813009DF8121000EB012034499C
:1012A00088829DF8140088759DF81C009DF8151023
:1012B00000EB01202E4908839DF81E009DF81D10AB
:1012C00000EB01202A4948839DF81F0008779DF80C
:1012D00021009DF8201000EB01202549C8839DF8CE
:1012E00023009DF8221000EB0120214908849DF87D
:1012F000240081F8220008468078BA2811D10846D7
:101300000589C08840F2DF11081A84B2B5F5487F1C
:1013100001DD4FF44875B4F5F07F13DD4FF4F07440
:1013200010E013480589C08840F25721081A84B29A
:10133000B5F5806F01DD4FF48065B4F5167F01DDF2
:101340004FF416740B48007838B901200949087029
:101350002246294604F08CFD04E02246294602205C
:1013600004F086FD054805800348048000BF30E78F
:101370002A140020AA000020AE000020AC000020AB
:1013800002484078401C0149487070472A140020E8
:101390002DE9F04105460E46174606F099FE1A491A
:1013A000887806F069FE06F0C5FE281206F064FE95
:1013B00006F0C0FEE8B206F05FFE06F0BBFE06F0E7
:1013C00087FE11498978491CC8B206F055FE06F01F
:1013D000B1FE002401E0601CC4B21E2CFBDB002423
:1013E00006E006F027FE305506F0ECFD601CC4B2A6
:1013F000781EA042F5DC06F01DFE305506F004FE16
:1014000006F080FEBDE8F0814E14002030B58DB0AE
:10141000002000903C48007808B90DB030BD3A4833
:1014200040780A2800DAF8E700203749487004F0CD
:10143000FDFCB8B935480078012812D1344800784D
:10144000401CC0B23249087001280ADD0020087033
:101450002E4908702F4802882F480188032004F085
:1014600007FDDAE700202A490870082201A948F29E
:101470004E10FFF78DFF0122694648F24E1000F032
:1014800055F89DF804002049C8709DF805000871C2
:101490009DF806009DF8071000EB01201A49C8804E
:1014A0009DF808009DF8091000EB012016490881FD
:1014B0009DF80A009DF80B1000EB012012494881AD
:1014C0000846C5880489B5F5487F01DB40F21F3521
:1014D000B4F5F07F01DB40F2DF140C48007838B936
:1014E00001200A4908702246294604F0C1FC04E0A4
:1014F00022462946022004F0BBFC07480580054827
:10150000048000BF89E700004E140020B0000020D6
:10151000B6000020B4000020B2000020024840784D
:10152000401C0149487070474E1400202DE9F041DD
:1015300004460E46174606F0CBFD0F49887806F0A4
:101540009BFD06F0F7FD201206F096FD06F0F2FD79
:10155000E0B206F091FD06F0EDFD002506E0705DBD
:1015600006F08AFD06F0E6FD681CC5B2BD42F6DB5A
:1015700006F0C8FDBDE8F0814E1400202DE9F843C7
:1015800004460027002500200090FE4800684FF424
:101590001651B0FBF1F8A66D3768FB492068884208
:1015A00005D3FA492068884201D8012000E00020D4
:1015B00000287BD094F85C1008208840384000B3A5
:1015C000F1492068884208D3F0492068884204D84D
:1015D0002068006800F0040003E02068006800F064
:1015E000080070B12068006820F0040021680860DD
:1015F00094F85C1008208840B060606D40F00100F5
:10160000606594F85C10E24888403840C8B1DE4913
:101610002068884208D3DD492068884204D82068C1
:10162000406900F0800002E020680068002040B1BE
:1016300094F85C10D6488840B060606D40F00200BD
:10164000606594F85C10D248C01C88403840D0B126
:10165000CD492068884208D3CC492068884204D804
:101660002068006800F0020002E0206800680020A6
:1016700048B194F85C10C648C01C8840B060606DEA
:1016800040F00400606594F85C10102088403840F9
:1016900030B3BD492068884209D3BC4920688842DC
:1016A00005D82068006800F0080004E0EFE020683A
:1016B000006800F0040098B194F85C101020884095
:1016C000B0602068006800F4802080B12068006865
:1016D00000F4002028B9206C10B12046216C884706
:1016E00015E0A06C98B12046A16C88470FE02068F7
:1016F000006800F4807028B92068006820F00800B5
:1017000021680860206C10B12046216C884794F84D
:101710005C10202088403840002873D09A49206807
:10172000884208D399492068884204D82068006814
:1017300000F0100003E02068006800F002000028BC
:1017400060D094F85C1020208840B06094F8350098
:10175000042829D12068006820F01600216808605C
:101760002068406920F0800021684861206C08B939
:10177000A06C28B12068006820F00800216808608B
:1017800094F85C103F208840B06000BF002084F8CF
:10179000340000BF012084F83500206D10B12046D0
:1017A000216D8847BDE8F8832068006800F4802038
:1017B00080B12068006800F4002028B9606C10B186
:1017C0002046616C88471DE0E06BD8B12046E16B94
:1017D000884717E02068006800F4807068B92068C6
:1017E000006820F010002168086000BF002084F825
:1017F000340000BF012084F83500E06B10B12046B2
:10180000E16B8847606D002840D0606D00F00100FA
:1018100090B3042084F835005B49206888420AD3DD
:101820005A492068884206D82068006820F00100E4
:101830002168086005E02068006820F00100216848
:10184000086000BF0098401C0090404500D905E0AA
:101850002068006800F001000028F3D100BF00BF3D
:10186000002084F8340000BF2068006800F0010008
:1018700018B1032084F8350002E0012084F8350017
:10188000E06C002802D02046E16C884797E041498F
:101890002068884206D33F498C312068884201D8AD
:1018A000012000E00020002853D02568394808387E
:1018B000006894F85C20042191400840E0B1286859
:1018C00000F00400C0B1286800F0200018B92868B2
:1018D00020F0040028602F48001F006894F85C2066
:1018E0000421914008432B49091F0860206C80B3F4
:1018F0002046216C884762E026480838006894F842
:101900005C2002219140084020B3286800F00200CA
:1019100000B3286800F0200058B9286820F00A00B9
:10192000286000BF002084F8340000BF012084F844
:1019300035001848001F006894F85C20022191408F
:1019400008431449091F0860E06B10B12046E16BA1
:10195000884734E00F480838006894F85C20082174
:101960009140084058B3286800F0080038B3286850
:1019700020F00E0028600748001F006894F85C20E3
:10198000012109E0D400002010000240B804024008
:10199000010080000854025891400843094908603A
:1019A0000120606500BF002084F8340000BF0120E2
:1019B00084F83500E06C10B12046E16C884700BF28
:1019C000F0E60000045402582DE9F04104460025D9
:1019D00000F0EEFA0646002714B90120BDE8F081B8
:1019E00079492068884205D378492068884201D81F
:1019F000012000E00020002871D0606A00B100BF23
:101A000000BF002084F8340000BF022084F83500B5
:101A10006D49206888420AD36C492068884206D8FC
:101A20002068006820F001002168086005E0206857
:101A3000006820F00100216808600BE000F0B8FAAF
:101A4000801B052806D920206065032084F8350016
:101A50000120C3E72068006800F001000028EDD1F4
:101A6000206805685A480540D4E902010843216905
:101A7000084361690843A1690843E1690843216A91
:101A800008430543606A042803D1D4E90B010843E5
:101A90000543206805602068456925F00705606AF0
:101AA0000543606A04280DD1A06A0543E06A48B185
:101AB0002046FFF745F828B140206065012084F8F2
:101AC00035008BE7206845612046FEF7BBFF0746DF
:101AD00094F85C103F208840B8604DE0FFE73D4936
:101AE0002068884206D33B498C312068884201D85F
:101AF000012000E00020B8B300BF002084F83400CB
:101B000000BF022084F835002068056847F6F070B1
:101B10008543A068402801D1102105E0A0688028F5
:101B200001D1C10100E00021E06841EAD001206953
:101B300041EAD001606941EAD001A06941EAD000E0
:101B40002022E16902EAD1010843216A40EA11102A
:101B50000543206805601F492068401A1421B0FB26
:101B6000F1F08000E06507E0FFE7402060650320BA
:101B700084F83500012031E72046FEF77DFFA0689C
:101B8000802801D1002060602079216E0860D4E9AE
:101B900019104860606860B16068082809D820465C
:101BA000FEF7A4FF0020E16E0860D4E91C10486035
:101BB00003E00020E0662067606700206065012088
:101BC00084F83500002009E710000240B804024004
:101BD0003F8010FE085402582DE9F04104460D469E
:101BE00016461F464FF0000814B90120BDE8F081E9
:101BF00000BF94F83400012801D10220F6E701204B
:101C000084F8340000BF94F8350001287CD102200C
:101C100084F83500002060654149206888420AD375
:101C200040492068884206D82068006820F00100FA
:101C30002168086005E02068006820F00100216844
:101C400008603B46324629462046FEF7D1FF34491C
:101C50002068884205D333492068884201D8012092
:101C600000E00020B0B12068006820F01E0040F0C5
:101C70001600216808602068406940F080002168F3
:101C80004861206CB0B12068006840F0080021680D
:101C900008600FE02068006820F00E0040F00A00A5
:101CA00021680860206C28B12068006840F00400BA
:101CB00021680860206E006800F4803028B1206E32
:101CC000006840F48070216E0860E06E28B1E06E1C
:101CD000006840F48070E16E086011492068884215
:101CE0000BD310492068884207D82068006840F06C
:101CF00001002168086011E006E02068006840F0FB
:101D000001002168086009E000BF002084F8340069
:101D100000BF4FF4006060654FF00108404665E782
:101D200010000240B804024070B5044600F040F9CB
:101D300006462546681C10B104480078054400BFDB
:101D400000F036F9801BA842FAD370BDD000002005
:101D50000348006840F00100014908607047000036
:101D600020040058F8B502460B4600210026002446
:101D70000020824D00BFFCE0012707FA01F61F6832
:101D800007EA0604B4427CD15F68022F02D05F6884
:101D9000122F1AD14FEAD10C02F1200757F82C006C
:101DA0004F074FEAD76C0F2707FA0CF7B8434FEAF3
:101DB000417C4FEADC6C1F6907FA0CF738434FEAA5
:101DC000D10C02F1200747F82C0010684FEA410CB3
:101DD000032707FA0CF7B8431F7907F003074FEA08
:101DE000410C07FA0CF7384310605F68012F08D0E8
:101DF0005F68022F05D05F68112F02D05F68122F35
:101E000017D190684FEA410C032707FA0CF7B84343
:101E10004FEA410CDF6807FA0CF7384390605068CE
:101E200001278F40B8431F79C7F300178F4038430D
:101E30005060D0684FEA410C032707FA0CF7B8430B
:101E40004FEA410C9F6807FA0CF73843D0605F688F
:101E500007F08057B7F1805F95D100BF484F3F68CA
:101E600047F00207DFF818C1CCF8007067463F68FA
:101E700007F00207009700BF00BF424F4FEA910CE6
:101E800000E075E057F82C008F074FEA177C0F270A
:101E900007FA0CF7B8433C4FBA4201D100272DE0B6
:101EA0003A4FBA4201D1012728E0394FBA4201D155
:101EB000022723E0374FBA4201D103271EE0364FF5
:101EC000BA4201D1042719E0344FBA4201D10527A3
:101ED00014E0334FBA4201D106270FE0314FBA4226
:101EE00001D107270AE0304FBA4201D1082705E0A7
:101EF0002E4FBA4201D1092700E00A274FEA817C20
:101F00004FEA1C7C07FA0CF738431E4F4FEA910C3E
:101F100047F82C002868A0435F6807F48037B7F5BE
:101F2000803F00D1204328606868A0435F6807F4C1
:101F30000037B7F5003F00D1204368604FF0B0474D
:101F40003868A0435F6807F48017B7F5801F00D199
:101F500020434FF0B04738607868A0435F6807F4CB
:101F60000017B7F5001F00D120434FF0B04778604D
:101F7000491C1029FFF400AFF8BD00008000005894
:101F8000F4440258080400580000025800040258A3
:101F900000080258000C02580010025800140258A1
:101FA00000180258001C0258002002580024025851
:101FB0000148006870470000C8000020034800681E
:101FC000034909780844014908607047C8000020A7
:101FD000D000002010B5032000F02AFB0F2000F0F5
:101FE00007F808B1012010BD00F0D4FA0020FAE78C
:101FF00070B504460E4800784FF47A71B1FBF0F0EA
:102000000C490968B1FBF0F5284602F0A2F908B1C5
:10201000012070BD102C07D200222146501E00F076
:10202000CAFA0548046001E00120F2E70020F0E769
:10203000D0000020D4000020CC000020704710B554
:1020400004462068806B00F00400F0B12068406B0B
:1020500000F00400C8B12068406B20F00400216843
:10206000486304202168C863D4F8A40040F001004C
:10207000C4F8A400042084F8A10000BF002084F864
:10208000A00000BF2046FFF7D9FF2068806B00F05A
:102090000200F0B12068406B00F00200C8B1206877
:1020A000406B20F002002168486302202168C86369
:1020B000D4F8A40040F00200C4F8A400042084F87E
:1020C000A10000BF002084F8A00000BF2046FFF759
:1020D000B5FF2068806B00F00100B8B12068406B4C
:1020E00000F0010090B12068406B20F001002168F1
:1020F000486301202168C86384F8A10000BF002064
:1021000084F8A00000BF204600F01FF82068806B14
:1021100000F00800C0B12068406B00F0080098B1E2
:102120002068406B20F0080021684863082021687F
:10213000C863012084F8A10000BF002084F8A0003B
:1021400000BF204600F002F810BD70477047000045
:10215000F8B5044600200090744800684FF416510A
:10216000B0FBF1F6208800F57F508109012000FACC
:1021700001F74FF0A4400068384000B9F8BD20686E
:10218000006800F00100B8B32068C06800F00200E9
:1021900090B32068C06820F002002168C860206801
:1021A000856805F0800020B9A06E40F00100A066AF
:1021B00003E0A06E40F00200A06605F4007018B1C4
:1021C000A06E40F00400A06605F4807018B1A06E07
:1021D00040F00800A06605F4806018B1A06E40F0E1
:1021E0001000A06605F4006018B1A06E40F0200059
:1021F000A0660120216848602068006800F0100097
:1022000060B12068C06800F0200038B1102021685B
:102210004860A06C10B12046A16C88472068006817
:1022200000F0080060B12068C06800F0100038B10C
:10223000082021684860E06C10B12046E16C8847B6
:102240002068006800F0040060B12068C06800F0F9
:10225000080038B1042021684860206D10B1204684
:10226000216D88472068006800F0020060B3206894
:10227000C06800F0040038B32068C06820F03E0059
:102280002168C86094F83D0004280DD100BF0020EB
:1022900084F83C0000BF012084F83D00A06D10B11F
:1022A0002046A16D884769E702202168486000BF89
:1022B000002084F83C0000BF012084F83D00606CE1
:1022C00010B12046616C8847A06E60B3042084F88A
:1022D0003D002068C06820F001002168C86000BF90
:1022E0000098401C0090B04200D905E02068C0680A
:1022F00000F001000028F3D100BF00BF002084F8E7
:102300003C0000BF2068C06800F0010018B1032045
:1023100084F83D0002E0012084F83D00606D10B1BA
:102320002046616D884700BF28E70000D4000020E8
:1023300070B50446FFF73CFE05460CB9012070BDA0
:1023400000BF002084F83C0000BF022084F83D005C
:102350002068C06820F001002168C8600BE0FFF72A
:1023600027FE401B052806D94020A066032084F8DC
:102370003D000120E3E72068C06800F0010000286C
:10238000EDD1204602F02EFB0020E065206660665D
:10239000A066012084F83D000020D0E710B5034678
:1023A00000240BB9012010BD00BF93F83C000128A8
:1023B00001D10220F7E7012083F83C0000BF93F829
:1023C0003D00012814D1062910D2DFE801F00305F1
:1023D00007090B0D5A640AE09A6408E0DA6406E023
:1023E0001A6504E05A6502E09A6500E000BF00E06B
:1023F000012400BF002083F83C0000BF2046D2E744
:102400002DE9F84304460D4616461F46DDF82080A8
:1024100014B90120BDE8F88300BF94F83C000128FE
:1024200001D10220F6E7012084F83C0000BF94F8B7
:102430003D00012841D1022084F83D000020A06623
:102440002068C06820F001002168C8603B46324621
:1024500029462046CDF8008002F03CFB2068C06889
:1024600040F006002168C860E06C28B12068C068B0
:1024700040F010002168C860206D28B12068C06855
:1024800040F008002168C860A06C28B12068C068CE
:1024900040F020002168C8602068C06840F001005A
:1024A0002168C8606068B0F1804F0DD12068C068B5
:1024B00040F480302168C86006E000BF002084F846
:1024C0003C0000BF0220A5E70020A3E74178154AA1
:1024D00011600178F9B1121D41681160017B090793
:1024E000C27A41EA0261827A41EAC241427B41EA10
:1024F0008241827B41EA4241C27B41EA0241427A07
:1025000041EA0221027A41EA420102781143054A76
:102510000832116005E00021024A121D1160121DEF
:102520001160704798ED00E000BF00BF00BFBFF32F
:102530005F8F00BF00BF00BF0548006820F48030F7
:1025400003490860002002497031086070470000AC
:1025500024ED00E040F001010D4A11600C49703992
:10256000096841F480310A4A703A116000BF00BF27
:1025700000BFBFF34F8F00BF00BF00BF00BF00BF51
:1025800000BFBFF36F8F00BF00BF00BF70470000E8
:1025900094ED00E0704701460846002809DB00F092
:1025A0001F0301229A4043099B0003F1E023C3F873
:1025B000002100BF70472DE9F05F80460D461646AA
:1025C00004F074FE074639462A46334601F00700F8
:1025D000C0F1070ABAF1040F02D94FF0040A01E072
:1025E000C0F1070AD14600F1040ABAF1070F02D27E
:1025F0004FF0000A01E0A0F1030AD4464FF0010AAF
:102600000AFA09FAAAF1010A0AEA020A0AFA0CFA13
:102610004FF0010B0BFA0CFBABF1010B0BEA030BB8
:102620004AEA0B042146404604F048FEBDE8F09F0C
:1026300000BF00F00702064B19684FF6FF03194070
:10264000044B0B4343EA0221014B196000BF704762
:102650000CED00E00000FA0510B501F067F909493A
:10266000096801F470614FF4807292FAA2F2B2FA32
:1026700082F2D140044A515CC840044908600846CF
:10268000006810BD1844025844830008D40000209C
:1026900010B501F003F90749096801F07001102233
:1026A00092FAA2F2B2FA82F2D140034A515CC840D7
:1026B00010BD0000204402584483000870B5014654
:1026C00000220120002300249FED811AB0EE410A70
:1026D0009FED7F1AF0EE410A7E4D2D6805F0030252
:1026E0007C4D2D68C5F305307A4D2D1D2D6805F004
:1026F0001003784D14352D68C5F3CC0515FB03F593
:1027000001EE105AB8EE411AB0EE410A22B1012A88
:102710004DD0022A7DD169E06E4D283D2D68C5F36C
:1027200040152DB36B4D283D2D68C5F3C1066A4D8C
:1027300025FA06F4B4FBF0F501EE105AF8EE411A52
:102740009FED661A80EE012A624D10352D68C5F3A3
:10275000080501EE105AB8EE411A32EE011AB7EE32
:10276000002A31EE021A21EE811AF0EE410A1DE034
:10277000594DB5FBF0F501EE105AF8EE411A9FEDF8
:10278000571A80EE012A534D10352D68C5F3080500
:1027900001EE105AB8EE411A32EE011AB7EE002AD5
:1027A00031EE021A21EE811AF0EE410A5EE04C4D44
:1027B000B5FBF0F501EE105AB8EE412A9FED471A2D
:1027C000C0EE011A434D10352D68C5F3080501EE22
:1027D000105AB8EE411A31EE811AF7EE001A31EEB6
:1027E000211A22EE011AF0EE410A3FE03D4DB5FB01
:1027F000F0F501EE105AF8EE411A9FED381A80EE0E
:10280000012A344D10352D68C5F3080501EE105A24
:1028100000E00CE0B8EE411A32EE011AB7EE002AE1
:1028200031EE021A21EE811AF0EE410A1EE02C4D23
:10283000B5FBF0F501EE105AB8EE412A9FED271ACC
:10284000C0EE011A234D10352D68C5F3080501EEC1
:10285000105AB8EE411A31EE811AF7EE001A31EE35
:10286000211A22EE011AF0EE410A00BF00BF194DF5
:1028700010352D68C5F346256D1C01EE105AB8EED3
:10288000411AC0EE811ABCEEE11A81ED001A114D19
:1028900010352D68C5F306456D1C01EE105AB8EED3
:1028A000411AC0EE811ABCEEE11A81ED011A094D00
:1028B00010352D68C5F306656D1C01EE105AB8EE93
:1028C000411AC0EE811ABCEEE11A81ED021A70BD08
:1028D00000000000284402580090D0030000004689
:1028E00000093D0040787D0170B5014600220120BD
:1028F000002300249FED811AB0EE410A9FED7F1A5C
:10290000F0EE410A7E4D2D6805F003027C4D2D68E6
:10291000C5F305507A4D2D1D2D6805F48073784D53
:102920001C352D68C5F3CC0515FB03F501EE105AD7
:10293000B8EE411AB0EE410A22B1012A4DD0022A66
:102940007DD169E06E4D283D2D68C5F340152DB34E
:102950006B4D283D2D68C5F3C1066A4D25FA06F476
:10296000B4FBF0F501EE105AF8EE411A9FED661A2D
:1029700080EE012A624D18352D68C5F3080501EE79
:10298000105AB8EE411A32EE011AB7EE002A31EEB3
:10299000021A21EE811AF0EE410A1DE0594DB5FBF5
:1029A000F0F501EE105AF8EE411A9FED571A80EE3D
:1029B000012A534D18352D68C5F3080501EE105A4C
:1029C000B8EE411A32EE011AB7EE002A31EE021AC1
:1029D00021EE811AF0EE410A5EE04C4DB5FBF0F5B8
:1029E00001EE105AB8EE412A9FED471AC0EE011AC7
:1029F000434D18352D68C5F3080501EE105AB8EEA1
:102A0000411A31EE811AF7EE001A31EE211A22EE48
:102A1000011AF0EE410A3FE03D4DB5FBF0F501EE45
:102A2000105AF8EE411A9FED381A80EE012A344D03
:102A300018352D68C5F3080501EE105A00E00CE0CA
:102A4000B8EE411A32EE011AB7EE002A31EE021A40
:102A500021EE811AF0EE410A1EE02C4DB5FBF0F597
:102A600001EE105AB8EE412A9FED271AC0EE011A66
:102A7000234D18352D68C5F3080501EE105AB8EE40
:102A8000411A31EE811AF7EE001A31EE211A22EEC8
:102A9000011AF0EE410A00BF00BF194D18352D682C
:102AA000C5F346256D1C01EE105AB8EE411AC0EE72
:102AB000811ABCEEE11A81ED001A114D18352D680E
:102AC000C5F306456D1C01EE105AB8EE411AC0EE72
:102AD000811ABCEEE11A81ED011A094D18352D68F5
:102AE000C5F306656D1C01EE105AB8EE411AC0EE32
:102AF000811ABCEEE11A81ED021A70BD00000000DF
:102B0000284402580090D0030000004600093D0010
:102B100040787D012DE9F04104460025002620681B
:102B200000F00060B0F1006F30D1606E48B1B0F5D8
:102B3000801F0DD0B0F5001F10D0B0F5401F15D18B
:102B400013E0F948006840F40030F74908600FE0EE
:102B50000221201D02F054FB054609E0022104F188
:102B6000240002F0E5FB054602E001E0012500BF7C
:102B700000BF55B9EC482430006820F44010616E65
:102B80000843E9492431086000E02E43208800F41E
:102B90008070B0F5807F2DD1606D05281AD2DFE8F6
:102BA00000F0030A10171800DF48006840F40030F6
:102BB000DD49086010E00021201D02F021FB0546E0
:102BC0000AE0002104F1240002F0B2FB054603E014
:102BD00002E001E0012500BF00BF55B9D248243012
:102BE000006820F00700616D0843CF492431086078
:102BF00000E02E43208800F40070B0F5007F33D150
:102C0000A06D802817D003DC40B140281CD10CE017
:102C1000C02817D0B0F5807F16D114E0C2480068F4
:102C200040F40030C049086010E00021201D02F08F
:102C3000E7FA05460AE0002104F1240002F078FBDF
:102C4000054603E002E001E0012500BF00BF55B9E1
:102C5000B5482430006820F4E070A16D0843B24903
:102C60002431086000E02E43208800F48060B0F535
:102C7000806F38D1D4F8A400B0F5800F19D004DCEF
:102C800050B1B0F5001F1DD10DE0B0F5C00F17D049
:102C9000B0F5000F16D114E0A348006840F40030EE
:102CA000A149086010E00021201D02F0A9FA0546A4
:102CB0000AE0002104F1240002F03AFB054603E09B
:102CC00002E001E0012500BF00BF5DB996482C304D
:102CD000006820F46000D4F8A410084392492C3115
:102CE000086000E02E43208800F40060B0F5006F1B
:102CF00038D1D4F8A800B0F1007F19D004DC50B16D
:102D0000B0F1807F1DD10DE0B0F1407F17D0B0F160
:102D1000806F16D114E08448006840F40030824986
:102D2000086010E00021201D02F06AFA05460AE062
:102D3000002104F1240002F0FBFA054603E002E062
:102D400001E0012500BF00BF5DB977482C30006865
:102D500020F0E060D4F8A810084373492C310860D3
:102D600000E02E43206800F00070B0F1007F27D112
:102D7000A06CA0B1102804D0202809D030280FD191
:102D80000CE06948006840F400306749086009E0D9
:102D90000221201D02F034FA054603E002E001E0C2
:102DA000012500BF00BF55B95F482030006820F002
:102DB0003000A16C08435C492031086000E02E43DC
:102DC000208800F48050B0F5805F36D1E06DB0F51A
:102DD000005F19D004DC50B1B0F5805F1DD10DE06B
:102DE000B0F5405F17D0B0F5804F16D114E04E48D3
:102DF000006840F400304C49086010E00021201DBC
:102E000002F0FEF905460AE0002104F1240002F078
:102E10008FFA054603E002E001E0012500BF00BF94
:102E200055B941482430006820F4E040E16D084382
:102E30003D492431086000E02E43208800F4005012
:102E4000B0F5005F34D1206EB0F5403F1DD007DCF7
:102E500068B1B0F5803F0BD0B0F5003F18D10DE060
:102E6000B0F5802F12D0B0F5A02F11D10FE011E0F6
:102E70000121201D02F0C4F905460BE0012104F1F7
:102E8000240002F055FA054604E003E002E001E008
:102E9000012500BF00BF55B923482430006820F445
:102EA000E020216E084320492431086000E02E43D1
:102EB000208800F48040B0F5804F38D1D4F8AC00C1
:102EC000B0F1405F1DD007DC68B1B0F1805F0BD07E
:102ED000B0F1005F18D10DE0B0F1804F12D0B0F129
:102EE000A04F11D10FE011E00121201D02F088F95F
:102EF00005460BE0012104F1240002F019FA054611
:102F000004E003E002E001E0012500BF00BF6DB96D
:102F100005482C30006820F0E040D4F8AC1008439D
:102F200001492C31086002E02C4402582E432088CD
:102F300000F40040B0F5004F26D1E06E98B1B0F13A
:102F4000805F03D0B0F1005F0ED106E0FA48006860
:102F500040F40030F849086008E00121201D02F02B
:102F60004FF9054602E001E0012500BF00BF55B959
:102F7000F1482430006820F04050E16E0843EE49EB
:102F80002431086000E02E43206800F08070B0F12A
:102F9000807F27D1606CA0B1012804D0022809D01D
:102FA00003280FD10CE0E448006840F40030E24907
:102FB000086009E00221201D02F022F9054603E025
:102FC00002E001E0012500BF00BF55B9DA4820301A
:102FD000006820F00300616C0843D7492031086085
:102FE00000E02E43206800F48000B0F5800F7DD112
:102FF000D248006840F48070D0490860FEF7D8FFDE
:10300000074606E0FEF7D4FFC01B642801D903255C
:1030100005E0CA48006800F480700028F2D000BFC4
:103020008DBBC5484430006800F44070B4F8B0105F
:1030300001F44071884214D0BF484430006820F445
:103040004078BD484430006840F48030BA4944318B
:1030500008600846006820F4803008600846C0F820
:103060000080D4F8B000B0F5807F15D1FEF7A0FF46
:10307000074609E0FEF79CFFC01B41F288318842F9
:1030800002D9032507E038E0AB4844300068C0F3BC
:1030900040000028EED000BF4DBB00BFB4F8B00028
:1030A00000F44070B0F5407F0ED1A3481C38006892
:1030B00020F47C51A24AD4F8B000104041EA10102C
:1030C0009D491C39086007E09B481C38006820F4C3
:1030D0007C5099491C390860974844300068B4F81E
:1030E000B010C1F30B010843934901E006E002E090
:1030F0004431086002E02E4300E02E43207800F0C7
:10310000010068B3A06F182819D005DC48B1082861
:1031100008D0102816D10BE0202811D0282811D172
:103120000FE011E00121201D02F06AF805460BE0D6
:10313000012104F1240002F0FBF8054604E003E05D
:1031400002E001E0012500BF00BF55B97A482830F0
:10315000006820F03800A16F0843774928310860E3
:1031600000E02E43207800F00200022828D1606F92
:10317000062815D2DFE800F003040A11121311E04B
:103180000121201D02F03CF805460BE0012104F16D
:10319000240002F0CDF8054604E003E002E001E07F
:1031A000012500BF00BF55B963482830006820F0F2
:1031B0000700616F084360492831086000E02E4332
:1031C000207800F0040004282AD1D4F890000628C2
:1031D00015D2DFE800F003040A11121311E00121F7
:1031E000201D02F00DF805460BE0012104F124003A
:1031F00002F09EF8054604E003E002E001E001254C
:1032000000BF00BF5DB94C482C30006820F00700BB
:10321000D4F89010084348492C31086000E02E4350
:10322000207800F02000202836D1D4F88C00B0F1AE
:10323000405F1DD007DC68B1B0F1805F0BD0B0F10A
:10324000005F18D10DE0B0F1804F12D0B0F1A04F67
:1032500011D10FE011E00021201D01F0D1FF054642
:103260000BE0022104F1240002F062F8054604E0BC
:1032700003E002E001E0012500BF00BF5DB92E4878
:103280002830006820F0E040D4F88C1008432A4928
:103290002831086000E02E43207800F040004028EC
:1032A00036D1D4F89800B0F5406F1DD007DC68B176
:1032B000B0F5806F0BD0B0F5006F18D10DE0B0F510
:1032C000805F12D0B0F5A05F11D10FE011E00021B6
:1032D000201D01F095FF05460BE0022104F12400BA
:1032E00002F026F8054604E003E002E001E00125D3
:1032F00000BF00BF5DB910482C30006820F4E050DA
:10330000D4F8981008430C492C31086000E02E4393
:10331000207800F0800080283BD1D4F89C00B0F5E4
:10332000C04F24D00EDCA0B1B0F5005F12D0B0F5D4
:10333000804F1FD114E000002C440258004802586E
:10334000FFFCFF0FB0F5004F12D0B0F5204F11D1A8
:103350000FE011E00021201D01F052FF05460BE0B7
:10336000022104F1240001F0E3FF054604E003E03C
:1033700002E001E0012500BF00BF4DB9B24800687E
:1033800020F46040D4F89C100843AF49086000E086
:103390002E43207800F00800082816D1D4F88000C9
:1033A000B0F5805F06D1022104F1240001F0C0FFD6
:1033B00006430AE0A448001F006820F44050D4F8F7
:1033C00080100843A049091F0860207800F0100011
:1033D000102814D1D4F89400B0F5807F06D10221D2
:1033E00004F1240001F0A4FF064308E096480068B9
:1033F00020F44070D4F89410084393490860206882
:1034000000F40020B0F5002F26D1D4F8A00030B190
:10341000B0F5803F09D0B0F5003F0ED10CE000219F
:10342000201D01F0EDFE054609E0022104F1240013
:1034300001F07EFF054602E001E0012500BF00BF6C
:103440004DB98148006820F44030D4F8A0100843FA
:103450007D49086000E02E43206800F48020B0F52C
:10346000802F2DD1D4F88400B0F5801F06D0B0F5A0
:10347000001F0CD0B0F5401F11D10FE072482C385E
:10348000006840F4003070492C39086009E00121DF
:1034900004F1240001F04CFF054602E001E00125A3
:1034A00000BF00BF5DB96848001F006820F44010ED
:1034B000D4F8841008436449091F086000E02E43D3
:1034C000206800F48030B0F5803F24D1E06C18B162
:1034D000B0F5803F0FD108E05B482C38006840F41D
:1034E000003059492C39086007E00221201D01F005
:1034F00087FE054601E0012500BF00BF55B95248CF
:103500000C38006820F48030E16C08434E490C39D7
:10351000086000E02E43206800F00050B0F1005F2A
:1035200005D1022104F1240001F002FF06432068C6
:1035300000F40030B0F5003F27D1E06FA0B1B0F546
:10354000807F06D0B0F5007F0CD0B0F5407F0CD165
:1035500009E03D482C38006840F400303A492C39E5
:10356000086004E003E002E001E0012500BF00BFC5
:1035700055B93548001F006820F44070E16F0843DA
:103580003149091F086000E02E43206800F48010D4
:10359000B0F5801F09D12C480838006820F00040A1
:1035A000216F0843284908390860206800F08050DE
:1035B000B0F1805F0AD124484838006820F4804088
:1035C000D4F8B4100843204948390860206800F452
:1035D0000010B0F5001F09D11B480838006820F022
:1035E0008070A16E0843184908390860206800F00F
:1035F0008040B0F1804F11D100BF134848380068B7
:1036000020F4004010494839086008460068D4F8A2
:10361000B81008430C494839086000BF206800F022
:103620000040B0F1004F09D107480C38006820F085
:103630004050216D084304490C39086016B9002038
:10364000BDE8F0810120FBE75844025870B50446FC
:103650000D4600268D48006800F00700A8420ED2F3
:103660008A48006820F00700284388490860084617
:10367000006800F00700A84201D0012070BD20784A
:1036800000F00200022807D18148006820F00F00F6
:10369000E16808437E490860207800F001000028B6
:1036A00051D07B48006820F47060A16808437849D5
:1036B00008606068022807D1754818380068C0F3B0
:1036C0004040F8B90120D9E76068032807D1704865
:1036D00018380068C0F34060A0B90120CEE76068E8
:1036E000012807D16A4818380068C0F3002048B99B
:1036F0000120C3E7664818380068C0F3800008B9A5
:103700000120BBE762480838006820F007006168C4
:1037100008435F4908390860FEF74AFC06466068BE
:10372000022811D108E0FEF743FC801B41F28831EA
:10373000884201D90320A1E755480838006800F005
:1037400038001028EFD13AE06068032811D108E072
:10375000FEF72EFC801B41F28831884201D90320FC
:103760008CE74B480838006800F038001828EFD183
:1037700025E06068012811D108E0FEF719FC801BE4
:1037800041F28831884201D9032077E74048083860
:10379000006800F038000828EFD110E008E0FEF7DC
:1037A00007FC801B41F28831884201D9032065E77C
:1037B00037480838006800F038000028EFD1334857
:1037C000006800F00700A8420ED93048006820F0D9
:1037D000070028432D4908600846006800F00700EC
:1037E000A84201D0012049E7207800F00400042815
:1037F00007D12748006820F0700021690843244958
:103800000860207800F00800082809D12048001D31
:10381000006820F07000616908431D49091D0860B7
:10382000207800F01000102809D11948001D006808
:1038300020F4E060A16908431549091D086020785B
:1038400000F02000202809D111480830006820F03D
:103850007000E16908430E490831086000F066F81D
:103860000B49096801F470614FF4807292FAA2F278
:10387000B2FA82F2D140074A515CC840064908605A
:103880000F20FEF7B5FB0020F8E6000000200052F4
:103890001844025844830008D400002010B5FEF7F5
:1038A000DBFE0949096801F00F01012292FAA2F238
:1038B000B2FA82F2D140054A515CC840044908601E
:1038C0000846006810BD00001844025844830008F0
:1038D000D800002010B5FFF7E1FF0749096801F0A3
:1038E0007001102292FAA2F2B2FA82F2D140034A97
:1038F000515CC84010BD00001C44025844830008BD
:1039000010B5FFF7CBFF0749096801F4E0614FF4F8
:10391000807292FAA2F2B2FA82F2D140024A515C6B
:10392000C84010BD1C4402584483000870B50125EE
:1039300000EE905A0022012100230024DFED861AB8
:10394000B0EE610ADFED841AB0EE611A0020834DFB
:103950002D6805F0380535B1082D15D0102D15D07E
:10396000182D7CD114E07D4D103D2D68C5F3401518
:1039700045B17A4D103D2D68C5F3C106784D25FA45
:1039800006F000E07648E5E07648E3E07648E1E0DE
:10399000724D18352D6805F00302704D18352D68ED
:1039A000C5F305116D4D1C352D6805F001036B4DF8
:1039B00024352D68C5F3CC0515FB03F501EE905AAF
:1039C000F8EE611AB0EE610A22B1012A4FD0022A44
:1039D0007DD16BE0614D103D2D68C5F340152DB3D1
:1039E0005E4D103D2D68C5F3C1065D4D25FA06F408
:1039F000B4FBF1F501EE905AB8EE612ADFED5B1AE7
:103A0000C0EE212A554D20352D68C5F3080501EE7D
:103A1000905AF8EE611A72EEA11AF7EE002A71EED2
:103A2000A21A62EE211AB0EE611A1FE04C4DB5FBEE
:103A3000F1F501EE905AB8EE612ADFED4C1AC0EEB6
:103A4000212A464D20352D68C5F3080501EE905A10
:103A5000F8EE611A72EEA11AF7EE002A00E077E0A4
:103A600071EEA21A62EE211AB0EE611A5EE03D4DCF
:103A7000B5FBF1F501EE905AB8EE612ADFED3B1A85
:103A8000C0EE212A354D20352D68C5F3080501EE1D
:103A9000905AF8EE611A72EEA11AF7EE002A71EE52
:103AA000A21A62EE211AB0EE611A3FE02E4DB5FB6C
:103AB000F1F501EE905AB8EE612ADFED2C1AC0EE56
:103AC000212A264D20352D68C5F3080500E00EE0BB
:103AD00001EE905AF8EE611A72EEA11AF7EE002A82
:103AE00071EEA21A62EE211AB0EE611A1EE01D4DAF
:103AF000B5FBF1F501EE905AF8EE612ADFED1B1AE5
:103B000080EE212A154D20352D68C5F3080501EEFC
:103B1000905AF8EE611A72EE211AB7EE002A71EE91
:103B2000821A62EEA11AB0EE611A00BF00BF0B4DFF
:103B300020352D68C5F346256D1C00EE905AF8EE31
:103B4000601A81EE212AFCEEC21A11EE900A01E001
:103B5000044800BF00BF70BD0000000010440258C0
:103B60000090D00300093D0040787D010000004630
:103B700070B504460025207800F00100002872D0BE
:103B8000F948006800F0380010280CD0F6480068AA
:103B900000F03800182812D1F3481830006800F0FF
:103BA000030002280BD1F04810380068C0F34040F1
:103BB00000286DD0606800286AD1012070BD00BF68
:103BC0006068B0F5803F08D1E7481038006840F4DD
:103BD0008030E549103908602EE0606868B9E24835
:103BE0001038006820F48030DF491039086008463A
:103BF000006820F4802008601EE06068B0F5A02F07
:103C00000DD1D9481038006840F48020D6491039C9
:103C100008600846006840F4803008600CE0D24834
:103C20001038006820F48030CF4910390860084609
:103C3000006820F48020086000BF6068A0B1FEF733
:103C4000B7F9054608E0FEF7B3F9401B41F28831A9
:103C5000884201D90320B1E7C34810380068C0F397
:103C600040400028EFD013E0FEF7A2F9054608E037
:103C7000FEF79EF9401B41F28831884201D90320AA
:103C80009CE7B94810380068C0F340400028EFD1E5
:103C9000207800F00200022847D1B348006800F005
:103CA000380058B1B048006800F0380018283ED1FC
:103CB000AD481830006800F00300B8BBAA481038BF
:103CC0000068C0F3800018B1E06808B9012075E70A
:103CD000A5481038006820F01900E1680843A2499F
:103CE00010390860FEF764F9054606E0FEF760F952
:103CF000401B022801D9032060E79B481038006868
:103D0000C0F380000028F1D097480C38006820F4F8
:103D10007C304FF47C3292FAA2F2B2FA82F221693C
:103D20009140084390490C3908604AE0FFE7E06899
:103D300068B38D481038006820F01900E168084326
:103D4000894910390860FEF733F9054606E0FEF7A9
:103D50002FF9401B022801D903202FE78248103891
:103D60000068C0F380000028F1D07F480C3800685C
:103D700020F47C304FF47C3292FAA2F2B2FA82F252
:103D800021699140084378490C39086019E0764868
:103D90001038006820F00100734910390860FEF700
:103DA00007F9054606E0FEF703F9401B022801D992
:103DB000032003E76C4810380068C0F38000002837
:103DC000F1D1207800F01000102877D16648006803
:103DD00000F0380008280CD06348006800F0380074
:103DE000182823D160481830006800F0030001282B
:103DF0001CD15D4810380068C0F3002020B1E06994
:103E0000802801D00120D9E657480C38006820F0FE
:103E1000F8404FF0F84292FAA2F2B2FA82F2216A26
:103E20009140084350490C39086047E0E06958B3B5
:103E30004D481038006840F080004B491039086048
:103E4000FEF7B6F8054606E0FEF7B2F8401B02287A
:103E500001D90320B2E6444810380068C0F30020BE
:103E60000028F1D040480C38006820F0F8404FF0AE
:103E7000F84292FAA2F2B2FA82F2216A9140084321
:103E800039490C39086019E037481038006820F0CB
:103E90008000354910390860FEF78AF8054606E0CB
:103EA000FEF786F8401B022801D9032086E62E483B
:103EB00010380068C0F300200028F1D1207800F00D
:103EC0000800082836D16069D0B1274864300068FE
:103ED00040F00100244964310860FEF769F80546A6
:103EE00006E0FEF765F8401B022801D9032065E6CD
:103EF0001D4864300068C0F340000028F1D019E08C
:103F000019486430006820F00100174964310860E6
:103F1000FEF74EF8054606E0FEF74AF8401B022879
:103F200001D903204AE6104864300068C0F340001D
:103F30000028F1D1207800F02000202834D1A06999
:103F4000D8B109481038006840F48050064910394B
:103F50000860FEF72DF8054608E0FEF729F8401B3B
:103F6000022803D9032029E610440258AF4800680C
:103F7000C0F340300028F0D016E0AC48006820F4D0
:103F80008050AA490860FEF713F8054606E0FEF7E0
:103F90000FF8401B022801D903200FE6A348006850
:103FA000C0F340300028F2D1207800F0040004284B
:103FB0007DD19F48006840F480709D490860FDF7FE
:103FC000F7FF054606E0FDF7F3FF401B642801D923
:103FD0000320F3E59648006800F480700028F2D0D2
:103FE00000BFA068012808D190487030006840F0F8
:103FF00001008E49703108602DE0A06868B98B48D7
:104000007030006820F0010088497031086008466F
:10401000006820F0040008601DE0A06805280DD1AC
:1040200082487030006840F00400804970310860B8
:104030000846006840F0010008600CE07B487030E2
:10404000006820F001007949703108600846006876
:1040500020F00400086000BFA068A0B1FDF7A8FF31
:10406000054608E0FDF7A4FF401B41F28831884275
:1040700001D90320A2E56D4870300068C0F340000C
:104080000028EFD013E0FDF793FF054608E0FDF7A9
:104090008FFF401B41F28831884201D903208DE512
:1040A000624870300068C0F340000028EFD1606AB9
:1040B00000287CD05D481030006800F038001828D7
:1040C00076D0606A022874D15848006820F0807069
:1040D00056490860FDF76CFF054606E0FDF768FFEE
:1040E000401B022801D9032068E550480068C0F34E
:1040F00040600028F2D100BFD4E90A1041EA001064
:104100004A492831096840F2F3329143084347494C
:1041100028310860208E401EC0F30800616B491EE4
:104120004FF47E4202EA41210843218F491ED20109
:1041300002EA014108433C21095D491E120202EADC
:104140000161084339493031086000BF081D00682B
:104150004FF6F87188434FF6F87292FAA2F2B2FA6B
:1041600082F2A16C914008433049343108602F48F5
:104170002C30006820F00C00216C08432B492C31B6
:1041800008600846006820F00200616C0843274977
:104190002C3108600846006840F48030086008460A
:1041A000006840F4003008600846006802E03BE028
:1041B00038E01FE040F4802008600846006840F0C6
:1041C000010008601948006840F0807017490860D5
:1041D000FDF7EEFE054606E0FDF7EAFE401B02286D
:1041E00001D90320EAE411480068C0F340600028C8
:1041F000F2D019E00D48006820F080700B4908608B
:10420000FDF7D6FE054606E0FDF7D2FE401B02286C
:1042100001D90320D2E405480068C0F340600028BB
:10422000F2D101E00120C9E40020C7E400440258B3
:104230000048025870B504460D460CB9012070BD07
:1042400094F82C0028B9002084F82D00204600F0B6
:1042500019F8022084F82C00211D2068FCF7C1FD0C
:104260002946D4E90002FCF711FE0548006840F039
:10427000004003490860012084F82C000020DEE79C
:1042800000400052704770B504460D4694F82C006B
:10429000022800D170BD022084F82C002946206835
:1042A000FCF7D9FD012084F82C000020F2E770B55E
:1042B00004460D46164694F82C00022800D170BD25
:1042C000022084F82C00324629462068FCF7CAFDFB
:1042D0002868022803D1052084F82C0002E0012080
:1042E00084F82C000020EAE770B504460E46154617
:1042F0000CB9012070BD94F8450028B9002084F85D
:104300004400204600F024F804F108012068FCF77E
:10431000F9FC3146A2682068FCF734FD2946E36ABF
:10432000D4E90102FCF7CAFCA168206850F821001A
:1043300040F00100A268216841F8220003480068AB
:1043400040F00040014908600020D3E700400052DF
:10435000704770B504462546681EB0F1807F01D3D2
:1043600001200FE0681E4FF0E02148610F214FF05F
:10437000FF3002F0A3FF00204FF0E021886107200A
:104380000861002070BD10B504460CB9012010BDB5
:1043900094F83D0028B9002084F83C00204600F045
:1043A0000CF8022084F83D00211D206801F056FC25
:1043B000012084F83D000020E9E770470146022013
:1043C00081F83D000868008840F001000A6810800C
:1043D000012081F83D000020704710B504460CB95B
:1043E000012010BDA06900B100E000BF94F8790081
:1043F00028B9002084F87800204600F02AF824200C
:1044000084F879002068006820F0010021680860C5
:10441000204602F0D1F8012800D1E2E7606B10B12C
:10442000204602F019F82068406820F49040216886
:1044300048602068806820F02A0021688860206831
:10444000006840F0010021680860204602F079F819
:10445000C7E7704700B59BB04C2108A8FBF770FF79
:104460001C2101A8FBF76CFF184808901848099018
:104470000520019002200290039001200490022068
:1044800005900690002007900A9000210B910C9156
:1044900020210D9100210E910F9110914FF4805128
:1044A0001191002112911391149115911691179168
:1044B00001AA01A908A8FFF717FF20B14FF49271D4
:1044C00004A0FCF7F6FB1BB000BD0000004000524A
:1044D000044100522E2E5C2E2E5C557365725C6278
:1044E00073705C7372635C6273705F666D635F6947
:1044F0006F2E630000B587B000BF3E48006840F0F3
:1045000008003C4908600846006800F00800019077
:1045100000BF00BF00BF0846006840F01000086000
:104520000846006800F01000019000BF00BF00BF07
:104530000846006840F0400008600846006800F047
:104540004000019000BF00BF00BF0846006840F077
:10455000800008600846006800F08000019000BFFD
:1045600000BF00BF0846006840F48070086008463D
:10457000006800F48070019000BF00BF00BF1D48BC
:104580000C38006840F480501A490C39086008461D
:10459000006800F48050019000BF00BF022003902B
:1045A00001200490032005900C2006904CF2B3707B
:1045B000029002A91048FDF7D5FB4FF680700290DB
:1045C00002A90E48FDF7CEFB0320029002A90C4879
:1045D000FDF7C8FB4FF47F40029002A90948FDF7A0
:1045E000C1FB40F2CF60029002A90748FDF7BAFB79
:1045F00007B000BDE0440258000C025800100258F9
:1046000000180258001C02580020025801460448B5
:104610000068084008B1012070470020FCE7000056
:104620003400002029B9084A12688243064B1A60F8
:1046300004E0054A12680243034B1A60024A1268FA
:10464000024B1A6070470000340000200010006028
:1046500010B53249096801F0004149B12F49096894
:1046600041F000412D4A11608169891C816110BDB2
:104670002A49083909682A4A11622849091F097814
:1046800082F824102549C91E0978916223490C310A
:104690000968D1622149891E098811861F49096864
:1046A00051631E49091D096891631C49103109684D
:1046B000D1631CA200210BE0535C254C238500BF75
:1046C000234BDB6903F04003002BF9D04B1CD9B21C
:1046D0002929F1D300211F4A116000BF1D49096833
:1046E0000029FBD00E4A0168116041685160816861
:1046F0009160C168D160016911614169516181694D
:104700009161C169D1610021124A116000BF114954
:1047100009680029FBD000BFA9E700002CED00E0EC
:10472000541500200D0A456E74657220486172644C
:104730004661756C745F48616E646C65722C2053C1
:10474000797374656D2048616C742E0D0A00000049
:1047500000100140DC00002000B5B5B00120019040
:1047600000201F9001A8FEF7D5F900BF654800683A
:1047700040F00100634908600846006800F001004D
:10478000009000BF00BF00BF0846006840F0010075
:1047900008600846006800F00100009000BF00BFFC
:1047A00000BF58481030006840F0100055491031E3
:1047B00008600846006800F01000009000BF00BFCD
:1047C0004FF400703090022031900120329003208D
:1047D00033900720349030A94B48FDF7C3FA4FF4CB
:1047E000806030900720349030A94748FDF7BAFA2E
:1047F000012200212520FDF7DEFE2520FDF7CBFE5E
:104800000C2300224FF4E131404803F023FB3F48E2
:10481000006A40F040003D4908620846008B40F0C5
:10482000080008830846006840F02000086000BFC8
:104830003448006840F002003249086008460068C9
:1048400000F00200009000BF00BF00BF08460068F3
:1048500040F0020008600846006800F00200009086
:1048600000BF00BF00BF27480830006840F4802028
:104870002449083108600846006800F48020009050
:1048800000BF00BF4FF480603090022031900120C3
:104890003290032033900720349030A91C48FDF754
:1048A00061FA4FF4006030900720349030A9184826
:1048B000FDF758FA032200212720FDF77CFE272070
:1048C000FDF769FE0C2300224FF41651114803F046
:1048D000C1FA10482030006840F040000D492031F6
:1048E00008600C481830008840F008000949183169
:1048F00008800848006840F020000649086035B08C
:1049000000BD0000E04402580000025800100140C1
:1049100000040258004800402DE9F0410446082CEC
:1049200017DA0026FF27002508E0284600F030F8B7
:1049300010B1701CC6B22F46681CC5B2082DF4DB3E
:10494000012E04D1A74202D10120BDE8F081002050
:10495000FBE7082C0BD1002000F01AF828B1012049
:1049600000F016F808B10120EFE70020EDE7092C70
:104970000BD1012000F00CF828B1022000F008F85B
:1049800008B10120E1E70020DFE70020DDE70000BB
:1049900001460B4850F831000069094B03EBC10395
:1049A0009B88184008B9002200E00122044800EB6F
:1049B000C1008079904201D1012070470020FCE7BE
:1049C0000C82000810B50248FDF739FB10BD00004D
:1049D000A802002010B50248FDF7BAFB10BD000088
:1049E000E400002010B50021D0E903231A43036836
:1049F000DA60D0E905231A43C3691A43036A1A43EC
:104A0000436A1A43C36A1A43036B1A43836A5B1EE1
:104A10004FF0FE7494FAA4F4B4FA84F4A3401A4359
:104A200083681A4303681A614268B2F1804F05D166
:104A30000268126942F0404203681A61002203686A
:104A40005A61426B002A0BDA0268526942F48022F2
:104A500003685A61426B51428AB203681A6203E0EA
:104A6000828E92B203681A62826B002A14DA02689C
:104A7000526942F4002203685A61826B5142026813
:104A8000126A8BB2124C94FAA4F4B4FA84F4A340E0
:104A90001A4303681A620CE00268126A038F9BB221
:104AA0000B4C94FAA4F4B4FA84F4A3401A430368B8
:104AB0001A624268B2F1804F03D0027903689A62A9
:104AC00002E0002203689A62002203685A6210BD65
:104AD0000000FFFFF0B50C46059D0668766963F39C
:104AE000100607687E61066877696E1EDFF878C079
:104AF0009CFAACFCBCFA8CFC06FA0CF667F31306C5
:104B000007687E611F2607687E600668F261066896
:104B1000B46104F07F41B1F1005F00D031B90668A3
:104B2000B66A46F480360768BE6205E00668B66A73
:104B300026F480360768BE6202F07F41B1F1005F63
:104B400000D031B90668B66A46F400360768BE621E
:104B500005E00668B66A26F400360768BE62076894
:104B6000C66D7E62F0BD00000000F0FF38B500BFEA
:104B70008148006840F001007F49086008460068ED
:104B800000F00100009000BF00BF7C487C49086035
:104B90000006486081107A4881608021C160002150
:104BA000016140F202314161890081613021C161BE
:104BB000C02101624FF000714162C912C162C90097
:104BC000016380218162002141638163FDF7B0FBB5
:104BD00018B17E216BA0FCF76CF86F4A0021684881
:104BE000FDF7DCFB002211467A20FDF7E4FC7A2079
:104BF000FDF7D1FC00206949086001200304684AE0
:104C00004FF0105100905E48FDF7FAFB6548406890
:104C10006549086000BF614800680028FBD0614812
:104C2000406862490860084600685F490968401AA0
:104C30005F490860084600685E49B1FBF0F45C48D3
:104C400000684FF4C871B0FBF1F5224629465AA01E
:104C500002F01CFB00205149086001200304644A53
:104C60004FF0405100904648FDF7CAFB4D48406860
:104C70004D49086000BF494800680028FBD04948FA
:104C800040684A4908600846006847490968401A70
:104C900047490860084600684649B1FBF0F44448BB
:104CA00000684FF4C871B0FBF1F52246294651A0C7
:104CB00002F0ECFA002039490860012003044FF0AB
:104CC00040424FF0105100902D48FDF799FB3548B8
:104CD00040683549086000BF304800680028FBD0B4
:104CE0003048406831490860084600682E49096824
:104CF000401A2F490860084600682E49B1FBF0F4BD
:104D00002B4800684FF4C871B0FBF1F522462946E4
:104D100046A002F0BBFA00202049086001200304ED
:104D2000504A4FF0404100901548FDF769FB1D487F
:104D300040681D49086000BF184800680028FBD083
:104D4000184840681949086008460068164909680B
:104D5000401A17490860084600681649B1FBF0F48C
:104D6000134800684FF4C871B0FBF1F5224629469C
:104D70003DA002F08BFA38BDD444025840000052E6
:104D8000E40000202E2E5C2E2E5C557365725C6D47
:104D900061696E2E630000009D4E00080C0000202B
:104DA00000000124001000E00000002004000020AA
:104DB0000800002040787D014D444D412D2D2D41AE
:104DC0005849205352414DC4DAB2BFBBA5B4AB36EB
:104DD000344B42CAFDBEDDBAC4CAB1203D202025F5
:104DE0006475732025644D422F530D0A00000000A6
:104DF000000001304D444D412D2D2D4432D3F2534E
:104E000052414D31C4DAB2BFBBA5B4AB36344B42CC
:104E1000CAFDBEDDBAC4CAB1203D20202564757329
:104E20002025644D422F530D0A0000004D444D4192
:104E30002D2D2D415849205352414DB4ABCAE43673
:104E4000344B42CAFDBEDDB5BD534452414DBAC4D8
:104E5000CAB1203D2020256475732025644D422F62
:104E6000530D0A00000001C04D444D412D2D2D531E
:104E70004452414DC4DAB2BFBBA5B4AB36344B4249
:104E8000CAFDBEDDBAC4CAB1203D202025647573B9
:104E90002025644D422F530D0A0000000121014AD4
:104EA000116070470C0000201FB5FDF73DFB01208D
:104EB0008DF800004FF01050019012208DF808007E
:104EC00003208DF80B0001208DF80F008DF80E00E7
:104ED00000208DF80D008DF8010001208DF80A00EA
:104EE00000208DF809008DF80C006846FDF7EEFAF9
:104EF00001208DF800004FF0C04001900F208DF888
:104F0000080003208DF80B0001208DF80F00002011
:104F10008DF80E008DF80D0001208DF801000020A5
:104F20008DF80A008DF809008DF80C006846FDF731
:104F3000CDFA01208DF800004FF04040019018207C
:104F40008DF8080003208DF80B0000208DF80F006D
:104F500001208DF80E0000208DF80D0002208DF844
:104F6000010000208DF80A008DF809008DF80C0072
:104F70006846FDF7ABFA0420FDF7ECFA1FBD00BF51
:104F8000FEE77047704700002DE9F04123A002F0D2
:104F90007DF932480468001D0568001D0668304828
:104FA00000683049B0FBF1F739462FA002F06EF9E6
:104FB00023462A46314638A002F068F93BA002F0A9
:104FC00065F916A002F062F939A141A002F05EF97C
:104FD00044A145A002F05AF948A14BA002F056F9AD
:104FE0004EA002F053F959A002F050F959A002F076
:104FF0004DF95EA002F04AF961A002F047F967A0FE
:1050000002F044F96CA002F041F973A002F03EF9FD
:1050100002A002F03BF9BDE8F08100002A2A2A2A0A
:105020002A2A2A2A2A2A2A2A2A2A2A2A2A2A2A2AE0
:105030002A2A2A2A2A2A2A2A2A2A2A2A2A2A2A2AD0
:105040002A2A2A2A2A2A2A2A2A2A2A2A2A2A2A2AC0
:105050002A2A2A2A2A2A2A2A2A0A0D0000E8F11FC7
:10506000D400002040420F000D0A435055203A2042
:1050700053544D333248373433584948362C204244
:1050800047413234302C20D6F7C6B53A2025644D3E
:10509000487A0D0A00000000554944203D20253083
:1050A0003858202530385820253038580A0D00004F
:1050B00056372DB1C8BDCF4D444D41A3AC444D41F1
:1050C0003244BACD444D4131B5C4D0D4C4DC000023
:1050D0002A20C0FDB3CCC3FBB3C62020203A202534
:1050E000730D0A00312E30002A20C0FDB3CCB0E68B
:1050F000B1BE2020203A2025730D0A00323031390C
:105100002D30372D303500002A20B7A2B2BCC8D5CB
:10511000C6DA2020203A2025730D0A002A204841B3
:105120004CBFE2B0E6B1BE20203A2056312E332EDD
:1051300030202853544D3332483778782048414C3A
:1051400020447269766572290D0A00002A200D0A32
:10515000000000002A205151202020203A20313226
:105160003935373434363330200D0A002A20CDFA51
:10517000CDFA20203A2061726D666C790D0A00002C
:105180002A20456D61696C203A2061726D666C79E8
:105190004071712E636F6D200D0A00002A20CEA28F
:1051A000D0C5B9ABD6DABAC53A2061726D666C79F2
:1051B0005F636F6D200D0A002A20CCD4B1A6B5EA3A
:1051C0003A2061726D666C792E74616F62616F2E28
:1051D000636F6D0D0A0000002A20436F70797269B9
:1051E000676874207777772E61726D666C792E63AD
:1051F0006F6D20B0B2B8BBC0B3B5E7D7D30D0A000E
:105200002DE9F04104460E4600274848006800F0AA
:105210000300032802D10120BDE8F081434828386B
:10522000006820F08060414928390860FCF7C0FE22
:10523000054606E0FCF7BCFE401B022801D903200E
:10524000EAE73A4828380068C0F3C0600028F1D186
:1052500000BF3648006820F47C30216840EA013005
:1052600032490860A088401EC0F30800A168491EAA
:105270004FF47E4202EA41210843A189491ED2012E
:1052800002EA01410843217C491E120202EA01613F
:10529000084326491031086000BF2448001D0068FB
:1052A00020F0C000616908432049091D08600846D4
:1052B000006820F02000A16908431C49091D08600E
:1052C0002EB90846006840F40020086012E0012E64
:1052D00008D11648001D006840F480101349091DCC
:1052E000086007E01148001D006840F400100F49F5
:1052F000091D08600D482838006840F080600B499F
:1053000028390860FCF754FE054606E0FCF750FE1D
:10531000401B022801D903207EE704482838006892
:10532000C0F3C0600028F1D0384675E72844025821
:105330002DE9F04104460E4600274848006800F079
:105340000300032802D10120BDE8F081434828383A
:10535000006820F08050414928390860FCF728FE99
:10536000054606E0FCF724FE401B022801D9032075
:10537000EAE73A4828380068C0F340700028F1D1C5
:1053800000BF3648006820F07C70218840EA015058
:1053900032490860A088401EC0F30800A168491E79
:1053A0004FF47E4202EA41210843A189491ED201FD
:1053B00002EA01410843217C491E120202EA01610E
:1053C000084326491831086000BF2448001D0068C2
:1053D00020F44060616908432049091D08600846BF
:1053E000006820F40070A16908431C49091D086089
:1053F0002EB90846006840F48000086012E0012ED3
:1054000008D11648001D006840F400001349091D2A
:10541000086007E01148001D006840F080700F49E7
:10542000091D08600D482838006840F080500B497D
:1054300028390860FCF7BCFD054606E0FCF7B8FD1E
:10544000401B022801D903207EE704482838006861
:10545000C0F340700028F1D0384675E72844025860
:1054600000B587B000BF0D48006840F002000B494E
:1054700008600846006800F00200019000BF00BF0D
:105480000120039000200490032005900420029046
:1054900002A90348FCF766FC07B000BDE0440258CF
:1054A000000402587047000004200149088070473A
:1054B0001804025804200149088070471A04025851
:1054C00010B50023234C236000BF00BF00BFBFF313
:1054D0004F8F00BF00BF00BF231F1868C0F34E31BD
:1054E00000BFC0F3C90200BF43F6E07303EA4113F3
:1054F0004FF0404404EA82742343174C236000BFFA
:1055000000BF131EA2F10102EED10B1EA1F1010199
:10551000E7D100BF00BF00BFBFF34F8F00BF00BF88
:1055200000BF0C4B703B1B6843F48033094C703C4C
:10553000236000BF00BF00BFBFF34F8F00BF00BF9D
:1055400000BF00BF00BF00BFBFF36F8F00BF00BF31
:1055500000BF10BD84ED00E060EF00E000BF00BFC1
:1055600000BFBFF34F8F00BF00BF00BF00BF00BF31
:1055700000BFBFF36F8F00BF00BF00BF0020144902
:10558000086000BF00BF00BFBFF34F8F00BF00BF68
:1055900000BF00BF00BF00BFBFF36F8F00BF00BFE1
:1055A00000BF0C48006840F400300A49086000BFA2
:1055B00000BF00BFBFF34F8F00BF00BF00BF00BFE1
:1055C00000BF00BFBFF36F8F00BF00BF00BF7047B9
:1055D00050EF00E014ED00E000B587B000BF49488F
:1055E000006840F00800474908600846006800F07D
:1055F0000800019000BF00BF00BF0846006840F0EF
:10560000100008600846006800F01000019000BF1C
:1056100000BF00BF0846006840F020000860084650
:10562000006800F02000019000BF00BF00BF0846E6
:10563000006840F0400008600846006800F0400044
:10564000019000BF00BF00BF0846006840F0800026
:1056500008600846006800F08000019000BF00BFAD
:1056600000BF0846006840F4807008600846006883
:1056700000F48070019000BF00BF00BF21480C38CB
:10568000006840F480501F490C39086008460068E3
:1056900000F48050019000BF00BF02200390012061
:1056A0000490032005900C2006904CF203700290A9
:1056B00002A91548FCF756FB4FF68370029002A929
:1056C0001248FCF74FFB4FF63F00029002A910482A
:1056D000FCF748FB48F23310029002A90D48FCF792
:1056E00041FB4FF62C70029002A90B48FCF73AFBE5
:1056F00040F2FF60029002A90848FCF733FB07B0B4
:1057000000BD0000E0440258000C0258001002588E
:105710000014025800180258001C025800200258B9
:1057200038B505460C46002000900120206010206E
:1057300060600120A0600020E0604FF6FF7221460B
:105740002846FEF7B4FD0120FCF7EEFA02202060A7
:10575000102060600120A0600020E0604FF6FF7222
:1057600021462846FEF7A3FD03202060102060603C
:105770000820A0600020E0604FF6FF722146284616
:10578000FEF795FD4FF40C7000900420206010206F
:1057900060600120A0600098E0604FF6FF72214633
:1057A0002846FEF784FD40F207612846FEF76BFDB0
:1057B00038BD10B5FF210B2000F0A1F810BD2DE978
:1057C000F04106460F46154602F082FC822002F0A8
:1057D00053FC02F0AFFC00B125E0384602F04CFC6F
:1057E00002F0A8FC00B11EE002F072FC832002F07F
:1057F00043FC02F09FFC00B115E000240CE002F035
:1058000019FC3055681EA04202D002F0DBFB01E01B
:1058100002F0FAFB601CC4B2AC42F0DB02F072FC96
:105820000120BDE8F08102F06DFC0020F9E738B5F9
:105830000446012221466846FFF7C1FF9DF800009B
:1058400038BD000008B54020FFF7F1FF00F08000F0
:10585000C0B10322D7216846FFF7B1FF9DF80000D1
:1058600000019DF8011040EA21100A4908809DF8C6
:1058700002009DF8011001F00F0140EA01200649E5
:10588000088004E00020034908800349088001489B
:10589000008808BDC4000020C60000200148008820
:1058A00070470000C60000202DE9F04105460E4675
:1058B000174602F00DFC822002F0DEFB02F03AFCFB
:1058C00000B118E0304602F0D7FB02F033FC00B123
:1058D00011E0002408E0285D02F0CEFB02F02AFC73
:1058E00000B108E0601CC4B2BC42F4DB02F00AFC68
:1058F0000120BDE8F08102F005FC0020F9E713B5B6
:1059000004460122214601A8FFF7CEFF1CBD7047C7
:1059100010B5FCF753FB0448007800B910BD00F047
:1059200005F800BFFAE700002C00002010B51B4866
:10593000006840B119480068401E1849086010B955
:10594000012017490870002408E004EB4401154ABF
:1059500002EB810002F0B2FA601CC4B2042CF4DB4A
:1059600011480068401C10490860084600686FF044
:105970000041884202D100200B49086002F054FA2D
:105980000A480078401CC0B2084908700A2803DBA6
:105990000020087002F044FA10BD00002000002032
:1059A0002400002078020020280000202D00002084
:1059B00010B59CB000244F48006820F004004D4909
:1059C000086000BF002000904A480C30006840F496
:1059D000404048490C3108600846006800F44040E7
:1059E000009000BF00BF00BF42480C30006800F4C8
:1059F0000050B0F5005FF7D1012001900004029043
:105A000000200490089002200A9002210B910521A9
:105A10000C91A0210D9102210E91109104210F9162
:105A2000002112910821119101A8FEF7A1F8044666
:105A30001CB1902130A0FBF73CF93F2014900320CB
:105A4000159000201690082017904020189019906B
:105A500000011A9040201B90042114A8FDF7F6FDC8
:105A600004461CB1AB2124A0FBF723F928480068A9
:105A700040F080002649086000BF2548F4300068E7
:105A800040F002002249F43108600846006800F046
:105A90000200009000BF00BFFCF75AF900BF1C488D
:105AA000DC30006840F000501949DC3108600846DD
:105AB000006800F00050009000BF00BF00BF084623
:105AC000006840F0804008600846006800F08040B0
:105AD000009000BF00BF00BF0846006840F00040D3
