:020000040800F2
:1000000050330020AD020008356701088117010850
:1000100031670108931701085D8C0108000000009A
:10002000000000000000000000000000D170010886
:100030000918010800000000FD680108D5700108DA
:10004000C7020008C7020008C7020008C70200086C
:10005000C7020008C7020008C7020008C70200085C
:10006000C7020008C7020008C7020008C70200084C
:10007000C7020008C7020008C7020008C70200083C
:10008000C7020008C7020008C7020008C70200082C
:10009000C7020008C7020008C7020008C70200081C
:1000A000C7020008C7020008C7020008C70200080C
:1000B0006D730108C7020008C7020008C7020008E4
:1000C000C7020008C7020008C7020008C7020008EC
:1000D000C70200082D8A0108C70200083D8A0108EE
:1000E000C7020008C702000800000000C70200089D
:1000F000C7020008C7020008C7020008C7020008BC
:10010000C7020008C7020008C7020008C7020008AB
:10011000C7020008C7020008C7020008C70200089B
:10012000C7020008C7020008C7020008C70200088B
:10013000C7020008C7020008C7020008C70200087B
:1001400000000000000000000000000000000000AF
:10015000C7020008C7020008C7020008C70200085B
:10016000C7020008C7020008C7020008C70200084B
:10017000C7020008C7020008C7020008000000000C
:10018000C7020008C7020008C7020008C70200082B
:10019000C7020008C7020008C7020008C70200081B
:1001A00029630108C7020008C7020008C702000847
:1001B000C7020008C7020008C7020008C7020008FB
:1001C000C7020008C7020008C7020008C7020008EB
:1001D000C7020008C7020008C7020008C7020008DB
:1001E000C7020008C7020008C7020008C7020008CB
:1001F000C7020008C7020008C7020008C7020008BB
:10020000C7020008C7020008C7020008C7020008AA
:10021000C7020008C7020008C7020008C70200089A
:10022000C7020008B9570108D165010800000000A5
:10023000C7020008C702000800000000C70200084B
:10024000C7020008C7020008C7020008C70200086A
:10025000C7020008C7020008C7020008C70200085A
:10026000C7020008C7020008C7020008C70200084A
:10027000C7020008C7020008C7020008000000000B
:10028000C702000800000000C702000800000000CC
:1002900000000000C7020008DFF80CD000F0C2F830
:1002A00000480047E1B70108503300200648804766
:1002B00006480047FEE7FEE7FEE7FEE7FEE7FEE74B
:1002C000FEE7FEE7FEE7FEE7D972010899020008A3
:1002D0002DE9F05F0546002092469B46884606467B
:1002E000814640241BE0284641464746224600F00E
:1002F00088F853465A46C01A914110D31146184601
:10030000224600F06FF82D1A67EB01084F4622468F
:100310000120002100F066F817EB00094E41201E75
:10032000A4F10104DFDC484631462A464346BDE8D5
:10033000F09F10B5441A0346944209D28418114420
:1003400003E011F8013D04F8013D521EF9D210BD41
:1003500040EA0104A40703D009E010C9121F10C32A
:10036000042AFAD203E011F8014B03F8014B521EA4
:10037000F9D210BDD2B201E000F8012B491EFBD228
:1003800070470022F6E710B513460A4604461946A0
:10039000FFF7F0FF204610BD421C10F8011B00299A
:1003A000FBD1801A7047034611F8012B00F8012B8E
:1003B000002AF9D11846704730B50B460146002097
:1003C0002022012409E021FA02F59D4205D303FA17
:1003D00002F5491B04FA02F52844151EA2F1010298
:1003E000F1DC30BD202A04DB203A00FA02F10020C3
:1003F00070479140C2F1200320FA03F31943904063
:100400007047202A04DB203A21FA02F000217047CD
:1004100021FA02F3D040C2F120029140084319466C
:1004200070470000064C074D06E0E06840F001030D
:1004300094E8070098471034AC42F6D3FFF730FF3A
:10044000501202087012020870B58C1810F8015B87
:1004500015F0070301D110F8013B2A1106D110F85D
:10046000012B03E010F8016B01F8016B5B1EF9D161
:100470002B0705D40023521E0DD401F8013BFAE7E7
:1004800010F8013BCB1A921C03E013F8015B01F852
:10049000015B521EF9D5A142D8D3002070BD0000E7
:1004A0002DE9F047466886B00546304601F02EFB40
:1004B000C36D0090D0F88840D0F88070D0F8688084
:1004C000B0F87C90002B64D0D3F800A0684601F00F
:1004D000F1FB14B909E024683CB1636828469847E9
:1004E0000028F8D006B0BDE8F0872B68172B00F085
:1004F000A5801DDC0F2B00F08D807DDC0B2B00F028
:10050000BF800D2B0AD119F0080F07D1EB68DB680B
:1005100023B11B7A13B1304609F096F830462946CC
:1005200007F008FA0028DDD0284607F0B5FCD9E727
:10053000262B75D02FDC1E2B00F0AE80202BEDD1AA
:10054000EC68002CEAD0314660680AF005F9002812
:1005500000F0BC80304601F0D9FAB0F87C30024699
:100560000190180740F1258101A801F0A3FB314655
:1005700060680AF0DFF80028D0D0304601F0C6FAF3
:100580006268034601A80193C3F8802001F092FB42
:10059000C4E79A469AE72A2B65D0B3F5107FBDD100
:1005A00006AC3046D5F80C8001F0B0FAB0F87C709B
:1005B00044F8140D204601F07DFBEB68002B91D030
:1005C00098F80830002B00F0A780380740F1B3807E
:1005D000304607F0FFFA07F48873B3F5887F81D1BE
:1005E00007F080039BB2002B7FF47CAF414630467E
:1005F000052208F0D7FF75E7112B22D0142B8DD1DF
:10060000304601A900F01CFC02ABEA6803CB106085
:10061000516067E7BAF1000F80D03046D0477DE7E0
:10062000EB68022B7FF45EAF272206A9A86841F889
:10063000142D039604930AF00BFA53E7C5F80C80C7
:1006400050E7EC68304601F061FA01902389012BF4
:1006500005D1B0F87C3043F48073A0F87C3001A859
:1006600001F028FB5AE7304601F050FAEB680090A1
:10067000002B64D0C0F88430684601F01BFB31E7E2
:10068000304601F043FA03467030009301F060F801
:10069000684601F00FFB41E7EC68012C53D0002EB7
:1006A0003FF420AF304601F031FAB0F87C3002461A
:1006B00001901C0706D523F008033046A2F87C30D1
:1006C00008F0E8FA01A801F0F5FA0BE7304601F06E
:1006D0001DFAB0F87C3002460190190706D523F0C8
:1006E00008033046A2F87C3008F0D4FA01A801F0E3
:1006F000E1FA314620680AF01DF800283FF40EAFF9
:10070000304601F003FA2268034601A80193C3F8BA
:10071000802001F0CFFA01E7304601F0F7F90346F7
:100720002046B3F87C20019322F48072A3F87C2049
:1007300001F0C0FAD6E6304608F086FF48E7D0F868
:100740008430EB6098E7384608F01EFD00B3384669
:1007500008F07AFF384608F07DF990B926B9002FE5
:100760007FF4C0AEEF60BDE6304601F0CFF9B0F8DF
:100770007C3002460190190723D501A801F09AFAAE
:10078000EDE72146384607F0B7F9002EE7D0EBE752
:10079000404608F0ABFF0746304601F0B7F9034684
:1007A0006846C3F88070009301F084FA002ED6D01A
:1007B000DAE743F008033046A2F87C3008F06AFA22
:1007C000D2E643F008033046A2F87C3008F062FA23
:1007D000D3E700BF2DE9F04F04468DB04FF48056AB
:1007E0004B4F0091A569B0F90C106035B0F90A00C3
:1007F0001944B4F910301044B4F90E20039502974F
:100800000196B4F812A0B4F90860D4F804B007F067
:1008100057FA054618B928460DB0BDE8F08F01F02B
:1008200075F9DFF8F49031460CAE3022049007F0F1
:100830007BF956F8207DCE464FF0000807F13404CE
:10084000BEE80F000FC4BEE80F000FC49EE803000F
:10085000169B84E803007B663046D9F8283041F2C5
:100860008274A7F87CA0FB65C7F88080C7F86C800D
:10087000C7F8888001F01EFA07A92846254F00F026
:10088000DFFABDF922E0BDF92010BDF92420BDF941
:1008900026300846521A0194CEEB0303714601320A
:1008A000CDF80C8001330095029707F009FAD9F8CA
:1008B0002830044628465B689847284601F026F908
:1008C000034630469C66049301F0F4F9284607F08D
:1008D0002FFC284601F01AF9034605A81A6F059364
:1008E000069201F0E7F9594606A805F0D7FB002863
:1008F00091D0284601F00AF9069A034605A81A671E
:10090000059301F0D7F9284608F0C4F983E700BF42
:10091000A1040008D9110008700100202DE9F04160
:10092000044690B0006800F0D5F9B04B6668A3F1BA
:100930002C05002808BF1D461C2E00F2F780DFE8BA
:1009400016F02200F500F500F500F5003500F50081
:10095000F500F500F500F5005100F500F500FA008E
:10096000F500F500F5000E01F500F50048014A011B
:100970004C014E01F500F500F5001D006E69304692
:1009800010B0BDE8F081206801F0C0F8034610A85F
:10099000B3F85A2040F82C3D42F00C02A3F85A203C
:1009A00001F088F9206808F017FFE8E72A690026B7
:1009B000B4F910300192B4F914701846EA68B4F929
:1009C00018503946B4F91C40ADF81C30009223464B
:1009D0002A46ADF81E70ADF82050ADF8224001F067
:1009E000F5FCCCE723681C2218460892079301F017
:1009F0008DF8034607A805931B6D9847064605A882
:100A000001F058F9012E40F32781A9683346626945
:100A100002916868A16901902F682069009704F02D
:100A20009FFF2769A3693744C6EB0308286803F0D2
:100A3000C7FF42463946606901F098FD686803F0D7
:100A4000BFFF606942463946013001F08FFD6B6A95
:100A5000022B00F3F4802A6A964217DA6769012EA6
:100A6000206907F1020840F32A81024437443044E8
:100A70004146013A3B4601F06FFEA069821B3B46AE
:100A8000EF694146C01B013001F066FE012E40F3C4
:100A9000138163691E44E7692868013F03F090FFF2
:100AA000314620693A4601F0EDFD3A463146A069EB
:100AB00001F0E8FDE769686803F082FF023F206902
:100AC00031463A46013001F0DDFDA0693A46314633
:100AD000013801F0D7FDEB69022B40F38280AB6A4D
:100AE000E769022BA868CCBFFF1A023F03F068FF3A
:100AF000EA69022A00F39A802B6A022B00F38C80A9
:100B0000286803F05DFFA2692169E06901F02EFD0C
:100B1000686803F055FFA2692169E069013A013173
:100B2000013801F023FDAF6A022F61DC0026304658
:100B300010B0BDE8F08104F114012769A86800260F
:100B4000ADF81C700EC9ADF81E10ADF82020ADF840
:100B5000223003F035FF07A801F022FE0FE7298BB2
:100B60002269A3690A4465695B1AE1692068ADF8E6
:100B70002030ADF81C20ADF81E50ADF8221000F06A
:100B8000C5FF036F0590FBB1022003F06DFF059ACE
:100B9000B2F87C30C3F3C0030E3302EB83039868D2
:100BA00003F00EFF059B586B03F00EFF059B186FBB
:100BB00000F0ACFF059B07A90690B3F95A2001F09D
:100BC00015FB06A801F076F805A8002601F072F8DA
:100BD000D5E6AE6AD3E6EE69D1E62E6ACFE66E6A56
:100BE000CDE62B6A022B8BDD79E700BF0C020020DB
:100BF000D4F81C800026A2692169A868951E8C1C67
:100C000003F0DEFEC7EB08012A462046A8F10203E6
:100C1000013101F0A1FDB2E6A0693B46EF69314622
:100C2000821EC01B013001F097FD69E720693B4639
:100C3000314602440230013A01F08EFD5CE7A868BB
:100C400003F0BEFE636938466F6A991C42463B4416
:100C5000013B01F081FD19E7286803F0B1FE22692C
:100C6000EB69114660691A44013A01F07FFCA369FF
:100C7000E9691A466069591A013101F077FC676920
:100C800020690137394601F097FC3946A06901F027
:100C900093FC686803F094FE20693946013001F046
:100CA0008BFCA0693946013801F086FC2769A369ED
:100CB0000237A3F10208B9E666690236EBE60244A0
:100CC000434602304146013A474601F045FDA069DE
:100CD000821ED4E610B582B018B90446204602B090
:100CE00010BD00F013FFB0F87C4002ABC4F3C004A9
:100CF00043F8040D184600F0DDFF204602B010BD99
:100D000000B970472DE9F04184B004460E4600F06A
:100D1000FDFE458EC36D05F0200503909F68ADB2C2
:100D200045B1B0F954502DB9406B01F027FE039B3B
:100D3000851C00E003465E6303A800F0BBFF3B6830
:100D40000121204698473B680646032120469847E4
:100D50003B6880460021204698470746204600F021
:100D6000FDF94346324629462046009700F078F9BF
:100D7000204607F08FFF04B0BDE8F08100B970474E
:100D800030B583B00C46054600F0C0FEB0F95A30CD
:100D90000190A34204D0A0F85A40284607F07AFFF9
:100DA00001A800F087FF03B030BD00BF2DE9F0437C
:100DB000044685B020B90546284605B0BDE8F08355
:100DC0000E4600F0A3FEB0F954500390B5422AD06D
:100DD000418E01F0200189B219B15DB303462F465F
:100DE00001E003460F46DA6D0121A3F85460204666
:100DF00096683368984733688046032120469847B1
:100E0000336800218146204698470646204600F078
:100E1000A5F9204600964B464246394600F020F997
:100E2000204607F037FF03A800F044FF284605B02E
:100E3000BDE8F083406B01F0A1FD039B871CD2E766
:100E40002DE9F04F89B007460D4600F05FFE0346DE
:100E500001213846DA6D0593946823689847236822
:100E60000321804638469847236802218346384646
:100E7000984723680021824638469847814605985E
:100E800009F07EF80646059809F082F803460598B1
:100E9000448E04F02004A4B2B4B1B0F95420B0F9E7
:100EA0005840002A4AD091B2C06E0C44A4B280B11E
:100EB00003910292019307F033FB019B0FFA80FC30
:100EC000029A80B2039905E021462246C06E0028AE
:100ED000EED184461FFA89FE013E013B0FFA88F8E5
:100EE000CBEB060674440EF1FF3ECAEB030336B2A9
:100EF000044471446B812A8005A8A5F802C0EC80E7
:100F000069822E812E82A5F80480A5F80C80A5F8B0
:100F10000E9000F0CFFE08AAB5F910403846B5F99A
:100F20000C3006A942F8044D069300F04BF8069ADF
:100F3000079BAA812B8209B0BDE8F08F406B01931B
:100F400001F01CFD821C019B059891B212B20C4469
:100F5000A4B2BBE708B5438E03F020039BB24BB1AC
:100F60000246B0F9540000B108BD506B01F006FD17
:100F7000023008BD184608BD70B58AB00C4606465A
:100F800000F0C4FD0AABC26D43F8280D1846956801
:100F900000F090FE0196032C05D8DFE804F00F0C5A
:100FA0000902172302936B6801A898470AB070BD25
:100FB00015230293F7E716230293F4E7182302930D
:100FC000F1E700BF2DE9F04383B08846044691461F
:100FD00000F09CFD034602A8DA6D40F8083D9568D4
:100FE000B3F90070B3F9026000F064FE2B6820468C
:100FF000002198470546204607F026FA68B30446C4
:1010000007E001A800F056FE204607F04BFA044620
:1010100018B3204600F07AFDB0F9023001909B1B16
:101020009D42EED1836A1B060BD5B0F90030D9F88A
:101030000020DB1B934203F1FF33E2DCC9F80030F0
:10104000DFE7B0F90430D8F80020DB1B934203F14E
:101050000103A8BFC8F80030D3E703B0BDE8F083B0
:101060002DE9F04F83B088469A460546914600F038
:101070004DFDC26D02AED2F808B046F8080DFFF77C
:1010800069FF0446304600F015FEDBF80030012110
:1010900028469847DBF80030032106462846984743
:1010A000DBF8003007460021284698474445834630
:1010B00009D14E4507D1574505D10C9B984202D125
:1010C00003B0BDE8F08F2846C8EB040407F0BCF974
:1010D00005460028F4D04FF000080C9BC9EB06062B
:1010E000C7EB0A07C3EB0B0BC1460BE0B3F5007F60
:1010F00011D001A800F0DEFD284607F0D3F905461F
:101100000028DDD0284600F001FD836A019003F439
:101110002073802BEAD1CCB9836A1A060BD49B05C5
:10112000E7D508F1010308FB04615A4628469846B2
:1011300008F06EF8DDE709FB14715A46284609F1FC
:10114000010908F065F8019B9B6AE8E728462246FA
:10115000214608F00BF90198DEE700BF70B586B0B4
:10116000064600F0D3FC034606A89C6E40F8183DE6
:10117000DD6E00F09FFD14B90DB906B070BD3046AC
:1011800001A9FFF75DFE6CB9002DF6D0BDF90A206C
:101190002846BDF90630BDF90810D21A08F006F845
:1011A00006B070BDBDF90A202046BDF9081007F051
:1011B000FDFFBDF90E20BDF90A602046BDF90C30D7
:1011C000BDF90810921B591A0132013108F02AFBAF
:1011D000002DD2D0DAE700BF2DE9F043456887B093
:1011E0000446284607F068F9074600F08FFC0346DE
:1011F00006A85E6E40F8143DD3F84880D3F880907E
:1012000000F058FD23680E3B232B3FD8DFE803F0A6
:1012100035463E3E3E3E12123E123E3E3E3E3E3E73
:1012200018243E3E2B3E3E3E3E3E3E3E3E3E3E3E31
:101230003E3E3E30204606F02FFE07B0BDE8F0836C
:10124000E368002BF9D0B9F1000F3BD04D4539D000
:10125000484608F0F9F9F0E72146384606F06AFBFF
:1012600007B0BDE8F083C4F80C8007B0BDE8F08398
:101270000023E36007B0BDE8F083E3685A68002A02
:1012800004DD1B68092B1DD00A2B1FD0002ED1D0E6
:1012900020466760B04707B0BDE8F0836FF0704349
:1012A000984504D0404605F0A7FF00F08FFD002EC2
:1012B000C3D002AF94E80F0087E80F0038460395CB
:1012C000B047BAE7284608F011FAB6E7284608F012
:1012D00051FAB2E70D4B10B5186805F08DFF0C4BB5
:1012E0000C4C186805F0C2FF2368002201219A8582
:1012F00010465A85197605F0EBFF074A23681268F5
:1013000002B1DA6100229A7610BD00BF4C010020C4
:10131000480100205001002044010020014B83E8D7
:1013200003007047481F0020014B83E8030070470B
:10133000501F0020014B83E803007047581F002016
:10134000704700BF704700BF2DE9F04F5C4E8DB075
:101350003368DA69B3F92250D469B4F80CB0834524
:1013600000F29780E1898142C0F093802168CBEB45
:10137000000B08914FF0FF310A91BBF1FF3F00F0E5
:10138000828092F81880A27CB3F92A10B3F92490D5
:1013900018FB02F3084607911F4694F810A005F0C9
:1013A00097FFD6F800E008994346DEF838C0524669
:1013B000099007FB0B10DEF81CE00B970127049047
:1013C0004946CDF814C0284694F812C00297CDF8CB
:1013D0000CC09EF81BC0DFF8E8B0CDF804C09EF842
:1013E0001AE0CDF800E005F0D1F80A9F7B1C25D06B
:1013F000079941F0020005F06BFFDBF800100B9A33
:1014000043460898D1F838C002FB0700D1F81CE029
:101410000127CDF814C00490524694F812C04946F2
:1014200002972846CDF80CC09EF81BC0CDF804C02A
:101430009EF81AE0CDF800E005F0A8F83368DFF870
:101440008080DB695A7E1B7E9A4215D9079B022B4E
:1014500012D083F0040005F03BFFD8F80030284696
:10146000DB691F7ED97E9A7E5B7E07FB01910AFBBA
:1014700002524B4405F092FA9DF8240005F028FF33
:101480003368B3F92250627C15445D840DB0BDE829
:10149000F08FA1680029F6D00F88B842F3D3B1F8D5
:1014A00002E08645EFD3C01B4968676880B20897A1
:1014B00001EB800731F920B0B7F902100A915CE71F
:1014C00050010020044B1B68DB69DB6909B11A7C01
:1014D0000A60587C704700BF5001002002230B8037
:1014E000704700BFC3699A898A4202D8DA898A4262
:1014F00011D2986818B10388994201D20020704730
:1015000042888A42FAD3C91A436833F82100C0439B
:10151000C0F3C03070470120704700BF2DE9F04F85
:101520003A4D89B02B68DA69B3F92A90D36943B18F
:101530001A88904202D35988814205D29B68002BB9
:10154000F6D109B0BDE8F08F841AD3F8048048467C
:1015500008EBC40696F802B005F0BAFE8246286889
:1015600018F834204FF0010EC769D0F838C0B0F930
:101570002410B0F922003B7E0790CDF814C07068AB
:10158000CDF80CB00490CDF808E097F81BE0079870
:10159000CDF804E0BF7E009704F0F8FF2B68DA690D
:1015A000537E177EBB4223D9B9F1020F07931FD098
:1015B00092F81BB001F09CF9814601F07DF903F02F
:1015C000FFF9124B18F834E01868079BC169B0F9AD
:1015D0002240CA7EB0F9241020460EFB02420BFBCB
:1015E00003130BFB071105F0D9F9484603F0E8F99E
:1015F000504605F06DFE2B687178D8695A8C807E54
:1016000000FB01225A8409B0BDE8F08F5001002090
:10161000114B1B6870B4DD69EB6943B11A889042C5
:1016200002D35C88844205D29B68002BF6D1184611
:1016300070BC7047821A5E68AC7E06EBC2035B78B2
:1016400013FB04F00029F3D016F8323014FB03F337
:1016500070BC0B60704700BF5001002001230B805D
:10166000704700BFC06950B103888B4202D84388DD
:101670008B4203D280680028F6D170470120704762
:1016800000B9704709F0C2BC08B900207047F8B52E
:10169000064609F0BBFC044638B3154D3246154FDB
:1016A0000021E8696B6B013003EBC406E86113F8B5
:1016B0003400013003F8340076683B6806F1080016
:1016C000984731686A6B12F83130012B01D9E8690B
:1016D00020B9013B204602F83130F8BD0138013B0A
:1016E000E861204602F83130F8BD0020F8BD00BFA7
:1016F00040220020BC01002021F00301014B83E8BF
:1017000003007047601F002000B9704770B50A4C95
:10171000C6000546636B33445968486809F0C8FA47
:101720006368626B0021606A013316446360706015
:1017300002F83510656270BD4022002028B1034ACE
:10174000D36B036003B15860D06370474022002020
:10175000F8B50468054694B10A4EE700736B3B4444
:101760005968486809F0A4FA7368726B0020716ABE
:10177000013317447360796002F834007462002307
:101780002B60F8BD40220020F8B58B4E044696F839
:101790002830002B2FD00334356CF26B24F0030477
:1017A0000434A54238BF254662B152F8043C1446C1
:1017B0009D4204D114E054F8043C9D4210D02468AA
:1017C000002CF8D1F368B46B1C4454F8041C611A63
:1017D0000B68002B68D14B689D426FDD002408E048
:1017E00023680BB161685960616801B10B60A24266
:1017F00056D02046F8BD714B01219A6886F8281012
:1018000058680AB982089A605A27102220254FF09A
:10181000400E3762802732644FF48072B5644FF413
:1018200000751968C6F850E04FF4806EB7654FF444
:10183000006732664FF48052B5664FF40055A1F14F
:101840001403C6F870E0B7674FF4804EC6F88020E6
:101850004FF40047C6F888504FF480324FF40035FB
:101860000344C6F890E04FF4802EC6F898704FF409
:101870000027C6F8A0200222C6F8A8500125B163AF
:101880007363C6F8B0E03261F060C6F8B8705D60AE
:101890007562756009F00CFA0CF09CFB35637AE711
:1018A00023682046F363F8BD00200EF095FD54F840
:1018B000041C611A0B68002B90D18CE7581BD6F8DA
:1018C000B8703D4A041DBB420C4472D2D2F8B070CD
:1018D000BB426CD2D2F8A870BB4266D2D2F8A070DC
:1018E000BB4260D2D2F898709F425AD9D2F8907019
:1018F000BB4254D2D2F88870BB424ED2D2F880702C
:10190000BB4248D2926F934243D2376F2A4ABB42BE
:101910003DD2976EBB4238D2176EBB4233D2976D21
:10192000BB422ED2176DBB4229D2976CBB4224D248
:10193000126C93420CD2F2687369521B2B44F26012
:10194000736110B944F8045C53E709F0B1F9F9E7A1
:1019500000223768D1F808E0FF1ACB683760BEF183
:10196000000F01D0CEF8043013B1C3F800E0E2E775
:1019700006EBC202C2F844E0DDE70122E9E70222F9
:10198000E7E70322E5E70422E3E70522E1E7062291
:10199000DFE70722DDE70822DBE70922D9E70A2291
:1019A000D7E70B22D5E70C22D3E70D22D1E70E2291
:1019B000CFE70F22CDE700BF40220020601F0020AC
:1019C000F8B54A4C94F82830002B3DD0D4F8BC3000
:1019D000464A3BBBD2F8B43023BBD2F8AC300BBB89
:1019E000D2F8A430F3B9D2F89C30DBB9D2F89430F5
:1019F000C3B9D2F88C30ABB9D2F8843093B9D36F75
:101A000083B9536F73B9E36E63B9536E53B9D36D32
:101A100043B9536D33B9D36C23B9536C13B96FF019
:101A20000B00F8BD9B68002BF9D0002201E09B68F9
:101A300043B159681046914201D90A4608469B684D
:101A4000002BF4D10C38F8BD294B01219A6884F899
:101A5000281058680AB982089A605A261022202550
:101A600040272662802622644FF48072A5644FF4DA
:101A70000075196827654FF48067A6654FF4006606
:101A800022664FF48052A5664FF40055A1F114036D
:101A90002767A6674FF48047C4F880204FF40046BC
:101AA000C4F888504FF480324FF400350344C4F832
:101AB00090704FF48027C4F898604FF40026C4F863
:101AC000A0200222C4F8A8500125A163636322610B
:101AD000E060C4F8B070C4F8B8605D6065626560CD
:101AE00009F0E6F80CF076FA25636FE74022002053
:101AF000601F002030B1044B5B6B03EBC0004368F8
:101B000058680C38704700BF40220020084AD1694D
:101B1000536B013110B4D16103EBC00413F83020D2
:101B2000013203F8302060685DF8044B08307047DC
:101B300040220020F8B5544C94F82830002B51D0A6
:101B4000D4F8BC30504A83BBD2F8B4306BBBD2F867
:101B5000AC3053BBD2F8A4303BBBD2F89C3023BB93
:101B6000D2F894300BBBD2F88C30F3B9D2F8843071
:101B7000DBB9D36FCBB9536FBBB9E36EABB9536E5F
:101B80009BB9D36D8BB9536D7BB9D36C6BB9536C67
:101B90005BB96FF00B033D49DA1781FB0313C2EB0E
:101BA0006313206A00FB03F0F8BD9B68002BF8D09C
:101BB000002201E09B6843B159681046914201D967
:101BC0000A4608469B68002BF4D10C38B0F5800F0C
:101BD0000346E0D8226A2D4B02FB00F0A3FB002352
:101BE0005809F8BD2A4B01219A6884F828105868D2
:101BF0000AB982089A605A261022202540272662B8
:101C0000802622644FF48072A5644FF40075196831
:101C100027654FF48067A6654FF4006622664FF48F
:101C20008052A5664FF40055A1F114032767A667FB
:101C30004FF48047C4F880204FF40046C4F8885021
:101C40004FF480324FF400350344C4F890704FF4E1
:101C50008027C4F898604FF40026C4F8A020022220
:101C6000C4F8A8500125A16363632261E060C4F851
:101C7000B070C4F8B8605D606562656009F018F81E
:101C80000CF0A8F925635BE7402200201F85EB518B
:101C9000601F0020102807D9054B5A68520890424F
:101CA00028BF1046986070471020014B986070471D
:101CB000601F002003680B4A30B4044653F8085CE8
:101CC000506B10F83530012B03D9D16909B10139B6
:101CD000D1610022013B00F835301046226030BC53
:101CE000704700BF40220020034B5B6B03EBC0003A
:101CF00040680830704700BF402200202DE9F041C5
:101D0000064610461446884600F0FAFDC8B9A700FA
:101D1000184D3B1905EB8303DA68B24204D11B6905
:101D2000434501D1BDE8F0813B1905EB83035869B8
:101D3000B0B93C4405EB8404E660C4F81080BDE80B
:101D4000F0810C4B04EB840403EB840463689A6811
:101D50005968C2EB0802711ABDE8F04102F068BE92
:101D60005B689A685968C2EB0802711A02F0E0FADF
:101D7000DFE700BFD8210020C3B2CAB29A1A92B2DC
:101D800010B414B2002C1EDBC1F30722C0F30723EA
:101D90009B1A9BB21AB2002A12DB090C02FB02F258
:101DA000C1EB104104FB042089B20CB2002C01DA13
:101DB00049420CB2A1B25DF8044B01FB010070472F
:101DC0005B421AB2E9E7524214B2DDE700212DE985
:101DD000F041084682B000F0E7FD042005F078FAF3
:101DE000144B154F43F6FF761B6980463D4634463B
:101DF000DA6C68461B6D174416441D441C44ADF84C
:101E00000070ADF80460ADF80250ADF8064008F07F
:101E1000C7F848B1234632462946384604F0BEFD8D
:101E200007F050FF0028F5D1404605F051FA02B006
:101E3000BDE8F0814001002001C0FFFF2DE9F0471F
:101E4000044682B00D461646002B37D09A460096BF
:101E500051460B9B204626680A9AB047074618B998
:101E6000384602B0BDE8F08706F0C6FA618A8046BF
:101E7000384605F041FE013D384607F00BFD40466F
:101E800007F008FD002D1DDD4FF0000903E007F00D
:101E900001FD013D16D054F81C6F0023CDF80090D1
:101EA000414620461A46B04706460028EFD138463C
:101EB00006F022F8304602B0BDE8F08706F0AAFA34
:101EC0008246C4E740461D2107F036FBBAF1FF3FCA
:101ED000C6D006F0C3FA40B9BA450CD0384607F070
:101EE00005FC3846BDE70028F8D0FFF7FDFE806905
:101EF0008742F8D1B4E75046B3E700BF80B582B05F
:101F000000AF7860054B1B68002B03D0034B1B68A8
:101F10007868984700BF0837BD4680BD0023002081
:101F2000012B17DC2DE9F04107461C2090460D4699
:101F30001E46FFF729FC0446D0B16DB105610023B0
:101F40002046A661A4F81480E76023606360A36064
:101F5000BDE8F08100207047074B53F826200AB9EE
:101F6000EDE71A461368002BFBD113692361E6E7FE
:101F70000020BDE8F08100BF20230020012B3BDCC6
:101F80002DE9F84381461C2090460F461E46FFF778
:101F9000FBFB054600287FD0414A002F31D00023AB
:101FA000DFF804E152F8264003609EF80010076154
:101FB0008E428661A0F81480C0F80C904360836064
:101FC00002DB731C8EF80030002C5DD021464C687B
:101FD000002CFBD1D9F80000CB681B6883422CDDB4
:101FE00009680029F8D148B92E4B163628461A68D8
:101FF00042F82650BDE8F883002070472846BDE827
:10200000F88352F82610002930D0084600E0184620
:102010000368002BFBD10069DFF88CE02B6028619E
:102020009EF80000AE618642A5F81480C5F80C90B9
:102030006B60AB60CBDB0C46C3E70AD04B6843B3A5
:102040001D606B608D4214BF0B4600234D602B60FA
:10205000C9E7B8F1010FF1D104E0DC681946236843
:102060008342EBDB0B68002BF7D1E7E7DFF838E0C2
:1020700001609EF8003086619E42A0F81480C0F88E
:102080000C9041608160D6DA42F82650D9F8000001
:10209000A9E742F82650D5E70020BDE8F88300BF45
:1020A000202300205001002018230020FFF746BB0A
:1020B00000283DD070B48469012C03DD012318464B
:1020C00070BC70471F4B1A78944221DA1E4D55F8A8
:1020D00024300BB932E013465A68002AFBD1C2689B
:1020E000116802E01B68002BE8D0DA6812689142A0
:1020F000F8DB10D05A68F2B110604260984214BF09
:102100001A460022586000230260184670BC7047CF
:10211000621C1A70DAE7828A012AEBD104E0D668E1
:10212000134632689142E5DC1A68002AF7D1E1E7EC
:1021300001231846704745F82400DFE745F82400DE
:10214000BDE700BF18230020202300200F4A81692B
:1021500052F8213098420AD042680AB103681360ED
:10216000036803B15A60002303604360704703684B
:1021700042F821302BB100225A604268002AEED189
:10218000F0E74268002AEAD1EDE700BF20230020F3
:1021900001280EDC084B53F8200058B1C3681B68B7
:1021A0001BB908E0C3681B6823B100680028F9D197
:1021B00070470020704770472023002070B5054607
:1021C000094E0FF0EBFF054407E000F097FA306886
:1021D000A042A8BF20460FF0D5FF0FF0DFFF2C1A5A
:1021E000002CF2DC70BD00BF5C01002000B3F0B534
:1021F000054683B016460C46C1B1084607F03EFBC3
:10220000074638B102462146684603F007FE684695
:1022100007F034FB32462146284647F6FF7303F0A9
:102220009BF9384607F02AFB03B0F0BD0F46F1E7F3
:10223000704700BF08B100F001B870472DE9F04FBA
:1022400089468BB01F46B1F90030B1F9041015462C
:1022500000930446CE1AB9F9063005920191013671
:10226000B9F902B0039300F05BFB15F00C05029086
:1022700019D0A2463A4631464FF00008504603F0C6
:1022800079FF48B182443A46314608F10108504688
:1022900003F070FF0028F5D1082D79D00C2D00F047
:1022A0008280042D74D0BDF808A0484607F0E6FAF5
:1022B00002460490A8B10099002506A82B4661F3B8
:1022C0000F0501996BF31F4561F30F030399069501
:1022D00061F31F434946079303F0A0FD06A807F0EA
:1022E000CDFA059B1FFA8BF503F003080AF1FF33C3
:1022F00002934346B0461E4615E0022E34D01EB966
:10230000B9F80030ADF820302046594608AA5544A7
:1023100003F0C0F820463A46414603F02BFF044440
:10232000ADB2237873B33A464146204603F084FFAA
:10233000BDF80020029B8346ADF820202046EB1814
:10234000BDF804205946ADF82250ADF82420ADF870
:10235000263003F0C5FC012ECFD1B9F8043001338B
:10236000181AADF82000CFE7B9F90010B9F9043018
:102370005B1A181A013048BF013001EB6000ADF85C
:102380002000C1E7049807F079FA0BB0BDE8F08FA0
:10239000BDF808A0039B18FB0AF85D1CC8EB0505F7
:1023A0000FFA85FB81E7039B029ACBEB0303BDF891
:1023B00008A0013308FB1238B8F1000FB8BF08F1CC
:1023C00001080BEB68050FFA85FB6EE72DE9F04F6E
:1023D000654C91B02468E56C246D2818AA18611822
:1023E000E318064607900EA808920D460291019345
:1023F0001C46ADF83860ADF83C20ADF83A10ADF8A9
:102400003E3007F0CDFD002800F09580C5EB040BB1
:102410001A999DF86820C1F30724BBF1000F1B999E
:102420005B46B8BF0BF101030BFB02FEC1F30727AC
:102430001A995B109DF86CC0C1F307401B9903EB20
:102440000E05C1F307461A990A95090E0BFB0435D0
:102450003C1B0B9503940BFB0034301A0BFB013330
:102460005E460C940D931B9B0490C1EB1363059384
:10247000C2EB0C03069300F03BFA1A9B1B9A0990DF
:10248000934267D0002E52D0029D019A954259DCAA
:102490000AAF86464FF0010B97E8800706E00BF184
:1024A000010B0135019BA646AB422FDB70469AFB20
:1024B000F6F499FBF6F197FBF6F398FBF6FC22068F
:1024C000059C43EA0C23A24442EA0144049A1C43BB
:1024D000029B9144069AAB421744039A9044E0DA77
:1024E0007445DCD004F0C2FEBBF1010FCBEB05015B
:1024F00005F1FF33089A079820D004F04FFA013510
:10250000019B4FF0010BA646AB42CFDA204604F008
:10251000ADFEBBF1010F17D0019B089ACBEB030175
:102520000798013104F03AFA099804F09FFE07F089
:10253000C9FB00289FD111B0BDE8F08F691E04F0DF
:10254000ABF9AEE704F092FE089A0199079804F0FF
:10255000A3F9E9E7184604F089FE019B089A02995D
:10256000079804F01BFADFE750010020F0B5114F87
:1025700083B03B681D6DDC6C0544684666181444E6
:102580002BB2ADF80060ADF80440ADF80230ADF804
:10259000063007F005FD50B13B682246294630461B
:1025A0005B6E1B68984707F08DFB0028F4D103B0E1
:1025B000F0BD00BF5001002070B5104E82B03368EE
:1025C000DD6C1C6D054468460C442AB223B2ADF89C
:1025D0000420ADF80020ADF80630ADF8023007F069
:1025E000DFFC48B13368214628465B6E5B6898473C
:1025F00007F068FB0028F5D102B070BD5001002043
:102600002DE9F0431E4C83B025682E7E2F6DEC6CB7
:10261000013E07EB010907EB030825181444B2B289
:102620006846AE1A1119C2EB09034244ADF80060C6
:10263000ADF80410ADF80230ADF8062007F0B0FC9C
:10264000D8B109F1010708F1FF362246494628466C
:1026500004F022F922464146284604F01DF932468C
:102660003946284604F072F932463946204604F0CD
:102670006DF907F027FB0028E7D103B0BDE8F08330
:1026800050010020104B1B6870B5DD6C82B01C6DD2
:1026900005446846661814442BB2ADF80260ADF8E4
:1026A0000640ADF80030ADF8043007F079FC40B1D9
:1026B00022463146284604F049F907F003FB00287A
:1026C000F6D102B070BD00BF5001002030B585B01A
:1026D00000232A220D466946019302930446039380
:1026E000009206F025FF039B13B1012283E824002A
:1026F000204607F0D5F905B030BD00BF2DE9F04107
:102700000025124F124EDFF84C803C681CB1A047E8
:10271000041C18BF012405F017FD3368002818BFFA
:1027200001244BB1984738B1D8F8003013B10124D7
:1027300098473CB10125E8E7D8F80030002BF7D1E5
:10274000002CF7D12846BDE8F08100BF44230020CB
:102750004823002040230020F0B5104C83B02468AB
:10276000E56C246D2F18154466181C446846ADF8B6
:102770000070ADF80450ADF80260ADF8064007F007
:102780000FFC48B123462A463146384604F006F984
:1027900007F098FA0028F5D103B0F0BD50010020F1
:1027A000154B01461B68F0B5DA6C83B01B6DB1F9AF
:1027B00000706846B1F90450B1F902601744B1F9EC
:1027C000064015441E44ADF800701C44ADF804509A
:1027D000ADF80260ADF8064007F0E2FB48B12346D1
:1027E0002A463146384604F0D9F807F06BFA00283B
:1027F000F5D103B0F0BD00BF50010020002850D03B
:10280000C388013B10B5848880681F2B47D8DFE858
:1028100003F0162346314646463C46464646464663
:10282000464046464646464646464646464646464E
:102830004610A31002FB031150F8210010BD02FB4B
:1028400004F200EBD104C843A35C00F0070023FAB4
:1028500000F000F0010010BD02FB04F200EB910457
:102860006FEA4100A35C00F0060023FA00F000F0DC
:10287000030010BD02FB04F200EB5104CB07A05C87
:102880004CBF00F00F00000910BD02FB0404605CA7
:1028900010BD631002FB031130F8110010BD0020C1
:1028A00010BD7047034B082153F82000C3689B6A92
:1028B000184700BF2023002008B504F0AFF8BDE89A
:1028C000084004F08FBA00BF024B00211B68DB698F
:1028D0005B68184750010020024B1B68DB695B688E
:1028E000184700BF5001002008B105F077BD7047C0
:1028F00008B504F09BF8BDE8084004F073BA00BFC7
:10290000012801D900207047014B53F8200070477F
:1029100094200020014B1B68187C70475001002058
:10292000024B1B68DB69587E704700BF50010020D6
:1029300038B50D46144604F0F1F810B100232B60B1
:10294000236038BD044A054BB2F90020B3F90030CA
:1029500002600B60704700BF0623002008230020A0
:102960000FF01CBC044B3422352061219A70187082
:1029700018461971DA70704738010020027EC07E57
:1029800002FB00F0704700BF024B53F820301B6978
:102990001868704720230020024B53F820301B6931
:1029A0005868704720230020024B1B685884002081
:1029B000998470475001002090B583B000AF534A0E
:1029C000524B1B6823F001031360514B1B68C3F388
:1029D0000A0340F2494293420CBF01230023DAB2BA
:1029E0004B4B1B68C3F30A0340F251418B420CBFAF
:1029F00001230023DBB21343DBB21946444B1B68AF
:102A0000C3F30A0340F2524293420CBF0123002356
:102A1000DBB20B43002B10D03E4B01221A6000BFEB
:102A20003C4B1B68002BFBD13B4B3C4A1A603A4B9A
:102A30001B683B4A934218D0FEE73A4B1B68C3F32E
:102A40000A03B3F58A6F10D1374B01221A6000BF19
:102A5000354B1B68002BFBD1344B304A1A60334B8B
:102A60001B682F4A934200D0FEE702F0D3FC304BA4
:102A70002E221A700FF098FB2E480CF033FF0EF048
:102A8000F7FD786004F0C4F80346002B0CBF012367
:102A90000023DCB204F002F90346002B0CBF012333
:102AA0000023DBB22343DBB2002B09D004F0C6F8CD
:102AB000044604F009F903461946204604F002FCD6
:102AC0000021002001F0B6FF05F0D2FF1A4B1B6871
:102AD000002B12D00DE0184B1B681B68002B03D095
:102AE000154B1B681B689847134B1B685B68124AA1
:102AF0001360114B1B68002BEDD1104B01221A7093
:102B00007B6818460C37BD4690BD00BF002000E032
:102B1000002004E00830024000300240C2A507F463
:102B2000CDB5E8B50010005C084C0258004C0258C6
:102B300004230020741F0020EC1F0020102300201D
:102B400010B582B028B90F4B1B68186E08B902B0D7
:102B500010BDFEF7DBFF02AB446943F8080D1846D1
:102B6000FFF7A8F8002CF2D0204602ACFEF7CEFF0B
:102B7000826844F8040D936898472046FFF79AF856
:102B800002B010BD5001002000B97047014A114643
:102B900000F002B801F0FFFF2DE9F047DFF8F08008
:102BA00084B0064600200C46154601F00BFFD8F80D
:102BB0000030814630461F6EFEF7A8FF0368009084
:102BC000986901F0E1FE314B82469C42009B4DD05A
:102BD0001A895B89013AADF80840013BADF80A500B
:102BE00022442B44ADF80C20ADF80E3004F0A4FFC5
:102BF0006846FFF75FF802A807F0D2F918BB504605
:102C000001F0C2FE002F39D0D8F800301B6E93BB04
:102C100005F038F93846FEF779FF04ACD8F80030F3
:102C200044F80C0D1F660068FFF742FA2046FFF7D4
:102C300041F804F0D3FB04F00BFB484601F0C2FE60
:102C400004B0BDE8F0872A462146304600F082FCF9
:102C500007F038F80028D2D02A462146304600F046
:102C600079FC07F02FF80028EDD1C8E7B3F904404C
:102C7000B3F90650ACE701F07DFEC9E701F07AFE3A
:102C8000484601F09FFE04B0BDE8F08701F0FFFF69
:102C9000500100202DE9F0431C4D0F4606461C4C08
:102CA000296885B090469946487C54F8204001E058
:102CB0002468DCB1E3681A68042AF9D1DB6A0121CF
:102CC000204698470546B8B12469A3689847013063
:102CD00016D00C994B464246029400913946019514
:102CE000304600F0B3FA05B0BDE8F083FFF750FAC4
:102CF000044608B1C368E1E7002005B0BDE8F083F1
:102D00000C9B044C43F001030C93E2E750010020BC
:102D10002023002098BD0108C0B1114B1B681B6E19
:102D2000984210B5044682B016D02046FEF7EEFE5B
:102D3000436901905BB90068FFF7B8F901A8FEF795
:102D4000B9FF2046FEF7E0FC02B010BD7047184600
:102D500002F04CF90198EEE701F00CFEE5E700BF48
:102D6000500100202DE9F04FDFF864B18946044698
:102D70005548DBF800101E4687B092464F7CC3577B
:102D80003846012B40F38E8003F048FF0546384655
:102D900003F08AFF0746002C00F0818005A904A8F3
:102DA000FFF7D0FD049A059B1544B4F900201F4499
:102DB000B4F9023022EAE272013D23EAE373013FF3
:102DC000114602921846B4F9042003939542D4BFE9
:102DD000C1EB0501C1EB0201B4F9063002460D4614
:102DE0009F42D4BFC2EB0702C2EB03020135174674
:102DF000013706B97E42002D4DDD002F4BDD109BC3
:102E00002A460399009333460298FFF743FF804612
:102E100000284FD000F08AF88742064604D0DBF83D
:102E20000030986C00284BD140463D46002400F00D
:102E30007DF90EE0AD1BACB950463444C847234B76
:102E4000FF201B6803B198474046FFF79DFEA7424D
:102E500012DDAE42EEDD2946404600F04DF9AD1BD5
:102E6000002CE9D0039B40460299E21800F08EF94D
:102E70004046FFF765FEDFE74046FFF74DFF0020C5
:102E800000F054F9B74206D0DBF80030986C10B16E
:102E9000332107F01FFE002007B0BDE8F08F039438
:102EA0000294A6E703F064FE0546384603F08AFE66
:102EB000074670E75046C847012007B0BDE8F08FCD
:102EC000322107F007FEAFE71C230020A0210020DD
:102ED0005001002030B583B018B90446204603B035
:102EE00030BDFEF713FE036802AD1B6945F8040D03
:102EF0009B68984704F0D6FB04462846FEF7DAFEA6
:102F0000204603B030BD00BF70B110B582B0FEF7EF
:102F1000FDFD00F1180402AB43F8040D1846FEF75E
:102F2000C9FE204602B010BD704700BF10B582B088
:102F300060B1FEF7EBFD02ABB0F90A4043F8040DB7
:102F40001846FEF7B7FE204602B010BD044B1B68C2
:102F5000186E0028EDD10446204602B010BD00BF17
:102F6000500100202DE9F04F804687B0002758E03F
:102F7000002E7ED105F04EFA804500F09A80584B25
:102F800001264946224602935846564B0096019325
:102F90002B4600F05BF981464046FEF7B7FD03463D
:102FA0000590C0F82490B9F1000F79D0826A05A885
:102FB000DFF840B142F480329A62FEF77BFE484669
:102FC00000F0B4F882463046474E02F073F84846A7
:102FD000FFF79AFF454B05FB04F2454C1978920028
:102FE0003568A84740462568CBF8008005F06EFAA2
:102FF0002060404607F040FC002225601046CBF8D8
:10300000002002F057F8504600F090F84046FEF7D6
:103010006BFE406AB0FA80F35B090137042F22DCB3
:103020000BB34046FEF772FD034605A8B3F900B0A6
:10303000B3F90290B3F90440B3F90650CBEB0404A2
:103040000593C9EB05055E6A0134FEF733FE0135D1
:10305000002DC8BF002CD4BF0123002388DC01371A
:103060000020042FDCDD08B100F0C2F807B0BDE895
:10307000F08F3046FEF74AFD034606A8B3F9065026
:1030800040F8083DB3F90440FEF714FEA94501D10C
:10309000A345BBD04A465946304600F077F8B5E71D
:1030A00005A8FEF707FE404607F0E6FB3346484614
:1030B000B3E703F097FD064603F0DAFDB44202DC05
:1030C00085427FF75CAFB442A8BF34468542A8BFB3
:1030D0000546214640462A4606F0A4FB4FE700BFBE
:1030E00098BD0108A4110208BC010020A421002001
:1030F0003C220020C833002010B50C4682B060B1DD
:10310000FEF704FDB0F90A300190A342C8BF448124
:1031100001A8FEF7CFFD02B010BD034B1B68186E6F
:103120000028EDD102B010BD50010020F0B5134FC2
:1031300083B03B681E6ED8B10446B6B904F0A2FE57
:103140002046FEF7E3FC02AD3B6845F8040D1C6623
:103150000068FEF7ADFF2846FEF7ACFD04F03EF92F
:1031600004F076F8304603B0F0BD01F003FCE5E76B
:1031700001F000FC304603B0F0BD00BF500100205C
:10318000014B1860704700BFE420002030B50C46AA
:1031900083B028B9154B1B68186E08B903B030BD51
:1031A00015B224B2FEF7B2FCC5808480009004F012
:1031B0004FF8009B586920B96846FEF77BFD03B0C5
:1031C00030BDFEF7A3FC009B0190B3F90820B3F9D2
:1031D0000A308280C38013B10AB10480458001A8FF
:1031E000FEF768FD6846FEF765FDE8E75001002040
:1031F00000B9704770B584B00446FEF787FC0146FD
:1032000001A8B1F90460B1F906500A894B8932442A
:1032100001912B44ADF80860013AADF80A50013B2A
:10322000ADF80C20ADF80E30FEF744FD02A806F014
:10323000B7FE40B12A463146204600F06DF906F04F
:1032400041FD0028F6D104B070BD00BF2DE9F04F5C
:10325000DFF82C8187B082468B46D8F800001746ED
:103260001E461299437C00221198FEF759FE002851
:103270004DD0036905469B68984704F013FA00FB9C
:1032800007F48146FEF756FC109B073413F0010348
:103290004FEAD4043FD0002E2CDD002B42D004FB9B
:1032A00006F01830FEF7ECF9024668B300230293EB
:1032B00010460392FEF72AFC029A034606A8A3F8DA
:1032C00004A0A3F806B01F815E81DC60C3F81090F3
:1032D0005A6140F8043D1D60FEF7ECFC129AD8F8E4
:1032E00000302A61039A1046AA605B7CAB6107B08C
:1032F000BDE8F08F002C34D1204676428642A8BF2C
:10330000064693B3002ECADC2846FEF7CFFE002007
:1033100007B0BDE8F08F0028B8BF0330801000EB85
:103320004000B8E700933A4633465946504601F00C
:10333000D3FD029004FB06F01830FEF7A5F9024613
:103340000028B5D128460392FEF7B0FE029B002B61
:10335000DDD01846FEF7D8F9039A104607B0BDE84D
:10336000F08F1838B0FBF4F0C7E700933A463346C5
:103370005946504601F0B0FD002E0290DADCC3E75A
:10338000500100202DE9F04FDFF880918BB05D4BAC
:10339000D9F800C0DFF878819CF811E053F82E408E
:1033A000D8F80030D4F810E0002B00F0A6801646C4
:1033B000DCF8602007460D46002A75D0E2681268E6
:1033C000072A78D0504AC2EB0E02B2FA82F25209B2
:1033D000002A70D03846FEF799FB03460AA8B3F9D5
:1033E00008B040F8083DB3F90AA00BEB0504DB6810
:1033F000013C0593FEF75EFCD9F80010B1F90C30E2
:10340000B1F90800E41A002CCCBFC4EB0B045C46F5
:1034100085425EDB0023002C43DD0AEB0600B1F998
:103420000EE00138CEEB00000028C8BFC0EB0A0A4E
:10343000B1F90A00B04247DC0021BAF1000F07934E
:1034400006912EDD3846FFF75FFD079BD9F8002077
:10345000069901FB0B31136E00EB8107002B3CD06A
:103460001846FEF753FB02460AA8B2F90410B2F957
:1034700006306D1A40F8042DF31AA900D56801F141
:10348000180605FB03661644FEF714FC4EB1059BB7
:10349000224600953946019330465346D8F80040FD
:1034A000A0470BB0BDE8F08FE2681268B2FA82F272
:1034B0005209002A8ED173463246294638460DF00D
:1034C00029FE0BB0BDE8F08F811B0646C1EB0A0A4E
:1034D000B3E7431B0546E41A9DE7507C4FEA8B0295
:1034E000DFF830E03B4602922946CDF804A0324690
:1034F0000094DEF80040A047D3E773460DF00AFEC3
:10350000CFE700BF2023002098BD01085001002014
:103510002C230020282300202DE9F04182B00F4603
:1035200090460646FEF7F2FA034602AC16211D68E5
:10353000002044F8043DEB685B6A98470546204646
:10354000FEF7B8FB1DB1424639463046A84702B0E7
:10355000BDE8F08100B970472DE9F04FA3B08B466C
:1035600092460446FEF7D2FA22AB456943F81C0D99
:103570001846FEF79FFB2046FFF7ACFC0828814663
:1035800040DD002D3ED12046FEF7C0FA22AA0346B8
:10359000B0F9081042F8100D10460D92B3F90A2048
:1035A0000A9109921968DA680E690B930E92FEF778
:1035B00081FB924892490068D6F80480407C51F81B
:1035C00020100D692B680C93FFF76CF908280B9BF2
:1035D00014D910288BBF20221022042702270B9217
:1035E000AE4200F0F882B9F1200F00F0B381B9F1DA
:1035F000100F00F0458123B0BDE8F08F08220127AD
:103600000B92EDE70021012320467C4E20910DF125
:1036100088080B9121930A93FEF778FA07463068E1
:103620003A68FB68B7F908101269139314913B6963
:10363000B7F90A10407C0993169148F8147D556833
:10364000D7F81490FFF72EF932680E90507CFFF7F0
:10365000A3F907464046FEF72DFB099A0A9B082A64
:103660000B9940F29D80102A13460A918CBF0423C7
:1036700002230C93BD4200F0C1813368587CFFF7F0
:1036800083F9149B06469800FDF7FAFF1090002876
:10369000B1D02046FFF738FC0446B9F1000F00F026
:1036A00088804846FEF732FA169B1E90002B40F3A6
:1036B000A1810023DDF83880CDF834A00B93139B53
:1036C000CDF848B0E31815931FAB19460F938368E4
:1036D00000225B691F920B9A9847159B139A044628
:1036E0009B1A0E93149B834200F0F680099B012BDA
:1036F00000F08880002842D01CAB11931098FEF790
:1037000005FA099B07461C90082B1F9A65D90C9B4C
:10371000A3460E99824602FB031939F8020BA8470B
:10372000B047BBF1010B4AF8040BF6D1B8F11F0FFB
:1037300004D838464246214601F0D2FC0A990123BA
:103740001F982246059112991C9F0844002101935D
:1037500000930391CDF808800D99049702F016FFAD
:103760001198FEF7A7FA1F9B1E981C440B9A8368BA
:103770000F991F945B69984704460028BED1159A9B
:1037800013990B9B0A44013315920D9A0B93013246
:103790000D92169A9A4200F02D811E980F9996E785
:1037A000012A03D120AB0C920A9363E70C930A9190
:1037B00060E701250A9B139A0999059304905846DE
:1037C000039202915146169B149A0195009502F0BE
:1037D000DDFE1098FDF798FF0DE70C9BA2460E99B1
:1037E000814602FB031B1BF8010BA847B047BAF147
:1037F000010A49F8040BF6D198E700BF50010020F8
:10380000202300200028BAD0CDF8608019960B9FA5
:103810000A9EDDF83880DDF83490DDF848A0DDF848
:103820003CB017951192DDF87CE02246119D0123F2
:103830000EF0070049460395012506900AEB0E009D
:10384000BEF1000F05960295B8BF0EF1070E019567
:10385000009508EBEE0ECDF810E003F0D1FD1F9BB4
:103860001E983A461C44594683681F945B699847E2
:1038700004460028D7D1179DDDF86080199E7EE7A9
:103880000A9B03FB07F0FDF7FBFE109000283FF4B6
:10389000B2AEFEF73BF920902046FEF737F900F173
:1038A00018031E900E932B69002B00F0A6817369FC
:1038B000002B00F0A281B0F908008000FDF7E0FEC7
:1038C0001190002840F0BA811F900D98FEF7F2F990
:1038D00020A8FEF7EFF97CE71098FEF717F9099B8F
:1038E00081461C90082B149F0446DDF838A028D987
:1038F0003AF8020BA847B047013F44F8040BF7D150
:10390000B8F11F0F04D848464246149901F0E8FB6D
:1039100022AB12980D991A460A9B05930023039334
:10392000012352F818EDCDF8088017460193149A38
:103930000093CDF810E002F029FE3846FEF7BAF900
:103940001DE71AF8010BA847B047013F44F8040BE4
:10395000F7D1D5E70A9B07FB03F0FDF791FE0E9028
:1039600000283FF448AEFEF7D1F820902046FEF73D
:10397000CDF81E902C6900F11808002C00F0EB80A7
:103980000A9A5C4601260A954FEA82099346CDF8C9
:103990003090DDF8249017E0042F21D0012F15D0AE
:1039A0000B9B0020209D51460293012305905A460F
:1039B0000390204601969A440096049502F0E6FD95
:1039C000B9F1010900F0E880022FE5D10C9D4046D5
:1039D0003B465A46A8440A9D20992D69A847DFE72F
:1039E0000C9B40460A9D5A46984420993B462D69B7
:1039F000A847D5E71EA8FEF75DF9EAE62046FFF7DF
:103A000083FA8046B9F1000F00F0D4804846FEF7F3
:103A10007DF8169B1E90002B40F3C88000261FAB3C
:103A2000CDF834A00125B146DA461F4683683246F8
:103A3000CDF87C9039465B699847149B04468342D5
:103A400031D0099B012B57D020B30D9B0B9603EB74
:103A5000060B1F9801230C990A9A01FB008E099E00
:103A6000139950440592224603915946CDF810E02F
:103A700002960195009502F089FD1F9B1E9839461C
:103A80001C440B9A83681F945B699847044600287E
:103A9000DFD10B9E139B01369844169BB34240F333
:103AA00085801E98C2E7CDF82C80B346984600E08A
:103AB000A3461E980BF101043946836822465B69D0
:103AC00098478045F4D00A9AC6EB0B03DDF82C80AA
:103AD0005046059201330D9ACDF810809119139E2E
:103AE000099A039602920195149A06FB03880095A1
:103AF000264602F04BFDD0E70028CBD00D9B0B965D
:103B000003EB060BDDF87CE022460A9E01230EF053
:103B100007005946059606900AEB0E00BEF1000F0D
:103B2000139E0295B8BF0EF1070E0396019508EBA0
:103B3000EE0E0095CDF810E003F062FC1F9B1E987E
:103B400039461C440B9A83681F945B699847044666
:103B50000028D7D19DE7A1460125099E0123022F08
:103B600051460A9A58460AEB030E00F0A981042F29
:103B700000F07D819F4200F052810B9CF246CDF80F
:103B800014900294209CCDF80C900195009504941B
:103B900002F0FCFC013EE1D10D98FEF78BF820A865
:103BA000FEF788F80E98FDF7AFFD24E51EA8FEF796
:103BB00081F820E501240A9B139A09990593049042
:103BC0005846039202915146169B149A0194009410
:103BD00002F0DCFC0FE50E9A012418330025039255
:103BE000514604935846099BCDF808900A9A0595CA
:103BF0000194009402F0CAFCFDE40125DDF8289050
:103C0000099E0123022F51464A4658460AEB030EED
:103C100000F0D480042F00F0A0809F426DD00024DB
:103C200001950095F246059403940B9C0294209C08
:103C3000049402F0ABFC013EE3D146E6FDF766FFDB
:103C40001F9000283FF441AE0A9A0124CDF828B015
:103C50004FEA420990460C95CDF83C90B146DDF80C
:103C600038B017E0042F2ED0012F28D00B9B002056
:103C7000209D5146029301230590424603909A44A9
:103C8000019400940A98049502F080FC099B013B82
:103C900009932BD0022FE5D1209B1E463B4642467E
:103CA0001F995846D9F81450A8470F9D31463B46F6
:103CB000AB440C9D42461F982D69A847D6E7209B30
:103CC0001E460223EBE7209B42460F9E58461D46A8
:103CD0001F990223B344D9F81460B04729460C9DBC
:103CE0003B4642461F982D69A847BFE71FA8FDF72E
:103CF000E1FF1198FDF708FDE7E50A9B44460996A8
:103D00005D000C9E0C95209DDDF83880DDF8289034
:103D100038F8020BA047B047B9F1010905F8010BCB
:103D2000F6D10E9D01230B985146AE460C9D029094
:103D30005846AE44209DCDF814909A440A9ACDF886
:103D40000C90019700970495CDF838E002F01EFC26
:103D5000099B013B0993D6D1B7E50A9B012509963A
:103D600044465E000C9F0C96209EDDF83880DDF8FE
:103D7000289038F8020BA047B847B9F1010946F876
:103D8000040BF6D10E9E01230B985146B6460C9EAD
:103D900002905846B644209ECDF814909A440A9A50
:103DA000CDF80C90019500950496CDF838E002F01E
:103DB000EDFB099B013B0993D6D186E50A9B0125C2
:103DC000099644465E000C9F0C96209EDDF83880D4
:103DD000DDF8289038F8020BA047B847B9F101097F
:103DE00026F8020BF6D10E9E01230B985146B646DB
:103DF0000C9E02905846B644209ECDF814909A44EA
:103E00000A9ACDF80C90019500950496CDF838E00B
:103E100002F0BCFB099B013B0993D6D155E5950007
:103E20000C9C09960C95209D4646DDF8289056F886
:103E3000040BA047B9F1010905F8010BF7D10B9864
:103E40000123209E514602905846CDF814909A4482
:103E50000A9ACDF80C900197009704960C9D02F0F9
:103E600095FB099BA844013B0993DCD194E6099694
:103E7000012596000C9C0C96209E4746DDF8289064
:103E800057F8040BA047B9F1010946F8040BF7D124
:103E90000B980123209F514602905846CDF814906C
:103EA0009A440A9ACDF80C900195009504970C9EBF
:103EB00002F06CFB099BB044013B0993DCD16BE63B
:103EC0000996012596000C9C0C96209E4746DDF82D
:103ED000289057F8040BA047B9F1010926F8020B06
:103EE000F7D10B980123209F514602905846CDF8F8
:103EF00014909A440A9ACDF80C9001950095049775
:103F00000C9E02F043FB099BB044013B0993DCD1BA
:103F100042E600BF1A4A1B4B116A0029F0B50CBFDC
:103F20000446002483B01D57012D26DD02EB8401D9
:103F30000B695E1C0E6103BB8E681F4652F824207D
:103F4000334603E0A2428C60134607D15C1CAC42AE
:103F5000F8D100248F601346A242F7D0FEF718F97B
:103F6000019050B1C368212101A85B6A98470346BC
:103F700018B1224631460198984703B0F0BD00BF02
:103F8000102000201C23002030B50C4D83B00446C7
:103F90006B6A53B12A6A0A4B002A18BF0024012910
:103FA000B8BF0121195503B030BD064B2846019119
:103FB00040F8243F02F05EF80199EBE71020002062
:103FC0001C23002005FE0008094B1A6A002A18BFAE
:103FD000002003EB800210B49469002C04DB4FF046
:103FE000FF3443F8201094615DF8044B704700BF24
:103FF00010200020164B174A196A002970B50CBF13
:104000000446002482B01257012A05DD03EB840424
:104010002369013B23610BB102B070BD054601204D
:10402000A840FDF76BFFA6682846A661FEF7B0F82A
:1040300001900028F0D0C368222101A85B6A98474C
:1040400003460028E8D031460198984702B070BD79
:10405000102000201C23002058B311B30AB3B1F97B
:104060000030F0B5B2F90050B2F902E0B1F9024007
:104070009D42B2F90470B2F90660A8BF1D46B1F9BD
:1040800004207445B1F90630A8BF7446BA420580D1
:10409000B8BF3A46B3424480B8BF33468280C3803B
:1040A000F0BD002908BF11460A684B6802604360F2
:1040B0007047704778B189B2C38892B270B40688ED
:1040C000448885880E4414441A4429440680448058
:1040D0008180C28070BC704770B4124D04462B685A
:1040E0006A6893420FD0104EB34293E8070014BFA2
:1040F0000C333C3B84E807002B60207A003070BC16
:1041000018BF01207047094A934204D013E9070001
:1041100084E80700F1E73C3393E8070084E80700F0
:10412000EBE700BF54010020782000203C20002055
:10413000034B09CBC01AB0FA80F04009704700BFAA
:1041400054010020F0B53C4E85B00446336D002B81
:1041500055D03A4A01AD3A49F36C116094E8070032
:1041600085E807000BB128469847364F3C687B68C6
:104170009C4232D0B342304A32D09DF80C00A3F1B9
:104180000C0113F804EC8C46864535D18C4233D0B3
:1041900091423BD002F13C0E11F8042C82423DD0FA
:1041A000734595E8070083E807000BD00C339C4269
:1041B0007B600BD0B36C0BB12846984700F05EFCD7
:1041C00005B0F0BD1C4B9C427B60F3D11E4B9C4262
:1041D00014BF0C343C3C3C60ECE7DFF86CE0DFE7FC
:1041E0009DF80C0096F8442082421DD106F13C0E49
:1041F000744519D07146CFE702F13C0ED0E7134B5E
:10420000304640F8503F01F035FFA2E791F84420D6
:1042100001F13C0E8242C3D16346C1E7B34208D0EC
:10422000A3F10C0C6346BBE795E8070086E807009E
:10423000BCE7054BB4E700BF3C200020D43300208E
:104240004D85000854010020782000204DFE000814
:10425000094A136851688B420CD010B5074CA34231
:1042600093E8030014BF0833503B136005F03AF89D
:10427000012010BD00207047B00100206C210020FB
:10428000F0B5164C059F2568069CB5F908E0B5F910
:104290000C607045B8BF7046B242A8BF324690422B
:1042A0001ADCB5F90A60B5F90E50B142B8BF314613
:1042B000AB42A8BF2B468B4203DAF0BD25682DB177
:1042C0002C46E5682D6835F00405F7D1069405976E
:1042D000BDE8F04002F05EBEF0BD00BF500100201E
:1042E000B0F90220B1F906309A4214DCB1F902208B
:1042F000B0F906309A420EDCB0F90020B1F9043072
:104300009A4208DCB0F90400B1F900308342CCBF16
:104310000020012070470020704700BF08B5034B04
:10432000014674221868FCF704F808BD500100200B
:1043300000B970472DE9F04FABB00D4616461C9200
:104340001B91FDF7E3FBB0F9043004689D42279010
:10435000119400F058810020FEF7E8FEAD4B119A51
:104360001B689269597C1F900846279D19928242CA
:10437000209118BF5A74B5F90430B5F906201946D2
:104380000793B5F90830104612925B1AB5F90A2066
:104390001C46121A08931646139222462B8A0132A3
:1043A0009B071A92324602F101021D9240F10E81E2
:1043B0001B9B6A695B1A0392002B1C9A1493A2EB55
:1043C000000440F3A48109934FF0010B0023DDF8B2
:1043D00068901093002C40F3A5811D9B4FF0000ABC
:1043E0001794169301231593119E8B4BB0691B569E
:1043F000012B40F386810023ADF8A230ADF8A03048
:1044000002F00CFC431EB069ADF8A43002F04CFC85
:104410000138ADF8A60027985A4600F1140107F0BC
:10442000C7F92190002800F0D08027985A4600F163
:10443000140107F0BDF92390002800F0C180279BEC
:10444000D868002840F07E81169A524500F0B4806A
:104450001A9B10999A00CDF810900AFB0313C4EB35
:104460000A01D946229005EB83030D9115990E930D
:10447000129B01FB02F223441E9218934FEA8B0316
:10448000D3460593179B139A5B45109CCCBF002322
:1044900001235A45B8BF00230B93129B5B440F9333
:1044A000189B5B440A93049B1A46A24275D0149849
:1044B000079BC0EB040A0E9D03440C935A46214609
:1044C0000398FEF79BF9030E06465FD0099B089AF6
:1044D000A3420799CCBF00230123A2420C9A214496
:1044E00002EB0407BDF9A020B8BF00230691BA4231
:1044F0000B9903EA01030DDCBDF9A2200A98824260
:1045000008DCBDF9A420BA4204DBBDF9A620824232
:1045100080F2A6804FF00008002B00F08380BAF1F3
:10452000000F09DB0D9B002B06DB1A465146039852
:10453000FEF764F9030E75D0BDF9A0309F4223DB6E
:10454000BDF9A2300A9883421EDCBDF9A430BB42FB
:104550001ADBBDF9A630834216DB30462F4B229E74
:10456000FF221B6846F07F419847199A2C4B53F85D
:1045700022301B691B689847219B02460A990093C9
:104580003846119B0CF01AFAC5F82080059B4C4464
:10459000CA441D44049BA34290D10E9B1E99159AB8
:1045A0000B4493440E930D9B1946169B11445B4597
:1045B0000D917FF467AF279B239918680BF0C6FE17
:1045C000279B219918680BF0C1FE279D1B991A9B08
:1045D0001C980B44A980421E1D99013BE8800A44A7
:1045E0002B81199B6A811946209A914202D0094B6E
:1045F0001B685A741F98FEF799FD27A8FDF75AFB10
:104600002BB0BDE8F08FB0F906309E427FF4A3AE28
:10461000F3E700BF500100201C23002060010020B0
:1046200020230020BDF9A030069A934286DCBDF914
:10463000A2200F98824281DCBDF9A42006998A420B
:10464000FFF67CAFBDF9A62001468242FFF676AFA9
:10465000239B2A6A06980093119B0CF0AFF96BE735
:10466000DDF89C80B8F90420BA422FDCB8F90810B4
:10467000B9422BDBB8F906E00146864526DCB8F9DD
:104680000A00884222DBD8F81400F8B12593BB1A3F
:10469000194622930A9BCEEB03031A462493FEF796
:1046A000ADF8030E259B11D0B8F90410B8F9082015
:1046B000521A249902FB011222990A4408EB82083B
:1046C000D8F8202042F07F4090460FE0119A106801
:1046D000002833D0D0F80CE039460A9ADEF814806E
:1046E0002293C047229B804640F07F402493199A32
:1046F0009A4B53F82220126952689047249B2290CB
:104700000AE7F368304628A91B6B984783E6002226
:10471000089B4FF0FF390992149ACB46109313442B
:10472000089357E6139900224FF0FF3317920A4679
:1047300016938A4622441593139255E680464FF00D
:104740007F40D3E7FDF7E2F9169B2690534500F032
:1047500099801A9B10999A00CDF810900AFB0313C8
:10476000C4EB0A01D9460D9105EB830312990F930F
:104770004FEA8B032144D346059318911599079B63
:1047800001FB02F22292149A13440C93179B139A82
:104790005B45CCBF002301235A45109AB8BF0023C4
:1047A0000B93129B5B441E93189B5B440A93049BE0
:1047B00093425AD01446149A0F9DC2EB040A5A46EB
:1047C00021460398FEF71AF80646002846D0099BB2
:1047D000089AA3420B99CCBF00230123A242BDF942
:1047E000A020B8BF00231F460C9B03EB0408079BC7
:1047F0000F40424523440CDCBDF9A2200A988242B6
:1048000007DCBDF9A420424503DBBDF9A6208242A6
:1048100057DA00220692002F39D0BAF1000F0E931A
:1048200009DB0D9B002B06DB1A4651460398FDF76A
:10483000E5FF0E9B58B3BDF9A02090450CDBBDF9F8
:10484000A2300A998B4207DCBDF9A430434503DB53
:10485000BDF9A6308B4257DA069B2B62059B4C4470
:10486000CA441D44049B9C42A9D10F9B2299159ACE
:104870000B4493440F930D9B1946169B11449B4583
:104880000D9183D126A8FDF715FA279B94E6BDF973
:10489000A0209A42D1DCBDF9A2101E9FB942CCDC07
:1048A000BDF9A4109942C8DBBDF9A610B942C4DB1A
:1048B0001846239B2A6A39460093119B0CF07EF818
:1048C000B9E7279A0692B2F9042042450DDC069812
:1048D000B0F90810414508DBB0F906E00A998E45A9
:1048E00003DCB0F90A00884218DA119A106800282F
:1048F0008FD0D0F80CE041460E930A9ADEF81430BF
:1049000098470E9B069086E7269A4046119B52F8E0
:104910002620219E00960CF051F89DE72593C2EBCE
:104920000803CEEB010206990E93486919462492BA
:10493000FDF764FF259B0028D7D00698B0F9041036
:10494000B0F90820521A249902FB01120E990A4468
:1049500000EB8202126A06925DE700BF202300206E
:1049600008B5034B74221968FBF7E3FC08BD00BFD0
:104970005001002008B502F01DFC02F02FFDBDE83B
:10498000084003F0D9B800BF70B50A4D01282A6865
:10499000567C01D9304670BD0446FDF7F9FB00286E
:1049A000F8D02B685C74FFF7E5FF034B30461C60C2
:1049B00070BD00BF500100206C33002002F01CBC11
:1049C00002F054BC02F084BC034B02461B68D86959
:1049D00002B1DA61704700BF50010020024BDA6972
:1049E000D8611046704700BFB020002010B418B145
:1049F00011B10346002002E0002101200B46034CC8
:104A0000034A216013605DF8044B7047282300209F
:104A10002C230020014B1860704700BF400100208C
:104A2000024B5A6858601046704700BF6001002072
:104A300002F06EBC084A0B46014670B415681A466F
:104A4000064C074E6D7C308054F82500054DC46837
:104A50002B80236A70BC18475001002020230020BF
:104A60000623002008230020034B1B68B3F92A20EB
:104A700058851046704700BF50010020024B1B684C
:104A800003B11847704700BF78210020024B1A6815
:104A900002B91860FFF7F2BF182100202DE9F0419C
:104AA000804682B01C200D4617461E46FCF7ECFDE2
:104AB000044618B9204602B0BDE8F081194B1A4AE5
:104AC0001A60FDF723F8009035B303465D61684630
:104AD000C3F800801F619E81144DFDF7EBF820465E
:104AE0000AF0B2FFAB683BB9114A2846012340F8EF
:104AF0000C2FAB6001F0BEFA2046FDF707F82A68DC
:104B0000034602A82C6040F8043D9A60FDF7D2F8F5
:104B1000204602B0BDE8F081FDF722FF009B05466C
:104B2000D4E700BF44230020FD4B00089C20002058
:104B300065FE000800B970472DE9F041DFF8B88044
:104B400082B00546D8F80040A04242D06F461CB95A
:104B500019E0FDF7AFF8B4B12046FCF7D7FF0346E4
:104B600038469C680093A542F3D12846FCF7CEFF57
:104B70000346009A01A8996801939160FDF79AF89D
:104B80003846FDF797F82846FCF7C0FFD8F80440F0
:104B90000090A542184B29D094B101AE02E0FDF778
:104BA00089F86CB12046FCF7B1FF034630465C68DB
:104BB0000193A542F3D1009A52685A60FDF77AF842
:104BC0003846FDF777F82846FCF79EFD02B0BDE8B1
:104BD000F08102AEFCF79AFF83686F4646F8040D39
:104BE0003046C8F80030FDF765F8CCE74268384633
:104BF0005A60FDF75FF8E6E79C2000202DE9F043BE
:104C00001B4D85B000266F682C463B462BB3FDF745
:104C1000A7FE80466868FCF779FF034668465A6934
:104C20000093C8EB0202002A1BDCD3F804906168F1
:104C30001A69CDF8048003910292C4F80490D3F865
:104C40000080FDF737F801A8C047B9F1000F04D084
:104C5000636801269F42D9D10026304605B0BDE8E1
:104C6000F0836846FDF726F8304605B0BDE8F083CE
:104C70009C20002010B582B018B90124204602B053
:104C800010BD0C46FCF742FF828902AB224243F87A
:104C9000040D184614BF01240024FDF70BF820462C
:104CA00002B010BD00B9704730B585B00546FCF7BD
:104CB0002DFF0190FDF754FE04AA52F80C1D8B69DC
:104CC000034410464B61FCF7F5FF2846FCF71EFF36
:104CD000124B02905C68A54219D084B12046FCF7C3
:104CE00015FF034603A85C680393A54202D0FCF7B6
:104CF000E1FFF2E7029A52685A60FCF7DBFF02A874
:104D0000FCF7D8FF28460AF09FFE05B030BD426888
:104D100002A85A60FCF7CEFFF4E700BF9C200020F9
:104D200000B9704710B582B00C46FCF7EFFE02AB3D
:104D3000846143F8040D1846FCF7BCFF02B010BDB7
:104D40000A4A002330B5146883B003605CB105469D
:104D50002046FCF7DBFE02AB026943F8040D18465F
:104D60002A60FCF7A7FF204603B030BD9C2000203E
:104D7000002370B50B6082B018B90446204602B01B
:104D800070BD0D46FCF7C2FE846801AE01902CB9DF
:104D90003046FCF78FFF204602B070BD3046FCF76E
:104DA00089FF2046FCF7B2FE036901902B60EFE714
:104DB000F8B5084E05460468336820461B689847D6
:104DC0003368074620465B689847044438462C60A1
:104DD000F8BD00BF34230020F8B569B105460C4684
:104DE0000026064F3B6828465B689847013C05440F
:104DF0000644F7D13046F8BD0E46FBE734230020C9
:104E00002DE9F843089C054689469846A96843461B
:104E10002846561C4F684946B847013C3246F5D1F2
:104E2000BDE8F883F8B5B0F90040B0F904500C1BA8
:104E3000AC422ADA2344B0F90250E710FF21013BCB
:104E4000551B026904F00704DE4302FB057541FAB5
:104E500004F406F00706D7EBE30205F11405E4B20B
:104E600001FA06F600EB050EF6B20FD0435D013AEB
:104E70000EF101071C43002A445503DD3846174450
:104E8000FBF781FA3C7834433C70F8BD435D344015
:104E90001C434455F8BD00BF30B4B0F90240802532
:104EA0000369121BB0F9004003FB02F3091B143322
:104EB00001F0070203EBE1011541435C2B4330BCD9
:104EC000435470470346B0F90620002114301B6993
:104ED00003FB02F2FBF757BA2DE9F04302F10F048E
:104EE000804683B0164624111D460F46640003FB1E
:104EF00004F01430FCF7C8FB814688B1FCF706FECD
:104F000001230146084A02A88E8040F8041DCD8086
:104F10000C61A1F800804F808A608B81FCF7CAFE8B
:104F2000484603B0BDE8F08318120208B0F9063015
:104F300093423BDDB0F90430F0B40D689D4232DAA3
:104F4000EE1007695C1E05F0070307FB0262C6EB63
:104F5000E4061432845C013204FA03F3104413F0C3
:104F6000FF0308D126B3083510F8013B013E25F0B8
:104F70000705002BF6D01C0634D45B000135DBB2EC
:104F80001A06FAD55F062A4604D55B000132DBB269
:104F90005C06FAD402F00703072B0CD0561B0D60F9
:104FA000701CF0BC70470020F0BC704700207047B8
:104FB0003046F0BC7047002EF0DD0478471CFF2C13
:104FC0000DD1831903E017F8014BFF2C07D1BB4229
:104FD00002F10802F7D1E1E764000132E4B22306EE
:104FE000FAD4DBE7FF2BCDD1EA1DD3E730B583B090
:104FF0000546FCF78BFD034602A89C8940F8043D5A
:10500000013C24B29C81FCF755FE14B92846FCF7FC
:105010007BFB03B030BD00BFF0B583B0C0B9224CFC
:1050200005462369CBB1E0681F4E18B91F4B1868BD
:10503000F060D8B123681C4F2BB3002663681A4F69
:10504000C3B115B1A368184C2BB3304603B0F0BD03
:10505000154C01AD2369002BE5D1154A20460123EB
:1050600040F8142F236101F005F8DCE701F090FD12
:10507000F060DFE7F8688000FCF786FB00287860C6
:1050800008BF0126DDE78000FCF77EFBB0FA80F662
:1050900038607609D2E7E0688000FCF775FB0028ED
:1050A000A06008BF0126D0E7B02000200C2300201C
:1050B00075FE0008094B10B51C7838B902464FF050
:1050C0007F401A7001F000FA204610BD0122002036
:1050D0001A7001F0F9F9204610BD00BF1923002015
:1050E000082A10B40EDD102A1CDC00EB4101034637
:1050F00050F8042B23F8022B9942F9D101205DF8D6
:10510000044B7047022A11D0042A00F09A80012A29
:105110003FD00144034650F8042B03F8012B994279
:10512000F9D1EBE700205DF8044B704700F1100265
:1051300052F8103C01294FEA8313DBB226D052F813
:105140000C4C02294FEA041404F0300443EA04032F
:105150001CD052F8084C03294FEA840404F00C04D4
:1051600043EA040312D052F8044C043902F110024D
:1051700004F0030443EA040300F8013BBED052F8F4
:10518000103C01294FEA8313DBB2D8D10370012010
:10519000B5E700F1200252F8203C01294FEAC31381
:1051A000DBB2F3D052F81C4C02294FEA841404F00D
:1051B000400443EA0403E9D052F8184C03294FEAAB
:1051C000441404F0200443EA0403DFD052F8144CE2
:1051D00004294FEA041404F0100443EA0403D5D070
:1051E00052F8104C05294FEAC40404F0080443EABD
:1051F0000403CBD052F80C4C06294FEA840404F087
:10520000040443EA0403C1D052F8084C073902F100
:1052100020024FEA440404F0020443EA0403B5D038
:1052200052F8244C012904F0010443EA040300F875
:10523000013B52F8203C4FEAC313DBB2B2D10370FA
:10524000A5E700F1080454F8083C01294FEA0313CC
:10525000DBB213D054F8042C023904F1080402F034
:105260000F0243EA020300F8013B3FF447AF54F852
:10527000083C01294FEA0313DBB2EBD10370084667
:105280005DF8044B704700BF082A2DE9F0410C4639
:1052900005461F680CDD102A21DC1E69002E00F077
:1052A0009180224629460223B0470120BDE8F081C3
:1052B000013A072A10D8DFE802F004510F770F0FE8
:1052C0000F9A00F1200858F8200CB847012C4FEA3B
:1052D000C010C6B206D12E700120BDE8F0810020BA
:1052E000BDE8F08158F81C0CB847022C46EA801043
:1052F000C6B2F0D058F8180CB847032C46EA401054
:10530000C6B2E8D058F8140CB847042C46EA00108E
:10531000C6B2E0D058F8100CB847052C46EAC000D9
:10532000C6B2D8D058F80C0CB847062C46EA800014
:10533000C6B2D0D058F8080CB847072C46EA40004F
:10534000C6B2C8D058F8040C08F12008B847083C89
:1053500040EA060005F8010BB5D1BDE700F11008E1
:1053600058F8100CB847012C4FEA8010C6B2B2D0E2
:1053700058F80C0CB847022C46EA0010C6B2AAD066
:1053800058F8080CB847032C46EA8000C6B2A2D0F1
:1053900058F8040C08F11008B847043C40EA06002D
:1053A00005F8010BDCD197E700F1080858F8080C64
:1053B000B847012C4FEA0010C6B20CD12E7020461F
:1053C000BDE8F081861E55F8040BB847013C26F86D
:1053D000020FF8D180E758F8040C08F10808B84724
:1053E000023C40EA060005F8010BDFD174E71E69B4
:1053F0003EB12846224601232946B0470120BDE898
:10540000F0816E1E55F8040BB847013C06F8010FF9
:10541000F8D161E7F0B51B4E85B0F36F0BB105B065
:10542000F0BD194B6F4604AD4FF0010E06F180043C
:10543000C6F87CE00FCB07C7190C15F8102D27F81C
:10544000023B397004F8012B15F8012F002AF9D11D
:10545000FDF788FA234610F8012B194603F8012BB3
:105460000278002AF7D14A700CF07AFE10F09EFD07
:10547000064B0748C6F8943005B0BDE8F04000F090
:10548000F9BD00BF741F002000BE0108C1FD000867
:10549000082000202E4B1B682DE9F041044682B005
:1054A0000D4683B1002004F07BFD48B16E463246C4
:1054B0002946204606F0D6F904F004FC0028F6D16F
:1054C00002B0BDE8F081DFF88C806B4610686E4654
:1054D000D8F800705168B7F84CC0B7F850E003C373
:1054E000BDF800706846BDF80410BDF8022067449E
:1054F000BDF8063061447244ADF800707344ADF8F5
:105500000410ADF80220ADF8063004F049FD60B992
:10551000D8F80030598C9A8CDC6C186D091B121A63
:1055200059849A8402B0BDE8F081D8F80030324640
:10553000BDF802002946BDF80070988420465F84BB
:1055400006F090F904F0BEFB0028EED1E0E700BFC2
:1055500030230020500100202DE9F04F0C4687B089
:1055600017461D460190FDF7DBF9DDF804A08146E2
:10557000002C00F0A48004AB2068616803C317F01E
:105580000C0B5FD1BDF91260CDF804A0002D56D0F0
:105590000DF1040809F1FF39504607F00307002414
:1055A0001FFA89F9DFF838A12DE0022F3CD00FB99E
:1055B000BDF91040013833B20FFA84FCDAF800204C
:1055C000204409EB060EA2F822C05946938402AA91
:1055D000ADF80C000198ADF808C0ADF80A30ADF890
:1055E0000EE0FFF757FF59460198FFF7F5FB019BC7
:1055F00018440190FDF794F90644404600F0D8FBAA
:10560000E8B9E5B10198294600F0AAFB8346019864
:105610005946CBEB050500F063FB012FC5D1BDF961
:105620001440241A0134C5E7BDF91040BDF9143007
:105630001B1B1B1A48BF013304EB6304BAE707B016
:10564000BDE8F08F002D3ED02C4600260DF1040859
:1056500000E094B12146019800F082FB03460198D6
:1056600001361946E41AFFF7B7FB019B0344404695
:10567000019300F09DFB0028EBD0BBF1080F09D08F
:10568000BBF10C0F0DD0BBF1040F03D0CDF804A07B
:1056900000267FE706FB09F6BDF916309E1B013692
:1056A00072E706FB09F6BDF91210BDF91620521A71
:1056B000531C9B1B48BF013301EB630664E704A83E
:1056C000FDF712F95BE7BBF1080F05D0BBF10C0F3A
:1056D00004D0BBF1040FB2D10026DDE72E46E2E78D
:1056E000500100202DE9F04F8FB000241F46934653
:1056F00005909348199B006907911C60002800F0F1
:10570000F1808F4BDC681D462CB98E4B1C68EC6019
:10571000002C00F0F1808A4B894D1B680293002B0E
:1057200000F0FD80864B864D5B680393002B00F0F4
:10573000E880A742844B854A4FF00006A8BF274661
:105740001968059B3446487CBA463B4452F82020F1
:105750000C93013B0892099313690D93FDF7A2F88E
:10576000794B04901B68587CFDF716F9784B794A01
:105770000B90904218BF984214BF012300230A9354
:105780005F46189B57F8040B984781464FEA10680C
:10579000B8F1FF0F47D0002C2BD16B4B059A1B683B
:1057A0009519B3F90830AB4259DD5A1B1D46144612
:1057B000069202983444089B079900EB84040193F5
:1057C00028460B46099A0094FEF75AFD049B172BB6
:1057D0007EDD0A9B002B44D00C9B06965D1B2E465B
:1057E0000B9D2068A847013E44F8040BF9D1069EA2
:1057F0000124534BDD69002D38D15FFA88F2B8F1EE
:10580000000F1AD1029B039A53F8263042F8263033
:10581000BAF1010A06F10106BB46B1D1039C20464C
:105820000FB0BDE8F08F199B039A1B6842F8260061
:1058300043F00103199A1360EAE7029949F07F40A7
:10584000454B51F826101B689847199B039A1B6813
:1058500042F8260043F00103199A1360D8E7069432
:10586000A7E7374B0124DD69002DC6D0B600029AA8
:1058700053465846324457461446039A1644214626
:105880003246A847ABF1040208E02368013F04F167
:10589000040406F1040646F8043C0ED052F8043F16
:1058A00013F07F4FF1D021680436043411F07F4F9C
:1058B00008BF46F8043C013FF0D1199B039C1B68CC
:1058C000199A204643F0010313600FB0BDE8F08F32
:1058D0001A46069B20460124C3EB0A010D9B00F0EB
:1058E0003BF986E71D4A0123154840F8142F144A56
:1058F000136100F0BFFB04E701F04AF90446E860D9
:1059000009E7E8688000FBF73FFF03906860002824
:105910007FF40FAF002420460FB0BDE8F08FA00049
:10592000FBF732FF286008B10290FBE66C68002CA0
:10593000F0D1E8688000FBF727FF68606FE700BFE1
:10594000B02000200C230020500100202023002044
:10595000C96E0008D16E00086001002075FE0008C5
:105960002DE9F04F7B4C8FB01D46049323686F1ECA
:105970001C6DDB6C14441A180B440CA8ADF83240B3
:1059800019460793E3190692ADF83020ADF83410AC
:10599000ADF8363004F004FB00285BD007FB07F3BA
:1059A00005FB05FA18460393AB1E0593EB1E0B93FC
:1059B00063190893A31C0A93C0EB0A030993049B81
:1059C000002B43DD1898FEF7FBFF002F45D0089B06
:1059D0003C4609980025DE1B00F0B4FC069A0346FD
:1059E00004991046079A9B4600EB010910460A9A53
:1059F000C1EB0008921B0292C5EB09023146CBEBCA
:105A00000900C344013A00F047FF05EB0800029B80
:105A100031465A4601301E4400F03EFF013C4FF033
:105A2000000504FB04F318D0C3EB0A00019300F057
:105A300089FCA7428346019BDEDD039AD01A00F061
:105A400081FC0546D8E7049B022B49D104F03AF9C2
:105A50000028B4D10FB0BDE8F08F049B012BF5D026
:105A60001998FEF7ADFF059B002BECD01D46069B59
:105A7000049A1946C2F10206134601EB0209079A7D
:105A80001146C3EB0108089B1E4413E0C4EB090256
:105A90003146C3EB090003EB080B013A00F0FCFEB2
:105AA00004EB080031465A460130013600F0F4FE9E
:105AB000013DC8D005FB05FB0024CBEB0A0000F03C
:105AC00041FCAF422346E1DD039BCBEB030000F03A
:105AD00039FC059A0346AA42C8BF00F1FF34D5E756
