:020000040800F2
:10000000B01500209D010008451C0008710700087C
:10001000411C0008830700081529000800000000A3
:1000200000000000000000000000000005200008A3
:100030005D0D000800000000471C000809200008B2
:10004000B7010008B7010008B7010008B7010008B0
:10005000B7010008B7010008B7010008B7010008A0
:10006000B7010008B7010008B7010008B701000890
:10007000B7010008B7010008B7010008B701000880
:10008000B7010008B7010008B7010008B701000870
:10009000B7010008B7010008B7010008B701000860
:1000A000B7010008B7010008B7010008B701000850
:1000B000F9210008B7010008B7010008B7010008DE
:1000C000B7010008B7010008B7010008B701000830
:1000D000B7010008ED260008B7010008B7010008C5
:1000E000B7010008B7010008B7010008B701000810
:1000F000B7010008B7010008B7010008B701000800
:10010000B7010008B7010008B7010008B7010008EF
:10011000B7010008B7010008B7010008B7010008DF
:10012000B7010008B7010008B7010008B7010008CF
:10013000B7010008B7010008B7010008B7010008BF
:10014000B7010008B7010008B7010008B7010008AF
:10015000B7010008B7010008B7010008FD26000834
:10016000B7010008B7010008B7010008B70100088F
:10017000B7010008B7010008B7010008000000003F
:10018000B7010008B7010008DFF80CD000F0DEFA74
:1001900000480047F3420008B01500200648804799
:1001A00006480047FEE7FEE7FEE7FEE7FEE7FEE75C
:1001B000FEE7FEE7FEE7FEE795210008890100085B
:1001C0002DE9F05F0546002092469B46884606468C
:1001D000814640241BE0284641464746224600F01F
:1001E0002FFA53465A46C01A914110D31146184669
:1001F000224600F016F82D1A67EB01084F462246FA
:100200000120002100F00DF817EB00094E41201EDF
:10021000A4F10104DFDC484631462A464346BDE8E6
:10022000F09F202A04DB203A00FA02F100207047F8
:100230009140C2F1200320FA03F319439040704724
:10024000202A06DBCB17203A41FA02F043EAE0739A
:1002500006E041FA02F3D040C2F120029140084387
:100260001946704740EA01039B0703D009E008C91B
:10027000121F08C0042AFAD203E011F8013B00F86B
:10028000013B521EF9D27047D2B201E000F8012BB7
:10029000491EFBD270470022F6E710B513460A4606
:1002A00004461946FFF7F0FF204610BD2DE9FE4F2A
:1002B000804681EA0300C00F0C46009021F0004107
:1002C00023F00045B8EB0200A94105D24046214683
:1002D00090461C460B46024623F00040104347D090
:1002E000270DC7F30A00C3F30A510290401A019088
:1002F00040286BDAC3F3130040F4801B0098924649
:1003000020B10023D2EB030A63EB0B0B0198594693
:10031000C0F140025046FFF784FF06460D465046A6
:100320005946019AFFF78CFF10EB08006141002449
:1003300087EA115284EAE7731A4340D0009A62B305
:10034000019A012A4FEA075215DC001B61EB0201FA
:100350004FF0004202EA0752CDE90042001C41F58D
:10036000801132462B4600F08AF903B0BDE8F08FC9
:1003700040462146F9E7001B61EB0201001C41F5F4
:10038000801300185B412018A2F5001747EB03010A
:1003900040EAD570B6196D4111E06D084FEA360696
:1003A00045EAC0754FEA0752001B61EB0201001CD1
:1003B00041F5801149084FEA300000195141324699
:1003C0002B4603B0BDE8F04F00F04AB90098012277
:1003D00040000023D0EB020263EBE073009821465B
:1003E0004FEAE074B8EB000061EB0401E9E783F049
:1003F00000435BE781F0004158E72DE9FE4F81EAB9
:10040000030404F0004421F0004100944FF0000B7D
:1004100023F0004350EA01045ED052EA03045BD0AB
:10042000C3F30A54C1F30A552C44A4F2F3340194E3
:10043000A0FB0254C1F3130141F48011C3F3130371
:1004400043F4801301FB024400FB034E840A970A25
:1004500044EA815447EA8357A4FB076802958D0A52
:1004600005FB07854FEA932C04FB0C542705029DDE
:100470004FEA065847EA1637B5EB08056EEB070C4E
:10048000870E920E47EA811742EA8312A7FB020108
:10049000B6EB0B0164EB00042B0D43EA0C335E1842
:1004A00044EB1C50DA465146E7FB0201C5F3130446
:1004B0004FEA0B3343EA14534FEA0432019C43EAF8
:1004C0000603A4F10C040294009CCDE900B400F0F2
:1004D000D6F803B0BDE8F08F00200146F9E72DE91A
:1004E000F04D81EA030404F0004B21F0004514466E
:1004F0004FF0000A23F0004150EA050220D054EAF0
:1005000001021DD0C5F30A570246C5F31303C1F318
:100510001300C1F30A5640F4801543F48013A7EB8F
:100520000608101BD64608F2FD3873EB050002D30F
:1005300008F1010801E092185B41B8F1000F03DAFD
:1005400000200146BDE8F08D00204FF480110646E2
:1005500084460EE0171B73EB050705D3121B63EBF4
:10056000050306434CEA010C49084FEA3000921893
:100570005B4150EA0107EDD152EA030012D082EA52
:10058000040083EA0501084305D0101BAB4106D2E5
:100590000122002306E000224FF0004302E06FF04A
:1005A000010253101AEB06004CEB085110EB0A0045
:1005B00041EB0B01BDE8F04D00F052B800F00042F5
:1005C00030F000400AD0C10D01F56071C0F3160093
:1005D00042EA0151C208400711437047002001461A
:1005E0007047000030B5041E71F1000404DB4FF0C9
:1005F0000044404264EB0101141E73F1000405DB6A
:100600001C464FF00043524263EB0403994208BF7B
:10061000904230BD30B50B46014600202022012417
:1006200009E021FA02F59D4205D303FA02F5491BC0
:1006300004FA02F52844151EA2F10102F1DC30BDD6
:10064000202A04DB203A21FA02F00021704721FA27
:1006500002F3D040C2F1200291400843194670478E
:1006600010B5141E73F1000408DA401C41F10001BA
:1006700092185B411A4301D120F0010010BD2DE911
:10068000F04D92469B4611B1B1FA81F202E0B0FA08
:1006900080F220329046FFF7C4FD04460F4640EA40
:1006A0000A0041EA0B0153465A46084313D011464B
:1006B00053EA010019D0C8F140025046FFF7C0FFCD
:1006C00005460E46504659464246FFF7AAFD0843E6
:1006D00005D0012004E020463946BDE8F08D002019
:1006E000054346EAE0762C4337430A986305E40A5B
:1006F000A0EB08000022FD0A44EA47540A3002D564
:1007000000200146E9E7010510196941DDE90845C6
:1007100000196941BDE8F04DA2E7C1F30A52C1F3E7
:10072000130140F2FF3341F480119A4202DA0020B3
:100730000146704740F233439A42A2F2334202DC50
:100740005242FFF77DBFFFF76CBD0000064C074D1E
:1007500006E0E06840F0010394E807009847103491
:10076000AC42F6D3FFF714FDAC440008CC440008BB
:100770001EF0040F0CBFEFF30880EFF3098001F0C7
:10078000A3B800BFFEE70000014609B90B48704757
:10079000012901D10020FAE7022901D10020F6E762
:1007A000032901D10020F2E7042901D10020EEE75E
:1007B000052901D10248EAE70020E8E700100140DE
:1007C0000014014010B504460CB90E4810BD012CB0
:1007D00001D10020FAE7022C01D10020F6E7032C1A
:1007E00001D10020F2E7042C01D10020EEE7052C16
:1007F00001D10548EAE7E72104A000F0B0FA0020A3
:10080000E4E7000018010020440900202E2E5C2E91
:100810002E5C557365725C6273705C7372635C62AC
:1008200073705F756172745F6669666F2E63000036
:1008300000B52DED028B89B09FED240A8DED080ADD
:10084000002006909DED080ADFED210A30EE600AD7
:100850008DED080A012207A908A802F0F8FC079804
:10086000FFF7ACFE41EC180B53EC182B19A002F06B
:1008700053F80698401E0690012205A906A802F02A
:100880005CFD19A0059902F047F84FF40040049070
:10089000012203A904A802F006FDBDF90C1017A05F
:1008A00002F03AF87F200290012201A902A802F08A
:1008B0007FFD9DF9041016A002F02EF819A002F099
:1008C0002BF809B0BDEC028B00BD00000000000059
:1008D000A4709D3F61726D5F6162735F6633322009
:1008E0003D2025660D0A000061726D5F6162735FD5
:1008F000713331203D2025640D0A000061726D5F67
:100900006162735F713135203D2025640D0A00005E
:1009100061726D5F6162735F7137203D2025640DE8
:100920000A0000002A2A2A2A2A2A2A2A2A2A2A2AC5
:100930002A2A2A2A2A2A2A2A2A2A2A2A2A2A2A2A17
:100940002A2A2A2A2A2A2A0D0A00000000B52DED9B
:10095000028B8DB09FED240A8DED0C0A9FED230ACA
:100960008DED0B0A01230AAA0BA90CA802F06AFD5F
:100970000A98FFF723FE41EC180B53EC182B1CA030
:1009800001F0CAFF012009900890012307AA08A9D5
:1009900009A802F0CDFD1BA0079901F0BDFF0220C0
:1009A00006900590012304AA05A906A802F080FD7F
:1009B000BDF9101018A001F0AFFF1E2003907820A1
:1009C0000290012301AA02A903A802F0D8FD9DF913
:1009D000041016A001F0A0FF19A001F09DFF0DB0BA
:1009E000BDEC028B00BD0000CDCCCC3DCDCC4C3E4F
:1009F00061726D5F6164645F663332203D202566FD
:100A00000D0A000061726D5F6164645F71333120B3
:100A10003D2025640D0A000061726D5F6164645FB2
:100A2000713135203D2025640D0A000061726D5F33
:100A30006164645F7137203D2025640D0A00000069
:100A40002A2A2A2A2A2A2A2A2A2A2A2A2A2A2A2A06
:100A50002A2A2A2A2A2A2A2A2A2A2A2A2A2A2A2AF6
:100A60002A2A2A0D0A00000000B52DED028BA5B040
:100A700014222F4920A8FFF7F5FB14222C4914312A
:100A80001BA8FFF7EFFB14222949283115A8FFF70F
:100A9000E9FB142226493C3110A8FFF7E3FB244A66
:100AA000503207CA0BAB07C3214A5C3207CA08ABF6
:100AB00007C320A103C9CDE904011EA103C9CDE9E3
:100AC00002011AAB05221BA920A802F07FFD1A988B
:100AD000FFF774FD41EC180B53EC182B17A001F035
:100AE0001BFF0EAB052210A915A802F00BFE19A0E2
:100AF000DDE90E2301F010FF06AB052208A90BA8C3
:100B000002F0ACFD1AA0DDE9062301F005FF01AB00
:100B1000052202A904A802F051FE1CA0019901F0CF
:100B2000FBFE20A001F0F8FE25B0BDEC028B00BD5D
:100B300054430008010101010100000061726D5F72
:100B4000646F745F70726F645F663332203D20257E
:100B5000660D0A0061726D5F646F745F70726F641E
:100B60005F713331203D20256C6C640D0A0000005C
:100B700061726D5F646F745F70726F645F71313545
:100B8000203D20256C6C640D0A00000061726D5FD1
:100B9000646F745F70726F645F7137203D202564ED
:100BA0000D0A00002A2A2A2A2A2A2A2A2A2A2A2A36
:100BB0002A2A2A2A2A2A2A2A2A2A2A2A2A2A2A2A95
:100BC0002A2A2A2A2A2A2A0D0A00000000B52DED19
:100BD000028BADB014223D4928A8FFF743FB142235
:100BE0003A49143123A8FFF73DFB14223749283135
:100BF00019A8FFF737FB142234493C3114A8FFF73A
:100C000031FB324A503207CA0CAB07C32F4A5C3261
:100C100007CA09AB07C32EA103C9CDE904012EA160
:100C200003C9CDE902019DED280ADFED2D0A30EE62
:100C3000200A8DED280A05231EAA23A928A802F060
:100C4000ECFD9DED1E0A10EE101A0846FFF7B6FCEB
:100C500041EC180B53EC182B22A001F05DFE199803
:100C6000401C199005230FAA14A919A802F075FEBB
:100C700021A00F9901F050FEBDF83000401C00B2D9
:100C8000ADF83000052306AA09A90CA802F0FBFD67
:100C9000BDF918101DA001F03FFE9DF81000401C8A
:100CA00040B28DF8100005236A4602A904A802F09C
:100CB00094FE9DF900101AA001F02EFE1DA001F077
:100CC0002BFE2DB0BDEC028B00BD0000BC43000824
:100CD00070010101010000007F010101010000001D
:100CE000CDCC8C3F61726D5F6D756C745F66333215
:100CF000203D2025660D0A0061726D5F6D756C7474
:100D00005F713331203D2025640D0A0061726D5FF3
:100D10006D756C745F713135203D2025640D0A00BE
:100D200061726D5F6D756C745F7137203D20256455
:100D30000D0A00002A2A2A2A2A2A2A2A2A2A2A2AA4
:100D40002A2A2A2A2A2A2A2A2A2A2A2A2A2A2A2A03
:100D50002A2A2A2A2A2A2A0D0A000000704701B9E5
:100D6000704700BFFEE7000001200149086070479E
:100D700000042742F8B502460B4600250024002057
:100D80000021DCE0012606FA01F51E6806EA0504EA
:100D9000AC4273D15E68022E02D05E68122E13D16F
:100DA000CF0802F1200656F827004E07F70E0F264F
:100DB000BE40B0434F07FF0E1E69BE403043CF0810
:100DC00002F1200646F8270010684F000326BE40B7
:100DD000B0431E7906F003064F00BE40304310605A
:100DE0005E68012E08D05E68022E05D05E68112E66
:100DF00002D05E68122E13D190684F000326BE40C9
:100E0000B0434F00DE68BE4030439060506801261A
:100E10008E40B0431E79C6F300168E4030435060BA
:100E2000D0684F000326BE40B0434F009E68BE40CE
:100E30003043D0605E6806F08056B6F1805F7DD1A9
:100E400000BF00260096404E366846F480463E4F6E
:100E50003E603E46366806F48046009600BF00BFFE
:100E60003A4E8F0856F827008E07370F0F26BE40E0
:100E7000B043374EB24202D1002624E05EE0354E48
:100E8000B24201D101261EE0334EB24201D1022608
:100E900019E0324EB24201D1032614E0304EB24284
:100EA00001D104260FE02F4EB24201D105260AE0FF
:100EB0002D4EB24201D1062605E02C4EB24201D1A0
:100EC000072600E008268F073F0FBE4030431F4E25
:100ED0008F0846F82700264E3068A0435E6806F467
:100EE0008036B6F5803F00D12043214E3060361D5C
:100EF0003068A0435E6806F40036B6F5003F00D1C6
:100F000020431B4E361D3060361D3068A0435E689E
:100F100006F48016B6F5801F00D12043144E083623
:100F20003060361D3068A0435E6806F40016B6F5E2
:100F3000001F00D120430E4E0C363060491C102992
:100F4000FFF420AFF8BD00004438024008380140EB
:100F5000000002400004024000080240000C024071
:100F6000001002400014024000180240001C024021
:100F7000003C01400AB1816101E00B0483617047CC
:100F80000148006870470000200000200348006806
:100F9000034909780844014908607047200000208F
:100FA0002800002010B50D48006840F400700B497F
:100FB00008600846006840F48060086008460068E1
:100FC00040F480700860032000F084F80F2000F0E7
:100FD00007F800F02BF8002010BD0000003C024094
:100FE00070B504460E4800784FF47A71B1FBF0F00A
:100FF0000C490968B1FBF0F5284600F0E1FB08B1A7
:10100000012070BD102C07D200222146501E00F096
:1010100022F80548046001E00120F2E70020F0E733
:10102000280000202C0000202400002070470146EA
:10103000084600280DDB00BF00BF00F01F0301229F
:101040009A4043099B0003F1E023C3F8002100BF4D
:1010500000BF00BF70472DE9F05F80460D46164681
:10106000002701F069FC074639462A46334601F05D
:101070000700C0F1070ABAF1040F02D94FF0040AC1
:1010800001E0C0F1070AD14600F1040ABAF1070FE6
:1010900002D24FF0000A01E0A0F1030AD4464FF05B
:1010A000010A0AFA09FAAAF1010A0AEA020A0AFA84
:1010B0000CFA4FF0010B0BFA0CFBABF1010B0BEA36
:1010C000030B4AEA0B042146404601F03DFCBDE813
:1010D000F09F000000BF00F00702064B19684FF6B2
:1010E000FF031940044B0B4343EA0221014B1960F3
:1010F00000BF70470CED00E00000FA0570B5044633
:101100000D460CB9012070BD5848006800F00F0072
:10111000A84209D255490D700846006800F00F003A
:10112000A84201D00120EEE7207800F0020002285A
:101130001DD1207800F00400042805D14C48006837
:1011400040F4E0504A490860207800F00800082880
:1011500005D14748006840F460404549086044486C
:10116000006820F0F000A168084341490860207839
:1011700000F00100A8B36068012807D13C48083896
:101180000068C0F34040B8B90120BCE7606802289D
:1011900002D06068032807D1354808380068C0F3DA
:1011A000406048B90120AEE7314808380068C0F314
:1011B000400008B90120A6E72D48006820F0030090
:1011C000616808432A490860FFF7DAFE064609E02D
:1011D000FFF7D6FE801B41F28831884202D90320F6
:1011E00091E707E02248006800F00C006168B0EB6E
:1011F000810FEDD11D48006800F00F00A84209D909
:101200001A490D700846006800F00F00A84201D08E
:10121000012078E7207800F00400042807D1144862
:10122000006820F4E050E168084311490860207824
:1012300000F00800082808D10D48006820F460403C
:10124000216940EAC1000A49086000F03DF80849F8
:101250000968C1F30311074A515CC8400649086098
:101260000F20FFF7BDFE00204DE70000003C0240CC
:1012700008380240944400082C000020014800680F
:10128000704700002C00002000B5FFF7F7FF04496D
:101290000968C1F38221034A515CC84000BD0000C7
:1012A00008380240A444000800B5FFF7E7FF0449EE
:1012B0000968C1F34231034A515CC84000BD0000D7
:1012C00008380240A44400082DE9F0470024002516
:1012D0000026A1462548006800F00C0020B1042833
:1012E00005D008283AD105E0DFF8849039E0DFF82E
:1012F000849036E01D48001F006800F03F041B4842
:10130000001F006800F4800078B11A481749091FCF
:101310000968C1F38811A0FB017001462246002331
:101320003846FEF74DFF05460EE011480F49091FEC
:101330000968C1F38811A0FB017001462246002311
:101340003846FEF73DFF05460848001F0068C0F319
:101350000140401C4600B5FBF6F902E0DFF81090B2
:1013600000BF00BF4846BDE8F087000008380240D3
:101370000024F40040787D01F8B504460CB9012042
:10138000F8BD207800F00100002874D0F94800680A
:1013900000F00C0004280DD0F648006800F00C00A6
:1013A000082813D1F348001F006800F48000B0F54E
:1013B000800F0BD1EF4808380068C0F34040002888
:1013C00059D06068002856D10120D9E700BF606875
:1013D000B0F5803F08D1E7480838006840F4803015
:1013E000E449083908601EE06068B0F5A02F0DD10F
:1013F000E0480838006840F48020DE490839086079
:101400000846006840F4803008600CE0D94808388D
:10141000006820F48030D749083908600846006821
:1014200020F48020086000BF606890B1FFF7A8FD3D
:10143000054606E0FFF7A4FD401B642801D9032000
:101440009EE7CC4808380068C0F340400028F1D03F
:1014500011E0FFF795FD054606E0FFF791FD401B03
:10146000642801D903208BE7C24808380068C0F31C
:1014700040400028F1D1207800F0020002285FD11E
:10148000BC48006800F00C0058B1BA48006800F091
:101490000C0008281CD1B748001F006800F4800029
:1014A000B0B9B44808380068C0F3400020B1E06823
:1014B000012801D0012063E7AE480838006820F019
:1014C000F800216940EAC100AA490839086037E0FC
:1014D000E06800B30120A8490860FFF751FD054608
:1014E00006E0FFF74DFD401B022801D9032047E726
:1014F000A04808380068C0F340000028F1D09D489B
:101500000838006820F0F800216940EAC1009949D4
:101510000839086014E0002097490860FFF730FDA3
:10152000054606E0FFF72CFD401B022801D90320E9
:1015300026E7904808380068C0F340000028F1D141
:10154000207800F0080008282CD16069A8B101209B
:101550008A490860FFF714FD054606E0FFF710FD15
:10156000401B022801D903200AE782486C3000683A
:10157000C0F340000028F1D014E000207F4908604B
:10158000FFF7FEFC054606E0FFF7FAFC401B0228C9
:1015900001D90320F4E677486C300068C0F34000BE
:1015A0000028F1D1207800F00400042870D1002632
:1015B00070483830006800F0805090B900BF0020BB
:1015C00000906C483830006840F0805069493831EC
:1015D00008600846006800F08050009000BF00BF1F
:1015E00001266748006800F48070B0B9644800685C
:1015F00040F4807062490860FFF7C2FC054606E0CF
:10160000FFF7BEFC401B022801D90320B8E65C4866
:10161000006800F480700028F2D000BFA0680128A4
:1016200008D154486830006840F0010051496831E1
:1016300008601DE0A06805280DD14E48683000689C
:1016400040F004004B49683108600846006840F0EB
:10165000010008600CE047486830006820F0010095
:101660004449683108600846006820F004000860BA
:1016700000BFA068A8B1FFF783FC054609E0FFF7AB
:101680007FFC401B41F28831884202D9032077E673
:1016900026E0384868300068C0F340000028EED0EB
:1016A00013E0FFF76DFC054608E0FFF769FC401BFF
:1016B00041F28831884201D9032061E62D48683023
:1016C0000068C0F340000028EFD1012E07D129485F
:1016D0003830006820F0805026493831086000BF5B
:1016E000A069B8B32348006800F00C0008285ED059
:1016F000A069022846D100201F490866FFF740FC78
:10170000054606E0FFF73CFC401B022801D90320F8
:1017100036E6184808380068C0F340600028F1D168
:10172000D4E907010843616A40EA81110122A06AF5
:10173000C2EB500041EA00412C20005D41EA00600C
:101740000C49091F086001200B490866FFF718FCC7
:10175000054607E02DE0FFF713FC401B022801D9E6
:1017600003200DE6034808380068C0F340600028F5
:10177000F1D01EE00838024000004742800E474288
:101780000070004000200C490866FFF7F9FB054691
:1017900006E0FFF7F5FB401B022801D90320EFE527
:1017A00006480068C0F340600028F2D101E0012043
:1017B000E6E50020E4E50000000047420038024072
:1017C00070B504462546681EB0F1807F01D3012024
:1017D0000FE0681E4FF0E02148610F214FF0FF300D
:1017E00001F0B2F800204FF0E02188610720086185
:1017F000002070BD10B504460CB9012010BD94F84E
:101800003D0028B9002084F83C00204600F00CF888
:10181000022084F83D00211D206800F047FD0120D2
:1018200084F83D000020E9E770470146022081F876
:101830003D000868806800F00702062A05D00868A5
:10184000006840F001000B681860012081F83D003D
:101850000020704710B504460CB9012010BDA069E6
:1018600000B100E000BF94F8390028B9002084F8E6
:101870003800204600F027F8242084F8390020683A
:10188000C06820F400502168C860204600F07AFD4E
:101890002068006920F49040216808612068406950
:1018A00020F02A00216848612068C06840F4005098
:1018B0002168C8600020E063202084F8390084F8A3
:1018C0003A000020CAE7704710B53249096801F0B4
:1018D000004149B12F49096841F000412D4A11608A
:1018E0008169891C816110BD2A49083909682A4A21
:1018F00011622849091F097882F824102549C91E58
:101900000978916223490C310968D1622149891E05
:10191000098811861F49096851631E49091D096814
:1019200091631C4910310968D1631CA200210BE0AE
:10193000535C254C636000BF234B1B6803F04003DE
:10194000002BF9D04B1CD9B22929F1D300211F4A11
:10195000116000BF1D4909680029FBD00E4A0168CB
:1019600011604168516081689160C168D16001690E
:1019700011614169516181699161C169D161002140
:10198000124A116000BF114909680029FBD000BF4D
:10199000A9E700002CED00E0701100200D0A456E53
:1019A00074657220486172644661756C745F486149
:1019B0006E646C65722C2053797374656D20486178
:1019C0006C742E0D0A000000001001403000002051
:1019D00000B587B000BF002001906848006840F063
:1019E0000100664908600846006800F001000190A7
:1019F00000BF00BF00BF002001900846006840F013
:101A0000010008600846006800F00100019000BF76
:101A100000BF00BF0020019058481430006840F01B
:101A200010005649143108600846006800F01000A4
:101A3000019000BF00BF48150290022003900120D2
:101A40000490032005900720069002A94C48FFF758
:101A500091F94FF4806002900720069002A948484F
:101A6000FFF788F9012200212520FFF7F4FA25204D
:101A7000FFF7DDFA0C2300224FF4E131414802F078
:101A800077FB4048006820F040003E490860084667
:101A9000006820F0200008600846C06840F0200080
:101AA000C86000BF002001903448006840F040004A
:101AB000324908600846006800F04000019000BF0D
:101AC00000BF00BF002001900846006840F00400FD
:101AD00008600846006800F00400019000BF00BFE5
:101AE00000BF0020019025481430006840F020001D
:101AF0002249143108600846006800F02000019077
:101B000000BF00BF4FF480400290022003900120EC
:101B10000490032005900820069002A91A48FFF7B8
:101B200029F9802002900820069002A91748FFF7A3
:101B300021F9062200214720FFF78DFA4720FFF701
:101B400076FA0C2300224FF4E131114802F010FB29
:101B50000C48006820F040000A4908600846006808
:101B600020F0200008600A480C30006840F0200097
:101B700007490C31086007B000BD00003038024052
:101B8000000002400010014000180240000802401E
:101B9000001401402DE9F0410446082C17DA002614
:101BA000FF27002508E0284600F030F810B1701C2F
:101BB000C6B22F46681CC5B2082DF4DB012E04D135
:101BC000A74202D10120BDE8F0810020FBE7082CEC
:101BD0000BD1002000F01AF828B1012000F016F80F
:101BE00008B10120EFE70020EDE7092C0BD101201F
:101BF00000F00CF828B1022000F008F808B101202C
:101C0000E1E70020DFE70020DDE7000001460B48A8
:101C100050F831000069094B03EBC1039B88184061
:101C200008B9002200E00122044800EBC1008079DD
:101C3000904201D1012070470020FCE724440008B5
:101C400000BFFEE77047704710B509A000F064FEC2
:101C50000AA000F061FE17A000F05EFE1EA000F0DA
:101C60005BFE25A000F058FE2BA000F055FE10BD35
:101C7000B2D9D7F7CCE1CABE3A0D0A00312E20C640
:101C8000F4B6AFD2BBB8F6D7D4B6AFD6D8D7B0C8B3
:101C9000EDBCFEB6A8CAB1C6F7A3ACC3BF313030A5
:101CA0006D73B7ADD7AAD2BBB4CE4C4544320D0A42
:101CB00000000000322E20B0B4CFC2B0B4BCFC4B48
:101CC000312C20445350C7F3BEF8B6D4D6B5D4CB8C
:101CD000CBE30D0A00000000332E20B0B4CFC2B019
:101CE000B4BCFC4B322C20445350C7F3BACDD4CBF8
:101CF000CBE30D0A00000000342E20B0B4CFC2B0F8
:101D0000B4BCFC4B332C20445350C7F3B5E3B3CBE6
:101D1000D4CBCBE30D0A0000352E20B0B4CFC2D215
:101D2000A1B8CB4F4BBCFC2C20445350C7F3B3CBD2
:101D3000BBFDD4CBCBE30D0A000000002DE9F04140
:101D400023A000F0E9FD32480468001D0568001D6D
:101D50000668304800683049B0FBF1F739462FA0DB
:101D600000F0DAFD23462A46314638A000F0D4FDC3
:101D70003BA000F0D1FD16A000F0CEFD39A143A09C
:101D800000F0CAFD46A147A000F0C6FD4AA14DA043
:101D900000F0C2FD50A000F0BFFD5BA000F0BCFD54
:101DA0005BA000F0B9FD60A000F0B6FD63A000F0FC
:101DB000B3FD69A000F0B0FD6EA000F0ADFD75A010
:101DC00000F0AAFD02A000F0A7FDBDE8F081000030
:101DD0002A2A2A2A2A2A2A2A2A2A2A2A2A2A2A2A63
:101DE0002A2A2A2A2A2A2A2A2A2A2A2A2A2A2A2A53
:101DF0002A2A2A2A2A2A2A2A2A2A2A2A2A2A2A2A43
:101E00002A2A2A2A2A2A2A2A2A2A2A2A2A0A0D0099
:101E1000107AFF1F2C00002040420F000D0A435093
:101E200055203A2053544D333246343037494754C5
:101E3000362C204C5146503137362C20D6F7C6B5BB
:101E40003A2025644D487A0D0A0000005549442087
:101E50003D20253038582025303858202530385836
:101E60000A0D000056352DBBF9B4A1D4CBCBE3A3AA
:101E7000A8BEF8B6D4D6B5A3ACC7F3BACDA3ACB35D
:101E8000CBB7A8BACDB5E3B3CBA3A9002A20C0FD38
:101E9000B3CCC3FBB3C62020203A2025730D0A0023
:101EA000312E30002A20C0FDB3CCB0E6B1BE2020D8
:101EB000203A2025730D0A00323031392D30392D6A
:101EC000323900002A20B7A2B2BCC8D5C6DA202019
:101ED000203A2025730D0A002A2048414CBFE2B069
:101EE000E6B1BE20203A2056322E342E3020285320
:101EF000544D3332463430372048414C20447269C7
:101F0000766572290D0A00002A200D0A00000000E3
:101F10002A205151202020203A20313239353734BF
:101F200034363330200D0A002A20CDFACDFA202095
:101F30003A2061726D666C790D0A00002A20456DA9
:101F400061696C203A2061726D666C794071712E06
:101F5000636F6D200D0A00002A20CEA2D0C5B9AB58
:101F6000D6DABAC53A2061726D666C795F636F6DBF
:101F7000200D0A002A20CCD4B1A6B5EA3A2061721D
:101F80006D666C792E74616F62616F2E636F6D0D7B
:101F90000A0000002A20436F707972696768742014
:101FA0007777772E61726D666C792E636F6D20B0D6
:101FB000B2B8BBC0B3B5E7D7D30D0A0000B587B040
:101FC00000BF002001900D48006840F002000B495E
:101FD00008600846006800F00200019000BF00BFE2
:101FE000012003900020049003200590042002901B
:101FF00002A90348FEF7BEFE07B000BD303802401C
:10200000000402407047000010B5FEF7BFFF04480F
:10201000007800B910BD00F005F800BFFAE7000035
:102020001C00002010B51B48006840B1194800682A
:10203000401E1849086010B9012017490870002493
:1020400008E004EB4401154A02EB810002F0BCF801
:10205000601CC4B2042CF4DB11480068401C104919
:102060000860084600686FF00041884202D10020F5
:102070000B49086002F068F80A480078401CC0B2BA
:10208000084908700A2803DB0020087002F058F89D
:1020900010BD00001000002014000020E800002007
:1020A000180000201D00002000B593B000BF0020E4
:1020B00001903048006840F080502E490860084682
:1020C000006800F08050019000BF00BF00BF0020FA
:1020D00001902948006840F480402749086008467C
:1020E000006800F48040019000BF00BF0120029012
:1020F00000040390022008904105099119210A91DA
:102100004FF4A8710B9102210C9104210D9102A8AA
:10211000FFF732F918B1712118A0FEF720FE0F2049
:102120000E9002200F90002010904FF4A0501190BC
:102130004FF48050129005210EA8FEF7DFFF18B172
:1021400084210EA0FEF70BFE00BF0020019009487D
:10215000001D006840F480400649091D08600846DB
:10216000006800F48040019000BF00BFFEF7FCFD56
:1021700013B000BD40380240007000402E2E5C2E8F
:102180002E5C557365725C6273705C6273702E6353
:10219000000000001448006840F470001249086014
:1021A0001248006840F001001049086000200F4903
:1021B000083108600D4800680D4908400B49086067
:1021C0000C48091D0860081F006820F48020091FC2
:1021D0000860002005490C3108604FF0006002499A
:1021E000803908607047000088ED00E00038024048
:1021F000FFFFF6FE1030002470B5002500264FF0DA
:102200008044206900F00205E06800F002065DB13C
:1022100056B14FF6FD702061E0684FF6FD71084041
:10222000E0601E4800688047206900F00405E0680F
:1022300000F004065DB156B14FF6FB702061E06816
:102240004FF6FB710840E060154800688047206940
:1022500000F00805E06800F008065DB156B14FF6E1
:10226000F7702061E0684FF6F7710840E0600D48B4
:1022700000688047206900F01005E06800F0100653
:102280005DB156B14FF6EF702061E0684FF6EF7127
:102290000840E06004480068804770BD00000020EE
:1022A00004000020080000200C00002010B5026887
:1022B000294B98420ED0B0F1804F0BD0274B98425B
:1022C00008D0274B984205D0264B984202D0264B87
:1022D000984203D122F070024B681A431E4B984279
:1022E00020D0B0F1804F1DD01C4B98421AD01C4B0F
:1022F000984217D01B4B984214D01B4B984211D0D8
:102300001A4B98420ED01A4B98420BD0194B984258
:1023100008D0194B984205D0184B984202D0184B60
:10232000984203D122F44072CB681A4322F0800312
:102330004C6943EA040202608B68C3620B688362E3
:10234000054B984202D0084B984201D10B690363B8
:102350000123436110BD0000000001400004004063
:1023600000080040000C0040000401400040014013
:10237000004401400048014000180040001C00409B
:10238000002000402DE9F04104462068006920F457
:102390004050E1680843216808612169A06808434A
:1023A00061690843E16940EA01052068C06849F2B3
:1023B0000C61884328432168C8602068406920F484
:1023C0004070A169084321684861E069B0F5004F99
:1023D0007ED1C4492068884203D0C349206888421E
:1023E0005DD1FEF761FF00EBC00101EB00106168F9
:1023F0004900B0FBF1F06421B0FBF1F00601FEF7FB
:1024000053FF00EBC00101EB001061684900B0FB15
:10241000F1F7FEF749FF00EBC00101EB0010616826
:102420004900B0FBF1F06421B0FBF1F000EBC0011A
:1024300001EB0010A7EB8000322101EBC00064210A
:10244000B0FBF1F000F0F80006EB4006FEF72CFFC1
:1024500000EBC00101EB001061684900B0FBF1F72F
:10246000FEF722FF00EBC00101EB0010616849009C
:10247000B0FBF1F06421B0FBF1F000EBC00101EB27
:102480000010A7EB8000322101EBC0006421B0FBFB
:10249000F1F000F0070030442168886020E1FEF789
:1024A000F3FE00EBC00101EB001061684900B0FBD6
:1024B000F1F06421B0FBF1F00601FEF7E5FE00EB60
:1024C000C00101EB001061684900B0FBF1F700E0CA
:1024D00045E0FEF7D9FE00EBC00101EB001061689A
:1024E0004900B0FBF1F06421B0FBF1F000EBC0015A
:1024F00001EB0010A7EB8000322101EBC00064214A
:10250000B0FBF1F000F0F80006EB4006FEF7BCFE71
:1025100000EBC00101EB001061684900B0FBF1F76E
:10252000FEF7B2FE00EBC00101EB0010616849004C
:10253000B0FBF1F06421B0FBF1F000EBC00101EB66
:102540000010A7EB8000322101EBC0006421B0FB3A
:10255000F1F000F00700304421688860C0E0614974
:102560002068884203D06049206888425CD1FEF729
:102570009BFE00EBC00101EB001061688900B0FB1D
:10258000F1F6FEF791FE00EBC00101EB001061686F
:102590008900B0FBF1F06421B0FBF1F000EBC00169
:1025A00001EB0010A6EB8000322101EB001064214A
:1025B000B0FBF1F000F0F006FEF776FE00EBC00194
:1025C00001EB001061688900B0FBF1F06421B0FB01
:1025D000F1F006EB0016FEF767FE00EBC00101EB21
:1025E000001061688900B0FBF1F7FEF75DFE00EBBB
:1025F000C00101EB001061688900B0FBF1F06421BB
:10260000B0FBF1F000EBC00101EB0010A7EB800084
:10261000322101EB00106421B0FBF1F000F00F005B
:102620003044216888605BE0FEF72EFE00EBC001BD
:1026300001EB001061688900B0FBF1F6FEF724FEA3
:1026400000EBC00101EB001061688900B0FBF1F004
:102650006421B0FBF1F000EBC00101EB0010A6EB30
:102660008000322101EB00106421B0FBF1F000F09A
:10267000F006FEF709FE00EBC00101EB00106168F7
:102680008900B0FBF1F06421B0FBF1F006EB00161D
:10269000FEF7FAFD00EBC00101EB00106168890054
:1026A000B0FBF1F7FEF7F0FD00EBC00101EB00100D
:1026B00061688900B0FBF1F06421B0FBF1F000EB40
:1026C000C00101EB0010A7EB8000322101EB0010EC
:1026D0006421B0FBF1F000F00F0030442168886005
:1026E000BDE8F081001001400014014010B502481F
:1026F00000F00CF810BD00001801002010B50248D1
:1027000000F004F810BD0000440900202DE9F0415C
:102710000446206805682068C6682068D0F81480E0
:1027200005F02000D8B120684068C7B2E18AA068EF
:102730004754E08A401C80B2E082E189884201DB94
:102740000020E082608BE189884202DA608B401CC5
:102750006083606A10B13846616A884700BF05F03F
:10276000800028B306F0800010B3A08A60B920680A
:10277000C06820F080002168C8602068C06840F010
:1027800040002168C86013E0012084F82800618AB5
:102790006068405C21684860608A401C80B260824A
:1027A000A189884201DB00206082A08A401EA082AD
:1027B00005F0400018B306F0400000B3A08A68B9E5
:1027C0002068C06820F040002168C860206A08B115
:1027D000206A8047002084F8280010E0618A606841
:1027E000405C21684860608A401C80B26082A18998
:1027F000884201DB00206082A08A401EA082BDE8E2
:10280000F081F8B504460F461646002539E01EE073
:10281000012000F0BFF8A08A0090002000F0BAF874
:10282000A089BDF80010884200DD11E0A089BDF844
:10283000001088420AD12068C06800F0800028B9E2
:102840002068C06840F080002168C86000BFDFE7F2
:1028500000BF785D228A61688854012000F09AF8F0
:10286000208A401C80B22082A189884201DB00209E
:102870002082A08A401CA082002000F08BF8681CF7
:1028800085B2B542C3DB2068C06840F08000216893
:10289000C860F8BD174818490860184848601848CB
:1028A00088604FF480608881C88100200882488257
:1028B000C882088348838882C8610862486281F8B8
:1028C0002800104810490860104848601048886087
:1028D0004FF480608881C881002008824882C882C5
:1028E000088348838882C8610862486281F82800AA
:1028F0007047000000100140180100204401002032
:102900004405002000140140440900207009002003
:10291000700D002000BFFEE70FB4054B10B503A9F2
:10292000044A029800F0FCF810BC5DF814FB0000AB
:10293000E14200083400002002480068C0F3022091
:10294000704700000CED00E010B5002804DB0A071A
:10295000130E054A135406E00A07140E034A00F04A
:102960000F031B1FD45410BD00E400E018ED00E07D
:1029700002E008C8121F08C1002AFAD17047704748
:10298000002001E001C1121F002AFBD1704780F333
:102990001088704780F31088704700002DE9FF5FB2
:1029A00082B00021DDE90430020DDDF840B00343C0
:1029B00018D044F61050A2F2FF3242431514119879
:1029C00001281FD0A5EB0B00401C5FEA000A4FF066
:1029D00000064E4FDFF83891B046504615D5CAF183
:1029E000000413E0119801244AA3012801D16FEAE1
:1029F0000B010298119AC0E90031C0E9024206B009
:102A0000BDE8F09FCBF10000DFE704460021404A1B
:102A1000491842EB0450CDE9001012E0E00707D05E
:102A200032463B4640464946FDF7E7FC804689462C
:102A300032463B4610461946FDF7DFFC06460F4678
:102A40006410002CEAD1DDE90401DDE90023BAF1CC
:102A5000000F06DAFDF7D1FC42464B46FDF7CDFCF0
:102A600005E0FDF73CFD42464B46FDF738FD0446C8
:102A70000E460022284BFDF7B5FD03D84FF0FF307E
:102A8000014607E00022254B20463146FDF70EFCAB
:102A9000FDF743FE102409E0002C0ADB0A22002384
:102AA000FDF78EFB039B30321A55641E50EA01027B
:102AB000F2D1641C039AC4F111031444119A012A3F
:102AC00003D0012208430DD10AE0084304D00020BE
:102AD0004FF0110B119072E7A3EB0B056D1E0DE08B
:102AE0005B4504DD4FF0000205F1010504E003DA67
:102AF0004FF00002A5F10105002AECD002981199CF
:102B0000C0E90231C0E9004579E700000000144047
:102B10000000F03F300000000000F0430000E03F04
:102B20002DE9FF4F95B09B468946064600250FE2EA
:102B3000252877D100242746F84A0121059400E092
:102B4000044316F8013F203B01FA03F01042F7D18D
:102B500030782A2811D06FF02F033078A0F130029E
:102B6000092A16D8059A44F0020402EB820203EB0C
:102B700042021044761C0590EFE759F8042B0592A9
:102B8000002A03DA504244F40054059044F0020451
:102B9000761C30782E2816D116F8010F44F0040464
:102BA0002A280DD06FF02F023078A0F13003092BC6
:102BB00009D807EB870302EB4303C718761CF3E73A
:102BC00059F8047B761C30786C280FD006DC4C2832
:102BD00017D068280DD06A2814D104E0742810D0CA
:102BE0007A280FD10DE044F400140AE044F4801474
:102BF00001E044F440147278824202D104F580145A
:102C0000761C761C307866280BD013DC582877D0D9
:102C100009DC002875D04528F6D04628F4D047288E
:102C20001AD19DE118E0632835D0642879D0652851
:102C300012D195E1702873D008DC6728F1D069289B
:102C40006FD06E280DD06F2806D1B5E073282CD038
:102C5000752875D0782874D05A46179990476D1CFE
:102C600075E1C4F30250022809D003280DD0D9F829
:102C7000001004280DD00D6009F1040967E1D9F8AE
:102C80000010EA17C1E90052F6E7D9F800100D80EC
:102C9000F2E70D70F0E719F8041B8DF80010002022
:102CA0008DF80100EA46012003E059F804AB4FF02B
:102CB000FF3061074FF0000102D40DE008F101017F
:102CC0008846B9420FDA8045F8DB1AF80810002967
:102CD000F4D108E008F1010188468142FADB1AF8D4
:102CE00008100029F6D105985B46A0EB080721469D
:102CF0003846179A00F094FA284400EB080507E0DC
:102D00004DE029E10DE01AF8010B5A46179990475A
:102D1000B8F10108F7D25B4621463846179A13E10D
:102D200042E00A220092C4F302524FF0000A022A43
:102D300008D059F804CB032A4FEAEC710AD00DE011
:102D400029E02AE009F1070121F00702F2E802C1B7
:102D5000914609E00FFA8CFC4FEAEC71042A03D18A
:102D60004FFA8CFC4FEAEC71002907DA0A46002181
:102D7000DCF1000C61EB02012D2202E0220504D5FA
:102D80002B228DF80420012203E0E20701D020224B
:102D9000F7E7904659E00A2102E010220DE01021E9
:102DA0004FF0000A00910BE010224FF0000A44F0AF
:102DB00004040827009203E008224FF0000A009262
:102DC000C4F30252022A05D059F804CB0021032A89
:102DD00008D009E009F1070121F00702F2E802C179
:102DE000914605E01FFA8CFC042A01D10CF0FF0C7F
:102DF0004FF00008220728D5702806D0009B83F0EA
:102E0000100353EA0A0305D00EE040228DF8042097
:102E1000012208E05CEA010206D030228DF804208D
:102E20008DF8050002229046009B83F0080353EAC8
:102E30000A030AD15CEA010201D1620705D53022FA
:102E40008DF804204FF001087F1E582804D034A0CC
:102E500003900EA802900DE036A0F9E753466046B5
:102E6000009AFDF7ADF984460398825C0298401EF3
:102E7000029002705CEA0100F0D1029806A9081ADB
:102E800000F1200A600702D524F4803400E0012715
:102E9000574502DDA7EB0A0000E0002000EB0A0125
:102EA000009005984144401A0590E00306D45B4623
:102EB0002146179A059800F0B3F90544002706E06B
:102EC00001A85A46C05D179990476D1C7F1C474565
:102ED000F6DBE0030CD55B462146179A059800F017
:102EE0009FF9054404E030205A46179990476D1C1D
:102EF0000099481E00900029F5DC08E0029802992C
:102F00005A460078491C0291179990476D1CBAF1F6
:102F10000001AAF1010AF1DC65E1000009280100C5
:102F2000303132333435363738396162636465663F
:102F30000000000030313233343536373839414201
:102F4000434445460000000000F058F90544761C53
:102F5000307800287FF4ECAD19B02846BDE8F08F3A
:102F6000620700D4062709F1070222F0070CFCE8EB
:102F70000223E14603F000485FEA080C02D00FF29A
:102F8000702C0DE05FEA045C02D50FF2682C07E0BC
:102F90005FEAC47C02D00FF2602C01E0AFF2700C4B
:102FA0004FF0FF3823F00043CDF850C065280CD017
:102FB00006DC452809D046281DD047283DD13DE0F4
:102FC000662818D067287ED138E00021112F01DB58
:102FD000112000E0781CCDE9000106A90EA8FFF73A
:102FE000DDFCDDE90F010E9A03910021009207F14B
:102FF000010A04914DE04FF000400097CDE9011027
:1030000006A90EA8FFF7CAFCDDE90F0203920E9B8A
:1030100011990022DDF80CA00093049211B9791CDB
:1030200000EB010AB7EB0A0004D4C0F1FF3007F14E
:10303000010A0490AAEB0700019044E0012F00DA96
:1030400001270021112F01DD112000E03846CDE9D4
:10305000000106A90EA8FFF7A1FCDDE90F010E9AF9
:103060000391002104910092BA4621070CD40399E0
:10307000514500DA8A46BAF1010F05DD009AAAF13E
:103080000101515C302908D0B84202DA10F1040F76
:1030900006DA0121CDE9011015E0AAF10101E9E705
:1030A000002805DC049901440491AAEB000102E028
:1030B000411C514500DD8A460499401A401C01908C
:1030C0004FF000400290200704D40198504501DBE6
:1030D000CDF8048000208DF84F0002980DF14F07C5
:1030E000B0F1004F25D02B200E9002984FF002082F
:1030F00000280CDA404202902D200E9007E00A21B1
:103100000298FDF787FA3031029007F8011DB8F1F7
:103110000001A8F10108F2DC02980028EFD1791E25
:103120000E980870307800F0200040F0450007F855
:10313000020D12A8C01B00F107081498007800B116
:10314000012000EB0A01019801EBE0710598414470
:10315000401A401E0590E00306D45B462146179AAC
:10316000059800F05DF805441498007818B15A46A7
:10317000179990476D1CE00324D55B462146179AAA
:10318000059800F04DF805441CE00498002807DB82
:10319000DDE90301884203DD0098405C179901E0F6
:1031A000179930205A469047049805F10105401CB4
:1031B00004900198401E019004D12E205A46179980
:1031C00090476D1CBAF10001AAF1010ADDDC05E0AF
:1031D00017F8010B5A46179990476D1CB8F100017A
:1031E000A8F10108F4DC5B462146179A0598ABE686
:1031F0002D0000002B000000200000002DE9F04110
:10320000044600251E461746880404D405E03946C6
:103210002020B0476D1C641EF9D52846BDE8F0811A
:103220002DE9F041044600251E469046C80301D50D
:10323000302700E02027880404D505E041463846C1
:10324000B0476D1C641EF9D52846BDE8F08110B565
:1032500013469A0818E0B0EC010AB0EEC00AA1ECDF
:10326000010AB0EC010AB0EEC00AA1EC010AB0EC10
:10327000010AB0EEC00AA1EC010AB0EC010AB0EEFE
:10328000C00AA1EC010A521E002AE4D103F0030295
:1032900006E0B0EC010AB0EEC00AA1EC010A521E31
:1032A000002AF6D110BD30B51446A30830E030F93D
:1032B000022B002A01DD154603E00025D5FA12F5A0
:1032C0002DB221F8025B30F9022B002A01DD1546F0
:1032D00003E00025D5FA12F52DB221F8025B30F992
:1032E000022B002A01DD154603E00025D5FA12F570
:1032F0002DB221F8025B30F9022B002A01DD1546C0
:1033000003E00025D5FA12F52DB221F8025B5B1E11
:10331000002BCCD104F003030CE030F9022B002A7F
:1033200001DD154603E00025D5FA12F52DB221F88E
:10333000025B5B1E002BF0D130BD30B51446A308F4
:1033400024E004C8002A01DD154602E0002582FAC7
:10335000A5F520C104C8002A01DD154602E00025BC
:1033600082FAA5F520C104C8002A01DD154602E055
:10337000002582FAA5F520C104C8002A01DD154602
:1033800002E0002582FAA5F520C15B1E002BD8D1F2
:1033900004F0030309E004C8002A01DD154602E039
:1033A000002582FAA5F520C15B1E002BF3D130BDAC
:1033B00030B51446A30830E010F9012B002A01DDD6
:1033C000154603E0002582FAA5F56DB201F8015B10
:1033D00010F9012B002A01DD154603E0002582FAD1
:1033E000A5F56DB201F8015B10F9012B002A01DD92
:1033F000154603E0002582FAA5F56DB201F8015BE0
:1034000010F9012B002A01DD154603E0002582FAA0
:10341000A5F56DB201F8015B5B1E002BCCD104F069
:1034200003030CE010F9012B002A01DD154603E02F
:10343000002582FAA5F56DB201F8015B5B1E002B39
:10344000F0D130BD30B51C46A30820E0B0EC010A35
:10345000F1EC010A30EE200AA2EC010AB0EC010AFC
:10346000F1EC010A30EE200AA2EC010AB0EC010AEC
:10347000F1EC010A30EE200AA2EC010AB0EC010ADC
:10348000F1EC010A30EE200AA2EC010A5B1E002BCF
:10349000DCD104F0030308E0B0EC010AF1EC010A0E
:1034A00030EE200AA2EC010A5B1E002BF4D130BDE5
:1034B0002DE9F0471C46A30826E000BFD0F80080A5
:1034C000001D454600BF00BFD0F80080001D4646E5
:1034D00000BF00BFD1F80080091D474600BF00BFF4
:1034E000D1F80080091DC44600BF95FA17F8C146FF
:1034F000C2F80090121D00BF96FA1CF8C146C2F82F
:103500000090121D00BF5B1E002BD6D104F00303F8
:103510000AE030F9029B31F902AB99FA1AF80FFA76
:1035200088F822F8028B5B1E002BF2D1BDE8F087F1
:10353000F0B51C46A30814E040C880C987FA86F598
:1035400020C240C880C987FA86F520C240C880C919
:1035500087FA86F520C240C880C987FA86F520C25E
:103560005B1E002BE8D104F0030305E040C880C9CE
:1035700087FA86F520C25B1E002BF7D1F0BDF0B5AF
:103580001C46A5082B460FE000BF0668001D374605
:1035900000BF0E68091D00BF87FA16F52E4616609B
:1035A000121D00BF5D1E2B46002BEDD104F003035E
:1035B00009E010F9016B11F9017BF51905F3070515
:1035C00002F8015B5B1E002BF3D1F0BD30B5144651
:1035D000DFED210AB0EE600AA20828E0B0EC011A83
:1035E000F1EC011AF0EE400A41EE210AB0EE600A59
:1035F000B0EC011AF1EC011AF0EE400A41EE210A9A
:10360000B0EE600AB0EC011AF1EC011AF0EE400ADB
:1036100041EE210AB0EE600AB0EC011AF1EC011A99
:10362000F0EE400A41EE210AB0EE600A521E002A76
:10363000D4D104F003020AE0B0EC011AF1EC011A53
:10364000F0EE400A41EE210AB0EE600A521E002A56
:10365000F2D183ED000A30BD000000002DE9FC5FCF
:1036600016469C4600273A463B46B50834E01C46C1
:10367000CDE90023D0F80090001D00BFCE46D1F860
:103680000090091D00BFC846009FBA46A346CEFB66
:10369000C8AB57465C464FF0000949EA07024BEABF
:1036A00009031C46CDE90023D0F80090001D00BF9F
:1036B000CE46D1F80090091D00BFC846009FBA460B
:1036C000A346CEFBC8AB57465C464FF0000949EA1B
:1036D00007024BEA09036D1E002DC8D106F0030551
:1036E0000AE030F8027B31F8028B17FB08F4A218CD
:1036F00043EBE473A5F10105002DF2D1CCE90023E1
:10370000BDE8FC9F2DE9F04315461E464FF0000C26
:1037100062466346AC0837E050F804CB51F8048B9E
:103720008CFB087CBF0B47EA8C4818EB020243EB8A
:10373000AC3350F804CB51F8048B8CFB087C4FEA77
:10374000973747EA8C47BA1843EBAC3350F804CBB1
:1037500051F8048B8CFB087C4FEA973747EA8C487A
:1037600018EB020243EBAC3350F804CB51F8048B56
:103770008CFB087C4FEA973747EA8C4818EB02022B
:1037800043EBAC33A4F10104002CC5D105F00304D4
:103790000EE050F804CB51F8048B8CFB087CBF0B77
:1037A00047EA8C4818EB020243EBAC33A4F1010466
:1037B000002CEED1C6E90023BDE8F0832DE9FF4FD0
:1037C00016460023B20816E000BF0768001D3C46FD
:1037D00000BF00BF0F68091D3D4600BF2FFA94FCD3
:1037E0002FFA84F82FFA95F92FFA85FA2CFB093372
:1037F00028FB0A33521E002AE6D106F0030206E037
:1038000010F9017B11F901BB17FB0B33521E002A83
:10381000F6D1039F3B60BDE8FF8F30B51C46A3087F
:1038200020E0B0EC010AF1EC010A20EE200AA2EC43
:10383000010AB0EC010AF1EC010A20EE200AA2EC28
:10384000010AB0EC010AF1EC010A20EE200AA2EC18
:10385000010AB0EC010AF1EC010A20EE200AA2EC08
:10386000010A5B1E002BDCD104F0030308E0B0EC7E
:10387000010AF1EC010A20EE200AA2EC010A5B1E0B
:10388000002BF4D130BD2DE9F04F86B098464FEAB9
:1038900098074DE000BFD0F800C0001D634600BF90
:1038A00000BFD1F800C0091D654600BF00BFD0F8B9
:1038B00000C0001D644600BF00BFD1F800C0091D54
:1038C000664600BF13FB35FCCDF80CC013FB05FCAE
:1038D000CDF808C014FB36FCCDF804C014FB06FC80
:1038E000CDF800C0DDF80CC02CF3CF39DDF808C0EE
:1038F0002CF3CF3ADDF804C02CF3CF3BCDF814B055
:10390000DDF800C02CF3CF3ECDF810E0D44669F3CB
:103910001F4CE346C2F800B0121D00BFDDE904CB26
:103920006BF31F4CE346C2F800B0121D00BF7F1EB0
:10393000002FAFD108F003070AE030F802CB31F8CE
:1039400002BB1CFB0BFC2CF3CF3C22F802CB7F1EEE
:10395000002FF2D106B0BDE8F08FF0B51D46AC08DF
:1039600028E080C851F804CB87FB0C76334603F37C
:103970001E035E0040C280C851F804CB87FB0C7662
:10398000334603F31E035E0040C280C851F804CBE7
:1039900087FB0C76334603F31E035E0040C280C8EB
:1039A00051F804CB87FB0C76334603F31E035E000D
:1039B00040C2641E002CD4D105F003040AE080C884
:1039C00051F804CB87FB0C76334603F31E035E00ED
:1039D00040C2641E002CF2D1F0BD2DE9F0471C4618
:1039E000A30839E010F9019B11F901AB19FB0AF5A5
:1039F00025F3C71610F9019B11F901AB19FB0AF564
:103A000025F3C71710F9019B11F901AB19FB0AF552
:103A100025F3C71C10F9019B11F901AB19FB0AF53D
:103A200025F3C71806F0FF094FF47F4A0AEA072A70
:103A300049EA0A094FF47F0A0AEA0C4A49EA0A09E4
:103A40004FF07F4A0AEA086A49EA0A05A946C2F81D
:103A50000090121D00BF5B1E002BC3D104F00303B6
:103A60000AE010F9019B11F901AB19FB0AF525F3E6
:103A7000C71502F8015B5B1E002BF2D1BDE8F08791
:103A80000146042901DB0020704701EB4100084A90
:103A900002EB80004078012808D1002001EB4102B0
:103AA000034B03EB820250700120EDE70020EBE7AF
:103AB000E800002070B50546304800EB05142846A4
:103AC000FEF768F800283ED02079052802DA0520A4
:103AD000207152E020790A2803DA2079401C2071F5
:103AE0004BE0A07A38B90120A07205EB4501491CD2
:103AF000C8B200F015FB208900283EDDE08821894E
:103B000088420DDAE088401C80B2E080218988423A
:103B100033D105EB4501C91CC8B200F001FB2CE014
:103B2000E07A002829DD207B401CC0B22073E17AB6
:103B3000884222DB0020207305EB4501491CC8B2F6
:103B400000F0EEFA19E02079052802DD0520207149
:103B500010E0207918B12079401E20710AE0A07A87
:103B6000012807D10020A07205EB4501891CC8B2CD
:103B700000F0D6FA0020E080207370BD38000020ED
:103B80000B48807A0A4AD27A904201D100207047CD
:103B90000748807A064A115C1046807A401CC0B201
:103BA00090720A2801DB002090720846EFE70000BF
:103BB000D8000020704710B5FDF7F4F9FEF774FA4D
:103BC00000F0DAF800F0FAF900F04CFA00F090F9A1
:103BD00000F002F810BD000000B587B000BF002063
:103BE00001903048006840F480702E490860084613
:103BF000006800F48070019000BF00BF00BF00208B
:103C000001900846006840F002000860084600681D
:103C100000F00200019000BF00BF00BF0020019033
:103C20000846006840F0400008600846006800F060
:103C30004000019000BF00BF0120039000200490CD
:103C4000022005900120029002A91748FDF792F882
:103C50008020029002A91548FDF78CF84FF480707F
:103C6000029002A91248FDF785F84FF40040029037
:103C700002A90F48FDF77EF80122D1030C48FDF799
:103C800079F9002201210848FDF774F90122110297
:103C90000748FDF76FF94FF4E131052000F00FFB05
:103CA00007B000BD3038024000200240000402404E
:103CB00000180240F0B591B0402101A8FCF7EBFAE2
:103CC0004FF0804500BF002000901F48006840F082
:103CD00001001D4908600846006800F001000090DE
:103CE00000BF00BF1948006847081948B7FBF0F04B
:103CF000401E86B2B5F1804F02D01648854202D1EF
:103D00004FF0FF3401E04FF6FF74019502960494E2
:103D100000210591039106918021079101A8FDF7EB
:103D200069FD20B140F21F210BA0FDF718F8022217
:103D300000211C20FDF78FF91C20FDF778F901A860
:103D4000FDF773FD11B0F0BD403802402C0000209B
:103D500040420F00000C00402E2E5C2E2E5C55734E
:103D600065725C6273705C7372635C6273705F74C3
:103D7000696D65722E63000010B500F07DF800F0EB
:103D800001F810BD10B586B000BF00200090384883
:103D9000006840F00400364908600846006800F0FA
:103DA0000400009000BF00BF00BF00200090084644
:103DB000006840F0200008600846006800F020001D
:103DC000009000BF00BF00BF0020009008460068C0
:103DD00040F0800008600846006800F08000009015
:103DE00000BF00BF00BF002000900846006840F000
:103DF000400008600846006800F04000009000BFE6
:103E000000BF00BF002000900846006840F080001E
:103E100008600846006800F08000009000BF00BF06
:103E200000BF002000900846006840F480700860E1
:103E30000846006800F48070009000BF00BF0020BA
:103E4000029003900320049000240CE0094800EB4A
:103E5000C40080880190074951F8340001A9FCF79B
:103E600089FF601CC4B2082CF0DB06B010BD000056
:103E7000303802402444000810B500201A498872E6
:103E8000C8720873002418E06420184901EB04117B
:103E900008810220154901EB041108710020134923
:103EA00001EB04118872114901EB0411C8720F492A
:103EB00001EB04110873601CC4B20A2CE4DB062277
:103EC0006421032000F042F906226421042000F05E
:103ED0003DF906226421052000F038F9062264210C
:103EE000104600F033F910BDD80000203800002043
:103EF00000B587B000BF002001902C48006840F05A
:103F000004002A4908600846006800F00400019097
:103F100000BF00BF00BF002001900846006840F0CD
:103F2000200008600846006800F02000019000BFF3
:103F300000BF00BF002001900846006840F4807078
:103F400008600846006800F48070019000BF00BF60
:103F5000012000F09BF8022000F098F8032000F008
:103F600095F8042000F092F80120039000200490BE
:103F7000022005904002029002A90D48FCF7FAFECB
:103F80008020029002A90B48FCF7F4FE4FF48070E9
:103F9000029002A90748FCF7EDFE0420029002A956
:103FA0000548FCF7E7FE07B000BD000030380240CE
:103FB00000200240001402400008024070B50024B6
:103FC00016E0002004EB4401214A02EB8101486025
:103FD00004EB440102EB8101886004EB440102EB35
:103FE0008101487004EB440102F82100601CC4B256
:103FF000042CE6DB174800684FF47A72B0FBF2F14C
:10400000481EB0F1807F00D31BE0481E4FF0E02235
:10401000506150170F22002804DB13071D0E0E4BB2
:104020001D5406E013071E0E0C4B00F00F052D1F4C
:104030005E5500BF00204FF0E02290610720106124
:1040400000BF012006490870FFF734FE70BD000074
:10405000E80000202C00002000E400E018ED00E063
:104060001C00002010B5FEF715FCFDF7B1FCFDF7B4
:10407000A5FF10BD10B5002404E02046FFF71AFD8F
:10408000601CC4B20A2CF8DB10BD0000411EC8B28F
:1040900020B94FF480610A4A916110E0012803D1F0
:1040A0008021084A11600AE0022803D1C101054AB3
:1040B000116004E0032802D10421034A1160704713
:1040C000002002401814024018080240012806D1BE
:1040D0001049496981F480610E4A516119E0022852
:1040E00006D10D49096881F080010B4A116010E08A
:1040F000032806D10849096881F48071064A1160D5
:1041000007E0042805D10549096881F00401034A44
:10411000116070470020024014140240140802404D
:104120000649C97A054A50541146C97A491CC9B290
:10413000D1720A2901DB0021D1727047D80000201A
:1041400010B5FFF797FF10BD7047000010B5074B83
:1041500003EB00131981054B03EB0013DA72002304
:10416000024C04EB0014237310BD00003800002043
:10417000F0B591B004460D4617461E4601940295CF
:10418000002103910491059707910696089101A8D3
:10419000FDF760FB20B140F2BA2102A0FCF7DFFD81
:1041A00011B0F0BD2E2E5C2E2E5C557365725C62D4
:1041B00073705C7372635C6273705F756172745F5D
:1041C0006669666F2E630000416851B14168491EFF
:1041D000416031B9012141700178012901D1816823
:1041E0004160704770B504460D46042C06DB124A48
:1041F00012A11AA0FEF790FB00BFFEE70120FEF718
:10420000C6FB04EB44001D4901EB8000456004EB54
:10421000440001EB80008560002004EB4401174A54
:1042200002EB81014870012004EB440102F82100F7
:104230000020FEF7ACFB70BD734400082E2E5C2EF0
:104240002E5C557365725C6273705C7372635C6242
:1042500073705F74696D65722E6300004572726FD2
:10426000723A2066696C652025732C2066756E6332
:1042700074696F6E20257328290D0A00E80000205C
:104280002DE9F04105460E4617462846FCF79AFAF6
:1042900004460CB9BDE8F081E06908B1E0698047E7
:1042A0003A4631462046FEF7ACFA00BFF2E713B5B6
:1042B0000446012201A92046FFF7E2FF1CBD70B5AC
:1042C00005460E462846FCF75FFA044604B970BD61
:1042D0000C23002231462046FFF74AFF00BFF6E7D5
:1042E00070B504460D46E1B20020FFF7E0FF20461E
:1042F00070BDFFF760FCFDF721FDFDF7A5FC642113
:104300000020FFF76FFF23E0FFF754FC0020FFF7CA
:10431000B7FB10B10220FFF7D9FEFFF731FC0446CE
:10432000B4B1012C06D0042C07D0072C08D0162CD1
:104330000CD108E0FCF77CFA09E0FCF707FB06E08B
:10434000FCF792FB03E0FCF741FC00E000BF00BF7C
:10435000DAE700000000803F0000803F0000803F5F
:104360000000803F0000803F0000803F0000803F51
:104370000000803F0000803F0000803FF0FFFF7F93
:104380000100000001000000010000000100000029
:104390000100000001000000010000000100000019
:1043A0000100000001000100010001000100000007
:1043B0000100010001000100010000000000803F39
:1043C0000000803F0000803F0000803F0000803FF1
:1043D0000000803F0000803F0000803F0000803FE1
:1043E0000000803F0100000001000000010000000B
:1043F00001000000010000000100000001000000B9
:1044000001000000010000000100000001000100A7
:104410000100010001000000010001000100010095
:1044200001000000002002400001000000080240DE
:10443000002000000020024000080000001C024094
:1044400004000000001C02400800000000140240AC
:10445000000800000018024080000000001C02401C
:10446000008000006273705F537461727454696DF0
:104470006572006273705F53746172744175746F1A
:1044800054696D6572006273705F53746F70546924
:104490006D657200000000000000000001020304CE
:1044A000060708090000000001020304CC440008CC
:1044B00000000020380000007029000804450008B2
:1044C0003800002078150000802900080000000056
:1044D00000000000000000000000000000000000DC
:1044E00000000000000000000000000000000000CC
:1044F00010000000010000000024F4000000000093
:0445000000000000B7
:040000050800018965
:00000001FF
