:020000040800F2
:10000000B0240024B10200086B520008010400086B
:1000100067520008130400083D7B00080000000040
:10002000000000000000000000000000D15C00089B
:10003000C1050008000000006D520008D55C0008F2
:10004000CB020008CB020008CB020008CB0200085C
:10005000CB020008CB020008CB020008CB0200084C
:10006000CB020008CB020008CB020008CB0200083C
:10007000CB020008CB020008CB020008CB0200082C
:10008000CB020008CB020008CB020008CB0200081C
:10009000CB020008CB020008CB020008CB0200080C
:1000A000CB020008CB020008CB020008CB020008FC
:1000B00009600008CB020008CB020008CB02000850
:1000C000CB020008CB020008CB020008CB020008DC
:1000D000CB0200087D780008CB0200088D7800086C
:1000E000CB020008CB02000800000000CB02000891
:1000F000CB020008CB020008CB020008CB020008AC
:10010000CB020008CB020008CB020008CB0200089B
:10011000CB020008CB020008CB020008CB0200088B
:10012000CB020008CB020008CB020008CB0200087B
:10013000CB020008CB020008CB020008CB0200086B
:1001400000000000000000000000000000000000AF
:10015000CB020008CB020008CB020008CB0200084B
:10016000CB020008CB020008CB020008CB0200083B
:10017000CB020008CB020008CB0200080000000000
:10018000CB020008CB020008CB020008CB0200081B
:10019000CB020008CB020008CB020008CB0200080B
:1001A000714F0008CB020008CB020008CB02000808
:1001B000CB020008CB020008CB020008CB020008EB
:1001C000CB020008CB020008CB020008CB020008DB
:1001D000CB020008CB020008CB020008CB020008CB
:1001E000CB020008CB020008CB020008CB020008BB
:1001F000CB020008CB020008CB020008CB020008AB
:10020000CB020008CB020008CB020008CB0200089A
:10021000CB020008CB020008CB020008CB0200088A
:10022000CB020008CB020008CB020008000000004F
:10023000CB020008CB02000800000000CB0200083F
:10024000CB020008CB020008CB020008CB0200085A
:10025000CB020008CB020008CB020008CB0200084A
:10026000CB020008CB020008CB020008CB0200083A
:10027000CB020008CB020008CB02000800000000FF
:10028000CB020008CB020008CB02000800000000EF
:1002900000000000CB020008DFF810D000F09EF84C
:1002A000004800476D960008AFF30080B02400249A
:1002B0000648804706480047FEE7FEE7FEE7FEE700
:1002C000FEE7FEE7FEE7FEE7FEE7FEE7055F000864
:1002D000990200082DE9F05F0546002092469B46F2
:1002E00088460646814640241BE02846414647464C
:1002F000224600F063F853465A46C01A914110D383
:1003000011461846224600F04AF82D1A67EB0108FC
:100310004F4622460120002100F041F817EB00096A
:100320004E41201EA4F10104DFDC484631462A4636
:100330004346BDE8F09F40EA01039B0703D009E074
:1003400008C9121F08C0042AFAD203E011F8013BC1
:1003500000F8013B521EF9D27047D2B201E000F81A
:10036000012B491EFBD270470022F6E710B5134659
:100370000A4604461946FFF7F0FF204610BD421C0E
:1003800010F8011B0029FBD1801A7047034611F8B1
:10039000012B00F8012B002AF9D118467047202ABA
:1003A00004DB203A00FA02F1002070479140C2F1CC
:1003B000200320FA03F3194390407047202A04DBFE
:1003C000203A21FA02F00021704721FA02F3D040CE
:1003D000C2F120029140084319467047064C074D70
:1003E00006E0E06840F0010394E807009847103405
:1003F000AC42F6D3FFF754FFF4B8040814B904086C
:100400001EF0040F0CBFEFF30880EFF3098003F038
:1004100023BE00BFFEE7000010B500BF2A480068F9
:1004200000F4003000B115E0BFF34F8FBFF36F8FC2
:10043000002026490860BFF34F8FBFF36F8F22481B
:10044000006840F4003020490860BFF34F8FBFF3CD
:100450006F8F00BF00BF1C4B1B6803F4803303B1D8
:1004600030E00023184C70342360BFF34F8F231FFC
:100470001868C0F34E3100BFC0F3C90200BF43F695
:10048000E07303EA41134FF0404404EA82742343CB
:100490000E4C1034236000BF00BF131EA2F10102F6
:1004A000EDD10B1EA1F10101E6D1BFF34F8F064B39
:1004B0001B6843F48033044C2360BFF34F8FBFF3BA
:1004C0006F8F00BF10BD000014ED00E050EF00E0A2
:1004D00070B50446049D581A2E1B7043161B90FBE2
:1004E000F6F0084470BD000010B504460CB912487F
:1004F00010BD012C01D10020FAE7022C01D10F48D8
:10050000F6E7032C01D10020F2E7042C01D10020F2
:10051000EEE7052C01D10020EAE7062C01D10020EE
:10052000E6E7072C01D10020E2E74FF48E7104A02A
:1005300000F078F90020DBE7CC020024F80A002460
:100540002E2E5C2E2E5C557365725C6273705C732C
:1005500072635C6273705F756172745F6669666F07
:100560002E6300002DE9F04707460C4615461E464F
:10057000DDE90889384604F0BEFC82460E480F4982
:1005800008600846C0F83890C463C0F84080C0F8DE
:1005900034A0304665F31F4048640846006840F0C8
:1005A0000100086000BF0548006800F00100002855
:1005B000F9D1BDE8F08700000002030000100052EE
:1005C000704700002DE9F04190B01F2004F0C2FAFE
:1005D00001208DF838004FF6FF70ADF83A0049F66B
:1005E0009910ADF83C000020ADF83E00042412251F
:1005F0000EAB3DA22146052004F0B2FA2C440EAB0E
:1006000043A22146052004F0ABFA052010FB05406B
:1006100084B20EAB4BA221461E2004F0A1FA601951
:1006200084B20EAB4AA22146322004F099FA601936
:1006300084B20EAB4CA22146322004F091FA60192C
:1006400084B20EAB4EA22146322004F089FA601922
:1006500084B20EAB51A22146322004F081FA02206E
:1006600010FB054084B251480078012804D150A104
:1006700001A8FFF78BFE1DE04C480078022804D14A
:1006800050A101A8FFF782FE14E04848007820B985
:1006900051A101A8FFF77AFE0CE044480078032836
:1006A00004D152A101A8FFF771FE03E055A101A8F2
:1006B000FFF76CFE04F0AEFB074604F009FC804631
:1006C00001A8FFF75CFE01A946183B46424652A12D
:1006D000304607F0F9FA0EAB01AA2146052004F0D6
:1006E0003FFA10B0BDE8F081B0B2B8BBC0B353540C
:1006F0004D33322D5637BFAAB7A2B0E52020777709
:10070000772E61726D666C792E636F6D000000004C
:10071000B5E7D7E8C6C1BACDB5E7C8DDC6C1CAB529
:10072000D1E9A3ACB5E7C8DDC6C1CEDED0E8D0A321
:10073000D7BCA3ACB5E7D7E8D0E8D2AAD0A3D7BC42
:1007400000000000B2D9D7F7CCE1CABE3A000000E1
:10075000D2A1B8CBC9CFBCFC203D20D4F6BCD3B1CC
:10076000B3B9E2C1C1B6C800D2A1B8CBCFC2BCFCFC
:10077000203D20BDB5B5CDB1B3B9E2C1C1B6C80009
:10078000D2A1B8CBD7F3BCFC203D20B5E7D7E8C653
:10079000C1B4A5C3FED0A3D7BC000000D2A1B8CB82
:1007A0004F4BBCFC203D20C7E5C6C100B000002473
:1007B00053544D333248373433202B20475438318B
:1007C0003100000053544D333248373433202B204E
:1007D000475439313100000053544D3332483734D7
:1007E00033202B20465435583036000053544D33B7
:1007F0003248373433202B2053544D504538313153
:100800000000000053544D333248373433202B203E
:100810004E6F546F75636800202020256420782077
:100820002564000001B9704700BFFEE770B50446BB
:10083000B3F5804F13D1D1E9000540EA05108D686A
:1008400040EA05208D6928438D8940EA054054F827
:100850002250064E3540284344F8220003E06FF052
:10086000704044F82200002070BD00000000F0CF6E
:1008700070B50246086852F8200020F001000E68AA
:1008800042F826008868082801D1402500E00025AC
:10089000486828438E683043CE6830430E69304341
:1008A0004E6930438E693043CE6930430E6A30431F
:1008B0004E6A30438E6A3043CE6A40EA0603086BC4
:1008C0000343486B0343886B0343114C44F4801487
:1008D00044F4001444F4E024086852F82000A043D3
:1008E00018430E6842F82600086BB0F5801F07D148
:1008F000086828B1106820F480100E6B3043106037
:10090000086818B110684E6B30431060002070BD4D
:100910007FFB080030B50346D1E9000540EA051029
:100920008D6840EA05208D8940EA0545088A401E09
:1009300045EA0055087D801E45EA00608D69284320
:10094000551C53F8255005F040452843551C43F8E5
:100950002500186800F48010B0F5801F0BD158688E
:1009600020F47004088A401E44EA0054586820F4B9
:10097000700020435860002030BD02460868B0B9BE
:10098000D1E901031843CB6818430B6918434B693D
:1009900018438B691843CB6918430B6A18434B6A99
:1009A000184313686FF30E031843106019E0D1E980
:1009B000070318434B6A1843136823F4F84318439A
:1009C0001060D1E901031843CB6818430B69184341
:1009D0004B6918438B69184353686FF30E03184330
:1009E0005060002070470246506943F6FE739843FA
:1009F00040EA410050610020704710B50346D1E93C
:100A0000000420438C68641E40EA4410CC6840EA2D
:100A100044201C6920431861002010BD30B50346F6
:100A2000FAB90868401E4C68641E40EA04148868DD
:100A3000401E44EA0024C868401E44EA0034088A84
:100A4000401E44EA0044888A401E44EA0054087E5E
:100A5000401E44EA00609C6804F0704420439860A3
:100A600022E0C868401E0403888A401E44EA005001
:100A70009C680E4D2C40204398600868401E4C68CE
:100A8000641E40EA04148868401E44EA0024088A70
:100A9000401E44EA0044087E401E44EA0060DC68D0
:100AA00004F070442043D860002030BDFF0F0FFFDA
:100AB00000200249887001204870704724130024E8
:100AC00008B501226946A32000F00AF89DF800004D
:100AD000024908709DF8000008BD0000241300249E
:100AE0002DE9F04106460D46174608F071FD7020CD
:100AF00008F044FD08F09AFDF0B208F03FFD08F060
:100B000095FD08F065FD712008F038FD08F08EFDB8
:100B1000002406E008F010FD285508F0B9FC601C20
:100B2000C4B2781EA042F5DC08F006FD285508F096
:100B3000EDFC08F065FDBDE8F081000070B58AB0FD
:100B40006A48407808B90AB070BD684880780A28B9
:100B500000DAF8E700206549887005F04FFFB8B962
:100B600063480078012812D162480078401CC0B266
:100B70006049087002280ADD002008705C4908708E
:100B80005D4802885D480188032005F059FFDAE7D7
:100B9000002058490870212201A9FFF7A1FF9DF804
:100BA000060000F007005149C8700846C0780528C3
:100BB00001DD0520C87000204C49C87000244BE0BE
:100BC00004EB44014900491D01AA515C08110F289A
:100BD00000DB43E04549C978491C444AD17004EB25
:100BE00044014900091D01AA525C04EB440149007B
:100BF000C91C01AB595C01F00F0142EA01213B4ADB
:100C0000121D22F8141004EB44014900891D01AAA9
:100C1000525C04EB44014900491D595C01F00F018D
:100C200042EA0121314A0E3222F8141004EB440149
:100C30004900C91C01AA515C8A112C491D310A5571
:100C400004EB44014900491D01AA515C0A112749DE
:100C500018310A55601CC4B2052CB1DB00BF234813
:100C6000007855280DD12148C5898688B5F5F07FD3
:100C700001DB40F2DF15B6F5887F21DB40F20F166D
:100C80001EE01A4800780A280DD118488588C689C0
:100C9000B5F5487F01DB40F21F35B6F5F07F0FDB7D
:100CA00040F2DF160CE011488588C689B5F5487F0B
:100CB00001DB40F21F35B6F5F07F01DB40F2DF16B5
:100CC0000B48007838B90120094908703246294696
:100CD00005F0B6FE04E032462946022005F0B0FEDB
:100CE000064805800448068000BF2CE72413002432
:100CF0003000002436000024340000243200002498
:100D000002488078401C01498870704724130024F1
:100D100008B50020124948706A22124940F2A260C8
:100D200000F042F90E488078BA2809D10EA0006878
:100D300000900422694640F2DD6000F035F909E0D8
:100D40000AA0006800900422694640F2DD6000F0CD
:100D50002BF900BF0020024948700120087008BD2F
:100D60004613002438000024E00120035802000448
:100D70002DE9F04105460E46174608F029FC1749B3
:100D8000887808F0FBFB08F051FC281208F0F6FB0D
:100D900008F04CFCE8B208F0F1FB08F047FC08F062
:100DA00017FC0E498978491CC8B208F0E7FB08F027
:100DB0003DFC002406E008F0BFFB305508F068FB5E
:100DC000601CC4B2781EA042F5DC08F0B5FB3055BB
:100DD00008F09CFB08F014FCBDE8F08146130024E9
:100DE00030B58DB06848007808B90DB030BD6648A0
:100DF0004078142800DAF8E700206349487001229F
:100E000001A940F22170FFF7B3FF9DF8040000F044
:100E1000010070B95D480078012809D100205B49C4
:100E200008705B4802885B480188032005F008FED3
:100E3000DBE721220DF1050140F22270FFF798FF58
:100E40009DF804005049C8709DF8050008719DF890
:100E500007009DF8061000EB01204B49C8809DF863
:100E600009009DF8081000EB0120474908819DF812
:100E70000A0088729DF80C009DF80B1000EB012011
:100E8000414988819DF80E009DF80D1000EB01206E
:100E90003D49C8819DF80F0008749DF811009DF828
:100EA000101000EB0120384948829DF813009DF88E
:100EB000121000EB0120344988829DF814008875D7
:100EC0009DF81C009DF8151000EB01202E490883A9
:100ED0009DF81E009DF81D1000EB01202A49488353
:100EE0009DF81F0008779DF821009DF8201000EB69
:100EF00001202549C8839DF823009DF8221000EBAE
:100F00000120214908849DF8240081F82200084628
:100F10008078BA2811D108460589C08840F2DF11CF
:100F2000081A84B2B5F5487F01DD4FF44875B4F571
:100F3000F07F13DD4FF4F07410E013480589C0888A
:100F400040F25721081A84B2B5F5806F01DD4FF4E5
:100F50008065B4F5167F01DD4FF416740B480078F8
:100F600038B90120094908702246294605F068FD74
:100F700004E022462946022005F062FD054805806E
:100F80000348048000BF30E746130024A200002479
:100F9000A6000024A400002402484078401C014917
:100FA00048707047461300242DE9F04104460E4670
:100FB000174608F00DFB0F49887808F0DFFA08F0B3
:100FC00035FB201208F0DAFA08F030FBE0B208F046
:100FD000D5FA08F02BFB002506E0705D08F0CEFA8C
:100FE00008F024FB681CC5B2BD42F6DB08F008FB24
:100FF000BDE8F0814613002410B500200549487073
:10100000322007F023F900200249487001200870BF
:1010100010BD00006A13002408B50422694648F296
:10102000401000F027F89DF8030000069DF802101C
:1010300000EB01409DF8011000EB01209DF800102D
:10104000084408BD38B504460D460422694648F2F6
:10105000480000F00FF89DF800109DF8010001EB2A
:10106000002020809DF802109DF8030001EB002075
:10107000288038BD2DE9F04105460E46174608F098
:10108000A7FA1A49887808F079FA08F0CFFA2812F6
:1010900008F074FA08F0CAFAE8B208F06FFA08F03B
:1010A000C5FA08F095FA11498978491CC8B208F0C8
:1010B00065FA08F0BBFA002401E0601CC4B21E2CE3
:1010C000FBDB002406E008F037FA305508F0E0F9C1
:1010D000601CC4B2781EA042F5DC08F02DFA305531
:1010E00008F014FA08F08CFABDE8F0816A130024C5
:1010F00030B58DB0002000903C48007808B90DB0A4
:1011000030BD3A4840780A2800DAF8E7002037492D
:10111000487005F073FCB8B935480078012812D141
:1011200034480078401CC0B23249087001280ADDFA
:10113000002008702E4908702F4802882F48018827
:10114000032005F07DFCDAE700202A490870082218
:1011500001A948F24E10FFF78DFF0122694648F2BF
:101160004E1000F055F89DF804002049C8709DF815
:10117000050008719DF806009DF8071000EB01209E
:101180001A49C8809DF808009DF8091000EB01205D
:10119000164908819DF80A009DF80B1000EB01200C
:1011A000124948810846C5880489B5F5487F01DBA6
:1011B00040F21F35B4F5F07F01DB40F2DF140C483C
:1011C000007838B901200A4908702246294605F0FE
:1011D00037FC04E022462946022005F031FC07488E
:1011E00005800548048000BF89E700006A130024D9
:1011F000A8000024AE000024AC000024AA000024B3
:1012000002484078401C0149487070476A13002426
:101210002DE9F04104460E46174608F0D9F90F496A
:10122000887808F0ABF908F001FA201208F0A6F966
:1012300008F0FCF9E0B208F0A1F908F0F7F9002590
:1012400006E0705D08F09AF908F0F0F9681CC5B284
:10125000BD42F6DB08F0D4F9BDE8F0816A13002442
:1012600010B504460CB9012010BD94F8610028B9EE
:10127000002084F86000204600F036F8022084F850
:101280006100E1696068084321680968154A1140F6
:10129000084321680860A169A06808432168496B78
:1012A00040F2071291430843216848632068006CAC
:1012B0006FF30F00E168084321680864208A010584
:1012C000A08A41EA40502168496B21F4401108434B
:1012D0002168486300206066012084F861000020D6
:1012E000C2E70000BFFFF8FF7047000070B504467A
:1012F00000F02AF906462546681C10B1044800781B
:10130000054400BF00F020F9801BA842FAD370BD4D
:10131000C80000240348006840F00100014908604B
:101320007047000020040058F8B502460023734DB2
:10133000DEE001279F400E6806EA0704002C71D00A
:101340004E68012E08D04E68022E05D04E68112E30
:1013500002D04E68122E13D190685F000326BE4063
:10136000B0435F00CE68BE403043906050680126B5
:101370009E40B0430E79C6F300169E403043506045
:10138000D0685F000326BE40B0435F008E68BE4059
:101390003043D0604E68022E02D04E68122E13D118
:1013A000DF0802F1200656F827005E07F70E0F2629
:1013B000BE40B0435F07FF0E0E69BE403043DF08FA
:1013C00002F1200646F8270010685F000326BE40A1
:1013D000B0430E7906F003065F00BE403043106054
:1013E0004E6806F08056B6F1805F1BD100BF444EB8
:1013F000366846F00206424F3E603E46366806F0CA
:101400000206009600BF00BF3E4E9F0856F8270018
:101410009E07370F0F26BE40B0433B4EB24202D16B
:1014200000262EE063E0394EB24201D1012628E0C9
:10143000374EB24201D1022623E0364EB24201D1EC
:1014400003261EE0344EB24201D1042619E0334E89
:10145000B24201D1052614E0314EB24201D1062636
:101460000FE0304EB24201D107260AE02E4EB242C2
:1014700001D1082605E02D4EB24201D1092600E037
:101480000A269F073F0FBE4030431E4E9F0846F876
:1014900027002868A0434E6806F48036B6F5803FE2
:1014A00000D1204328606868A0434E6806F40036E7
:1014B000B6F5003F00D1204368604FF0B046306879
:1014C000A0434E6806F48016B6F5801F00D1204375
:1014D0004FF0B04630607068A0434E6806F40016C6
:1014E000B6F5001F00D120434FF0B04670605B1C82
:1014F0000E68DE40002E7FF41CAFF8BD800000585F
:10150000F44402580804005800000258000402582D
:1015100000080258000C025800100258001402582B
:1015200000180258001C02580020025800240258DB
:101530000AB1816101E00B048361704701480068D2
:10154000000C70470010005C014800687047000004
:10155000C000002403480068034909780844014991
:1015600008607047C0000024C800002410B50320A4
:1015700000F0A0FA01F06EFC10490968C1F30321E4
:101580000F4A515C01F01F0120FA01F40B4800687A
:1015900000F00F001146085C00F01F0024FA00F074
:1015A00008490860084804600F2000F00FF808B1EF
:1015B000012010BD00F02CFA0020FAE71844025870
:1015C000BE990008D0000024CC00002470B5044669
:1015D0001148007808B9012070BD0F4800784FF419
:1015E0007A71B1FBF0F00D490968B1FBF0F52846BE
:1015F00002F0D5F908B10120EEE7102C07D2002245
:101600002146501E00F019FA0548046001E001204F
:10161000E2E70020E0E70000C8000024CC0000243E
:10162000C400002470B504460E46154600BF94F869
:10163000A000012801D1022070BD012084F8A00083
:1016400000BF022084F8A10005EB850101EBC50273
:1016500004F1380101EB820034223146FEF76BFEC3
:101660002A463146204603F08BFC0120216848625F
:1016700084F8A10000BF002084F8A00000BF00BFD4
:10168000DAE7704770B504462068856B2068466BC2
:1016900005F00400E0B106F00400C8B12068406B1A
:1016A00020F004002168486304202168C863D4F84E
:1016B000A40040F00100C4F8A400042084F8A100B4
:1016C00000BF002084F8A00000BF2046FFF7D9FF2C
:1016D00005F00200E0B106F00200C8B12068406BDE
:1016E00020F002002168486302202168C863D4F812
:1016F000A40040F00200C4F8A400042084F8A10073
:1017000000BF002084F8A00000BF2046FFF7B9FF0B
:1017100005F00100A8B106F0010090B12068406B0F
:1017200020F001002168486301202168C86384F823
:10173000A10000BF002084F8A00000BF204600F0F8
:10174000A7F805F00800B0B106F0080098B12068CD
:10175000406B20F008002168486308202168C863B6
:10176000012084F8A10000BF002084F8A00000BF81
:10177000204600F08FF870BD70B504460CB901200A
:1017800070BD94F8A10028B9002084F8A00020467C
:1017900000F07FF8022084F8A1002068806920F022
:1017A000704021688861D4E901010843E168084379
:1017B0002169084321688969084321688861206894
:1017C00080683249084021688860A08A0504206842
:1017D0008068A16929430843216888602068C0683F
:1017E0002A4908402168C860A08B05042068C068A9
:1017F000216A294308432168C86020680069234999
:10180000084021680861A08C050420680069A16A6D
:101810002943084321680861206840691B49084042
:1018200021684861A08D050420684069216B294327
:1018300008432168486194F83500050294F83600A1
:1018400006042068C06A00F07F402168C86246EA4A
:10185000050094F8341008432168C96A08432168D8
:10186000C8622068406B40F0060021684863206829
:10187000806940F00100216888610020C4F8A4005C
:10188000012084F8A10000207AE7000000F800F0B1
:101890007047704770472DE9F04104460E461746E1
:1018A000984600BF94F8A000012802D10220BDE8AC
:1018B000F081012084F8A00000BF022084F8A1007C
:1018C00008EB880000EBC80104F1380000EB81054B
:1018D0002E60A86A30446860AF60E86A3844E86007
:1018E00042462946204603F04BFB0120216848620E
:1018F00084F8A10000BF002084F8A00000BF00BF52
:10190000D5E72DE9F04105460E461746984600BF3B
:1019100095F8A000012802D10220BDE8F081012045
:1019200085F8A00000BF022085F8A10008EB880020
:1019300000EBC80105F1380000EB81042068304459
:101940006060A0683844E060A662E76242462146D3
:10195000284603F015FB012085F8A10000BF0020F8
:1019600085F8A00000BF00BFD7E700004178154A06
:1019700011600178F9B1121D41681160017B0907FE
:10198000C27A41EA0261827A41EAC241427B41EA7B
:101990008241827B41EA4241C27B41EA0241427A72
:1019A00041EA0221027A41EA420102781143054AE2
:1019B0000832116005E00021024A121D1160121D5B
:1019C0001160704798ED00E0BFF35F8F0548006835
:1019D00020F480300349086000200249703108601B
:1019E0007047000024ED00E040F00101074A11605B
:1019F00006497039096841F48031044A703A11602F
:101A0000BFF34F8FBFF36F8F7047000094ED00E07E
:101A100070470146084600280DDB00BF00BF00F0FC
:101A20001F0301229A4043099B0003F1E023C3F8FE
:101A3000002100BF00BF00BF70472DE9F05F804666
:101A40000D46164606F054F9074639462A463346EF
:101A500001F00700C0F1070ABAF1040F02D94FF0F4
:101A6000040A01E0C0F1070AD14600F1040ABAF104
:101A7000070F02D24FF0000A01E0A0F1030AD4469A
:101A80004FF0010A0AFA09FAAAF1010A0AEA020A5F
:101A90000AFA0CFA4FF0010B0BFA0CFBABF1010B3D
:101AA0000BEA030B4AEA0B042146404606F028F9EC
:101AB000BDE8F09F00BF00F00702064B19684FF623
:101AC000FF031940044B0B4343EA0221014B196009
:101AD00000BF70470CED00E00000FA0510B501F002
:101AE0006FF905490968C1F30211044A515C01F01C
:101AF0001F01C84010BD000020440258BE990008D4
:101B000070B50146844D2D6805F00303824D2D68A4
:101B1000C5F30530804D2D1D2D68C5F300147E4D95
:101B200014352D68C5F3CC0515FB04F501EE105AEC
:101B3000B8EE411AF0EE410A00286FD023B1012B14
:101B40004ED0022B6BD16BE0734D283D2D68C5F351
:101B500040153DB3704D283D2D68C5F3C1066F4D4E
:101B600025FA06F201EE102AF8EE411A01EE100AEB
:101B7000B8EE411A81EE812A9FED691AC0EE811AF2
:101B8000654D10352D68C5F3080501EE105AB8EE05
:101B9000411A31EE811AF7EE001A31EE211A22EEC7
:101BA000010A1CE001EE100AB8EE411ADFED5D1AE1
:101BB00081EE812A9FED5A1AC0EE811A564D1035DA
:101BC0002D68C5F3080501EE105AB8EE411A31EE42
:101BD000811AF7EE001A31EE211A22EE010A5BE0BB
:101BE00001EE100AB8EE411ADFED4F1A81EE812A9C
:101BF0009FED4B1AC0EE811A474D10352D68C5F385
:101C0000080501EE105AB8EE411A31EE811AF7EECE
:101C1000001A31EE211A22EE010A3DE077E01DE0C4
:101C200001EE100AB8EE411A9FED402AC2EE011AE9
:101C30009FED3B1A80EE812A374D10352D68C5F394
:101C4000080501EE105AB8EE411A32EE011AB7EE4D
:101C5000002A31EE021A21EE810A1DE001EE100A7F
:101C6000B8EE411ADFED301A81EE812A9FED2C1A71
:101C7000C0EE811A284D10352D68C5F3080501EE18
:101C8000105AB8EE411A31EE811AF7EE001A31EE11
:101C9000211A22EE010A00BF00BF1F4D10352D682A
:101CA000C5F3462501EE105AB8EE411AF7EE001AB8
:101CB00031EE211AC0EE011ABCEEE11A81ED001AD4
:101CC000154D10352D68C5F3064501EE105AB8EED6
:101CD000411AF7EE001A31EE211AC0EE011ABCEEDD
:101CE000E11A81ED011A0C4D10352D68C5F306651A
:101CF00001EE105AB8EE411AF7EE001A31EE211A31
:101D0000C0EE011ABCEEE11A81ED021A03E00025D3
:101D10000D604D608D6070BD284402580090D00366
:101D2000000000460024744C0024744A20BCBE4BC2
:101D300070B50146844D2D6805F00303824D2D6872
:101D4000C5F30550804D2D1D2D68C5F300247E4D33
:101D50001C352D68C5F3CC0515FB04F501EE105AB2
:101D6000B8EE411AF0EE410A00286FD023B1012BE2
:101D70004ED0022B6BD16BE0734D283D2D68C5F31F
:101D800040153DB3704D283D2D68C5F3C1066F4D1C
:101D900025FA06F201EE102AF8EE411A01EE100AB9
:101DA000B8EE411A81EE812A9FED691AC0EE811AC0
:101DB000654D18352D68C5F3080501EE105AB8EECB
:101DC000411A31EE811AF7EE001A31EE211A22EE95
:101DD000010A1CE001EE100AB8EE411ADFED5D1AAF
:101DE00081EE812A9FED5A1AC0EE811A564D1835A0
:101DF0002D68C5F3080501EE105AB8EE411A31EE10
:101E0000811AF7EE001A31EE211A22EE010A5BE088
:101E100001EE100AB8EE411ADFED4F1A81EE812A69
:101E20009FED4B1AC0EE811A474D18352D68C5F34A
:101E3000080501EE105AB8EE411A31EE811AF7EE9C
:101E4000001A31EE211A22EE010A3DE077E01DE092
:101E500001EE100AB8EE411A9FED402AC2EE011AB7
:101E60009FED3B1A80EE812A374D18352D68C5F35A
:101E7000080501EE105AB8EE411A32EE011AB7EE1B
:101E8000002A31EE021A21EE810A1DE001EE100A4D
:101E9000B8EE411ADFED301A81EE812A9FED2C1A3F
:101EA000C0EE811A284D18352D68C5F3080501EEDE
:101EB000105AB8EE411A31EE811AF7EE001A31EEDF
:101EC000211A22EE010A00BF00BF1F4D18352D68F0
:101ED000C5F3462501EE105AB8EE411AF7EE001A86
:101EE00031EE211AC0EE011ABCEEE11A81ED001AA2
:101EF000154D18352D68C5F3064501EE105AB8EE9C
:101F0000411AF7EE001A31EE211AC0EE011ABCEEAA
:101F1000E11A81ED011A0C4D18352D68C5F30665DF
:101F200001EE105AB8EE411AF7EE001A31EE211AFE
:101F3000C0EE011ABCEEE11A81ED021A03E00025A1
:101F40000D604D608D6070BD284402580090D00334
:101F5000000000460024744C0024744A20BCBE4B90
:101F60002DE9F04104460025A846206800F00060F5
:101F7000B0F1006F30D1606E48B1B0F5801F0DD068
:101F8000B0F5001F10D0B0F5401F15D113E0F9488F
:101F9000006840F40030F74908600FE00221201D7E
:101FA00003F004FB054609E0022104F1240003F0DC
:101FB000AFFB054602E001E0012500BF00BF55B9B7
:101FC000EC482430006820F44010616E0843E94971
:101FD0002431086000E0A846208800F48070B0F545
:101FE000807F2DD1606D05281AD2DFE800F0030A4A
:101FF00010171800DF48006840F40030DD49086021
:1020000010E00021201D03F0D1FA05460AE000216E
:1020100004F1240003F07CFB054603E002E001E04C
:10202000012500BF00BF55B9D2482430006820F018
:102030000700616D0843CF492431086000E0A846DD
:10204000208800F40070B0F5007F33D1A06D8028A7
:1020500017D003DC40B140281CD10CE0C02817D0B9
:10206000B0F5807F16D114E0C248006840F400301B
:10207000C049086010E00021201D03F097FA0546D2
:102080000AE0002104F1240003F042FB054603E0CE
:1020900002E001E0012500BF00BF55B9B54824307A
:1020A000006820F4E070A16D0843B2492431086053
:1020B00000E0A846208800F48060B0F5806F38D139
:1020C000D4F8A400B0F5800F19D004DC50B1B0F5FD
:1020D000001F1DD10DE0B0F5C00F17D0B0F5000FF7
:1020E00016D114E0A348006840F40030A14908600C
:1020F00010E00021201D03F059FA05460AE00021F6
:1021000004F1240003F004FB054603E002E001E0D3
:10211000012500BF00BF5DB996482C30006820F44F
:102120006000D4F8A410084392492C31086000E004
:10213000A846208800F40060B0F5006F38D1D4F8CC
:10214000A800B0F1007F19D004DC50B1B0F1807F5D
:102150001DD10DE0B0F1407F17D0B0F1806F16D1E6
:1021600014E08448006840F400308249086010E0C0
:102170000021201D03F01AFA05460AE0002104F1AF
:10218000240003F0C5FA054603E002E001E0012562
:1021900000BF00BF5DB977482C30006820F0E060D8
:1021A000D4F8A810084373492C31086000E0A84611
:1021B000206800F00070B0F1007F27D1A06CA0B1C2
:1021C000102804D0202809D030280FD10CE069480D
:1021D000006840F400306749086009E00221201DD2
:1021E00003F0E4F9054603E002E001E0012500BF49
:1021F00000BF55B95F482030006820F03000A16C66
:1022000008435C492031086000E0A846208800F4BB
:102210008050B0F5805F36D1E06DB0F5005F19D029
:1022200004DC50B1B0F5805F1DD10DE0B0F5405F2A
:1022300017D0B0F5804F16D114E04E48006840F436
:1022400000304C49086010E00021201D03F0AEF979
:1022500005460AE0002104F1240003F059FA05467E
:1022600003E002E001E0012500BF00BF55B941488D
:102270002430006820F4E040E16D08433D492431FA
:10228000086000E0A846208800F40050B0F5005F28
:1022900034D1206EB0F5403F1DD007DC68B1B0F5F9
:1022A000803F0BD0B0F5003F18D10DE0B0F5802F86
:1022B00012D0B0F5A02F11D10FE011E00121201DA7
:1022C00003F074F905460BE0012104F1240003F04A
:1022D0001FFA054604E003E002E001E0012500BF2B
:1022E00000BF55B923482430006820F4E020216E57
:1022F000084320492431086000E0A846208800F403
:102300008040B0F5804F38D1D4F8AC00B0F1405FD8
:102310001DD007DC68B1B0F1805F0BD0B0F1005F79
:1023200018D10DE0B0F1804F12D0B0F1A04F11D113
:102330000FE011E00121201D03F038F905460BE004
:10234000012104F1240003F0E3F9054604E003E071
:1023500002E001E0012500BF00BF6DB905482C3047
:10236000006820F0E040D4F8AC10084301492C315B
:10237000086002E02C440258A846208800F400407F
:10238000B0F5004F26D1E06E98B1B0F1805F03D078
:10239000B0F1005F0ED106E0F948006840F400306B
:1023A000F749086008E00121201D03F0FFF8054609
:1023B00002E001E0012500BF00BF55B9F04824301C
:1023C000006820F04050E16E0843ED492431086078
:1023D00000E0A846206800F08070B0F1807F27D12F
:1023E000606CA0B1012804D0022809D003280FD1C5
:1023F0000CE0E348006840F40030E149086009E07F
:102400000221201D03F0D2F8054603E002E001E0BE
:10241000012500BF00BF55B9D9482030006820F021
:102420000300616C0843D6492031086000E0A846EB
:10243000206800F48000B0F5800F7DD1D14800689D
:1024400040F48070CF490860FFF77EF8064606E04A
:10245000FFF77AF8801B642801D9032505E0C948F5
:10246000006800F480700028F2D000BF85BBC4482B
:102470004430006800F44070B4F8B01001F44071CA
:10248000884213D0BE484430006820F44077BC48EE
:102490004430006840F48030B9494431086008464F
:1024A000006820F48030086008460760D4F8B00067
:1024B000B0F5807F15D1FFF747F8064609E0FFF732
:1024C00043F8801B41F28831884202D9032507E096
:1024D00038E0AB4844300068C0F340000028EED03C
:1024E00000BF55BB00BFB4F8B00000F44070B0F5B9
:1024F000407F0ED1A2481C38006820F47C51A24ACB
:10250000D4F8B000104041EA10109D491C39086011
:1025100007E09B481C38006820F47C5098491C391F
:102520000860974844300068B4F8B010C1F30B015C
:1025300008439349443101E005E001E0086002E00E
:10254000A84600E0A846207800F0010068B3A06F1C
:10255000182819D005DC48B1082808D0102816D151
:102560000BE0202811D0282811D10FE011E0012123
:10257000201D03F01BF805460BE0012104F12400A7
:1025800003F0C6F8054604E003E002E001E001259F
:1025900000BF00BF55B97A482830006820F03800E5
:1025A000A16F084376492831086000E0A8462078EA
:1025B00000F00200022828D1606F062815D2DFE85B
:1025C00000F003040A11121311E00121201D02F092
:1025D000EDFF05460BE0012104F1240003F098F81B
:1025E000054604E003E002E001E0012500BF00BF72
:1025F00055B963482830006820F00700616F084330
:102600005F492831086000E0A846207800F0040007
:1026100004282AD1D4F89000062815D2DFE800F06B
:1026200003040A11121311E00121201D02F0BEFF64
:1026300005460BE0012104F1240003F069F805468A
:1026400004E003E002E001E0012500BF00BF5DB946
:102650004B482C30006820F00700D4F89010084355
:1026600047492C31086000E0A846207800F020009F
:10267000202836D1D4F88C00B0F1405F1DD007DCA3
:1026800068B1B0F1805F0BD0B0F1005F18D10DE000
:10269000B0F1804F12D0B0F1A04F11D10FE011E096
:1026A0000021201D02F082FF05460BE0022104F10B
:1026B000240003F02DF8054604E003E002E001E009
:1026C000012500BF00BF5DB92D482830006820F00B
:1026D000E040D4F88C10084329492831086000E014
:1026E000A846207800F04000402836D1D4F8980061
:1026F000B0F5406F1DD007DC68B1B0F5806F0BD02E
:10270000B0F5006F18D10DE0B0F5805F12D0B0F5D4
:10271000A05F11D10FE011E00021201D02F046FF63
:1027200005460BE0022104F1240002F0F1FF05460A
:1027300004E003E002E001E0012500BF00BF5DB955
:102740000F482C30006820F4E050D4F8981008436B
:102750000B492C31086000E0A846207800F080008A
:1027600080283AD1D4F89C00B0F5C04F23D00DDCBE
:1027700098B1B0F5005F11D0B0F5804F1ED113E0D5
:102780002C44025800480258FFFCFF0FB0F5004FE0
:1027900012D0B0F5204F11D10FE011E00021201D23
:1027A00002F004FF05460BE0022104F1240002F0D0
:1027B000AFFF054604E003E002E001E0012500BFB1
:1027C00000BF4DB9B548006820F46040D4F89C10B3
:1027D0000843B249086000E0A846207800F00800ED
:1027E000082817D1D4F88000B0F5805F07D1022106
:1027F00004F1240002F08CFF08B14FF00108A74853
:10280000001F006820F44050D4F880100843A3490A
:10281000091F0860207800F01000102815D1D4F8A6
:102820009400B0F5807F07D1022104F1240002F06A
:102830006FFF08B14FF001089848006820F440701D
:10284000D4F89410084395490860206800F40020EB
:10285000B0F5002F26D1D4F8A00030B1B0F5803FFC
:1028600009D0B0F5003F0ED10CE00021201D02F090
:102870009DFE054609E0022104F1240002F048FF14
:10288000054602E001E0012500BF00BF4DB98348C5
:10289000006820F44030D4F8A01008437F49086055
:1028A00000E0A846206800F48020B0F5802F2DD1EC
:1028B000D4F88400B0F5801F06D0B0F5001F0CD00E
:1028C000B0F5401F11D10FE074482C38006840F477
:1028D000003072492C39086009E0012104F124001C
:1028E00002F016FF054602E001E0012500BF00BF2F
:1028F0005DB96A48001F006820F44010D4F88410C5
:1029000008436649091F086000E0A846206800F4F3
:102910008030B0F5803F24D1E06C18B1B0F5803F35
:102920000FD108E05D482C38006840F400305B4966
:102930002C39086007E00221201D02F037FE054611
:1029400001E0012500BF00BF55B954480C380068AC
:1029500020F48030E16C084350490C39086000E0F5
:10296000A846206800F00050B0F1005F07D10221B6
:1029700004F1240002F0CCFE08B14FF001082068F9
:1029800000F40030B0F5003F27D1E06FA0B1B0F502
:10299000807F06D0B0F5007F0CD0B0F5407F0CD121
:1029A00009E03E482C38006840F400303B492C399F
:1029B000086004E003E002E001E0012500BF00BF81
:1029C00055B93648001F006820F44070E16F084395
:1029D0003249091F086000E0A846206800F4801012
:1029E000B0F5801F09D12D480838006820F000405C
:1029F000216F0843294908390860206800F0805099
:102A0000B0F1805F0AD125484838006820F4804042
:102A1000D4F8B4100843214948390860206800F40C
:102A20000010B0F5001F09D11C480838006820F0DC
:102A30008070A16E0843194908390860206800F0C9
:102A40008040B0F1804F11D100BF14484838006871
:102A500020F4004011494839086008460068D4F85D
:102A6000B81008430D494839086000BF206800F0DD
:102A70000040B0F1004F09D108480C38006820F040
:102A80004050216D084305490C390860B8F1000F2A
:102A900002D10020BDE8F0810120FBE75844025834
:102AA0002DE9F04104460D4614B90120BDE8F0813E
:102AB000BD48006800F00F00A8420ED2BA48006876
:102AC00020F00F002843B84908600846006800F06D
:102AD0000F00A84201D00120E8E7207800F00400B0
:102AE00004280ED1B1492069096801F070018842BB
:102AF00007D9AE48006820F0700021690843AB494F
:102B00000860207800F00800082811D1A749091DA5
:102B10006069096801F07001884209D9A348001D65
:102B2000006820F0700061690843A049091D086031
:102B3000207800F01000102811D19C49091DA069CF
:102B4000096801F4E061884209D99848001D0068CD
:102B500020F4E060A16908439449091D08602078C9
:102B600000F02000202811D190490831E06909685F
:102B700001F07001884209D98C480830006820F0C3
:102B80007000E1690843894908310860207800F045
:102B9000020002280ED18549E068096801F00F01A2
:102BA000884207D98148006820F00F00E168084397
:102BB0007E490860207800F00100002850D07B4852
:102BC000006820F47060A168084378490860606874
:102BD000022807D1754818380068C0F34040F8B99A
:102BE000012063E76068032807D17048183800683F
:102BF000C0F34060A0B9012058E76068012807D100
:102C00006A4818380068C0F3002048B901204DE731
:102C1000664818380068C0F3800008B9012045E70D
:102C200062480838006820F00700616808435F497F
:102C300008390860FEF788FC064608E0FEF784FCC9
:102C4000801B41F28831884201D903202EE7574882
:102C50000838006800F038006168B0EBC10FEDD1B2
:102C6000207800F0020002280ED15049E06809687F
:102C700001F00F01884207D24C48006820F00F0095
:102C8000E1680843494908604748006800F00F00C0
:102C9000A8420ED94448006820F00F00284342495A
:102CA00008600846006800F00F00A84201D001202B
:102CB000FCE6207800F0040004280ED13B4920698E
:102CC000096801F07001884207D23848006820F096
:102CD00070002169084335490860207800F0080039
:102CE000082811D13149091D6069096801F0700196
:102CF000884209D22D48001D006820F070006169EB
:102D000008432A49091D0860207800F010001028A7
:102D100011D12649091DA069096801F4E0618842C2
:102D200009D22248001D006820F4E060A169084330
:102D30001E49091D0860207800F02000202811D1CC
:102D40001A490831E069096801F07001884209D226
:102D500016480830006820F07000E1690843134904
:102D60000831086000F076F810490968C1F30321C2
:102D70000F4A515C01F01F0120FA01F70B4800686F
:102D800000F00F001146085C00F01F0027FA00F069
:102D9000084908600848076008480068FEF716FC04
:102DA0008046404682E60000002000521844025847
:102DB000BE990008D0000024CC000024C4000024E8
:102DC00010B500F047F80D490968C1F303210C4A1A
:102DD000515C01F01F0120FA01F40848006800F07E
:102DE0000F001146085C00F01F0024FA00F00549AE
:102DF0000860054804600846006810BD1844025881
:102E0000BE990008D0000024CC00002400B5FFF7D4
:102E1000D7FF05490968C1F30211044A515C01F06A
:102E20001F01C84000BD00001C440258BE990008A4
:102E300000B5FFF7C5FF05490968C1F30221044A3F
:102E4000515C01F01F01C84000BD00001C44025845
:102E5000BE990008F0B5824E366806F0380636B1E5
:102E6000082E15D0102E15D0182E7DD114E07C4ED2
:102E7000103E3668C6F3401646B1794E103E3668AD
:102E8000C6F3C107774E26FA07F000E07548E5E083
:102E90007548E3E07548E1E0714E1836366806F093
:102EA00003046F4E18363668C6F305116C4E1C3697
:102EB000366806F001056A4E24363668C6F3CC063D
:102EC00016FB05F601EE106AB8EE410A002971D032
:102ED00024B1012C50D0022C6DD16DE0604E103E1B
:102EE0003668C6F340163EB35D4E103E3668C6F3F4
:102EF000C1075C4E26FA07F301EE103AF8EE411ACC
:102F000001EE101AB8EE411A81EE812A9FED581A8F
:102F1000C0EE011A524E20363668C6F3080601EE9E
:102F2000106AB8EE411A31EE811AF7EE001A31EE4E
:102F3000211A62EE010A1EE001EE101AB8EE411AE3
:102F4000DFED4C1A81EE812A9FED491AC0EE011A7D
:102F5000434E20363668C6F3080601EE106AB8EE16
:102F6000411A31EE811A00E076E0F7EE001A31EEF8
:102F7000211A62EE010A5BE001EE101AB8EE411A66
:102F80009FED3D2AC2EE011A9FED391A80EE012A0B
:102F9000334E20363668C6F3080601EE106AB8EEE6
:102FA000411A32EE011AB7EE002A31EE021A61EE32
:102FB000810A3DE04EE01DE001EE101AB8EE411A24
:102FC000DFED2E1A81EE812A9FED291AC0EE011A3B
:102FD000234E20363668C6F3080601EE106AB8EEB6
:102FE000411A31EE811AF7EE001A31EE211A62EE23
:102FF000010A1DE001EE101AB8EE411A9FED1E2ADB
:10300000C2EE011A9FED1A1A80EE012A144E2036E4
:103010003668C6F3080601EE106AB8EE411A32EEC1
:10302000011AB7EE002A31EE021A61EE810A00BFE2
:1030300000BF0B4E20363668C6F34626721C01EEE2
:10304000102AB8EE411AC0EE811ABCEEE11A11EE58
:10305000100A00E0002001E0034800BF00BFF0BDFF
:10306000104402580090D00300093D0040787D01D3
:10307000000000460024744C0024744A20BCBE4B5F
:103080002DE9F047044614B90120BDE8F087207807
:1030900000F00100002872D0F748006800F03808FE
:1030A000F5481830D0F80090B8F1100F06D0B8F1FC
:1030B000180F0FD109F0030002280BD1EE48103889
:1030C0000068C0F3404000286ED0606800286BD1D3
:1030D0000120DAE700BF6068B0F5803F08D1E6481C
:1030E0001038006840F48030E349103908602EE061
:1030F000606868B9E0481038006820F48030DE4924
:10310000103908600846006820F4802008601EE03E
:103110006068B0F5A02F0DD1D7481038006840F492
:103120008020D549103908600846006840F4803096
:1031300008600CE0D0481038006820F48030CE4998
:10314000103908600846006820F48020086000BF3D
:103150006068A8B1FEF7F8F9054608E0FEF7F4F953
:10316000401B41F28831884201D903208DE7C248D3
:1031700010380068C0F340400028EFD014E014E09D
:10318000FEF7E2F9054608E0FEF7DEF9401B41F2E2
:103190008831884201D9032077E7B74810380068A2
:1031A000C0F340400028EFD100BF207800F00200BB
:1031B00002287BD1B048006800F03808AE481830CB
:1031C000D0F80090B8F1000F05D0B8F1180F3AD13F
:1031D00009F00300B0BBA84810380068C0F38000B5
:1031E00018B1E06808B901204FE700BFFEF7A6F963
:1031F00041F20301884219D8206940280AD19E482B
:103200000C38006820F47C3040F400309A490C39C6
:10321000086016E098480C38006820F47C3021697A
:1032200040EA013094490C3908600AE092480C38B1
:10323000006820F0FE40217C40EA01608E490C3994
:10324000086067E0FFE7E06888B38B4810380068E3
:1032500020F01900E1680843874910390860FEF73B
:1032600073F9054606E0FEF76FF9401B022801D905
:1032700003200AE7804810380068C0F38000002867
:10328000F1D000BFFEF75AF941F2030188421BD882
:10329000206940280CD178480C38006820F47C3034
:1032A00040F4003074490C39086018E033E017E04E
:1032B00071480C38006820F47C30216940EA013004
:1032C0006D490C3908600AE06B480C38006820F042
:1032D000FE40217C40EA016067490C39086019E032
:1032E00065481038006820F0010063491039086013
:1032F000FEF72AF9054606E0FEF726F9401B0228EC
:1033000001D90320C1E65C4810380068C0F3800092
:103310000028F1D100BF207800F0100010287CD1E7
:103320005548006800F0380853481830D0F800902D
:10333000B8F1080F06D0B8F1180F3DD109F003001D
:10334000012839D14C4810380068C0F3002020B162
:10335000E069802801D0012097E600BFFEF7EEF873
:1033600041F2030188421AD8206A20280AD1424833
:103370000C38006820F0F84040F080403E490C399D
:10338000086018E03C480C38006820F0F84094F8D9
:10339000201040EA816038490C3908600BE036485B
:1033A000001F006820F07C5094F8201040EA016073
:1033B0003149091F086067E0E06978B32E4810388A
:1033C000006840F080002C4910390860FEF7BCF816
:1033D000054606E0FEF7B8F8401B022801D9032095
:1033E00053E6254810380068C0F300200028F1D0CB
:1033F00000BFFEF7A3F841F2030188421CD8206AFF
:1034000020280CD11C480C38006820F0F84040F00F
:10341000804019490C3908601AE036E019E0164876
:103420000C38006820F0F84094F8201040EA8160E1
:1034300011490C3908600BE00F48001F006820F0AC
:103440007C5094F8201040EA01600B49091F086085
:103450001AE009481038006820F080000649103949
:103460000860FEF771F8054608E0FEF76DF8401BAE
:10347000022803D9032008E610440258F3480068E4
:10348000C0F300200028F0D100BF207800F0080031
:10349000082836D16069D0B1EC487430006840F03B
:1034A0000100EA4974310860FEF74EF8054606E06F
:1034B000FEF74AF8401B022801D90320E5E5E3485E
:1034C00074300068C0F340000028F1D019E0DF48F4
:1034D0007430006820F00100DC4974310860FEF7A8
:1034E00033F8054606E0FEF72FF8401B022801D905
:1034F0000320CAE5D54874300068C0F340000028B6
:10350000F1D1207800F02000202830D1A069B8B196
:10351000CE48006840F48050CC490860FEF714F8AB
:10352000054606E0FEF710F8401B022801D90320EB
:10353000ABE5C6480068C0F340300028F2D016E082
:10354000C248006820F48050C0490860FDF7FCFFC5
:10355000054606E0FDF7F8FF401B022801D90320CD
:1035600093E5BA480068C0F340300028F2D12078D3
:1035700000F0040004287DD1B548006840F4807054
:10358000B3490860FDF7E0FF054606E0FDF7DCFF04
:10359000401B642801D9032077E5AD48006800F49A
:1035A00080700028F2D000BFA068012808D1A74889
:1035B0007030006840F00100A449703108602DE0CF
:1035C000A06868B9A1487030006820F001009F49E8
:1035D000703108600846006820F0040008601DE0B3
:1035E000A06805280DD199487030006840F00400AB
:1035F0009649703108600846006840F00100086094
:103600000CE092487030006820F001008F49703162
:1036100008600846006820F00400086000BFA06849
:10362000A0B1FDF791FF054608E0FDF78DFF401BB7
:1036300041F28831884201D9032026E58348703061
:103640000068C0F340000028EFD013E0FDF77CFFD6
:10365000054608E0FDF778FF401B41F288318842BB
:1036600001D9032011E5794870300068C0F34000AB
:103670000028EFD1606A00287DD0744810300068BF
:1036800000F03800182877D0606A022875D16F489A
:10369000006820F080706D490860FDF755FF054611
:1036A00006E0FDF751FF401B022801D90320ECE49E
:1036B00066480068C0F340600028F2D100BFD4E93A
:1036C0000A1041EA001061492831096840F2F332DA
:1036D000914308435D4928310860208E401EC0F3A5
:1036E0000800616B491E4FF47E4202EA4121084303
:1036F000218F491ED20102EA014108433C21095DA4
:10370000491E120202EA0161084350493031086043
:1037100000BF081F006820F00100091F08604B4827
:10372000343000684FF6F8718843A16C40EAC1005C
:1037300046493431086045482C30006820F00C00C0
:10374000216C084341492C3108600846006820F08C
:103750000200616C08433D492C310860084600684E
:1037600040F4803008600846006840F4003008608B
:103770000846006802E066E038E01FE040F4802080
:1037800008600846006840F0010008602F480068A3
:1037900040F080702D490860FDF7D6FE054606E032
:1037A000FDF7D2FE401B022801D903206DE4274813
:1037B0000068C0F340600028F2D044E0234800686D
:1037C00020F0807021490860FDF7BEFE054606E046
:1037D000FDF7BAFE401B022801D9032055E41B481F
:1037E0000068C0F340600028F2D12CE01748283070
:1037F0000768164830300668606A012821D007F053
:103800000301A06A81421CD1C7F30511E06A884216
:1038100017D1C6F30801206B401E814211D1606BA5
:10382000401EC6F3462188420BD1A06B401EC6F352
:103830000641884205D1E06B401EC6F3066188420E
:1038400001D0012021E400201FE4000000440258C0
:103850000048025870B504460D460CB9012070BDF1
:1038600094F82C0028B9002084F82D00204600F0A0
:1038700019F8022084F82C00211D2068FDF77DF83E
:103880002946D4E90002FDF7C9F80548006840F070
:10389000004003490860012084F82C000020DEE786
:1038A00000400052704770B504460D4694F82C0055
:1038B000022800D170BD94F82C0001280AD1022002
:1038C00084F82C0029462068FDF78DF8012084F843
:1038D0002C0001E00120EDE70020EBE72DE9F041AD
:1038E00004460E46174694F82C50022D02D10220B1
:1038F000BDE8F081012D01D0052D12D1022084F800
:103900002C003A4631462068FDF777F830680228E7
:1039100003D1052084F82C0005E0012084F82C0058
:1039200001E00120E4E70020E2E7000070B5044672
:103930000E4615460CB9012070BD94F8450028B913
:10394000002084F84400204600F028F804F1080123
:103950002068FCF78DFF3146A2682068FCF7DAFF8B
:103960002946E36AD4E90102FCF760FFA1682068F8
:1039700050F8210040F00100A268216841F82200BF
:103980000548006840F0004003490860012084F8C1
:1039900045000020D0E7000000400052704770B59D
:1039A00004462546681EB0F1807F01D301200FE058
:1039B000681E4FF0E02148610F214FF0FF3004F006
:1039C0009FF900204FF0E021886107200861002066
:1039D00070BD10B504460CB9012010BD94F83D002F
:1039E00028B9002084F83C00204600F029F8022085
:1039F00084F83D00211D206802F060FB012084F85E
:103A0000480000BF84F83E0001213F2001554020BE
:103A1000015541200155422001554320015500BF69
:103A200000BF012084F8440045200155462001557F
:103A30004720015500BF012084F83D000020CCE75D
:103A400070470000014691F83D00012801D0012097
:103A50007047022081F83D0008688068074B00EA43
:103A60000302062A08D0B2F5803F05D00868006836
:103A700040F001000B6818600020E9E70700010032
:103A800070B504460D46164600BF94F83C00012868
:103A900001D1022070BD012084F83C0000BF0C2E33
:103AA00051D005DC4EB1042E1ED0082E7AD133E061
:103AB000102E60D0142EF9D175E02946206802F04E
:103AC00075FB2068806940F00800216888612068E3
:103AD000806920F004002168886120688069296974
:103AE00008432168886177E02946206802F0B4FB2A
:103AF0002068806940F400602168886120688069DE
:103B000020F480602168886120688069296940EA22
:103B10000120216888615FE02946206802F0F6FBF9
:103B20002068C06940F008002168C8612068C06949
:103B300020F004002168C8612068C0692969084331
:103B40002168C86148E02946206802F037FC2068F7
:103B5000C06940F400602168C8612068C06920F431
:103B600080602168C8612068C069296940EA012035
:103B70002168C86130E02946206802F057FC2068BF
:103B8000406D40F00800216848652068406D20F0D5
:103B90000400216848652068406D29690843216850
:103BA000486519E017E02946206802F075FC206896
:103BB000406D40F40060216848652068406D20F445
:103BC0008060216848652068406D296940EA0120CD
:103BD0002168486500E000BF00BF00BF002084F8F6
:103BE0003C0000BF00BF55E710B50446022084F832
:103BF0003D0000BF2068006A41F21111084050B931
:103C00002068006A8910084028B92068006820F000
:103C100001002168086000BF204600F05CF8002029
:103C200084F8480000BF84F83E0000213F20015581
:103C300040200155412001554220015543200155A6
:103C400000BF00BF002084F84400452001554620F5
:103C500001554720015500BF002084F83D0000BFFA
:103C600084F83C0000BF10BD10B504460CB901201B
:103C700010BD94F83D0028B9002084F83C0020468F
:103C800000F02AF8022084F83D00211D206802F08F
:103C900015FA012084F8480000BF84F83E00012195
:103CA0003F2001554020015541200155422001553A
:103CB0004320015500BF00BF012084F84400452087
:103CC0000155462001554720015500BF012084F8C9
:103CD0003D000020CCE770477047000070B50446F7
:103CE0000D4615B994F83E0015E0042D02D13F2091
:103CF000005D10E0082D02D14020005D0BE00C2D8E
:103D000002D14120005D06E0102D02D14220005D6D
:103D100001E04320005D012801D0012070BD1DB9E4
:103D2000022084F83E001AE0042D03D102213F2036
:103D3000015514E0082D03D10221402001550EE069
:103D40000C2D03D102214120015508E0102D03D193
:103D500002214220015502E00221432001550122A7
:103D60002946206802F010FA1749206888420FD0CF
:103D70001649206888420BD015492068884207D030
:103D800014492068884203D013492068884201D131
:103D9000012000E0002028B12068406C40F4004081
:103DA00021684864206880680C4900EA0106062EF4
:103DB00008D0B6F5803F05D02068006840F00100CB
:103DC000216808600020A9E70000014000040140CC
:103DD000004001400044014000480140070001004C
:103DE00010B504460CB9012010BDA06900B100E077
:103DF00000BFD4F8800028B9002084F87C00204659
:103E000000F02AF82420C4F880002068006820F020
:103E1000010021680860204603F002FA012800D161
:103E2000E2E7A06A10B1204603F044F92068406838
:103E300020F49040216848602068806820F02A00C3
:103E4000216888602068006840F0010021680860EF
:103E5000204603F0ABF9C7E77047000000B59BB000
:103E60004C2108A8FCF780FA1C2101A8FCF77CFA79
:103E700018480890184809900520019002200290E7
:103E800003900120049002200590069000200790E6
:103E90000A9000210B910C9120210D9100210E918F
:103EA0000F9110914FF480511191002112911391B3
:103EB000149115911691179101AA01A908A8FFF76D
:103EC00035FD20B14FF4927104A0FCF7ABFC1BB0A0
:103ED00000BD000000400052044100522E2E5C2E16
:103EE0002E5C557365725C6273705C7372635C62A6
:103EF00073705F666D635F696F2E630000B587B096
:103F000000BF3E48006840F008003C490860084691
:103F1000006800F00800019000BF00BF00BF084625
:103F2000006840F0100008600846006800F01000CB
:103F3000019000BF00BF00BF0846006840F040008D
:103F400008600846006800F04000019000BF00BF14
:103F500000BF0846006840F080000860084600681E
:103F600000F08000019000BF00BF00BF084600685D
:103F700040F4807008600846006800F4807001908A
:103F800000BF00BF00BF1D480C38006840F48050DF
:103F90001A490C3908600846006800F48050019006
:103FA00000BF00BF02200390012004900320059071
:103FB0000C2006904CF2B370029002A91048FDF755
:103FC000B3F94FF68070029002A90E48FDF7ACF9E4
:103FD0000320029002A90C48FDF7A6F94FF47F4098
:103FE000029002A90948FDF79FF940F2CF600290C4
:103FF00002A90748FDF798F907B000BDE044025850
:10400000000C02580010025800180258001C0258F8
:1040100000200258014604480068084008B1012009
:1040200070470020FCE700002C00002429B9084A52
:1040300012688243064B1A6004E0054A1268024384
:10404000034B1A60024A1268024B1A607047000064
:104050002C0000240010006010B53249096801F0FE
:10406000004149B12F49096841F000412D4A1160D2
:104070008169891C816110BD2A49083909682A4A69
:1040800011622849091F097882F824102549C91EA0
:104090000978916223490C310968D1622149891E4E
:1040A000098811861F49096851631E49091D09685D
:1040B00091631C4910310968D1631CA200210BE0F7
:1040C000535C254CA36200BF234BDB6903F0400324
:1040D000002BF9D04B1CD9B22929F1D300211F4A5A
:1040E000116000BF1D4909680029FBD00E4A016814
:1040F00011604168516081689160C168D160016957
:1041000011614169516181699161C169D161002188
:10411000124A116000BF114909680029FBD000BF95
:10412000A9E700002CED00E0701400240D0A456E94
:1041300074657220486172644661756C745F486191
:104140006E646C65722C2053797374656D204861C0
:104150006C742E0D0A00000000100140D4000024F1
:1041600000B5B5B00120019000201F9001A8FDF717
:10417000F7FE00BF6548006840F001006349086031
:104180000846006800F00100009000BF00BF00BFBB
:104190000846006840F0010008600846006800F02A
:1041A0000100009000BF00BF00BF584810300068F9
:1041B00040F010005549103108600846006800F0D2
:1041C0001000009000BF00BF4FF40070309002203C
:1041D000319001203290032033900720349030A991
:1041E0004B48FDF7A1F84FF48060309007203490E1
:1041F00030A94748FDF798F8002204212520FDF753
:104200001CFC2520FDF705FC0C2300224FF4E131B6
:10421000404804F0E7FF3F48006A40F040003D4955
:1042200008620846806940F0080088610846006816
:1042300040F02000086000BF3448006840F00200F1
:10424000324908600846006800F00200009000BF94
:1042500000BF00BF0846006840F002000860084642
:10426000006800F00200009000BF00BF00BF2748B8
:104270000830006840F4802024490831086008466E
:10428000006800F48020009000BF00BF4FF4806001
:10429000309002203190012032900320339007208B
:1042A000349030A91C48FDF73FF84FF4006030907F
:1042B0000720349030A91848FDF736F8032204216E
:1042C0002720FDF7BAFB2720FDF7A3FB0C230022D4
:1042D0004FF41651114804F085FF10482030006853
:1042E00040F040000D49203108600C48183000684B
:1042F00040F008000949183108600848006840F09B
:1043000020000649086035B000BD0000E0440258B6
:10431000000002580010014000040258004800400C
:104320002DE9F0410446082C17DA0026FF27002566
:1043300008E0284600F030F810B1701CC6B22F46D5
:10434000681CC5B2082DF4DB012E04D1A74202D1AE
:104350000120BDE8F0810020FBE7082C0BD10020F4
:1043600000F01AF828B1012000F016F808B1012079
:10437000EFE70020EDE7092C0BD1012000F00CF84D
:1043800028B1022000F008F808B10120E1E7002080
:10439000DFE70020DDE7000001460B4850F8310060
:1043A0000069094B03EBC1039B88184008B9002240
:1043B00000E00122044800EBC1008079904201D165
:1043C000012070470020FCE72899000838B5044612
:1043D000044800940388044802880021084600F03D
:1043E00043FA38BD28000024260000242DE9F04FB0
:1043F000BDB000BFB848006840F00800B64908608A
:104400000846006800F00800379000BF00BF00BFFA
:10441000081F006840F48070091F086008460068A3
:1044200000F48070379000BF00BF00BF08460068EE
:1044300040F4007008600846006800F4007037908F
:1044400000BF00BF00BF0846006840F480600860FD
:104450000846006800F48060379000BF00BF4FF44A
:10446000704038900220399000203A9002203B9012
:104470000E203C9038A99948FCF756FF4FF6FF7084
:1044800038900220399000203A9002203B900E2074
:104490003C9038A99248FCF747FFFF203890022053
:1044A000399000203A9002203B900E203C9038A991
:1044B0008C48FCF739FF8C48007806287BD2DFE86F
:1044C00000F00312303F405B4FF4F0744FF48875F6
:1044D0000A264FF014084FF0140A14274FF014095D
:1044E0004FF0140B85E04FF4F0744FF488752826D4
:1044F0004FF002084FF0020A09274FF002094FF06F
:10450000020B6806019005200A9030210B910221D0
:104510000C9105210D910A210E9101A8FDF720FDB6
:1045200067E04FF4F0744FF4887528264FF00208C6
:104530004FF0020A09274FF002094FF0020B58E032
:1045400000BF4FF448744FF4F07560264FF00A082E
:10455000C2460227C146C3462006019005200A90A4
:1045600030210B9102210C9105210D910A210E9110
:1045700001A8FDF7F5FC3CE04FF480644FF416759C
:1045800002264FF09D084FF0A00A02274FF01409B1
:104590004FF00C0BE004019005200A9030210B91A4
:1045A00002210C9105210D910A210E9101A8FDF720
:1045B000D7FC1EE0FFE74FF448744FF4F075502627
:1045C0004FF00A084FF00A0A0A274FF00A094FF085
:1045D0000A0B2006019005200A9030210B91022140
:1045E0000C9105210D910A210E9101A8FDF7B8FC4F
:1045F00000BF00BF3D4805803D48048000203D4984
:10460000486000213B488160C1600161701E3949EA
:104610004861781E886106EB0800401EC86107EB00
:104620000900401E0862E8194844401E8862A0192B
:104630004044401E4862E81948445844401E0863FC
:10464000A01940445044401EC8620021294880F807
:10465000341080F8351080F8361027482549086056
:1046600000203090319432903395022034904FF0F6
:1046700040403990FF203590002036908DF8F000B2
:1046800000218DF8F1108DF8F2104FF48060379012
:10469000052038903A943B951648FDF76DF820B107
:1046A0004FF4D07115A0FCF7BDF8002230A91148D5
:1046B000FCF7B8FF20B140F2A71110A0FCF7B2F848
:1046C00000220E215820FDF7B8F95820FDF7A1F976
:1046D0003DB0BDE8F08F0000E444025800200258CD
:1046E0000024025800280258B100002426000024AB
:1046F00028000024BC010024001000502E2E5C2E47
:104700002E5C557365725C6273705C7372635C627D
:1047100073705F7466745F68372E63002DE9F0472D
:1047200006460F4690469A460320A0EB480900240F
:10473000454646E07A1991B2321990B2524600F0DD
:1047400065F97A1B91B2321990B2524600F05EF9C7
:104750007A1991B2321B90B2524600F057F97A1B87
:1047600091B2321B90B2524600F050F93A1991B210
:10477000721990B2524600F049F93A1B91B272197F
:1047800090B2524600F042F93A1991B2721B90B2BF
:10479000524600F03BF93A1B91B2721B90B252465E
:1047A00000F034F9B9F1000F04DA062000EB8400C0
:1047B000814405E0601B0A2101EB800081446D1EED
:1047C000641CAC42B6D9BDE8F0872DE9F04105463E
:1047D000884616461F46002407E0291988B23A4643
:1047E000414600F013F9601C84B2B442F5DBBDE829
:1047F000F0812DE9F04105460E4617461C46DDF8CE
:1048000018804346224631462846FFF7DEFF291925
:10481000491E88B243463A46314600F010F8F01976
:10482000401E81B2434622462846FFF7CEFF43464C
:104830003A463146284600F002F8BDE8F0812DE9FD
:10484000F04180460D4616461F46002407E0281911
:1048500081B23A46404600F0D9F8601C84B2B442B6
:10486000F5DBBDE8F08100002DE9FE4F804689466A
:1048700015461E46DDF830B0002002903A48007818
:1048800088B93A48008800FB098039490968022242
:1048900002FB0010029035480088801B1FFA80FA46
:1048A0002F46344654E03048007801281BD1314867
:1048B0000088401BA0EB09002C4909882B4A12886C
:1048C00002FB0010A0EB0800801B294909680222A6
:1048D00002FB0010029025480088801B1FFA80FA16
:1048E0002F46344634E020480078022816D11F486D
:1048F0000088A0EB0800801B1E49098801FB00907E
:104900001B490968022202FB001002901948008826
:10491000401B1FFA80FA37462C4619E012480078EF
:10492000032815D1134800881249098801FB0800A3
:10493000401BA0EB09000E490968022202FB00108F
:1049400002900C480088401B1FFA80FA37462C461C
:104950003B462246CDE900AB074800780299FBF7B9
:1049600001FEBDE8FE8F00002B000024280000247B
:1049700020000024260000242400002408B500BFE5
:104980001148006840F010000F49086008460068B0
:1049900000F01000009000BF00BF4FF440300B4902
:1049A00048600221094881600021C1600848074928
:1049B00008600846FCF754FC20B140F23E4105A0D7
:1049C000FBF730FF08BD0000D44402586402002405
:1049D000001000522E2E5C2E2E5C557365725C62A8
:1049E00073705C7372635C6273705F7466745F682B
:1049F000372E630010B5FFF7F9FCFFF7BFFF00206B
:104A000000F090F800F04AF810BD0000F0B5002367
:104A10001E4D2C681E4D2D7825B91E4D2D8801FB8D
:104A2000050329E01A4D2D78012D0CD1194D2D8843
:104A30002D1A6D1E184E3688761A761E154F3F8831
:104A400006FB075318E0124D2D78022D08D1114DA9
:104A50002D882D1A6D1E104E368805FB06130BE0AF
:104A60000B4D2D78032D07D10B4D2D880A4E36881E
:104A700000FB06556D1A6B1E074D2D88054E3688B6
:104A800075439D4201D924F81320F0BD2000002475
:104A90002B000024280000242600002410B508481C
:104AA000037808480288084801880848FCF729FF6D
:104AB00003480378002211460448FCF7ECFE10BDC1
:104AC000240000242600002428000024BC01002427
:104AD00008B101280ED1114A1288114B1B889A4245
:104AE0001ADA0E4A11880E4A12880C4B1A800C4AA8
:104AF000118011E0022801D003280DD1074A128845
:104B0000074B1B889A4207DD044A1188044A128821
:104B1000024B1A80024A11807047000028000024CE
:104B20002600002438B94FF04041074A11600021A7
:104B3000064A117007E0012805D10549024A1160B3
:104B40000121024A11707047200000242400002433
:104B5000000020C010B504462046FFF737FC10BD0A
:104B60002DE9FC4104460D4616461F4600200090E4
:104B70003B46324629460190204600F002F8BDE847
:104B8000FC812DE9FF4FADB0074616461C46DDF807
:104B9000E88000200990089004900390207807286E
:104BA00028D2DFE800F0040C141C242526000C2079
:104BB0000890099001200490022003901AE0102030
:104BC00008900990012004900220039012E0182020
:104BD0000890099002200490032003900AE020200E
:104BE00008900990022004900420039002E000BF86
:104BF00000BF00BF00BF2146304600F011F9054656
:104C00004FF00009A84510DD3B98022804D1A8EB1D
:104C100005001FFA80F908E03B98012805D1A8EBB0
:104C2000050000EBD071C1F34F09B9F1000F0EDDA3
:104C3000204600F0BEF80290A0884B46009038460F
:104C4000029A2E9900F0A3F807EB090087B2A84555
:104C500010DD204600F0ADF80290A088A8EB050119
:104C6000A1EB09018BB27919009088B2029A2E99B2
:104C700000F08DF864E096F800B0BBF1800F0DDA1B
:104C800021780CAA584602F05BFF099800EBD0711E
:104C9000C1F347010B910498059010E0701C064683
:104CA00000782C902C9800B94DE022780CAB584637
:104CB0002C9902F0A7FF09980B90039805902E9865
:104CC000069000200A9031E007974FF0000A22E09A
:104CD00005990A98484300EBDA000CA9085C0AF031
:104CE000070280211141084028B16288DDE90610E1
:104CF00000F007F909E0A08849F69911884204D02C
:104D0000A288DDE9061000F0FCF80798401C80B28C
:104D100007900AF1010A0B988245D9D30698401CE6
:104D200080B206900A98401C80B20A9008990A98AE
:104D30008842C9DBE1880B980844384487B2761C66
:104D40003078002897D100BF31B0BDE8F08F2DE951
:104D5000F04104460D4616461F463B46324629465C
:104D60002046FFF7DBFCBDE8F0812DE9F84304465F
:104D70000D4616461F46DDF820803B463246294642
:104D80002046CDF80080FFF734FDBDE8F8832DE91B
:104D9000F84304460D4616461F46DDF820803B4684
:104DA000324629462046CDF80080FFF75DFDBDE87C
:104DB000F883014610200A78072A10D2DFE802F0B3
:104DC00004060A0C07090D000C2008E000BF1020A3
:104DD00005E000BF182002E000BF202000BF00BF98
:104DE0007047014610200A78072A10D2DFE802F047
:104DF00004060A0C07090D000C2008E000BF102073
:104E000005E000BF182002E000BF202000BF00BF67
:104E10007047000001480088704700002600002409
:104E20002DE9F04707460E463D464FF00008304654
:104E3000FFF7D7FF82463EE02C78802C2ADA3078C4
:104E4000072823D2DFE800F016191C1F040A1000FF
:104E5000A4F120001B4911F800A01AE0A4F12000E1
:104E6000194911F800A014E0A4F12000174911F825
:104E700000A00EE04FF0060A0BE04FF0080A08E031
:104E80004FF00C0A05E04FF0100A02E04FF0080A5C
:104E900000BF0BE0681C054690F80090B9F1000FC8
:104EA00000D10BE03046FFF79CFF824608EB0A007A
:104EB0001FFA80F86D1C28780028BDD100BF40463D
:104EC000BDE8F087D2B7040832B8040892B80408E5
:104ED000014800887047000028000024704710B582
:104EE000FFF7FCFFFFF786FD002000F01FF8002011
:104EF000FFF730FE10BD014609B9022070470220BD
:104F0000FCE770B504460D46164632462946204653
:104F1000FFF77CFD70BD000010B504460248047028
:104F2000007800F00DF810BD2A00002410B50446EA
:104F3000024804702046FFF7CBFD10BD2B00002473
:104F40007CB5044642F210706043FF2190FBF1F5FE
:104F500044F620600123044A491CCDE900050348BA
:104F600004F06CF87CBD0000000001400000025815
:104F700010B50248FCF786FB10BD0000BC01002400
:104F8000F0B58E880768FF68C7F30B473E443304CB
:104F900006688436802707FB0266766806F4704749
:104FA000066884364FF0800C0CFB026677600E6852
:104FB0000768FF68C7F30B473E44761C1E4307682B
:104FC00084370CFB02777E608E890768FF68C7F321
:104FD0000A073E44330406688436802707FB0266CE
:104FE000B66806F47047066884360CFB0266B76044
:104FF0008E680768FF68C7F30A073E44761C46EAD6
:105000000307066884360CFB0266B76006688436C0
:10501000802707FB0266366926F007070668843694
:105020000CFB026637610F69066884360CFB02666A
:1050300037613126765C33023226765C34040E7E8C
:10504000350606688436802707FB0266B6690027A6
:10505000066884360CFB0266B76191F830601E4327
:10506000264346EA0507066884360CFB0266B761EC
:1050700006688436802707FB0266766926F0FF07FC
:10508000066884360CFB026677614F6906688436D1
:105090000CFB0266776106688436802707FB026690
:1050A000F66940F20777BE43076884370CFB027746
:1050B000FE61D1E907763743066884360CFB026649
:1050C000F76106688436802707FB0266B66A002708
:1050D000066884360CFB0266B7624F6A066884363F
:1050E0000CFB0266B7620E690EB9042313E00E6969
:1050F000012E01D103230EE00E69042E08D00E69A3
:10510000022E05D00E69032E02D00E69072E01D1A2
:10511000022300E0012306688436802707FB02662D
:10512000F66A06F0E027066884364FF0800C0CFB28
:105130000266F762D1E90076F61B5E43F61D0F8D1D
:105140005F4346EA0747066884360CFB0266F7624F
:1051500006688436802707FB0266366BF70AFF0273
:10516000066884360CFB02663763CF6A06688436AD
:105170000CFB0266376306688436D701F65946F0A1
:105180000107066884364FEAC21C46F80C70F0BD71
:105190001FB5FCF719FC01208DF800004FF01050EE
:1051A000019012208DF8080003208DF80B000120DB
:1051B0008DF80F008DF80E0000208DF80D008DF891
:1051C000010001208DF80A0000208DF809008DF8FB
:1051D0000C006846FCF7CAFB01208DF800004FF078
:1051E000C04001900F208DF8080003208DF80B00BF
:1051F00001208DF80F0000208DF80E008DF80D00B5
:1052000001208DF8010000208DF80A008DF80900BA
:105210008DF80C006846FCF7A9FB01208DF8000012
:105220004FF04040019018208DF8080003208DF8C1
:105230000B0000208DF80F0001208DF80E000020DB
:105240008DF80D0002208DF8010000208DF80A0075
:105250008DF809008DF80C006846FCF787FB0420E8
:10526000FCF7C2FB1FBD00BFFEE7704770470000A0
:1052700010B508A002F018FD09A002F015FD11A05C
:1052800002F012FD18A002F00FFD1FA002F00CFDAD
:1052900010BD0000B2D9D7F7CCE1CABE3A0D0A0062
:1052A000312E20D2A1B8CBC9CFBCFCA3ACD4F6BC64
:1052B000D34C4344B1B3BEB0B9E2C1C1B6C80D0AC4
:1052C00000000000322E20D2A1B8CBCFC2BCFCA37C
:1052D000ACBDB5B5CD4C4344B1B3BEB0B9E2C1C16C
:1052E000B6C80D0A00000000332E20D2A1B8CBD7DB
:1052F000F3BCFCA3ACB5E7D7E8B4A5C3FEC6C1D0E8
:10530000A3D7BC0D0A000000342E20D2A1B8CB4F89
:105310004BBCFCA3ACC7E5C6C10D0A002DE9F041AA
:1053200023A002F0C1FC32480468001D0568001D7E
:105330000668304800683049B0FBF1F739462FA0C5
:1053400002F0B2FC23462A46314638A002F0ACFCFB
:105350003BA002F0A9FC16A002F0A6FC39A147A0D0
:1053600002F0A2FC4AA14BA002F09EFC4EA151A06B
:1053700002F09AFC54A002F097FC5FA002F094FCAB
:105380005FA002F091FC64A002F08EFC67A002F026
:105390008BFC6DA002F088FC72A002F085FC79A065
:1053A00002F082FC02A002F07FFCBDE8F081000068
:1053B0002A2A2A2A2A2A2A2A2A2A2A2A2A2A2A2A4D
:1053C0002A2A2A2A2A2A2A2A2A2A2A2A2A2A2A2A3D
:1053D0002A2A2A2A2A2A2A2A2A2A2A2A2A2A2A2A2D
:1053E0002A2A2A2A2A2A2A2A2A2A2A2A2A0A0D0084
:1053F00000E8F11FCC00002440420F000D0A43508A
:1054000055203A2053544D333248373433584948A5
:10541000362C204247413234302C20D6F7C6B53ADC
:105420002025644D487A0D0A0000000055494420AB
:105430003D20253038582025303858202530385820
:105440000A0D000056372D4C4344B5C4B5E7D7E8E4
:10545000B4A5C3FEBACDB5E7C8DDB4A5C3FEA3A805
:10546000B5E7D7E8B4A5C3FED6A7B3D632B5E3BA3D
:10547000CD34B5E3D0A3D7BCA3A900002A20C0FD3A
:10548000B3CCC3FBB3C62020203A2025730D0A00FD
:10549000312E30002A20C0FDB3CCB0E6B1BE2020B2
:1054A000203A2025730D0A00323032302D31322D52
:1054B000333100002A20B7A2B2BCC8D5C6DA2020FA
:1054C000203A2025730D0A002A2048414CBFE2B043
:1054D000E6B1BE20203A2056312E392E30202853F6
:1054E000544D3332483778782048414C2044726913
:1054F000766572290D0A00002A200D0A00000000BE
:105500002A205151202020203A2031323935373499
:1055100034363330200D0A002A20CDFACDFA20206F
:105520003A2061726D666C790D0A00002A20456D83
:1055300061696C203A2061726D666C794071712EE0
:10554000636F6D200D0A00002A20CEA2D0C5B9AB32
:10555000D6DABAC53A2061726D666C795F636F6D99
:10556000200D0A002A20CCD4B1A6B5EA3A206172F7
:105570006D666C792E74616F62616F2E636F6D0D55
:105580000A0000002A20436F7079726967687420EE
:105590007777772E61726D666C792E636F6D20B0B0
:1055A000B2B8BBC0B3B5E7D7D30D0A002DE9F041BF
:1055B00004460E4600275548006800F00300032803
:1055C00002D10120BDE8F08150482838006820F061
:1055D00080604E4928390860FBF7B6FF054606E0B3
:1055E000FBF7B2FF401B022801D90320EAE7474836
:1055F00028380068C0F3C0600028F1D100BF4348DC
:10560000006820F47C30216840EA01303F4908609E
:10561000A088401EC0F30800A168491E4FF47E42D6
:1056200002EA41210843A189491ED20102EA01414F
:105630000843217C491E120202EA016108433349F2
:105640001031086000BF3148001D006820F0C00024
:10565000616908432D49091D08600846006820F06B
:105660002000A16908432949091D0860084600680F
:1056700020F0100008602548143000684FF6F871DB
:105680008843E16940EAC1002049143108601F489D
:10569000001D006840F010001C49091D08602EB96B
:1056A0000846006840F40020086012E0012E08D18E
:1056B0001648001D006840F480101449091D086058
:1056C00007E01248001D006840F400100F49091D52
:1056D00008600E482838006840F080600B4928397F
:1056E0000860FBF731FF054606E0FBF72DFF401B86
:1056F000022801D9032065E7044828380068C0F370
:10570000C0600028F1D038465CE700002844025809
:105710002DE9F04104460E4600275548006800F088
:105720000300032802D10120BDE8F0815048283849
:10573000006820F080504E4928390860FBF704FFCC
:10574000054606E0FBF700FF401B022801D90320B5
:10575000EAE7474828380068C0F340700028F1D1D4
:1057600000BF4348006820F07C70218840EA015067
:105770003F490860A088401EC0F30800A168491E88
:105780004FF47E4202EA41210843A189491ED20119
:1057900002EA01410843217C491E120202EA01612A
:1057A000084333491831086000BF3148001D0068C4
:1057B00020F44060616908432D49091D08600846CE
:1057C000006820F40070A16908432949091D086098
:1057D0000846006820F48070086025481C30006886
:1057E0004FF6F8718843E16940EAC10020491C3155
:1057F00008601F48001D006840F480701C49091DA6
:1058000008602EB90846006840F48000086012E085
:10581000012E08D11648001D006840F4000014490C
:10582000091D086007E01248001D006840F0807004
:105830000F49091D08600E482838006840F0805064
:105840000B4928390860FBF77FFE054606E0FBF7A9
:105850007BFE401B022801D9032065E70448283855
:105860000068C0F340700028F1D038465CE70000C3
:105870002844025800B587B000BF0D48006840F0CA
:1058800002000B4908600846006800F00200019021
:1058900000BF00BF0120039000200490032005906A
:1058A0000420029002A90348FBF73EFD07B000BDAB
:1058B000E0440258000402587047000004200149E7
:1058C00008607047180402584FF4802001490860AE
:1058D000704700001804025800B587B000BF49485F
:1058E000006840F00800474908600846006800F07A
:1058F0000800019000BF00BF00BF0846006840F0EC
:10590000100008600846006800F01000019000BF19
:1059100000BF00BF0846006840F02000086008464D
:10592000006800F02000019000BF00BF00BF0846E3
:10593000006840F0400008600846006800F0400041
:10594000019000BF00BF00BF0846006840F0800023
:1059500008600846006800F08000019000BF00BFAA
:1059600000BF0846006840F4807008600846006880
:1059700000F48070019000BF00BF00BF21480C38C8
:10598000006840F480501F490C39086008460068E0
:1059900000F48050019000BF00BF0220039001205E
:1059A0000490032005900C2006904CF203700290A6
:1059B00002A91548FBF7B8FC4FF68370029002A9C4
:1059C0001248FBF7B1FC4FF63F00029002A91048C5
:1059D000FBF7AAFC48F23310029002A90D48FBF72E
:1059E000A3FC4FF62C70029002A90B48FBF79CFC1D
:1059F00040F2FF60029002A90848FBF795FC07B04F
:105A000000BD0000E0440258000C0258001002588B
:105A10000014025800180258001C025800200258B6
:105A200038B505460C46002000900120206010206B
:105A300060600120A0600020E0604FF6FF72214608
:105A40002846FDF74BFF0120FBF750FC02202060A9
:105A5000102060600120A0600020E0604FF6FF721F
:105A600021462846FDF73AFF0320206010206060A1
:105A70000820A0600020E0604FF6FF722146284613
:105A8000FDF72CFF4FF40C700090042020601020D4
:105A900060600120A0600098E0604FF6FF72214630
:105AA0002846FDF71BFF40F207612846FDF7FBFE85
:105AB00038BD10B5FF210B2000F002F910BD10B564
:105AC00000F0C6F80021042000F0FAF84821202058
:105AD00000F0F6F8142002F0B9FB0121212000F0BB
