:020000040800F2
:10000000A0190020AD020008131E0008893800085E
:10001000111E0008E1030008E92B000800000000A1
:100020000000000000000000000000002720000881
:100030002904000800000000151E000829200008FF
:10004000C7020008C7020008C7020008C70200086C
:10005000C7020008C7020008C7020008C70200085C
:10006000C7020008C7020008C7020008C70200084C
:10007000C7020008C7020008C7020008C70200083C
:10008000C7020008C7020008C7020008C70200082C
:10009000C7020008C7020008C7020008C70200081C
:1000A000C7020008C7020008C7020008C70200080C
:1000B00047210008C7020008C7020008C70200085D
:1000C000C7020008C7020008C7020008C7020008EC
:1000D000C7020008BB2A0008C7020008C7020008C0
:1000E000C7020008C702000800000000C70200089D
:1000F000C7020008C7020008C7020008C7020008BC
:10010000C7020008C7020008C7020008C7020008AB
:10011000C7020008C7020008C7020008C70200089B
:10012000C7020008C7020008C7020008C70200088B
:10013000C7020008C7020008C7020008C70200087B
:1001400000000000000000000000000000000000AF
:10015000C7020008C7020008C7020008C70200085B
:10016000C7020008C7020008C7020008C70200084B
:10017000C7020008C7020008C7020008000000000C
:10018000C7020008C7020008C7020008C70200082B
:10019000C7020008C7020008C7020008C70200081B
:1001A000C7020008C7020008C7020008C70200080B
:1001B000C7020008C7020008C7020008C7020008FB
:1001C000C7020008C7020008C7020008C7020008EB
:1001D000C7020008C7020008C7020008C7020008DB
:1001E000C7020008C7020008C7020008C7020008CB
:1001F000C7020008C7020008C7020008C7020008BB
:10020000C7020008C7020008C7020008C7020008AA
:10021000C7020008C7020008C7020008C70200089A
:10022000C7020008C7020008C7020008000000005B
:10023000C7020008C702000800000000C70200084B
:10024000C7020008C7020008C7020008C70200086A
:10025000C7020008C7020008C7020008C70200085A
:10026000C7020008C7020008C7020008C70200084A
:10027000C7020008C7020008C7020008000000000B
:10028000C702000800000000C702000800000000CC
:1002900000000000C7020008DFF80CD000F08EF864
:1002A00000480047F5350008A0190020064880479F
:1002B00006480047FEE7FEE7FEE7FEE7FEE7FEE74B
:1002C000FEE7FEE7FEE7FEE7DB20000899020008F4
:1002D0002DE9F05F0546002092469B46884606467B
:1002E000814640241BE0284641464746224600F00E
:1002F00054F853465A46C01A914110D31146184635
:10030000224600F03BF82D1A67EB01084F462246C3
:100310000120002100F032F817EB00094E41201EA9
:10032000A4F10104DFDC484631462A464346BDE8D5
:10033000F09F00000649074A0868504343F239021B
:100340001044086040087047014908607047000089
:10035000000000206D4EC641D2B201E000F8012B32
:10036000491EFBD270470022F6E710B513460A4635
:1003700004461946FFF7F0FF204610BD202A04DB93
:10038000203A00FA02F1002070479140C2F12003A8
:1003900020FA03F3194390407047202A04DB203AE7
:1003A00021FA02F00021704721FA02F3D040C2F195
:1003B000200291400843194670470000064C074D43
:1003C00006E0E06840F0010394E807009847103425
:1003D000AC42F6D3FFF764FFA0400008C04000081D
:1003E000FEE70000082804D240B207A151F820001F
:1003F000704780B544F27B00C0F600004FF48E7168
:1004000000F014F8002080BD7408002000000000F7
:1004100000000000000000000000000000000000DC
:1004200000000000000000007047000009B100BF9C
:10043000FEE77047B3F5804F03461AD180B5002020
:1004400053F822C0CCF6F0700CEA000CD1E9000E93
:1004500040EA0C00D1F808C040EA0E10D1F80CE0D8
:1004600040EA0C20896940EA0E400143BDE8804023
:1004700001E06FF07041002043F8221070472DE931
:10048000F043D1E9002C40F28045D1E9023ED1E9A8
:100490000489D1E9066750F82240CFF6C0752C4098
:1004A00044EA0C051D4345EA0E0545EA080545EA00
:1004B00009052E4337430E6A37434E6A37438E6A27
:1004C0003743CE6A37430E6B37438E6B37434E6BE1
:1004D0003743082B08BF47F0400740F822700A6BEB
:1004E000B2F5801F05D10A684AB1026842F4801251
:1004F00002600A681AB1496B02681143016000206A
:10050000BDE8F083F0B500EB82035A6840F2000CBE
:1005100002F0404E0D684C6945EA0E054E6804F144
:10052000FE078C6845EA06160A69CFF6F07CCD68AE
:1005300046EA04260CEB025246EA05468D69324330
:100540002A4342EA07625A600268D20207D542682B
:10055000096922F470020CEB015111434160002043
:10056000F0BD40F22040C5F60000016841F00101F5
:10057000016070472DE9F04F82B000F1264242F24F
:10058000004702F1FF72C5F602074FEAB2230A26BE
:10059000B84208BF092644F2F44A40F2040C092B81
:1005A00038BF4FEAB226002300964FF0010B002718
:1005B000C5F6020AC5F6000C002400BF0BFA04FEC3
:1005C0000D6815EA0E0F00F09480D1F8048048F011
:1005D0001005122D14D16FF0030202EA54050544F0
:1005E00007F01C02D5F820800F26964028EA06085E
:1005F0000E6906FA02F242EA08022A62D1F8048081
:10060000032502689D4008F00306AA439E4032433A
:10061000B8F1120F02606FEA050913D80BFA08F25D
:1006200012F0061F0ED08268CD6802EA09029D40D2
:100630002A4382604268C8F3001522EA0E02A540F0
:100640002A434260C2688D6802EA09029D402A433B
:100650005FEAC805C2604CD5DAF8002040F20846CF
:1006600042F00202CAF80020C5F60006DAF80020BF
:10067000B14602F00202019224F00302019D07F04C
:100680000C0552F806800F26AE4028EA0608009EA8
:1006900006FA05F545EA080542F809504FF0B04959
:1006A000DCF87C804D6848EA0E06EA0358BF28EA69
:1006B0000E06CCF87C60AA03DCF8808048EA0E06BF
:1006C00058BF28EA0E06CCF88060D9F80080EA020C
:1006D00048EA0E0658BF28EA0E06C9F80060DCF8A2
:1006E0000020AD0242EA0E0658BF22EA0E06CCF800
:1006F000006001340437102C03F102037FF45EAF75
:1007000002B0BDE8F08F40F69C10C2F20000006815
:10071000704740F21000C2F2000040F69C110078D1
:10072000C2F200010A6810440860704780B50320D7
:1007300000F0BBF80F2000F007F808B1012080BDE1
:1007400000F078F8002080BDB0B540F21001C2F290
:10075000000109784FF47A720446B2FBF1F140F2DD
:100760000802C2F200021268B2FBF1F1084601F081
:10077000ECF90F2C4FF001050CD858B94FF0FF30B1
:1007800000222146002500F065F840F21400C2F274
:10079000000004602846B0BD02784EF6985C4378AD
:1007A000CEF2000C002ACCF8003020D080B543688F
:1007B000CCF80430037BC17A90F80AE042EA037275
:1007C000437B42EA0161827B41EACE4190F80FE02F
:1007D00041EA8341437A41EA4241007A41EA0E41CB
:1007E00041EA032141EA4000BDE8804002E00020E8
:1007F000CCF80400CCF8080070474EF62450BFF344
:100800005F8FCEF20000016821F480310160002189
:10081000016770474EF6245140F00100CEF200010E
:100820000867086840F480300860BFF34F8FBFF35B
:100830006F8F7047704700280BDB00F01F0101220B
:1008400002FA01F14EF200124009CEF2000242F823
:100850002010704710B54EF60C5CCEF2000CDCF8A0
:100860000030C3F3022E8EF00704042C28BF0424AA
:10087000BEF103034FF0FF3E38BF00230EFA04F42D
:10088000A14399400EFA03F39A4300F00F03043B8F
:100890001143634409010C3300F16042B0F1FF3FA2
:1008A000C8BF02F56443197010BD4EF60C51CEF26C
:1008B00000010A684FF6FF031A4060F30A2242F073
:1008C000806040F0FD700860704780B500F06CFEFD
:1008D00044F21841C5F60201096843F66452C1F3B7
:1008E0000321C0F60002515CC84040F20801C2F288
:1008F0000001086080BD80B500F00AFE44F220418E
:10090000C5F60201096843F66452C1F30211C0F64C
:100910000002515CC84080BD80B544F2004EC5F66F
:10092000020EDEF82830DEF8282003F00303C2F3BD
:10093000053CDEF82C20DEF83C1002F01002C1F37A
:10094000CC01022B02FB01F100EE101AB8EE400AB6
:100950000ED093B9DEF8001049F200038906C0F208
:10096000D0330ED5DEF80010C1F3C101CB4008E052
:1009700047F64003C0F27D1303E040F60013C0F2D7
:100980003D03B3FBFCF19FED223A01EE101AB8EEE5
:10099000411ADEF838106FF35F2102EE101AB8EE3C
:1009A000422ADEF83810C1F3462100EE032AB7EEE2
:1009B000000A013132EE000A20EE010A01EE101A9F
:1009C000B8EE411A80EE011ABCEEC11A80ED001A91
:1009D000DEF83810C1F30641013101EE101AB8EE0D
:1009E000411A80EE011ABCEEC11A80ED011ADEF840
:1009F0003810C1F30661013101EE101AB8EE411A48
:100A000080EE010ABCEEC00A80ED020A80BD00BF84
:100A10000000003980B544F2004EC5F6020EDEF843
:100A20002830DEF8282003F00303C2F3055CDEF86B
:100A30002C20DEF8441002F48072C1F3CC01022BAA
:100A400002FB01F100EE101AB8EE400A0ED093B985
:100A5000DEF8001049F200038906C0F2D0330ED54B
:100A6000DEF80010C1F3C101CB4008E047F64003B7
:100A7000C0F27D1303E040F60013C0F23D03B3FB68
:100A8000FCF19FED223A01EE101AB8EE411ADEF8A1
:100A900040106FF35F2102EE101AB8EE422ADEF822
:100AA0004010C1F3462100EE032AB7EE000A0131DF
:100AB00032EE000A20EE010A01EE101AB8EE411AD9
:100AC00080EE011ABCEEC11A80ED001ADEF840106B
:100AD000C1F30641013101EE101AB8EE411A80EE61
:100AE000011ABCEEC11A80ED011ADEF84010C1F304
:100AF0000661013101EE101AB8EE411A80EE010ACA
:100B0000BCEEC00A80ED020A80BD00BF00000039C3
:100B10002DE9F0410446C07844F210480007C5F6BC
:100B2000020825D5606E4FEA305103290AD8DFE864
:100B300001F0020B1018D8F81C1041F40031C8F86D
:100B40001C100EE0012514E0201D022101F064F9C3
:100B500004E004F12400022101F0D2F9054640B975
:100B6000606ED8F8401021F440110843C8F84000E6
:100B700000256078C00701D12E4629E0606D042869
:100B80000DD82E46DFE800F0030D12181800D8F833
:100B90001C002E4640F40030C8F81C000CE0012672
:100BA0000BE0201D002101F037F904E004F12400DE
:100BB000002101F0A5F906460EB1354308E0D8F84A
:100BC0004000002620F00700616D0843C8F840008F
:100BD0006078800729D5A06D4FEAB01004280BD8A3
:100BE000DFE800F0030C11171700D8F81C0040F4E0
:100BF0000030C8F81C000CE001260BE0201D00218D
:100C000001F00AF904E004F12400002101F078F970
:100C100006460EB1354308E0D8F84000002620F41F
:100C2000E070A16D0843C8F84000607840072BD5FC
:100C3000D4F8A4004FEA705004280BD8DFE800F085
:100C4000030C11171700D8F81C0040F40030C8F846
:100C50001C000CE001260BE0201D002101F0DCF857
:100C600004E004F12400002101F04AF906460EB127
:100C7000354309E0D8F84800002620F46000D4F895
:100C8000A4100843C8F84800607800072BD5D4F8B2
:100C9000A8004FEA306004280BD8DFE800F0030C0E
:100CA00011171700D8F81C0040F40030C8F81C00D9
:100CB0000CE001260BE0201D002101F0ADF804E05E
:100CC00004F12400002101F01BF906460EB1354362
:100CD00009E0D8F84800002620F0E060D4F8A81019
:100CE0000843C8F84800E078800722D5A06C4FEA96
:100CF000301003280AD8DFE800F010020B10D8F8F3
:100D00001C0040F40030C8F81C0006E0012605E095
:100D1000201D022101F080F806460EB1354308E09F
:100D2000D8F83C00002620F03000A16C0843C8F839
:100D30003C006078C00629D5E06D4FEA30300428C9
:100D40000BD8DFE800F0030C11171700D8F81C00CF
:100D500040F40030C8F81C000CE001260BE0201D18
:100D6000002101F059F804E004F12400002101F011
:100D7000C7F806460EB1354308E0D8F84000002613
:100D800020F4E040E16D0843C8F840006078800638
:100D900022D5206E4FEA3040052809D8DFE800F060
:100DA00010030A101010201D012101F035F806E093
:100DB000012606E004F12400012101F0A1F8064615
:100DC0000EB1354308E0D8F84000002620F4E020BA
:100DD000216E0843C8F840006078400624D5D4F856
:100DE000AC004FEA3070052809D8DFE800F01003A6
:100DF0000A101010201D012101F00EF806E0012656
:100E000006E004F12400012101F07AF806460EB153
:100E1000354309E0D8F84800002620F0E040D4F837
:100E2000AC100843C8F848006078000620D5E06E92
:100E300088B1B0F1005F09D0B0F1805F16D1D8F869
:100E40001C0040F40030C8F81C0004E0201D012103
:100E500000F0E2FF064656B9D8F84000002620F020
:100E60004050E16E0843C8F8400001E001263543D8
:100E7000E078C00720D0606C03280AD8DFE800F0D3
:100E800010020B10D8F81C0040F40030C8F81C0009
:100E900006E0012605E0201D022100F0BDFF064608
:100EA0000EB1354308E0D8F83C00002620F00300DE
:100EB000616C0843C8F83C00A078400615D5D8F806
:100EC000F00340F48070C8F8F003FFF71CFC0746FD
:100ED000D8F8F003C00506D4FFF715FCC01B642842
:100EE000F6D9032600E096B135432078C00753D0E9
:100EF000A06F4FEAF00005283AD8DFE800F0410380
:100F00003B414141201D012100F086FF37E0D8F828
:100F10006010D4F8B000414011F4407F11D0D8F8EF
:100F20006010D8F8602021F4407142F48032C8F893
:100F30006020D8F8602022F48032C8F86020C8F819
:100F40006010B0F5807F40F0EE81FFF7DCFB0646D5
:100F500041F28837D8F86000800700F1E281FFF79E
:100F6000D2FB801BB842F5D945F003050326BCE748
:100F7000012606E004F12400012100F0C1FF06462D
:100F80000EB1354308E0D8F84400002620F03800C0
:100F9000A16F0843C8F844002078800720D5606F0F
:100FA000052809D8DFE800F010030A101010201DF2
:100FB000012100F031FF06E0012606E004F12400E3
:100FC000012100F09DFF06460EB1354308E0D8F838
:100FD0004400002620F00700616F0843C8F8440071
:100FE0002078400722D5D4F89000052809D8DFE8FA
:100FF00000F010030A101010201D012100F00CFF5A
:1010000006E0012606E004F12400012100F078FF4B
:1010100006460EB1354309E0D8F84800002620F016
:101020000700D4F890100843C8F8480020788006DC
:1010300024D5D4F88C004FEA3070052809D8DFE8B1
:1010400000F010030A101010201D002100F0E4FE33
:1010500006E0012606E004F12400022100F050FF22
:1010600006460EB1354309E0D8F84400002620F0CA
:10107000E040D4F88C100843C8F8440020784006BB
:1010800024D5D4F898004FEAB020052809D8DFE825
:1010900000F010030A101010201D002100F0BCFE0B
:1010A00006E0012606E004F12400022100F028FFFA
:1010B00006460EB1354309E0D8F84800002620F472
:1010C000E050D4F898100843C8F84800207800068B
:1010D00024D5D4F89C004FEA7030052809D8DFE801
:1010E00000F010030A101010201D002100F094FEE3
:1010F00006E0012606E004F12400022100F000FFD2
:1011000006460EB1354309E0D8F84800002620F421
:101110006040D4F89C100843C8F8480020680107D4
:1011200013D5D4F88010B1F5805F07D104F1240005
:10113000022100F0E5FE0543206806E0D8F84420CF
:1011400022F440521143C8F84410C10613D5D4F814
:101150009410B1F5807F07D104F12400022100F042
:10116000CFFE0543206806E0D8F8482022F44072FC
:101170001143C8F84810000321D5D4F8A000B0F5F9
:10118000003F0ED0B0F5803F05D0B0B9201D002142
:1011900000F042FE04E004F12400022100F0B0FE61
:1011A00006465EB9D8F84800002620F44030D4F84E
:1011B000A0100843C8F8480001E001263543A07894
:1011C000400725D5D4F88400B0F5401F12D0B0F503
:1011D000001F09D0B0F5801F18D1D8F81C0040F4CA
:1011E0000030C8F81C0005E004F12400012100F0E3
:1011F00087FE06465EB9D8F84400002620F4401069
:10120000D4F884100843C8F8440001E001263543AF
:10121000A078C0071DD0E06CB0F5803F07D0B0B912
:10122000D8F81C0040F40030C8F81C0004E0201D71
:10123000022100F0F1FD064656B9D8F83C00002620
:1012400020F48030E16C0843C8F83C0001E001263E
:1012500035432068810006D504F12400022100F006
:101260004FFE0543206881031CD5E16F6FF001023A
:1012700002EB3122022A0AD34FEA31223AB1012A83
:101280000ED1D8F81C2042F40032C8F81C2046B910
:10129000D8F8442022F440721143C8F8441001E009
:1012A00001263543C10207D5D8F8401021F000418E
:1012B000226F1143C8F84010C10008D5D8F80010BB
:1012C00021F48041D4F8B4201143C8F80010810201
:1012D00007D5D8F8401021F08071A26E1143C8F8EC
:1012E000401041000CD5D8F8001021F40041C8F896
:1012F0000010D4F8B810D8F800201143C8F8001036
:10130000B0F1FF3F07DCD8F83C0020F04050216DE1
:101310000843C8F83C00002D18BF01252846BDE849
:10132000F081D4F8B00000F44071D8F80020B1F595
:10133000407F22F47C5106D14FF6CF72C0F2FF02FB
:1013400002EA10121143C8F800106FF31F30D8F8EA
:10135000601000260843C8F86000C6E52DE9F04398
:1013600081B042F20008C5F20028D8F800200D46EE
:1013700002F007028A4204460CD2D8F8000020F09E
:1013800007002843C8F80000D8F8000000F0070064
:10139000A84265D1206844F200478107C5F60207DC
:1013A00005D5B96921F00F01E2681143B961C007A1
:1013B00048D1D8F8000000F00700A8420CD9D8F8AE
:1013C000000020F007002843C8F80000D8F800000B
:1013D00000F00700A84243D12068410705D5B9694C
:1013E00021F0700122691143B961010705D5F9693E
:1013F00021F0700162691143F961C10605D5F969EF
:1014000021F4E061A2691143F961800605D5386ACB
:1014100020F07000E1690843386200F0C5F8B9694E
:1014200043F66452C1F30321C0F60002515CC84088
:1014300040F20801C2F2000108600F20FFF784F9B2
:1014400000200EE0B86920F47061D4E90102114374
:101450000328B96108D0022851D13968890306D41C
:10146000012001B0BDE8F08339688901F8D53969F8
:1014700021F0070108433861FFF745F96168064626
:10148000032941F2883911D002291DD0012929D11F
:10149000386900F0380008283FF48BAFFFF733F9C4
:1014A000801B48454FF00300F2D9DAE7386900F0B5
:1014B000380018283FF47DAFFFF725F9801B484519
:1014C0004FF00300F2D9CCE7386900F0380010285B
:1014D0003FF46FAFFFF717F9801B48454FF003004B
:1014E000F2D9BEE7386910F0380F3FF462AFFFF76A
:1014F0000AF9801B48454FF00300F3D9B1E70128F2
:10150000396802D1C905ABD5B1E74907A8D5AEE71F
:1015100080B5FFF7DAF944F21841C5F6020109680F
:1015200043F6645201F00F01C0F60002515CC8405E
:1015300040F20C01C2F20001086080BD80B5FFF7E7
:10154000C4F944F21841C5F602010A6843F664532F
:1015500002F00F02C0F600039A5CD04040F20C0289
:10156000C2F2000210604968C1F30211595CC84020
:1015700080BD80B5FFF7A9F944F21841C5F6020114
:101580000A6843F6645302F00F02C0F600039A5C47
:10159000D04040F20C02C2F2000210604968C1F370
:1015A0000221595CC84080BD44F20041C5F60201E9
:1015B0000869C0F3C20240F60010032AC0F23D00E1
:1015C0000FD0022A31D0002A5DD10868800649F286
:1015D0000000C0F2D03056D50968C1F3C101C8403F
:1015E000704780B5D1F828E08A6AC2F3051CCA6A40
:1015F0004B6B02F00102C3F3CC035A430EF003031A
:1016000000EE102A022BB8EE400ABDE8804011D04F
:10161000A3B90868800649F20000C0F2D0300DD5A9
:101620000A68C2F3C102D04008E047F64000C0F2A9
:101630007D10704747F64000C0F27D10B0FBFCF013
:101640009FED113A01EE100AB8EE411A086B6FF3E4
:101650005F2002EE100AB8EE422A086BC0F3462063
:1016600000EE032AB7EE000A013032EE000A20EE47
:10167000010A01EE100AB8EE411A80EE010ABCEE32
:10168000C00A10EE100A704700000039F0B581B0B2
:101690000446007844F20046C007C5F6020652D060
:1016A000306900F03800102806D1306880034AD530
:1016B0006068002847D128E1306900F03800182818
:1016C00004D1B06A00F003000228EED0606868B16F
:1016D000B0F5803F06D0B0F5A02F30681DD140F4A2
:1016E00080203060306840F480301CE0306820F4A6
:1016F00080303060306820F480203060FFF703F8DD
:10170000054641F2883700BF306880031BD5FEF7DD
:10171000FAFF401BB842F7D90BE120F4803030606B
:10172000306820F480203060FEF7EDFF054641F27E
:10173000883700BF3068800305D4FEF7E4FF401B04
:10174000B842F7D9F5E02078800750D5306910F01D
:10175000380F1CD0306900F03800182804BFB06A78
:101760005FEA807013D0E068002831682FD021F044
:10177000190108433060FEF7C6FF05463068400790
:101780001DD4FEF7C0FF401B0228F7D9D1E0306816
:101790004007E06802D5002800F0B780316821F0EA
:1017A000190108433060FEF7AEFF05463068400778
:1017B00005D4FEF7A8FF401B0228F7D9B9E07068EE
:1017C00020F47C30216940EA013070600FE021F0A4
:1017D00001003060FEF797FF054600BF3068400704
:1017E00005D5FEF790FF401B0228F7D9A1E020782D
:1017F000C00631D5306900F03800082806D13068BD
:10180000C00522D5E06980281FD07EE0306900F055
:101810003800182804D1B06A00F003000128EED087
:10182000E0690028306800F0B98040F08000306046
:10183000FEF769FF054600BF3068C00505D4FEF716
:1018400062FF401B0228F7D973E0706820F0F8406F
:10185000216A40EA816070602078000723D56069C2
:101860000028706F0FD040F001007067FEF74BFF4B
:10187000054600BF706F800715D4FEF744FF401B7C
:101880000228F7D955E020F001007067FEF73BFF12
:10189000054600BF706F800705D5FEF734FF401B7B
:1018A0000228F7D945E02078800622D5A0690028D3
:1018B00030680ED040F480503060FEF724FF0546BB
:1018C0003068800415D4FEF71EFF401B0228F7D9AC
:1018D0002FE020F480503060FEF715FF054600BF72
:1018E0003068800405D5FEF70EFF401B0228F7D9AB
:1018F0001FE0207840070AD4656A002D00F0D780E9
:10190000306900F03800182826D1012012E0D6F8FE
:10191000000440F48070C6F80004FEF7F4FE0546AB
:10192000D6F80004C00507D4FEF7EDFE401B64287E
:10193000F6D9032001B0F0BDA068002840D00128EE
:1019400006D00528306F40F0B48040F004003067C6
:10195000306F40F00100B2E0306820F080703060FD
:10196000FEF7D1FE022D05460CD100BF3068800184
:1019700040D5FEF7C8FE401B02284FF00300F5D902
:10198000D8E700BF3068800140F19180FEF7BBFED0
:10199000401B03284FF00300F4D3CBE720F0800076
:1019A0003060FEF7B0FE05463068C0057FF554AFE5
:1019B000FEF7A9FE401B02284FF00300F4D9B9E757
:1019C000306F20F001003067306F20F00400306786
:1019D000FEF799FE054641F2883700BF306F800759
:1019E0007FF58AAFFEF78FFE401BB8424FF0030031
:1019F000F4D99FE7B06A40F2F3318843A16A226BC1
:101A00000843511E626B4FF47E4303EB4222E36AAC
:101A10006FF35F2192B240EA0310B0625018A16BDD
:101A20004FF4FE0202EB014101F4FE010844E16BB8
:101A30004FF0FE4202EB016101F0FE4108443063C9
:101A40004FF6F871706B8843A16C40EAC100706377
:101A5000F06A20F00C00216C0843F062F06A20F07C
:101A60000200616C0843F062F06A40F48030F0627A
:101A7000F06A40F40030F062F06A40F48020F062D6
:101A8000F06A40F00100F062306840F08070306031
:101A9000FEF739FE044600BF3068800107D4FEF728
:101AA00032FE001B02284FF00300F5D942E7002068
:101AB00040E720F001003067306F20F0040030670D
:101AC000FEF721FE054641F2883700BF306F8007E0
:101AD0003FF512AFFEF717FE401BB8424FF0030070
:101AE000F4D927E770B370B5044690F84500154661
:101AF0000E4628B9002084F84400204600F024F85F
:101B0000206804F10801FEF7BAFC20683146A2689B
:101B1000FEF7F8FCD4E90102E36A2946FEF78AFCE5
:101B20002068A16850F8212042F0010240F82120ED
:101B300044F20000C5F20020016841F0004101605C
:101B4000002070BD012070477047411E0020B0EB9F
:101B5000116F01D0012070474EF21002CEF2000248
:101B600051604EF62351CEF20001F0230B70072195
:101B7000906011607047B0B110B5044690F83D0018
:101B800028B9002084F83C00204600F00EF802201E
:101B900084F83D00211D206800F020FB012084F81E
:101BA0003D00002010BD012070477047022280F8E0
:101BB0003D20014600680123028842F001020280B4
:101BC000002081F83D30704710B5B0B1044690F860
:101BD000790028B9002084F87800204600F026F823
:101BE000242084F879002068016821F00101016057
:101BF000204600F011FC012801D1012010BD606BCE
:101C000010B1204600F072FB2068416821F4904139
:101C10004160816821F02A018160016841F0010181
:101C200001602046BDE8104000F0C3BB704740F2A1
:101C30006001C2F200010968084018BF0120704726
:101C4000002906D040F26001C2F200010968084391
:101C500006E040F26001C2F20001096821EA0000DA
:101C600040F26001C2F200010860086841F2000120
:101C7000C6F20001086070474EF62452CEF2000210
:101C80009168B1F1FF3F55DD10B540F2180C1168B5
:101C9000C2F2000CCCF8201041F21C031179C4F2FE
:101CA00001030FF2A00E8CF824105179CCF8281003
:101CB0005169CCF82C10D188ACF830109168CCF870
:101CC0003410D168CCF8381091690022CCF83C105F
:101CD0001EF80210998100BF19684906FCD501322F
:101CE000292AF5D140F25C02C2F200020021116003
:101CF00011680029FCD090E80A40C468CCF80010B4
:101D0000CCF80430CCF808E0CCF80C400169CCF8F1
:101D100010104169CCF814108169CCF81810C06912
:101D2000CCF81C0000201060BDE8104010680028AE
:101D3000FCD07047916841F00041916081690231A7
:101D4000816170470D0A456E746572204861726446
:101D50004661756C745F48616E646C65722C2053CB
:101D6000797374656D2048616C742E0D0A00000053
:101D7000072826D8B0B543F69C5C0022FF21C0F6A8
:101D8000000C00230CEBC20E5CF83240BEF804508D
:101D900024692C409EF8065018BF0124651B08BF1B
:101DA0001146B5FA85F56D090132082A2B44E9D1AF
:101DB00083F0010248401043C0B2B0FA80F04009FD
:101DC000B0BD092811D008281FD141F61040C5F632
:101DD0000200D0F80004C00517D440F61000C5F684
:101DE0000200006880040ED50FE040F61000C5F632
:101DF00002000068800408D441F61040C5F60200D5
:101E00000068C00601D40120704700207047000020
:101E1000FEE7704770470000F0B581B044F200471C
:101E2000C5F60207BA6A02F00302032A01D10120B3
:101E300063E00546386820F080600C463860FEF7A5
:101E400062FC06463868000105D5FEF75CFC801B85
:101E50000228F7D94EE0B86A4FF47E43696820F44F
:101E60007C30AA68013903EB42222B686FF35F21B3
:101E700092B240EA03301144EA684FF4FE03B862BC
:101E800003EB024202F4FE02881829694FF0FE4279
:101E900002EB016101F0FE410844B863002CF86ACE
:101EA00020F0C000696940EA0100F862F86A20F099
:101EB0002000A96940EA0100F86205D0012CF86A07
:101EC00006D140F4801005E0F86A40F4002001E0FB
:101ED00040F40010F862386840F080603860FEF727
:101EE00012FC04463868000106D4FEF70CFC001B07
:101EF0000328F7D3032000E0002001B0F0BD00006C
:101F0000F0B581B044F20047C5F60207BA6A02F0A4
:101F10000302032A01D1012063E00546386820F05E
:101F200080500C463860FEF7EEFB064638688000AD
:101F300005D5FEF7E8FB801B0228F7D94EE0B86A0A
:101F40004FF47E43696820F07C70AA68013903EB86
:101F500042222B686FF35F2192B240EA0350114492
:101F6000EA684FF4FE03B86203EB024202F4FE0299
:101F7000881829694FF0FE4202EB016101F0FE4131
:101F800008443864002CF86A20F44060696940EA2B
:101F90000100F862F86A20F40070A96940EA0100C3
:101FA000F86205D0012CF86A06D140F4000005E083
:101FB000F86A40F4800001E040F08070F862386810
:101FC00040F080503860FEF79EFB04463868800081
:101FD00006D4FEF798FB001B0328F7D3032000E08C
:101FE000002001B0F0BD80B586B044F2E040C5F6F7
:101FF0000200016841F00201016001A9006800F0DF
:10200000020001900198012002900020039003201B
:1020100004900420019040F20040C5F60200FEF753
:10202000A9FA06B080BD704780B5FEF772FB40F696
:10203000A000C2F20000007818B1BDE8804000F0B6
:1020400001B880BD40F69810C2F20000016849B1A5
:1020500001680139016005D140F69410C2F2000018
:102060000121017040F664110020C2F200014FF01E
:10207000010C00BF0B185A6852B15A68013A5A60F5
:1020800006D183F801C00A5C012A01D19A685A601E
:102090000C303028EED140F67000C2F2000001682A
:1020A0006FF00042013101600168914201D10021CD
:1020B000016080B501F0B8F940F25800C2F20000AA
:1020C00001780131CAB201700A2ABDE8804038BFE8
:1020D00070470021017001F0A5B94EF6085CCEF200
:1020E000000CDCF880104EF67F5041F47001CCF803
:1020F000801044F20041C5F602010A68CEF6F620CF
:1021000042F001020A6000220A610B681840086070
:102110008A61CA610A628A62CA620A634A638A631E
:10212000CA630A644A64086820F48020086048F2A0
:1021300008100A66C5F20010012101604FF000602E
:10214000CCF80000704710B50C24C4F2000460689D
:102150002168084080070BD54FF6FD70606021684C
:102160000840206040F6A400C2F2000000688047EA
:1021700060682168084040070BD54FF6FB7060602F
:1021800021680840206040F6A800C2F20000006804
:10219000804760682168084000070BD54FF6F7704C
:1021A000606021680840206040F6AC00C2F2000088
:1021B00000688047606821680840C0060DD54FF66A
:1021C000EF70606021680840206040F6B000C2F205
:1021D00000000068BDE81040004710BDF0B540F6B3
:1021E000FF320388C4F2000240F2000E9042C4F2B3
:1021F000010E0FDCB0F1804F1AD040F20042C4F261
:102200000002904214D040F60002C4F20002904254
:102210000ED044E040F60042C4F20002904207D0E3
:1022200040F20042C4F20102904201D0704536D122
:1022300023F070024B6813430EF58042821AB2FA03
:1022400082F24FEA521C0EF588420EF59044821A33
:10225000041BB2FA82F2B4FA84F45209640923F43A
:102260004073CD682B4323F080034E690D683343E0
:102270008F68002C0380C762058508BF002A05D13E
:1022800070451CBF0EF58062904204D10969018639
:1022900001214161F0BDBCF1000FF9D0F6E70EF568
:1022A0008042821AB2FA82F24FEA521C0EF588423C
:1022B0000EF59044821A041B44F20005B2FA82F231
:1022C000B4FA84F4C4F201055209A8424FEA541446
:1022D000C5D044F60005C4F20105A842BFD044F2BF
:1022E0000045C4F20105A842B9D0BCE7416BCA075A
:1022F00008D00268D0F838C0536823F4003343EAAA
:102300000C0353608A0708D50268D0F83CC05368B4
:1023100023F4803343EA0C0353604A0708D502686C
:10232000D0F840C0536823F4802343EA0C03536081
:102330000A0708D50268D0F844C0536823F4004364
:1023400043EA0C035360CA0608D50268D0F848C0B7
:10235000936823F4805343EA0C0393608A0608D5FC
:102360000268D0F84CC0936823F4005343EA0C038E
:1023700093604A0612D50268D0F850C05368BCF585
:10238000801F23F4801343EA0C03536006D1536883
:1023900023F4C00C436D43EA0C035360090658BF95
:1023A00070470168806D4A6822F40022104348603B
:1023B0007047B0B582B000210446C167FEF7A3F9AB
:1023C000216805460A6812070BD56FF07E404FF46E
:1023D00000110090002220462B4600F031FB70B91E
:1023E0002168086840070CD56FF07E404FF48001EB
:1023F0000090002220462B4600F022FB08B103206B
:1024000007E0202084F8790084F87A00002084F81E
:10241000780002B0B0BD00002DE9F04387B08146DE
:102420000068D9E90237D9F8281046F6F314D9E93B
:1024300004650B43D9F81CC033430268CCF6FF7423
:102440002B43224043EA0C031A43026040F6004348
:102450004268C5F6000322F440523A434260984273
:10246000D9F818701CBFD9F820201743B1F1005FCC
:1024700004D1D9E90B12394341EA02074FF2FF4276
:102480008168C1F2FF1211403943816047F2FF7742
:10249000C16AC4F2000721F00F02D9F8241044F2F7
:1024A00000480A43C5F60208C262B8424FF08007EE
:1024B00025DD40F6FF72C4F2010290423FDD9842F2
:1024C00000F0718041F20042C4F20102904200F03B
:1024D000778041F20002C4F20102904240F0AB80EA
:1024E000D8F85420C2F3C207052F00F29980DFE824
:1024F00017F0720099009B009D009F00A10044F618
:10250000FF32C4F20002904233DC44F20042C4F2D3
:102510000002904200F0618044F60002C4F2000222
:10252000904240F08880D8F8542002F00707052F29
:1025300000F27680DFE807F07276787A7C7E47F6E4
:102540000002C4F20002904200F0528047F60042BE
:10255000C4F20002904240F06E80D8F8542002F09D
:102560000707052F00F25C80DFE807F0585C5E602B
:10257000626444F60042C4F20002904200F04380DC
:1025800045F20002C4F20002904240F05480D8F8B4
:10259000542002F00707052F00F24280DFE807F021
:1025A0003E424446484AD8F8582002F00707052F13
:1025B00036D8DFE807F00337393B3D3F02273AE0E2
:1025C000D8F85420C2F3C207052F29D8DFE807F056
:1025D000032A2C2E303201272DE0D8F8542002F0A7
:1025E0000707052F1CD8DFE807F0191D1F21232539
:1025F000D8F8542002F00707052F11D8DFE807F0BC
:102600000E121416181AD8F8542002F00707052FD6
:1026100006D8DFE807F00307090B0D0F00270AE0D3
:10262000802708E0042706E0402704E0082702E0AE
:10263000102700E02027984218D0BCF5004F32D177
:1026400001250F2F4FF000004EDC082F00F26E81A5
:10265000DFE817F00900C6006C016C01D1006C01C5
:102660006C016C01DE00FEF769FFBBE040F600166E
:102670000F2FC0F23D064FF0010529DC022F5FD07D
:10268000042F60D0082F40F07681D8F80000800633
:1026900049F20000C0F2D0305FD5D8F80010C1F385
:1026A000C101C84059E00F2F4FF0010532DC082F5F
:1026B00000F26181DFE817F00900BB005F015F01F4
:1026C000C8005F015F015F01E100FEF737FFB0E086
:1026D000102F3ED0202F3ED0402F40F04C8101A83B
:1026E000FEF798F9029832E0102F00F0D580202FE5
:1026F00000F0DF80402F40F0198101A8FEF78AF931
:1027000043F67451D9F82400C0F6000131F81000E6
:102710000299CBE0102F00F0DB80202F00F0E38047
:10272000402F40F0288101A8FEF774F943F6745158
:10273000D9F82400C0F6000131F8100002998FE0AA
:10274000FEF7D9F803E004A8FEF7E6F8059820B9EB
:1027500010E1304601E04FF40040D9F80420012593
:1027600002EB42018842C0F006811103884200F268
:1027700002810F2F4FF001051CDC022F00F0FF80BB
:10278000042F00F01481082F40F04F81D8F800008A
:10279000800649F20000C0F2D03000F12D8143F6EE
:1027A0007453D9F82410C0F6000333F81110B0FBAD
:1027B000F1F030E1102F00F0EF80202F00F00981C0
:1027C000402F40F0328101A8FEF724F943F67451FE
:1027D000D9F82400C0F6000131F810000299F2E0A7
:1027E000FEF7C7FE43F67452D9F82410C0F6000273
:1027F00032F8111090E004A8FEF78EF843F67451F9
:10280000D9F82400C0F6000131F8100005994DE018
:10281000D8F8000080066FD443F67450C0F600006C
:1028200030F8110049F20001C0F2D0313EE0FEF76D
:10283000A0FE43F67452D9F82410C0F6000232F814
:102840001110B0FBF1F00DE004A8FEF765F843F6B7
:102850007451D9F82400C0F6000131F81000059930
:10286000B1FBF0F0D9F8041000EB5100B0FBF1F02F
:10287000D9F8001080B2C8607CE0D8F80020920639
:102880005ED443F67452C0F6000232F8111049F2D9
:102890000002C0F2D03263E043F67450C0F600008C
:1028A00030F8110040F60011C0F23D01B1FBF0F02C
:1028B00034E043F67450C0F6000030F811004FF4D5
:1028C0000041B1FBF0F0D9F804104200480829E0BB
:1028D00043F67452C0F6000232F8111040F60012AE
:1028E000C0F23D023CE043F67452C0F6000232F8FA
:1028F00011104FF4004233E043F67452D8F8000050
:10290000C0F60002C0F3C10032F8111049F2000213
:10291000C0F2D03222FA00F0B0FBF1F0D9F8041086
:1029200040004A081044B0FBF1F000254FF6F0716A
:10293000C0F3420208401044D9F80010C8601AE001
:1029400043F67453D8F80020C0F60003C2F3C10266
:1029500033F8111049F20003C0F2D03323FA02F227
:10296000B2FBF1F1D9F8042001EB5201B1FBF2F115
:1029700089B2C1600025284607B0BDE8F083FDF7A5
:10298000BAFF43F67452D9F82410C0F6000232F8A8
:102990001110B0FBF1F018E043F67451D9F824009F
:1029A000C0F6000131F81000B6FBF0F01DE004A8FD
:1029B000FDF7B2FF43F67451D9F82400C0F60001C8
:1029C00031F810000599B1FBF0F0010ED9F80420A0
:1029D00022E043F67451D9F82400C0F6000131F822
:1029E00010004FF40041B1FBF0F0000200EB520088
:1029F000B0FBF2F0002518E0D8F8001043F6745749
:102A0000C1F3C101D9F82430C0F6000737F81330FC
:102A1000C840B0FBF3F0010E000210EB520041F190
:102A2000000100230025FDF753FC4FF6FF42A0F5FF
:102A30004071C0F20F0291427FF67EAF01259AE706
:102A40002DE9F04381B004460068C7690D4639405E
:102A5000491BB1FA81F14F09974218D1DDF8208066
:102A6000994608F1010600BF4EB1B8F1000F10D031
:102A7000FDF749FEA0EB09004045206809D8C1696F
:102A80002940491B18BF012197EA010FECD1002012
:102A900010E0016821F4D0710160816821F001012A
:102AA0008160202084F8790084F87A00002084F87E
:102AB0007800032001B0BDE8F08370B540F67404DF
:102AC000C2F200042068C5690668A906816816D5A7
:102AD000808CA168E28A8854E18A0131E1828AB25D
:102AE000E1898A4224BF0022E282628B8A4202D2BA
:102AF000618B01316183616A09B1C0B2884706EA1E
:102B0000050001061FD5A18AA1B1012184F8281072
:102B1000D4E90012638AD25C0A85618A013161823C
:102B200089B2A289914224BF00216182A18A013920
:102B3000A18208E021680A6822F080020A600A681F
:102B400042F040020A6040061FD5A08A88B1D4E94D
:102B50000001628A895C0185608A0130608280B2EE
:102B6000A189884224BF00206082A08A0138A08207
:102B70000BE02168206A0A68002822F040020A60FF
:102B800000D08047002084F828002068016A41F0C6
:102B900001010162016A41F002010162016A41F032
:102BA00004010162016A41F008010162016A41F019
:102BB00010010162016A41F040010162016A41F4C1
:102BC00080710162016A41F400710162016A41F49D
:102BD00000310162016A41F480110162016A41F031
:102BE0002001016270BD0000FEE7032801D900202A
:102BF000704740F6641100EB4000C2F2000101EBA7
:102C0000800111F8010F01284FF0000004BF087087
:102C10000120704710B5C0B10121012808BF022072
:102C200081F3108840F69811C2F2000140F6941426
:102C30000860C2F200040020207080F3108800BFFA
:102C400000F016F820780128FAD110BD40F6541192
:102C5000C2F20001887ACA7A904201D100207047FE
:102C6000421C085CD3B2092B88BF00228A727047CD
:102C70007047000070B59CB04EF61455CEF20005BA
:102C8000FDF7BBFD0120ADF804004FF0105002909D
:102C900012208DF80C0003264FF480708DF80F6021
:102CA000ADF80D000020C0F2011001AC04902046E8
:102CB000FDF772FD40F20110ADF804004FF0C04086
:102CC00002900F208DF80C004FF080708DF80F608F
:102CD0000026ADF80D6004902046FDF75DFD042050
:102CE000FDF798FD2868800311D4BFF34F8FBFF321
:102CF0006F8FC5F83C62BFF34F8FBFF36F8F2868AB
:102D000040F400302860BFF34F8FBFF36F8F286807
:102D1000C00327D40020286743F6E07CBFF34F8F21
:102D2000E96EC1F34E30C1F3C9016FEA010E8C07A1
:102D30000CEA40162246714642EA06030131C5F804
:102D40004C3202F14042F7D10028A0F10100EFD14E
:102D5000BFF34F8F286840F480302860BFF34F8F57
:102D6000BFF36F8F44F60C04C5F60204FDF7DEFCDA
:102D7000206820F00400206000200190E06840F40A
:102D80004040E060E06800F440400190019800BFDE
:102D9000E0688004FCD5012001904FF4803002905F
:102DA00000240220049405210894CDE90A000C9126
:102DB000A021CDE90D10109004200F90082501A846
:102DC00012941195FEF762FC3F201490032015A980
:102DD00031C140204FF48061CDE91800CDE91A10CF
:102DE00014A80421FEF7BAFA44F20040C5F6020026
:102DF000016841F080010160D0F8F41041F0020157
:102E0000C0F8F410D0F8F40000F002000090009830
:102E1000FDF7A7FB00F018F900F0A0F900F0D5F9D4
:102E200000F004F800F082F91CB070BD2DE9F0410B
:102E30009AB044F2E040C5F602000168022641F073
:102E4000080101604FF001080168032701F0080143
:102E5000079140F600450799C5F60205016807ACE1
:102E600041F010010160016801F01001079107991C
:102E7000016841F040010160016801F040010791E3
:102E80000799016841F080010160016801F080014B
:102E900007910799016841F480710160016801F4AC
:102EA00080710791079950F80C1C41F4805140F84B
:102EB0000C1C214650F80C0C00F480500790079829
:102EC0000C200896CDF824800A970B904CF2B37032
:102ED00007902846FDF74EFB4FF68070079005F5EA
:102EE00080602146FDF746FB05F5406007972146C7
:102EF000FDF740FB4FF47F40079005F580502146D9
:102F0000FDF738FB40F2CF60079005F5A050214651
:102F1000FDF730FB44F200010020C5F20021CDE9AD
:102F20001800CDE91600079101F58271089105217D
:102F3000CDE900162021CDE90268CDE904660690AE
:102F4000CDE909000B90CDE90C10CDE90E004FF44E
:102F50008050109004F128001421FDF704FA69460E
:102F600020460A46FEF7BEFD20B10AA04FF491713B
:102F7000FDF75CFA40F26000C2F2000040F6147106
:102F8000016041F200010068C6F2000108601AB059
:102F9000BDE8F0812E2E2F2E2E2F557365722F62D5
:102FA00073702F7372632F6273705F666D635F69F6
:102FB0006F2E630010B592B002AC04F11C00242106
:102FC000FDF7D1F944F2E840C5F6020001684FF080
:102FD000804241F0010101604DF683610068C4F256
:102FE0001B3100F001000190019840F20800C2F28C
:102FF00000000068A0FB01014FF0FF3000EBD14161
:1030000089B2CDE90221059000200490CDE90600A7
:10301000802008902046FEF7AEFD38B144F25C00F7
:10302000C0F600004FF40C71FDF700FA1C200021DF
:103030000222FDF70FFC1C20FDF7FDFB02A8FEF7A6
:10304000B5FD12B010BD000070B586B040F654104A
:103050000021C2F2000041816422017340F6B400F5
:103060000223C2F20000002685191036AA60A02EA5
:103070002B712973F8D1642106220187A0F83B2027
:1030800043F69C56A0F848100025A0F84B20C0F647
:103090000006A0F8581001ACA0F85B20A0F868105A
:1030A000A0F86B2044F2E040C5F60200016841F050
:1030B00002010160016801F00201019101990168BA
:1030C00041F004010160016801F0040101910199DE
:1030D000016841F040010160016801F04001019187
:1030E0000199016841F080010160016801F08001EF
:1030F00001910199016841F480710160006800F458
:103100008070019001980320CDE90255049000BF22
:1031100006EBC50080882146019056F83500FDF782
:1031200029FA0135082DF3D106B070BD80B54FF4F2
:1031300080700121FEF784FD4FF400700121FEF73D
:103140007FFD4FF480600121FEF77AFD4FF40060AF
:103150000121BDE88040FEF773BD000040F6641118
:103160000020C2F2000100228B185860986058704D
:1031700088540C32302AF7D140F20800C2F2000025
:1031800044F6D3510068C1F26201A0FB01014FF087
:10319000FF3000EB91110020B0EB116F0DD14EF21A
:1031A0001002CEF2000251604EF62351CEF2000121
:1031B000F0230B7090600720106040F6A000C2F270
:1031C000000001210170FFF7F5BEF0B5B5B040F683
:1031D000740041F2000440F26E41C2F20000C4F2F9
:1031E0000104C2F20001046040F264024160C2F2D4
:1031F00000024FF00421C0E90221002101820125D3
:103200004182C18201834183818280F82810C0E914
:103210000711416201A801951F91FDF779FC44F265
:10322000E040C5F60200016830AE41F001010160E6
:103230000727016801F0010130913099016841F0E0
:1032400001010160016801F00101309130990169CB
:1032500041F0100101613146006900F0100030902A
:1032600030984FF4007030900220CDE931050025F0
:103270000320C5F60205339028463497FDF77AF906
:103280004FF480603090284631463497FDF772F94C
:10329000252000210122FDF7DDFA2520FDF7CBFADC
:1032A0004FF4E13100220C23204600F0BEF8206AE2
:1032B00040F040002062208B40F00800208320680E
:1032C00040F020002060FEF78EFE35B0F0BD00001B
:1032D0002DE9F04740F6B40640F6541A00244FF0AA
:1032E00005094FF001080027C2F20006C2F2000AE9
:1032F00000251BE0C87A002874D00A7B0132D3B2C3
:103300000A7383426ED39AF80B0005EB4502013233
:103310000C730AF800209AF80B000130C2B2092A97
:1033200088BF00208AF80B005CE000BFE8B2FEF71F
:103330001FFDF1190A7928B1042A09D881F80490EF
:1033400050E000BF062A08D381F8049048E000BF8F
:10335000092A06D8501C087144E06AB3501E08714F
:103360003EE0887A88B99AF80B0005EB45020132F5
:1033700081F80A800AF800209AF80B000130C2B2E6
:10338000092A88BF00208AF80B00088950B3CA8830
:103390008242AFD2013293B2CA80834222D19AF8DC
:1033A0000B0005EB450103310AF800109AF80B00F9
:1033B0000130C1B20929B3E7887A012810D19AF8FF
:1033C0000B0005EB450202328C720AF800209AF8D5
:1033D0000B000130C2B2092A88BF00208AF80B0016
:1033E000CC800C731037A02F05F101059ED1BDE8EC
:1033F000F08710B50138C1B203290CD840B243F6AA
:103400008C51C0F6000151F820402046FEF70FFC19
:1034100010B1002101E010BD01212046BDE810409F
:10342000FEF70EBCFFF754BF704710B5A0B0CDE952
:10343000000100206C46CDE9020004921C21069098
:1034400004F11C000593FCF78EFF2046FEF7BCFB41
:1034500038B144F27B00C0F6000040F22731FCF79F
:10346000E5FF20B010BD000004280ED380B544F263
:103470003C0044F25C01C0F60000C0F600010DA261
:1034800000F00CFABDE88040FEE740F6641300EB64
:103490004000C2F2000303EB80024FF0010C8CF3FA
:1034A0001088516091600021517003F820C081F3B1
:1034B000108870476273705F5374617274417574E1
:1034C0006F54696D6572000010B50C46FCF78AFFF9
:1034D00000B3012181F31088428B002181F3108811
:1034E000002A18D08168028B895C2170012181F348
:1034F0001088018B0131018389B2C289914224BFB6
:1035000000210183418B013941830121002080F397
:10351000108800E00021084610BD00002DE9F041B0
:1035200082B014468846FCF75DFF002845D0064669
:10353000C06900B18047002C3AD000200121002250
:1035400081F31088B38AADF8063080F3108812E05A
:10355000BDF806509D4207D133681D682D0603D47F
:103560001D6845F080051D6081F31088B38AADF8B1
:10357000063080F31088BDF80650B3899D42E7D22B
:1035800018F8023001327568378AEB5581F31088DC
:10359000338A013333829BB2B789BB4228BF308262
:1035A000B38AA24203F10103B38280F31088C7D12A
:1035B0003068016841F08001016002B0BDE8F0812F
:1035C00080B582B08DF807100DF107010122FFF7D9
:1035D000A5FF02B080BD10B582B004468DF807008B
:1035E0000DF1070100200122FFF798FF204602B0ED
:1035F00010BD000082B0FFF73DFB43F62364C0F628
:103600000004204600F04AF94EF60000C1F6F170C1
:1036100005684DF683614668C4F21B31876840F245
:103620000800C2F200000068A0FB010143F6F4505C
:10363000890CC0F6000000F031F943F66360C0F673
:103640000000394632462B4600F028F968A000F009
:1036500025F9204600F022F943F6926044F21D015C
:10366000C0F60000C0F6000100F018F943F67A60D9
:10367000C0F600005FA100F011F943F6DC5044F2FF
:103680001201C0F60000C0F6000100F007F943F691
:10369000E160C0F6000000F053FB57A000F050FBC3
:1036A00043F6AA60C0F6000000F04AFB43F67970CA
:1036B000C0F6000000F044FB50A000F041FB43F6D0
:1036C000C160C0F6000000F03BFB43F65970C0F645
:1036D000000000F035FB50A000F032FB204600F067
:1036E000DDF858A000F02CFB43F61270C0F6000085
:1036F00000F026FB57A000F023FB43F68D70C0F6C8
:10370000000000F01DFB00203221FFF7ADFE40F26B
:10371000644543F6D17843F6DE7943F6F87A43F60A
:10372000EB7744F205060DF10704C2F20005C0F67E
:103730000008C0F60009C0F6000AC0F60007C0F68F
:10374000000600BFFFF794FA0020FFF74EFA10B111
:103750000220FFF74EFE00202146FFF7B5FE38B3EA
:103760009DF807000D2823D10420FFF742FE0A2010
:10377000FFF750FA00200D21FFF722FFFCF7DAFDDA
:10378000A880FCF7D7FDE880FCF7D4FD2881FCF782
:10379000D1FD2870FCF7CEFD6870FCF7CBFDA8705A
:1037A000FCF7C8FDE87000200A222946FFF7B6FEA4
:1037B000FFF74CFA01380728C4D8DFE800F0050409
:1037C00004090D041115BDE7404600F0B9FAB9E748
:1037D000484600F0B5FAB5E7504600F0B1FAB1E757
:1037E000384600F0ADFAADE7304600F0A9FAA9E797
:1037F0000A0D0000312E30002A200D002A20456DD0
:1038000061696C203A2061726D666C794071712E2D
:10381000636F6D200D0000002A20436F707972697C
:10382000676874207777772E61726D666C792E6386
:103830006F6D20E5AE89E5AF8CE88EB1E794B5E514
:10384000AD900D00E6938DE4BD9CE68F90E7A4BAA1
:103850003A0D0000322E20E8AFB7E4BC98E5858829
:10386000E8BF90E8A18CE5BC80E58F91E69DBFEFB5
:10387000BC8CE784B6E5908EE8BF90E8A18C6D61C2
:10388000746C61620D0000001EF0040F0CBFEFF3BA
:103890000880EFF30980FEF7EFB900000FB4054B85
:1038A00010B503A9044A029800F018F810BC5DF89E
:1038B00014FB0000D73500080400002002E008C80F
:1038C000121F08C1002AFAD170477047002001E09A
:1038D00001C1121F002AFBD1704700002DE9FF4FE4
:1038E0008DB00F460546002606E025280BD0DDE901
:1038F0000F1290476D1C761C28780028F5D111B066
:103900003046BDE8F08F0024A246A1460122EC49D2
:1039100000E0044315F8013F203B02FA03F008429F
:10392000F7D128782A2810D06FF02F022878A0F13C
:103930003001092914D80AEB8A0102EB410144F055
:10394000020400EB010A6D1CF0E701CF5FEA000AF8
:1039500003D544F40054CAF1000A44F002046D1C7B
:1039600028782E2817D115F8010F44F004042A28CE
:103970000ED06FF02F022878A0F1300109290AD863
:1039800009EB890102EB410100EB01096D1CF2E733
:1039900057F8049B6D1C28786C280FD006DC4C2847
:1039A00017D068280DD06A2814D104E0742810D0EC
:1039B0007A280FD10DE044F400140AE044F4801496
:1039C00001E044F440146978814202D104F5801486
:1039D0006D1C6D1C2A786E2A1FD00CDC632A31D036
:1039E00004DC002A8BD0582A11D1A3E0642A68D0C5
:1039F000692A0CD165E0732A2ED004DC6F2A73D0BB
:103A0000702A04D19BE0752A6FD0782A6ED01046B8
:103A1000DDE90F129047761C50E1C4F302500228F2
:103A200006D0032809D0042801CF09D0066045E15B
:103A300001CFF117C0E9006140E101CF06803DE10F
:103A400006703BE117F8040B8DF8000000208DF89C
:103A50000100EB46012003E057F804BB4FF0FF30B4
:103A600061074FF0000102D40DE008F10101884622
:103A700049450FDA8045F8DB1BF808100029F4D11E
:103A800008E008F1010188468142FADB1BF80810C2
:103A90000029F6D1DDE90F23AAEB08008146214673
:103AA00000F036F9304400EB080604E0DDE90F12BF
:103AB0001BF8010B9047B8F10108F7D221464846A0
:103AC000F7E00A21C4F302534FF0000B0891022BD8
:103AD00004D001CFC117032B09D00AE0FF1D27F046
:103AE0000707F7E8020108E032E01FE020E000B23B
:103AF000C117042B01D140B2C117031E71F100039D
:103B000007DA4FF0000CD0EB0C006CEB01012D2319
:103B100002E0230504D52B238DF82430012303E094
:103B2000E30701D02023F7E7984658E00A2110E088
:103B300010210EE010204FF0000B08900CE0102137
:103B40004FF0000B44F004044FF00809089103E023
:103B500008214FF0000B0891C4F30253022B04D04C
:103B600001CF0021032B06D006E0FF1D27F0070739
:103B7000F7E8020103E080B2042B00D1C0B24FF09D
:103B8000000823072BD5702A07D0DDF820C08CF061
:103B9000100C5CEA0B0C05D00EE040238DF82430AD
:103BA000012308E050EA010306D030238DF82430C9
:103BB0008DF8252002239846DDF820C08CF0080CF3
:103BC0005CEA0B0C0BD150EA010301D1630706D567
:103BD00030238DF824304FF00108A9F10109582A4B
:103BE00004D038A20B9208AA0A920BE03AA2F9E795
:103BF0005B46089AFCF76CFB0B9B9B5C0A9A521E77
:103C00000A92137050EA0102F2D10A98ADEB00005B
:103C100000F1200B600702D524F4803401E04FF05E
:103C20000109D94502DDA9EB0B0000E0002000EB03
:103C30000B0141440890AAEB010AE00306D4DDE938
:103C40000F232146504600F063F806444FF0000968
:103C500008E009A911F80900DDE90F12904709F100
:103C60000109761CC145F4DBE0030CD5DDE90F2327
:103C70002146504600F04CF8064404E0DDE90F12FE
:103C800030209047761C0899481E08900029F5DCE2
:103C900008E00A980A990078491C0A91DDE90F1298
:103CA0009047761CBBF10001ABF1010BF1DC214622
:103CB0005046DDE90F2300F019F806446D1C1BE6A1
:103CC00009280100303132333435363738396162F2
:103CD00063646566000000003031323334353637B6
:103CE0003839414243444546000000002DE9F04187
:103CF000044600251E461746880404D405E03946CC
:103D00002020B0476D1C641EF9D52846BDE8F0811F
:103D10002DE9F041044600251E469046C80301D512
:103D2000302700E02027880404D505E041463846C6
:103D3000B0476D1C641EF9D52846BDE8F08100002F
:103D400010B5044601E0FFF746FC14F8010B0449E6
:103D50000028F8D1BDE810400A20FFF73CBC000065
:103D6000040000200000000001020304010203041B
:103D700006070809010002000400060008000A0006
:103D80000C00100020004000800000010001000035
:103D9000000200000004000000080000002002589B
:103DA000000100000008025800200000001C02581A
:103DB000100000000018025804000000000402581F
:103DC0000100000000180258080000000018025806
:103DD0008000000000200258000800002A20E58F23
:103DE00091E5B883E697A5E69C9F2020203A202500
:103DF000730D0A000D0A435055203A2053544D3399
:103E00003248373433584948362C204247413234FF
:103E1000302C20E4B8BBE9A2913A2025644D487AC1
:103E20000D0A002A2A2A2A2A2A2A2A2A2A2A2A2A59
:103E30002A2A2A2A2A2A2A2A2A2A2A2A2A2A2A2AE2
:103E40002A2A2A2A2A2A2A2A2A2A2A2A2A2A2A2AD2
:103E50002A2A2A2A2A2A2A2A2A2A2A2A2A2A2A2AC2
:103E60000A0D00554944203D202530385820253082
:103E7000385820253038580A0D002A20E4BE8BE738
:103E8000A88BE78988E69CAC2020203A2025730A7D
:103E90000D002A20E4BE8BE7A88BE5908DE7A7B044
:103EA0002020203A2025730A0D002A20515120207D
:103EB00020203A2031323935373434363330200D32
:103EC000002A20E5BEAEE4BFA1E585ACE4BC97E5E1
:103ED0008FB73A2061726D666C795F636F6D200DEC
:103EE000002A2048414CE5BA93E78988E69CAC203B
:103EF000203A2056312E332E30202853544D333261
:103F0000483778782048414C204472697665722998
:103F10000D00312E20E590AFE58AA8E4B880E4B822
:103F2000AAE887AAE58AA8E9878DE8A385E8BDAF56
:103F3000E4BBB6E5AE9AE697B6E599A8EFBC8CE689
:103F4000AF8F3130306D73E7BFBBE8BDACE4B880F4
:103F5000E6ACA14C4544320D002A20E6B798E5AE08
:103F60009DE5BA973A2061726D666C792E74616F27
:103F700062616F2E636F6D0D002A20E697BAE69797
:103F8000BA20203A2061726D666C790D00332E20C4
:103F9000E8B083E8AF956D61746C6162E4B8B2E536
:103FA0008FA3E695B0E68DAEE58F91E98081E58936
:103FB0008DEFBC8CE8AFB7E58AA1E5BF85E585B399
:103FC000E997ADE4B8B2E58FA3E58AA9E6898B0D40
:103FD000004B31E994AEE68C89E4B88B0D004B328E
:103FE000E994AEE68C89E4B88B0D004B33E994AECE
:103FF000E68C89E4B88B0D004B32E994AEE5BCB990
:10400000E8B5B70D004B33E994AEE5BCB9E8B5B7F8
:104010000D00323031392D30392D30370056372DE3
:104020004D61746C6162E79A84E4B8B2E58FA3E6EF
:1040300095B0E68DAEE9809AE4BFA1004572726F3B
:10404000723A2066696C652025732C2066756E6354
:1040500074696F6E20257328290D0A002E2E2F2ECD
:104060002E2F557365722F6273702F7372632F62D8
:1040700073705F74696D65722E63002E2E2F2E2E65
:104080002F557365722F6273702F7372632F627373
:10409000705F756172745F6669666F2E6300000001
:1040A000C04000080000002018000000BC380008D4
:1040B000D84000081800002088190000CC380008FB
:1040C00000000000000000000090D0030090D0032A
:0840D0000100000010000000D7
:040000050800029954
:00000001FF
