:020000040800F2
:10000000880D00209D010008FF110008ED23000865
:10001000FD1100084D0700089918000800000000B5
:100020000000000000000000000000004512000871
:100030008D070008000000000112000847120008A8
:10004000B7010008B7010008B7010008B7010008B0
:10005000B7010008B7010008B7010008B7010008A0
:10006000B7010008B7010008B7010008B701000890
:10007000B7010008B7010008B7010008B701000880
:10008000B7010008B7010008B7010008B701000870
:10009000B7010008B7010008B7010008B701000860
:1000A000B7010008B7010008B7010008B701000850
:1000B00053130008B7010008B7010008B701000892
:1000C000B7010008B7010008B7010008B701000830
:1000D000B7010008C5170008B7010008B7010008FC
:1000E000B7010008B7010008B7010008B701000810
:1000F000B7010008B7010008B7010008B701000800
:10010000B7010008B7010008B7010008B7010008EF
:10011000B7010008B7010008B7010008B7010008DF
:10012000B7010008B7010008B7010008B7010008CF
:10013000B7010008B7010008B7010008B7010008BF
:10014000B7010008B7010008B7010008B7010008AF
:10015000B7010008B7010008B7010008B70100089F
:10016000B7010008B7010008B7010008B70100088F
:10017000B7010008B7010008B7010008000000003F
:10018000B7010008B7010008DFF80CD000F05CFAF6
:100190000048004779210008880D00200648804764
:1001A00006480047FEE7FEE7FEE7FEE7FEE7FEE75C
:1001B000FEE7FEE7FEE7FEE7FB1200088901000804
:1001C0002DE9F05F0546002092469B46884606468C
:1001D000814640241BE0284641464746224600F01F
:1001E0006AF853465A46C01A914110D31146184630
:1001F000224600F051F82D1A67EB01084F462246BF
:100200000120002100F048F817EB00094E41201EA4
:10021000A4F10104DFDC484631462A464346BDE8E6
:10022000F09FD2B201E000F8012B491EFBD27047CB
:100230000022F6E710B513460A4604461946FFF7B2
:10024000F0FF204610BD00F0004230F000400AD020
:10025000C10D01F56071C0F3160042EA0151C208F8
:1002600040071143704700200146704730B50B46E8
:10027000014600202022012409E021FA02F59D42D6
:1002800005D303FA02F5491B04FA02F52844151EAA
:10029000A2F10102F1DC30BD202A04DB203A00FA91
:1002A00002F1002070479140C2F1200320FA03F3CD
:1002B000194390407047202A04DB203A21FA02F0CB
:1002C0000021704721FA02F3D040C2F12002914090
:1002D0000843194670472DE9FE4F804681EA030026
:1002E000C00F0C46009021F0004123F00045B8EB10
:1002F0000200A94105D24046214690461C460B46C5
:10030000024623F00040104347D0270DC7F30A00F0
:10031000C3F30A510290401A019040286BDAC3F3EC
:10032000130040F4801B0098924620B10023D2EBCA
:10033000030A63EB0B0B01985946C0F1400250468B
:10034000FFF7AAFF06460D4650465946019A00F0AF
:100350008DF910EB08006141002487EA115284EA0C
:10036000E7731A4340D0009A62B3019A012A4FEA18
:10037000075215DC001B61EB02014FF0004202EA5C
:100380000752CDE90042001C41F5801132462B4650
:1003900000F08DF903B0BDE8F08F40462146F9E743
:1003A000001B61EB0201001C41F5801300185B414A
:1003B0002018A2F5001747EB030140EAD570B619E3
:1003C0006D4111E06D084FEA360645EAC0754FEA07
:1003D0000752001B61EB0201001C41F58011490826
:1003E0004FEA30000019514132462B4603B0BDE8B8
:1003F000F04F00F04DB90098012240000023D0EBEF
:10040000020263EBE073009821464FEAE074B8EB18
:10041000000061EB0401E9E783F000435BE781F052
:10042000004158E72DE9FE4F81EA030404F000443F
:1004300021F0004100944FF0000B23F0004350EAFC
:1004400001045ED052EA03045BD0C3F30A54C1F343
:100450000A552C44A4F2F3340194A0FB0254C1F3D6
:10046000130141F48011C3F3130343F4801301FB20
:10047000024400FB034E840A970A44EA815447EA87
:100480008357A4FB076802958D0A05FB07854FEA91
:10049000932C04FB0C542705029D4FEA065847EAAB
:1004A0001637B5EB08056EEB070C870E920E47EA80
:1004B000811742EA8312A7FB0201B6EB0B0164EB42
:1004C00000042B0D43EA0C335E1844EB1C50DA4653
:1004D0005146E7FB0201C5F313044FEA0B3343EA2D
:1004E00014534FEA0432019C43EA0603A4F10C04BE
:1004F0000294009CCDE900B400F0D9F803B0BDE847
:10050000F08F00200146F9E72DE9F04D81EA030460
:1005100004F0004B21F0004514464FF0000A23F090
:10052000004150EA050220D054EA01021DD0C5F373
:100530000A570246C5F31303C1F31300C1F30A5669
:1005400040F4801543F48013A7EB0608101BD64631
:1005500008F2FD3873EB050002D308F1010801E051
:1005600092185B41B8F1000F03DA00200146BDE8A4
:10057000F08D00204FF48011064684460EE0171BD4
:1005800073EB050705D3121B63EB050306434CEA27
:10059000010C49084FEA300092185B4150EA01070C
:1005A000EDD152EA030012D082EA040083EA050189
:1005B000084305D0101BAB4106D20122002306E000
:1005C00000224FF0004302E06FF0010253101AEBDB
:1005D00006004CEB085110EB0A0041EB0B01BDE8A3
:1005E000F04D00F055B8C1F30A52C1F3130140F2C7
:1005F000FF3341F480119A4202DA0020014670472D
:1006000040F233439A42A2F2334202DC5242FFF7F5
:1006100052BEFFF741BE000030B5041E71F1000468
:1006200004DB4FF00044404264EB0101141E73F1FF
:10063000000405DB1C464FF00043524263EB040309
:10064000994208BF904230BD064C074D06E0E06875
:1006500040F0010394E8070098471034AC42F6D309
:10066000FFF796FD6C3000088C300008202A06DB6E
:10067000CB17203A41FA02F043EAE07306E041FA70
:1006800002F3D040C2F1200291400843194670475E
:1006900010B5141E73F1000408DA401C41F100018A
:1006A00092185B411A4301D120F0010010BD2DE9E1
:1006B000F04D92469B4611B1B1FA81F202E0B0FAD8
:1006C00080F220329046FFF7E7FD04460F4640EAED
:1006D0000A0041EA0B0153465A46084313D011461B
:1006E00053EA010019D0C8F140025046FFF7E3FD7C
:1006F00005460E46504659464246FFF7CDFD084393
:1007000005D0012004E020463946BDE8F08D0020E8
:10071000054346EAE0762C4337430A986305E40A2A
:10072000A0EB08000022FD0A44EA47540A3002D533
:1007300000200146E9E7010510196941DDE9084596
:1007400000196941BDE8F04DA2E70000FEE7000096
:10075000062804D240B207A151F82000704780B5A6
:1007600043F24600E721C0F6000000F011F8002037
:1007700080BD00BF5C0800200000000000000000F9
:1007800000000000000000000000000070470000B2
:1007900009B100BFFEE7704740F200400121C4F2FA
:1007A00027200160704700002DE9F04F82B041F62C
:1007B000004343F6004B08224FF0010A00264FF099
:1007C000000CC4F20203C4F2010B984200F13E4354
:1007D00008BF072203F1FF734FEAB327072F4FF03B
:1007E000000738BF4FEAB322009200BF0A680AFA36
:1007F0000CF812EA080F00F09A80D1F804E04EF0ED
:100800001002122A12D106F01C020F2303FA02F47E
:100810006FF0030303EA5C0505442B6AA3430C69EC
:1008200004FA02F21A432A62D1F804E003230468AE
:100830000EF00302BEF1120F03FA07F302FA07F2F9
:1008400024EA03046FEA030942EA0402026014D8AE
:100850000AFA0EF212F0061F0FD08268CB6802EA85
:100860000902BB401A438260CEF30012436802FAC9
:100870000CF223EA08031A434260C2688B6802EA5A
:100880000902BB401A43C2605FEACE024FD5002284
:1008900006F00C050F24019243F64402AC40C4F26A
:1008A00002021346126842F480421A601A6802F487
:1008B000804201922CF00302019B5A444FF60843F8
:1008C000CFF6FF739E46D358A343009C04FA05F568
:1008D0002B4342F80E30DBF800204D6842EA080353
:1008E000EC0358BF22EA0803CBF80030AC03DBF876
:1008F000042042EA080358BF22EA0803CBF8043078
:10090000EC02DBF8082042EA080358BF22EA080399
:1009100043F60C42CBF80830AD02C4F20102144693
:10092000126842EA080358BF22EA080323600CF168
:10093000010C02370436BCF1100F04BF02B0BDE851
:10094000F08F53E740F68410C2F200000068704751
:1009500040F2080040F68411C2F20000C2F2000129
:1009600000780A6810440860704780B543F600407C
:10097000C4F20200016841F400710160016841F4B1
:1009800080610160016841F480710160032000F022
:100990006BF80F2000F004F800F028F8002080BD6C
:1009A000B0B5044640F208004FF47A71C2F200007C
:1009B0000078B1FBF0F040F20401C2F200010968D6
:1009C000B1FBF0F000F0D8FA01250F2C0CD858B983
:1009D0004FF0FF3021460022002500F017F840F2CA
:1009E0000C00C2F2000004602846B0BD7047002829
:1009F0000BDB00F01F010122400902FA01F14EF267
:100A00000012CEF2000242F82010704710B500F03C
:100A10000F034EF60C5E00F1604CB0F1FF3FA3F106
:100A20000403CEF2000E734403F10C04C8BF0CF5AE
:100A30006444DEF800004FF0FF3CC0F30220C31E08
:100A400080F0070038BF0023042828BF04200CFAD8
:100A500000F021EA00000CFA03F1984022EA0101BB
:100A600008430001207010BD4EF60C514FF6FF03F5
:100A7000CEF200010A681A4060F30A2242F0806058
:100A800040F0FD70086070472DE9F041002800F04B
:100A90009E8043F6000804460D46C4F20208D8F8CA
:100AA000000400F00F00884208D288F80054D8F8FB
:100AB000000400F00F00A84240F089802068810700
:100AC00017D5410742BFD8F8081041F4E051C8F8E3
:100AD0000810010742BFD8F8081041F46041C8F877
:100AE0000810D8F80810A26821F0F0011143C8F8E6
:100AF0000810C00730D06068811E022904D2D8F8DF
:100B0000001089010BD462E0012804D1D8F800104C
:100B1000890304D45BE0D8F80010890757D5D8F8CA
:100B2000081021F003010843C8F80800FFF70AFF86
:100B3000064641F2883707E0FFF704FF801BB84202
:100B400084BF0320BDE8F081D8F80800616800F098
:100B50000C00B0EB810FEFD1D8F8000400F00F00CB
:100B6000A84207D988F80054D8F8000400F00F0014
:100B7000A8422CD12068410707D5D8F80810E268B0
:100B800021F4E0511143C8F80810000708D5D8F83F
:100B90000800216920F4604040EAC100C8F808005C
:100BA00000F03EF8D8F8081042F61852C0F60002DD
:100BB000C1F30311515CC84040F20401C2F20001CC
:100BC00008600F20FFF7ECFE0020BDE8F081012057
:100BD000BDE8F08140F2040043F6080142F62852D5
:100BE000C2F20000C4F20201C0F600020068096807
:100BF000C1F38221515CC840704740F2040043F6C3
:100C0000080142F62852C2F20000C4F20201C0F606
:100C1000000200680968C1F34231515CC840704766
:100C200010B543F60404C4F20204606800F00C003E
:100C300008280AD0042819BF42F20040C0F2F4008C
:100C400047F64000C0F27D1010BD226820680023E6
:100C5000400202F03F0247F64000C0F27D105CBF48
:100C600042F20040C0F2F4002168C1F38811A0FBF9
:100C70000101FFF7A5FA21680222C1F3014102EB4D
:100C80004101B0FBF1F010BD2DE9F04182B0002828
:100C900000F014810446007843F60006C4F2020610
:100CA000C0072FD0B06800F00C00042823D0B06833
:100CB00000F00C00082802D1706840021BD467685D
:100CC000B7F5803F07D03068B7F5A02F40F01A8104
:100CD00040F480203060306840F480303060FFF7AE
:100CE00031FE0546306880030CD4FFF72BFE401B15
:100CF0006428F7D9A8E03068800303D5606800282D
:100D000000F0DC80207880072ED5B06810F00C0F42
:100D100007D0B06800F00C00082809D170684002C4
:100D200006D43068800718D5E068012815D0C5E0E2
:100D3000E1680020C4F24720002900F087800121EB
:100D40000160FFF7FFFD05463068800705D4FFF717
:100D5000F9FD401B0228F7D976E03068216920F0C0
:100D6000F80040EAC10030602078000725D56069AE
:100D700088B100200121C4F24720C0F8801EFFF78F
:100D8000E1FD0546706F800717D4FFF7DBFD401BC0
:100D90000228F7D958E000200021C4F24720C0F80B
:100DA000801EFFF7CFFD0546706F800705D5FFF762
:100DB000C9FD401B0228F7D946E02078400775D5C9
:100DC000306C4FF00008C0000CD4CDF804804FF018
:100DD0000108306C40F080503064306C00F080507E
:100DE0000190019847F20007C4F200073868C00577
:100DF0000FD4386840F480703860FFF7A3FD0546D3
:100E00003868C00505D4FFF79DFD401B0228F7D9BF
:100E10001AE0A768012F05D0306F052F27D140F0C9
:100E200004003067306F40F001003067FFF78AFD43
:100E3000054641F2883700BF306F80072FD4FFF797
:100E400081FD401BB842F7D9032038E00021016042
:100E5000FFF778FD054600BF306880077FF584AF57
:100E6000FFF770FD411B03200229F5D927E020F090
:100E700001003067306F20F004003067FFF762FD3B
:100E80000546002FD5D141F28837306F800706D54F
:100E9000FFF758FD411B0320B942F6D90FE0B8F126
:100EA000000F1EBF306C20F080503064A769002F07
:100EB00060D0B06800F00C00082803D1012002B017
:100EC000BDE8F08140F200080020C4F24728C8F8CD
:100ED0006000FFF737FD0546022F09D13068800119
:100EE00028D5FFF72FFD411B03200229F6D9E6E79D
:100EF000306880013ED5FFF725FD411B0320032903
:100F0000F6D3DCE720F480303060306820F48020B5
:100F10003060FFF717FD0546002F7FF4E3AE306821
:100F200080037FF5EFAEFFF70DFD411B0320642921
:100F3000F5D9C4E704F11C078FCF0843D90340EA71
:100F400082104FF6FF72914340EA0760A1F58031AD
:100F5000084370600120C8F86000FFF7F3FC044606
:100F60003068800106D4FFF7EDFC011B0320022945
:100F7000F6D9A4E70020A2E7411E0020B0EB116FD4
:100F80001CBF012070474EF21002F023CEF2000287
:100F900051604EF62351CEF200010B700721906094
:100FA00011607047B0B110B5044690F83D0028B903
:100FB000002084F83C00204600F00EF80220211D9D
:100FC00084F83D00206800F00FFA012084F83D000D
:100FD000002010BD012070477047022180F83D10AD
:100FE00001688A6802F00702062A1EBF0A6842F0FA
:100FF00001020A60012180F83D100020704750B3C3
:1010000010B5044690F8390028B9002084F838005B
:10101000204600F022F8242084F839002068C168B6
:1010200021F40051C160204600F06DFA206801698A
:1010300021F490410161416921F02A014161C168B7
:1010400041F40051C16000202021E06384F8391090
:1010500084F83A1010BD0120704770474EF62452B4
:10106000CEF200029168B1F1FF3F57DD80B540F24A
:10107000100C116841F200030FF2B00EC2F2000C26
:10108000C4F20103CCF8201011798CF824105179A6
:10109000CCF828105169CCF82C10D188ACF830105D
:1010A0009168CCF83410D168CCF8381091690022DE
:1010B000CCF83C101EF80210596000BF19684906B0
:1010C000FCD50132292AF5D140F254020021C2F2A6
:1010D00000021160BDE8804011680029FCD0016861
:1010E000CCF800104168CCF804108168CCF80810E6
:1010F000C168CCF80C100169CCF810104169CCF82B
:1011000014108169CCF81810C069CCF81C000020BC
:10111000106000BF10680028FCD07047916841F053
:101120000041916081690231816170470D0A456E0D
:1011300074657220486172644661756C745F4861C1
:101140006E646C65722C2053797374656D204861F0
:101150006C742E0D0A000000072829D8B0B542F69D
:10116000305C0021FF220023C0F6000C5CF83150F7
:101170000CEBC10EBEF804402D692C409EF80650C1
:1011800018BF0124AC42A4EB050508BF0A46013193
:10119000B5FA85F508294FEA55152B44E6D150409C
:1011A00083F001010843C0B2B0FA80F04009B0BD3D
:1011B000092810D008281ED142F21000C4F2020003
:1011C0000068C00517D440F61000C4F202000068A1
:1011D00080040ED50FE040F61000C4F20200006853
:1011E000800408D442F21000C4F202000068000536
:1011F00001D401207047002070470000FEE77047CF
:10120000704780B586B043F6300100200190C4F2EB
:1012100002010A6842F002020A60096801F0020154
:10122000019101990321CDE90301012001A9029057
:101230000420019040F20040C4F20200FFF7B4FA2B
:1012400006B080BD704780B5FFF782FB40F688008E
:10125000C2F200000078002814BFBDE8804080BDC5
:10126000AFF3008040F68010C2F20000016849B17F
:1012700001680139016005D140F67C100121C2F2FC
:101280000000017040F64C1100204FF0010CC2F23A
:10129000000100BF0B185A6852B15A68013A5A60EF
:1012A00006D183F801C00A5C012A04BF9A685A601B
:1012B0000C303028EED140F658006FF00042C2F2F8
:1012C00000000168013101600168914204BF002102
:1012D000016080B500F0A5FE40F25000C2F20000AF
:1012E000017801310170C9B20A29BDE8804038BFD8
:1012F00070470021017000F092BE4EF608504FF08A
:10130000000CCEF20000D0F8801041F47001C0F85B
:10131000801043F60001C4F202010A6842F00102A3
:101320000A60C1F808C04FF6FF720B68CFF6F6628C
:101330001A400A6043F21002C2F200424A600A6890
:1013400022F480220A60C1F80CC04FF000610160F5
:10135000704710B50C24C4F200046068216808408E
:1013600080070BD54FF6FD70606021680840206053
:1013700040F68C00C2F20000006880476068216877
:10138000084040070BD54FF6FB70606021680840AD
:10139000206040F69000C2F200000068804760685C
:1013A0002168084000070BD54FF6F7706060216890
:1013B0000840206040F69400C2F2000000688047B8
:1013C000606821680840C00658BF10BD4FF6EF7036
:1013D000606021680840206040F69800C2F200007A
:1013E0000068BDE81040004740F6FF3C0268C4F2C8
:1013F000000C60450DDCB0F1804F1BD040F2004383
:10140000C4F20003984215D040F60003C4F2000372
:101410000EE040F60043C4F2000398420AD040F2C6
:101420000043C4F20103984204D00023C4F2010334
:10143000984203D14B6822F070021A4341F6FF73C1
:10144000C4F2000398420DDC60451FDCB0F1804F10
:101450003FD040F20043C4F20003984239D040F636
:10146000000321E043F6FF73C4F2010398421EDC3F
:1014700042F20003C4F2000398422AD00023C4F2CF
:101480000103984225D040F200431EE040F600439D
:10149000C4F2000398421CD041F60003C4F20003DA
:1014A000984216D041F60043C4F200030FE044F224
:1014B0000003C4F2010398420BD044F60003C4F2C7
:1014C0000103984205D044F20043C4F2010398425C
:1014D00003D1CB6822F440721A434B6922F0800298
:1014E0001A4340F200430260C4F201038A68C262F8
:1014F0000A68826240F480629A4204BF096901630B
:101500000121416170472DE9F04381B00446006834
:1015100049F20C650169E26821F44051114301610F
:10152000A168D4E90423E769C6681143AE43B7F55F
:10153000004F41EA030141EA070141EA0601C160A7
:101540004169A26921F4407141EA0201416141F21D
:10155000004140F48060C4F2010145D1884240F06E
:101560008880FFF74AFBD4F804808146FFF745FBEB
:1015700065680646FFF741FB616819277843490013
:10158000B0FBF1F048F21F51C5F2EB11A0FB0123B3
:101590005A09642302FB130206FB07F36E00B3FB38
:1015A000F6F3181A4FEA48031044322202EBC00047
:1015B000A0FB01024FF4F87000EA121009FB07F2D9
:1015C000B2FBF3F2A2FB01126FF00F0101EA52012C
:1015D00000EB0108FFF711FB616878434900B0FB9D
:1015E000F1F6FFF70AFB86E0884240F08A80FFF7B9
:1015F00004FBD4F804808146FFF7FFFA65680646CD
:10160000FFF7FBFA6168192778438900B0FBF1F016
:1016100048F21F51C5F2EB11A0FB01235A096423C4
:1016200002FB130206FB07F3AE00B3FBF6F3181A36
:101630004FEA88031044322202EB0010A0FB0102A3
:10164000F02000EA521009FB07F2B2FBF3F2A2FB12
:1016500001126FF00F0101EA520100EB0108FFF7E0
:10166000CCFA616878438900B0FBF1F6FFF7C5FA60
:1016700088E0FFF7AFFAD4F804808146FFF7AAFAB2
:1016800065680646FFF7A6FA61681927784349009E
:10169000B0FBF1F048F21F51C5F2EB11A0FB0123A2
:1016A0005A09642302FB130206FB07F36E00B3FB27
:1016B000F6F3181A4FEA48031044322202EBC00036
:1016C000A0FB01024FF4F87000EA121009FB07F2C8
:1016D000B2FBF3F2A2FB01126FF00F0101EA52011B
:1016E00000EB0108FFF776FA616878434900B0FB28
:1016F000F1F6FFF76FFA6168784307220323490088
:1017000045E0FFF767FAD4F804808146FFF762FAF4
:1017100065680646FFF75EFA616819277843890015
:10172000B0FBF1F048F21F51C5F2EB11A0FB012311
:101730005A09642302FB130206FB07F3AE00B3FB56
:10174000F6F3181A4FEA88031044322202EB001015
:10175000A0FB0102F02000EA521009FB07F2B2FBE5
:10176000F3F2A2FB01126FF00F0101EA520100EB4C
:101770000108FFF72FFA616878438900B0FBF1F6A2
:10178000FFF728FA616878430F2204238900B0FB31
:10179000F1F0311A48F21F57C5F2EB17A0FB0765AD
:1017A0006E09642506FB1500084498403230A0FB02
:1017B000070102EA5110216840EA0800886001B080
:1017C000BDE8F08370B540F65C04C2F20004206806
:1017D0000568C6684169A90616D54068E18AA2680D
:1017E0005054E18A4A1CE28292B2E1898A4224BFC3
:1017F0000022E282628B8A423EBF618B01316183AB
:10180000616A09B1C0B2884706EA050001061FD522
:10181000A18AA1B1012184F82810618AD4E90023AA
:10182000595C5160618A0131618289B2A289914219
:1018300024BF00216182A18A0139A18208E02168C8
:10184000CA6822F08002CA60CA6842F04002CA60D8
:10185000400658BF70BDA08A88B1608AD4E90012E2
:10186000105C4860608A0130608280B2A189884241
:1018700024BF00206082A08A0138A08270BD206849
:10188000C16821F04001C160206A00B1804700209A
:1018900084F8280070BD0000FEE700000023B3EBD1
:1018A000920F1FD093085B4290ED000A0133B0EE17
:1018B000C00A81ED000A90ED010AB0EEC00A81ED88
:1018C000010A90ED020AB0EEC00A81ED020A90ED25
:1018D000030A00F11000B0EEC00A81ED030A01F125
:1018E0001001E1D112F0030208BF7047524200BF5D
:1018F00090ED000A013200F10400B0EEC00A81ED63
:10190000000A01F10401F3D17047000010B54FF057
:10191000000CBCEB920F28D093085C42B0F9003069
:10192000002B02DCDCFA13F31BB20B80B0F902309F
:10193000002B02DCDCFA13F31BB24B80B0F904304D
:10194000002B02DCDCFA13F31BB28B8000F1080ED3
:10195000B0F90600002802DCDCFA10F000B2C88002
:10196000083101347046D9D100E0864612F00300F8
:1019700008BF10BD404200223EF9023B002B02DCB2
:10198000D2FA13F31BB221F8023B0130F4D110BD9F
:1019900010B54FF0000CBCEB920F20D093085C42C6
:1019A0000368002B01DC83FAACF30B604368002B67
:1019B00001DC83FAACF34B608368002B01DC83FA13
:1019C000ACF38B6000F1100EC068002801DC80FAD7
:1019D000ACF0C860103101347046E1D100E08646B9
:1019E00012F0030008BF10BD404200225EF8043B25
:1019F000002B01DC83FAA2F341F8043B0130F5D15E
:101A000010BD032884BF0020704740F64C1100EB46
:101A10004000C2F2000101EB8001002011F8012F0B
:101A2000012A04BF08700120704740F63C11C2F241
:101A300000018A7AC87A824204BF00207047885C1D
:101A40000132D3B2092B88BF00228A7270477047D7
:101A500070B592B0FEF789FF43F6400400250226D8
:101A60000195C4F20204206840F080502060206894
:101A700000F0805001900198019547F20000C4F2F7
:101A80000000016841F480410160006800F480407A
:101A90000190019804200C904FF4A8700B960A90C6
:101AA000192009904FF48000CDE907604FF4803091
:101AB00002900120019001A8FFF7E6F84FF4805052
:101AC000052111904FF4A05010900F20CDE90E6524
:101AD0000D900DA8FEF7D8FF0095606840F4804097
:101AE0006060606800F4804000900098FEF754FE4B
:101AF00000F052F800F02EF900F063F900F0CCF895
:101B000012B070BD10B592B002AC242104F11C00DB
:101B1000FEF78EFB43F6400100200190C4F2020163
:101B20000A6842F001020A604FF08042096801F041
:101B300001010191019906904FF0FF310591029248
:101B40008022CDE90702049040F204004DF6836242
:101B5000C2F20000C4F21B320068A0FB020201EBDB
:101B6000D24080B203902046FFF71CFA38B143F20E
:101B7000270040F21F21C0F60000FEF709FE1C20DE
:101B800000210222FEF742FF1C20FEF730FF02A8D0
:101B9000FFF723FA12B010BD70B586B040F63C10C6
:101BA0000021022264230026C2F200000173418159
:101BB00040F69C00C2F2000085191036A02E297351
:101BC0002A71AB60F8D106216422002542F6305616
:101BD00001ACA0F86B10A0F86820A0F85B10A0F88A
:101BE0005820A0F84B10A0F84820A0F83B1002871E
:101BF00043F630000195C0F60006C4F20200016809
:101C000041F004010160016801F0040101910199B2
:101C10000195016841F020010160016801F0200197
:101C2000019101990195016841F08001016001680D
:101C300001F08001019101990195016841F0400195
:101C40000160016801F0400101910199019501686D
:101C500041F080010160016801F08001019101996A
:101C60000195016841F480710160006800F48070A2
:101C70000190019803200490CDE9025506EBC500C0
:101C800021468088019056F83500FEF78DFD01351C
:101C9000082DF3D106B070BD2DE9F04186B043F6B2
:101CA0003000002141F2184340F6000480264FF432
:101CB00080774FF0040801AD0191C4F20200C4F234
:101CC0000203C4F20204026842F0040202600268E5
:101CD00002F004020192019A0191026842F020028E
:101CE0000260026802F020020192019A01910268EA
:101CF00042F4807202604FF48062006800F48070E9
:101D00000190019842F20000C4F2020082611E605C
:101D10001F600223C4F81880CDE903130121CDE927
:101D200001212946FEF740FD019604F5406629464B
:101D30003046FEF739FD304629460197FEF734FD5F
:101D400020462946CDF80480FEF72EFD06B0BDE8FA
:101D5000F081000040F64C1100200022C2F2000188
:101D60008B1858609860587088540C32302AF7D11C
:101D700040F2040044F6D351C2F20000C1F2620105
:101D80000068A0FB01014FF0FF3000EB9111002033
:101D9000B0EB116F0DD14EF21002F023CEF2000223
:101DA00051604EF62351CEF200010B709060072077
:101DB000106040F688000121C2F200000170FFF7B8
:101DC000A1BEF0B585B040F65C0140F2580340F288
:101DD000584641F2000400204FF004220727C2F2C7
:101DE0000001C4F20104C2F20003C2F2000608823C
:101DF0004882C88208834883C1E90046C1E90232AB
:101E000081F82800C1E907004862888243F6300162
:101E1000009004F570456E46C4F202010A6842F073
:101E200001020A600A6802F001020092009A009022
:101E30000A6842F001020A600A6802F00102009298
:101E4000009A0090486940F01000486148693146A6
:101E500000F01000009000980497032003900120E8
:101E60000290022001904FF4007000902846FEF787
:101E70009BFC4FF480600497314600902846FEF7A3
:101E800093FC252000210122FEF7C0FD2520FEF74E
:101E9000AEFD20464FF4E13100220C2300F0C2F8E1
:101EA000206820F040002060206820F020002060A2
:101EB000E06840F02000E060FFF7A3F905B0F0BD56
:101EC0002DE9F04F81B040F69C0540F63C1A4FF0EA
:101ED000000B4FF005094FF0010800260027C2F261
:101EE0000005C2F2000A00BFF8B2AC19FFF734F9DE
:101EF000217928B1042909D884F804904CE000BF66
:101F0000062908D384F8049042E000BF092906D8C6
:101F1000481C207140E031B3481E207138E0A07A9F
:101F200088B907EB47019AF80B0084F80A80013161
:101F30000AF800109AF80B000130C1B2092988BFD5
:101F400000208AF80B00208930B3E18881422BD22F
:101F50000131E18089B281421ED107EB47019AF835
:101F60000B00033130E0A07A012811D107EB4701C3
:101F70009AF80B0084F80AB002310AF800109AF8B7
:101F80000B000130C1B2092988BF00208AF80B007C
:101F900084F80CB0A4F806B010360137A02E04BFA8
:101FA00001B0BDE8F08F9FE7E07A0028F4D0217BF4
:101FB00001312173C9B28142EED307EB47019AF890
:101FC0000B0084F80CB001310AF800109AF80B00ED
:101FD0000130C1B2092988BF00208AF80B00DBE775
:101FE000431E032B88BF704740F6140C4FF48061EA
:101FF000C4F2020C0CF5C050DFE803F00D02060B32
:102000000CF54060802106E00CF540604FF48071D3
:1020100001E0042160460268514001607047FFF70B
:102020004FBF704780B590B04FF0000CCDE903C2B0
:102030008DE803106846CDF81CC0CDE9053CFEF7DD
:10204000DEFF38B143F2460040F2BA21C0F600008C
:10205000FEF79EFB10B080BD04280ED380B543F27E
:10206000070043F227010FA2C0F60000C0F60001EE
:1020700000F0C6F9BDE88040FEE740F64C1300EBE7
:1020800040004FF0010C8CF31088C2F2000303EB08
:102090008002516091600021517003F820C081F3EB
:1020A000108870476273705F537461727441757405
:1020B0006F54696D657200002DE9F04182B01446DD
:1020C0008846FEF745FB002845D00646C06900B1AA
:1020D0008047002C3AD000200121002281F3108893
:1020E000B38AADF8063080F3108812E0BDF80650D0
:1020F0009D4207D13368DD682D065EBFDD6845F07F
:102100008005DD6081F31088B38AADF8063080F376
:102110001088BDF80650B3899D42E7D218F8023006
:102120007568378A0132EB5581F31088338A0133A1
:1021300033829BB2B789BB4228BF3082B38AA242A6
:1021400003F10103B38280F31088C7D13068C168FE
:1021500041F08001C16002B0BDE8F08110B582B0ED
:1021600004468DF807000DF1070100200122FFF75A
:10217000A3FF204602B010BD86B0FFF769FC42F60F
:102180000E64C0F60004204600F03AF947F610202D
:102190004DF68361C1F6FF70C4F21B3105684668D5
:1021A000876840F20400C2F200000068A0FB010151
:1021B00042F6DE50890CC0F6000000F021F942F62C
:1021C0004E60394632462B46C0F6000000F018F942
:1021D0005EA000F015F9204600F012F942F6C65054
:1021E00042F6DC71C0F60000C0F6000100F008F90C
:1021F00042F6AE5056A1C0F6000000F001F942F6DA
:10220000965042F6D171C0F60000C0F6000100F011
:10221000F7F842F69660C0F6000000F06BFD4DA0A6
:1022200000F068FD42F66560C0F6000000F062FD57
:1022300049A000F05FFD42F67C60C0F6000000F0AF
:1022400059FD4AA000F056FD50A000F053FD57A0E4
:1022500000F050FD204600F0D3F85FA000F04AFDEA
:1022600042F6C760C0F6000000F044FD42F64F7031
:10227000C0F6000000F03EFD42F60E70C0F6000011
:1022800000F038FD42F69070C0F6000000F032FD1C
:1022900000206421FFF7E0FE42F67D5A42F67055B9
:1022A00042F68A589FED508A0DF104090DF10C0B8E
:1022B00002AC05AE04AFC0F6000AC0F60005C0F6D9
:1022C000000800BFFFF7C3FB0020FFF79AFB10B127
:1022D0000220FFF785FEFFF7A8FB072817D0042888
:1022E00026D00128EED19DED050A3046394601225F
:1022F00030EE080A8DED050AFFF7D0FA0498FDF7D5
:10230000A2FF024640460B4600F07AF8DAE7BDF835
:102310000600494601220138ADF806000DF106001D
:10232000FFF7F4FABDF90410504600F069F8C9E768
:10233000039821460122013803905846FFF728FBF5
:102340000299284600F05CF8BCE700BF0A0D0000C7
:10235000312E30002A200D002A20E697BAE697BADF
:1023600020203A2061726D666C790D002A20E5BE4E
:10237000AEE4BFA1E585ACE4BC97E58FB73A206138
:10238000726D666C795F636F6D200D002A20E6B771
:1023900098E5AE9DE5BA973A2061726D666C792E2C
:1023A00074616F62616F2E636F6D0D002A20436F41
:1023B00070797269676874207777772E61726D66BD
:1023C0006C792E636F6D20E5AE89E5AF8CE88EB138
:1023D000E794B5E5AD900D00E6938DE4BD9CE68FE6
:1023E00090E7A4BA3A0D0000A4709DBF1EF0040F40
:1023F0000CBFEFF30880EFF30980FEF72FBE00005B
:102400000FB4054B10B503A9044A029800F0DAF89E
:1024100010BC5DF814FB00005D21000800000020E6
:1024200002E008C8121F08C1002AFAD1704770479D
:10243000002001E001C1121F002AFBD170470000FB
:102440002DE9FF5F82B00021DDE90430020DDDF8E7
:1024500040B0034318D044F61050A2F2FF3242437A
:102460001514119801281FD0A5EB0B00401C5FEA42
:10247000000A4FF000064E4FDFF83891B046504644
:1024800015D5CAF1000413E0119801244AA30128CC
:1024900001D16FEA0B010298119AC0E90031C0E93D
:1024A000024206B0BDE8F09FCBF10000DFE7044632
:1024B0000021404A491842EB0450CDE9001012E0D7
:1024C000E00707D032463B4640464946FDF7AAFFA3
:1024D0008046894632463B4610461946FDF7A2FF24
:1024E00006460F466410002CEAD1DDE90401DDE95F
:1024F0000023BAF1000F06DAFDF794FF42464B467F
:10250000FDF790FF05E0FDF7FFFF42464B46FDF764
:10251000FBFF04460E460022284BFEF77DF803D849
:102520004FF0FF30014607E00022254B20463146A0
:10253000FDF7D1FEFEF757F8102409E0002C0ADB66
:102540000A220023FDF73CFE039B30321A55641E1D
:1025500050EA0102F2D1641C039AC4F1110314443D
:10256000119A012A03D0012208430DD10AE0084341
:1025700004D000204FF0110B119072E7A3EB0B0574
:102580006D1E0DE05B4504DD4FF0000205F1010515
:1025900004E003DA4FF00002A5F10105002AECD0B7
:1025A00002981199C0E90231C0E9004579E70000BD
:1025B000000014400000F03F300000000000F04335
:1025C0000000E03F2DE9FF4F95B09B468946064647
:1025D00000250FE2252877D100242746F84A01215B
:1025E000059400E0044316F8013F203B01FA03F094
:1025F0001042F7D130782A2811D06FF02F033078AD
:10260000A0F13002092A16D8059A44F0020402EB20
:10261000820203EB42021044761C0590EFE759F862
:10262000042B0592002A03DA504244F4005405902A
:1026300044F00204761C30782E2816D116F8010FCB
:1026400044F004042A280DD06FF02F023078A0F156
:102650003003092B09D807EB870302EB4303C718A4
:10266000761CF3E759F8047B761C30786C280FD081
:1026700006DC4C2817D068280DD06A2814D104E055
:10268000742810D07A280FD10DE044F400140AE029
:1026900044F4801401E044F440147278824202D180
:1026A00004F58014761C761C307866280BD013DC79
:1026B000582877D009DC002875D04528F6D0462860
:1026C000F4D047281AD19DE118E0632835D064285A
:1026D00079D0652812D195E1702873D008DC67287D
:1026E000F1D069286FD06E280DD06F2806D1B5E0E3
:1026F00073282CD0752875D0782874D05A4617992D
:1027000090476D1C75E1C4F30250022809D00328DC
:102710000DD0D9F8001004280DD00D6009F104097E
:1027200067E1D9F80010EA17C1E90052F6E7D9F8D5
:1027300000100D80F2E70D70F0E719F8041B8DF81A
:10274000001000208DF80100EA46012003E059F84E
:1027500004AB4FF0FF3061074FF0000102D40DE0F1
:1027600008F101018846B9420FDA8045F8DB1AF812
:1027700008100029F4D108E008F1010188468142DF
:10278000FADB1AF808100029F6D105985B46A0EB91
:10279000080721463846179A00F094FA284400EBBF
:1027A000080507E04DE029E10DE01AF8010B5A4653
:1027B00017999047B8F10108F7D25B462146384691
:1027C000179A13E142E00A220092C4F302524FF03A
:1027D000000A022A08D059F804CB032A4FEAEC7108
:1027E0000AD00DE029E02AE009F1070121F00702F3
:1027F000F2E802C1914609E00FFA8CFC4FEAEC7155
:10280000042A03D14FFA8CFC4FEAEC71002907DA55
:102810000A460021DCF1000C61EB02012D2202E0EE
:10282000220504D52B228DF80420012203E0E207C3
:1028300001D02022F7E7904659E00A2102E0102259
:102840000DE010214FF0000A00910BE010224FF034
:10285000000A44F004040827009203E008224FF025
:10286000000A0092C4F30252022A05D059F804CBA0
:102870000021032A08D009E009F1070121F007022D
:10288000F2E802C1914605E01FFA8CFC042A01D14E
:102890000CF0FF0C4FF00008220728D5702806D056
:1028A000009B83F0100353EA0A0305D00EE0402298
:1028B0008DF80420012208E05CEA010206D03022F3
:1028C0008DF804208DF8050002229046009B83F0CD
:1028D000080353EA0A030AD15CEA010201D1620744
:1028E00005D530228DF804204FF001087F1E5828AE
:1028F00004D034A003900EA802900DE036A0F9E7B2
:1029000053466046009AFDF75BFC84460398825C60
:102910000298401E029002705CEA0100F0D1029819
:1029200006A9081A00F1200A600702D524F48034B1
:1029300000E00127574502DDA7EB0A0000E0002078
:1029400000EB0A01009005984144401A0590E0030D
:1029500006D45B462146179A059800F0B3F9054462
:10296000002706E001A85A46C05D179990476D1CE4
:102970007F1C4745F6DBE0030CD55B462146179AE2
:10298000059800F09FF9054404E030205A46179955
:1029900090476D1C0099481E00900029F5DC08E066
:1029A000029802995A460078491C0291179990475B
:1029B0006D1CBAF10001AAF1010AF1DC65E1000029
:1029C0000928010030313233343536373839616205
:1029D00063646566000000003031323334353637C9
:1029E00038394142434445460000000000F058F9A0
:1029F0000544761C307800287FF4ECAD19B02846E9
:102A0000BDE8F08F620700D4062709F1070222F023
:102A1000070CFCE80223E14603F000485FEA080CDB
:102A200002D00FF2702C0DE05FEA045C02D50FF2C9
:102A3000682C07E05FEAC47C02D00FF2602C01E052
:102A4000AFF2700C4FF0FF3823F00043CDF850C0C8
:102A500065280CD006DC452809D046281DD047281B
:102A60003DD13DE0662818D067287ED138E00021AE
:102A7000112F01DB112000E0781CCDE9000106A92F
:102A80000EA8FFF7DDFCDDE90F010E9A039100218E
:102A9000009207F1010A04914DE04FF000400097C9
:102AA000CDE9011006A90EA8FFF7CAFCDDE90F0267
:102AB00003920E9B11990022DDF80CA00093049262
:102AC00011B9791C00EB010AB7EB0A0004D4C0F17C
:102AD000FF3007F1010A0490AAEB0700019044E0DF
:102AE000012F00DA01270021112F01DD112000E064
:102AF0003846CDE9000106A90EA8FFF7A1FCDDE9E3
:102B00000F010E9A0391002104910092BA46210709
:102B10000CD40399514500DA8A46BAF1010F05DD5C
:102B2000009AAAF10101515C302908D0B84202DABA
:102B300010F1040F06DA0121CDE9011015E0AAF128
:102B40000101E9E7002805DC049901440491AAEB9E
:102B5000000102E0411C514500DD8A460499401AFB
:102B6000401C01904FF000400290200704D40198CF
:102B7000504501DBCDF8048000208DF84F0002980D
:102B80000DF14F07B0F1004F25D02B200E90029889
:102B90004FF0020800280CDA404202902D200E90DF
:102BA00007E00A210298FDF761FB3031029007F837
:102BB000011DB8F10001A8F10108F2DC029800281B
:102BC000EFD1791E0E980870307800F0200040F0A8
:102BD000450007F8020D12A8C01B00F10708149861
:102BE000007800B1012000EB0A01019801EBE071CF
:102BF00005984144401A401E0590E00306D45B4608
:102C00002146179A059800F05DF80544149800785D
:102C100018B15A46179990476D1CE00324D55B46BE
:102C20002146179A059800F04DF805441CE00498D9
:102C3000002807DBDDE90301884203DD0098405CE2
:102C4000179901E0179930205A469047049805F1EA
:102C50000105401C04900198401E019004D12E20D3
:102C60005A46179990476D1CBAF10001AAF1010A62
:102C7000DDDC05E017F8010B5A46179990476D1CEB
:102C8000B8F10001A8F10108F4DC5B462146179A6F
:102C90000598ABE62D0000002B000000200000008E
:102CA0002DE9F041044600251E461746880404D449
:102CB00005E039462020B0476D1C641EF9D5284632
:102CC000BDE8F0812DE9F041044600251E469046FE
:102CD000C80301D5302700E02027880404D505E08B
:102CE00041463846B0476D1C641EF9D52846BDE8FC
:102CF000F081000010B5044601E0FFF72FFA14F848
:102D0000010B04490028F8D1BDE810400A20FFF764
:102D100025BA0000000000200000000000000000B4
:102D20000102030406070809000000000102030471
:102D300000200240000100000008024000200000C6
:102D40000020024000080000001C024004000000B7
:102D5000001C0240080000000014024000080000AF
:102D60000018024080000000001C024000800000AB
:102D70007044737431203D2025640D0A0070447343
:102D80007432203D2025640D0A0070447374203D88
:102D90002025660D0A002A20E58F91E5B883E69785
:102DA000A5E69C9F2020203A2025730D0A002A20AA
:102DB000E4BE8BE7A88BE78988E69CAC2020203A0C
:102DC0002025730D0A002A20E4BE8BE7A88BE5902E
:102DD0008DE7A7B02020203A2025730D0A000D0AA8
:102DE000435055203A2053544D33324634303749FE
:102DF0004754362C204C5146503137362C20E4B8FD
:102E0000BBE9A2913A2025644D487A0D0A002A2A8E
:102E10002A2A2A2A2A2A2A2A2A2A2A2A2A2A2A2A12
:102E20002A2A2A2A2A2A2A2A2A2A2A2A2A2A2A2A02
:102E30002A2A2A2A2A2A2A2A2A2A2A2A2A2A2A2AF2
:102E40002A2A2A2A2A2A2A2A2A2A2A0A0D005549FF
:102E500044203D2025303858202530385820253052
:102E600038580A0D002A205151202020203A2031C4
:102E7000323935373434363330200D002A20456D51
:102E800061696C203A2061726D666C794071712EB7
:102E9000636F6D200D002A2048414CE5BA93E78905
:102EA00088E69CAC20203A2056322E342E30202842
:102EB00053544D3332463430372048414C2044720D
:102EC00069766572290D00312E20E590AFE58AA85C
:102ED000E4B880E4B8AAE887AAE58AA8E9878DE87B
:102EE000A385E8BDAFE4BBB6E5AE9AE697B6E59933
:102EF000A8EFBC8CE6AF8F3130306D73E7BFBBE815
:102F0000BDACE4B880E6ACA14C4544320D00332E94
:102F100020E68C89E4B88BE68C89E994AE4B322CA0
:102F200020E4B8B2E58FA3E68993E58DB0E587BDCF
:102F3000E695B061726D5F6162735F713331E79ADC
:102F400084E8BE93E587BAE7BB93E69E9C0D00320A
:102F50002E20E68C89E4B88BE68C89E994AE4B315F
:102F60002C20E4B8B2E58FA3E68993E58DB0E58720
:102F7000BDE695B061726D5F6162735F663332E783
:102F80009A84E8BE93E587BAE7BB93E69E9C0D0062
:102F9000342E20E68C89E4B88BE68C89E994AE4B1C
:102FA000332C20E4B8B2E58FA3E68993E58DB0E534
:102FB00087BDE695B061726D5F6162735F71313597
:102FC000E79A84E8BE93E587BAE7BB93E69E9C0D3B
:102FD00000323031392D30372D33310056352D4107
:102FE000524DE79A84445350E7A7BBE6A48DE6A868
:102FF000A1E69DBFEFBC88E6BA90E7A081E696B94E
:10300000E5BC8FEFBC89004572726F723A20666929
:103010006C652025732C2066756E6374696F6E2055
:10302000257328290D0A002E2E2F2E2E2F5573655D
:10303000722F6273702F7372632F6273705F746983
:103040006D65722E63002E2E2F2E2E2F55736572F6
:103050002F6273702F7372632F6273705F7561726A
:10306000745F6669666F2E63000000009030000890
:10307000000000201000000020240008A0300008FC
:1030800010000020780D000030240008000000002F
:10309000000000000024F400010000001000000007
:040000050800018965
:00000001FF
