:020000040800F2
:1000000008260024AD020008D14B000809040008AE
:10001000CD4B0008210400084561000800000000E5
:100020000000000000000000000000000552000871
:100030005905000800000000D34B000809520008D1
:10004000C7020008C7020008C7020008C70200086C
:10005000C7020008C7020008C7020008C70200085C
:10006000C7020008C7020008C7020008C70200084C
:10007000C7020008C7020008C7020008C70200083C
:10008000C7020008C7020008C70200089D06000852
:10009000BD060008AD060008CD060008C70200082E
:1000A000C7020008C7020008C7020008C70200080C
:1000B0003D550008C7020008C7020008C702000833
:1000C000C7020008C7020008C7020008C7020008EC
:1000D000C7020008855E0008C7020008955E000898
:1000E000C7020008C702000800000000C70200089D
:1000F000C7020008C7020008C7020008C7020008BC
:10010000C7020008014F0008C7020008C702000824
:10011000C7020008C7020008C7020008C70200089B
:10012000C7020008C7020008C7020008C70200088B
:10013000C7020008C7020008C7020008DD06000861
:1001400000000000000000000000000000000000AF
:10015000C7020008C7020008C7020008C70200085B
:10016000C7020008C7020008C7020008C70200084B
:10017000C7020008C7020008C7020008000000000C
:10018000C7020008C7020008C7020008C70200082B
:10019000C7020008C7020008C7020008C70200081B
:1001A000C7020008C7020008C7020008C70200080B
:1001B000C7020008C7020008C7020008C7020008FB
:1001C000C7020008C7020008C7020008C7020008EB
:1001D000C7020008C7020008C7020008C7020008DB
:1001E000C7020008C7020008C7020008C7020008CB
:1001F000C7020008C7020008C7020008C7020008BB
:10020000C7020008C7020008C7020008C7020008AA
:10021000C7020008C7020008C7020008C70200089A
:10022000C7020008C7020008C7020008000000005B
:10023000C7020008C702000800000000C70200084B
:10024000C7020008C7020008C7020008C70200086A
:10025000C7020008C7020008C7020008C70200085A
:10026000C7020008C7020008C7020008C70200084A
:10027000C7020008C7020008C7020008000000000B
:10028000C7020008C7020008C702000800000000FB
:1002900000000000C7020008DFF80CD000F0A2F850
:1002A00000480047F16E00080826002406488047F1
:1002B00006480047FEE7FEE7FEE7FEE7FEE7FEE74B
:1002C000FEE7FEE7FEE7FEE7395400089902000862
:1002D0002DE9F05F0546002092469B46884606467B
:1002E000814640241BE0284641464746224600F00E
:1002F00069F853465A46C01A914110D31146184620
:10030000224600F050F82D1A67EB01084F462246AE
:100310000120002100F047F817EB00094E41201E94
:10032000A4F10104DFDC484631462A464346BDE8D5
:10033000F09F40EA01039B0703D009E008C9121FA0
:1003400008C0042AFAD203E011F8013B00F8013B8F
:10035000521EF9D27047D2B201E000F8012B491EBB
:10036000FBD270470022F6E710B513460A46044652
:100370001946FFF7F0FF204610BD30B50B46014689
:1003800000202022012409E021FA02F59D4205D334
:1003900003FA02F5491B04FA02F52844151EA2F1DE
:1003A0000102F1DC30BD202A04DB203A00FA02F120
:1003B000002070479140C2F1200320FA03F3194353
:1003C00090407047202A04DB203A21FA02F00021F5
:1003D000704721FA02F3D040C2F120029140084355
:1003E00019467047064C074D06E0E06840F00103EF
:1003F00094E8070098471034AC42F6D3FFF750FF5B
:10040000F46F0008147000081EF0040F0CBFEFF327
:100410000880EFF3098004F0A5B970477047704772
:1004200000BFFEE710B500BF2A48006800F40030A6
:1004300000B115E0BFF34F8FBFF36F8F0020264947
:100440000860BFF34F8FBFF36F8F2248006840F4FE
:10045000003020490860BFF34F8FBFF36F8F00BF9C
:1004600000BF1C4B1B6803F4803303B130E0002352
:10047000184C70342360BFF34F8F231F1868C0F3EC
:100480004E3100BFC0F3C90200BF43F6E07303EA78
:1004900041134FF0404404EA827423430E4C10345D
:1004A000236000BF00BF131EA2F10102EDD10B1E9D
:1004B000A1F10101E6D1BFF34F8F064B1B6843F456
:1004C0008033044C2360BFF34F8FBFF36F8F00BFA7
:1004D00010BD000014ED00E050EF00E010B5044640
:1004E0000CB9124810BD012C01D10020FAE7022CF2
:1004F00001D10F48F6E7032C01D10020F2E7042CCC
:1005000001D10020EEE7052C01D10020EAE7062CFE
:1005100001D10020E6E7072C01D10020E2E74FF4EB
:100520008E7104A000F0B6F80020DBE7500500242F
:100530007C0D00242E2E5C2E2E5C557365725C6241
:1005400073705C7372635C6273705F756172745F09
:100550006669666F2E630000704700001CB50027B7
:10056000B846002606F096FC4FF4FA71002006F01B
:10057000E3FB69E0002005F005FF10B1022006F062
:1005800032FB684605F0C6FF00285DD0BDF80000CC
:10059000032858D12D4804782D48C068010C224604
:1005A0002CA005F0D1FD242C12D1284840782F49E9
:1005B000086006F101600A682449891C06F00AFCFB
:1005C0002A4800680644314629A005F0BDFD00BF59
:1005D000232C01D104F066FA2A2C33D11B48407831
:1005E0001A49897800EB01201849C97800EB0140CD
:1005F0001649097900EB0160204908600846006847
:100600001F4908601D480068470C1C480068C0F37B
:1006100010081A4801681BA005F096FD002506E0A9
:100620004FF0016202EB454005F04EFF6D1CBD42EC
:10063000F6D3B8F1000F05D04FF0016202EB454050
:1006400005F042FF00BF00BF94E70000FC03002458
:10065000D403002473697A65203D2025642C20632F
:100660006D64203D2025630D0A0000001400002465
:100670003D3D3D3D3D25640D0A0000001C00002469
:100680000800002466696C6573697A65203D202541
:10069000640D0A0001B9704700BFFEE710B50248BB
:1006A00000F0C6FC10BD00005402002410B5024842
:1006B00000F0BEFC10BD00005402002410B502483A
:1006C00000F0B6FC10BD00001403002410B5024871
:1006D00000F0AEFC10BD00001403002410B5034868
:1006E00000F0A6FC024800F0A3FC10BD5402002458
:1006F0001403002410B501464A6B0868D0F8840042
:100700004FF6FC74A04340EA82000C68C4F88400F1
:100710000868D0F8840020F47F04088F44EA004081
:100720000C68C4F88400886B02440868D0F888001C
:100730004FF6FC74A04340EA82000C68C4F88800BD
:100740000868D0F8880020F4FE04888F44EA00404E
:100750000C68C4F88800C86B02EB40020868D0F847
:10076000A0004FF6FC74A04340EA82000C68C4F875
:10077000A0000868D0F8A00020F4FE044020405AF1
:1007800044EA00400C68C4F8A000D1E9104004FB22
:1007900000220868D0F8B0004FF6FC74A04340EA8D
:1007A00082000C68C4F8B0000868D0F8B00020F4EB
:1007B000FE04B1F8480044EA00400C68C4F8B000F8
:1007C000D1E9124004FB00220868D0F8AC004FF6D3
:1007D000FC74A04340EA82000C68C4F8AC00D1E984
:1007E000144004FB00220868D0F8F0004FF6FC74B7
:1007F000A04340EA82000C68C4F8F0000868D0F812
:10080000F00020F47C14B1F8580044EA00400C6871
:10081000C4F8F000886D02EB40020868D0F8C00010
:100820004FF6FC74A04340EA82000C68C4F8C00094
:100830000868D0F8C00020F47C14B1F85C0044EAE9
:1008400000400C68C4F8C0000868D0F8C00020F070
:100850007C5491F8600044EA00600C68C4F8C00061
:100860002A4C486B04EB8000C866CC6E886B04EBA6
:1008700080040C670C6FC86B04EBC0044C67D1E9B3
:10088000100460434C6F04EB80048C67D1E91204C0
:1008900060438C6F04EB8004CC67D1E9140460439F
:1008A000CC6F04EB8004802044504458886D04EBE6
:1008B000C004842044508C6EC86D60438424645806
:1008C00004EB8004882044508C6E086E60438824BA
:1008D000645804EB80049020445040580C4CA042D3
:1008E00009D99831486840F020004860032001F899
:1008F0009809012010BDCB6E02E0002018601B1D7E
:10090000902040589842F8D80020F3E700AC00400F
:10091000FCD3004010B501F001037BB1134BDB6841
:1009200023F4E663114CE36042F0040343EA00233E
:1009300043F08003E46823430C4CE36001F00203BE
:10094000022B12D10A4B1B6823F4E663074CC4F850
:100950000C3142F0040343EA002343F08003D4F84F
:100960000C412343014CC4F80C3110BD002000524F
:100970000C21005201F00302032A1BD1234AD26842
:1009800022F03002214BDA60214A126822F0300254
:10099000C3F80C211A46D2680243DA601A46D2F82C
:1009A0000C210243C3F80C211A46926942F010024E
:1009B0009A6129E001F0010272B1144AD26822F072
:1009C0003002124BDA601A46D2680243DA601A46E5
:1009D000D26842F08802DA6001F00202022A13D1E2
:1009E0000B4A126822F03002084BC3F80C211A4659
:1009F000D2F80C210243C3F80C211A46D2F80C217C
:100A000042F08802C3F80C21704700000020005219
:100A10000C2100522DE9F04106460F4604243548CA
:100A20000069354900EA010501F06EFA8046022F9F
:100A300006D1324800683249084040F00045314C48
:100A40000BE0701C48B101F05FFAA0EB0800B04267
:100A500000D816B90320BDE8F0812B482040A04201
:100A600008D1244800692040A04201D101200DE0B6
:100A700000200BE02148006824F00041084024F0E9
:100A80000041884201D1012000E000200028D8D197
:100A900025F0004090B11D48806928431B498861BA
:100AA00019482840A84202D11248456104E025F0C7
:100AB00000401249091D08600120CCE7012F0AD12E
:100AC0000C48006900F48030B0F5803F0FD1380445
:100AD000084948610BE00948006800F48030B0F52F
:100AE000803F04D14FF480300449091D0860002084
:100AF000B1E70000002000520000EE171021005264
:100B00000000EE97040000800F00EF1FA8150024DE
:100B100070B50446B3F5804F13D1D1E9000540EA22
:100B200005108D6840EA05208D6928438D8940EACB
:100B3000054054F82250064E3540284344F8220020
:100B400003E06FF0704044F82200002070BD000008
:100B50000000F0CF70B50246086852F8200020F07F
:100B600001000E6842F826008868082801D1402557
:100B700000E00025486828438E683043CE68304343
:100B80000E6930434E6930438E693043CE6930433D
:100B90000E6A30434E6A30438E6A3043CE6A40EA72
:100BA0000603086B0343486B0343886B0343114CF4
:100BB00044F4801444F4001444F4E024086852F827
:100BC0002000A04318430E6842F82600086BB0F5D9
:100BD000801F07D1086828B1106820F480100E6BC0
:100BE00030431060086818B110684E6B30431060D5
:100BF000002070BD7FFB080030B50346D1E9000539
:100C000040EA05108D6840EA05208D8940EA0545D7
:100C1000088A401E45EA0055087D801E45EA0060AE
:100C20008D692843551C53F8255005F0404528434D
:100C3000551C43F82500186800F48010B0F5801F9B
:100C40000BD1586820F47004088A401E44EA00540E
:100C5000586820F4700020435860002030BD000028
:100C60000348006840F00100014908607047000037
:100C70002004005830B5034693F89840012C01D069
:100C8000022C3ED11868806D084030B91868C06DDC
:100C900040F001001D68E8650EE01868806D0840AE
:100CA000884206D11868C06D40F002001D68E865F2
:100CB00002E003201D68E86501F4007030B1186897
:100CC000D0F8E00010431D68C5F8E00001F4806032
:100CD00030B11868D0F8E40010431D68C5F8E4008E
:100CE00000BF1868406D0B4D0D4028431D686865B6
:100CF0000948006840EA9170074D286000BF002055
:100D000030BDD3F89C0040F00200C3F89C000120E5
:100D1000F6E70000FFFFCF3F14A80040704710B572
:100D2000034601B900E000BF93F89800012824D1E0
:100D300051B91868D0F8F00020F07C5040EA026009
:100D40001C68C4F8F00016E001290AD11868D0F830
:100D5000A00020F0FE4040EA02601C68C4F8A00039
:100D600009E01868D0F8B00020F0FE4040EA0260C8
:100D70001C68C4F8B000002010BDD3F89C0040F0FF
:100D80000400C3F89C000120F6E7F0B5024692F893
:100D90009860012E01D0022E43D1C868072800D1E7
:100DA00000BF086818BBC868072800D000BFC86823
:100DB00007280BD1088A4FF0605747EA0040CF69F7
:100DC00040EA07208F6940EA07040AE0087A8007B2
:100DD0000F7B40EAC7600F8A40EA07404F6940EA4C
:100DE0000704D76E486807EB80031C6017E0C868EB
:100DF000072800D000BF0F7B086940EA4774C86825
:100E0000072801D18D6903E00F7A486940EA8775A8
:100E1000176F486807EBC0031C601B1D1D60002096
:100E2000F0BDD2F89C0040F00200C2F89C00012006
:100E3000F6E77047704700002DE9F04304460D4681
:100E40009C46002394F89880B8F1020F74D1402D8D
:100E500038D12068D0F8A00000F4FE0040B9D4F8E2
:100E60009C0040F02000C4F89C000120BDE8F08305
:100E70002068D0F8A40000F07F0038B9D4F89C00B6
:100E800040F48070C4F89C000120EFE72068D0F89F
:100E9000A400C0F3006040B12068D0F8A0004FF07B
:100EA0000049B9EBD07F00D101232068D0F8A4001D
:100EB000C0F305200344606C5843D4F8749009EBE8
:100EC00080014BE0412D38D12068D0F8B00000F40B
:100ED000FE0038B9D4F89C0040F02000C4F89C0013
:100EE0000120C3E72068D0F8B40000F07F0038B9D3
:100EF000D4F89C0040F48070C4F89C000120B5E751
:100F00002068D0F8B400C0F3006040B12068D0F889
:100F1000B0004FF00049B9EBD07F00D10123206829
:100F2000D0F8B400C0F305200344E06C5843D4F873
:100F3000789009EB800111E06EE0206DA84207D89F
:100F4000D4F89C0040F02000C4F89C0001208DE7FC
:100F5000606D6843D4F87C9009EB8001086800F06C
:100F600080405060506820B90868C0F38A40106023
:100F700003E0086820F060401060086800F000504E
:100F80009060086800F000401061091D088880B278
:100F9000D061086800F47020D060086800F4801008
:100FA0005061086800F4001090610868C0F30660A2
:100FB00010620868C00F5062091D0F46002603E04A
:100FC000B85D0CF80600761CDFF85C90D06809EB81
:100FD00010400078B042F3D8402D03D12068C0F80B
:100FE000A83017E0412D03D12068C0F8B83011E0D7
:100FF000202D06D20120A840D4F80090C9F898000E
:1010000008E005F01F09012000FA09F0D4F800906B
:10101000C9F89C00002029E7D4F89C0040F00800A3
:10102000C4F89C00012021E7886F00087047000089
:101030002DE9F04F89B00446F54800688507F4486B
:10104000001D006805EA80752068006D00F4704698
:101050002068406D06402068006D00F00F07206892
:10106000406D07402068006D00F0F0082068406D7A
:1010700000EA08082068006D00F071592068406D92
:1010800000EA09092068006D00F0607A2068406D70
:1010900000EA0A0A2068406D00F4807080B1206880
:1010A000006D00F4807058B100BF4FF4807021686B
:1010B00008650020D649086000BF2046FFF7B6FF4C
:1010C0002068406D00F48060D8B12068006D00F4A5
:1010D0008060B0B12068D0F8DC0007902068D0F8BC
:1010E000E40007990840079000BF4FF48060216832
:1010F00008650020C649086000BF2046079900F037
:1011000088FC65B100BFC348284021680865A80F66
:10111000BF49086000BF29462046FFF7FFFD66B1C2
:1011200000BFBC48304021680865B00FB84908606E
:1011300000BF3146204600F06EFC67B100BFB548E5
:10114000384021680865B80FB149086000BF3946CA
:10115000204600F0F1FBB8F1000F0ED000BFAD4803
:1011600008EA0000216808654FEA9870A8490860FD
:1011700000BF4146204600F02BFC2068406D00F483
:10118000006080B12068006D00F4006058B100BFBD
:101190004FF400602168086500209D49086000BF89
:1011A000204600F039FC2068406D00F40070D8B192
:1011B0002068006D00F40070B0B12068D0F8D8004D
:1011C00008902068D0F8E00008990840089000BF17
:1011D0004FF400702168086500208D49086000BF49
:1011E0002046089900F016FC2068406D00F40020AD
:1011F00080B12068006D00F4002058B100BF4FF4AA
:1012000000202168086500208149086000BF204651
:1012100000F090FB2068406D00F4803080B12068C1
:10122000006D00F4803058B100BF4FF48030216869
:10123000086500207649086000BF204600F0E8FB02
:101240002068406D00F4802080B12068006D00F4BB
:10125000802058B100BF4FF480202168086500202D
:101260006B49086000BF204600F0D1FB2068406D4C
:1012700000F4003098B12068006D00F4003070B1C7
:1012800000BF4FF400302168086500206049086005
:1012900000BFD4F89C0040F08000C4F89C00BAF174
:1012A000000F0ED000BF5B480AEA00002168086505
:1012B0004FEA9A705649086000BF51462046FFF732
:1012C000B9FDB9F1000F10D000BF524809EA000083
:1012D000216808654FEA99704D49086000BFD4F84D
:1012E0009C0040EA0900C4F89C004B4920688842F1
:1012F0007DD16068806800F0030000287ED06068BF
:10130000006A00F00F0B6068406A00EA0B0B60682F
:10131000006A00F0300006906068406A0699084054
:1013200006906068006A00F4C07005906068406ACA
:101330000599084005906068006A00F4FC4004903C
:101340006068406A0499084004906068006A00F48C
:10135000F02003906068406A039908400390BBF155
:10136000000F06D06068C0F820B05946204600F053
:101370004BFB069830B106986168086220460699D2
:1013800000F044FB6068406A00F04000A8B160686B
:10139000006A00F0400080B16068C06B000C0290F1
:1013A0006068C06B00F03F000190402061680862F7
:1013B0002046DDE9012100F028FB059830B10598B1
:1013C000616808622046059900F01DFB049840B151
:1013D000049861680862D4F89C0004990843C4F832
:1013E0009C00039818B103986168086200E005E06A
:1013F000D4F89C0003990843C4F89C00D4F89C00DE
:1014000010B12046FFF715FD09B0BDE8F08F0000D0
:1014100010A80040FFFFCF3F00A0004070B594B07F
:1014200004464C22B34901A8FEF783FF14B90120FA
:1014300014B070BDB0492068884203D1206800F51F
:1014400080706060A068B0F5407F00D100BF206C64
:1014500000B100BFA06C00B100BF206D00B100BFA3
:10146000206E00B100BFD4E91710084400B100BFDE
:1014700094F8980028B9002084F89900204600F0DC
:101480003DF92068806920F010002168886100F033
:101490003BFD05460EE000F037FD401B0A2809D948
:1014A0009834606840F001006060032004F89809F7
:1014B0000120BDE72068806900F008000828EAD014
:1014C0002068806940F001002168886100F01CFDFF
:1014D00005460EE000F018FD401B0A2809D9983493
:1014E000606840F001006060032004F89809012062
:1014F0009EE72068806900F001000028EAD020689B
:10150000806940F0020021688861207C012806D1B2
:101510002068806920F040002168886105E020682B
:10152000806940F0400021688861607C012806D114
:101530002068806940F480402168886105E0206867
:10154000806920F4804021688861A07C012806D150
:101550002068806920F480502168886105E0206857
:10156000806940F48050216888612068806920F497
:101570004070A1680843216888612068806920F074
:10158000A400216888612068006920F010002168AB
:101590000861E068012806D12068806940F00400F5
:1015A0002168886120E0E068F0B1E068022815D089
:1015B0002068806940F080002168886120680069A7
:1015C00040F0100021680861E06803280CD1206811
:1015D000806940F020002168886105E0206880690A
:1015E00040F0200021688861207E401E4106E069AD
:1015F000401E41EA0020216A491E0843A18A491E73
:1016000040EA01402168C861A068B0F5407F0FD171
:10161000A06A401EE16A491E40EA0121206B401E7B
:1016200041EA0011A08C401E41EA00402168C860D8
:10163000206E38B12068D0F8C000616E0843216880
:10164000C1F8C000D4E91710084460B12068D0F890
:10165000C80020F0070001AAA16E52F8211008432B
:101660002168C1F8C800206C60B12068D0F8BC00C7
:1016700020F0070001AA616C52F82110084321688C
:10168000C1F8BC00A06C68B12068D0F8BC0020F0A4
:10169000700101AAE06C52F8200041EA00102168B4
:1016A000C1F8BC00206D68B12068D0F8BC0020F4FF
:1016B000E06101AA606D52F8200041EA0020216833
:1016C000C1F8BC000C492068884205D16068806878
:1016D00020F0030061688860002044F8940FA06047
:1016E00001202071943C2046FFF704F8064630465E
:1016F0009EE60000986F000800A0004010B5B6B04C
:101700000446BC2102A8FEF72DFE7D48844278D114
:1017100000BF7C48006840F001007A490860084634
:10172000006800F00100019000BF00BF00BF084644
:10173000006840F0010008600846006800F0010001
:10174000019000BF00BF4FF40040029005200390BD
:101750005021049102210591142106910221079143
:1017600080210891002109910A914FF000501D90AD
:1017700002A800F031FF20B14FF4AE7162A0FEF775
:1017800089FF00BF5F480C30006840F480705D49FD
:101790000C3108600846006800F48070019000BFBA
:1017A00000BF4FF4805031900220329001203390DE
:1017B000022034900920359031A95B4800F09AFA54
:1017C0004FF4006031900920359031A9564800F05F
:1017D00091FA00220221132000F06BFC002202216A
:1017E000152000F066FC002202213F2000F061FC81
:1017F000132000F04AFC152000F047FC3F2000F0C9
:1018000044FC4A48844278D100BF3E48006840F01A
:1018100002003C4908600846006800F002000190A0
:1018200000BF00BF00BF0846006840F0020008602B
:101830000846006800F00200019000BF00BF4FF4AE
:10184000004002900520039050210491022105914F
:10185000142106910221079180210891002109910C
:101860000A914FF000501D9002A800F0B5FE20B183
:101870004FF4C37124A0FEF70DFF00BF21480C30C8
:10188000006840F480701F490C3108600846006809
:1018900000F48070019000BF00BF4FF40050319001
:1018A000022032900120339002203490092035909C
:1018B00031A91F4800F01EFA4FF4805031900920E2
:1018C000359031A91A4800F015FA0022022114209F
:1018D00000F0EFFB00220221162000F0EAFB0022BC
:1018E00002213F2000F0E5FB142000F0CEFB162083
:1018F00000F0CBFB3F2000F0C8FB36B010BD00006D
:1019000054020024E04402582E2E5C2E2E5C5573A7
:1019100065725C6273705C7372635C6273705F6348
:10192000616E2E63000000000000025814030024C2
:10193000000402587047000070B505460C461E486A
:1019400085421AD104F00200B8B11C4B1C4A402158
:101950002846FFF771FA002202212846FFF78AF98C
:101960001748006840F21111884206D114484068B7
:1019700018B90021032005F069F9124885421AD1EF
:1019800004F00200B8B1104B104A40212846FFF77E
:1019900053FA002202212846FFF76CF90B48006831
:1019A00040F22221884206D10848406818B9002137
:1019B000042005F04BF970BD54020024FC03002400
:1019C000D403002414030024640400243C040024F1
:1019D0007047014691F8980001280CD1022081F847
:1019E00098000868806920F001000A689061002072
:1019F000C1F89C007047D1F89C0040F00400C1F889
:101A00009C000120F6E770477047704770477047A9
:101A10007047704770477047704700002DE9F041EC
:101A200004460E46002700BF4848007D012802D129
:101A30000220BDE8F08101204449087500BF002064
:101A40008861207900F0010030B101214CF2503062
:101A5000FEF7E0FF00B10127207900F00200022824
:101A600006D102214CF25030FEF7D4FF00B101271D
:101A7000002F63D12068012828D161682069FEF712
:101A800079FF207900F0010060B101214CF2503063
:101A9000FEF7C0FF00B101272D48C06820F0080004
:101AA0002B49C860207900F00200022846D10221AB
:101AB0004CF25030FEF7AEFF00B101272548006818
:101AC00020F008002249C1F80C0137E04FF0FF3048
:101AD0003060A5682CE0284622696168FEF71AFF8D
:101AE000207900F0010060B101214CF25030FEF786
:101AF00091FF07461648C06840F2047188431449B4
:101B0000C860207900F0020002280DD102214CF2B9
:101B10005030FEF77FFF07460E48006840F2047120
:101B200088430B49C1F80C010FB1356005E06D1C0D
:101B3000D4E902100844A842CDD800BF00BF00205D
:101B40000249087500BF384673E70000A815002455
:101B5000002000520C2100520E48C06840F00100E5
:101B60000C49C8600846C06800F0010008B90120AF
:101B700070470948006840F001000649C1F80C01AF
:101B80000548006800F0010008B90120F0E70020D6
:101B9000EEE70000002000520C2100522DE9F05F1A
:101BA00083460C461746A046B9464FF0080A00BFC8
:101BB0003548007D012802D10220BDE8F09F0120B8
:101BC0003149087500BFB4F1006F04D3B4F1016F5F
:101BD00001D2012509E0B4F1016F04D3B4F1026F21
:101BE00001D2022501E00120E7E7002026498861B3
:101BF00029464CF25030FEF70DFF0646AEBB012DD4
:101C000006D12248C06840F002002049C86006E0C2
:101C10001F48006840F002001C49C1F80C01BFF3E6
:101C20006F8FBFF34F8F00BFD9F80000C8F80000D6
:101C300008F1040809F10409AAF1010000F0FF0A03
:101C4000BAF1000FF0D1BFF36F8FBFF34F8F29466A
:101C50004CF25030FEF7DEFE0646012D06D10B4851
:101C6000C06820F002000949C86006E00848006822
:101C700020F002000549C1F80C0100BF0020024914
:101C8000087500BF304698E7A815002400200052D0
:101C90000C2100521348C06800F0010058B11248EE
:101CA00010494860114848600846C06800F00100CB
:101CB00008B1012070470E48006800F0010070B1C3
:101CC00009480B490839086008480649C1F8040169
:101CD0000748006800F0010008B10120EAE7002091
:101CE000E8E700000020005223016745AB89EFCDF3
:101CF0000C210052F8B502460023734DDEE00127A7
:101D00009F400E6806EA0704002C71D04E68012E31
:101D100008D04E68022E05D04E68112E02D04E68B3
:101D2000122E13D190685F000326BE40B0435F00BF
:101D3000CE68BE4030439060506801269E40B0435C
:101D40000E79C6F300169E4030435060D0685F00A5
:101D50000326BE40B0435F008E68BE403043D06073
:101D60004E68022E02D04E68122E13D1DF0802F107
:101D7000200656F827005E07F70E0F26BE40B04338
:101D80005F07FF0E0E69BE403043DF0802F12006F8
:101D900046F8270010685F000326BE40B0430E7966
:101DA00006F003065F00BE40304310604E6806F048
:101DB0008056B6F1805F1BD100BF444E366846F0B6
:101DC0000206424F3E603E46366806F00206009626
:101DD00000BF00BF3E4E9F0856F827009E07370FF2
:101DE0000F26BE40B0433B4EB24202D100262EE049
:101DF00063E0394EB24201D1012628E0374EB242AB
:101E000001D1022623E0364EB24201D103261EE064
:101E1000344EB24201D1042619E0334EB24201D110
:101E2000052614E0314EB24201D106260FE0304EB5
:101E3000B24201D107260AE02E4EB24201D1082655
:101E400005E02D4EB24201D1092600E00A269F0787
:101E50003F0FBE4030431E4E9F0846F827002868BB
:101E6000A0434E6806F48036B6F5803F00D120438B
:101E700028606868A0434E6806F40036B6F5003F57
:101E800000D1204368604FF0B0463068A0434E68F0
:101E900006F48016B6F5801F00D120434FF0B046FF
:101EA00030607068A0434E6806F40016B6F5001F57
:101EB00000D120434FF0B04670605B1C0E68DE40DE
:101EC000002E7FF41CAFF8BD80000058F444025887
:101ED0000804005800000258000402580008025884
:101EE000000C025800100258001402580018025842
:101EF000001C0258002002580024025801480068C3
:101F0000000C70470010005C01480068704700003A
:101F10004400002403480068034909780844014943
:101F200008607047440000244C00002410B50320D2
:101F300000F0FCF801F0E2FB10490968C1F303214D
:101F40000F4A515C01F01F0120FA01F40B480068B0
:101F500000F00F001146085C00F01F0024FA00F0AA
:101F600008490860084804600F2000F00FF808B125
:101F7000012010BD00F088F80020FAE7184402584C
:101F8000E46F0008540000245000002470B504469B
:101F90001148007808B9012070BD0F4800784FF44F
:101FA0007A71B1FBF0F00D490968B1FBF0F52846F4
:101FB00002F02BFA08B10120EEE7102C07D2002224
:101FC0002146501E00F075F80548046001E001202C
:101FD000E2E70020E0E700004C000024500000246D
:101FE000480000244178154A11600178F9B1121DAA
:101FF00041681160017B0907C27A41EA0261827A75
:1020000041EAC241427B41EA8241827B41EA42414C
:10201000C27B41EA0241427A41EA0221027A41EA64
:10202000420102781143054A0832116005E000219F
:10203000024A121D1160121D1160704798ED00E0F8
:10204000BFF35F8F0548006820F4803003490860C3
:1020500000200249703108607047000024ED00E064
:1020600040F00101074A116006497039096841F4DE
:102070008031044A703A1160BFF34F8FBFF36F8F06
:102080007047000094ED00E07047014608460028C4
:102090000DDB00BF00BF00F01F0301229A4043097F
:1020A0009B0003F1E023C3F8002100BF00BF00BF85
:1020B00070472DE9F05F80460D46164604F054F84F
:1020C000074639462A46334601F00700C0F1070AA1
:1020D000BAF1040F02D94FF0040A01E0C0F1070A77
:1020E000D14600F1040ABAF1070F02D24FF0000AFC
:1020F00001E0A0F1030AD4464FF0010A0AFA09FAF6
:10210000AAF1010A0AEA020A0AFA0CFA4FF0010BD4
:102110000BFA0CFBABF1010B0BEA030B4AEA0B04C5
:102120002146404604F028F8BDE8F09F00BF00F0CB
:102130000702064B19684FF6FF031940044B0B4387
:1021400043EA0221014B196000BF70470CED00E02B
:102150000000FA0510B501F087FA05490968C1F3D6
:102160000211044A515C01F01F01C84010BD00007B
:1021700020440258E46F000870B50146844D2D6874
:1021800005F00303824D2D68C5F30530804D2D1DEC
:102190002D68C5F300147E4D14352D68C5F3CC05AC
:1021A00015FB04F501EE105AB8EE411AF0EE410AA3
:1021B00000286FD023B1012B4ED0022B6BD16BE0E6
:1021C000734D283D2D68C5F340153DB3704D283D36
:1021D0002D68C5F3C1066F4D25FA06F201EE102AEF
:1021E000F8EE411A01EE100AB8EE411A81EE812A8A
:1021F0009FED691AC0EE811A654D10352D68C5F343
:10220000080501EE105AB8EE411A31EE811AF7EEC8
:10221000001A31EE211A22EE010A1CE001EE100A2A
:10222000B8EE411ADFED5D1A81EE812A9FED5A1A50
:10223000C0EE811A564D10352D68C5F3080501EE24
:10224000105AB8EE411A31EE811AF7EE001A31EE4B
:10225000211A22EE010A5BE001EE100AB8EE411AE3
:10226000DFED4F1A81EE812A9FED4B1AC0EE811AE5
:10227000474D10352D68C5F3080501EE105AB8EE2C
:10228000411A31EE811AF7EE001A31EE211A22EED0
:10229000010A3DE077E01DE001EE100AB8EE411AB8
:1022A0009FED402AC2EE011A9FED3B1A80EE812A73
:1022B000374D10352D68C5F3080501EE105AB8EEFC
:1022C000411A32EE011AB7EE002A31EE021A21EE5F
:1022D000810A1DE001EE100AB8EE411ADFED301A56
:1022E00081EE812A9FED2C1AC0EE811A284D1035FF
:1022F0002D68C5F3080501EE105AB8EE411A31EE0B
:10230000811AF7EE001A31EE211A22EE010A00BFFF
:1023100000BF1F4D10352D68C5F3462501EE105A3C
:10232000B8EE411AF7EE001A31EE211AC0EE011A8A
:10233000BCEEE11A81ED001A154D10352D68C5F37C
:10234000064501EE105AB8EE411AF7EE001A31EECA
:10235000211AC0EE011ABCEEE11A81ED011A0C4DF2
:1023600010352D68C5F3066501EE105AB8EE411A16
:10237000F7EE001A31EE211AC0EE011ABCEEE11A96
:1023800081ED021A03E000250D604D608D6070BD87
:10239000284402580090D003000000460024744CEA
:1023A0000024744A20BCBE4B70B50146844D2D6894
:1023B00005F00303824D2D68C5F30550804D2D1D9A
:1023C0002D68C5F300247E4D1C352D68C5F3CC0562
:1023D00015FB04F501EE105AB8EE411AF0EE410A71
:1023E00000286FD023B1012B4ED0022B6BD16BE0B4
:1023F000734D283D2D68C5F340153DB3704D283D04
:102400002D68C5F3C1066F4D25FA06F201EE102ABC
:10241000F8EE411A01EE100AB8EE411A81EE812A57
:102420009FED691AC0EE811A654D18352D68C5F308
:10243000080501EE105AB8EE411A31EE811AF7EE96
:10244000001A31EE211A22EE010A1CE001EE100AF8
:10245000B8EE411ADFED5D1A81EE812A9FED5A1A1E
:10246000C0EE811A564D18352D68C5F3080501EEEA
:10247000105AB8EE411A31EE811AF7EE001A31EE19
:10248000211A22EE010A5BE001EE100AB8EE411AB1
:10249000DFED4F1A81EE812A9FED4B1AC0EE811AB3
:1024A000474D18352D68C5F3080501EE105AB8EEF2
:1024B000411A31EE811AF7EE001A31EE211A22EE9E
:1024C000010A3DE077E01DE001EE100AB8EE411A86
:1024D0009FED402AC2EE011A9FED3B1A80EE812A41
:1024E000374D18352D68C5F3080501EE105AB8EEC2
:1024F000411A32EE011AB7EE002A31EE021A21EE2D
:10250000810A1DE001EE100AB8EE411ADFED301A23
:1025100081EE812A9FED2C1AC0EE811A284D1835C4
:102520002D68C5F3080501EE105AB8EE411A31EED8
:10253000811AF7EE001A31EE211A22EE010A00BFCD
:1025400000BF1F4D18352D68C5F3462501EE105A02
:10255000B8EE411AF7EE001A31EE211AC0EE011A58
:10256000BCEEE11A81ED001A154D18352D68C5F342
:10257000064501EE105AB8EE411AF7EE001A31EE98
:10258000211AC0EE011ABCEEE11A81ED011A0C4DC0
:1025900018352D68C5F3066501EE105AB8EE411ADC
:1025A000F7EE001A31EE211AC0EE011ABCEEE11A64
:1025B00081ED021A03E000250D604D608D6070BD55
:1025C000284402580090D003000000460024744CB8
:1025D0000024744A20BCBE4B2DE9F041044600257E
:1025E000A846206800F00060B0F1006F30D1606E46
:1025F00048B1B0F5801F0DD0B0F5001F10D0B0F578
:10260000401F15D113E0F948006840F40030F74945
:1026100008600FE00221201D02F0DCFA054609E007
:10262000022104F1240002F087FB054602E001E0EC
:10263000012500BF00BF55B9EC482430006820F4E4
:102640004010616E0843E9492431086000E0A84663
:10265000208800F48070B0F5807F2DD1606D052852
:102660001AD2DFE800F0030A10171800DF480068EC
:1026700040F40030DD49086010E00021201D02F028
:10268000A9FA05460AE0002104F1240002F054FBF7
:10269000054603E002E001E0012500BF00BF55B997
:1026A000D2482430006820F00700616D0843CF490C
:1026B0002431086000E0A846208800F40070B0F5DE
:1026C000007F33D1A06D802817D003DC40B14028B3
:1026D0001CD10CE0C02817D0B0F5807F16D114E0D3
:1026E000C248006840F40030C049086010E0002192
:1026F000201D02F06FFA05460AE0002104F12400D3
:1027000002F01AFB054603E002E001E0012500BFEC
:1027100000BF55B9B5482430006820F4E070A16DC1
:102720000843B2492431086000E0A846208800F43C
:102730008060B0F5806F38D1D4F8A400B0F5800F78
:1027400019D004DC50B1B0F5001F1DD10DE0B0F57B
:10275000C00F17D0B0F5000F16D114E0A3480068E1
:1027600040F40030A149086010E00021201D02F073
:1027700031FA05460AE0002104F1240002F0DCFAF7
:10278000054603E002E001E0012500BF00BF5DB99E
:1027900096482C30006820F46000D4F8A410084358
:1027A00092492C31086000E0A846208800F40060BF
:1027B000B0F5006F38D1D4F8A800B0F1007F19D07F
:1027C00004DC50B1B0F1807F1DD10DE0B0F1407F4D
:1027D00017D0B0F1806F16D114E08448006840F43F
:1027E00000308249086010E00021201D02F0F2F95B
:1027F00005460AE0002104F1240002F09DFA054696
:1028000003E002E001E0012500BF00BF5DB97748A9
:102810002C30006820F0E060D4F8A8100843734919
:102820002C31086000E0A846206800F00070B0F18C
:10283000007F27D1A06CA0B1102804D0202809D097
:1028400030280FD10CE06948006840F40030674937
:10285000086009E00221201D02F0BCF9054603E0F2
:1028600002E001E0012500BF00BF55B95F482030FC
:10287000006820F03000A16C08435C4920310860FA
:1028800000E0A846208800F48050B0F5805F36D183
:10289000E06DB0F5005F19D004DC50B1B0F5805F99
:1028A0001DD10DE0B0F5405F17D0B0F5804F16D1C7
:1028B00014E04E48006840F400304C49086010E0D5
:1028C0000021201D02F086F905460AE0002104F1EE
:1028D000240002F031FA054603E002E001E00125A0
:1028E00000BF00BF55B941482430006820F4E040E3
:1028F000E16D08433D492431086000E0A846208886
:1029000000F40050B0F5005F34D1206EB0F5403FC8
:102910001DD007DC68B1B0F5803F0BD0B0F5003FAB
:1029200018D10DE0B0F5802F12D0B0F5A02F11D145
:102930000FE011E00121201D02F04CF905460BE0EB
:10294000012104F1240002F0F7F9054604E003E058
:1029500002E001E0012500BF00BF55B92348243043
:10296000006820F4E020216E0843204924310860EB
:1029700000E0A846208800F48040B0F5804F38D1B0
:10298000D4F8AC00B0F1405F1DD007DC68B1B0F105
:10299000805F0BD0B0F1005F18D10DE0B0F1804F37
:1029A00012D0B0F1A04F11D10FE011E00121201D94
:1029B00002F010F905460BE0012104F1240002F0B9
:1029C000BBF9054604E003E002E001E0012500BF99
:1029D00000BF6DB905482C30006820F0E040D4F805
:1029E000AC10084301492C31086002E02C44025825
:1029F000A846208800F40040B0F5004F26D1E06ED4
:102A000098B1B0F1805F03D0B0F1005F0ED106E065
:102A1000F948006840F40030F749086008E00121F7
:102A2000201D02F0D7F8054602E001E0012500BFB5
:102A300000BF55B9F0482430006820F04050E16EE6
:102A40000843ED492431086000E0A846206800F002
:102A50008070B0F1807F27D1606CA0B1012804D0D4
:102A6000022809D003280FD10CE0E348006840F4A5
:102A70000030E149086009E00221201D02F0AAF8B7
:102A8000054603E002E001E0012500BF00BF55B9A3
:102A9000D9482030006820F00300616C0843D64913
:102AA0002031086000E0A846206800F48000B0F5FE
:102AB000800F7DD1D148006840F48070CF49086014
:102AC000FFF722FA064606E0FFF71EFA801B64288D
:102AD00001D9032505E0C948006800F4807000288A
:102AE000F2D000BF85BBC4484430006800F4407099
:102AF000B4F8B01001F44071884213D0BE4844309D
:102B0000006820F44077BC484430006840F48030CE
:102B1000B949443108600846006820F480300860F4
:102B200008460760D4F8B000B0F5807F15D1FFF7F4
:102B3000EBF9064609E0FFF7E7F9801B41F288311F
:102B4000884202D9032507E038E0AB4844300068EA
:102B5000C0F340000028EED000BF55BB00BFB4F862
:102B6000B00000F44070B0F5407F0ED1A2481C3890
:102B7000006820F47C51A24AD4F8B000104041EA29
:102B800010109D491C39086007E09B481C380068FC
:102B900020F47C5098491C390860974844300068FC
:102BA000B4F8B010C1F30B0108439349443101E07C
:102BB00005E001E0086002E0A84600E0A8462078B1
:102BC00000F0010068B3A06F182819D005DC48B1E7
:102BD000082808D0102816D10BE0202811D028286A
:102BE00011D10FE011E00121201D01F0F3FF054696
:102BF0000BE0012104F1240002F09EF8054604E0F8
:102C000003E002E001E0012500BF00BF55B97A48AA
:102C10002830006820F03800A16F08437649283139
:102C2000086000E0A846207800F00200022828D1C1
:102C3000606F062815D2DFE800F003040A111213B2
:102C400011E00121201D01F0C5FF05460BE0012127
:102C500004F1240002F070F8054604E003E002E00D
:102C600001E0012500BF00BF55B963482830006866
:102C700020F00700616F08435F492831086000E0D9
:102C8000A846207800F0040004282AD1D4F8900047
:102C9000062815D2DFE800F003040A11121311E030
:102CA0000121201D01F096FF05460BE0012104F1F2
:102CB000240002F041F8054604E003E002E001E0F0
:102CC000012500BF00BF5DB94B482C30006820F0E3
:102CD0000700D4F89010084347492C31086000E001
:102CE000A846207800F02000202836D1D4F88C00A7
:102CF000B0F1405F1DD007DC68B1B0F1805F0BD050
:102D0000B0F1005F18D10DE0B0F1804F12D0B0F1FA
:102D1000A04F11D10FE011E00021201D01F05AFF5A
:102D200005460BE0022104F1240002F005F80546F7
:102D300004E003E002E001E0012500BF00BF5DB94F
:102D40002D482830006820F0E040D4F88C1008436B
:102D500029492831086000E0A846207800F04000AA
:102D6000402836D1D4F89800B0F5406F1DD007DC6C
:102D700068B1B0F5806F0BD0B0F5006F18D10DE0E1
:102D8000B0F5805F12D0B0F5A05F11D10FE011E077
:102D90000021201D01F01EFF05460BE0022104F179
:102DA000240001F0C9FF054604E003E002E001E071
:102DB000012500BF00BF5DB90F482C30006820F42A
:102DC000E050D4F8981008430B492C31086000E01B
:102DD000A846207800F0800080283AD1D4F89C00E2
:102DE000B0F5C04F23D00DDC98B1B0F5005F11D025
:102DF000B0F5804F1ED113E02C4402580048025811
:102E0000FFFCFF0FB0F5004F12D0B0F5204F11D1ED
:102E10000FE011E00021201D01F0DCFE05460BE073
:102E2000022104F1240001F087FF054604E003E0DD
:102E300002E001E0012500BF00BF4DB9B5480068C0
:102E400020F46040D4F89C100843B249086000E0C8
:102E5000A846207800F00800082817D1D4F8800090
:102E6000B0F5805F07D1022104F1240001F064FF76
:102E700008B14FF00108A748001F006820F4405037
:102E8000D4F880100843A349091F0860207800F097
:102E90001000102815D1D4F89400B0F5807F07D128
:102EA000022104F1240001F047FF08B14FF00108AE
:102EB0009848006820F44070D4F89410084395496D
:102EC0000860206800F40020B0F5002F26D1D4F867
:102ED000A00030B1B0F5803F09D0B0F5003F0ED171
:102EE0000CE00021201D01F075FE054609E00221DD
:102EF00004F1240001F020FF054602E001E0012575
:102F000000BF00BF4DB98348006820F44030D4F8BA
:102F1000A01008437F49086000E0A846206800F43C
:102F20008020B0F5802F2DD1D4F88400B0F5801F1B
:102F300006D0B0F5001F0CD0B0F5401F11D10FE046
:102F400074482C38006840F4003072492C3908600D
:102F500009E0012104F1240001F0EEFE054602E043
:102F600001E0012500BF00BF5DB96A48001F00688D
:102F700020F44010D4F8841008436649091F086003
:102F800000E0A846206800F48030B0F5803F24D1EE
:102F9000E06C18B1B0F5803F0FD108E05D482C38E7
:102FA000006840F400305B492C39086007E00221DA
:102FB000201D01F00FFE054601E0012500BF00BF06
:102FC00055B954480C38006820F48030E16C08434F
:102FD00050490C39086000E0A846206800F0005015
:102FE000B0F1005F07D1022104F1240001F0A4FE3A
:102FF00008B14FF00108206800F40030B0F5003F40
:1030000027D1E06FA0B1B0F5807F06D0B0F5007F8A
:103010000CD0B0F5407F0CD109E03E482C38006858
:1030200040F400303B492C39086004E003E002E042
:1030300001E0012500BF00BF55B93648001F0068F8
:1030400020F44070E16F08433249091F086000E036
:10305000A846206800F48010B0F5801F09D12D48E3
:103060000838006820F00040216F084329490839DA
:103070000860206800F08050B0F1805F0AD12548D8
:103080004838006820F48040D4F8B410084321493F
:1030900048390860206800F40010B0F5001F09D11D
:1030A0001C480838006820F08070A16E0843194958
:1030B00008390860206800F08040B0F1804F11D1DD
:1030C00000BF14484838006820F4004011494839CE
:1030D000086008460068D4F8B81008430D4948391C
:1030E000086000BF206800F00040B0F1004F09D137
:1030F00008480C38006820F04050216D084305490D
:103100000C390860B8F1000F02D10020BDE8F08151
:103110000120FBE7584402582DE9F04104460D46D2
:1031200014B90120BDE8F081BD48006800F00F002F
:10313000A8420ED2BA48006820F00F002843B849D0
:1031400008600846006800F00F00A84201D0012086
:10315000E8E7207800F0040004280ED1B149206986
:10316000096801F07001884207D9AE48006820F074
:10317000700021690843AB490860207800F008001E
:10318000082811D1A749091D6069096801F070017B
:10319000884209D9A348001D006820F070006169C9
:1031A0000843A049091D0860207800F0100010288D
:1031B00011D19C49091DA069096801F4E0618842A8
:1031C00009D99848001D006820F4E060A16908430F
:1031D0009449091D0860207800F02000202811D1B2
:1031E00090490831E069096801F07001884209D905
:1031F0008C480830006820F07000E1690843894974
:1032000008310860207800F0020002280ED18549BC
:10321000E068096801F00F01884207D98148006819
:1032200020F00F00E16808437E490860207800F034
:103230000100002850D07B48006820F47060A1682D
:103240000843784908606068022807D17548183833
:103250000068C0F34040F8B9012063E760680328C4
:1032600007D1704818380068C0F34060A0B9012049
:1032700058E76068012807D16A4818380068C0F329
:10328000002048B901204DE7664818380068C0F3AF
:10329000800008B9012045E762480838006820F03E
:1032A0000700616808435F4908390860FEF72CFE93
:1032B000064608E0FEF728FE801B41F2883188426E
:1032C00001D903202EE757480838006800F038007D
:1032D0006168B0EBC10FEDD1207800F00200022848
:1032E0000ED15049E068096801F00F01884207D209
:1032F0004C48006820F00F00E16808434949086025
:103300004748006800F00F00A8420ED94448006802
:1033100020F00F002843424908600846006800F08A
:103320000F00A84201D00120FCE6207800F0040044
:1033300004280ED13B492069096801F070018842D8
:1033400007D23848006820F07000216908433549E9
:103350000860207800F00800082811D13149091DC3
:103360006069096801F07001884209D22D48001D8A
:10337000006820F07000616908432A49091D08604F
:10338000207800F01000102811D12649091DA069ED
:10339000096801F4E061884209D22248001D0068F2
:1033A00020F4E060A16908431E49091D08602078E7
:1033B00000F02000202811D11A490831E06909687D
:1033C00001F07001884209D216480830006820F0E8
:1033D0007000E169084313490831086000F08EF974
:1033E00010490968C1F303210F4A515C01F01F0124
:1033F00020FA01F70B48006800F00F001146085C46
:1034000000F01F0027FA00F008490860084807602C
:1034100008480068FEF7BAFD8046404682E6000094
:103420000020005218440258E46F000854000024A1
:10343000500000244800002410B58148006800F0C6
:103440000F0007280ED27E48006820F00F00C01D34
:103450007B4908600846006800F00F00072801D08B
:10346000012010BDFEF750FD04467648006840F08C
:1034700001007449086006E0FEF746FD001B0228C3
:1034800001D90320EDE76F48006800F00400002830
:10349000F2D06C48001D006840F080406949091D69
:1034A0000860002067491031086067486749086074
:1034B0006749086067480068FEF768FD08B10120A9
:1034C000CFE7FEF721FD044608E0FEF71DFD001BD7
:1034D00041F28831884201D90320C2E759481030AF
:1034E000006800F038000028EFD1FEF70DFD04461B
:1034F00054480068584908405249086008E0FEF7FF
:1035000003FD001B41F28831884201D90320A8E75E
:103510004C48006800F400300028F0D1FEF7F4FCBD
:1035200004464848006820F080704649086006E07C
:10353000FEF7EAFC001B022801D9032091E741486D
:10354000006800F000700028F2D1FEF7DDFC0446B0
:103550003C48006820F080603A49086006E0FEF7C9
:10356000D3FC001B022801D903207AE73548006804
:1035700000F000600028F2D1FEF7C6FC0446314896
:10358000006820F080502F49086006E0FEF7BCFC80
:10359000001B022801D9032063E72A48006800F0D5
:1035A00000500028F2D1274918310860091D086031
:1035B000091D086029482349283108602848091D49
:1035C00008602848091D08600020091D086025487A
:1035D000091D08600020091D08602248091D0860B7
:1035E0000020091D08601748006820F48020154954
:1035F00008600020134960310860401E114968319D
:1036000008601048D030006840F480300D49D03157
:1036100008600B48006800F00F0007280ED9084822
:10362000006820F00F00C01D0549086008460068CA
:1036300000F00F00072801D0012012E7002010E75A
:1036400000200052004402580090D0035000002493
:10365000540000244800002445EDF6FF0002020259
:103660000000FF018002010110B500F047F80D498C
:103670000968C1F303210C4A515C01F01F0120FAD3
:1036800001F40848006800F00F001146085C00F0E3
:103690001F0024FA00F00549086005480460084648
:1036A000006810BD18440258E46F0008540000245C
:1036B0005000002400B5FFF7D7FF05490968C1F3A2
:1036C0000211044A515C01F01F01C84000BD000016
:1036D0001C440258E46F000800B5FFF7C5FF054918
:1036E0000968C1F30221044A515C01F01F01C8407E
:1036F00000BD00001C440258E46F0008F0B5824E83
:10370000366806F0380636B1082E15D0102E15D0C2
:10371000182E7DD114E07C4E103E3668C6F340165C
:1037200046B1794E103E3668C6F3C107774E26FA89
:1037300007F000E07548E5E07548E3E07548E1E032
:10374000714E1836366806F003046F4E1836366828
:10375000C6F305116C4E1C36366806F001056A4E3C
:1037600024363668C6F3CC0616FB05F601EE106A61
:10377000B8EE410A002971D024B1012C50D0022C9E
:103780006DD16DE0604E103E3668C6F340163EB314
:103790005D4E103E3668C6F3C1075C4E26FA07F34D
:1037A00001EE103AF8EE411A01EE101AB8EE411A85
:1037B00081EE812A9FED581AC0EE011A524E203632
:1037C0003668C6F3080601EE106AB8EE411A31EE0B
:1037D000811AF7EE001A31EE211A62EE010A1EE09C
:1037E00001EE101AB8EE411ADFED4C1A81EE812A73
:1037F0009FED491AC0EE011A434E20363668C6F3D3
:10380000080601EE106AB8EE411A31EE811A00E0A6
:1038100076E0F7EE001A31EE211A62EE010A5BE063
:1038200001EE101AB8EE411A9FED3D2AC2EE011AC0
:103830009FED391A80EE012A334E20363668C6F3E2
:10384000080601EE106AB8EE411A32EE011AB7EE20
:10385000002A31EE021A61EE810A3DE04EE01DE0E1
:1038600001EE101AB8EE411ADFED2E1A81EE812A10
:103870009FED291AC0EE011A234E20363668C6F392
:10388000080601EE106AB8EE411A31EE811AF7EE21
:10389000001A31EE211A62EE010A1DE001EE101A43
:1038A000B8EE411A9FED1E2AC2EE011A9FED1A1AB8
:1038B00080EE012A144E20363668C6F3080601EE63
:1038C000106AB8EE411A32EE011AB7EE002A31EE54
:1038D000021A61EE810A00BF00BF0B4E2036366827
:1038E000C6F34626721C01EE102AB8EE411AC0EE4D
:1038F000811ABCEEE11A11EE100A00E0002001E08E
:10390000034800BF00BFF0BD104402580090D00330
:1039100000093D0040787D01000000460024744C01
:103920000024744A20BCBE4B2DE9F047044614B96C
:103930000120BDE8F087207800F00100002872D057
:10394000F748006800F03808F5481830D0F80090C3
:10395000B8F1100F06D0B8F1180F0FD109F003001D
:1039600002280BD1EE4810380068C0F34040002810
:103970006ED0606800286BD10120DAE700BF606874
:10398000B0F5803F08D1E6481038006840F4803038
:10399000E349103908602EE0606868B9E0481038E3
:1039A000006820F48030DE4910390860084600685D
:1039B00020F4802008601EE06068B0F5A02F0DD1D3
:1039C000D7481038006840F48020D5491039086085
:1039D0000846006840F4803008600CE0D048103899
:1039E000006820F48030CE4910390860084600682D
:1039F00020F48020086000BF6068A8B1FEF784FA58
:103A0000054608E0FEF780FA401B41F28831884203
:103A100001D903208DE7C24810380068C0F3404048
:103A20000028EFD014E014E0FEF76EFA054608E037
:103A3000FEF76AFA401B41F28831884201D903201F
:103A400077E7B74810380068C0F340400028EFD14E
:103A500000BF207800F0020002287BD1B048006847
:103A600000F03808AE481830D0F80090B8F1000FD8
:103A700005D0B8F1180F3AD109F00300B0BBA8483F
:103A800010380068C0F3800018B1E06808B9012060
:103A90004FE700BFFEF732FA41F20301884219D81E
:103AA000206940280AD19E480C38006820F47C30F8
:103AB00040F400309A490C39086016E098480C38F8
:103AC000006820F47C30216940EA013094490C39C7
:103AD00008600AE092480C38006820F0FE40217C23
:103AE00040EA01608E490C39086067E0FFE7E06852
:103AF00088B38B481038006820F01900E16808434B
:103B0000874910390860FEF7FFF9054606E0FEF721
:103B1000FBF9401B022801D903200AE7804810382E
:103B20000068C0F380000028F1D000BFFEF7E6F97E
:103B300041F2030188421BD8206940280CD1784803
:103B40000C38006820F47C3040F4003074490C39A3
:103B5000086018E033E017E071480C38006820F482
:103B60007C30216940EA01306D490C3908600AE077
:103B70006B480C38006820F0FE40217C40EA016070
:103B800067490C39086019E065481038006820F072
:103B90000100634910390860FEF7B6F9054606E0F2
:103BA000FEF7B2F9401B022801D90320C1E65C48A8
:103BB00010380068C0F380000028F1D100BF2078E1
:103BC00000F0100010287CD15548006800F038083B
:103BD00053481830D0F80090B8F1080F06D0B8F16B
:103BE000180F3DD109F00300012839D14C48103895
:103BF0000068C0F3002020B1E069802801D00120D6
:103C000097E600BFFEF77AF941F2030188421AD81D
:103C1000206A20280AD142480C38006820F0F84079
:103C200040F080403E490C39086018E03C480C38B0
:103C3000006820F0F84094F8201040EA816038498C
:103C40000C3908600BE03648001F006820F07C50FB
:103C500094F8201040EA01603149091F086067E0CC
:103C6000E06978B32E481038006840F080002C4995
:103C700010390860FEF748F9054606E0FEF744F9FA
:103C8000401B022801D9032053E62548103800685C
:103C9000C0F300200028F1D000BFFEF72FF941F259
:103CA000030188421CD8206A20280CD11C480C38FB
:103CB000006820F0F84040F0804019490C39086055
:103CC0001AE036E019E016480C38006820F0F84099
:103CD00094F8201040EA816011490C3908600BE02B
:103CE0000F48001F006820F07C5094F8201040EA34
:103CF00001600B49091F08601AE009481038006884
:103D000020F08000064910390860FEF7FDF80546EE
:103D100008E0FEF7F9F8401B022803D9032008E663
:103D200010440258F3480068C0F300200028F0D186
:103D300000BF207800F00800082836D16069D0B1B3
:103D4000EC487430006840F00100EA4974310860C2
:103D5000FEF7DAF8054606E0FEF7D6F8401B022823
:103D600001D90320E5E5E34874300068C0F3400062
:103D70000028F1D019E0DF487430006820F001001D
:103D8000DC4974310860FEF7BFF8054606E0FEF72F
:103D9000BBF8401B022801D90320CAE5D54874307E
:103DA0000068C0F340000028F1D1207800F0200026
:103DB000202830D1A069B8B1CE48006840F48050C6
:103DC000CC490860FEF7A0F8054606E0FEF79CF82F
:103DD000401B022801D90320ABE5C6480068C0F3A8
:103DE00040300028F2D016E0C248006820F480502D
:103DF000C0490860FEF788F8054606E0FEF784F83B
:103E0000401B022801D9032093E5BA480068C0F39B
:103E100040300028F2D1207800F0040004287DD141
:103E2000B548006840F48070B3490860FEF76CF84C
:103E3000054606E0FEF768F8401B642801D9032018
:103E400077E5AD48006800F480700028F2D000BF2C
:103E5000A068012808D1A7487030006840F0010030
:103E6000A449703108602DE0A06868B9A14870309D
:103E7000006820F001009F49703108600846006822
:103E800020F0040008601DE0A06805280DD19948C5
:103E90007030006840F004009649703108600846B0
:103EA000006840F0010008600CE092487030006843
:103EB00020F001008F49703108600846006820F04A
:103EC0000400086000BFA068A0B1FEF71DF8054619
:103ED00008E0FEF719F8401B41F28831884201D909
:103EE000032026E5834870300068C0F340000028B6
:103EF000EFD013E0FEF708F8054608E0FEF704F8F7
:103F0000401B41F28831884201D9032011E57948EC
:103F100070300068C0F340000028EFD1606A0028CC
:103F20007DD074481030006800F03800182877D031
:103F3000606A022875D16F48006820F080706D4972
:103F40000860FDF7E1FF054606E0FDF7DDFF401BD9
:103F5000022801D90320ECE466480068C0F3406001
:103F60000028F2D100BFD4E90A1041EA00106149EB
:103F70002831096840F2F332914308435D49283102
:103F80000860208E401EC0F30800616B491E4FF48C
:103F90007E4202EA41210843218F491ED20102EAF2
:103FA000014108433C21095D491E120202EA0161F8
:103FB000084350493031086000BF081F006820F0F6
:103FC0000100091F08604B48343000684FF6F87153
:103FD0008843A16C40EAC100464934310860454835
:103FE0002C30006820F00C00216C084341492C3132
:103FF00008600846006820F00200616C08433D49F3
:104000002C3108600846006840F48030086008469B
:10401000006840F4003008600846006802E066E08E
:1040200038E01FE040F4802008600846006840F057
:10403000010008602F48006840F080702D4908603A
:10404000FDF762FF054606E0FDF75EFF401B022814
:1040500001D903206DE427480068C0F340600028C0
:10406000F2D044E02348006820F0807021490860C5
:10407000FDF74AFF054606E0FDF746FF401B022814
:1040800001D9032055E41B480068C0F340600028B4
:10409000F2D12CE0174828300768164830300668FF
:1040A000606A012821D007F00301A06A81421CD177
:1040B000C7F30511E06A884217D1C6F30801206BE7
:1040C000401E814211D1606B401EC6F346218842DA
:1040D0000BD1A06B401EC6F30641884205D1E06BB0
:1040E000401EC6F30661884201D0012021E4002071
:1040F0001FE400000044025800480258704770470F
:104100007047704710B50446FCF787F910BD0000F2
:1041100070B50446E56A2068406BC0F3C03030B12A
:1041200005F0080018B1204601F022F826E12068C9
:10413000406BC0F30020002876D04FF480702168D7
:1041400088632068C06B4CF23A1188432168C863C9
:104150002068C06B20F080502168C8632068C06868
:1041600020F040002168C86005F0080030B305F079
:10417000020010B905F0200050B1206800F0C8FE20
:1041800006462EB1606B304360632046FFF7BAFFEE
:104190007B4821688863012084F830000020E062B9
:1041A00005F0010010B905F0020018B1204600F03A
:1041B000E9F8E3E0204600F0EAF8DFE005F08000EF
:1041C0000028B3D00020216888622168C862216875
:1041D000086505F0020010B905F0200050B1206814
:1041E00000F096FE06462EB1606B304360632046B9
:1041F000FFF788FF012084F830000020E06205F01E
:10420000100010B905F0200010B1204600F0BFF8F2
:1042100005F0010018B905F00200002886D02046FC
:1042200000F0B0F8AAE0FFE72068406BC0F38030F0
:1042300030B105F0080018B1204600F0BAFF9DE04B
:104240002068406B00F03A0008B1012000E0002037
:10425000002870D02068406BC0F3400018B1606B3C
:1042600040F0020060632068406BC0F3C00018B1EA
:10427000606B40F0080060632068406BC0F3401042
:1042800018B1606B40F0200060632068406BC0F3A1
:10429000001018B1606B40F010006063384821686E
:1042A00088632068C06B20F49D702168C863206813
:1042B000C06820F040002168C8602068C06A40F4EF
:1042C00000502168C8622068C06840F08000216802
:1042D000C860206800F01CFE616B084360632068C2
:1042E000C06820F080002168C8604FF40060216839
:1042F000886305F0080040B1012084F830000020F8
:10430000E0622046FFF7FEFE38E005F0800030B3A3
:10431000606B20B32068C06B20F080502168C863B8
:10432000002021680865012084F830002046FFF74E
:10433000E9FE23E0FFE72068406BC0F3007070B136
:104340004FF08050216888632068006D00F0040001
:1043500050B905F0200018B12046FFF7D2FE0DE05D
:104360002046FFF7CCFE09E005F0200018B12046FA
:10437000FFF7C6FE02E02046FFF7C0FE70BD00005A
:104380003A0F001810B50446FCF748F810BD10B5F8
:104390000446FCF744F810BD70B504460E461546B9
:1043A0000CB9012070BD94F8450028B9002084F8AC
:1043B0004400204600F028F804F108012068FCF7CA
:1043C000C9FB3146A2682068FCF716FC2946E36A5F
:1043D000D4E90102FCF79CFBA168206850F8210099
:1043E00040F00100A268216841F8220005480068F9
:1043F00040F0004003490860012084F84500002097
:10440000D0E7000000400052704770B504462546D2
:10441000681EB0F1807F01D301200FE0681E4FF0CD
:10442000E02148610F214FF0FF3001F0A5FE002090
:104430004FF0E021886107200861002070BD10B5B1
:1044400004460CB9012010BD94F83D0028B90020A5
:1044500084F83C00204600F029F8022084F83D0052
:10446000211D206801F0C4F8012084F8480000BF35
:1044700084F83E0001213F20015540200155412094
:104480000155422001554320015500BF00BF0120C6
:1044900084F8440045200155462001554720015528
:1044A00000BF012084F83D000020CCE770470000E9
:1044B000014691F83D00012801D0012070470220FB
:1044C00081F83D0008688068074B00EA0302062A6D
:1044D00008D0B2F5803F05D00868006840F00100C0
:1044E0000B6818600020E9E70700010010B50446DA
:1044F0000CB9012010BDA06900B100E000BFD4F8E4
:10450000800028B9002084F87C00204600F02AF8BA
:104510002420C4F880002068006820F00100216891
:104520000860204601F080F9012800D1E2E7A06A86
:1045300010B1204601F0C2F82068406820F4904095
:10454000216848602068806820F02A00216888601F
:104550002068006840F0010021680860204601F0F2
:1045600029F9C7E77047000000B59BB04C2108A8A7
:10457000FBF7F8FE1C2101A8FBF7F4FE1848089091
:104580001848099005200190022002900390012014
:104590000490022005900690002007900A900021C8
:1045A0000B910C9120210D9100210E910F911091F2
:1045B0004FF4805111910021129113911491159192
:1045C0001691179101AA01A908A8FFF7E5FE20B1ED
:1045D0004FF4927104A0FCF75DF81BB000BD000021
:1045E00000400052044100522E2E5C2E2E5C55736A
:1045F00065725C6273705C7372635C6273705F6639
:104600006D635F696F2E630000B587B000BF3E48E1
:10461000006840F008003C4908600846006800F067
:104620000800019000BF00BF00BF0846006840F0CE
:10463000100008600846006800F01000019000BFFC
:1046400000BF00BF0846006840F040000860084610
:10465000006800F04000019000BF00BF00BF0846A6
:10466000006840F0800008600846006800F08000A4
:10467000019000BF00BF00BF0846006840F4807092
:1046800008600846006800F48070019000BF00BF19
:1046900000BF1D480C38006840F480501A490C399E
:1046A00008600846006800F48050019000BF00BF19
:1046B0000220039001200490032005900C20069016
:1046C0004CF2B370029002A91048FDF713FB4FF6AD
:1046D0008070029002A90E48FDF70CFB03200290A7
:1046E00002A90C48FDF706FB4FF47F40029002A997
:1046F0000948FDF7FFFA40F2CF60029002A907488F
:10470000FDF7F8FA07B000BDE0440258000C02586B
:104710000010025800180258001C025800200258CD
:10472000014604480068084008B101207047002095
:10473000FCE700004000002429B9084A12688243BF
:10474000064B1A6004E0054A12680243034B1A60E4
:10475000024A1268024B1A607047000040000024B1
:104760000010006010B53249096801F0004149B1FC
:104770002F49096841F000412D4A11608169891C67
:10478000816110BD2A49083909682A4A11622849FD
:10479000091F097882F824102549C91E09789162F9
:1047A00023490C310968D1622149891E0988118683
:1047B0001F49096851631E49091D096891631C4915
:1047C00010310968D1631CA200210BE0535C254C19
:1047D000A36200BF234BDB6903F04003002BF9D039
:1047E0004B1CD9B22929F1D300211F4A116000BF07
:1047F0001D4909680029FBD00E4A01681160416813
:10480000516081689160C168D1600169116141693D
:10481000516181699161C169D1610021124A1160C0
:1048200000BF114909680029FBD000BFA9E70000BB
:104830002CED00E0C41500240D0A456E746572204D
:10484000486172644661756C745F48616E646C6542
:10485000722C2053797374656D2048616C742E0D31
:104860000A000000001001405800002400B5B5B057
:104870000120019000201F9001A8FDF7ADFE00BFB0
:104880006548006840F00100634908600846006818
:1048900000F00100009000BF00BF00BF08460068A4
:1048A00040F0010008600846006800F00100009038
:1048B00000BF00BF00BF58481030006840F0100033
:1048C0005549103108600846006800F0100000905B
:1048D00000BF00BF4FF400703090022031900120E3
:1048E0003290032033900720349030A94B48FDF7D5
:1048F00001FA4FF4806030900720349030A9474887
:10490000FDF7F8F9002204212520FDF7D2FB252030
:10491000FDF7BBFB0C2300224FF4E131404802F0CD
:10492000C9F93F48006A40F040003D490862084626
:10493000806940F0080088610846006840F0200067
:10494000086000BF3448006840F002003249086047
:104950000846006800F00200009000BF00BF00BFE2
:104960000846006840F0020008600846006800F051
:104970000200009000BF00BF00BF27480830006859
:1049800040F480202449083108600846006800F49B
:104990008020009000BF00BF4FF480603090022064
:1049A000319001203290032033900720349030A9B9
:1049B0001C48FDF79FF94FF40060309007203490B9
:1049C00030A91848FDF796F9032204212720FDF7A6
:1049D00070FB2720FDF759FB0C2300224FF41651E2
:1049E000114802F067F910482030006840F040009C
:1049F0000D49203108600C481830006840F008006C
:104A00000949183108600848006840F0200006494C
:104A1000086035B000BD0000E044025800000258B4
:104A20000010014000040258004800402DE9F04108
:104A30000446082C17DA0026FF27002508E0284640
:104A400000F062F810B1701CC6B22F46681CC5B2E7
:104A5000082DF4DB012E04D1A74202D10120BDE8CC
:104A6000F0810020FBE7082C0BD1002000F04CF86F
:104A700028B1012000F048F808B10120EFE700203C
:104A8000EDE7092C0BD1012000F03EF828B10220FF
:104A900000F03AF808B10120E1E70020DFE700204C
:104AA000DDE700000024012080F3108800BFFEF73E
:104AB000C3FC00204FF0E02108614861886100BF1D
:104AC00008E04FF0FF310E4840F824100D4840F840
:104AD0002410641C082CF4D3002080F3108800BF3D
:104AE0004FF0016045680146086880F3088800BF00
:104AF000002080F3148800BFA84700BFFEE7000035
:104B000080E100E080E200E001460B4850F831000F
:104B10000069094B03EBC1039B88184008B90022C8
:104B200000E00122044800EBC1008079904201D1ED
:104B3000012070470020FCE7006F00081FB5FDF75B
:104B40007FFA01208DF800004FF0105001901220E4
:104B50008DF8080003208DF80B0000208DF80F0061
:104B60008DF80E008DF80D008DF8010001208DF8F4
:104B70000A0000208DF809008DF80C006846FDF74A
:104B800031FA01208DF800004FF0C04001900F2055
:104B90008DF8080003208DF80B0001208DF80F0020
:104BA00000208DF80E008DF80D0001208DF8010019
:104BB00000208DF80A008DF809008DF80C00684679
:104BC000FDF710FA0420FDF74BFA1FBD00BFFEE70A
:104BD000704770472DE9F04104460E4600275548BE
:104BE000006800F00300032802D10120BDE8F08135
:104BF00050482838006820F080604E492839086005
:104C0000FDF782F9054606E0FDF77EF9401B022814
:104C100001D90320EAE7474828380068C0F3C0609C
:104C20000028F1D100BF4348006820F47C3021689F
:104C300040EA01303F490860A088401EC0F30800E8
:104C4000A168491E4FF47E4202EA41210843A1892E
:104C5000491ED20102EA01410843217C491E120289
:104C600002EA0161084333491031086000BF31484E
:104C7000001D006820F0C000616908432D49091D2E
:104C800008600846006820F02000A169084329490F
:104C9000091D08600846006820F0100008602548DB
:104CA000143000684FF6F8718843E16940EAC100AA
:104CB0002049143108601F48001D006840F01000B2
:104CC0001C49091D08602EB90846006840F4002000
:104CD000086012E0012E08D11648001D006840F45B
:104CE00080101449091D086007E01248001D006883
:104CF00040F400100F49091D08600E48283800686C
:104D000040F080600B4928390860FDF7FDF8054642
:104D100006E0FDF7F9F8401B022801D9032065E7FA
:104D2000044828380068C0F3C0600028F1D0384635
:104D30005CE70000284402582DE9F04104460E4685
:104D400000275548006800F00300032802D1012025
:104D5000BDE8F08150482838006820F080504E4966
:104D600028390860FDF7D0F8054606E0FDF7CCF8D5
:104D7000401B022801D90320EAE747482838006889
:104D8000C0F340700028F1D100BF4348006820F014
:104D90007C70218840EA01503F490860A088401E8D
:104DA000C0F30800A168491E4FF47E4202EA412187
:104DB0000843A189491ED20102EA01410843217C2E
:104DC000491E120202EA01610843334918310860A2
:104DD00000BF3148001D006820F44060616908434D
:104DE0002D49091D08600846006820F40070A1697B
:104DF00008432949091D08600846006820F48070AE
:104E0000086025481C3000684FF6F8718843E16956
:104E100040EAC10020491C3108601F48001D00689D
:104E200040F480701C49091D08602EB908460068CE
:104E300040F48000086012E0012E08D11648001DE1
:104E4000006840F400001449091D086007E012489A
:104E5000001D006840F080700F49091D08600E4871
:104E60002838006840F080500B4928390860FDF769
:104E70004BF8054606E0FDF747F8401B022801D92C
:104E8000032065E7044828380068C0F34070002814
:104E9000F1D038465CE700002844025800B587B0DE
:104EA00000BF0D48006840F002000B49086008464A
:104EB000006800F00200019000BF00BF01200390D5
:104EC00000200490032005900420029002A90348CA
:104ED000FCF710FF07B000BDE04402580004025880
:104EE0007047000004200149086070471804025808
:104EF0004FF48020014908607047000018040258F0
:104F000010B50248FFF704F910BD0000D4040024D6
:104F100030B585B00446002000900C2001904FF47D
:104F200080700290002003904FF480500490E0685D
:104F300040F08000E060E06820F04000E0606946FA
:104F4000204600F0F9F8084A0C21204600F00EF83F
:104F50000546E06820F08000E060B5F1007F00D1F8
:104F60000025284605B030BD00E1F5052DE9F043E8
:104F700005460F46904666480068C0084FF47A71AF
:104F8000B0FBF1F000FB08F900BFB9F10000A9F196
:104F9000010903D14FF00040BDE8F0836E6B5D481E
:104FA00030400028F1D006F400500028EDD1686BA5
:104FB00000F0040010B10420A863EDE7686B00F076
:104FC000010010B10120A863E6E752488030A863D1
:104FD000284600F0A3F8B84201D00120DCE7002108
:104FE000284600F09FF804464B48204008B90020AE
:104FF000D2E704F00040B0F1004F02D14FF0007052
:10500000CAE704F08040B0F1804F01D14020C3E7EF
:1050100004F00050B0F1005F01D18020BCE704F043
:105020008050B0F1805F02D14FF48070B4E704F09B
:105030000060B0F1006F02D14FF40070ACE704F0F3
:105040008060B0F1806F02D14FF48060A4E704F07B
:105050008070B0F1807F02D14FF400609CE704F4CF
:105060000000B0F5000F02D14FF4805094E704F433
:105070008000B0F5800F02D14FF400508CE704F4AB
:105080000010B0F5001F02D14FF4804084E704F413
:105090008010B0F5801F02D14FF400407CE704F48B
:1050A0008020B0F5802F02D14FF4003074E704F473
:1050B0000030B0F5003F02D14FF480206CE704F4DB
:1050C0008030B0F5803F02D14FF4002064E704F453
:1050D0000040B0F5004F02D14FF480105CE704F4BB
:1050E0008040B0F5804F02D14FF4001054E704F433
:1050F0000050B0F5005F02D14FF480004CE704F09F
:105100000800082801D1000546E74FF4803043E746
:10511000500000244500200008E0FFFD014608691A
:10512000C0B27047024602F1140043181868704775
:105130000146D1F88000704710B502460023086888
:105140009060D1E901042043CC6820430C692043DE
:105150000343D068024C20401843D060002010BDAB
:10516000C0E0FEFF02460868C2F8800000207047D9
:105170002DE9F04105466C6AA86A202817D300275C
:105180000FE02868FFF7D4FF06462670641C300A3B
:105190002070641C300C2070641C300E2070641C65
:1051A0007F1C082FEDD36C62A86A2038A862BDE886
:1051B000F081F8B50546EC69286A202821D300263D
:1051C00019E020780090641C2078009941EA0020C2
:1051D0000090641C2078009941EA00400090641C13
:1051E0002078009941EA00600090641C69462868B4
:1051F000FFF7B8FF761C082EE3D3EC61286A20384D
:105200002862F8BD7047000010B5FCF783FE044823
:10521000007800B910BD00F005F800BFFAE7000003
:105220003C00002410B51B48006840B119480068D4
:10523000401E1849086010B9012017490870002461
:1052400008E004EB4401154A02EB810001F066FD21
:10525000601CC4B2042CF4DB11480068401C1049E7
:105260000860084600686FF00041884202D10020C3
:105270000B49086001F00AFD0A480078401CC0B2E2
:10528000084908700A2803DB0020087001F0FAFCC6
:1052900010BD00003000002434000024A4040024C9
:1052A000380000243D00002410B59CB0202114A833
:1052B000FBF758F84C2101A8FBF754F80024554897
:1052C000006820F004005349086000BF00200090EF
:1052D0005148006820F001004F4908600846006806
:1052E00000F0010000904B480C30006840F4404052
:1052F00048490C3108600846006800F440400090BE
:1053000000BF00BF00BF43480C30006800F40050ED
:10531000B0F5005FF7D10120019000040290002059
:105320000490089002200A9002210B9105210C9113
:10533000A0210D9102210E91109104210F910021C5
:1053400012910821119101A8FEF7EEFA04461CB152
:105350008D2132A0FBF79EF93F2014900320159079
:1053600000201690082017904020189019900001F6
:105370001A9040201B90042114A8FDF7CDFE04468E
:105380001CB1A82125A0FBF785F92A48006840F048
:1053900080002849086000BF2648F430006840F0CB
:1053A00002002449F43108600846006800F0020059
:1053B000009000BF00BFFBF753FC00BF1D48DC306E
:1053C000006840F000501B49DC3108600846006866
:1053D00000F00050009000BF00BF00BF084600680A
:1053E00040F0804008600846006800F0804000906F
:1053F00000BF00BF00BF0846006840F000400860E2
:105400000846006800F00040009000BF00BF1CB0DC
:1054100010BD00000C4802582C0400582E2E5C2EA3
:105420002E5C557365725C6273705C6273702E6380
:1054300000000000004402583648006840F4700044
:10544000344908603448006800F00F00072806D28D
:105450003148006820F00F00C01D2F4908602F4818
:10546000006840F001002D49086000202B491031F0
:1054700008602A4800682A490840284908602648E8
:10548000006800F00F00072806D92348006820F0C4
:105490000F00C01D20490860002020491831086015
:1054A000091D0860091D08601E481C492831086054
:1054B0001D48091D08601D48091D08600020091DC0
:1054C00008601A48091D08600020091D0860174877
:1054D000091D08600020091D08601048006820F4BC
:1054E00080200E49086000200C4960310860104897
:1054F00000686FF30F00B0F1005F02D201200D4988
:10550000086043F2D2000C49086048030149803921
:105510000860704788ED00E0002000520044025807
:105520007FEDF6EA000202020000FF0180020101A5
:105530000010005C088100510040005270B5002549
:1055400000264FF08044206900F00205E06800F07A
:1055500002065DB156B14FF6FD702061E0684FF66E
:10556000FD710840E0601E4800688047206900F037
:105570000405E06800F004065DB156B14FF6FB701B
:105580002061E0684FF6FB710840E0601548006854
:105590008047206900F00805E06800F008065DB16A
:1055A00056B14FF6F7702061E0684FF6F77108408A
:1055B000E0600D4800688047206900F01005E06851
:1055C00000F010065DB156B14FF6EF702061E06853
:1055D0004FF6EF710840E06004480068804770BDF6
:1055E0002000002424000024280000242C00002493
:1055F00010B50268294B98420ED0B0F1804F0BD005
:10560000274B984208D0274B984205D0264B98420A
:1056100002D0264B984203D122F070024B681A4305
:105620001E4B984217D0B0F1804F14D01C4B9842BB
:1056300011D01C4B98420ED01B4B98420BD01B4BE9
:10564000984208D01A4B984205D01A4B984202D083
:10565000194B984203D122F44072CB681A4322F0CE
:1056600080034C6943EA040202608B68C3620B68E2
:1056700083620A4B98420BD00C4B984208D00C4BDB
:10568000984205D00B4B984202D00B4B984201D167
:105690000B6903630123436110BD0000000001405A
:1056A0000004004000080040000C004000040140DD
:1056B00000400140004401400048014090F828109B
:1056C00001F0010139B10168496821F40031C26A71
:1056D00011430268516090F8281001F0020102297C
:1056E00007D10168496821F48031026B11430268D7
:1056F000516090F8281001F00401042907D10168D5
:10570000496821F48021426B11430268516090F88E
:10571000281001F00801082907D10168496821F41F
:105720000041826B11430268516090F8281001F02B
:105730001001102907D10168896821F48051C26BDA
:1057400011430268916090F8281001F0200120298F
:1057500007D10168896821F40051026C1143026885
:10576000916090F8281001F04001402913D10168A0
:10577000496821F48011426C114302685160416C08
:10578000B1F5801F07D10168496821F4C001826C1E
:1057900011430268516090F8281001F080018029BF
:1057A00007D10168496821F40021C26C11430268E5
:1057B0005160704738B504460020C4F88800FCF7F3
:1057C000A3FB05462068006800F0080008280CD1FB
:1057D0006FF07E402B4600224FF4001100902046CF
:1057E00000F0F0FA08B1032038BD2068006800F02E
:1057F000040004280CD16FF07E402B4600224FF4A9
:1058000080010090204600F0DDFA08B10320EBE7AC
:105810002020C4F88000C4F8840000BF002084F871
:105820007C0000BF00BFDFE72DE9F04F8BB00546DD
:1058300000200890F9492868884200D100E000BFA4
:105840002969A868084369690843E96940EA0108C9
:10585000686E40EA080828680068F149084040EA94
:105860000800296808602868406820F44050E9680A
:10587000084329684860D5F81880E84928688842B4
:1058800002D0286A40EA080828688068E54908408C
:1058900040EA0800296888602868C06A20F00F0084
:1058A000696A08432968C86200BFDF4928688842DE
:1058B00020D1DE48006800F03800182811D005DC3F
:1058C00048B1082809D0102811D108E020280AD0B2
:1058D00028280CD109E001240BE0042409E0082465
:1058E00007E0102405E0202403E0402401E08024A8
:1058F00000BFF8E0CE492868884219D1CB4800683B
:1059000000F00700062810D2DFE800F003050709C1
:105910000B0D00240BE0042409E0082407E0102408
:1059200005E0202403E0402401E0802400BFDAE009
:10593000C0492868884219D1BC48006800F00700B7
:10594000062810D2DFE800F0030507090B0D00243C
:105950000BE0042409E0082407E0102405E02024DB
:1059600003E0402401E0802400BFBCE0B249286885
:10597000884219D1AD48006800F00700062810D20F
:10598000DFE800F0030507090B0D00240BE00424F9
:1059900009E0082407E0102405E0202403E0402467
:1059A00001E0802400BF9EE0A4492868884219D104
:1059B0009E48006800F00700062810D2DFE800F0DB
:1059C000030507090B0D00240BE0042409E008245B
:1059D00007E0102405E0202403E0402401E08024B7
:1059E00000BF80E096492868884220D18F4800682F
:1059F00000F03800182811D005DC48B1082809D07B
:105A0000102811D108E020280AD028280CD109E05C
:105A100001240BE0042409E0082407E0102405E039
:105A2000202403E0402401E0802400BF5BE085499E
:105A30002868884219D17D48006800F007000628D0
:105A400010D2DFE800F0030507090B0D00240BE07E
:105A5000042409E0082407E0102405E0202403E0E2
:105A6000402401E0802400BF3DE077492868884257
:105A700019D16E48006800F00700062810D2DFE850
:105A800000F0030507090B0D00240BE0042409E0D6
:105A9000082407E0102405E0202403E0402401E06E
:105AA000802400BF1FE05D49286888421AD15F4802
:105AB000001D006800F00700062810D2DFE800F0A3
:105AC000030507090B0D02240BE0042409E0082458
:105AD00007E0102405E0202403E0402401E08024B6
