:020000040800F2
:1000000030500020456900089B3100082169000834
:100010009D3100089F310008A13100080000000058
:10002000000000000000000000000000A3310008F4
:10003000A531000800000000A7310008E34F0008C8
:10004000996900089D690008A1690008A569000870
:10005000A9690008AD690008B1690008B569000820
:10006000B9690008BD690008C1690008C5690008D0
:10007000C9690008CD690008D1690008D569000880
:10008000D9690008DD690008E1690008E569000830
:10009000E9690008ED690008F1690008F5690008E0
:1000A000F9690008FD690008016A0008056A00088E
:1000B000AB500008096A00080D6A0008116A0008C0
:1000C000156A0008196A00081D6A0008216A0008FC
:1000D000256A000829450008296A000833450008F8
:1000E0002D6A0008316A000800000000356A000827
:1000F000396A00083D6A0008416A0008456A00083C
:10010000496A00084D6A0008516A0008556A0008EB
:10011000596A00085D6A0008616A0008656A00089B
:10012000696A00086D6A0008716A0008756A00084B
:10013000796A00087D6A0008816A0008856A0008FB
:1001400000000000000000000000000000000000AF
:10015000896A00088D6A0008916A0008956A00089B
:10016000996A00089D6A0008A16A0008A56A00084B
:10017000A96A0008AD6A0008B16A00080000000022
:10018000B56A0008B96A0008BD6A0008C16A0008BB
:10019000C56A0008C96A0008CD6A0008D16A00086B
:1001A000D56A0008D96A0008DD6A0008E16A00081B
:1001B000E56A0008E96A0008ED6A0008F16A0008CB
:1001C000F56A0008F96A0008FD6A0008016B00087A
:1001D000056B0008096B00080D6B0008116B000827
:1001E000156B0008196B00081D6B0008216B0008D7
:1001F000256B0008296B00082D6B0008316B000887
:10020000356B0008396B00083D6B0008416B000836
:10021000456B0008496B00084D6B0008516B0008E6
:10022000556B0008596B00085D6B0008000000006A
:10023000616B0008656B000800000000696B000836
:100240006D6B0008716B0008756B0008796B000816
:100250007D6B0008816B0008856B0008896B0008C6
:100260008D6B0008916B0008956B0008996B000876
:100270009D6B0008A16B0008A56B00080000000042
:10028000A96B0008AD6B0008B16B0008000000000E
:1002900000000000B56B00082DE9F04104000026C5
:1002A00000252068000130D5606E002809D0B0F527
:1002B000801F0DD0B0F5001F10D0B0F5401F14D036
:1002C00014E0DFF8F009016851F4003101600EE03C
:1002D0000221201D00F026FF060008E0022114F193
:1002E000240000F0A6FF060001E000E00126300037
:1002F000C0B2002808D1DFF8C0190A6832F44012F1
:10030000606E02430A6000E035002068C0052ED50B
:10031000606D002806D0022811D00AD3042816D018
:1003200014D315E0DFF88C09016851F40031016045
:100330000FE00021201D00F0F5FE060009E000217D
:1003400014F1240000F075FF060002E001E000E077
:1003500001263000C0B2002808D1DFF85C190A6815
:10036000D208D200606D02430A6000E035002068C8
:10037000800531D5A06D002809D040280ED08028F6
:1003800012D0C02817D0B0F5807F15D015E0DFF867
:100390002409016851F4003101600FE00021201DA3
:1003A00000F0C0FE060009E0002114F1240000F076
:1003B00040FF060002E001E000E001263000C0B28C
:1003C000002808D1DFF8F0180A6832F4E072A06D56
:1003D00002430A6000E035002068400536D5D4F8B5
:1003E000A40000280CD0B0F5001F10D0B0F5800F8D
:1003F00013D0B0F5C00F17D0B0F5000F15D015E031
:10040000DFF8B008016851F4003101600FE000210D
:10041000201D00F087FE060009E0002114F12400F1
:1004200000F007FF060002E001E000E001263000D6
:10043000C0B2002809D1DFF884180A6832F46002DB
:10044000D4F8A40002430A6000E0350020680005EB
:1004500036D5D4F8A80000280CD0B0F1807F10D099
:10046000B0F1007F13D0B0F1407F17D0B0F1806FB2
:1004700015D015E0DFF83C08016851F40031016047
:100480000FE00021201D00F04DFE060009E00021D4
:1004900014F1240000F0CDFE060002E001E000E0CF
:1004A00001263000C0B2002809D1DFF810180A6810
:1004B00032F0E062D4F8A80002430A6000E03500A0
:1004C0002068800127D5A06C002814D0102804D003
:1004D000202809D030280DD00EE0DFF8D8070168B9
:1004E00051F40031016008E00221201D00F01AFEE5
:1004F000060002E001E000E001263000C0B2002862
:1005000008D1DFF8BC170A6832F03002A06C024351
:100510000A6000E035002068C00434D5E06D002892
:100520000CD0B0F5805F10D0B0F5005F13D0B0F5FF
:10053000405F17D0B0F5804F15D015E0DFF8740795
:10054000016851F4003101600FE00021201D00F02E
:10055000E9FD060009E0002114F1240000F069FE25
:10056000060002E001E000E001263000C0B20028F1
:1005700008D1DFF844170A6832F4E042E06D024324
:100580000A6000E035002068800432D5206E002823
:100590000FD0B0F5803F0DD0B0F5003F10D0B0F5D2
:1005A000403F14D0B0F5802F12D0B0F5A02F10D05E
:1005B00010E010E00121201D00F0B4FD06000AE06B
:1005C000012114F1240000F034FE060003E002E0F3
:1005D00001E000E001263000C0B2002808D1DFF8B9
:1005E000D8160A6832F4E022206E02430A6000E066
:1005F00035002068400434D5D4F8AC0000280FD072
:10060000B0F1805F0DD0B0F1005F10D0B0F1405F6D
:1006100014D0B0F1804F12D0B0F1A04F10D010E044
:1006200010E00121201D00F07DFD06000AE00121FF
:1006300014F1240000F0FDFD060003E002E001E0FB
:1006400000E001263000C0B2002809D1DFF86C16A6
:100650000A6832F0E042D4F8AC0002430A6000E0DD
:1006600035002068000426D5E06E002813D0B0F1D4
:10067000805F03D0B0F1005F07D00DE0DFF83406F3
:10068000016851F40031016007E00121201D00F0F4
:1006900049FD060001E000E001263000C0B200285C
:1006A00008D1DFF814160A6832F04052E06E0243B7
:1006B0000A6000E035002068C00126D5606C002883
:1006C00013D002280AD002D303280DD00EE0DFF8A1
:1006D000E405016851F40031016008E00221201DA9
:1006E00000F020FD060002E001E000E001263000FD
:1006F000C0B2002808D1DFF8C8150A689208920035
:10070000606C02430A6000E03500206840026DD54D
:10071000DFF8B085D8F8000050F48070C8F8000009
:1007200000F020FE0700D8F80000C00505D400F056
:1007300019FEC01B6528F6D303263000C0B200287E
:1007400053D1DFF88475386810F44070D4F8B010D5
:1007500011F4407188420BD0386830F44070396829
:1007600051F480313960396831F480313960386052
:10077000D4F8B000B0F5807F0ED100F0F3FD8046D4
:100780003868800708D400F0EDFDB0EB080041F2B6
:1007900089318842F4D303263000C0B2002822D128
:1007A000D4F8B00010F44070B0F5407F0DD1DFF800
:1007B0001C05016831F47C51D4F8B020DFF8103505
:1007C00013EA12131943016005E0DFF80005016820
:1007D00031F47C5101603868D4F8B0100905090D76
:1007E0000843386002E0350000E035002078C0079B
:1007F0002DD5A06F00280AD0082809D010280DD0C8
:10080000182812D0202811D0282810D010E010E08D
:100810000121201D00F086FC06000AE0012114F1F0
:10082000240000F006FD060003E002E001E000E025
:1008300001263000C0B2002808D1DFF898140A68F9
:1008400032F03802A06F02430A6000E035002078E1
:1008500080072BD5606F002808D002280DD006D362
:10086000042812D010D3052810D010E010E0012188
:10087000201D00F057FC06000AE0012114F12400BD
:1008800000F0D7FC060003E002E001E000E00126F2
:100890003000C0B2002808D1DFF838140A68D20846
:1008A000D200606F02430A6000E035002078400704
:1008B0002DD5D4F89000002808D002280DD006D3FA
:1008C000042812D010D3052810D010E010E0012128
:1008D000201D00F027FC06000AE0012114F124008D
:1008E00000F0A7FC060003E002E001E000E00126C2
:1008F0003000C0B2002809D1DFF8C0130A68D2085E
:10090000D200D4F8900002430A6000E0350020785D
:10091000800634D5D4F88C0000280FD0B0F1805F69
:100920000DD0B0F1005F10D0B0F1405F14D0B0F145
:10093000804F12D0B0F1A04F10D010E010E0002195
:10094000201D00F0EFFB06000AE0022114F1240054
:1009500000F06FFC060003E002E001E000E0012689
:100960003000C0B2002809D1DFF868130A6832F0FD
:10097000E042D4F88C0002430A6000E035002078A1
:10098000400634D5D4F8980000280FD0B0F5806F19
:100990000DD0B0F5006F10D0B0F5406F14D0B0F5A9
:1009A000805F12D0B0F5A05F10D010E010E0002101
:1009B000201D00F0B7FB06000AE0022114F124001C
:1009C00000F037FC060003E002E001E000E0012651
:1009D0003000C0B2002809D1DFF8E0120A6832F412
:1009E000E052D4F8980002430A6000E03500207815
:1009F000000634D5D4F89C0000280FD0B0F5005F75
:100A00000DD0B0F5804F10D0B0F5C04F14D0B0F578
:100A1000004F12D0B0F5204F10D010E010E00021B0
:100A2000201D00F07FFB06000AE0022114F12400E3
:100A300000F0FFFB060003E002E001E000E0012619
:100A40003000C0B2002809D1DFF870120A6832F411
:100A50006042D4F89C0002430A6000E03500207830
:100A6000000715D5D4F88000B0F5805F07D10221CA
:100A700014F1240000F0DDFB002800D00125DFF890
:100A800054120A6832F44052D4F8800002430A60DB
:100A90002078C00615D5D4F89400B0F5807F07D132
:100AA000022114F1240000F0C4FB002800D001252D
:100AB000DFF808120A6832F44072D4F89400024356
:100AC0000A602068000328D5D4F8A000002806D0CA
:100AD000B0F5803F09D0B0F5003F0DD00DE000210A
:100AE000201D00F01FFB060008E0022114F1240085
:100AF00000F09FFB060001E000E001263000C0B2DC
:100B0000002809D1DFF8B4110A6832F44032D4F871
:100B1000A00002430A6000E035002068400329D5A8
:100B2000D4F88400B0F5801F06D0B0F5001F09D0BE
:100B3000B0F5401F0DD00DE05E48016851F4003162
:100B4000016008E0012114F1240000F072FB0600AE
:100B500001E000E001263000C0B2002809D1DFF832
:100B600074110A6832F44012D4F8840002430A6017
:100B700000E035002068C00320D5E06C002803D0D9
:100B8000B0F5803F06D00BE04A48016851F40031CF
:100B9000016006E00221201D00F0C4FA060000E01A
:100BA00001263000C0B2002807D145490A6832F456
:100BB0008032E06C02430A6000E03500206880006B
:100BC00007D5022114F1240000F033FB002800D0E7
:100BD00001252068800323D5E06F002811D0B0F5EF
:100BE000807F06D0B0F5007F09D0B0F5407F07D0F8
:100BF00008E03048016851F40031016003E002E090
:100C000001E000E001263000C0B2002807D13149E0
:100C10000A6832F44072E06F02430A6000E0350077
:100C20002068C00206D524490A6822F00042206FDD
:100C300002430A602068C00007D524490A6832F4DC
:100C40008042D4F8B40002430A602068800206D5CE
:100C500019490A6832F08072A06E02430A60206867
:100C6000400009D51949086830F4004008600A6856
:100C7000D4F8B80002430A602068002806D510495D
:100C80000A6832F04052206D02430A602068000278
:100C900007D510490A6832F44002D4F888000243AC
:100CA0000A60EDB2002D01D1002000E00120BDE876
:100CB000F08100002C440258504402585844025815
:100CC0004C440258004802587044025810440258DC
:100CD000CFFFFF005444025880B500F084FDDFF8D8
:100CE0006016DFF860261268C2F30212895C11F008
:100CF0001F01C84002BD000010B481490B6813F009
:100D000003030968C1F305317F4A1268C2F3001476
:100D1000DFF834261268C2F3CC02544300EE104AC6
:100D2000B8EE400A002900F0DE80002B03D0022B31
:100D300068D049D384E0DFF8E82313689B0625D503
:100D4000DFF8D8331268C2F3C102D34000EE903A04
:100D5000F8EE600A01EE101AB8EE411AC0EE810AF0
:100D6000DFF8E8150968C905C90D01EE101AB8EEDB
:100D7000411ADFED611A80EE210A31EE000AB7EE6A
:100D8000001A30EE010A20EE800A1CE000EE901AF4
:100D9000F8EE600A9FED591AC1EE200ADFF8AC1593
:100DA0000968C905C90D01EE101AB8EE411ADFED48
:100DB000521A80EE210A31EE000AB7EE001A30EE28
:100DC000010A20EE800A58E000EE901AF8EE600A60
:100DD0009FED4C1AC1EE200ADFF870150968C905AD
:100DE000C90D01EE101AB8EE411ADFED431A80EE7C
:100DF000210A31EE000AB7EE001A30EE010A20EEA9
:100E0000800A3AE000EE901AF8EE600A9FEDBF1AF1
:100E1000C1EE200ADFF834150968C905C90D01EED5
:100E2000101AB8EE411ADFED341A80EE210A31EEC5
:100E3000000AB7EE001A30EE010A20EE800A1CE02C
:100E400000EE901AF8EE600A9FED2E1AC1EE200A0D
:100E5000DFF8F8140968C905C90D01EE101AB8EEDB
:100E6000411ADFED251A80EE210A31EE000AB7EEB5
:100E7000001A30EE010A20EE800ADFF8D0140A686A
:100E8000C2F3462200EE902AF8EE600AB7EE001A8E
:100E900070EE810AC0EE200AFCEEE00AC0ED000A06
:100EA0000A68C2F3064200EE902AF8EE600AB7EE36
:100EB000001A70EE810AC0EE200AFCEEE00AC0EDD6
:100EC000010A0968C1F3066100EE901AF8EE600AA3
:100ED000B7EE001A70EE810A80EE200ABCEEC00A5E
:100EE00080ED020A05E0002101600021416000213F
:100EF000816010BC70470000000000460024744C64
:100F0000284402580024744A2C44025810B4DFF8D4
:100F100040140B6813F003030968C1F30551DFF8AF
:100F200034241268C2F30024DFF82C241268C2F3C0
:100F3000CC02544300EE104AB8EE400A002900F0FB
:100F4000DD80002B03D0022B67D048D383E0DFF88D
:100F5000D02113689B0624D5704B1268C2F3C102DE
:100F6000D34000EE903AF8EE600A01EE101AB8EEA7
:100F7000411AC0EE810ADFF8E4130968C905C90DFA
:100F800001EE101AB8EE411ADFED611A80EE210A67
:100F900031EE000AB7EE001A30EE010A20EE800AA8
:100FA0001CE000EE901AF8EE600A9FED5A1AC1EEAE
:100FB000200ADFF8A8130968C905C90D01EE101A47
:100FC000B8EE411ADFED521A80EE210A31EE000A26
:100FD000B7EE001A30EE010A20EE800A58E000EE6B
:100FE000901AF8EE600A9FED4C1AC1EE200ADFF865
:100FF0006C130968C905C90D01EE101AB8EE411A43
:10100000DFED431A80EE210A31EE000AB7EE001A36
:1010100030EE010A20EE800A3AE000EE901AF8EE77
:10102000600A9FED3A1AC1EE200ADFF83013096812
:10103000C905C90D01EE101AB8EE411ADFED341AD8
:1010400080EE210A31EE000AB7EE001A30EE010AF6
:1010500020EE800A1CE000EE901AF8EE600A9FED88
:101060002E1AC1EE200ADFF8F4120968C905C90D6D
:1010700001EE101AB8EE411ADFED251A80EE210AB2
:1010800031EE000AB7EE001A30EE010A20EE800AB7
:10109000DFF8C8120A68C2F3462200EE902AF8EE82
:1010A000600AB7EE001A70EE810AC0EE200AFCEE6C
:1010B000E00AC0ED000A0A68C2F3064200EE902A78
:1010C000F8EE600AB7EE001A70EE810AC0EE200A50
:1010D000FCEEE00AC0ED010A0968C1F3066100EE0A
:1010E000901AF8EE600AB7EE001A70EE810A80EEF0
:1010F000200ABCEEC00A80ED020A05E00021016072
:10110000002141600021816010BC704720BCBE4BB3
:10111000000000460024744C0024744A0090D00360
:10112000004402582DE9F84305000C000026DFF8C2
:101130002082D8F8000010F00300032801D101201C
:1011400075E0874F386830F08060386000F00AF949
:1011500081463868000107D500F004F9B0EB0900BA
:101160000328F6D3032062E0D8F8000030F47C3086
:10117000296850EA0130C8F800006868401EC005C0
:10118000C00DA968491E490211F47E410843E9686F
:10119000491E090411F4FE0108432969491E090684
:1011A00011F0FE410843694908606A490A6832F053
:1011B000C002686902430A600A6832F02002A86926
:1011C00002430A60086830F0100008605E48026858
:1011D0006FF3CF02EB6952EAC3020260086850F075
:1011E00010000860002C04D1086850F4002008604A
:1011F0000AE0012C04D1086850F48010086003E074
:10120000086850F400100860386850F0806038605A
:1012100000F0A8F804003868000106D400F0A2F835
:10122000001B0328F7D3032001E03000C0B2BDE863
:10123000F2832DE9F84305000C000026DFF8108149
:10124000D8F8000010F00300032801D1012075E058
:10125000434F386830F08050386000F083F88146A2
:101260003868800007D500F07DF8B0EB090003284E
:10127000F6D3032062E0D8F8000030F07C702968D3
:1012800050EA0150C8F800006868401EC005C00D53
:10129000A968491E490211F47E410843E968491EC4
:1012A000090411F4FE0108432969491E090611F0D9
:1012B000FE4108432949086026490A6832F4406221
:1012C000686902430A600A6832F40072A86902433E
:1012D0000A60086830F4807008601F4802686FF385
:1012E000CF02EB6952EAC3020260086850F48070D2
:1012F0000860002C04D1086850F4800008600AE0FF
:10130000012C04D1086850F40000086003E008686C
:1013100050F080700860386850F08050386000F0FD
:1013200021F804003868800006D400F01BF8001B88
:101330000328F7D3032001E03000C0B2BDE8F283F8
:1013400034690008204402583C440258384402588A
:10135000284402582C44025844440258404402583D
:101360000044025801480068704700BF2440002034
:101370002DE9F04104000E00002C01D101203AE1DA
:10138000DFF8DC54286810F00F00B0420BD2286858
:101390000009000130432860286810F00F00B042B7
:1013A00001D0012027E1207840070DD5DFF8CC14CB
:1013B000086810F070002269904205D20A6832F085
:1013C0007002206902430A60207800070DD5DFF81B
:1013D000B014086810F070006269904205D20A6883
:1013E00032F07002606902430A602078C0060DD5B1
:1013F000DFF88C14086810F4E060A269904205D20E
:101400000A6832F4E062A06902430A60207880062C
:101410000DD5DFF87014086810F07000E269904292
:1014200005D20A6832F07002E06902430A6020784F
:1014300080070DD5DFF84414086810F00F00E2684B
:10144000904205D20A6812091201E06802430A605C
:101450002078C00748D5DFF824140A6832F4706297
:10146000A06802430A606068022806D1DFF8F4032E
:10147000006880031CD40120BDE06068032806D109
:10148000DFF8E0030068800112D40120B3E0606857
:10149000012806D1DFF8CC030068C00508D401207C
:1014A000A9E0DFF8C0030068400701D40120A2E0F2
:1014B000DFF8B4733968C908C9006068014339604E
:1014C000FFF750FF8046386810F038006168B0EBD5
:1014D000C10F09D0FFF746FFB0EB080041F2893198
:1014E0008842F0D3032086E0207880070DD5DFF80E
:1014F0008C13E0680A6812F00F02904205D20A6865
:1015000012091201E06802430A60286810F00F0017
:1015100086420BD228680009000130432860286801
:1015200010F00F00B04201D0012064E020784007A5
:101530000DD5DFF8481320690A6812F07002904256
:1015400005D20A6832F07002206902430A602078EE
:1015500000070DD5DFF8281360690A6812F07002E1
:10156000904205D20A6832F07002606902430A6054
:101570002078C0060DD5DFF80813A0690A6812F4B8
:10158000E062904205D20A6832F4E062A069024348
:101590000A60207880060DD5DFF8E812E0690A6855
:1015A00012F07002904205D20A6832F07002E069CF
:1015B00002430A6000F022F8DFF8DC22DFF8BC12F8
:1015C0000B68C3F30323D35C13F01F03D8400968EF
:1015D00011F00F01515C11F01F010200CA40DFF849
:1015E00094120A60DFF888120860DFF88C02006845
:1015F00000F082FCC0B2BDE8F0810000DFF86802B4
:10160000006810F03800002806D0082813D01028F1
:1016100014D0182815D0E4E0DFF8481208688006D6
:1016200006D5DFF848020968C1F3C101C84001E0EE
:10163000DFF83802D6E0DFF86402D3E0DFF86002BA
:10164000D0E0DFF84402026812F003020068C0F341
:101650000510DFF838120B6813F00103DFF83412BD
:101660000968C1F3CC014B4300EE103AB8EE400AD2
:10167000002800F0B480002A03D0022A66D048D3A4
:1016800081E0DFF8E0110A68920625D5DFF8DC2159
:101690000968C1F3C101CA4000EE902AF8EE600A61
:1016A00001EE100AB8EE411AC0EE810ADFF8E0013F
:1016B0000068C005C00D01EE100AB8EE411ADFED5A
:1016C000641A80EE210A31EE000AB7EE001A30EEFD
:1016D000010A60EE800A1BE000EE900AF8EE600A54
:1016E0009FED5C1AC1EE200A69480068C005C00D74
:1016F00001EE100AB8EE411ADFED551A80EE210A0C
:1017000031EE000AB7EE001A30EE010A60EE800AF0
:1017100055E000EE900AF8EE600A9FED4F1AC1EE18
:10172000200A5B480068C005C00D01EE100AB8EE43
:10173000411ADFED471A80EE210A31EE000AB7EEBA
:10174000001A30EE010A60EE800A38E000EE900ADE
:10175000F8EE600A9FED411AC1EE200A4C4800687D
:10176000C005C00D01EE100AB8EE411ADFED381ABF
:1017700080EE210A31EE000AB7EE001A30EE010ABF
:1017800060EE800A1BE000EE900AF8EE600A9FED22
:10179000321AC1EE200A3E480068C005C00D01EEB5
:1017A000100AB8EE411ADFED2A1A80EE210A31EE56
:1017B000000AB7EE001A30EE010A60EE800A3448E3
:1017C0000068C0F34620401C00EE100AB8EE400A44
:1017D00080EE800ABCEEC00A10EE100A00E0002085
:1017E00000E02E48704780B5FFF708FF23492A4ADA
:1017F0000B68C3F30323D35C13F01F03D8401D4BC6
:10180000096811F00F01515C11F01F010200CA407C
:101810001A6017490860186802BD80B5FFF7E3FF3A
:101820001D49174A1268C2F30212895C11F01F01A8
:10183000C84002BD80B5FFF7D6FF1749104A1268AD
:10184000C2F30222895C11F01F01C84002BD0000F2
:10185000000000460024744C0024744A20BCBE4B97
:101860000020005200440258104402580090D00357
:101870000400002008000020000000201844025846
:101880001C44025820440258284402582C44025850
:1018900030440258344402583469000800093D00BD
:1018A00040787D0170B50400002C01D1012009E3CE
:1018B0002078C00770D5DFF81006006810F03800F7
:1018C000DFF808160968102805D018280DD111F086
:1018D0000301022909D1DFF8F805006880035BD510
:1018E0006068002858D10120ECE26068B0F5803FC4
:1018F00006D1DFF8DC05016851F48031016026E093
:10190000606800280AD1DFF8C805016831F4803129
:101910000160016831F48021016018E06068B0F571
:10192000A02F0AD1DFF8A805016851F480210160D9
:10193000016851F48031016009E0DFF89405016825
:1019400031F480310160016831F480210160606808
:10195000002810D0FFF706FD0500DFF874050068C9
:10196000800319D4FFF7FEFC401B41F28931884205
:10197000F3D30320A6E2FFF7F5FC0500DFF85005DE
:101980000068800308D5FFF7EDFC401B41F2893168
:101990008842F3D3032095E2207880073DD5DFF815
:1019A0002805006810F03800DFF8201509680028C5
:1019B00004D0182851D111F0030F4ED1DFF81005D3
:1019C0000068400704D5E068002801D1012079E2D1
:1019D00000F0E8FA41F20401884215D2206940285B
:1019E00008D1DFF8F004016831F47C3151F40031A2
:1019F000016012E0DFF8DC04016831F47C31226917
:101A000051EA0231016008E0DFF8C804016831F0F2
:101A1000FE41226951EA026101602078C00640F16E
:101A20009280DFF8A404006810F03800DFF89C14FE
:101A30000968082807D0182840F09E8011F003019B
:101A4000012940F09980DFF888040068C00555D569
:101A5000E069802852D0012034E2E06800283AD0C2
:101A6000DFF86C64316831F01901E06801433160DE
:101A7000FFF778FC05003068400706D4FFF772FCDA
:101A8000401B0328F7D303201CE200F08BFA41F23D
:101A90000401884215D22069402808D1DFF83404B7
:101AA000016831F47C3151F40031016012E0DFF85B
:101AB0002404016831F47C31226951EA0231016069
:101AC00008E0DFF81004016831F0FE41226951EAB4
:101AD00002610160A1E7DFF8F86330684008400068
:101AE0003060FFF73FFC05003068400795D5FFF7F1
:101AF00039FC401B0328F7D30320E3E100F052FA3E
:101B000041F20401884215D2206A202808D1DFF86A
:101B1000C403016831F0F84151F08041016012E0E6
:101B2000DFF8B003016831F0F841226A51EA8261BE
:101B3000016008E0DFF8A003016831F07C51226AFF
:101B400051EA026101602078000773D560690028BE
:101B50005ED0DFF88863306850F001003060FFF736
:101B600001FC05003068800764D4FFF7FBFB401BD5
:101B70000328F7D30320A5E1E069002836D0DFF879
:101B80005063306850F080003060FFF7EBFB0500D9
:101B90003068C00506D4FFF7E5FB401B0328F7D3E8
:101BA00003208FE100F0FEF941F20401884214D2D3
:101BB000206A202808D1DFF81C03016831F0F841C1
:101BC00051F08041016010E0C248016831F0F841F5
:101BD000226A51EA8261016007E0BF48016831F082
:101BE0007C51226A51EA02610160ACE7B84E30686C
:101BF00030F080003060FFF7B5FB05003068C005AD
:101C0000A1D5FFF7AFFB401B0328F7D3032059E111
:101C1000B24E3068400840003060FFF7A3FB05007B
:101C20003068800706D5FFF79DFB401B0328F7D3DC
:101C3000032047E12078800626D5A069002811D02E
:101C4000A34E306850F480503060FFF78BFB0500E6
:101C50003068800418D4FFF785FB401B0328F7D3B6
:101C600003202FE19A4E306830F480503060FFF747
:101C700079FB05003068800406D5FFF773FB401B35
:101C80000328F7D303201DE12078400760D5944E48
:101C9000306850F480703060FFF764FB05003068F6
:101CA000C00506D4FFF75EFB401B6528F7D3032071
:101CB00008E1A068012805D18A48016851F00101B6
:101CC000016022E0A068002809D18648016849081F
:101CD00049000160016831F00401016015E0A0686D
:101CE000052809D17F48016851F0040101600168AD
:101CF00051F00101016008E07A4801684908490093
:101D00000160016831F004010160A06800280FD073
:101D1000FFF728FB050073480068800718D4FFF719
:101D200021FB401B41F289318842F4D30320C9E0F2
:101D3000FFF718FB05006B480068800708D5FFF720
:101D400011FB401B41F289318842F4D30320B9E0F2
:101D5000606A002800F0B5805B48006810F0380029
:101D6000182800F08380606A02286DD1584D2868D9
:101D700030F080702860FFF7F5FA060028688001CF
:101D800006D5FFF7EFFA801B0328F7D3032099E06D
:101D90004E490A6854480240A06A0243E06A52EA87
:101DA00000120A60206B401EC005C00D616B491E09
:101DB000490211F47E410843A16B491E090411F444
:101DC000FE010843E16B491E090611F0FE4108437C
:101DD0004649086046490868400840000860454890
:101DE00002686FF3CF02A36C52EAC30202600A6872
:101DF00032F00C02206C02430A600A6832F00202E0
:101E0000606C02430A60086850F48030086008681B
:101E100050F400300860086850F4802008600868BA
:101E200050F001000860286850F080702860FFF7CB
:101E300099FA04002868800143D4FFF793FA001B45
:101E40000328F7D303203DE0214D286830F080704F
:101E50002860FFF787FA04002868800131D5FFF772
:101E600081FA001B0328F7D303202BE017480068F2
:101E70001E490968626A012A21D010F00302A36A90
:101E80009A421CD1C0F30510E26A904217D1C805EE
:101E9000C00D226B521E904211D1C1F34620626BDD
:101EA000521E90420BD1C1F30640A26B521E9042CB
:101EB00005D1C1F30660E16B491E884201D00120C3
:101EC00000E0002070BD00BF1044025828440258B2
:101ED00000440258044402580C4402587444025806
:101EE00000480258704402580CFCFFFF304402586E
:101EF0002C4402583444025810B5040011490878A3
:101F0000002801D101201BE04FF47A700978B0FB62
:101F1000F1F00D490968B1FBF0F000F0F9F8002884
:101F200001D001200CE0102C09D2002221005FF02A
:101F3000FF3000F0D8F805480460002000E00120E0
:101F400010BD00BF8C000020040000200000002015
:101F500080B5032000F0C3F8FFF750FBDFF85C10FA
:101F6000DFF85C200B68C3F30323D35C13F01F037B
:101F7000D840096811F00F01515C11F01F010200F7
:101F8000CA40DFF840100A60DFF83C1008600F20FC
:101F9000FFF7B2FF002801D0012002E000F01AF89C
:101FA000002002BDDFF824000068000C70470848DC
:101FB000016851F0010101607047000018440258A7
:101FC0003469000808000020040000200010005CB4
:101FD00020040058704730B4002513E050F8042B5B
:101FE000D30744BFA9F101039A18091F042942F835
:101FF000045BFAD213468C0744BF15809B1CC907AB
:1020000048BF1D7050F8041B0029E7D130BC704751
:1020100010F00700634B1A684FF6FF010A4062494F
:1020200051EA00210A431A6070475E480068C0F315
:1020300002207047010009B2002908D4012210F0E3
:102040001F018A40594900B2400941F820207047D9
:10205000020012B2002A04D40901554A00B21154F8
:1020600007E00901534A00B210F00F00104400F8D5
:10207000041C704710B410F00700D0F10703052BC3
:1020800001D3042301E0D0F10703041D072C01D282
:10209000002000E0C01E012414FA03F35B1E194067
:1020A000814014FA00F0401E1040084310BC7047F5
:1020B00080B5411EB1F1807F01D301200EE0401EAA
:1020C0003D4908600F215FF0FF30FFF7C1FF00209E
:1020D0003A49086007203A490860002002BD80B5EF
:1020E000FFF796FF01BD70B504000D001600FFF765
:1020F0009CFF32002900FFF7BDFF0100200000B265
:10210000FFF7A6FF70BD80B500B2FFF793FF01BDDA
:1021100080B5FFF7CDFF02BDBFF35F8F294801688F
:1021200031F480310160002027490860704750F089
:102130000100254908602348016851F4803101609D
:10214000BFF34F8FBFF36F8F704741781F4A116005
:10215000017800291ED041681D4A1160017BC27AB6
:10216000120652EA0172817A52EAC142417B52EA76
:102170008142817B52EA4142C17B52EA0142417A6B
:1021800052EA0122017A52EA4102007802431148E0
:10219000026005E000200E49086000200D4908603B
:1021A000704700000CED00E00000FA0500E100E0DF
:1021B00000E400E018ED00E014E000E018E000E0CA
:1021C00010E000E024ED00E094ED00E098ED00E088
:1021D0009CED00E0A0ED00E02DE9F14FB0B092469B
:1021E00004910DF142013A9A2B9199464A700020D0
:1021F0000AE01AF8011B0498309A904700280490CE
:1022000000F0B4860D98401C0D909AF8000050B173
:102210002528EED1002100220791089209910A9207
:102220000B910C9204E00D9800F0A2BE41F0010168
:102230001AF8010F2028F9D023280CD02B2804D01D
:102240002D2805D0302809D00BE041F00201EFE73E
:1022500041F00401ECE741F00801E9E741F0100129
:10226000E6E72A280FD1D9F8002052F8040BC9F864
:10227000002000280F9003D540420F9041F0040148
:102280000AF1010A14E00F92DFF824380AE00F98EF
:10229000984205DA00EB800402EB4402303A0F92D8
:1022A0000AF1010A9AF80020A2F130000A28EED3C0
:1022B0009AF800002E2803D04FF0FF320E9229E04A
:1022C0001AF8010F2A2809D1D9F8000050F8042B78
:1022D000C9F800000E920AF1010A1BE02D280CBF7C
:1022E0000AF1010A002000220E92DFF8C4470BE039
:1022F00040B90E9AA24205DA02EB820503EB4503D0
:10230000303B0E930AF1010A9AF80030A3F1300233
:102310000A2AEDD3ADF84010DFF89807784400F2B0
:1023200094709AF8001000F03FFF08B11AF8010B02
:102330008DF842009DF84200682805D19AF8000007
:1023400068280CD1622106E06C2804BF9AF80000CE
:102350006C2804D171218DF842100AF1010A12A8EB
:1023600006901AF801BBBBF125012CD01C3900F0F6
:10237000D081091F022940F2CC81133900F0218558
:10238000093900F0C681891E00F0B685491E00F0AB
:102390006385491E022940F2BC81091F00F05C855B
:1023A000491F00F02881491E00F00B85491E00F0EE
:1023B000D080C91E0DD0891E00F00385C91E00F013
:1023C000008500F0A4BD25238DF84830012100F0E0
:1023D000A9BDD9F8000050F8044BC9F80000002C42
:1023E000059440F0A3802B994878002800F099804C
:1023F0004FF0FF340FF6803000F0E2FE201A40F07C
:10240000B58500F090BD6D1E40F0A7853096079D04
:1024100012AF75B1309E17F8012B02A9304600F0BB
:1024200071FE002801D46D1EF5D10028309640F0D1
:102430009D850A9D3020002D8DF804000CDD309E16
:10244000012301AA02A9304600F06CFE002840F0EA
:102450008D856D1EF4D13096059F089D75B1309E17
:1024600017F8012B02A9304600F04CFE002801D4D9
:102470006D1EF5D10028309640F078850B9D3020F8
:10248000002D8DF804000CDD309E012301AA02A965
:10249000304600F047FE002840F068856D1EF4D1FC
:1024A000309605980899099D471875B1309E17F820
:1024B000012B02A9304600F025FE002801D46D1E34
:1024C000F5D10028309640F051850C9D3020002D2C
:1024D0008DF804000CDD309E012301AA02A93046CC
:1024E00000F020FE002840F041856D1EF4D13096AA
:1024F0009DF8400041077FF588AE2020002C8DF824
:1025000004007FF782AE309D012301AA02A928466C
:1025100000F008FE002840F02985641EF4D13095B3
:1025200073E60FF66040059000F0FDBC0E9D002D97
:1025300004D5204600F064FE044607E02A46204603
:1025400000F07AFE002814BF041B2C46089400F00B
:10255000EABCD9F8001051F8040BC9F8001020F0BB
:102560000004002121F0FF3512ABCDE902450593AF
:10257000DDE9022306993C2413B90AB90E9898B1F3
:1025800002F00F053035641EEEB23A2EA8BF273593
:10259000120942EA03721B090D5508BF002A03D035
:1025A00005980D19A842EBD308190590C4F13C0217
:1025B0000E98089282420ADABDF84010821A4FF64D
:1025C000EF7001400A92ADF8401000F0ACBC00285A
:1025D00040F1A9849DF8400000F01400102840F05C
:1025E000A2840F9B07990A985B1A1B1A9A1A002A51
:1025F00040F39984E3E32B99487820B14FF0FF34FE
:102600000FF65030F8E69DF84200622861D0682845
:1026100017D06A283FD06C2806D0712847D074287C
:102620002CD07A281DD064E0D9F8001051F8040BA2
:10263000C9F80010002868D14FF0FF340FF62C3095
:10264000DAE6D9F8001051F8040BC9F8001020B9E7
:102650004FF0FF340FF61430CEE60D99018000F0F4
:1026600062BCD9F8001051F8040BC9F8001000281A
:102670004BD14FF0FF340FF6F420BDE6D9F800102F
:1026800051F8040BC9F8001000283ED14FF0FF3478
:102690000FF6D820B0E6D9F8001051F8040BC9F8AD
:1026A000001080B94FF0FF340FF6C020A4E6D9F82F
:1026B000001051F8040BC9F8001020B94FF0FF3496
:1026C0000FF6A82098E60D9AD317C0E9002300F072
:1026D0002ABCD9F8001051F8040BC9F8001020B931
:1026E0004FF0FF340FF6842086E60D99017000F05C
:1026F0001ABCD9F8001051F8040BC9F8001020B921
:102700004FF0FF340FF6642076E60D99016000F07B
:102710000ABCD9F80020D21D22F00702C9F8002017
:10272000D2E900010832C9F80020CDE90201C80F42
:1027300002D007982D210AE0BDF84000810702D59C
:1027400007982B2103E0C00705D50798202112AA7E
:102750001154401C079012A807994BF0200243180F
:10276000DDE90201CDE92C01612A059321AC0BD0F2
:102770000E98002802D506200E9005E001BF4BF010
:102780002000672801210E91DDE902014800401573
:10279000401C0A460DD109030BD0ABF161050320A3
:1027A0001A2D089002D20FF6E0110DE00FF6DC11A1
:1027B0000AE070B912030CD1ABF1610503201A2DA8
:1027C00008901AD30FF6CC110322184600F060FDD2
:1027D000A9E3DDE90201CDE92E01DDE92E2323F095
:1027E0000047B7F5801F22F000060DD20022002F0F
:1027F00008BF002E009203D116E00FF69411E3E714
:102800006A4600F099FD0FE0DFF8D808DFF8D81825
:1028100000EB17500090DDE92E234FF0FF301940F8
:10282000DFF8C87810403943CDE902014BF02000B1
:1028300061280DD1059830210170821CBBF1610F18
:1028400005920CBF7821582141700798801C079091
:10285000DDE9020120F0000231F0004308BF002A48
:1028600002D10026002567E14BF02008B8F1610F86
:1028700040F0B4800E98002847BF21210191401CF0
:102880000190019FDDE92C017F1C00220023DDE97E
:10289000024500F089FD00998DF8842038BF85F04D
:1028A0000045091F002F00910DF1850653DD2046DC
:1028B00029460022002300F08FFD4CD24800400D35
:1028C00000F11C0312D0002B10DD40F2FF70834298
:1028D00006DBDFF81C1805F000421143002011E070
:1028E0006FF31E5141EA035120460BE024F0000033
:1028F00035F0004108BF00280FBF29461C22294699
:1029000000F082FD04460D4600F000FEFF1F002F80
:10291000804609DD00F001FE02460B4620462946AE
:1029200000F002FE04460D46F01D0721B8F1000F2D
:102930000CDD491E5EBF08F00F0200F8012D4FEAC2
:102940002818F3D502E0002200F8012D491EFAD51F
:10295000C61D002FABDC0DF18500361A01988642AA
:10296000D8BF304600280DF1850430D4B04206DAD5
:102970000DF185010A5C082AA8BF0F2100DA0021A9
:10298000024621AB134400E0401E13F80159521EC9
:102990008D42F9D00F2904D10DF185018B5C5B1CB0
:1029A0008B54002A04D50099091D21AC401C0091CC
:1029B000411E0CD46218ABF13A0613783033DDB205
:1029C0003A2DA8BFF318491E02F80139F5D50E9922
:1029D000002940F1AF80421E0E92ABE00099DFF873
:1029E000142747F29750414391FBF2F2DDE92C4561
:1029F000009225F00045D2F1070204DD2046294669
:102A000000F04DFB0BE052420020DFF8EC1600F026
:102A100046FB02460B462046294600F08EFD044642
:102A2000B8F1660F0E9806BF009F0A3706273F18B9
:102A3000142FC8BF142730200D468DF884000DF1E7
:102A40008506002F38DD2046294600F07FFD01462F
:102A50000A4606F1080304200A26B2FBF6F606EB46
:102A6000860EA2EB4E02303203F8012C0A22B6FB8E
:102A7000F2F202EB820EA6EB4E063036401E03F851
:102A8000026DE9D1083F002F03F10806D9DD0846A1
:102A900000F063FD02460B462046294600F044FD47
:102AA0000022DFF8583600F05FFD04460D46CAE705
:102AB000CBCCCC0CDC3E00000DF18500361A0DF1BC
:102AC000850404E00098401E761E0090641C207867
:102AD0003028F7D0B8F1660F02D10099491C04E004
:102AE000B8F1650F0CBF012100210E98081886422D
:102AF000B8BF701E00281DD4B04204DA215C34290E
:102B0000C8BF392100DC30210246631E9D1800E059
:102B1000401E15F80169521E8E42F9D0392902D1A2
:102B2000A15C491CA154002A04D50099491C1C46EB
:102B3000401C00910646009D00F020FD406A077889
:102B4000DDF8388030B2002802DC01260FF248643C
:102B50004BF02000662808BF6D1C16D0672846D1B0
:102B600028B210F1040F48DB404546DA9DF84000DA
:102B70006D1C010703D430B24045B8BF804628B26F
:102B8000B8EB000848BF4FF000080FFA85FBBBF117
:102B9000000F00F3B5800898411C08913022059978
:102BA0000A54B8F1000F03DC9DF84000010704D57A
:102BB0000898411C089105990F5418EB0B0FB8BFEA
:102BC000C8F100052DB268420B90A84432B290457E
:102BD000B8BF4646059B089836B20996324621464C
:102BE000184400F055FBA8EB06000C90D2E0BBF1B6
:102BF000610F17D14FF0700B19E030B2404504DA85
:102C00009DF840100A0758BF8046B8F1010848BF38
:102C10004FF00008BBF1670F14BF4FF0450B4FF0AA
:102C2000650B04E0BBF1410F08BF4FF0500B089853
:102C3000411C0891B8F1000F059914F8012B0A54B2
:102C400003DC9DF8400001071AD50898411C089143
:102C5000B8F1000F05990F5412DD761E30B2804591
:102C60000598089BB8BF464632B22146184400F08A
:102C70000FFB089936B271180891A8EB06000B906B
:102C800005980899084429B2002980F800B003D4B7
:102C90002B224270821C04E02D2242700D46821CC1
:102CA0006D4200212CAB28460AE004460A2094FB22
:102CB000F0F000EB8005A4EB450403F8014B491C40
:102CC00000B20028F1DC012906DC4BF02000652869
:102CD00004BF302002F8010B00292CAB08D13020B2
:102CE00002F8010B06E0491E585C303002F8010B77
:102CF0000029F8DC059908980844121A099249E05D
:102D000030B229B288421CDA0598089B32B22146BB
:102D1000184400F0BDFA089936B27118ABEB0606FC
:102D2000B8F1000F08910B9603DC9DF840000207F4
:102D300004D5059847540999491C0991CDF830806C
:102D400028E00598089B2AB22146184400F0A0FA12
:102D50000898761B5844B8F1000F089003DC9DF8E2
:102D600040100A0703D5411C089105990F5430B251
:102D700080450598089BB8BF464632B204EB0B016C
:102D8000184400F085FA089836B230180890A8EB7D
:102D900006000B909DF8400000F01400102840F051
:102DA000C280079A08990B988A18099982180C987A
:102DB0008A1882180F98824280F2B580821A0A928D
:102DC000B1E09DF84200622808D068280ED06A2839
:102DD00014D06C281FD0712810D01CE0D9F8001036
:102DE00051F8040BC9F80010C0B21AE0D9F800106D
:102DF00051F8040BC9F8001080B212E0D9F8002095
:102E0000D21D22F00702C9F80020D2E900010832E1
:102E1000C9F8002006E0D9F8001051F8040BC9F8F1
:102E200000100021CDE902019DF8400001075AD5AC
:102E3000DDE90223002B08BF002A54D04BF020000C
:102E4000782850D1079812A930220A54401C431CFC
:102E5000079301F800B046E09DF84200622808D0D0
:102E600068280ED06A2814D06C281FD0712810D082
:102E70001CE0D9F8001051F8040BC9F8001040B25A
:102E80001AE0D9F8001051F8040BC9F8001000B28C
:102E900012E0D9F80020D21D22F00702C9F8002064
:102EA000D2E900010832C9F8002006E0D9F8001084
:102EB00051F8040BC9F80010C117CDE9020100292F
:102EC00002D507982D210AE0BDF84000810702D500
:102ED00007982B2103E0C00705D50798202112AAE7
:102EE0001154401C079012A807990144059102A8AB
:102EF000594600F04FF816E001200790D9F800007D
:102F000050F8041BC9F800008DF848100BE025218B
:102F10000122BBF1000F8DF84810079203D08DF805
:102F200049B0022107910F9A07980A990C9C121A2E
:102F30000898521A0B99121A0998521A121A9DF8E7
:102F40004000141B41073FF562AA2020002C8DF899
:102F500004007FF75CAA309E2546012301AA02A93E
:102F6000304600F0DFF800283FF44DAA4FF0FF3064
:102F700031B0BDE8F08F00007072696E74665F73E7
:102F80003A2062616420257320617267756D656EF9
:102F9000740000002DE9FC4307466F293E6908BF15
:102FA000082405D041F02000782814BF0A241024FA
:102FB0003C25D7E90023642918BF69299046994622
:102FC00005D1002B03D5D8F1000869EB4909B9F107
:102FD000000F08BFB8F1000F0CD1386B50B9082CA6
:102FE00039D197F83800010735D530203B2586F8D0
:102FF0003B0030E08DF80010404649462246E3177A
:1030000000F0C0FA3032D0B26D1E3A28019504DBD0
:103010009DF80000A0F151018A18725540464946BA
:103020002246E31700F0AEFA80465FEA010908BFC6
:10303000B8F1000F03D0F86871198842DCD3082C6E
:1030400009D197F83800010705D5705D302802D006
:103050006D1E30207055C5F13C02BA617119F960DE
:10306000386B824208DA821A3A624FF6EF70398F73
:1030700001403987BDE8F38300280ED597F8380062
:1030800000F01400102808D17B6B7969386A5B1A4C
:103090001B1A9A1A002AC8BF3A62BDE8F3832DE9C9
:1030A000D04306460F4614464FF00008DFF8509014
:1030B00012E0E00707D542464B463046394600F05D
:1030C00053FA06460F464046494642464B4600F0F4
:1030D0004BFA641080468946002CEAD130463946C6
:1030E000BDE8D08302FCFFFFFFFF0F800000E03F40
:1030F0000000F07FA08601000000F03F84D79741D8
:103100000000244010B503460C461146A0689847BD
:10311000A06020B1E06A401CE062002010BD4FF0CA
:10312000FF3010BDF8B505460E4617461C46002078
:103130005CB117F8011BB068A847B06030B1F06A05
:10314000401CF0620020641EF3D1F2BD4FF0FF304E
:10315000F2BD00007072696E74665F733A20256E6E
:1031600020646973616C6C6F776564007072696E5E
:1031700074663A2062616420256E20617267756D05
:10318000656E7400000000006E616E004E414E00DE
:10319000696E6600494E460030007047FEE7FEE764
:1031A000FEE7704770477047C9B202788A421AB189
:1031B0001CBF10F8012FF9E718BF002070472E0040
:1031C00080B500B906A005490B681BB12222002179
:1031D000984701E000F0EEFA222002BD28400020CE
:1031E000636F6E73747261696E742068616E646C73
:1031F00065723A20626164206D6573736167650072
:1032000000F10103810704D010F8011B820781B18E
:10321000FAD10268A2F10131914311F0803104BF6B
:1032200050F8042FF6E709BAB1FA81F100EBD100AA
:10323000401CC01A70470000C9B2830706D0521E56
:1032400022D310F8013B9942F7D11FE0083A13D37B
:1032500002F1040241EA012141EA014150F8043B34
:10326000121F21BF4B40A3F1013C2CEA030C1CF0C0
:10327000803FF3D0C9B2001F083210F8013B521E44
:1032800028BF91EA030FF8D818BF0120401E7047ED
:1032900062B38B0708D0521E11F8013B00F8013BC6
:1032A00000F024808B07F6D1830740F0208000BF18
:1032B000103A07D330B4B1E83810103AA0E838100B
:1032C000F9D230BC530724BFB1E80810A0E80810B9
:1032D00044BF51F8043B40F8043BD20724BF31F807
:1032E000022B20F8022B44BF0B7803707047121F8B
:1032F00017D35B0009D151F8043B20F8023B1B0CAB
:10330000121F20F8023BF6D20BE051F8043B00F804
:10331000013B1B0A20F8023B1B0C121F00F8013B6B
:10332000F3D238BF121D521E24BF11F8013B00F822
:10333000013BF8D87047000010B5144600F002F8C1
:10334000226010BDC1F30A5343B14A0012F5001FB9
:1033500028D2A3F2FE32A1EB0251704750EA410C91
:1033600020D001F0004C31EA0C01B1FA81F204BF27
:10337000B0FA80F3D2180B3AB2F120032CBF00FA56
:1033800003F1914041EA0C013EBFC2F1200C20FA4A
:103390000CF319439040524240F2FD33D21A01EB34
:1033A00003517047002270474FF4001C1CEB410F83
:1033B00094BF1CEB430F09E041EA030C50EA4C0CAC
:1033C00052EA0C0C03D2994208BF9042704714BFD6
:1033D0008B428242704700004FF4001C1CEB410FEF
:1033E00094BF1CEB430F09E041EA030C50EA4C0C7C
:1033F00052EA0C0C03D28B4208BF8242704714BFC2
:10340000994290427047000041EC100B104600B505
:1034100000F004F851EC100B00BD0000020030EE8B
:10342000101B40F2FF7C37D41CEA115313D06345C4
:103430006BD09B18634504D201EB025120EE101BA8
:10344000704701F0004141EA0C51002041EC100BA3
:10345000AFF30080704710EE100B50EA410054D0DB
:10346000B2F57F7F08D202EB5C010905002041EC38
:10347000110B20EE010B70474FF0FE41002341EC91
:10348000113B20EE010BB2F57E7230EE101B4FEABD
:10349000410342EB5353CDE752421CEA115316D07D
:1034A000634532D09A4204D2A1EB025120EE101BA8
:1034B00070475B1ED21AA1EB035120EE101B372A76
:1034C0000CD3002001F0004141EC100BC0E710EEDE
:1034D000100B50EA410018D0372AF2D2C2EB5C023E
:1034E0001105002041EC110BF1EE100A20F01F0134
:1034F00021F4F851E1EE101A20EE010BF1EE101A52
:10350000E1EE100A11F0080FA2D1704741EC100B48
:10351000BDEEC00B10EE100A704700EE100AB8EEB8
:10352000C00B51EC100B704741EC100B43EC112B0E
:1035300030EE410B51EC100B704741EC100B43EC9B
:10354000112B80EE010B51EC100B704741EC100B6E
:10355000BCEEC00B10EE100A704700EE100AB8EE79
:10356000400B51EC100B704741EC100B43EC112B4E
:1035700020EE010B51EC100B704700000048704723
:103580000C000020BBBBE1B1B2F5803F80F07E8033
:10359000022A1ED98C46B1FBF2F102FB11C31B04B7
:1035A00043EA1043B3FBF2FC02FB1C3380B240EA57
:1035B0000343B3FBF2F002FB103240EA0C4000235D
:1035C0007047022A05D98446B0FBF2F002FB10C214
:1035D00070474AB105D100F0010249085FEA3000A6
:1035E000704700220023704700F0E8B80B0002008B
:1035F000002100207047904271EB030CF6D3B3F525
:10360000803F2FD2F0B5B3FA83F7B1FA81F4A7F176
:103610000F0E3D1B5340CEF1200602FA0EF2F3418D
:103620005340B5F10F0746D80F3C2C444140C4F13C
:103630002006A040F1414140B1FBF3F603FB161117
:10364000A2FB0645001BA94102D2761E80185941F3
:1036500080EA010221FA0EF362FA0EF200215A40CA
:103660003046F0BD30B4B1FBF3FC03FB1C11A2FBF0
:103670000C45001BA94103D2ACF1010C8018594143
:1036800030BC02460B46604600217047B2F1807F95
:1036900065D3F0B5B2FA82F7B1FA81F4C7F10F063B
:1036A0003D1B22FA06F307F1110EF24120355A4074
:1036B000B5F10F07B8D94140C4F12006A040F1414F
:1036C0004140B1FBF3FC03FB1C11A2FB0C45001BAA
:1036D000A94103D2BCF1010C801859410F2F12D31C
:1036E0000F3FC90341EA5041B1FBF3F603FB16114A
:1036F000A2FB0645D4EBC030A94102D2761E801849
:10370000594146EACC3C07B34140C7F12006B840D6
:10371000F1414140B1FBF3F603FB1611A2FB064554
:10372000001BA94102D2761E8018594180EA01028D
:1037300021FA0EF3C7F1200462FA0EF20CFA07F038
:103740005A402CFA04F13043F0BD80EA010221FA1C
:103750000EF3002162FA0EF260465A40F0BD8C462C
:10376000B1FBF2F102FB11C31B0243EA1063B3FB8E
:10377000F2FC02FB1C331B024CEA002043EA1063FC
:10378000B3FBF2FC02FB1C331B024CEA002043EAB1
:103790001063B3FBF2FC02FB1C331B024CEA00205B
:1037A00043EA1063B3FBF2FC02FB1C324CEA00203C
:1037B00000237047012000F003B8000070470000AC
:1037C00080B5AFF30080024A11001820ABBEFBE7C2
:1037D0002600020010B50400002C01D1012037E0C2
:1037E000A0690028FFD1D4F88400002805D100206A
:1037F00084F88000200000F0EBFB2420C4F8840053
:10380000206800684008400021680860200000F03F
:1038100020F8012801D101201AE0A06A002802D076
:10382000200000F0ADFA2068406830F49040216834
:1038300048602068806830F02A002168886020682D
:10384000006850F0010021680860200000F005FBCE
:1038500010BD70B586B004000025DFF82C17206875
:103860008842FFD0A2682069024360690243E06990
:10387000024320680368DFF8140703401A432068F6
:1038800002602068426832F44052E06802432068D7
:103890004260A2692068884201D0206A0243206801
:1038A0008368DFF8EC0603401A43206882602068D2
:1038B000C26A12091201606A02432068C26220686B
:1038C000DFF8D02690421FD1DFF8CC06006810F058
:1038D000380000280AD008280AD010280AD0182852
:1038E0000AD020280AD028280AD00BE0012024E1A1
:1038F000042022E1082020E110201EE120201CE10C
:1039000040201AE1802018E12068DFF890269042DC
:103910001DD1DFF88406006810F00700002808D0E9
:1039200002280AD007D304280BD008D305280AD0D0
:103930000BE0002001E10420FFE00820FDE0102062
:10394000FBE02020F9E04020F7E08020F5E020684F
:10395000DFF84C2690421DD1DFF83C06006810F0DD
:103960000700002808D002280AD007D304280BD06B
:1039700008D305280AD00BE00020DEE00420DCE0BC
:103980000820DAE01020D8E02020D6E04020D4E063
:103990008020D2E02068DFF80C2690421DD1DFF8AD
:1039A000F805006810F00700002808D002280AD0A7
:1039B00007D304280BD008D305280AD00BE0002039
:1039C000BBE00420B9E00820B7E01020B5E02020DB
:1039D000B3E04020B1E08020AFE02068DFF8C825E8
:1039E00090421DD1DFF8B005006810F007000028F4
:1039F00008D002280AD007D304280BD008D3052802
:103A00000AD00BE0002098E0042096E0082094E023
:103A1000102092E0202090E040208EE080208CE07A
:103A20002068DFF8882590421FD1DFF86C05006818
:103A300010F0380000280AD008280AD010280AD030
:103A400018280AD020280AD028280AD00BE0012004
:103A500073E0042071E008206FE010206DE020206A
:103A60006BE0402069E0802067E02068DFF84025B7
:103A700090421DD1DFF82005006810F007000028F3
:103A800008D002280AD007D304280BD008D3052871
:103A90000AD00BE0002050E004204EE008204CE06B
:103AA00010204AE0202048E0402046E0802044E00A
:103AB0002068DFF8002590421DD1DFF8DC040068A3
:103AC00010F00700002808D002280AD007D30428E5
:103AD0000BD008D305280AD00BE000202DE00420ED
:103AE0002BE0082029E0102027E0202025E04020BE
:103AF00023E0802021E0206888421DD1DFF8B8044F
:103B0000006810F00700002808D002280AD007D368
:103B100004280BD008D305280AD00BE002200CE0C3
:103B200004200AE0082008E0102006E0202004E03D
:103B3000402002E0802000E0802022688A4263D199
:103B4000C0B202280AD004280BD008280ED01028B2
:103B500011D020281ED040281FD021E0FDF7BCF84E
:103B600020E003A8FDF7C8F804981BE06846FDF7BD
:103B7000CDF9019816E0DFF844140868800606D5F0
:103B8000DFF83C040968C1F3C101C84001E0DFF877
:103B9000300407E0DFF82C0404E04FF4004001E0BB
:103BA00000200125002800F0DC80DFF81C34616A69
:103BB00033F81110B0FBF1F2666803214E43B242B4
:103BC00005D366684FF480514E43964201D20125D9
:103BD000C7E0616A33F81110B0FBF1F24FF4807363
:103BE000606840080021E3FB020162680023FFF7E0
:103BF000C9FCB0F54071DFF8D423914202D22168AC
:103C0000C860AEE00125ACE0E169B1F5004F57D1E5
:103C1000C0B200280CD001280DD004280ED00828EE
:103C200011D0102814D0202821D0402822D024E000
:103C3000FDF7F3FD23E0FDF7FDFD20E003A8FDF710
:103C40005BF804981BE06846FDF760F9019816E000
:103C5000DFF868130868800606D5DFF86403096892
:103C6000C1F3C101C84001E0DFF8540307E0DFF809
:103C7000540304E04FF4004001E000200125002837
:103C80006FD0DFF84413626A31F81210B0FBF1F024
:103C90006168490811EB40016068B1FBF0F080B247
:103CA0004FF6F071B0F110028A4207D20140C0F322
:103CB0004200014389B22068C16052E0012550E012
:103CC000C0B200280CD001280DD004280ED008283E
:103CD00011D0102814D0202821D0402822D024E050
:103CE000FDF79BFD23E0FDF7A5FD20E003A8FDF710
:103CF00003F804981BE06846FDF708F9019816E000
:103D0000DFF8B8120868800606D5DFF8B402096843
:103D1000C1F3C101C84001E0DFF8A40207E0DFF809
:103D2000A40204E04FF4004001E000200125002837
:103D300017D0DFF89412626A31F81210B0FBF1F07C
:103D4000616810EB51006168B0FBF1F080B2B0F136
:103D500010014FF6F072914202D22168C86000E073
:103D600001250120A4F86A000120A4F868000020C1
:103D70002067002060672800C0B206B070BD000058
:103D800090F82810C90707D501684A6832F4003254
:103D9000C16A0A4301684A6090F82810890707D56C
:103DA00001684A6832F48032016B0A4301684A6054
:103DB00090F82810490707D501684A6832F4802234
:103DC000416B0A4301684A6090F82810090707D53B
:103DD00001684A6832F40042816B0A4301684A6014
:103DE00090F82810C90607D501688A6832F4805215
:103DF000C16B0A4301688A6090F82810890607D5CC
:103E000001688A6832F40052016C0A4301688A60D2
:103E100090F82810490613D501684A6832F48012D8
:103E2000416C0A4301684A60416CB1F5801F07D1BB
:103E300001684A6832F4C002816C0A4301684A6032
:103E400090F82810090607D501684A6832F4002264
:103E5000C16C0A4300684260704738B50400002016
:103E6000C4F88C00FDF77EFA0500206800680007A2
:103E70000DD57FF07E4000902B0000225FF40011F2
:103E8000200000F023F8002801D003201DE0206866
:103E9000006840070DD57FF07E4000902B00002287
:103EA0005FF48001200000F011F8002801D0032009
:103EB0000BE02020C4F884002020C4F888000020F3
:103EC000E066002084F88000002032BD2DE9F0413A
:103ED00005000E0090461F00069C2868C06930400F
:103EE000B04201D1012000E000204146C9B2884221
:103EF00046D114F1010FF0D0FDF734FAC01B844213
:103F000001D3002C16D12868006830F4D0702968DD
:103F10000860286880684008400029688860202080
:103F2000C5F884002020C5F88800002085F88000AE
:103F3000032026E0286800684007CED52868C069BD
:103F40000005CAD54FF40060296808622868006837
:103F500030F4D07029680860286880684008400004
:103F6000296888602020C5F884002020C5F88800D2
:103F70002020C5F88C00002085F88000032000E098
:103F80000020BDE8F0810000000C0058F369FFCF6D
:103F9000FFF4FF1100100140544402580044004057
:103FA00000480040004C0040005000400014014018
:103FB00000780040007C00405844025800440258F9
:103FC0000090D00300093D008068000800FD0F004C
:103FD0007047000080B500F082F800F0F1F800F0C2
:103FE00057F801BD80B50100C9B2002902D1DFF840
:103FF000500530E00100C9B2012901D100202AE0BA
:104000000100C9B2022902D1DFF8380523E001001E
:10401000C9B2032901D100201DE00100C9B2042961
:1040200001D1002017E00100C9B2052901D100200B
:1040300011E00100C9B2062901D100200BE0C0B295
:10404000072801D1002006E04FF48E71DFF8F80454
:1040500000F044FB002002BD70B50D001600C0B298
:10406000FFF7C0FF0400002C0AD0E069002801D04F
:10407000E0698047320092B22900200000F055F933
:1040800070BD02B501226946C0B2FFF7E5FF01BD70
:1040900080B586B0DFF8BC04016851F00201016010
:1040A000006810F0020000900098012002900020AB
:1040B0000390032004900420019001A9DFF89804E4
:1040C00000F0BEFB07B000BD0420DFF890140860CC
:1040D00070475FF48020DFF8841408607047DFF8D1
:1040E0006004DFF868140160DFF874144160DFF8E1
:1040F000741481604FF480618181C1810022028249
:10410000002242820022C2820022028300224283D5
:10411000002282820022C2610022026200224262E8
:10412000002280F82820DFF81C04DFF82424026035
:10413000DFF834244260DFF8342482608181C18159
:1041400000210182002141820021C18200210183DE
:104150000021418300218182DFF81414C161DFF85E
:1041600014140162DFF810144162002180F8281055
:104170007047F8B5A4B006000F0014001D00684693
:10418000902100F087FC009601970020029000200B
:1041900003900494002006900595002007900020CD
:1041A000089000200A906846FFF714FB002805D00D
:1041B00040F22631DFF8900300F090FA25B0F0BD10
:1041C00078B5B5B0012006900020249006A8FCF731
:1041D00063F8DFF88043206850F001002060206819
:1041E00010F0010005900598206850F00100206053
:1041F000206810F0010005900598DFF88003016841
:1042000051F010010160006810F010000590059851
:104210004FF40070009002200190012002900320D2
:10422000039007200490DFF858636946300000F0DF
:1042300007FB4FF480650095072004906946300025
:1042400000F0FEFA002204212520FDF74CFF252076
:10425000FDF759FFBD4E0C2300225FF4E131300021
:10426000FFF787FFDFF81C03016851F04001016090
:10427000DFF81403016851F008010160306850F064
:1042800020003060206850F002002060206810F0AC
:10429000020005900598206850F002002060206818
:1042A00010F0020005900598B848016851F480218B
:1042B0000160006810F480200590059800950220A8
:1042C0000190012002900320039007200490A24C4B
:1042D0006946200000F0B4FA4FF400600090072017
:1042E00004906946200000F0ABFA03220421272045
:1042F000FDF7F9FE2720FDF706FF954C0C23002261
:104300004FF416512000FFF734FFA148016851F027
:10431000400101609F48016851F008010160206878
:1043200050F02000206036B070BDF8B4002335E0B6
:10433000BDF800408589AC4209D104682468240690
:1043400005D40468246854F0800405682C600125B5
:1043500085F31088848AADF80040002484F3108827
:10436000BDF800608789BE42E2D21E00B6B28E5D03
:104370004768B0F810C007F80C6085F31088058A0C
:104380006D1C05828689ADB2B54201D30025058238
:10439000858A6D1C858284F310885B1C1C001500C7
:1043A000A4B2ADB2AC42D2D30168096851F0800129
:1043B00000680160F1BC704770B504002068C569F1
:1043C0002068066820688068A8061BD52068416AB6
:1043D000A068E28A8154E08A401CE082E28980B2CF
:1043E000904201D30020E082608BE289904202D2A9
:1043F000608B401C6083606A002803D00800C0B254
:10440000616A8847280625D5300623D5A08A00286A
:104410000CD12068006830F08000216808602068B6
:10442000006850F040002168086013E0012084F823
:1044300028006068618A405C21688862608A401C4C
:104440006082A18980B2884201D300206082A08A64
:10445000401EA082680624D5700622D5A08A0028B6
:104460000ED12068006830F0400021680860206AA2
:10447000002801D0206A8047002084F8280010E03E
:104480006068618A405C21688862608A401C608242
:10449000A18980B2884201D300206082A08A401E98
:1044A000A0822068006A50F001002168086220683C
:1044B000006A50F00200216808622068006A50F02B
:1044C0000400216808622068006A50F00800216832
:1044D00008622068006A50F01000216808622068B5
:1044E000006A50F04000216808622068006A50F4B9
:1044F0008070216808622068006A50F400702168AA
:1045000008622068006A50F4003021680862206860
:10451000006A50F48010216808622068006A50F038
:1045200020002168086270BD80B50548FFF744FF90
:1045300001BD80B50348FFF73FFF01BD000000004B
:10454000A03F0020CC3F0020C463000800100140C1
:1045500000480040E0440258000402581804025881
:1045600084260020842A0020842E0020843200200B
:10457000C9400008D3400008AD450008F044025887
:10458000000002582010014018100140E844025871
:10459000204800401848004010B5040020000100E9
:1045A000C9B20020FFF76DFD200010BD704700006C
:1045B00080B500F097F800F0E5F8FDF7C9FC00F0D1
:1045C0000BF800F0CEFA00F04DFCFFF703FD00F011
:1045D000FDFD00F0E9FE01BD10B59CB020210022D8
:1045E00001AC200000F042FF4C21002209AC200069
:1045F00000F03CFF00208448016831F004010160B4
:104600000020009081480168490849000160006865
:1046100010F0010000907E48016851F440410160B3
:10462000016811F440410091009901688904FCD5AA
:10463000012009905FF480300A9000200C90002047
:104640001090022012900220139005201490A020B8
:104650001590022016900220189004201790002038
:104660001A900820199000201B9009A8FDF71AF94C
:10467000C0B2002803D09621664800F02FF83F20F2
:104680000190032002900020039008200490402015
:104690000590402006904FF48060079040200890DD
:1046A000042101A8FCF764FEC0B2002803D0B121A8
:1046B000584800F013F85848016851F08001016033
:1046C0005648016851F002010160006810F00200D4
:1046D00000900098FDF76BFC1CB010BD002900D1C4
:1046E0007047FEE7F8B5FDF717FD01208DF80000D3
:1046F0005FF01050019012208DF8080003208DF813
:104700000B0001208DF80F0001208DF80E00002015
:104710008DF80D0000208DF8010000208DF80A00B2
:1047200000208DF8090000208DF80C006846FDF788
:104730000CFD01208DF800005FF0C04001900F20BB
:104740008DF8080003208DF80B0001208DF80F0074
:1047500000208DF80E0000208DF80D0001208DF84E
:10476000010000208DF80A0000208DF809000020CB
:104770008DF80C006846FDF7E8FC0420FDF7D7FC37
:1047800005B000BD30B426490868800312D4BFF3D9
:104790004F8FBFF36F8F0020224A1060BFF34F8FFF
:1047A000BFF36F8F086850F400300860BFF34F8F7D
:1047B000BFF36F8F0868C00324D400201A4A10602A
:1047C000BFF34F8F19480268C2F34E33C2F3C904D6
:1047D00043F6E07010EA431050EA8470144D2860EC
:1047E0002000441E0028F3D11800431E0028EDD1FC
:1047F000BFF34F8F086850F480300860BFF34F8FCD
:10480000BFF36F8F30BC70470C4802582C0400581F
:1048100018480258E864000800440258F44402585A
:1048200014ED00E050EF00E084ED00E080ED00E0EA
:1048300060EF00E080B500F0D9FA01BD7047704725
:10484000F8B402000025DFF8144236E05FF00A0CED
:1048500005E0DFF80C329A42F8D15FF0090C15F050
:104860000303DBB29B001CFA03FC5CEA07072B0086
:104870009B0846F82370236883434E68F60300D5EF
:1048800003432360636883434E68B60300D5034344
:1048900063605FF0B046336883434F68FF0200D522
:1048A00003433360DFF8BC61336883434F68BF0262
:1048B00001D51843030033606D1C0868E8400028E8
:1048C00000F0C9800126086816FA05F31840002890
:1048D000F2D04B68012B08D04B68022B05D04B68F7
:1048E000112B02D04B68122B1CD197685FF0030C80
:1048F0002B00DBB25B001CFA03FC37EA0C07D1F893
:104900000CC02B00DBB25B001CFA03FC5CEA07075F
:1049100097605368AE40B3434E68C6F30016AE408E
:1049200033435360D76803262B00DBB25B0016FAD3
:1049300003F39F43D1F808C02B00DBB25B001CFAE5
:1049400003FC5CEA0707D7604B68022B02D04B6878
:10495000122B1DD12B00DB0802EB83031F6A5FF0D3
:104960000F0C15F00703DBB29B001CFA03FC37EABF
:104970000C07D1F810C015F00703DBB29B001CFA3E
:1049800003FC5CEA07072B00DB0802EB83031F62D2
:1049900017682B00DBB25B009E40B7430E7916F020
:1049A00003062B00DBB25B009E40374317604B6869
:1049B000DB007FF581AF2C4B1E6856F002061E60AF
:1049C0001B6813F002030093009B284E2B009B08EA
:1049D00056F823705FF00F0C15F00303DBB29B0059
:1049E0001CFA03FC37EA0C07214B9A4202D15FF014
:1049F000000C34E71F4B9A4202D15FF0010C2EE706
:104A00001D4B9A4202D15FF0020C28E71B4B9A42E1
:104A100002D15FF0030C22E7194B9A4202D15FF0FA
:104A2000040C1CE7174B9A4202D15FF0050C16E705
:104A3000154B9A4202D15FF0060C10E7134B9A42D5
:104A400002D15FF0070C0AE7114B9A427FF401AFE5
:104A50005FF0080C03E7F1BC7047000080000058CD
:104A60000024025804000058F44402580804005876
:104A7000000002580004025800080258000C0258B6
:104A8000001002580014025800180258001C025866
:104A900000200258002200F01DBD0000DFF83C237A
:104AA0000100C9B252F8311009690300DBB202EB10
:104AB000C3039B88194201D1002100E00121C0B24B
:104AC00002EBC0008079C9B2814201D1012000E02F
:104AD00000207047F8B504002000C0B208281BDA97
:104AE0000026FF27002508E02800C0B2FFF7D6FF08
:104AF000002801D0761C2F006D1C2800C0B20828A9
:104B0000F2DBF6B2012E05D1FFB2E4B2A74201D129
:104B1000012025E0002023E02000C0B208280DD1AC
:104B20000020FFF7BBFF002806D00120FFF7B6FFEB
:104B3000002801D0012013E0002011E0E4B2092C8C
:104B40000DD10120FFF7AAFF002806D00220FFF7B1
:104B5000A5FF002801D0012002E0002000E0002095
:104B6000F2BD80B500F051F800F001F801BD10B5BC
:104B700086B0DFF86C02016851F002010160016843
:104B800011F0020100910099016851F004010160E7
:104B9000016811F0040100910099016851F0400191
:104BA0000160016811F0400100910099016851F025
:104BB00080010160016811F0800100910099016895
:104BC00051F480710160006810F4807000900098CA
:104BD00000200290002003900320049000240EE0A7
:104BE0007E482100C9B200EBC1018988019101A969
:104BF0002200D2B250F83200FFF722FE641C2000DF
:104C0000C0B20828ECDB06B010BD80B575480021A5
:104C100081720021C1720021017300201FE07249DE
:104C200064220300DBB21B010B441A810222030041
:104C3000DBB21B010B441A7100220300DBB21B0123
:104C40000B449A7200220300DBB21B010B44DA72A0
:104C500000220300DBB21B0119440A73401C01004F
:104C6000C9B20A29DBDB06226421032000F02FF8F9
:104C700006226421042000F02AF80622642105207F
:104C800000F025F806226421062000F020F801BD7E
:104C90005449CA7A8854C87A401CC872C87A0A280B
:104CA00001DB0020C87270474E49887ACA7A904268
:104CB00001D100200AE0887A085C8A7A521C8A7244
:104CC0008A7A0A2A01DB00228A72C0B2704710B4C5
:104CD000454B0400E4B224011C4421810100C9B207
:104CE00009011944CA720021C0B2000118440173BD
:104CF00010BC704738B504003B482100C9B2090117
:104D000000EB01052000C0B2FFF7E4FE002846D00A
:104D10002879052802DA052028715EE028790A281A
:104D200003DA2879401C287157E0A87A00280AD1B4
:104D30000120A8722100C9B203204143491C080088
:104D4000C0B2FFF7A5FF2889002846D0E888298946
:104D500088420FD2E888401CE880E8882989884288
:104D60003BD1E4B203204443E41C2000C0B2FFF76F
:104D70008FFF32E0E87A00282FD0287B401C287370
:104D8000287BE97A884228D300202873E4B20320E4
:104D90004443641C2000C0B2FFF77AFF1DE028796D
:104DA000062802DB0520287113E02879002803D0AB
:104DB0002879401E28710CE0A87A012809D100202A
:104DC000A872E4B203204443A41C2000C0B2FFF741
:104DD0005FFF0020E8800020287331BD4065000897
:104DE000E0440258F83F0020803E002010B5002427
:104DF00004E02000C0B2FFF77DFF641C2000C0B2B9
:104E00000A28F6DB10BD0000020012B2002A05D409
:104E10000901DFF84C2300B2115408E00901DFF862
:104E2000442300B210F00F00104400F8041C704737
:104E300080B5411EB1F1807F01D3012011E0401EF9
:104E4000DFF8241308600F215FF0FF30FFF7DCFF6D
:104E50000020DFF8181308600720DFF8141308603B
:104E6000002002BD10B500201BE00C21DFF8042358
:104E70000300DBB24B43134400245C600300DBB24D
:104E80004B43134400249C600300DBB24B431344A8
:104E900000245C7000230400E4B201FB04F15354CD
:104EA000401C0100C9B20429DFDBDFF8CC02006836
:104EB0004FF47A71B0FBF1F0FFF7BAFF0120DFF891
:104EC000BC12087000F097F810BD10B5DFF8B012F2
:104ED0000868002808D00868401E0860002803D130
:104EE0000120DFF8A012087000240AE0DFF8841225
:104EF0002200D2B20C20424301EB020000F020F865
:104F0000641C2000C0B20428F0DBDFF87C020168DA
:104F1000491C016001687FF00042914201D10021EB
:104F20000160FFF78BFCDFF864020178491C017017
:104F300001780A2903DB00210170FFF77BFC10BD1B
:104F4000416800290BD04168491E4160002906D103
:104F5000012141700178012901D1816841607047C8
:104F600010B50200D2B2042A06DBDFF830228949EC
:104F7000894800F0C9FAFEE7012282F310880C226A
:104F80007C4B0400E4B254431C4461600400E4B26E
:104F900054431C44A1600100C9B251431944002488
:104FA0004C700121C0B250431954002080F3108886
:104FB00010BD0100C9B2042901DB002010E00C2162
:104FC0006C4A0300DBB24B4313445B78012B06D1E0
:104FD000C0B24843104400214170012000E000208D
:104FE000704780B500F0A4FA64480078002801D02A
:104FF000FFF76BFF01BD80B594B001A84C21FFF70E
:1050000049FD5FF0804066490A6852F001020A607B
:10501000096811F0010100910099624988420BD0A2
:105020006149884208D06149884205D06049884278
:1050300002D06049884203D14F490A68520802E011
:105040004D490A6852084FF6FF71514BB2FBF3F21B
:105050008A18B0F1804F02D0574B984202D15FF0CE
:10506000FF31FFE7019092B2029204910020059077
:1050700000200390002006908020079001A800F0F7
:1050800063FA002804D04FF40C714248FFF726FB66
:10509000022200211C20FDF726F81C20FDF733F822
:1050A00001A800F08EFA15B000BD10B50020002058
:1050B0005FF08044216911F00201E06810F0020005
:1050C00089B200290BD080B2002808D04FF6FD70BD
:1050D0002061E1680840E060384800688047216945
:1050E00011F00401E06810F0040089B200290BD02F
:1050F00080B2002808D04FF6FB702061E1680840BC
:10510000E0602F4800688047216911F00801E068DD
:1051100010F0080089B200290BD080B2002808D016
:105120004FF6F7702061E1680840E06025480068AC
:105130008047216911F01001E06810F0100089B279
:1051400000290BD080B2002808D04FF6EF70206104
:10515000E1680840E0601C480068804710BD00001E
:1051600000E400E018ED00E014E000E018E000E0EA
:1051700010E000E0703F0020040000202D400020DF
:105180001C4000202C400020204000202E40002009
:1051900040420F008864000844670008BC680008AB
:1051A000E844025800000140000401400040014072
:1051B0000044014000480140000C00400C40002029
:1051C00010400020144000201840002080B500F05E
:1051D00024F800F088F8684840F61471016000680F
:1051E0006649086001BDC9B2002905D162490A6853
:1051F00032EA0000086003E05F490A681043086073
:105200005D4800685D49086070475B490968014274
:1052100001D0012000E00020704780B586B05848DA
:10522000016851F008010160016811F00801059161
:105230000599016851F010010160016811F0100139
:1052400005910599016851F040010160016811F074
:10525000400105910599016851F0800101600168E4
:1052600011F0800105910599016851F48071016088
:10527000006810F48070059005984248016851F468
:1052800080510160006810F480500590059802205C
:10529000019001200290032003900C2004904CF216
:1052A000B370009069463848FFF7CAFA4FF680702D
:1052B000009069463548FFF7C3FA0320009069461D
:1052C0003348FFF7BDFA4FF47F40009069463148FC
:1052D000FFF7B6FA40F2CF60009069462E48FFF71C
:1052E000AFFA07B000BD10B59AB007A84C21FFF780
:1052F000D1FB1C2100226C46200000F0B7F82748A3
:105300000790274808900520009002200190022075
:1053100002900120039002200490022005900020BA
:1053200006900020099000200A9000200B90202079
:105330000C9000200D9000200E9000200F904FF454
:1053400080501090002011900020129000201390A7
:105350000020149000201590002016906A4669469F
:1053600007A800F0F7F9002804D04FF492710D4817
:10537000FFF7B4F91AB010BD08400020001000601B
:10538000E0440258D4440258000C0258001002585D
:1053900000180258001C0258002002580040005219
:1053A000044100522864000880B5012000F00AF88A
:1053B000022000F007F8032000F004F8042000F0B9
:1053C00001F801BD80B50100C9B2012905D1012153
:1053D0004FF48070FFF707FF1BE00100C9B20229FC
:1053E00005D101214FF40070FFF7FDFE11E001002F
:1053F000C9B2032905D101214FF48060FFF7F3FE04
:1054000007E0C0B2042804D101214FF40060FFF787
:10541000EAFE01BD10B50100C9B201290BD14FF45C
:1054200080742000FFF7F1FE002819D00021200031
:10543000FFF7D9FE18E00100C9B2022902D14FF4EA
:105440000074EEE70100C9B2032902D14FF4806471
:10545000E7E7C0B2042802D14FF40064E1E703E0BB
:1054600001212000FFF7BFFE10BD000062F30F22F4
:1054700062F31F42401810F0030308D0C91A1FD36B
:10548000DB0748BF00F8012D28BF20F8022D1300CC
:1054900030B414461546103928BF20E93C00FAD82C
:1054A000490728BF20E90C0048BF40F8042D8900B7
:1054B00028BF20F8022D48BF00F8012D30BC7047EE
:1054C000C91818BF00F8012DCB0728BF00F8012D1F
:1054D0007047000000B500BF13009646944610398F
:1054E00028BFA0E80C50FAD85FEA417C28BF0CC066
:1054F00048BF40F8042BC90728BF20F8022B48BF3B
:1055000000F8012B00BD00000EB4C0B5024603A890
:1055100000210190009101AB0121044878440C3036
:10552000FCF75AFE06BC5DF810FB00BF6D130000CF
:1055300003480168034A127889180160704700BF68
:10554000244000208C00002010B50400002C01D164
:10555000012035E094F83D00002805D1002084F8B2
:105560003C00200000F0F4F8022084F83D00211DEA
:10557000206800F079F8012084F84800012084F8C0
:105580003E00012084F83F00012084F84000012003
:1055900084F84100012084F84200012084F843008F
:1055A000012084F84400012084F84500012084F89B
:1055B0004600012084F84700012084F83D000020C7
:1055C00010BD90F83D10012901D001203CE00221DE
:1055D00080F83D100168DFF8742091421CD001680A
:1055E000B1F1804F18D00168DFF86420914213D0E8
:1055F0000168DFF8602091420ED00168DFF8582082
:10560000914209D00168DFF85420914204D001682A
:10561000DFF84C20914210D101688A68DFF844100D
:105620000A40062A0FD0B2F5803F0CD00168096805
:1056300051F001010068016005E00168096851F05E
:105640000101006801600020704700000000014077
:105650000004004000080040000C0040000401402D
:10566000001800400700010010B40468DFF8C030E3
:10567000984212D0B0F1804F0FD0DFF8B82090429E
:105680000BD0DFF8B420904207D0DFF8B020904272
:1056900003D0DFF8AC20904203D134F070044A68A4
:1056A000144398421ED0B0F1804F1BD0DFF8842005
:1056B000904217D0DFF88020904213D0DFF87C2092
:1056C00090420FD0DFF8782090420BD0DFF87420A2
:1056D000904207D0DFF87020904203D0DFF86C20B2
:1056E000904203D134F44074CA68144334F0800407
:1056F0004A69144304608A68C2620A6882629842F6
:105700000FD0DFF83C2090420BD0DFF838209042D9
:1057100007D0DFF83420904203D0DFF830209042E9
:1057200001D1096901630121416110BC704700008A
:10573000000001400004004000080040000C004050
:105740000004014000400140004401400048014085
:105750007047000070B504000D001600002C01D148
:1057600001202CE094F84500002805D1002084F8A1
:105770004400200000F026F814F10801206800F031
:1057800023F8A2682900206800F070F8E36AA26894
:105790003100606800F09AF82068A16850F8210094
:1057A00050F001002168A26841F822000448016815
:1057B00051F000410160012084F84500002070BDD7
:1057C000004000527047000010B40A6850F82220D0
:1057D000520852000B6840F823208A68082A01D139
:1057E000402300E000234A6813438A681343CA68D1
:1057F00013430A6913434A6913438A691343CA6905
:1058000013430A6A13434A6A13438A6A1343CA6AF0
:1058100013430A6B13434A6B13438A6B13433B4A8C
:1058200052F4801252F4001252F4E0220C6850F844
:10583000244034EA020213430A6840F822300A6B1B
:10584000B2F5801F08D10A68002A05D0036833F436
:1058500080130A6B134303600A68002A03D00268AE
:10586000496B0A430260002010BC704730B400EB63
:1058700082035C6814F040448D690B681D434B68DB
:1058800055EA03158B6855EA0325CB6855EA0345AD
:105890000B695B1E55EA03554B699B1E55EA036570
:1058A0002C4300EB820254600268D2020BD542689E
:1058B00032F470020969491E52EA0152416831F41A
:1058C00070010A434260002030BC704710B4B3F549
:1058D000804F13D150F822400D4B1C400B681C43E5
:1058E0004B6854EA03148B6854EA03248B691C4305
:1058F000C96854EA014440F8224003E07FF0704157
:1059000040F82210002010BC704700007FFB080008
:105910000000F0CF2DE9F04144688568C66807694A
:10592000D0F810C00CEB860CBCF1040C006900EB45
:10593000C60008385FF0000E55E091ED000A091D21
:1059400004EB8E08D8ED000A70EE600A07EB8E08B3
:1059500098ED001A05EB8E08D8ED001A40EE811A7A
:1059600004EB8E08D8ED000A70EE600A0CEB8E088E
:1059700098ED001A60EE810A04EB8E0898ED001A8B
:1059800030EE411A40EE811A04EB8E08D8ED000A81
:1059900070EE600A00EB8E0898ED001A60EE810A46
:1059A00004EB8E0898ED001A30EE411A60EE810A81
:1059B00004EB8E0898ED001A30EE410A40EE801A92
:1059C000C2ED001A121D5B1E04EB8E0898ED010A51
:1059D000D1ED000AB4EE600AF1EE10FA01DB012B02
:1059E000ABDA1EF1010EB6F10108C645ECDB50E062
:1059F00091ED000A091D04EB8E06361FD6ED000A54
:105A000070EE600A07EB8E06361F96ED001A05EB66
:105A10008E06361FD6ED001A40EE811A04EB8E0674
:105A2000361FD6ED000A70EE600A0CEB8E06361FAC
:105A300096ED001A60EE810A04EB8E06361F96ED95
:105A4000001A30EE411A40EE811A04EB8E06361F22
:105A5000D6ED000A70EE600A00EB8E06361F96ED5A
:105A6000001A60EE810A04EB8E06361F96ED001ACE
:105A700030EE411A60EE810A04EB8E06361F96ED79
:105A8000001A30EE410A40EE801AC2ED001A121DD3
:105A90005B1E012BACDABDE8F0812DE9F047089CD4
:105AA000099DDDF828802E0005EB84073F1F05EBDC
:105AB000C40CBCF1080CC64608EB8408B8F1040815
:105AC00042608360C46089465FFA89F9B9F1000FCA
:105AD00004D15FF00009CEF8009009E089465FFA32
