:020000040800F2
:10000000582E00209D0100081B1400084D07000811
:10001000191400085F070008351F000800000000E1
:100020000000000000000000000000004117000870
:10003000CD070008000000001D1400084517000847
:10004000B7010008B7010008B7010008B7010008B0
:10005000B7010008B7010008B7010008B7010008A0
:10006000B7010008B7010008B7010008B701000890
:10007000B7010008B7010008B7010008B701000880
:10008000B7010008B7010008B7010008B701000870
:10009000B7010008B7010008B7010008B701000860
:1000A000B7010008B7010008B7010008B701000850
:1000B000E9180008B7010008B7010008B7010008F7
:1000C000B7010008B7010008B7010008B701000830
:1000D000B7010008611D0008B7010008B70100085A
:1000E000B7010008B7010008B7010008B701000810
:1000F000B7010008B7010008B7010008B701000800
:10010000B7010008B7010008B7010008B7010008EF
:10011000B7010008B7010008B7010008B7010008DF
:10012000B7010008B7010008B7010008B7010008CF
:10013000B7010008B7010008B7010008B7010008BF
:10014000B7010008B7010008B7010008B7010008AF
:10015000B7010008B7010008B70100086D1D0008CD
:10016000B7010008B7010008B7010008B70100088F
:10017000B7010008B7010008B7010008000000003F
:10018000B7010008B7010008DFF80CD000F0CCFA86
:100190000048004795300008582E00200648804748
:1001A00006480047FEE7FEE7FEE7FEE7FEE7FEE75C
:1001B000FEE7FEE7FEE7FEE7951800088901000864
:1001C0002DE9F05F0546002092469B46884606468C
:1001D000814640241BE0284641464746224600F01F
:1001E0001DFA53465A46C01A914110D3114618467B
:1001F000224600F016F82D1A67EB01084F462246FA
:100200000120002100F00DF817EB00094E41201EDF
:10021000A4F10104DFDC484631462A464346BDE8E6
:10022000F09F202A04DB203A00FA02F100207047F8
:100230009140C2F1200320FA03F319439040704724
:10024000202A06DBCB17203A41FA02F043EAE0739A
:1002500006E041FA02F3D040C2F120029140084387
:1002600019467047D2B201E000F8012B491EFBD2BB
:1002700070470022F6E710B513460A4604461946B1
:10028000FFF7F0FF204610BD2DE9FE4F804681EAC2
:100290000300C00F0C46009021F0004123F0004500
:1002A000B8EB0200A94105D24046214690461C46C3
:1002B0000B46024623F00040104347D0270DC7F3FA
:1002C0000A00C3F30A510290401A019040286BDAE9
:1002D000C3F3130040F4801B0098924620B1002322
:1002E000D2EB030A63EB0B0B01985946C0F14002B5
:1002F0005046FFF796FF06460D4650465946019A6E
:10030000FFF79EFF10EB08006141002487EA1152BD
:1003100084EAE7731A4340D0009A62B3019A012A33
:100320004FEA075215DC001B61EB02014FF000425F
:1003300002EA0752CDE90042001C41F58011324625
:100340002B4600F08AF903B0BDE8F08F4046214605
:10035000F9E7001B61EB0201001C41F58013001856
:100360005B412018A2F5001747EB030140EAD57066
:10037000B6196D4111E06D084FEA360645EAC075C1
:100380004FEA0752001B61EB0201001C41F580118E
:1003900049084FEA30000019514132462B4603B05C
:1003A000BDE8F04F00F04AB9009801224000002358
:1003B000D0EB020263EBE073009821464FEAE07451
:1003C000B8EB000061EB0401E9E783F000435BE771
:1003D00081F0004158E72DE9FE4F81EA030404F063
:1003E000004421F0004100944FF0000B23F0004343
:1003F00050EA01045ED052EA03045BD0C3F30A540E
:10040000C1F30A552C44A4F2F3340194A0FB025426
:10041000C1F3130141F48011C3F3130343F48013B8
:1004200001FB024400FB034E840A970A44EA81540C
:1004300047EA8357A4FB076802958D0A05FB0785E9
:100440004FEA932C04FB0C542705029D4FEA0658F3
:1004500047EA1637B5EB08056EEB070C870E920ED0
:1004600047EA811742EA8312A7FB0201B6EB0B01B0
:1004700064EB00042B0D43EA0C335E1844EB1C5074
:10048000DA465146E7FB0201C5F313044FEA0B338A
:1004900043EA14534FEA0432019C43EA0603A4F1F1
:1004A0000C040294009CCDE900B400F0D6F803B02F
:1004B000BDE8F08F00200146F9E72DE9F04D81EA13
:1004C000030404F0004B21F0004514464FF0000AED
:1004D00023F0004150EA050220D054EA01021DD069
:1004E000C5F30A570246C5F31303C1F31300C1F362
:1004F0000A5640F4801543F48013A7EB0608101B3E
:10050000D64608F2FD3873EB050002D308F1010866
:1005100001E092185B41B8F1000F03DA00200146B8
:10052000BDE8F08D00204FF48011064684460EE0B1
:10053000171B73EB050705D3121B63EB050306437B
:100540004CEA010C49084FEA300092185B4150EA2E
:100550000107EDD152EA030012D082EA040083EAD7
:100560000501084305D0101BAB4106D20122002330
:1005700006E000224FF0004302E06FF0010253104A
:100580001AEB06004CEB085110EB0A0041EB0B0193
:10059000BDE8F04D00F052B800F0004230F00040ED
:1005A0000AD0C10D01F56071C0F3160042EA015195
:1005B000C208400711437047002001467047000001
:1005C00030B5041E71F1000404DB4FF000444042DA
:1005D00064EB0101141E73F1000405DB1C464FF0AF
:1005E0000043524263EB0403994208BF904230BD7E
:1005F00030B50B46014600202022012409E021FAF3
:1006000002F59D4205D303FA02F5491B04FA02F5EF
:100610002844151EA2F10102F1DC30BD202A04DBC2
:10062000203A21FA02F00021704721FA02F3D0406B
:10063000C2F12002914008431946704710B5141EBC
:1006400073F1000408DA401C41F1000192185B418B
:100650001A4301D120F0010010BD2DE9F04D924662
:100660009B4611B1B1FA81F202E0B0FA80F2203279
:100670009046FFF7D6FD04460F4640EA0A0041EADD
:100680000B0153465A46084313D0114653EA010062
:1006900019D0C8F140025046FFF7C0FF05460E468C
:1006A000504659464246FFF7BCFD084305D001209D
:1006B00004E020463946BDE8F08D0020054346EAB7
:1006C000E0762C4337430A986305E40AA0EB080060
:1006D0000022FD0A44EA47540A3002D500200146B0
:1006E000E9E7010510196941DDE90845001969418B
:1006F000BDE8F04DA2E7C1F30A52C1F3130140F285
:10070000FF3341F480119A4202DA0020014670471B
:1007100040F233439A42A2F2334202DC5242FFF7E4
:100720007DBFFFF77EBD0000064C074D06E0E06888
:1007300040F0010394E8070098471034AC42F6D328
:10074000FFF726FDE8390008083A00081EF0040FFC
:100750000CBFEFF30880EFF3098000F0EBBCFEE77D
:1007600010B500280FD001280FD002280FD0032881
:100770000FD004280FD005280FD0E72108A000F0E3
:1007800026F8002010BD0F4810BD002010BD00202D
:1007900010BD002010BD002010BD0B4810BD000092
:1007A0002E2E5C2E2E5C557365725C6273705C73CA
:1007B00072635C6273705F756172745F6669666FA5
:1007C0002E630000BC0D0020E815002070470029B2
:1007D00000D0FEE770470000014901200860704723
:1007E000000427422DE9F84F0022DFF89091DFF84E
:1007F0008C8109F108094FF0010E4FF00F0C09F13F
:10080000040A0EFA02F60B683340B34271D14C6809
:10081000022C01D0122C11D1D40800EB84073D6AC0
:100820005407E40E0CFA04FB25EA0B05D1F810B0CE
:100830000BFA04FB4BEA050BC7F820B0076854001D
:100840000325A540AF4391F804B00BF0030B0BFA5E
:1008500004FB4BEA070BC0F800B04F68012F05D02E
:10086000022F03D0112F01D0122F11D18768AF436F
:10087000D1F80CB00BFA04FB4BEA070BC0F808B038
:100880004768B7430E79C6F3001696403E4346606C
:10089000C668AE438D68A5403543C5604C68E4002A
:1008A00065D5374C256845F480452560246804F4F7
:1008B00080440094334C22F003052544D5F8087891
:1008C0009407260F0CFA06F4A7432F4CA04201D13F
:1008D000002424E02D4CA04201D101241FE02C4C27
:1008E000A04201D102241AE02A4CA04202D10324E2
:1008F00015E03CE0284CA04201D104240FE0274C35
:10090000A04201D105240AE0254CA04201D10624D1
:1009100005E0244CA04201D1072400E00824B440A3
:100920003C43C5F80848D8F800409C434D68ED03A7
:1009300000D51C43C8F80040104D2D1D2C689C4369
:100940004E68B60300D51C432C60D9F800409C4388
:100950004D68ED0200D51C43C9F80040DAF80040AC
:100960009C434D68AD0200D51C43CAF80040521CA0
:10097000102AFFF446AFBDE8F88F0000003C0140AC
:1009800044380240003001400000024000040240B0
:1009900000080240000C0240001002400014024017
:1009A00000180240001C02400148806870470000A7
:1009B0002400002002488168027811448160704759
:1009C0002400002010B50B48016841F4007101605B
:1009D000016841F480610160016841F48071016047
:1009E000032000F059F80F2000F006F800F026F878
:1009F000002010BD003C024070B504460D4D4FF480
:100A00007A712878B1FBF0F00B490968B1FBF0F07E
:100A100000F01AFB08B1012070BD102C07D2002293
:100A20002146501E00F018F86C60002070BD0120B7
:100A300070BD000024000020300000207047002816
:100A400009DB00F01F02012191404009800000F104
:100A5000E020C0F800117047F0B40D460D4B1B6844
:100A6000C3F30223C3F10704042C00D90424191D85
:100A7000072901D2002300E0DB1E012606FA04F15B
:100A8000491E294099409E40761E16403143F0BCD5
:100A900001F062BA0CED00E000F00701054A1068B1
:100AA0004FF6FF03184040EA012003490843106055
:100AB000704700000CED00E00000FA052DE9F0475A
:100AC00004460D46002C13D0DFF82491D9F800001D
:100AD000EFB200F00F00A8420CD289F80070D9F8EC
:100AE000000000F00F00A84204D00120BDE8F0870C
:100AF0000120FBE720683F4E810712D5400703D550
:100B0000306840F4E05030602078000703D530684A
:100B100040F4604030603068A16820F0F000084385
:100B200030602078C00731D0324960680839012828
:100B300008D002280BD0032809D0096889070BD4F4
:100B40000120D3E70968890306D40120CEE70968AC
:100B5000890101D40120C9E7316821F00301014373
:100B60003160FFF721FF804641F2883A07E0FFF746
:100B70001BFFA0EB0800504501D90320B6E7306801
:100B8000616800F00C00B0EB810FF0D1D9F80000E3
:100B900000F00F00A84209D989F80070D9F80000C8
:100BA00000F00F00A84201D001209FE72078400705
:100BB00005D53068E16820F4E050084330602078C3
:100BC000000706D53068216920F4604040EAC10082
:100BD000306000F03BF83168074AC1F30311515C03
:100BE000C840064908600F20FFF706FF00207DE798
:100BF000003C024008380240CC31000830000020A0
:100C000001480068704700003000002000B5FFF781
:100C1000F7FF04490968044AC1F38221515CC840C6
:100C200000BD000008380240DC31000800B5FFF7C5
:100C3000E7FF04490968044AC1F34231515CC840E6
:100C400000BD000008380240DC31000810B517482C
:100C5000006810F00C01164816D0164B042912D06B
:100C6000082911D1114C241F216801F03F0221688D
:100C700049020AD52068C0F38810A0FB03010023B5
:100C8000FFF79EFA09E0184610BD21680023C1F362
:100C90008811A1FB0001FFF793FA2168C1F301411C
:100CA000491C4900B0FBF1F010BD000008380240BB
:100CB0000024F40040787D012DE9F84F0446002C13
:100CC00010D02078DC4DC00757D0DB4808300168D1
:100CD000C1F3810101290DD00068C0F38100022811
:100CE00003D00EE00120BDE8F88FD348001D006856
:100CF000400206D5286880033FD5606870BB01209C
:100D0000F1E76068B0F5803F10D0B0F5A02F12D0A9
:100D1000286820F480302860286820F4802028602B
:100D20006068E0B1FFF740FE064614E0286840F432
:100D300080302860F4E7286840F480202860286824
:100D400040F480302860EBE7FFF72EFE801B64281C
:100D500001D90320C7E728688003F5D50DE0FFF728
:100D600023FE064606E0FFF71FFE801B642801D91C
:100D70000320B8E728688003F5D42078AF4F8007B8
:100D80004FF0000849D5AC480830016811F00C0F4D
:100D900009D00068C0F38100022814D1A648001DC4
:100DA000006840020FD42868800704D5E068012855
:100DB00001D0012097E72868216920F0F80040EA77
:100DC000C100286029E0E068B8B101203860FFF771
:100DD000EBFD064606E0FFF7E7FD801B022801D980
:100DE000032080E728688007F5D52868216920F06E
:100DF000F80040EAC10028600FE0C7F80080FFF764
:100E0000D3FD064606E0FFF7CFFD801B022801D97F
:100E1000032068E728688007F5D42078000729D5E3
:100E2000DFF814928648616909F1740989B10121DA
:100E30000160FFF7B9FD064606E0FFF7B5FD801B30
:100E4000022801D903204EE7D9F800008007F4D525
:100E500010E0C0F80080FFF7A7FD064606E0FFF7A8
:100E6000A3FD801B022801D903203CE7D9F800002C
:100E70008007F4D42078400772D50026DFF8B8A1A7
:100E80000AF1400ADAF80000C0000BD4DAF80000DA
:100E900040F08050CAF80000DAF8000000F08050FE
:100EA00000900126DFF89CB1DBF80000C00515D4E6
:100EB000DBF8000040F48070CBF80000FFF774FD11
:100EC000814607E0FFF770FDA0EB0900022801D979
:100ED000032008E7DBF80000C005F3D5DFF858B1C0
:100EE000A0680BF1700B012813D0052818D0DBF88F
:100EF000000020F00100CBF80000DBF8000020F03B
:100F00000400CBF80000A06830B3FFF74DFD814628
:100F10001DE0DBF8000040F00100CBF80000F2E734
:100F2000DBF8000040F00400CBF80000DBF8000024
:100F300040F00100CBF80000E5E7FFF735FDA0EB3E
:100F4000090141F28830814201D90320CBE6DBF868
:100F500000008007F1D512E0FFF726FD81460AE088
:100F600015E0FFF721FDA0EB090141F28830814235
:100F700001D90320B7E6DBF800008007F1D4012E89
:100F800005D1DAF8000020F08050CAF80000A0690E
:100F9000C0B3294908310968C1F38101022949D048
:100FA000022805D0C7F86080FFF7FEFC04463CE04D
:100FB000C7F86080FFF7F8FC064606E0FFF7F4FC90
:100FC000801B022801D903208DE628688001F5D412
:100FD000D4E907010843616AA26A4FF0FF3389012F
:100FE00003EB520241EA0241084394F82C1040EA14
:100FF00001611148001D016001203866FFF7D4FC33
:10100000044607E014E0FFF7CFFC001B022801D9DB
:10101000032068E628688001F5D509E0FFF7C4FCE5
:10102000001B022801D903205DE628688001F5D461
:10103000002058E6012056E60038024000004742F2
:10104000800E47420070004010B5401EB0F1807F16
:1010500001D3012010BD4FF0E02460610F21601723
:1010600000F07AFF0020A06107202061002010BD61
:1010700010B50446002C03D094F83D0010B107E0F1
:10108000012010BD002084F83C00204600F00CF840
:10109000022084F83D00211D206800F071FC012031
:1010A00084F83D00002010BD7047022180F83D10FB
:1010B00001688A6802F00702062A03D00A6842F033
:1010C00001020A60012180F83D100020704770B5D0
:1010D0000446002C04D094F83900002510B106E035
:1010E000012070BD84F83850204600F022F82420FA
:1010F00084F839002068C16821F40051C16020469D
:1011000000F0A4FC2068016921F49041016120688D
:10111000416921F02A0141612068C16841F4005110
:10112000C160E563202084F8390084F83A0000208B
:1011300070BD704730B529490A68002A07DA0A6885
:1011400042F000420A608169891C816130BD234AF6
:10115000083A1268224C2262204A121F127884F840
:1011600024201E4AD21E1278A2621C4A0C32126837
:10117000E2621A4A921E1288228609686163174940
:10118000091D0968A163154910310968E16315A5B6
:1011900000211F4A6B5C536013685B06FCD5491C39
:1011A000C9B22929F6D31B4900230B600A68002A1B
:1011B000FCD002682260426862608268A260C268F5
:1011C000E26002692261426962618269A261C0696A
:1011D000E0610B6008680028FCD030BD2CED00E019
:1011E000141E00200D0A456E7465722048617264F9
:1011F0004661756C745F48616E646C65722C205337
:10120000797374656D2048616C742E0D0A000000BE
:1012100000100140340000202DE9F04786B04F4C0B
:10122000206840F001002060206800F0010000907C
:10123000206840F001002060206800F0010000906C
:10124000464E1436306840F010003060306800F0D0
:101250001000009060150190022702974FF00108DE
:10126000CDF80C804FF00309CDF8109007250595B7
:10127000DFF8ECA001A95046FFF7B4FA2015019061
:10128000059501A95046FFF7ADFA0122002125205E
:10129000FFF7E2FB2520FFF7D2FB324D4FF4E13A96
:1012A0000C2300225146284601F058FE286820F001
:1012B00040002860286820F020002860E86840F09E
:1012C0002000E860206840F040002060206800F0C6
:1012D00040000090206840F004002060206800F08A
:1012E00004000090306840F020003060306800F06A
:1012F00020000090780301900297CDF80C80CDF883
:1013000010900824059401A91748FFF76BFA802074
:101310000190059401A91548FFF764FA06220021FF
:101320004720FFF799FB4720FFF789FB0C2300229A
:1013300051460F4801F012FE286820F04000286056
:10134000286820F02000286009480C30016841F02E
:101350002001016006B0BDE8F0870000303802408F
:101360000000024000100140001802400008024046
:10137000001401402DE9F0410746082F18D24FF024
:1013800000054FF0FF062C46204600F02FF810B164
:101390006D1CEDB22646641CE4B2082CF4D3012D7A
:1013A00004D1BE4202D10120BDE8F0810020FBE75C
:1013B0000BD1002000F01AF828B1012000F016F837
:1013C00008B10120F0E70020EEE7092F01D000204E
:1013D000EAE7012000F00AF828B1022000F006F840
:1013E00008B10120E0E70020DEE70000094951F8DC
:1013F0003020126901EBC0018888024201D100202F
:1014000000E001208979814201D10120704700204C
:10141000704700005C310008FEE77047704700002D
:1014200010B504A000F088FDBDE810400FA000F04A
:1014300083BD0000312E20C6F4B6AFD2BBB8F6D7BC
:10144000D4B6AFD6D8D7B0C8EDBCFEB6A8CAB1C620
:10145000F7A3ACC3BF3130306D73B7ADD7AAD2BBE1
:10146000B4CE4C4544320D0A00000000322E20B0AC
:10147000B4CFC2B0B4BCFC4B31A3ACB4F2D3A1D452
:10148000ADCABCB2A8D0CECAFDBEDDBACDC2CBB209
:10149000A8BAF3B5C4B2A8D0CECAFDBEDD0D0A000D
:1014A00070B523A000F048FD31480468001D0568B0
:1014B000001D06682F4830490068B0FBF1F12FA0ED
:1014C00000F03AFD23462A46314638A000F034FDAC
:1014D0003BA000F031FD16A000F02EFD39A13DA08B
:1014E00000F02AFD40A141A000F026FD44A147A044
:1014F00000F022FD4AA000F01FFD55A000F01CFDE9
:1015000055A000F019FD5AA000F016FD5DA000F0F6
:1015100013FD63A000F010FD68A000F00DFD6FA0AA
:1015200000F00AFDBDE8704001A000F005BD00001C
:101530002A2A2A2A2A2A2A2A2A2A2A2A2A2A2A2A0B
:101540002A2A2A2A2A2A2A2A2A2A2A2A2A2A2A2AFB
:101550002A2A2A2A2A2A2A2A2A2A2A2A2A2A2A2AEB
:101560002A2A2A2A2A2A2A2A2A2A2A2A2A0A0D0042
:10157000107AFF1F3000002040420F000D0A435038
:1015800055203A2053544D3332463430374947546E
:10159000362C204C5146503137362C20D6F7C6B564
:1015A0003A2025644D487A0D0A0000005549442030
:1015B0003D202530385820253038582025303858DF
:1015C0000A0D0000494952B8DFCDA8C2CBB2A8C667
:1015D000F70000002A20C0FDB3CCC3FBB3C6202017
:1015E000203A2025730D0A00312E30002A20C0FD3C
:1015F000B3CCB0E6B1BE2020203A2025730D0A00FE
:10160000323032312D30382D313500002A20B7A24A
:10161000B2BCC8D5C6DA2020203A2025730D0A00B6
:101620002A2048414CBFE2B0E6B1BE20203A205605
:10163000312E372E36202853544D3332463430372E
:101640002048414C20447269766572290D0A0000D9
:101650002A200D0A000000002A20515120202020BD
:101660003A2031323935373434363330200D0A00E0
:101670002A20CDFACDFA20203A2061726D666C796D
:101680000D0A00002A20456D61696C203A206172C4
:101690006D666C794071712E636F6D200D0A0000CC
:1016A0002A20CEA2D0C5B9ABD6DABAC53A2061722B
:1016B0006D666C795F636F6D200D0A002A20CCD4B3
:1016C000B1A6B5EA3A2061726D666C792E74616FCD
:1016D00062616F2E636F6D0D0A0000002A20436F58
:1016E00070797269676874207777772E61726D669A
:1016F0006C792E636F6D20B0B2B8BBC0B3B5E7D7BD
:10170000D30D0A0000B587B000210B48026842F0F3
:1017100002020260006800F00200019001200390C4
:101720000491032005900420029002A90348FFF7CA
:1017300059F807B000BD00003038024000040240F4
:101740007047000010B5FFF735F9044840780028CD
:1017500003D0BDE8104000F003B810BD0800002021
:1017600070B5174E7068002805D07068401E706014
:1017700001D1012030700024124D04EB440005EB30
:10178000800001F015FC641CE4B2042CF5D3B068B1
:10179000401CB060B0686FF000410024884200D166
:1017A000B46001F0CFFBB078401CC0B2B0700A2822
:1017B00004D3B470BDE8704001F0C2BB70BD00003E
:1017C000080000208C0D002030B593B014210EA825
:1017D000FEF74FFD302102A8FEF74BFD00252548FE
:1017E000016841F080510160006800F08050019074
:1017F0002148016841F480410160006800F48040A4
:1018000001900120029000040390022408948001BA
:10181000099019200A904FF4A8700B900C940420A2
:101820000D9002A8FFF748FA18B1772113A0FEF730
:10183000CEFF0F200E900F9410954FF4A0501190F2
:101840004FF48050129005210EA8FFF737F918B118
:101850008A210AA0FEF7BBFF0648001D016841F47B
:1018600080410160006800F480400190FEF7B4FF01
:1018700013B030BD40380240007000402E2E5C2E68
:101880002E5C557365725C6273705C6273702E635C
:10189000000000001048016841F4700101600F4829
:1018A000016841F0010101600C4A00210832116019
:1018B00002680B4B1A400260031D0A4A1A60026854
:1018C00022F48022026005480C300160024958066B
:1018D000803908607047000088ED00E00038024061
:1018E000FFFFF6FE1030002470B54FF080442069F1
:1018F00000F00200E16801F00201204D002808D04C
:1019000039B14FF6FD702061E1680140E160E8689F
:101910008047206900F00400E16801F0040140B153
:1019200039B14FF6FB702061E1680140E160286940
:101930008047206900F00800E16801F0080140B12B
:1019400039B14FF6F7702061E1680140E1606869E4
:101950008047206900F01000E16801F010010028C4
:101960000BD0002909D04FF6EF702061E1680140EB
:10197000E160A869BDE87040004770BD0800002024
:101980002DE9F0410268264D264E274FDFF89CC016
:10199000274B4FF08048A84209D0404507D0B042BD
:1019A00005D0B84203D0604501D0984203D122F05F
:1019B00070044A682243A8421BD0404519D0B04267
:1019C00017D0B84215D0604513D0984211D0194CA9
:1019D000A0420ED0184CA0420BD0184CA04208D008
:1019E000174CA04205D0174CA04202D0164CA04282
:1019F00003D122F44074CA6822434C6922F0800269
:101A0000224302608A68C2620A688262A84201D0E8
:101A1000984201D10969016301214161BDE8F0816A
:101A2000000001400004004000080040000C00409D
:101A300000040140004001400044014000480140D2
:101A400000180040001C0040002000402DE9F0413B
:101A5000044620680169E26821F4405111430161A4
:101A6000A1682069E269014360691043014320686D
:101A7000C26849F20C639A430A43C2602068416914
:101A8000A26921F4407111434161E069B24AB3494E
:101A900064253226B0F5004F59D02068884201D025
:101AA00090427DD1FFF7C2F800EBC00101EB0010BE
:101AB00061688900B0FBF1F7FFF7B8F800EBC001EF
:101AC00001EB001061688900B0FBF1F0B0FBF5F0AC
:101AD0006FF01801484307EB800006EB0010B0FBE5
:101AE000F5F000F0F007FFF7A1F800EBC00101EB03
:101AF000001061688900B0FBF1F0B0FBF5F007EB76
:101B00000017FFF793F800EBC00101EB00106168CC
:101B10008900B0FBF1F8FFF789F800EBC00101EB99
:101B2000001061688900B0FBF1F0B0FBF5F06FF0D8
:101B30001801484308EB800006EB0010B0FBF5F0FD
:101B4000216800F00F0038448860BDE8F08120680B
:101B5000884201D0904256D1FFF768F800EBC001EF
:101B600001EB001061684900B0FBF1F0B0FBF5F04B
:101B70000701FFF75BF800EBC00101EB00106168A3
:101B80004900B0FBF1F8FFF751F800EBC00101EBA1
:101B9000001061684900B0FBF1F0B0FBF5F000E027
:101BA00086E06FF01801484308EB800006EBC000A8
:101BB000B0FBF5F000F0F80007EB4007FFF736F850
:101BC00000EBC00101EB001061684900B0FBF1F8C7
:101BD000FFF72CF800EBC00101EB00106168490031
:101BE000B0FBF1F0B0FBF5F06FF01801484308EBE3
:101BF000800006EBC000B0FBF5F0216800F00700A4
:101C000038448860A1E7FFF701F800EBC00101EB61
:101C1000001061684900B0FBF1F0B0FBF5F007017E
:101C2000FEF7F4FF00EBC00101EB00106168490012
:101C3000B0FBF1F8FEF7EAFF00EBC00101EB00108A
:101C400061684900B0FBF1F0B0FBF5F06FF01801EE
:101C5000484308EB800006EBC000B0FBF5F000F055
:101C6000F80007EB4007FEF7D1FF00EBC00101EBE6
:101C7000001061684900B0FBF1F8FEF7C7FF00EB08
:101C8000C00101EB001061684900B0FBF1F0B0FB4E
:101C9000F5F06FF01801484308EB800006EBC00038
:101CA000B0FBF5F0216800F00700384488604CE78D
:101CB000FEF7ACFF00EBC00101EB0010616889008A
:101CC000B0FBF1F7FEF7A2FF00EBC00101EB001043
:101CD00061688900B0FBF1F0B0FBF5F06FF018011E
:101CE000484307EB800006EB0010B0FBF5F000F076
:101CF000F007FEF78BFF00EBC00101EB00106168FD
:101D00008900B0FBF1F0B0FBF5F007EB0017FEF730
:101D10007DFF00EBC00101EB001061688900B0FBA2
:101D2000F1F8FEF773FF00EBC00101EB00106168F2
:101D30008900B0FBF1F0B0FBF5F06FF018014843FB
:101D400008EB800006EB0010B0FBF5F0216800F016
:101D50000F0038448860F8E600140140001001408C
:101D6000014800F009B80000BC0D0020014800F057
:101D700003B80000E81500202DE9F0410446206872
:101D80000568C6684169A9064FF0000715D5406887
:101D9000C0B2E28AA1688854E18A491C8AB2E28210
:101DA000E1898A4200D3E782628B8A4202D2618B48
:101DB000491C6183616A01B18847280616D530063F
:101DC00014D5A08A50B3012084F82800618A606885
:101DD000405C21684860608A401C80B26082A189B2
:101DE000884200D36782A08A401EA082680613D56D
:101DF000700611D5A08AE0B1618A6068405C2168F4
:101E00004860608A401C80B26082A189884200D309
:101E10006782A08A401EA082BDE8F0812068C16868
:101E200021F08001C1602068C16841F04001C160BB
:101E3000DCE72068C16821F04001C160206A00B180
:101E4000804784F82870E7E778B5002317E0CC5C7A
:101E5000068A4568AC55012484F31088048A641C02
:101E6000A4B204828589AC4201D300240482848A0E
:101E7000641C8482002484F310885B1C9BB2934210
:101E80000CD319E0BDF80050AC4207D10468E568F6
:101E90002D0603D4E56845F08005E560012484F350
:101EA0001088848A0094002484F310888489BDF803
:101EB0000050AC42E6D9CAE70068C16841F0800131
:101EC000C16078BD19491848086001F12C004860CC
:101ED00000F5806088604FF480628A81CA810020AA
:101EE00008824882C882088348838882C861086261
:101EF000486281F8280001F62C010D4B0B6001F1BE
:101F00002C034B6001F22C438B608A81CA810882CA
:101F10004882C882088348838882C8610862486210
:101F200081F828007047000000100140BC0D00201F
:101F300000140140FEE700000FB4054B10B503A9E3
:101F4000044A029800F0EAF810BC5DF814FB0000A7
:101F500083300008380000200907090E002804DB40
:101F600000F1E02080F80014704700F00F0000F14D
:101F7000E02080F8141D704702E008C8121F08C155
:101F8000002AFAD170477047002001E001C1121FFA
:101F9000002AFBD1704700002DE9FF5F82B00021CD
:101FA000DDE90430020DDDF840B0034318D044F6FB
:101FB0001050A2F2FF3242431514119801281FD08D
:101FC000A5EB0B00401C5FEA000A4FF000064E4FE5
:101FD000DFF83891B046504615D5CAF1000413E039
:101FE000119801244AA3012801D16FEA0B0102983C
:101FF000119AC0E90031C0E9024206B0BDE8F09F85
:10200000CBF10000DFE704460021404A491842EBCB
:102010000450CDE9001012E0E00707D032463B46FD
:1020200040464946FEF7D7F98046894632463B4648
:1020300010461946FEF7CFF906460F466410002CED
:10204000EAD1DDE90401DDE90023BAF1000F06DA87
:10205000FEF7C1F942464B46FEF7BDF905E0FEF733
:102060002CFA42464B46FEF728FA04460E4600225A
:10207000284BFEF7A5FA03D84FF0FF30014607E0E2
:102080000022254B20463146FEF7FEF8FEF733FBD3
:10209000102409E0002C0ADB0A220023FEF790F846
:1020A000039B30321A55641E50EA0102F2D1641CBF
:1020B000039AC4F111031444119A012A03D0012296
:1020C00008430DD10AE0084304D000204FF0110B63
:1020D000119072E7A3EB0B056D1E0DE05B4504DD6F
:1020E0004FF0000205F1010504E003DA4FF00002B1
:1020F000A5F10105002AECD002981199C0E902313E
:10210000C0E9004579E70000000014400000F03FFE
:10211000300000000000F0430000E03F2DE9FF4FD9
:1021200095B09B468946064600250FE2252877D1C3
:1021300000242746F84A0121059400E0044316F8DC
:10214000013F203B01FA03F01042F7D130782A28F2
:1021500011D06FF02F033078A0F13002092A16D881
:10216000059A44F0020402EB820203EB420210449F
:10217000761C0590EFE759F8042B0592002A03DA44
:10218000504244F40054059044F00204761C307828
:102190002E2816D116F8010F44F004042A280DD079
:1021A0006FF02F023078A0F13003092B09D807EB2C
:1021B000870302EB4303C718761CF3E759F8047B47
:1021C000761C30786C280FD006DC4C2817D0682895
:1021D0000DD06A2814D104E0742810D07A280FD1C9
:1021E0000DE044F400140AE044F4801401E044F4E7
:1021F00040147278824202D104F58014761C761C59
:10220000307866280BD013DC582877D009DC0028FA
:1022100075D04528F6D04628F4D047281AD19DE13C
:1022200018E0632835D0642879D0652812D195E16B
:10223000702873D008DC6728F1D069286FD06E2829
:102240000DD06F2806D1B5E073282CD0752875D035
:10225000782874D05A46179990476D1C75E1C4F3DD
:102260000250022809D003280DD0D9F80010042804
:102270000DD00D6009F1040967E1D9F80010EA17E3
:10228000C1E90052F6E7D9F800100D80F2E70D70B1
:10229000F0E719F8041B8DF8001000208DF80100FC
:1022A000EA46012003E059F804AB4FF0FF30610724
:1022B0004FF0000102D40DE008F101018846B94257
:1022C0000FDA8045F8DB1AF808100029F4D108E08D
:1022D00008F1010188468142FADB1AF8081000294A
:1022E000F6D105985B46A0EB080721463846179AB9
:1022F00000F094FA284400EB080507E04DE029E1DE
:102300000DE01AF8010B5A4617999047B8F10108E9
:10231000F7D25B4621463846179A13E142E00A227B
:102320000092C4F302524FF0000A022A08D059F872
:1023300004CB032A4FEAEC710AD00DE029E02AE031
:1023400009F1070121F00702F2E802C1914609E014
:102350000FFA8CFC4FEAEC71042A03D14FFA8CFC83
:102360004FEAEC71002907DA0A460021DCF1000C83
:1023700061EB02012D2202E0220504D52B228DF80B
:102380000420012203E0E20701D02022F7E7904673
:1023900059E00A2102E010220DE010214FF0000A5E
:1023A00000910BE010224FF0000A44F004040827CB
:1023B000009203E008224FF0000A0092C4F3025298
:1023C000022A05D059F804CB0021032A08D009E0DD
:1023D00009F1070121F00702F2E802C1914605E088
:1023E0001FFA8CFC042A01D10CF0FF0C4FF00008FE
:1023F000220728D5702806D0009B83F0100353EAEB
:102400000A0305D00EE040228DF80420012208E0E6
:102410005CEA010206D030228DF804208DF8050018
:1024200002229046009B83F0080353EA0A030AD174
:102430005CEA010201D1620705D530228DF8042043
:102440004FF001087F1E582804D034A003900EA836
:1024500002900DE036A0F9E753466046009AFDF77A
:10246000AFFE84460398825C0298401E0290027080
:102470005CEA0100F0D1029806A9081A00F1200ACE
:10248000600702D524F4803400E00127574502DDBF
:10249000A7EB0A0000E0002000EB0A01009005987D
:1024A0004144401A0590E00306D45B462146179A42
:1024B000059800F0B3F90544002706E001A85A4644
:1024C000C05D179990476D1C7F1C4745F6DBE00304
:1024D0000CD55B462146179A059800F09FF90544F4
:1024E00004E030205A46179990476D1C0099481E09
:1024F00000900029F5DC08E0029802995A4600781D
:10250000491C0291179990476D1CBAF10001AAF17C
:10251000010AF1DC65E100000928010030313233A5
:10252000343536373839616263646566000000000F
:1025300030313233343536373839414243444546F9
:102540000000000000F058F90544761C307800289F
:102550007FF4ECAD19B02846BDE8F08F620700D4D7
:10256000062709F1070222F0070CFCE80223E146E6
:1025700003F000485FEA080C02D00FF2702C0DE067
:102580005FEA045C02D50FF2682C07E05FEAC47CC6
:1025900002D00FF2602C01E0AFF2700C4FF0FF3868
:1025A00023F00043CDF850C065280CD006DC452848
:1025B00009D046281DD047283DD13DE0662818D0D7
:1025C00067287ED138E00021112F01DB112000E0C7
:1025D000781CCDE9000106A90EA8FFF7DDFCDDE9B6
:1025E0000F010E9A03910021009207F1010A049154
:1025F0004DE04FF000400097CDE9011006A90EA86C
:10260000FFF7CAFCDDE90F0203920E9B119900222D
:10261000DDF80CA00093049211B9791C00EB010ABB
:10262000B7EB0A0004D4C0F1FF3007F1010A0490AF
:10263000AAEB0700019044E0012F00DA01270021F6
:10264000112F01DD112000E03846CDE9000106A977
:102650000EA8FFF7A1FCDDE90F010E9A03910021FE
:1026600004910092BA4621070CD40399514500DA2F
:102670008A46BAF1010F05DD009AAAF10101515C09
:10268000302908D0B84202DA10F1040F06DA01212D
:10269000CDE9011015E0AAF10101E9E7002805DC08
:1026A000049901440491AAEB000102E0411C514548
:1026B00000DD8A460499401A401C01904FF000400A
:1026C0000290200704D40198504501DBCDF8048026
:1026D00000208DF84F0002980DF14F07B0F1004F28
:1026E00025D02B200E9002984FF0020800280CDA1B
:1026F000404202902D200E9007E00A210298FDF73B
:1027000077FF3031029007F8011DB8F10001A8F100
:102710000108F2DC02980028EFD1791E0E980870AB
:10272000307800F0200040F0450007F8020D12A8B4
:10273000C01B00F107081498007800B1012000EBDD
:102740000A01019801EBE07105984144401A401ECE
:102750000590E00306D45B462146179A059800F0E1
:102760005DF805441498007818B15A4617999047B7
:102770006D1CE00324D55B462146179A059800F0AE
:102780004DF805441CE00498002807DBDDE903014F
:10279000884203DD0098405C179901E017993020CA
:1027A0005A469047049805F10105401C0490019891
:1027B000401E019004D12E205A46179990476D1C57
:1027C000BAF10001AAF1010ADDDC05E017F8010BFE
:1027D0005A46179990476D1CB8F10001A8F10108FD
:1027E000F4DC5B462146179A0598ABE62D00000005
:1027F0002B000000200000002DE9F04104460025D8
:102800001E461746880404D405E039462020B04708
:102810006D1C641EF9D52846BDE8F0812DE9F04114
:10282000044600251E469046C80301D5302700E027
:102830002027880404D505E041463846B0476D1C82
:10284000641EF9D52846BDE8F0812DE9F041144613
:1028500045688768D0F800C04FEA9308F7EC011A82
:10286000B7EC012AF7EC012AB7EC013AF7EC013A90
:10287000D5ED000A95ED014A95ED020A95ED031A92
:10288000404638E0F1EC015A61EEA54A42EE204A9A
:1028900042EE844A43EE004A43EE814AE4EC014AA8
:1028A000B1EC016A21EE865A02EE255A02EEA05AD8
:1028B00003EE245A03EE805AA4EC015AB1EC014A0B
:1028C00021EE841A02EE061A02EEA51A03EE051A8C
:1028D00003EEA41AA4EC011AF1EC010A21EEA00AFD
:1028E00002EE040A02EE860A03EE010A03EE850AEE
:1028F000A4EC010A401E0028C4D103F0030616E030
:10290000B1EC015A61EE854A42EE204A42EE844A19
:1029100043EE004A43EE814AE4EC014AB0EE604ADD
:10292000F0EE450AB0EE401AB0EE640A761E002EB4
:10293000E6D1E5EC010AA5EC014AA5EC010AA5ECFB
:10294000011A11460C46ACF1010CBCF1000F85D107
:10295000BDE8F08170B504461D462160A260090102
:102960002846FDF786FC656070BD00002DE9F04348
:102970002DED028B85B0224D05F5C86605F548633F
:10298000204A022102A8FFF7E5FF00241E4F0AE0BB
:102990003B6804FB03F006EB800205EB800102A814
:1029A000FFF753FF641C78688442F1D39FED178AC8
:1029B0000024134F4FF4C87907F5C86808EB84006A
:1029C00090ED000A20EE080A10EE100AFDF7E4FD73
:1029D00005460E4657F82400FDF7DEFD41EC100BCE
:1029E000CDE9005653EC102B09A0FFF7A5FA641CA3
:1029F0004C45E3D305B0BDEC028BBDE8F08300008D
:102A00003C000020343100080000002019D39A3E19
:102A100025662C2025660D0A00000000DFED1D0A4A
:102A200020EE200AFDEEC00A10EE900AB5EEC00AB4
:102A3000F1EE10FA00D2401E00EE900AF8EEE00A25
:102A400030EE600ADFED140A20EE200ABCEEC01A58
:102A500011EE100A80B2B0F5007F02D3002030EEF4
:102A6000600A00EE900AF8EE600A70EE600A0B4908
:102A700001EB800292ED000A401C01EB800090ED1A
:102A8000001AF7EE001A71EEE01A21EE800A00EE4D
:102A9000810A704783F9223E00000044E4310008B7
:102AA000042801D30020704700EB4001054800EBEB
:102AB00081004178012901D0002070470021417038
:102AC000012070478C0D002070B505462A4800EBA8
:102AD00005142846FEF74EFC052205EB45030026AB
:102AE000A8B32179052901D2227170BD0A2902D229
:102AF000491C217170BDA07A05EB45056D1C20B9FC
:102B00000120A072E8B200F00DFA21890029F1D06D
:102B1000E08888420BD2401C80B2E0802189884244
:102B2000E8D1BDE87040DB1CD8B200F0FBB9E07A18
:102B30000028DFD0207B401CC0B22073E17A88429D
:102B4000D8D32673E8B2BDE8704000F0EBB9207925
:102B5000052801D922710BE010B1401E207107E059
:102B6000A07A012804D1A6729B1CD8B200F0DAF931
:102B7000E680267370BD0000DC0C0020074A917AC5
:102B8000D07A814201D100207047505C491CC9B203
:102B900091720A29F8D30021917270477C0D0020B0
:102BA000704710B5FDF70EFFFEF70EFE00F058F867
:102BB00000F02AF900F05AF9BDE8104000F0D4B84E
:102BC00000B591B0402101A8FDF753FB4FF08042C2
:102BD000002018490B6843F001030B60096801F0FD
:102BE00001010091144909684908144BB1FBF3F144
:102BF000491E8BB2411E01920293049105900390ED
:102C000006908020079001A8FEF732FA20B140F22A
:102C10001F210BA0FDF7DBFD022200211C20FDF788
:102C20001BFF1C20FDF70BFF01A8FEF73EFA11B0B9
:102C300000BD0000403802403000002040420F003C
:102C40002E2E5C2E2E5C557365725C6273705C7305
:102C500072635C6273705F74696D65722E630000ED
:102C600010B500F053F8BDE8104000F001B80000C6
:102C700030B587B000212348026842F004020260A8
:102C8000026802F004020192026842F0200202602F
:102C9000026802F020020192026842F080020260A3
:102CA000026802F080020192026842F04002026073
:102CB000026802F040020192026842F08002026063
:102CC000026802F080020192026842F4807202609F
:102CD000006800F480700190039104910320059036
:102CE0000024094D05EBC4008088029055F834009B
:102CF00002A9FDF777FD641CE4B2082CF2D307B0FB
:102D000030BD0000303802405C31000830B5154855
:102D100000228272C272027300216424A0F1A00317
:102D2000022503EB0110048105718272C2720273E5
:102D3000491CC9B20A29F4D306226421032000F0F9
:102D400003F906226421042000F0FEF80622642123
:102D5000052000F0F9F80622BDE830406421104655
:102D600000F0F2B87C0D002010B586B00022224899
:102D7000016841F004010160016801F00401009163
:102D8000016841F020010160016801F0200100911B
:102D9000016841F480710160006800F48070009067
:102DA000012000F077F8022000F074F8032000F012
:102DB00071F8042000F06EF80120029003920220C6
:102DC00004904002019001A90C48FDF70BFD802002
:102DD00001900B4C01A92046FDF704FDA1150191BE
:102DE00001A92046FDF7FEFC0420019001A9054839
:102DF000FDF7F8FC06B010BD30380240002002405C
:102E0000001402400008024030B40020134C00239C
:102E100000EB400204EB82014B608B604B7004F8C6
:102E20002230401CC0B20428F2D30D484FF47A710E
:102E30000068B0FBF1F0401EB0F1807F08D24FF087
:102E4000E0214861074AF02010708B61072008617B
:102E500005490120487030BCFFF7B2BE8C0D002040
:102E60003000002023ED00E00800002010B5FFF73F
:102E700029F8FEF7D1F9BDE81040FEF743BC10B5C4
:102E800000242046FFF720FE641CE4B20A2CF8D38D
:102E900010BD0000401EC0B200280AD00B49012816
:102EA0000CD002280DD0032802D109490420086063
:102EB000704708494FF4806088617047802008603F
:102EC00070474FF48070086070470000181402408B
:102ED000180802400020024001280CD00E490228A8
:102EE0000FD0032812D0042804D10C48016881F0C7
:102EF0000401016070470A48416981F480614161C1
:102F00007047086880F0800008607047086880F4A7
:102F100080700860704700001414024014080240DA
:102F2000002002400549CA7A8854C87A401CC0B2C1
:102F3000C8720A2801D30020C87270477C0D002097
:102F4000FFF79DBF70470000034B03EB00100181AA
:102F5000C272002101737047DC0C002000B591B0F3
:102F6000019002910020039004900592079006932F
:102F7000089001A8FEF7ABF8002804D040F2BA216F
:102F800002A0FDF724FC11B000BD00002E2E5C2E27
:102F90002E5C557365725C6273705C7372635C6205
:102FA00073705F756172745F6669666F2E6300008F
:102FB000416800290AD04168491E416006D10121BB
:102FC00041700178012901D181684160704700009A
:102FD00010B5042805D30C4A0CA114A0FEF7ACFFD1
:102FE000FEE7012282F31088184B00EB400203EB4E
:102FF00082004160816000214170012003F82200BD
:1030000081F3108810BD0000AB3100082E2E5C2E1D
:103010002E5C557365725C6273705C7372635C6284
:1030200073705F74696D65722E6300004572726F14
:10303000723A2066696C652025732C2066756E6374
:1030400074696F6E20257328290D0A008C0D0020ED
:1030500070B50D461646FDF783FB0446002C09D0DB
:10306000E06900B18047324629462046BDE87040FD
:10307000FEF7EABE70BD13B5012201A9FFF7E8FF14
:103080001CBD10B50446E1B20020FFF7F4FF204656
:1030900010BD00002DED048BFFF783FDFEF700FA55
:1030A000FEF7BEF900249FED1F9A9FED1F8ADFED0A
:1030B0001F8A1F4D4FF4C87600EE104AB8EE400A42
:1030C00060EE090A80EE880AFFF7A8FCF0EE409A4D
:1030D00000EE104AB8EE400A60EE280A80EE880A38
:1030E000FFF79CFC39EE800A05EB840080ED000AB6
:1030F000641CA4B2B442DFD364210020FFF768FF50
:10310000FFF74EFD0020FFF7CBFC10B10220FFF7C8
:10311000E3FEFFF733FD0028F2D00128F0D1FFF7DE
:1031200025FCEDE762149D4300007A4462149D443F
:103130003C0000200000803F000000C00000803FF5
:10314000030B7C3FA3680BBF0000803F000000C062
:103150000000803F9CA53E3FC85B2CBE0020024083
:103160000001000000080240002000000020024092
:1031700000080000001C024004000000001C024087
:10318000080000000014024000080000001802407F
:1031900080000000001C0240008000006273705F2D
:1031A000537461727454696D6572006273705F5319
:1031B000746172744175746F54696D6572006273E5
:1031C000705F53746F7054696D6572000000000089
:1031D00000000000010203040607080900000000C7
:1031E0000102030400000000920E493CB10AC93CF0
:1031F0002BC3163D2EFB483D752B7B3D04A9963D08
:1032000080B6AF3D36BDC83D2FBCE13D73B2FA3D3F
:1032100087CF093E8340163EB5AB223EA2102F3E1B
:10322000CF6E3B3EC2C5473E0115543E135C603E27
:103230007F9A6C3ECCCF783EC07D823E938E883E96
:10324000229A8E3E32A0943E86A09A3EE59AA03EF7
:10325000128FA63ED47CAC3EEF63B23E2A44B83E09
:10326000491DBE3E15EFC33E53B9C93ECA7BCF3E92
:103270004136D53E80E8DA3E4F92E03E7533E63E79
:10328000BBCBEB3EEA5AF13ECBE0F63E275DFC3E7F
:10329000E4E7003F3D9C033F824B063F9BF5083F20
:1032A0006B9A0B3FDA390E3FCDD3103F2A68133F9C
:1032B000D9F6153FC07F183FC6021B3FD17F1D3F87
:1032C000CBF61F3F9967223F25D2243F5636273F32
:1032D0001594293F4AEB2B3FDE3B2E3FBB85303F09
:1032E000C9C8323FF304353F233A373F4268393F7C
:1032F0003B8F3B3FF9AE3D3F67C73F3F70D8413FF3
:1033000001E2433F03E4453F65DE473F12D1493FB9
:10331000F8BB4B3F029F4D3F207A4F3F3D4D513F01
:103320004918533F31DB543FE595563F5348583FCA
:103330006AF2593F1A945B3F532D5D3F05BE5E3FD5
:103340002146603F97C5613F5A3C633F59AA643F9D
:10335000880F663FD86B673F3CBF683FA7096A3F4D
:103360000C4B6B3F5E836C3F93B26D3F9ED86E3FBC
:1033700073F56F3F0809713F5213723F4714733F53
:10338000DD0B743F0BFA743FC6DE753F07BA763F1C
:10339000C58B773FF853783F9812793F9DC7793FA7
:1033A00002737A3FBE147B3FCDAC7B3F283B7C3F12
:1033B000C9BF7C3FAC3A7D3FCCAB7D3F23137E3F02
:1033C000B0707E3F6DC47E3F580E7F3F6D4E7F3F95
:1033D000AB847F3F0FB17F3F97D37F3F43EC7F3F6D
:1033E00011FB7F3F0000803F11FB7F3F43EC7F3F9D
:1033F00097D37F3F0FB17F3FAB847F3F6D4E7F3FC1
:10340000580E7F3F6DC47E3FB0707E3F23137E3FDA
:10341000CCAB7D3FAC3A7D3FC9BF7C3F283B7C3F76
:10342000CDAC7B3FBE147B3F02737A3F9DC7793F93
:103430009812793FF853783FC58B773F07BA763FAC
:10344000C6DE753F0BFA743FDD0B743F4714733FC4
:103450005213723F0809713F73F56F3F9ED86E3F5C
:1034600093B26D3F5E836C3F0C4B6B3FA7096A3F85
:103470003CBF683FD86B673F880F663F59AA643FDF
:103480005A3C633F97C5613F2146603F05BE5E3FA2
:10349000532D5D3F1A945B3F6AF2593F5348583FA2
:1034A000E595563F31DB543F4918533F3D4D513F61
:1034B000207A4F3F029F4D3FF8BB4B3F12D1493F0F
:1034C00065DE473F03E4453F01E2433F70D8413F9B
:1034D00067C73F3FF9AE3D3F3B8F3B3F4268393FB7
:1034E000233A373FF304353FC9C8323FBB85303FED
:1034F000DE3B2E3F4AEB2B3F1594293F5636273FA4
:1035000025D2243F9967223FCBF61F3FD17F1D3F35
:10351000C6021B3FC07F183FD9F6153F2A68133FEC
:10352000CDD3103FDA390E3F6B9A0B3F9BF5083F26
:10353000824B063F3D9C033FE4E7003F275DFC3E96
:10354000CBE0F63EEA5AF13EBBCBEB3E7533E63EAE
:103550004F92E03E80E8DA3E4136D53ECA7BCF3E10
:1035600053B9C93E15EFC33E491DBE3E2A44B83E7D
:10357000EF63B23ED47CAC3E128FA63EE59AA03EED
:1035800086A09A3E32A0943E229A8E3E938E883E2A
:10359000C07D823ECCCF783E7F9A6C3E135C603E0D
:1035A0000115543EC2C5473ECF6E3B3EA2102F3E92
:1035B000B5AB223E8340163E87CF093E73B2FA3D3B
:1035C0002FBCE13D36BDC83D80B6AF3D04A9963D58
:1035D000752B7B3D2EFB483D2BC3163DB10AC93CE4
:1035E000920E493C00000000920E49BCB10AC9BCD1
:1035F0002BC316BD2EFB48BD752B7BBD04A996BD04
:1036000080B6AFBD36BDC8BD2FBCE1BD73B2FABD3B
:1036100087CF09BE834016BEB5AB22BEA2102FBE17
:10362000CF6E3BBEC2C547BE011554BE135C60BE23
:103630007F9A6CBECCCF78BEC07D82BE938E88BE92
:10364000229A8EBE32A094BE86A09ABEE59AA0BEF3
:10365000128FA6BED47CACBEEF63B2BE2A44B8BE05
:10366000491DBEBE15EFC3BE53B9C9BECA7BCFBE8E
:103670004136D5BE80E8DABE4F92E0BE7533E6BE75
:10368000BBCBEBBEEA5AF1BECBE0F6BE275DFCBE7B
:10369000E4E700BF3D9C03BF824B06BF9BF508BF1C
:1036A0006B9A0BBFDA390EBFCDD310BF2A6813BF98
:1036B000D9F615BFC07F18BFC6021BBFD17F1DBF83
:1036C000CBF61FBF996722BF25D224BF563627BF2E
:1036D000159429BF4AEB2BBFDE3B2EBFBB8530BF05
:1036E000C9C832BFF30435BF233A37BF426839BF78
:1036F0003B8F3BBFF9AE3DBF67C73FBF70D841BFEF
:1037000001E243BF03E445BF65DE47BF12D149BFB5
:10371000F8BB4BBF029F4DBF207A4FBF3D4D51BFFD
:10372000491853BF31DB54BFE59556BF534858BFC6
:103730006AF259BF1A945BBF532D5DBF05BE5EBFD1
:10374000214660BF97C561BF5A3C63BF59AA64BF99
:10375000880F66BFD86B67BF3CBF68BFA7096ABF49
:103760000C4B6BBF5E836CBF93B26DBF9ED86EBFB8
:1037700073F56FBF080971BF521372BF471473BF4F
:10378000DD0B74BF0BFA74BFC6DE75BF07BA76BF18
:10379000C58B77BFF85378BF981279BF9DC779BFA3
:1037A00002737ABFBE147BBFCDAC7BBF283B7CBF0E
:1037B000C9BF7CBFAC3A7DBFCCAB7DBF23137EBFFE
:1037C000B0707EBF6DC47EBF580E7FBF6D4E7FBF91
:1037D000AB847FBF0FB17FBF97D37FBF43EC7FBF69
:1037E00011FB7FBF000080BF11FB7FBF43EC7FBF99
:1037F00097D37FBF0FB17FBFAB847FBF6D4E7FBFBD
:10380000580E7FBF6DC47EBFB0707EBF23137EBFD6
:10381000CCAB7DBFAC3A7DBFC9BF7CBF283B7CBF72
:10382000CDAC7BBFBE147BBF02737ABF9DC779BF8F
:10383000981279BFF85378BFC58B77BF07BA76BFA8
:10384000C6DE75BF0BFA74BFDD0B74BF471473BFC0
:10385000521372BF080971BF73F56FBF9ED86EBF58
:1038600093B26DBF5E836CBF0C4B6BBFA7096ABF81
:103870003CBF68BFD86B67BF880F66BF59AA64BFDB
:103880005A3C63BF97C561BF214660BF05BE5EBF9E
:10389000532D5DBF1A945BBF6AF259BF534858BF9E
:1038A000E59556BF31DB54BF491853BF3D4D51BF5D
:1038B000207A4FBF029F4DBFF8BB4BBF12D149BF0B
:1038C00065DE47BF03E445BF01E243BF70D841BF97
:1038D00067C73FBFF9AE3DBF3B8F3BBF426839BFB3
:1038E000233A37BFF30435BFC9C832BFBB8530BFE9
:1038F000DE3B2EBF4AEB2BBF159429BF563627BFA0
:1039000025D224BF996722BFCBF61FBFD17F1DBF31
:10391000C6021BBFC07F18BFD9F615BF2A6813BFE8
:10392000CDD310BFDA390EBF6B9A0BBF9BF508BF22
:10393000824B06BF3D9C03BFE4E700BF275DFCBE92
:10394000CBE0F6BEEA5AF1BEBBCBEBBE7533E6BEAA
:103950004F92E0BE80E8DABE4136D5BECA7BCFBE0C
:1039600053B9C9BE15EFC3BE491DBEBE2A44B8BE79
:10397000EF63B2BED47CACBE128FA6BEE59AA0BEE9
:1039800086A09ABE32A094BE229A8EBE938E88BE26
:10399000C07D82BECCCF78BE7F9A6CBE135C60BE09
:1039A000011554BEC2C547BECF6E3BBEA2102FBE8E
:1039B000B5AB22BE834016BE87CF09BE73B2FABD37
:1039C0002FBCE1BD36BDC8BD80B6AFBD04A996BD54
:1039D000752B7BBD2EFB48BD2BC316BDB10AC9BCE0
:1039E000920E49BC00000080083A00080000002048
:1039F0003C000000781F0008443A00083C0000200A
:103A00001C2E0000881F000801000000900100002B
:103A100000000000000000000000000000000000A6
:103A20000000000000000000000000000100000095
:103A300010000000000000000024F400000000005E
:043A40000000000082
:040000050800018965
:00000001FF
